{
  "_format": "hh-sol-artifact-1",
  "contractName": "FlipKart",
  "sourceName": "contracts/FlipKart.sol",
  "abi": [
    {
      "inputs": [
        {
          "internalType": "uint256",
          "name": "value",
          "type": "uint256"
        }
      ],
      "stateMutability": "nonpayable",
      "type": "constructor"
    },
    {
      "inputs": [
        {
          "internalType": "string",
          "name": "brandId",
          "type": "string"
        },
        {
          "internalType": "string",
          "name": "name",
          "type": "string"
        },
        {
          "internalType": "string",
          "name": "category",
          "type": "string"
        },
        {
          "internalType": "string",
          "name": "imageUrl",
          "type": "string"
        },
        {
          "internalType": "uint256",
          "name": "price",
          "type": "uint256"
        }
      ],
      "name": "addProduct",
      "outputs": [],
      "stateMutability": "nonpayable",
      "type": "function"
    },
    {
      "inputs": [
        {
          "internalType": "string",
          "name": "",
          "type": "string"
        }
      ],
      "name": "brandDetails",
      "outputs": [
        {
          "internalType": "string",
          "name": "id",
          "type": "string"
        },
        {
          "internalType": "string",
          "name": "name",
          "type": "string"
        },
        {
          "internalType": "string",
          "name": "category",
          "type": "string"
        },
        {
          "internalType": "address payable",
          "name": "owner",
          "type": "address"
        },
        {
          "internalType": "bool",
          "name": "isIssuingTokens",
          "type": "bool"
        },
        {
          "internalType": "uint256",
          "name": "rewardTokensLeft",
          "type": "uint256"
        },
        {
          "internalType": "uint256",
          "name": "rewardPricePercentage",
          "type": "uint256"
        }
      ],
      "stateMutability": "view",
      "type": "function"
    },
    {
      "inputs": [
        {
          "internalType": "address",
          "name": "",
          "type": "address"
        }
      ],
      "name": "brandIds",
      "outputs": [
        {
          "internalType": "string",
          "name": "",
          "type": "string"
        }
      ],
      "stateMutability": "view",
      "type": "function"
    },
    {
      "inputs": [
        {
          "internalType": "string",
          "name": "brandId",
          "type": "string"
        },
        {
          "internalType": "string",
          "name": "productId",
          "type": "string"
        },
        {
          "internalType": "bool",
          "name": "isRedeemingTokens",
          "type": "bool"
        },
        {
          "internalType": "string",
          "name": "rewardRedeemCode",
          "type": "string"
        }
      ],
      "name": "buyProduct",
      "outputs": [],
      "stateMutability": "payable",
      "type": "function"
    },
    {
      "inputs": [
        {
          "internalType": "string",
          "name": "brandId",
          "type": "string"
        }
      ],
      "name": "buyTokens",
      "outputs": [],
      "stateMutability": "payable",
      "type": "function"
    },
    {
      "inputs": [
        {
          "internalType": "string",
          "name": "brandId",
          "type": "string"
        },
        {
          "internalType": "uint256",
          "name": "discount",
          "type": "uint256"
        },
        {
          "internalType": "uint256",
          "name": "maxDiscountValue",
          "type": "uint256"
        },
        {
          "internalType": "uint256",
          "name": "tokens",
          "type": "uint256"
        }
      ],
      "name": "createReward",
      "outputs": [],
      "stateMutability": "nonpayable",
      "type": "function"
    },
    {
      "inputs": [
        {
          "internalType": "string",
          "name": "rewardId",
          "type": "string"
        }
      ],
      "name": "issueReward",
      "outputs": [],
      "stateMutability": "nonpayable",
      "type": "function"
    },
    {
      "inputs": [
        {
          "internalType": "string",
          "name": "brandId",
          "type": "string"
        },
        {
          "internalType": "uint256",
          "name": "tokens",
          "type": "uint256"
        }
      ],
      "name": "issueTokens",
      "outputs": [],
      "stateMutability": "nonpayable",
      "type": "function"
    },
    {
      "inputs": [
        {
          "internalType": "string",
          "name": "",
          "type": "string"
        }
      ],
      "name": "productDetails",
      "outputs": [
        {
          "internalType": "string",
          "name": "id",
          "type": "string"
        },
        {
          "internalType": "string",
          "name": "name",
          "type": "string"
        },
        {
          "internalType": "string",
          "name": "category",
          "type": "string"
        },
        {
          "internalType": "string",
          "name": "imageUrl",
          "type": "string"
        },
        {
          "internalType": "uint256",
          "name": "price",
          "type": "uint256"
        },
        {
          "internalType": "bool",
          "name": "available",
          "type": "bool"
        }
      ],
      "stateMutability": "view",
      "type": "function"
    },
    {
      "inputs": [
        {
          "internalType": "string",
          "name": "rewardRedeemCode",
          "type": "string"
        },
        {
          "internalType": "uint256",
          "name": "priceToPay",
          "type": "uint256"
        }
      ],
      "name": "redeemReward",
      "outputs": [
        {
          "internalType": "uint256",
          "name": "",
          "type": "uint256"
        }
      ],
      "stateMutability": "nonpayable",
      "type": "function"
    },
    {
      "inputs": [
        {
          "internalType": "string",
          "name": "name",
          "type": "string"
        },
        {
          "internalType": "string",
          "name": "category",
          "type": "string"
        },
        {
          "internalType": "uint256",
          "name": "rewardPricePercentage",
          "type": "uint256"
        },
        {
          "internalType": "uint256[][]",
          "name": "rewardMilestones",
          "type": "uint256[][]"
        }
      ],
      "name": "registerBrand",
      "outputs": [],
      "stateMutability": "payable",
      "type": "function"
    },
    {
      "inputs": [
        {
          "internalType": "string",
          "name": "name",
          "type": "string"
        },
        {
          "internalType": "string",
          "name": "_referral",
          "type": "string"
        }
      ],
      "name": "registerUser",
      "outputs": [],
      "stateMutability": "nonpayable",
      "type": "function"
    },
    {
      "inputs": [
        {
          "internalType": "address",
          "name": "account",
          "type": "address"
        }
      ],
      "name": "showBalance",
      "outputs": [
        {
          "internalType": "uint256",
          "name": "",
          "type": "uint256"
        }
      ],
      "stateMutability": "view",
      "type": "function"
    },
    {
      "inputs": [
        {
          "internalType": "string",
          "name": "brandId",
          "type": "string"
        }
      ],
      "name": "showBrandProducts",
      "outputs": [
        {
          "components": [
            {
              "internalType": "string",
              "name": "id",
              "type": "string"
            },
            {
              "internalType": "string",
              "name": "name",
              "type": "string"
            },
            {
              "internalType": "string",
              "name": "category",
              "type": "string"
            },
            {
              "internalType": "string",
              "name": "imageUrl",
              "type": "string"
            },
            {
              "internalType": "uint256",
              "name": "price",
              "type": "uint256"
            },
            {
              "internalType": "bool",
              "name": "available",
              "type": "bool"
            }
          ],
          "internalType": "struct FlipKart.Product[]",
          "name": "",
          "type": "tuple[]"
        }
      ],
      "stateMutability": "view",
      "type": "function"
    },
    {
      "inputs": [
        {
          "internalType": "string",
          "name": "brandId",
          "type": "string"
        }
      ],
      "name": "showBrandRewards",
      "outputs": [
        {
          "internalType": "string[]",
          "name": "",
          "type": "string[]"
        }
      ],
      "stateMutability": "view",
      "type": "function"
    },
    {
      "inputs": [],
      "name": "showBrands",
      "outputs": [
        {
          "internalType": "string[]",
          "name": "",
          "type": "string[]"
        }
      ],
      "stateMutability": "view",
      "type": "function"
    },
    {
      "inputs": [
        {
          "internalType": "address",
          "name": "account",
          "type": "address"
        }
      ],
      "name": "showUserPurchaseHistory",
      "outputs": [
        {
          "components": [
            {
              "internalType": "string",
              "name": "id",
              "type": "string"
            },
            {
              "internalType": "string",
              "name": "brandId",
              "type": "string"
            },
            {
              "internalType": "string",
              "name": "productId",
              "type": "string"
            },
            {
              "internalType": "string",
              "name": "userId",
              "type": "string"
            },
            {
              "internalType": "uint256",
              "name": "expenditure",
              "type": "uint256"
            },
            {
              "internalType": "uint256",
              "name": "tokensRedeemed",
              "type": "uint256"
            },
            {
              "internalType": "string",
              "name": "rewardRedeemed",
              "type": "string"
            }
          ],
          "internalType": "struct FlipKart.UserTransaction[]",
          "name": "",
          "type": "tuple[]"
        }
      ],
      "stateMutability": "view",
      "type": "function"
    },
    {
      "inputs": [
        {
          "internalType": "address",
          "name": "account",
          "type": "address"
        }
      ],
      "name": "showUserRewards",
      "outputs": [
        {
          "components": [
            {
              "internalType": "string",
              "name": "rewardId",
              "type": "string"
            },
            {
              "internalType": "uint256",
              "name": "discount",
              "type": "uint256"
            },
            {
              "internalType": "uint256",
              "name": "maxDiscountPrice",
              "type": "uint256"
            },
            {
              "internalType": "uint256",
              "name": "tokensRequired",
              "type": "uint256"
            },
            {
              "internalType": "string",
              "name": "redeemCode",
              "type": "string"
            }
          ],
          "internalType": "struct FlipKart.RedeemableReward[]",
          "name": "",
          "type": "tuple[]"
        }
      ],
      "stateMutability": "view",
      "type": "function"
    },
    {
      "inputs": [
        {
          "internalType": "address",
          "name": "",
          "type": "address"
        }
      ],
      "name": "userDetails",
      "outputs": [
        {
          "internalType": "string",
          "name": "id",
          "type": "string"
        },
        {
          "internalType": "string",
          "name": "name",
          "type": "string"
        },
        {
          "internalType": "address",
          "name": "account",
          "type": "address"
        },
        {
          "internalType": "string",
          "name": "referralCode",
          "type": "string"
        }
      ],
      "stateMutability": "view",
      "type": "function"
    }
  ],
  "bytecode": "0x60806040523480156200001157600080fd5b5060405162007918380380620079188339818101604052810190620000379190620000ff565b6040516200004590620000b1565b604051809103906000f08015801562000062573d6000803e3d6000fd5b50600b60006101000a81548173ffffffffffffffffffffffffffffffffffffffff021916908373ffffffffffffffffffffffffffffffffffffffff16021790555080600c819055505062000131565b611914806200600483390190565b600080fd5b6000819050919050565b620000d981620000c4565b8114620000e557600080fd5b50565b600081519050620000f981620000ce565b92915050565b600060208284031215620001185762000117620000bf565b5b60006200012884828501620000e8565b91505092915050565b615ec380620001416000396000f3fe6080604052600436106101145760003560e01c806355008c18116100a0578063d98512d711610064578063d98512d7146103ca578063dac1196314610407578063dc7f91d214610444578063e51b85291461046f578063e7d4b3fd146104ac57610114565b806355008c18146102db5780636f85e62c146102f75780639c080f5d14610313578063cb84057014610350578063d7fe9ef11461038d57610114565b80632c46c910116100e75780632c46c910146101d65780632ce22810146102135780632da391051461023c57806335ac9baa1461027f57806348dec2a71461029b57610114565b806313c5da5514610119578063188d030c1461015b5780631d2e4afd1461018457806325dfbfba146101ad575b600080fd5b34801561012557600080fd5b50610140600480360381019061013b919061474a565b6104d5565b6040516101529695949392919061484f565b60405180910390f35b34801561016757600080fd5b50610182600480360381019061017d919061474a565b610754565b005b34801561019057600080fd5b506101ab60048036038101906101a691906148cc565b610cbc565b005b3480156101b957600080fd5b506101d460048036038101906101cf9190614970565b611268565b005b3480156101e257600080fd5b506101fd60048036038101906101f8919061474a565b611505565b60405161020a9190614b67565b60405180910390f35b34801561021f57600080fd5b5061023a60048036038101906102359190614b89565b6115ff565b005b34801561024857600080fd5b50610263600480360381019061025e919061474a565b6117fd565b6040516102769796959493929190614c26565b60405180910390f35b61029960048036038101906102949190614e53565b611a1a565b005b3480156102a757600080fd5b506102c260048036038101906102bd9190614f4c565b611d72565b6040516102d29493929190614f88565b60405180910390f35b6102f560048036038101906102f0919061500e565b611f5a565b005b610311600480360381019061030c919061474a565b613113565b005b34801561031f57600080fd5b5061033a60048036038101906103359190614f4c565b6132e3565b60405161034791906150c9565b60405180910390f35b34801561035c57600080fd5b5061037760048036038101906103729190614f4c565b613388565b60405161038491906150e4565b60405180910390f35b34801561039957600080fd5b506103b460048036038101906103af919061474a565b613428565b6040516103c19190615284565b60405180910390f35b3480156103d657600080fd5b506103f160048036038101906103ec9190614b89565b613715565b6040516103fe91906150c9565b60405180910390f35b34801561041357600080fd5b5061042e60048036038101906104299190614f4c565b613913565b60405161043b9190615420565b60405180910390f35b34801561045057600080fd5b50610459613ca2565b6040516104669190614b67565b60405180910390f35b34801561047b57600080fd5b5061049660048036038101906104919190614f4c565b613d7b565b6040516104a39190615581565b60405180910390f35b3480156104b857600080fd5b506104d360048036038101906104ce91906155a3565b613f5e565b005b60038180516020810182018051848252602083016020850120818352809550505050505060009150905080600001805461050e90615655565b80601f016020809104026020016040519081016040528092919081815260200182805461053a90615655565b80156105875780601f1061055c57610100808354040283529160200191610587565b820191906000526020600020905b81548152906001019060200180831161056a57829003601f168201915b50505050509080600101805461059c90615655565b80601f01602080910402602001604051908101604052809291908181526020018280546105c890615655565b80156106155780601f106105ea57610100808354040283529160200191610615565b820191906000526020600020905b8154815290600101906020018083116105f857829003601f168201915b50505050509080600201805461062a90615655565b80601f016020809104026020016040519081016040528092919081815260200182805461065690615655565b80156106a35780601f10610678576101008083540402835291602001916106a3565b820191906000526020600020905b81548152906001019060200180831161068657829003601f168201915b5050505050908060030180546106b890615655565b80601f01602080910402602001604051908101604052809291908181526020018280546106e490615655565b80156107315780601f1061070657610100808354040283529160200191610731565b820191906000526020600020905b81548152906001019060200180831161071457829003601f168201915b5050505050908060040154908060050160009054906101000a900460ff16905086565b6000151560098260405161076891906156c3565b9081526020016040518091039020600460003373ffffffffffffffffffffffffffffffffffffffff1673ffffffffffffffffffffffffffffffffffffffff1681526020019081526020016000206000016040516107c5919061576e565b908152602001604051809103902060009054906101000a900460ff161515146107ed57600080fd5b60006040518060a0016040528083815260200160078460405161081091906156c3565b908152602001604051809103902060020154815260200160078460405161083791906156c3565b908152602001604051809103902060030154815260200160078460405161085e91906156c3565b908152602001604051809103902060040154815260200161087d614113565b81525090506001600a600460003373ffffffffffffffffffffffffffffffffffffffff1673ffffffffffffffffffffffffffffffffffffffff1681526020019081526020016000206000016040516108d5919061576e565b908152602001604051809103902082608001516040516108f591906156c3565b908152602001604051809103902060006101000a81548160ff021916908315150217905550816008826080015160405161092f91906156c3565b9081526020016040518091039020908051906020019061095092919061445b565b50600460003373ffffffffffffffffffffffffffffffffffffffff1673ffffffffffffffffffffffffffffffffffffffff16815260200190815260200160002060040181908060018154018082558091505060019003906000526020600020906005020160009091909190915060008201518160000190805190602001906109d992919061445b565b506020820151816001015560408201518160020155606082015181600301556080820151816004019080519060200190610a1492919061445b565b5050506001600983604051610a2991906156c3565b9081526020016040518091039020600460003373ffffffffffffffffffffffffffffffffffffffff1673ffffffffffffffffffffffffffffffffffffffff168152602001908152602001600020600001604051610a86919061576e565b908152602001604051809103902060006101000a81548160ff021916908315150217905550600b60009054906101000a900473ffffffffffffffffffffffffffffffffffffffff1673ffffffffffffffffffffffffffffffffffffffff1663095ea7b333670de0b6b3a7640000600786604051610b0391906156c3565b908152602001604051809103902060040154610b1f91906157b4565b6040518363ffffffff1660e01b8152600401610b3c92919061580e565b6020604051808303816000875af1158015610b5b573d6000803e3d6000fd5b505050506040513d601f19601f82011682018060405250810190610b7f919061584c565b50600b60009054906101000a900473ffffffffffffffffffffffffffffffffffffffff1673ffffffffffffffffffffffffffffffffffffffff166323b872dd336001600786604051610bd191906156c3565b9081526020016040518091039020600101604051610bef919061576e565b908152602001604051809103902060030160009054906101000a900473ffffffffffffffffffffffffffffffffffffffff16670de0b6b3a7640000600787604051610c3a91906156c3565b908152602001604051809103902060040154610c5691906157b4565b6040518463ffffffff1660e01b8152600401610c74939291906158d8565b6020604051808303816000875af1158015610c93573d6000803e3d6000fd5b505050506040513d601f19601f82011682018060405250810190610cb7919061584c565b505050565b600073ffffffffffffffffffffffffffffffffffffffff16600460003373ffffffffffffffffffffffffffffffffffffffff1673ffffffffffffffffffffffffffffffffffffffff16815260200190815260200160002060020160009054906101000a900473ffffffffffffffffffffffffffffffffffffffff1673ffffffffffffffffffffffffffffffffffffffff1614610d5757600080fd5b600073ffffffffffffffffffffffffffffffffffffffff166001600260003373ffffffffffffffffffffffffffffffffffffffff1673ffffffffffffffffffffffffffffffffffffffff168152602001908152602001600020604051610dbd919061576e565b908152602001604051809103902060030160009054906101000a900473ffffffffffffffffffffffffffffffffffffffff1673ffffffffffffffffffffffffffffffffffffffff1614610e0f57600080fd5b6000610e4533604051602001610e259190615957565b6040516020818303038152906040528051906020012060001c602061421f565b905080600460003373ffffffffffffffffffffffffffffffffffffffff1673ffffffffffffffffffffffffffffffffffffffff1681526020019081526020016000206000019080519060200190610e9d92919061445b565b5082600460003373ffffffffffffffffffffffffffffffffffffffff1673ffffffffffffffffffffffffffffffffffffffff1681526020019081526020016000206001019080519060200190610ef492919061445b565b5033600460003373ffffffffffffffffffffffffffffffffffffffff1673ffffffffffffffffffffffffffffffffffffffff16815260200190815260200160002060020160006101000a81548173ffffffffffffffffffffffffffffffffffffffff021916908373ffffffffffffffffffffffffffffffffffffffff160217905550610f7e614113565b600460003373ffffffffffffffffffffffffffffffffffffffff1673ffffffffffffffffffffffffffffffffffffffff1681526020019081526020016000206005019080519060200190610fd392919061445b565b50336006600460003373ffffffffffffffffffffffffffffffffffffffff1673ffffffffffffffffffffffffffffffffffffffff168152602001908152602001600020600501604051611026919061576e565b908152602001604051809103902060006101000a81548173ffffffffffffffffffffffffffffffffffffffff021916908373ffffffffffffffffffffffffffffffffffffffff160217905550600073ffffffffffffffffffffffffffffffffffffffff1660068360405161109a91906156c3565b908152602001604051809103902060009054906101000a900473ffffffffffffffffffffffffffffffffffffffff1673ffffffffffffffffffffffffffffffffffffffff161461126357600b60009054906101000a900473ffffffffffffffffffffffffffffffffffffffff1673ffffffffffffffffffffffffffffffffffffffff1663a0712d686802b5e3af16b18800006040518263ffffffff1660e01b815260040161114891906159ad565b600060405180830381600087803b15801561116257600080fd5b505af1158015611176573d6000803e3d6000fd5b50505050600b60009054906101000a900473ffffffffffffffffffffffffffffffffffffffff1673ffffffffffffffffffffffffffffffffffffffff1663a9059cbb6006846040516111c891906156c3565b908152602001604051809103902060009054906101000a900473ffffffffffffffffffffffffffffffffffffffff166802b5e3af16b18800006040518363ffffffff1660e01b815260040161121e9291906159c8565b6020604051808303816000875af115801561123d573d6000803e3d6000fd5b505050506040513d601f19601f82011682018060405250810190611261919061584c565b505b505050565b3373ffffffffffffffffffffffffffffffffffffffff1660018660405161128f91906156c3565b908152602001604051809103902060030160009054906101000a900473ffffffffffffffffffffffffffffffffffffffff1673ffffffffffffffffffffffffffffffffffffffff16146112e157600080fd5b600061131b8533426040516020016112fb93929190615a12565b6040516020818303038152906040528051906020012060001c602061421f565b905060006040518060c0016040528083815260200187815260200186815260200185815260200184815260200160011515815250905060018760405161136191906156c3565b908152602001604051809103902060040181908060018154018082558091505060019003906000526020600020906006020160009091909190915060008201518160000190805190602001906113b892919061445b565b5060208201518160010190805190602001906113d592919061445b565b5060408201518160020190805190602001906113f292919061445b565b50606082015181600301908051906020019061140f92919061445b565b506080820151816004015560a08201518160050160006101000a81548160ff02191690831515021790555050508060038360405161144d91906156c3565b9081526020016040518091039020600082015181600001908051906020019061147792919061445b565b50602082015181600101908051906020019061149492919061445b565b5060408201518160020190805190602001906114b192919061445b565b5060608201518160030190805190602001906114ce92919061445b565b506080820151816004015560a08201518160050160006101000a81548160ff02191690831515021790555090505050505050505050565b606060018260405161151791906156c3565b9081526020016040518091039020600501805480602002602001604051908101604052809291908181526020016000905b828210156115f457838290600052602060002001805461156790615655565b80601f016020809104026020016040519081016040528092919081815260200182805461159390615655565b80156115e05780601f106115b5576101008083540402835291602001916115e0565b820191906000526020600020905b8154815290600101906020018083116115c357829003601f168201915b505050505081526020019060010190611548565b505050509050919050565b3373ffffffffffffffffffffffffffffffffffffffff1660018360405161162691906156c3565b908152602001604051809103902060030160009054906101000a900473ffffffffffffffffffffffffffffffffffffffff1673ffffffffffffffffffffffffffffffffffffffff161461167857600080fd5b6000670de0b6b3a76400008261168e91906157b4565b90506116da6001846040516116a391906156c3565b908152602001604051809103902060030160009054906101000a900473ffffffffffffffffffffffffffffffffffffffff166132e3565b8111156116e657600080fd5b600b60009054906101000a900473ffffffffffffffffffffffffffffffffffffffff1673ffffffffffffffffffffffffffffffffffffffff1663095ea7b333836040518363ffffffff1660e01b815260040161174392919061580e565b6020604051808303816000875af1158015611762573d6000803e3d6000fd5b505050506040513d601f19601f82011682018060405250810190611786919061584c565b506001808460405161179891906156c3565b908152602001604051809103902060060160006101000a81548160ff021916908315150217905550806001846040516117d191906156c3565b908152602001604051809103902060070160008282546117f19190615a4b565b92505081905550505050565b60018180516020810182018051848252602083016020850120818352809550505050505060009150905080600001805461183690615655565b80601f016020809104026020016040519081016040528092919081815260200182805461186290615655565b80156118af5780601f10611884576101008083540402835291602001916118af565b820191906000526020600020905b81548152906001019060200180831161189257829003601f168201915b5050505050908060010180546118c490615655565b80601f01602080910402602001604051908101604052809291908181526020018280546118f090615655565b801561193d5780601f106119125761010080835404028352916020019161193d565b820191906000526020600020905b81548152906001019060200180831161192057829003601f168201915b50505050509080600201805461195290615655565b80601f016020809104026020016040519081016040528092919081815260200182805461197e90615655565b80156119cb5780601f106119a0576101008083540402835291602001916119cb565b820191906000526020600020905b8154815290600101906020018083116119ae57829003601f168201915b5050505050908060030160009054906101000a900473ffffffffffffffffffffffffffffffffffffffff16908060060160009054906101000a900460ff16908060070154908060080154905087565b67015c2a7b13fd00003414611a2e57600080fd5b6000611a668533604051602001611a46929190615aa1565b6040516020818303038152906040528051906020012060001c600461421f565b90503373ffffffffffffffffffffffffffffffffffffffff16600182604051611a8f91906156c3565b908152602001604051809103902060030160009054906101000a900473ffffffffffffffffffffffffffffffffffffffff1673ffffffffffffffffffffffffffffffffffffffff161415611ae257600080fd5b600073ffffffffffffffffffffffffffffffffffffffff16600460003373ffffffffffffffffffffffffffffffffffffffff1673ffffffffffffffffffffffffffffffffffffffff16815260200190815260200160002060020160009054906101000a900473ffffffffffffffffffffffffffffffffffffffff1673ffffffffffffffffffffffffffffffffffffffff1614611b7d57600080fd5b600081908060018154018082558091505060019003906000526020600020016000909190919091509080519060200190611bb892919061445b565b5080600182604051611bca91906156c3565b90815260200160405180910390206000019080519060200190611bee92919061445b565b5084600182604051611c0091906156c3565b90815260200160405180910390206001019080519060200190611c2492919061445b565b5083600182604051611c3691906156c3565b90815260200160405180910390206002019080519060200190611c5a92919061445b565b5033600182604051611c6c91906156c3565b908152602001604051809103902060030160006101000a81548173ffffffffffffffffffffffffffffffffffffffff021916908373ffffffffffffffffffffffffffffffffffffffff16021790555082600182604051611ccc91906156c3565b90815260200160405180910390206008018190555081600182604051611cf291906156c3565b90815260200160405180910390206009019080519060200190611d169291906144e1565b5080600260003373ffffffffffffffffffffffffffffffffffffffff1673ffffffffffffffffffffffffffffffffffffffff1681526020019081526020016000209080519060200190611d6a92919061445b565b505050505050565b6004602052806000526040600020600091509050806000018054611d9590615655565b80601f0160208091040260200160405190810160405280929190818152602001828054611dc190615655565b8015611e0e5780601f10611de357610100808354040283529160200191611e0e565b820191906000526020600020905b815481529060010190602001808311611df157829003601f168201915b505050505090806001018054611e2390615655565b80601f0160208091040260200160405190810160405280929190818152602001828054611e4f90615655565b8015611e9c5780601f10611e7157610100808354040283529160200191611e9c565b820191906000526020600020905b815481529060010190602001808311611e7f57829003601f168201915b5050505050908060020160009054906101000a900473ffffffffffffffffffffffffffffffffffffffff1690806005018054611ed790615655565b80601f0160208091040260200160405190810160405280929190818152602001828054611f0390615655565b8015611f505780601f10611f2557610100808354040283529160200191611f50565b820191906000526020600020905b815481529060010190602001808311611f3357829003601f168201915b5050505050905084565b3373ffffffffffffffffffffffffffffffffffffffff16600460003373ffffffffffffffffffffffffffffffffffffffff1673ffffffffffffffffffffffffffffffffffffffff16815260200190815260200160002060020160009054906101000a900473ffffffffffffffffffffffffffffffffffffffff1673ffffffffffffffffffffffffffffffffffffffff1614611ff457600080fd5b600073ffffffffffffffffffffffffffffffffffffffff1660018560405161201c91906156c3565b908152602001604051809103902060030160009054906101000a900473ffffffffffffffffffffffffffffffffffffffff1673ffffffffffffffffffffffffffffffffffffffff16141561206f57600080fd5b60038360405161207f91906156c3565b908152602001604051809103902060050160009054906101000a900460ff166120a757600080fd5b600080606060006001886040516120be91906156c3565b9081526020016040518091039020905085156121b05760006120df336132e3565b90506000600c5460026120f291906157b4565b670de0b6b3a764000060038b60405161210b91906156c3565b90815260200160405180910390206004015461212791906157b4565b6121319190615af8565b90508082101561215657670de0b6b3a76400008261214f9190615af8565b945061216d565b670de0b6b3a76400008161216a9190615af8565b94505b600c548561217b91906157b4565b60038a60405161218b91906156c3565b9081526020016040518091039020600401546121a79190615b29565b955050506121d9565b6003876040516121c091906156c3565b9081526020016040518091039020600401549350600092505b60011515600a600460003373ffffffffffffffffffffffffffffffffffffffff1673ffffffffffffffffffffffffffffffffffffffff16815260200190815260200160002060000160405161222e919061576e565b90815260200160405180910390208660405161224a91906156c3565b908152602001604051809103902060009054906101000a900460ff161515141561227b576122788585613715565b93505b83341461228757600080fd5b60011515600a600460003373ffffffffffffffffffffffffffffffffffffffff1673ffffffffffffffffffffffffffffffffffffffff1681526020019081526020016000206000016040516122dc919061576e565b9081526020016040518091039020866040516122f891906156c3565b908152602001604051809103902060009054906101000a900460ff161515141561247a576000600a600460003373ffffffffffffffffffffffffffffffffffffffff1673ffffffffffffffffffffffffffffffffffffffff16815260200190815260200160002060000160405161236f919061576e565b90815260200160405180910390208660405161238b91906156c3565b908152602001604051809103902060006101000a81548160ff02191690831515021790555060076008866040516123c291906156c3565b90815260200160405180910390206040516123dd919061576e565b908152602001604051809103902060000180546123f990615655565b80601f016020809104026020016040519081016040528092919081815260200182805461242590615655565b80156124725780601f1061244757610100808354040283529160200191612472565b820191906000526020600020905b81548152906001019060200180831161245557829003601f168201915b505050505091505b6000600a856124899190615af8565b90508160030160009054906101000a900473ffffffffffffffffffffffffffffffffffffffff1673ffffffffffffffffffffffffffffffffffffffff166108fc82346124d59190615b29565b9081150290604051600060405180830381858888f19350505050158015612500573d6000803e3d6000fd5b50846005600460003373ffffffffffffffffffffffffffffffffffffffff1673ffffffffffffffffffffffffffffffffffffffff168152602001908152602001600020600001604051612553919061576e565b90815260200160405180910390208a60405161256f91906156c3565b9081526020016040518091039020600082825461258c9190615a4b565b9250508190555060006040518060e00160405280612619600460003373ffffffffffffffffffffffffffffffffffffffff1673ffffffffffffffffffffffffffffffffffffffff1681526020019081526020016000206000018c426040516020016125f993929190615b5d565b6040516020818303038152906040528051906020012060001c602061421f565b81526020018b81526020018a8152602001600460003373ffffffffffffffffffffffffffffffffffffffff1673ffffffffffffffffffffffffffffffffffffffff168152602001908152602001600020600001805461267790615655565b80601f01602080910402602001604051908101604052809291908181526020018280546126a390615655565b80156126f05780601f106126c5576101008083540402835291602001916126f0565b820191906000526020600020905b8154815290600101906020018083116126d357829003601f168201915b50505050508152602001348152602001868152602001858152509050600460003373ffffffffffffffffffffffffffffffffffffffff1673ffffffffffffffffffffffffffffffffffffffff168152602001908152602001600020600301819080600181540180825580915050600190039060005260206000209060070201600090919091909150600082015181600001908051906020019061279492919061445b565b5060208201518160010190805190602001906127b192919061445b565b5060408201518160020190805190602001906127ce92919061445b565b5060608201518160030190805190602001906127eb92919061445b565b506080820151816004015560a0820151816005015560c082015181600601908051906020019061281c92919061445b565b505050600b60009054906101000a900473ffffffffffffffffffffffffffffffffffffffff1673ffffffffffffffffffffffffffffffffffffffff1663095ea7b333670de0b6b3a76400008861287291906157b4565b6040518363ffffffff1660e01b815260040161288f92919061580e565b6020604051808303816000875af11580156128ae573d6000803e3d6000fd5b505050506040513d601f19601f820116820180604052508101906128d2919061584c565b50600b60009054906101000a900473ffffffffffffffffffffffffffffffffffffffff1673ffffffffffffffffffffffffffffffffffffffff166323b872dd338560030160009054906101000a900473ffffffffffffffffffffffffffffffffffffffff16670de0b6b3a76400008961294b91906157b4565b6040518463ffffffff1660e01b8152600401612969939291906158d8565b6020604051808303816000875af1158015612988573d6000803e3d6000fd5b505050506040513d601f19601f820116820180604052508101906129ac919061584c565b506001600460003373ffffffffffffffffffffffffffffffffffffffff1673ffffffffffffffffffffffffffffffffffffffff168152602001908152602001600020600301805490501415612b3c57600b60009054906101000a900473ffffffffffffffffffffffffffffffffffffffff1673ffffffffffffffffffffffffffffffffffffffff1663a0712d6868056bc75e2d631000006040518263ffffffff1660e01b8152600401612a5f9190615bcd565b600060405180830381600087803b158015612a7957600080fd5b505af1158015612a8d573d6000803e3d6000fd5b50505050600b60009054906101000a900473ffffffffffffffffffffffffffffffffffffffff1673ffffffffffffffffffffffffffffffffffffffff1663a9059cbb3368056bc75e2d631000006040518363ffffffff1660e01b8152600401612af7929190615be8565b6020604051808303816000875af1158015612b16573d6000803e3d6000fd5b505050506040513d601f19601f82011682018060405250810190612b3a919061584c565b505b6000600c546014612b4d91906157b4565b670de0b6b3a764000088612b6191906157b4565b612b6b9190615af8565b9050600b60009054906101000a900473ffffffffffffffffffffffffffffffffffffffff1673ffffffffffffffffffffffffffffffffffffffff1663a0712d68826040518263ffffffff1660e01b8152600401612bc891906150c9565b600060405180830381600087803b158015612be257600080fd5b505af1158015612bf6573d6000803e3d6000fd5b50505050600b60009054906101000a900473ffffffffffffffffffffffffffffffffffffffff1673ffffffffffffffffffffffffffffffffffffffff1663a9059cbb33836040518363ffffffff1660e01b8152600401612c5792919061580e565b6020604051808303816000875af1158015612c76573d6000803e3d6000fd5b505050506040513d601f19601f82011682018060405250810190612c9a919061584c565b5060006005600460003373ffffffffffffffffffffffffffffffffffffffff1673ffffffffffffffffffffffffffffffffffffffff168152602001908152602001600020600001604051612cee919061576e565b90815260200160405180910390208c604051612d0a91906156c3565b90815260200160405180910390205490508460060160009054906101000a900460ff168015612d3d575060008560070154115b156131055760005b856009018054905081101561310357856009018181548110612d6a57612d69615c11565b5b90600052602060002001600081548110612d8757612d86615c11565b5b906000526020600020015482118015612e2557506000866009018281548110612db357612db2615c11565b5b90600052602060002001600181548110612dd057612dcf615c11565b5b90600052602060002001541480612e245750856009018181548110612df857612df7615c11565b5b90600052602060002001600181548110612e1557612e14615c11565b5b90600052602060002001548211155b5b156130f0576000600c546064612e3b91906157b4565b670de0b6b3a7640000886009018481548110612e5a57612e59615c11565b5b90600052602060002001600281548110612e7757612e76615c11565b5b906000526020600020015489600801548d612e9291906157b4565b612e9c91906157b4565b612ea691906157b4565b612eb09190615af8565b905080876007015411612fee57600b60009054906101000a900473ffffffffffffffffffffffffffffffffffffffff1673ffffffffffffffffffffffffffffffffffffffff166323b872dd8860030160009054906101000a900473ffffffffffffffffffffffffffffffffffffffff16338a600701546040518463ffffffff1660e01b8152600401612f4493929190615c40565b6020604051808303816000875af1158015612f63573d6000803e3d6000fd5b505050506040513d601f19601f82011682018060405250810190612f87919061584c565b50600060018f604051612f9a91906156c3565b908152602001604051809103902060070181905550600060018f604051612fc191906156c3565b908152602001604051809103902060060160006101000a81548160ff0219169083151502179055506130ee565b600b60009054906101000a900473ffffffffffffffffffffffffffffffffffffffff1673ffffffffffffffffffffffffffffffffffffffff166323b872dd8860030160009054906101000a900473ffffffffffffffffffffffffffffffffffffffff1633846040518463ffffffff1660e01b815260040161307193929190615c40565b6020604051808303816000875af1158015613090573d6000803e3d6000fd5b505050506040513d601f19601f820116820180604052508101906130b4919061584c565b508060018f6040516130c691906156c3565b908152602001604051809103902060070160008282546130e69190615b29565b925050819055505b505b80806130fb90615c77565b915050612d45565b505b505050505050505050505050565b3373ffffffffffffffffffffffffffffffffffffffff1660018260405161313a91906156c3565b908152602001604051809103902060030160009054906101000a900473ffffffffffffffffffffffffffffffffffffffff1673ffffffffffffffffffffffffffffffffffffffff161461318c57600080fd5b6000600c54670de0b6b3a7640000346131a591906157b4565b6131af9190615af8565b9050600b60009054906101000a900473ffffffffffffffffffffffffffffffffffffffff1673ffffffffffffffffffffffffffffffffffffffff1663a0712d68826040518263ffffffff1660e01b815260040161320c91906150c9565b600060405180830381600087803b15801561322657600080fd5b505af115801561323a573d6000803e3d6000fd5b50505050600b60009054906101000a900473ffffffffffffffffffffffffffffffffffffffff1673ffffffffffffffffffffffffffffffffffffffff1663a9059cbb33836040518363ffffffff1660e01b815260040161329b92919061580e565b6020604051808303816000875af11580156132ba573d6000803e3d6000fd5b505050506040513d601f19601f820116820180604052508101906132de919061584c565b505050565b6000600b60009054906101000a900473ffffffffffffffffffffffffffffffffffffffff1673ffffffffffffffffffffffffffffffffffffffff166370a08231836040518263ffffffff1660e01b81526004016133409190615cc0565b602060405180830381865afa15801561335d573d6000803e3d6000fd5b505050506040513d601f19601f820116820180604052508101906133819190615cf0565b9050919050565b600260205280600052604060002060009150905080546133a790615655565b80601f01602080910402602001604051908101604052809291908181526020018280546133d390615655565b80156134205780601f106133f557610100808354040283529160200191613420565b820191906000526020600020905b81548152906001019060200180831161340357829003601f168201915b505050505081565b606060018260405161343a91906156c3565b9081526020016040518091039020600401805480602002602001604051908101604052809291908181526020016000905b8282101561370a57838290600052602060002090600602016040518060c001604052908160008201805461349e90615655565b80601f01602080910402602001604051908101604052809291908181526020018280546134ca90615655565b80156135175780601f106134ec57610100808354040283529160200191613517565b820191906000526020600020905b8154815290600101906020018083116134fa57829003601f168201915b5050505050815260200160018201805461353090615655565b80601f016020809104026020016040519081016040528092919081815260200182805461355c90615655565b80156135a95780601f1061357e576101008083540402835291602001916135a9565b820191906000526020600020905b81548152906001019060200180831161358c57829003601f168201915b505050505081526020016002820180546135c290615655565b80601f01602080910402602001604051908101604052809291908181526020018280546135ee90615655565b801561363b5780601f106136105761010080835404028352916020019161363b565b820191906000526020600020905b81548152906001019060200180831161361e57829003601f168201915b5050505050815260200160038201805461365490615655565b80601f016020809104026020016040519081016040528092919081815260200182805461368090615655565b80156136cd5780601f106136a2576101008083540402835291602001916136cd565b820191906000526020600020905b8154815290600101906020018083116136b057829003601f168201915b50505050508152602001600482015481526020016005820160009054906101000a900460ff1615151515815250508152602001906001019061346b565b505050509050919050565b600080600760088560405161372a91906156c3565b9081526020016040518091039020604051613745919061576e565b90815260200160405180910390206040518060a001604052908160008201805461376e90615655565b80601f016020809104026020016040519081016040528092919081815260200182805461379a90615655565b80156137e75780601f106137bc576101008083540402835291602001916137e7565b820191906000526020600020905b8154815290600101906020018083116137ca57829003601f168201915b5050505050815260200160018201805461380090615655565b80601f016020809104026020016040519081016040528092919081815260200182805461382c90615655565b80156138795780601f1061384e57610100808354040283529160200191613879565b820191906000526020600020905b81548152906001019060200180831161385c57829003601f168201915b5050505050815260200160028201548152602001600382015481526020016004820154815250509050806060015160648483604001516138b991906157b4565b6138c39190615af8565b116138f65760648382604001516138da91906157b4565b6138e49190615af8565b836138ef9190615b29565b9250613909565b8060600151836139069190615b29565b92505b8291505092915050565b6060600460008373ffffffffffffffffffffffffffffffffffffffff1673ffffffffffffffffffffffffffffffffffffffff168152602001908152602001600020600301805480602002602001604051908101604052809291908181526020016000905b82821015613c9757838290600052602060002090600702016040518060e00160405290816000820180546139aa90615655565b80601f01602080910402602001604051908101604052809291908181526020018280546139d690615655565b8015613a235780601f106139f857610100808354040283529160200191613a23565b820191906000526020600020905b815481529060010190602001808311613a0657829003601f168201915b50505050508152602001600182018054613a3c90615655565b80601f0160208091040260200160405190810160405280929190818152602001828054613a6890615655565b8015613ab55780601f10613a8a57610100808354040283529160200191613ab5565b820191906000526020600020905b815481529060010190602001808311613a9857829003601f168201915b50505050508152602001600282018054613ace90615655565b80601f0160208091040260200160405190810160405280929190818152602001828054613afa90615655565b8015613b475780601f10613b1c57610100808354040283529160200191613b47565b820191906000526020600020905b815481529060010190602001808311613b2a57829003601f168201915b50505050508152602001600382018054613b6090615655565b80601f0160208091040260200160405190810160405280929190818152602001828054613b8c90615655565b8015613bd95780601f10613bae57610100808354040283529160200191613bd9565b820191906000526020600020905b815481529060010190602001808311613bbc57829003601f168201915b505050505081526020016004820154815260200160058201548152602001600682018054613c0690615655565b80601f0160208091040260200160405190810160405280929190818152602001828054613c3290615655565b8015613c7f5780601f10613c5457610100808354040283529160200191613c7f565b820191906000526020600020905b815481529060010190602001808311613c6257829003601f168201915b50505050508152505081526020019060010190613977565b505050509050919050565b60606000805480602002602001604051908101604052809291908181526020016000905b82821015613d72578382906000526020600020018054613ce590615655565b80601f0160208091040260200160405190810160405280929190818152602001828054613d1190615655565b8015613d5e5780601f10613d3357610100808354040283529160200191613d5e565b820191906000526020600020905b815481529060010190602001808311613d4157829003601f168201915b505050505081526020019060010190613cc6565b50505050905090565b6060600460008373ffffffffffffffffffffffffffffffffffffffff1673ffffffffffffffffffffffffffffffffffffffff168152602001908152602001600020600401805480602002602001604051908101604052809291908181526020016000905b82821015613f5357838290600052602060002090600502016040518060a0016040529081600082018054613e1290615655565b80601f0160208091040260200160405190810160405280929190818152602001828054613e3e90615655565b8015613e8b5780601f10613e6057610100808354040283529160200191613e8b565b820191906000526020600020905b815481529060010190602001808311613e6e57829003601f168201915b50505050508152602001600182015481526020016002820154815260200160038201548152602001600482018054613ec290615655565b80601f0160208091040260200160405190810160405280929190818152602001828054613eee90615655565b8015613f3b5780601f10613f1057610100808354040283529160200191613f3b565b820191906000526020600020905b815481529060010190602001808311613f1e57829003601f168201915b50505050508152505081526020019060010190613ddf565b505050509050919050565b3373ffffffffffffffffffffffffffffffffffffffff16600185604051613f8591906156c3565b908152602001604051809103902060030160009054906101000a900473ffffffffffffffffffffffffffffffffffffffff1673ffffffffffffffffffffffffffffffffffffffff1614613fd757600080fd5b600061400f8542604051602001613fef929190615d1d565b6040516020818303038152906040528051906020012060001c602061421f565b90506040518060a001604052808281526020018681526020018581526020018481526020018381525060078260405161404891906156c3565b9081526020016040518091039020600082015181600001908051906020019061407292919061445b565b50602082015181600101908051906020019061408f92919061445b565b506040820151816002015560608201518160030155608082015181600401559050506001856040516140c191906156c3565b90815260200160405180910390206005018190806001815401808255809150506001900390600052602060002001600090919091909150908051906020019061410b92919061445b565b505050505050565b60606000600667ffffffffffffffff8111156141325761413161461f565b5b6040519080825280601f01601f1916602001820160405280156141645781602001600182028036833780820191505090505b50905060005b6006811015614217576000600a42448460405160200161418c93929190615d45565b6040516020818303038152906040528051906020012060001c6141af9190615d82565b90508060306141be9190615dc0565b60f81b8383815181106141d4576141d3615c11565b5b60200101907effffffffffffffffffffffffffffffffffffffffffffffffffffffffffffff1916908160001a90535050808061420f90615c77565b91505061416a565b508091505090565b60606000600283600261423291906157b4565b61423c9190615a4b565b67ffffffffffffffff8111156142555761425461461f565b5b6040519080825280601f01601f1916602001820160405280156142875781602001600182028036833780820191505090505b5090507f3000000000000000000000000000000000000000000000000000000000000000816000815181106142bf576142be615c11565b5b60200101907effffffffffffffffffffffffffffffffffffffffffffffffffffffffffffff1916908160001a9053507f78000000000000000000000000000000000000000000000000000000000000008160018151811061432357614322615c11565b5b60200101907effffffffffffffffffffffffffffffffffffffffffffffffffffffffffffff1916908160001a9053506000600184600261436391906157b4565b61436d9190615a4b565b90505b600181111561440d577f3031323334353637383961626364656600000000000000000000000000000000600f8616601081106143af576143ae615c11565b5b1a60f81b8282815181106143c6576143c5615c11565b5b60200101907effffffffffffffffffffffffffffffffffffffffffffffffffffffffffffff1916908160001a905350600485901c94508061440690615df7565b9050614370565b5060008414614451576040517f08c379a000000000000000000000000000000000000000000000000000000000815260040161444890615e6d565b60405180910390fd5b8091505092915050565b82805461446790615655565b90600052602060002090601f01602090048101928261448957600085556144d0565b82601f106144a257805160ff19168380011785556144d0565b828001600101855582156144d0579182015b828111156144cf5782518255916020019190600101906144b4565b5b5090506144dd9190614541565b5090565b828054828255906000526020600020908101928215614530579160200282015b8281111561452f57825182908051906020019061451f92919061455e565b5091602001919060010190614501565b5b50905061453d91906145ab565b5090565b5b8082111561455a576000816000905550600101614542565b5090565b82805482825590600052602060002090810192821561459a579160200282015b8281111561459957825182559160200191906001019061457e565b5b5090506145a79190614541565b5090565b5b808211156145cb57600081816145c291906145cf565b506001016145ac565b5090565b50805460008255906000526020600020908101906145ed9190614541565b50565b6000604051905090565b600080fd5b600080fd5b600080fd5b600080fd5b6000601f19601f8301169050919050565b7f4e487b7100000000000000000000000000000000000000000000000000000000600052604160045260246000fd5b6146578261460e565b810181811067ffffffffffffffff821117156146765761467561461f565b5b80604052505050565b60006146896145f0565b9050614695828261464e565b919050565b600067ffffffffffffffff8211156146b5576146b461461f565b5b6146be8261460e565b9050602081019050919050565b82818337600083830152505050565b60006146ed6146e88461469a565b61467f565b90508281526020810184848401111561470957614708614609565b5b6147148482856146cb565b509392505050565b600082601f83011261473157614730614604565b5b81356147418482602086016146da565b91505092915050565b6000602082840312156147605761475f6145fa565b5b600082013567ffffffffffffffff81111561477e5761477d6145ff565b5b61478a8482850161471c565b91505092915050565b600081519050919050565b600082825260208201905092915050565b60005b838110156147cd5780820151818401526020810190506147b2565b838111156147dc576000848401525b50505050565b60006147ed82614793565b6147f7818561479e565b93506148078185602086016147af565b6148108161460e565b840191505092915050565b6000819050919050565b61482e8161481b565b82525050565b60008115159050919050565b61484981614834565b82525050565b600060c082019050818103600083015261486981896147e2565b9050818103602083015261487d81886147e2565b9050818103604083015261489181876147e2565b905081810360608301526148a581866147e2565b90506148b46080830185614825565b6148c160a0830184614840565b979650505050505050565b600080604083850312156148e3576148e26145fa565b5b600083013567ffffffffffffffff811115614901576149006145ff565b5b61490d8582860161471c565b925050602083013567ffffffffffffffff81111561492e5761492d6145ff565b5b61493a8582860161471c565b9150509250929050565b61494d8161481b565b811461495857600080fd5b50565b60008135905061496a81614944565b92915050565b600080600080600060a0868803121561498c5761498b6145fa565b5b600086013567ffffffffffffffff8111156149aa576149a96145ff565b5b6149b68882890161471c565b955050602086013567ffffffffffffffff8111156149d7576149d66145ff565b5b6149e38882890161471c565b945050604086013567ffffffffffffffff811115614a0457614a036145ff565b5b614a108882890161471c565b935050606086013567ffffffffffffffff811115614a3157614a306145ff565b5b614a3d8882890161471c565b9250506080614a4e8882890161495b565b9150509295509295909350565b600081519050919050565b600082825260208201905092915050565b6000819050602082019050919050565b600082825260208201905092915050565b6000614aa382614793565b614aad8185614a87565b9350614abd8185602086016147af565b614ac68161460e565b840191505092915050565b6000614add8383614a98565b905092915050565b6000602082019050919050565b6000614afd82614a5b565b614b078185614a66565b935083602082028501614b1985614a77565b8060005b85811015614b555784840389528151614b368582614ad1565b9450614b4183614ae5565b925060208a01995050600181019050614b1d565b50829750879550505050505092915050565b60006020820190508181036000830152614b818184614af2565b905092915050565b60008060408385031215614ba057614b9f6145fa565b5b600083013567ffffffffffffffff811115614bbe57614bbd6145ff565b5b614bca8582860161471c565b9250506020614bdb8582860161495b565b9150509250929050565b600073ffffffffffffffffffffffffffffffffffffffff82169050919050565b6000614c1082614be5565b9050919050565b614c2081614c05565b82525050565b600060e0820190508181036000830152614c40818a6147e2565b90508181036020830152614c5481896147e2565b90508181036040830152614c6881886147e2565b9050614c776060830187614c17565b614c846080830186614840565b614c9160a0830185614825565b614c9e60c0830184614825565b98975050505050505050565b600067ffffffffffffffff821115614cc557614cc461461f565b5b602082029050602081019050919050565b600080fd5b600067ffffffffffffffff821115614cf657614cf561461f565b5b602082029050602081019050919050565b6000614d1a614d1584614cdb565b61467f565b90508083825260208201905060208402830185811115614d3d57614d3c614cd6565b5b835b81811015614d665780614d52888261495b565b845260208401935050602081019050614d3f565b5050509392505050565b600082601f830112614d8557614d84614604565b5b8135614d95848260208601614d07565b91505092915050565b6000614db1614dac84614caa565b61467f565b90508083825260208201905060208402830185811115614dd457614dd3614cd6565b5b835b81811015614e1b57803567ffffffffffffffff811115614df957614df8614604565b5b808601614e068982614d70565b85526020850194505050602081019050614dd6565b5050509392505050565b600082601f830112614e3a57614e39614604565b5b8135614e4a848260208601614d9e565b91505092915050565b60008060008060808587031215614e6d57614e6c6145fa565b5b600085013567ffffffffffffffff811115614e8b57614e8a6145ff565b5b614e978782880161471c565b945050602085013567ffffffffffffffff811115614eb857614eb76145ff565b5b614ec48782880161471c565b9350506040614ed58782880161495b565b925050606085013567ffffffffffffffff811115614ef657614ef56145ff565b5b614f0287828801614e25565b91505092959194509250565b6000614f1982614be5565b9050919050565b614f2981614f0e565b8114614f3457600080fd5b50565b600081359050614f4681614f20565b92915050565b600060208284031215614f6257614f616145fa565b5b6000614f7084828501614f37565b91505092915050565b614f8281614f0e565b82525050565b60006080820190508181036000830152614fa281876147e2565b90508181036020830152614fb681866147e2565b9050614fc56040830185614f79565b8181036060830152614fd781846147e2565b905095945050505050565b614feb81614834565b8114614ff657600080fd5b50565b60008135905061500881614fe2565b92915050565b60008060008060808587031215615028576150276145fa565b5b600085013567ffffffffffffffff811115615046576150456145ff565b5b6150528782880161471c565b945050602085013567ffffffffffffffff811115615073576150726145ff565b5b61507f8782880161471c565b935050604061509087828801614ff9565b925050606085013567ffffffffffffffff8111156150b1576150b06145ff565b5b6150bd8782880161471c565b91505092959194509250565b60006020820190506150de6000830184614825565b92915050565b600060208201905081810360008301526150fe81846147e2565b905092915050565b600081519050919050565b600082825260208201905092915050565b6000819050602082019050919050565b61513b8161481b565b82525050565b61514a81614834565b82525050565b600060c083016000830151848203600086015261516d8282614a98565b915050602083015184820360208601526151878282614a98565b915050604083015184820360408601526151a18282614a98565b915050606083015184820360608601526151bb8282614a98565b91505060808301516151d06080860182615132565b5060a08301516151e360a0860182615141565b508091505092915050565b60006151fa8383615150565b905092915050565b6000602082019050919050565b600061521a82615106565b6152248185615111565b93508360208202850161523685615122565b8060005b85811015615272578484038952815161525385826151ee565b945061525e83615202565b925060208a0199505060018101905061523a565b50829750879550505050505092915050565b6000602082019050818103600083015261529e818461520f565b905092915050565b600081519050919050565b600082825260208201905092915050565b6000819050602082019050919050565b600060e08301600083015184820360008601526152ef8282614a98565b915050602083015184820360208601526153098282614a98565b915050604083015184820360408601526153238282614a98565b9150506060830151848203606086015261533d8282614a98565b91505060808301516153526080860182615132565b5060a083015161536560a0860182615132565b5060c083015184820360c086015261537d8282614a98565b9150508091505092915050565b600061539683836152d2565b905092915050565b6000602082019050919050565b60006153b6826152a6565b6153c081856152b1565b9350836020820285016153d2856152c2565b8060005b8581101561540e57848403895281516153ef858261538a565b94506153fa8361539e565b925060208a019950506001810190506153d6565b50829750879550505050505092915050565b6000602082019050818103600083015261543a81846153ab565b905092915050565b600081519050919050565b600082825260208201905092915050565b6000819050602082019050919050565b600060a083016000830151848203600086015261548b8282614a98565b91505060208301516154a06020860182615132565b5060408301516154b36040860182615132565b5060608301516154c66060860182615132565b50608083015184820360808601526154de8282614a98565b9150508091505092915050565b60006154f7838361546e565b905092915050565b6000602082019050919050565b600061551782615442565b615521818561544d565b9350836020820285016155338561545e565b8060005b8581101561556f578484038952815161555085826154eb565b945061555b836154ff565b925060208a01995050600181019050615537565b50829750879550505050505092915050565b6000602082019050818103600083015261559b818461550c565b905092915050565b600080600080608085870312156155bd576155bc6145fa565b5b600085013567ffffffffffffffff8111156155db576155da6145ff565b5b6155e78782880161471c565b94505060206155f88782880161495b565b93505060406156098782880161495b565b925050606061561a8782880161495b565b91505092959194509250565b7f4e487b7100000000000000000000000000000000000000000000000000000000600052602260045260246000fd5b6000600282049050600182168061566d57607f821691505b6020821081141561568157615680615626565b5b50919050565b600081905092915050565b600061569d82614793565b6156a78185615687565b93506156b78185602086016147af565b80840191505092915050565b60006156cf8284615692565b915081905092915050565b60008190508160005260206000209050919050565b600081546156fc81615655565b6157068186615687565b94506001821660008114615721576001811461573257615765565b60ff19831686528186019350615765565b61573b856156da565b60005b8381101561575d5781548189015260018201915060208101905061573e565b838801955050505b50505092915050565b600061577a82846156ef565b915081905092915050565b7f4e487b7100000000000000000000000000000000000000000000000000000000600052601160045260246000fd5b60006157bf8261481b565b91506157ca8361481b565b9250817fffffffffffffffffffffffffffffffffffffffffffffffffffffffffffffffff048311821515161561580357615802615785565b5b828202905092915050565b60006040820190506158236000830185614f79565b6158306020830184614825565b9392505050565b60008151905061584681614fe2565b92915050565b600060208284031215615862576158616145fa565b5b600061587084828501615837565b91505092915050565b6000819050919050565b600061589e61589961589484614be5565b615879565b614be5565b9050919050565b60006158b082615883565b9050919050565b60006158c2826158a5565b9050919050565b6158d2816158b7565b82525050565b60006060820190506158ed6000830186614f79565b6158fa60208301856158c9565b6159076040830184614825565b949350505050565b60008160601b9050919050565b60006159278261590f565b9050919050565b60006159398261591c565b9050919050565b61595161594c82614f0e565b61592e565b82525050565b60006159638284615940565b60148201915081905092915050565b6000819050919050565b600061599761599261598d84615972565b615879565b61481b565b9050919050565b6159a78161597c565b82525050565b60006020820190506159c2600083018461599e565b92915050565b60006040820190506159dd6000830185614f79565b6159ea602083018461599e565b9392505050565b6000819050919050565b615a0c615a078261481b565b6159f1565b82525050565b6000615a1e8286615692565b9150615a2a8285615940565b601482019150615a3a82846159fb565b602082019150819050949350505050565b6000615a568261481b565b9150615a618361481b565b9250827fffffffffffffffffffffffffffffffffffffffffffffffffffffffffffffffff03821115615a9657615a95615785565b5b828201905092915050565b6000615aad8285615692565b9150615ab98284615940565b6014820191508190509392505050565b7f4e487b7100000000000000000000000000000000000000000000000000000000600052601260045260246000fd5b6000615b038261481b565b9150615b0e8361481b565b925082615b1e57615b1d615ac9565b5b828204905092915050565b6000615b348261481b565b9150615b3f8361481b565b925082821015615b5257615b51615785565b5b828203905092915050565b6000615b6982866156ef565b9150615b758285615692565b9150615b8182846159fb565b602082019150819050949350505050565b6000819050919050565b6000615bb7615bb2615bad84615b92565b615879565b61481b565b9050919050565b615bc781615b9c565b82525050565b6000602082019050615be26000830184615bbe565b92915050565b6000604082019050615bfd6000830185614f79565b615c0a6020830184615bbe565b9392505050565b7f4e487b7100000000000000000000000000000000000000000000000000000000600052603260045260246000fd5b6000606082019050615c5560008301866158c9565b615c626020830185614f79565b615c6f6040830184614825565b949350505050565b6000615c828261481b565b91507fffffffffffffffffffffffffffffffffffffffffffffffffffffffffffffffff821415615cb557615cb4615785565b5b600182019050919050565b6000602082019050615cd56000830184614f79565b92915050565b600081519050615cea81614944565b92915050565b600060208284031215615d0657615d056145fa565b5b6000615d1484828501615cdb565b91505092915050565b6000615d298285615692565b9150615d3582846159fb565b6020820191508190509392505050565b6000615d5182866159fb565b602082019150615d6182856159fb565b602082019150615d7182846159fb565b602082019150819050949350505050565b6000615d8d8261481b565b9150615d988361481b565b925082615da857615da7615ac9565b5b828206905092915050565b600060ff82169050919050565b6000615dcb82615db3565b9150615dd683615db3565b92508260ff03821115615dec57615deb615785565b5b828201905092915050565b6000615e028261481b565b91506000821415615e1657615e15615785565b5b600182039050919050565b7f537472696e67733a20686578206c656e67746820696e73756666696369656e74600082015250565b6000615e5760208361479e565b9150615e6282615e21565b602082019050919050565b60006020820190508181036000830152615e8681615e4a565b905091905056fea2646970667358221220013bf1cac270b1344c2872128b1e71046694c69a49da76ca69fc0d1faa8f4d0f64736f6c634300080c003360806040523480156200001157600080fd5b506040518060400160405280600881526020017f666c6970436f696e0000000000000000000000000000000000000000000000008152506040518060400160405280600281526020017f4650000000000000000000000000000000000000000000000000000000000000815250816003908051906020019062000096929190620000f9565b508060049080519060200190620000af929190620000f9565b50505033600560006101000a81548173ffffffffffffffffffffffffffffffffffffffff021916908373ffffffffffffffffffffffffffffffffffffffff1602179055506200020e565b8280546200010790620001d8565b90600052602060002090601f0160209004810192826200012b576000855562000177565b82601f106200014657805160ff191683800117855562000177565b8280016001018555821562000177579182015b828111156200017657825182559160200191906001019062000159565b5b5090506200018691906200018a565b5090565b5b80821115620001a55760008160009055506001016200018b565b5090565b7f4e487b7100000000000000000000000000000000000000000000000000000000600052602260045260246000fd5b60006002820490506001821680620001f157607f821691505b60208210811415620002085762000207620001a9565b5b50919050565b6116f6806200021e6000396000f3fe608060405234801561001057600080fd5b50600436106100cf5760003560e01c806370a082311161008c578063a0712d6811610066578063a0712d681461022a578063a457c2d714610246578063a9059cbb14610276578063dd62ed3e146102a6576100cf565b806370a08231146101be5780638da5cb5b146101ee57806395d89b411461020c576100cf565b806306fdde03146100d4578063095ea7b3146100f257806318160ddd1461012257806323b872dd14610140578063313ce56714610170578063395093511461018e575b600080fd5b6100dc6102d6565b6040516100e99190610e81565b60405180910390f35b61010c60048036038101906101079190610f3c565b610368565b6040516101199190610f97565b60405180910390f35b61012a6103e6565b6040516101379190610fc1565b60405180910390f35b61015a60048036038101906101559190610fdc565b6103f0565b6040516101679190610f97565b60405180910390f35b61017861047a565b604051610185919061104b565b60405180910390f35b6101a860048036038101906101a39190610f3c565b610483565b6040516101b59190610f97565b60405180910390f35b6101d860048036038101906101d39190611066565b6104ba565b6040516101e59190610fc1565b60405180910390f35b6101f6610502565b60405161020391906110b4565b60405180910390f35b610214610528565b6040516102219190610e81565b60405180910390f35b610244600480360381019061023f91906110cf565b6105ba565b005b610260600480360381019061025b9190610f3c565b610634565b60405161026d9190610f97565b60405180910390f35b610290600480360381019061028b9190610f3c565b6106ab565b60405161029d9190610f97565b60405180910390f35b6102c060048036038101906102bb91906110fc565b610729565b6040516102cd9190610fc1565b60405180910390f35b6060600380546102e59061116b565b80601f01602080910402602001604051908101604052809291908181526020018280546103119061116b565b801561035e5780601f106103335761010080835404028352916020019161035e565b820191906000526020600020905b81548152906001019060200180831161034157829003601f168201915b5050505050905090565b6000600560009054906101000a900473ffffffffffffffffffffffffffffffffffffffff1673ffffffffffffffffffffffffffffffffffffffff163373ffffffffffffffffffffffffffffffffffffffff16146103c457600080fd5b60006103ce6107b0565b90506103db8482856107b8565b600191505092915050565b6000600254905090565b6000600560009054906101000a900473ffffffffffffffffffffffffffffffffffffffff1673ffffffffffffffffffffffffffffffffffffffff163373ffffffffffffffffffffffffffffffffffffffff161461044c57600080fd5b60006104566107b0565b9050610463858285610983565b61046e858585610a0f565b60019150509392505050565b60006012905090565b60008061048e6107b0565b90506104af8185856104a08589610729565b6104aa91906111cc565b6107b8565b600191505092915050565b60008060008373ffffffffffffffffffffffffffffffffffffffff1673ffffffffffffffffffffffffffffffffffffffff168152602001908152602001600020549050919050565b600560009054906101000a900473ffffffffffffffffffffffffffffffffffffffff1681565b6060600480546105379061116b565b80601f01602080910402602001604051908101604052809291908181526020018280546105639061116b565b80156105b05780601f10610585576101008083540402835291602001916105b0565b820191906000526020600020905b81548152906001019060200180831161059357829003601f168201915b5050505050905090565b600560009054906101000a900473ffffffffffffffffffffffffffffffffffffffff1673ffffffffffffffffffffffffffffffffffffffff163373ffffffffffffffffffffffffffffffffffffffff161461061457600080fd5b61063133670de0b6b3a76400008361062c9190611222565b610c87565b50565b60008061063f6107b0565b9050600061064d8286610729565b905083811015610692576040517f08c379a0000000000000000000000000000000000000000000000000000000008152600401610689906112ee565b60405180910390fd5b61069f82868684036107b8565b60019250505092915050565b6000600560009054906101000a900473ffffffffffffffffffffffffffffffffffffffff1673ffffffffffffffffffffffffffffffffffffffff163373ffffffffffffffffffffffffffffffffffffffff161461070757600080fd5b60006107116107b0565b905061071e818585610a0f565b600191505092915050565b6000600160008473ffffffffffffffffffffffffffffffffffffffff1673ffffffffffffffffffffffffffffffffffffffff16815260200190815260200160002060008373ffffffffffffffffffffffffffffffffffffffff1673ffffffffffffffffffffffffffffffffffffffff16815260200190815260200160002054905092915050565b600033905090565b600073ffffffffffffffffffffffffffffffffffffffff168373ffffffffffffffffffffffffffffffffffffffff161415610828576040517f08c379a000000000000000000000000000000000000000000000000000000000815260040161081f90611380565b60405180910390fd5b600073ffffffffffffffffffffffffffffffffffffffff168273ffffffffffffffffffffffffffffffffffffffff161415610898576040517f08c379a000000000000000000000000000000000000000000000000000000000815260040161088f90611412565b60405180910390fd5b80600160008573ffffffffffffffffffffffffffffffffffffffff1673ffffffffffffffffffffffffffffffffffffffff16815260200190815260200160002060008473ffffffffffffffffffffffffffffffffffffffff1673ffffffffffffffffffffffffffffffffffffffff168152602001908152602001600020819055508173ffffffffffffffffffffffffffffffffffffffff168373ffffffffffffffffffffffffffffffffffffffff167f8c5be1e5ebec7d5bd14f71427d1e84f3dd0314c0f7b2291e5b200ac8c7c3b925836040516109769190610fc1565b60405180910390a3505050565b600061098f8484610729565b90507fffffffffffffffffffffffffffffffffffffffffffffffffffffffffffffffff8114610a0957818110156109fb576040517f08c379a00000000000000000000000000000000000000000000000000000000081526004016109f29061147e565b60405180910390fd5b610a0884848484036107b8565b5b50505050565b600073ffffffffffffffffffffffffffffffffffffffff168373ffffffffffffffffffffffffffffffffffffffff161415610a7f576040517f08c379a0000000000000000000000000000000000000000000000000000000008152600401610a7690611510565b60405180910390fd5b600073ffffffffffffffffffffffffffffffffffffffff168273ffffffffffffffffffffffffffffffffffffffff161415610aef576040517f08c379a0000000000000000000000000000000000000000000000000000000008152600401610ae6906115a2565b60405180910390fd5b610afa838383610dde565b60008060008573ffffffffffffffffffffffffffffffffffffffff1673ffffffffffffffffffffffffffffffffffffffff16815260200190815260200160002054905081811015610b80576040517f08c379a0000000000000000000000000000000000000000000000000000000008152600401610b7790611634565b60405180910390fd5b8181036000808673ffffffffffffffffffffffffffffffffffffffff1673ffffffffffffffffffffffffffffffffffffffff16815260200190815260200160002081905550816000808573ffffffffffffffffffffffffffffffffffffffff1673ffffffffffffffffffffffffffffffffffffffff168152602001908152602001600020600082825401925050819055508273ffffffffffffffffffffffffffffffffffffffff168473ffffffffffffffffffffffffffffffffffffffff167fddf252ad1be2c89b69c2b068fc378daa952ba7f163c4a11628f55a4df523b3ef84604051610c6e9190610fc1565b60405180910390a3610c81848484610de3565b50505050565b600073ffffffffffffffffffffffffffffffffffffffff168273ffffffffffffffffffffffffffffffffffffffff161415610cf7576040517f08c379a0000000000000000000000000000000000000000000000000000000008152600401610cee906116a0565b60405180910390fd5b610d0360008383610dde565b8060026000828254610d1591906111cc565b92505081905550806000808473ffffffffffffffffffffffffffffffffffffffff1673ffffffffffffffffffffffffffffffffffffffff168152602001908152602001600020600082825401925050819055508173ffffffffffffffffffffffffffffffffffffffff16600073ffffffffffffffffffffffffffffffffffffffff167fddf252ad1be2c89b69c2b068fc378daa952ba7f163c4a11628f55a4df523b3ef83604051610dc69190610fc1565b60405180910390a3610dda60008383610de3565b5050565b505050565b505050565b600081519050919050565b600082825260208201905092915050565b60005b83811015610e22578082015181840152602081019050610e07565b83811115610e31576000848401525b50505050565b6000601f19601f8301169050919050565b6000610e5382610de8565b610e5d8185610df3565b9350610e6d818560208601610e04565b610e7681610e37565b840191505092915050565b60006020820190508181036000830152610e9b8184610e48565b905092915050565b600080fd5b600073ffffffffffffffffffffffffffffffffffffffff82169050919050565b6000610ed382610ea8565b9050919050565b610ee381610ec8565b8114610eee57600080fd5b50565b600081359050610f0081610eda565b92915050565b6000819050919050565b610f1981610f06565b8114610f2457600080fd5b50565b600081359050610f3681610f10565b92915050565b60008060408385031215610f5357610f52610ea3565b5b6000610f6185828601610ef1565b9250506020610f7285828601610f27565b9150509250929050565b60008115159050919050565b610f9181610f7c565b82525050565b6000602082019050610fac6000830184610f88565b92915050565b610fbb81610f06565b82525050565b6000602082019050610fd66000830184610fb2565b92915050565b600080600060608486031215610ff557610ff4610ea3565b5b600061100386828701610ef1565b935050602061101486828701610ef1565b925050604061102586828701610f27565b9150509250925092565b600060ff82169050919050565b6110458161102f565b82525050565b6000602082019050611060600083018461103c565b92915050565b60006020828403121561107c5761107b610ea3565b5b600061108a84828501610ef1565b91505092915050565b600061109e82610ea8565b9050919050565b6110ae81611093565b82525050565b60006020820190506110c960008301846110a5565b92915050565b6000602082840312156110e5576110e4610ea3565b5b60006110f384828501610f27565b91505092915050565b6000806040838503121561111357611112610ea3565b5b600061112185828601610ef1565b925050602061113285828601610ef1565b9150509250929050565b7f4e487b7100000000000000000000000000000000000000000000000000000000600052602260045260246000fd5b6000600282049050600182168061118357607f821691505b602082108114156111975761119661113c565b5b50919050565b7f4e487b7100000000000000000000000000000000000000000000000000000000600052601160045260246000fd5b60006111d782610f06565b91506111e283610f06565b9250827fffffffffffffffffffffffffffffffffffffffffffffffffffffffffffffffff038211156112175761121661119d565b5b828201905092915050565b600061122d82610f06565b915061123883610f06565b9250817fffffffffffffffffffffffffffffffffffffffffffffffffffffffffffffffff04831182151516156112715761127061119d565b5b828202905092915050565b7f45524332303a2064656372656173656420616c6c6f77616e63652062656c6f7760008201527f207a65726f000000000000000000000000000000000000000000000000000000602082015250565b60006112d8602583610df3565b91506112e38261127c565b604082019050919050565b60006020820190508181036000830152611307816112cb565b9050919050565b7f45524332303a20617070726f76652066726f6d20746865207a65726f2061646460008201527f7265737300000000000000000000000000000000000000000000000000000000602082015250565b600061136a602483610df3565b91506113758261130e565b604082019050919050565b600060208201905081810360008301526113998161135d565b9050919050565b7f45524332303a20617070726f766520746f20746865207a65726f20616464726560008201527f7373000000000000000000000000000000000000000000000000000000000000602082015250565b60006113fc602283610df3565b9150611407826113a0565b604082019050919050565b6000602082019050818103600083015261142b816113ef565b9050919050565b7f45524332303a20696e73756666696369656e7420616c6c6f77616e6365000000600082015250565b6000611468601d83610df3565b915061147382611432565b602082019050919050565b600060208201905081810360008301526114978161145b565b9050919050565b7f45524332303a207472616e736665722066726f6d20746865207a65726f20616460008201527f6472657373000000000000000000000000000000000000000000000000000000602082015250565b60006114fa602583610df3565b91506115058261149e565b604082019050919050565b60006020820190508181036000830152611529816114ed565b9050919050565b7f45524332303a207472616e7366657220746f20746865207a65726f206164647260008201527f6573730000000000000000000000000000000000000000000000000000000000602082015250565b600061158c602383610df3565b915061159782611530565b604082019050919050565b600060208201905081810360008301526115bb8161157f565b9050919050565b7f45524332303a207472616e7366657220616d6f756e742065786365656473206260008201527f616c616e63650000000000000000000000000000000000000000000000000000602082015250565b600061161e602683610df3565b9150611629826115c2565b604082019050919050565b6000602082019050818103600083015261164d81611611565b9050919050565b7f45524332303a206d696e7420746f20746865207a65726f206164647265737300600082015250565b600061168a601f83610df3565b915061169582611654565b602082019050919050565b600060208201905081810360008301526116b98161167d565b905091905056fea26469706673582212200284d2481c05510f3319e68da7fbc7acc13a940629b459c35c908faa446c224764736f6c634300080c0033",
  "linkReferences": {},
  "deployedLinkReferences": {}
}