{
  "_format": "hh-sol-artifact-1",
  "contractName": "FlipKart",
  "sourceName": "contracts/FlipKart.sol",
  "abi": [
    {
      "inputs": [
        {
          "internalType": "uint256",
          "name": "value",
          "type": "uint256"
        }
      ],
      "stateMutability": "nonpayable",
      "type": "constructor"
    },
    {
      "inputs": [
        {
          "internalType": "string",
          "name": "brandId",
          "type": "string"
        },
        {
          "internalType": "string",
          "name": "name",
          "type": "string"
        },
        {
          "internalType": "string",
          "name": "category",
          "type": "string"
        },
        {
          "internalType": "string",
          "name": "imageUrl",
          "type": "string"
        },
        {
          "internalType": "uint256",
          "name": "price",
          "type": "uint256"
        }
      ],
      "name": "addProduct",
      "outputs": [],
      "stateMutability": "nonpayable",
      "type": "function"
    },
    {
      "inputs": [
        {
          "internalType": "string",
          "name": "",
          "type": "string"
        }
      ],
      "name": "brandDetails",
      "outputs": [
        {
          "internalType": "string",
          "name": "id",
          "type": "string"
        },
        {
          "internalType": "string",
          "name": "name",
          "type": "string"
        },
        {
          "internalType": "string",
          "name": "category",
          "type": "string"
        },
        {
          "internalType": "address payable",
          "name": "owner",
          "type": "address"
        },
        {
          "internalType": "bool",
          "name": "isIssuingTokens",
          "type": "bool"
        },
        {
          "internalType": "uint256",
          "name": "rewardTokensLeft",
          "type": "uint256"
        },
        {
          "internalType": "uint256",
          "name": "rewardPricePercentage",
          "type": "uint256"
        }
      ],
      "stateMutability": "view",
      "type": "function"
    },
    {
      "inputs": [
        {
          "internalType": "address",
          "name": "",
          "type": "address"
        }
      ],
      "name": "brandIds",
      "outputs": [
        {
          "internalType": "string",
          "name": "",
          "type": "string"
        }
      ],
      "stateMutability": "view",
      "type": "function"
    },
    {
      "inputs": [
        {
          "internalType": "string",
          "name": "brandId",
          "type": "string"
        },
        {
          "internalType": "string",
          "name": "productId",
          "type": "string"
        },
        {
          "internalType": "bool",
          "name": "isRedeemingTokens",
          "type": "bool"
        },
        {
          "internalType": "string",
          "name": "rewardRedeemCode",
          "type": "string"
        }
      ],
      "name": "buyProduct",
      "outputs": [],
      "stateMutability": "payable",
      "type": "function"
    },
    {
      "inputs": [
        {
          "internalType": "string",
          "name": "brandId",
          "type": "string"
        }
      ],
      "name": "buyTokens",
      "outputs": [],
      "stateMutability": "payable",
      "type": "function"
    },
    {
      "inputs": [
        {
          "internalType": "string",
          "name": "brandId",
          "type": "string"
        },
        {
          "internalType": "uint256",
          "name": "discount",
          "type": "uint256"
        },
        {
          "internalType": "uint256",
          "name": "maxDiscountValue",
          "type": "uint256"
        },
        {
          "internalType": "uint256",
          "name": "tokens",
          "type": "uint256"
        }
      ],
      "name": "createReward",
      "outputs": [],
      "stateMutability": "nonpayable",
      "type": "function"
    },
    {
      "inputs": [
        {
          "internalType": "string",
          "name": "rewardId",
          "type": "string"
        }
      ],
      "name": "issueReward",
      "outputs": [],
      "stateMutability": "nonpayable",
      "type": "function"
    },
    {
      "inputs": [
        {
          "internalType": "string",
          "name": "brandId",
          "type": "string"
        },
        {
          "internalType": "uint256",
          "name": "tokens",
          "type": "uint256"
        }
      ],
      "name": "issueTokens",
      "outputs": [],
      "stateMutability": "nonpayable",
      "type": "function"
    },
    {
      "inputs": [
        {
          "internalType": "string",
          "name": "",
          "type": "string"
        }
      ],
      "name": "productDetails",
      "outputs": [
        {
          "internalType": "string",
          "name": "id",
          "type": "string"
        },
        {
          "internalType": "string",
          "name": "name",
          "type": "string"
        },
        {
          "internalType": "string",
          "name": "category",
          "type": "string"
        },
        {
          "internalType": "string",
          "name": "imageUrl",
          "type": "string"
        },
        {
          "internalType": "uint256",
          "name": "price",
          "type": "uint256"
        },
        {
          "internalType": "bool",
          "name": "available",
          "type": "bool"
        }
      ],
      "stateMutability": "view",
      "type": "function"
    },
    {
      "inputs": [
        {
          "internalType": "string",
          "name": "name",
          "type": "string"
        },
        {
          "internalType": "string",
          "name": "category",
          "type": "string"
        },
        {
          "internalType": "uint256",
          "name": "rewardPricePercentage",
          "type": "uint256"
        },
        {
          "internalType": "uint256[][]",
          "name": "rewardMilestones",
          "type": "uint256[][]"
        }
      ],
      "name": "registerBrand",
      "outputs": [],
      "stateMutability": "payable",
      "type": "function"
    },
    {
      "inputs": [
        {
          "internalType": "string",
          "name": "name",
          "type": "string"
        },
        {
          "internalType": "string",
          "name": "_referral",
          "type": "string"
        }
      ],
      "name": "registerUser",
      "outputs": [],
      "stateMutability": "nonpayable",
      "type": "function"
    },
    {
      "inputs": [
        {
          "internalType": "address",
          "name": "account",
          "type": "address"
        }
      ],
      "name": "showBalance",
      "outputs": [
        {
          "internalType": "uint256",
          "name": "",
          "type": "uint256"
        }
      ],
      "stateMutability": "view",
      "type": "function"
    },
    {
      "inputs": [
        {
          "internalType": "string",
          "name": "brandId",
          "type": "string"
        }
      ],
      "name": "showBrandProducts",
      "outputs": [
        {
          "components": [
            {
              "internalType": "string",
              "name": "id",
              "type": "string"
            },
            {
              "internalType": "string",
              "name": "name",
              "type": "string"
            },
            {
              "internalType": "string",
              "name": "category",
              "type": "string"
            },
            {
              "internalType": "string",
              "name": "imageUrl",
              "type": "string"
            },
            {
              "internalType": "uint256",
              "name": "price",
              "type": "uint256"
            },
            {
              "internalType": "bool",
              "name": "available",
              "type": "bool"
            }
          ],
          "internalType": "struct FlipKart.Product[]",
          "name": "",
          "type": "tuple[]"
        }
      ],
      "stateMutability": "view",
      "type": "function"
    },
    {
      "inputs": [
        {
          "internalType": "string",
          "name": "brandId",
          "type": "string"
        }
      ],
      "name": "showBrandRewards",
      "outputs": [
        {
          "internalType": "uint256[]",
          "name": "",
          "type": "uint256[]"
        },
        {
          "internalType": "uint256[]",
          "name": "",
          "type": "uint256[]"
        }
      ],
      "stateMutability": "view",
      "type": "function"
    },
    {
      "inputs": [],
      "name": "showBrands",
      "outputs": [
        {
          "internalType": "string[]",
          "name": "",
          "type": "string[]"
        }
      ],
      "stateMutability": "view",
      "type": "function"
    },
    {
      "inputs": [
        {
          "internalType": "address",
          "name": "account",
          "type": "address"
        }
      ],
      "name": "showUserPurchaseHistory",
      "outputs": [
        {
          "components": [
            {
              "internalType": "string",
              "name": "id",
              "type": "string"
            },
            {
              "internalType": "string",
              "name": "brandId",
              "type": "string"
            },
            {
              "internalType": "string",
              "name": "productId",
              "type": "string"
            },
            {
              "internalType": "string",
              "name": "userId",
              "type": "string"
            },
            {
              "internalType": "uint256",
              "name": "expenditure",
              "type": "uint256"
            },
            {
              "internalType": "uint256",
              "name": "tokensRedeemed",
              "type": "uint256"
            },
            {
              "internalType": "string",
              "name": "rewardRedeemed",
              "type": "string"
            }
          ],
          "internalType": "struct FlipKart.UserTransaction[]",
          "name": "",
          "type": "tuple[]"
        }
      ],
      "stateMutability": "view",
      "type": "function"
    },
    {
      "inputs": [
        {
          "internalType": "address",
          "name": "account",
          "type": "address"
        }
      ],
      "name": "showUserRewards",
      "outputs": [
        {
          "components": [
            {
              "internalType": "string",
              "name": "rewardId",
              "type": "string"
            },
            {
              "internalType": "uint256",
              "name": "discount",
              "type": "uint256"
            },
            {
              "internalType": "uint256",
              "name": "maxDiscountPrice",
              "type": "uint256"
            },
            {
              "internalType": "uint256",
              "name": "tokensRequired",
              "type": "uint256"
            },
            {
              "internalType": "string",
              "name": "redeemCode",
              "type": "string"
            }
          ],
          "internalType": "struct FlipKart.RedeemableReward[]",
          "name": "",
          "type": "tuple[]"
        }
      ],
      "stateMutability": "view",
      "type": "function"
    },
    {
      "inputs": [
        {
          "internalType": "address",
          "name": "",
          "type": "address"
        }
      ],
      "name": "userDetails",
      "outputs": [
        {
          "internalType": "string",
          "name": "id",
          "type": "string"
        },
        {
          "internalType": "string",
          "name": "name",
          "type": "string"
        },
        {
          "internalType": "address",
          "name": "account",
          "type": "address"
        },
        {
          "internalType": "string",
          "name": "referralCode",
          "type": "string"
        }
      ],
      "stateMutability": "view",
      "type": "function"
    }
  ],
  "bytecode": "0x60806040523480156200001157600080fd5b50604051620079ce380380620079ce8339818101604052810190620000379190620000ff565b6040516200004590620000b1565b604051809103906000f08015801562000062573d6000803e3d6000fd5b50600b60006101000a81548173ffffffffffffffffffffffffffffffffffffffff021916908373ffffffffffffffffffffffffffffffffffffffff16021790555080600c819055505062000131565b61191480620060ba83390190565b600080fd5b6000819050919050565b620000d981620000c4565b8114620000e557600080fd5b50565b600081519050620000f981620000ce565b92915050565b600060208284031215620001185762000117620000bf565b5b60006200012884828501620000e8565b91505092915050565b615f7980620001416000396000f3fe6080604052600436106101095760003560e01c806355008c1811610095578063d7fe9ef111610064578063d7fe9ef114610383578063dac11963146103c0578063dc7f91d2146103fd578063e51b852914610428578063e7d4b3fd1461046557610109565b806355008c18146102d15780636f85e62c146102ed5780639c080f5d14610309578063cb8405701461034657610109565b80632c46c910116100dc5780632c46c910146101cb5780632ce22810146102095780632da391051461023257806335ac9baa1461027557806348dec2a71461029157610109565b806313c5da551461010e578063188d030c146101505780631d2e4afd1461017957806325dfbfba146101a2575b600080fd5b34801561011a57600080fd5b506101356004803603810190610130919061471a565b61048e565b6040516101479695949392919061481f565b60405180910390f35b34801561015c57600080fd5b506101776004803603810190610172919061471a565b61070d565b005b34801561018557600080fd5b506101a0600480360381019061019b919061489c565b610c75565b005b3480156101ae57600080fd5b506101c960048036038101906101c49190614940565b611221565b005b3480156101d757600080fd5b506101f260048036038101906101ed919061471a565b6114be565b604051610200929190614ae9565b60405180910390f35b34801561021557600080fd5b50610230600480360381019061022b9190614b20565b6115b0565b005b34801561023e57600080fd5b506102596004803603810190610254919061471a565b6117ae565b60405161026c9796959493929190614bbd565b60405180910390f35b61028f600480360381019061028a9190614dea565b6119cb565b005b34801561029d57600080fd5b506102b860048036038101906102b39190614ee3565b611d23565b6040516102c89493929190614f1f565b60405180910390f35b6102eb60048036038101906102e69190614fa5565b611f0b565b005b6103076004803603810190610302919061471a565b6132ac565b005b34801561031557600080fd5b50610330600480360381019061032b9190614ee3565b61347c565b60405161033d9190615060565b60405180910390f35b34801561035257600080fd5b5061036d60048036038101906103689190614ee3565b613521565b60405161037a919061507b565b60405180910390f35b34801561038f57600080fd5b506103aa60048036038101906103a5919061471a565b6135c1565b6040516103b79190615256565b60405180910390f35b3480156103cc57600080fd5b506103e760048036038101906103e29190614ee3565b6138ae565b6040516103f491906153f2565b60405180910390f35b34801561040957600080fd5b50610412613c3d565b60405161041f91906154d6565b60405180910390f35b34801561043457600080fd5b5061044f600480360381019061044a9190614ee3565b613d16565b60405161045c9190615637565b60405180910390f35b34801561047157600080fd5b5061048c60048036038101906104879190615659565b613ef9565b005b6003818051602081018201805184825260208301602085012081835280955050505050506000915090508060000180546104c79061570b565b80601f01602080910402602001604051908101604052809291908181526020018280546104f39061570b565b80156105405780601f1061051557610100808354040283529160200191610540565b820191906000526020600020905b81548152906001019060200180831161052357829003601f168201915b5050505050908060010180546105559061570b565b80601f01602080910402602001604051908101604052809291908181526020018280546105819061570b565b80156105ce5780601f106105a3576101008083540402835291602001916105ce565b820191906000526020600020905b8154815290600101906020018083116105b157829003601f168201915b5050505050908060020180546105e39061570b565b80601f016020809104026020016040519081016040528092919081815260200182805461060f9061570b565b801561065c5780601f106106315761010080835404028352916020019161065c565b820191906000526020600020905b81548152906001019060200180831161063f57829003601f168201915b5050505050908060030180546106719061570b565b80601f016020809104026020016040519081016040528092919081815260200182805461069d9061570b565b80156106ea5780601f106106bf576101008083540402835291602001916106ea565b820191906000526020600020905b8154815290600101906020018083116106cd57829003601f168201915b5050505050908060040154908060050160009054906101000a900460ff16905086565b600015156009826040516107219190615779565b9081526020016040518091039020600460003373ffffffffffffffffffffffffffffffffffffffff1673ffffffffffffffffffffffffffffffffffffffff16815260200190815260200160002060000160405161077e9190615824565b908152602001604051809103902060009054906101000a900460ff161515146107a657600080fd5b60006040518060a001604052808381526020016007846040516107c99190615779565b90815260200160405180910390206002015481526020016007846040516107f09190615779565b90815260200160405180910390206003015481526020016007846040516108179190615779565b90815260200160405180910390206004015481526020016108366140e3565b81525090506001600a600460003373ffffffffffffffffffffffffffffffffffffffff1673ffffffffffffffffffffffffffffffffffffffff16815260200190815260200160002060000160405161088e9190615824565b908152602001604051809103902082608001516040516108ae9190615779565b908152602001604051809103902060006101000a81548160ff02191690831515021790555081600882608001516040516108e89190615779565b9081526020016040518091039020908051906020019061090992919061442b565b50600460003373ffffffffffffffffffffffffffffffffffffffff1673ffffffffffffffffffffffffffffffffffffffff168152602001908152602001600020600401819080600181540180825580915050600190039060005260206000209060050201600090919091909150600082015181600001908051906020019061099292919061442b565b5060208201518160010155604082015181600201556060820151816003015560808201518160040190805190602001906109cd92919061442b565b50505060016009836040516109e29190615779565b9081526020016040518091039020600460003373ffffffffffffffffffffffffffffffffffffffff1673ffffffffffffffffffffffffffffffffffffffff168152602001908152602001600020600001604051610a3f9190615824565b908152602001604051809103902060006101000a81548160ff021916908315150217905550600b60009054906101000a900473ffffffffffffffffffffffffffffffffffffffff1673ffffffffffffffffffffffffffffffffffffffff1663095ea7b333670de0b6b3a7640000600786604051610abc9190615779565b908152602001604051809103902060040154610ad8919061586a565b6040518363ffffffff1660e01b8152600401610af59291906158c4565b6020604051808303816000875af1158015610b14573d6000803e3d6000fd5b505050506040513d601f19601f82011682018060405250810190610b389190615902565b50600b60009054906101000a900473ffffffffffffffffffffffffffffffffffffffff1673ffffffffffffffffffffffffffffffffffffffff166323b872dd336001600786604051610b8a9190615779565b9081526020016040518091039020600101604051610ba89190615824565b908152602001604051809103902060030160009054906101000a900473ffffffffffffffffffffffffffffffffffffffff16670de0b6b3a7640000600787604051610bf39190615779565b908152602001604051809103902060040154610c0f919061586a565b6040518463ffffffff1660e01b8152600401610c2d9392919061598e565b6020604051808303816000875af1158015610c4c573d6000803e3d6000fd5b505050506040513d601f19601f82011682018060405250810190610c709190615902565b505050565b600073ffffffffffffffffffffffffffffffffffffffff16600460003373ffffffffffffffffffffffffffffffffffffffff1673ffffffffffffffffffffffffffffffffffffffff16815260200190815260200160002060020160009054906101000a900473ffffffffffffffffffffffffffffffffffffffff1673ffffffffffffffffffffffffffffffffffffffff1614610d1057600080fd5b600073ffffffffffffffffffffffffffffffffffffffff166001600260003373ffffffffffffffffffffffffffffffffffffffff1673ffffffffffffffffffffffffffffffffffffffff168152602001908152602001600020604051610d769190615824565b908152602001604051809103902060030160009054906101000a900473ffffffffffffffffffffffffffffffffffffffff1673ffffffffffffffffffffffffffffffffffffffff1614610dc857600080fd5b6000610dfe33604051602001610dde9190615a0d565b6040516020818303038152906040528051906020012060001c60206141ef565b905080600460003373ffffffffffffffffffffffffffffffffffffffff1673ffffffffffffffffffffffffffffffffffffffff1681526020019081526020016000206000019080519060200190610e5692919061442b565b5082600460003373ffffffffffffffffffffffffffffffffffffffff1673ffffffffffffffffffffffffffffffffffffffff1681526020019081526020016000206001019080519060200190610ead92919061442b565b5033600460003373ffffffffffffffffffffffffffffffffffffffff1673ffffffffffffffffffffffffffffffffffffffff16815260200190815260200160002060020160006101000a81548173ffffffffffffffffffffffffffffffffffffffff021916908373ffffffffffffffffffffffffffffffffffffffff160217905550610f376140e3565b600460003373ffffffffffffffffffffffffffffffffffffffff1673ffffffffffffffffffffffffffffffffffffffff1681526020019081526020016000206005019080519060200190610f8c92919061442b565b50336006600460003373ffffffffffffffffffffffffffffffffffffffff1673ffffffffffffffffffffffffffffffffffffffff168152602001908152602001600020600501604051610fdf9190615824565b908152602001604051809103902060006101000a81548173ffffffffffffffffffffffffffffffffffffffff021916908373ffffffffffffffffffffffffffffffffffffffff160217905550600073ffffffffffffffffffffffffffffffffffffffff166006836040516110539190615779565b908152602001604051809103902060009054906101000a900473ffffffffffffffffffffffffffffffffffffffff1673ffffffffffffffffffffffffffffffffffffffff161461121c57600b60009054906101000a900473ffffffffffffffffffffffffffffffffffffffff1673ffffffffffffffffffffffffffffffffffffffff1663a0712d686802b5e3af16b18800006040518263ffffffff1660e01b81526004016111019190615a63565b600060405180830381600087803b15801561111b57600080fd5b505af115801561112f573d6000803e3d6000fd5b50505050600b60009054906101000a900473ffffffffffffffffffffffffffffffffffffffff1673ffffffffffffffffffffffffffffffffffffffff1663a9059cbb6006846040516111819190615779565b908152602001604051809103902060009054906101000a900473ffffffffffffffffffffffffffffffffffffffff166802b5e3af16b18800006040518363ffffffff1660e01b81526004016111d7929190615a7e565b6020604051808303816000875af11580156111f6573d6000803e3d6000fd5b505050506040513d601f19601f8201168201806040525081019061121a9190615902565b505b505050565b3373ffffffffffffffffffffffffffffffffffffffff166001866040516112489190615779565b908152602001604051809103902060030160009054906101000a900473ffffffffffffffffffffffffffffffffffffffff1673ffffffffffffffffffffffffffffffffffffffff161461129a57600080fd5b60006112d48533426040516020016112b493929190615ac8565b6040516020818303038152906040528051906020012060001c60206141ef565b905060006040518060c0016040528083815260200187815260200186815260200185815260200184815260200160011515815250905060018760405161131a9190615779565b9081526020016040518091039020600401819080600181540180825580915050600190039060005260206000209060060201600090919091909150600082015181600001908051906020019061137192919061442b565b50602082015181600101908051906020019061138e92919061442b565b5060408201518160020190805190602001906113ab92919061442b565b5060608201518160030190805190602001906113c892919061442b565b506080820151816004015560a08201518160050160006101000a81548160ff0219169083151502179055505050806003836040516114069190615779565b9081526020016040518091039020600082015181600001908051906020019061143092919061442b565b50602082015181600101908051906020019061144d92919061442b565b50604082015181600201908051906020019061146a92919061442b565b50606082015181600301908051906020019061148792919061442b565b506080820151816004015560a08201518160050160006101000a81548160ff02191690831515021790555090505050505050505050565b6060806001836040516114d19190615779565b90815260200160405180910390206005016001846040516114f29190615779565b90815260200160405180910390206006018180548060200260200160405190810160405280929190818152602001828054801561154e57602002820191906000526020600020905b81548152602001906001019080831161153a575b50505050509150808054806020026020016040519081016040528092919081815260200182805480156115a057602002820191906000526020600020905b81548152602001906001019080831161158c575b5050505050905091509150915091565b3373ffffffffffffffffffffffffffffffffffffffff166001836040516115d79190615779565b908152602001604051809103902060030160009054906101000a900473ffffffffffffffffffffffffffffffffffffffff1673ffffffffffffffffffffffffffffffffffffffff161461162957600080fd5b6000670de0b6b3a76400008261163f919061586a565b905061168b6001846040516116549190615779565b908152602001604051809103902060030160009054906101000a900473ffffffffffffffffffffffffffffffffffffffff1661347c565b81111561169757600080fd5b600b60009054906101000a900473ffffffffffffffffffffffffffffffffffffffff1673ffffffffffffffffffffffffffffffffffffffff1663095ea7b333836040518363ffffffff1660e01b81526004016116f49291906158c4565b6020604051808303816000875af1158015611713573d6000803e3d6000fd5b505050506040513d601f19601f820116820180604052508101906117379190615902565b50600180846040516117499190615779565b908152602001604051809103902060070160006101000a81548160ff021916908315150217905550806001846040516117829190615779565b908152602001604051809103902060080160008282546117a29190615b01565b92505081905550505050565b6001818051602081018201805184825260208301602085012081835280955050505050506000915090508060000180546117e79061570b565b80601f01602080910402602001604051908101604052809291908181526020018280546118139061570b565b80156118605780601f1061183557610100808354040283529160200191611860565b820191906000526020600020905b81548152906001019060200180831161184357829003601f168201915b5050505050908060010180546118759061570b565b80601f01602080910402602001604051908101604052809291908181526020018280546118a19061570b565b80156118ee5780601f106118c3576101008083540402835291602001916118ee565b820191906000526020600020905b8154815290600101906020018083116118d157829003601f168201915b5050505050908060020180546119039061570b565b80601f016020809104026020016040519081016040528092919081815260200182805461192f9061570b565b801561197c5780601f106119515761010080835404028352916020019161197c565b820191906000526020600020905b81548152906001019060200180831161195f57829003601f168201915b5050505050908060030160009054906101000a900473ffffffffffffffffffffffffffffffffffffffff16908060070160009054906101000a900460ff16908060080154908060090154905087565b67015c2a7b13fd000034146119df57600080fd5b6000611a1785336040516020016119f7929190615b57565b6040516020818303038152906040528051906020012060001c60046141ef565b90503373ffffffffffffffffffffffffffffffffffffffff16600182604051611a409190615779565b908152602001604051809103902060030160009054906101000a900473ffffffffffffffffffffffffffffffffffffffff1673ffffffffffffffffffffffffffffffffffffffff161415611a9357600080fd5b600073ffffffffffffffffffffffffffffffffffffffff16600460003373ffffffffffffffffffffffffffffffffffffffff1673ffffffffffffffffffffffffffffffffffffffff16815260200190815260200160002060020160009054906101000a900473ffffffffffffffffffffffffffffffffffffffff1673ffffffffffffffffffffffffffffffffffffffff1614611b2e57600080fd5b600081908060018154018082558091505060019003906000526020600020016000909190919091509080519060200190611b6992919061442b565b5080600182604051611b7b9190615779565b90815260200160405180910390206000019080519060200190611b9f92919061442b565b5084600182604051611bb19190615779565b90815260200160405180910390206001019080519060200190611bd592919061442b565b5083600182604051611be79190615779565b90815260200160405180910390206002019080519060200190611c0b92919061442b565b5033600182604051611c1d9190615779565b908152602001604051809103902060030160006101000a81548173ffffffffffffffffffffffffffffffffffffffff021916908373ffffffffffffffffffffffffffffffffffffffff16021790555082600182604051611c7d9190615779565b90815260200160405180910390206009018190555081600182604051611ca39190615779565b9081526020016040518091039020600a019080519060200190611cc79291906144b1565b5080600260003373ffffffffffffffffffffffffffffffffffffffff1673ffffffffffffffffffffffffffffffffffffffff1681526020019081526020016000209080519060200190611d1b92919061442b565b505050505050565b6004602052806000526040600020600091509050806000018054611d469061570b565b80601f0160208091040260200160405190810160405280929190818152602001828054611d729061570b565b8015611dbf5780601f10611d9457610100808354040283529160200191611dbf565b820191906000526020600020905b815481529060010190602001808311611da257829003601f168201915b505050505090806001018054611dd49061570b565b80601f0160208091040260200160405190810160405280929190818152602001828054611e009061570b565b8015611e4d5780601f10611e2257610100808354040283529160200191611e4d565b820191906000526020600020905b815481529060010190602001808311611e3057829003601f168201915b5050505050908060020160009054906101000a900473ffffffffffffffffffffffffffffffffffffffff1690806005018054611e889061570b565b80601f0160208091040260200160405190810160405280929190818152602001828054611eb49061570b565b8015611f015780601f10611ed657610100808354040283529160200191611f01565b820191906000526020600020905b815481529060010190602001808311611ee457829003601f168201915b5050505050905084565b3373ffffffffffffffffffffffffffffffffffffffff16600460003373ffffffffffffffffffffffffffffffffffffffff1673ffffffffffffffffffffffffffffffffffffffff16815260200190815260200160002060020160009054906101000a900473ffffffffffffffffffffffffffffffffffffffff1673ffffffffffffffffffffffffffffffffffffffff1614611fa557600080fd5b600073ffffffffffffffffffffffffffffffffffffffff16600185604051611fcd9190615779565b908152602001604051809103902060030160009054906101000a900473ffffffffffffffffffffffffffffffffffffffff1673ffffffffffffffffffffffffffffffffffffffff16141561202057600080fd5b6003836040516120309190615779565b908152602001604051809103902060050160009054906101000a900460ff1661205857600080fd5b6000806060600060018860405161206f9190615779565b9081526020016040518091039020905085156121615760006120903361347c565b90506000600c5460026120a3919061586a565b670de0b6b3a764000060038b6040516120bc9190615779565b9081526020016040518091039020600401546120d8919061586a565b6120e29190615bae565b90508082101561210757670de0b6b3a7640000826121009190615bae565b945061211e565b670de0b6b3a76400008161211b9190615bae565b94505b600c548561212c919061586a565b60038a60405161213c9190615779565b9081526020016040518091039020600401546121589190615bdf565b9550505061218a565b6003876040516121719190615779565b9081526020016040518091039020600401549350600092505b60011515600a600460003373ffffffffffffffffffffffffffffffffffffffff1673ffffffffffffffffffffffffffffffffffffffff1681526020019081526020016000206000016040516121df9190615824565b9081526020016040518091039020866040516121fb9190615779565b908152602001604051809103902060009054906101000a900460ff161515141561241457600060076008876040516122339190615779565b908152602001604051809103902060405161224e9190615824565b90815260200160405180910390206040518060a00160405290816000820180546122779061570b565b80601f01602080910402602001604051908101604052809291908181526020018280546122a39061570b565b80156122f05780601f106122c5576101008083540402835291602001916122f0565b820191906000526020600020905b8154815290600101906020018083116122d357829003601f168201915b505050505081526020016001820180546123099061570b565b80601f01602080910402602001604051908101604052809291908181526020018280546123359061570b565b80156123825780601f1061235757610100808354040283529160200191612382565b820191906000526020600020905b81548152906001019060200180831161236557829003601f168201915b5050505050815260200160028201548152602001600382015481526020016004820154815250509050806060015160648683604001516123c2919061586a565b6123cc9190615bae565b116123ff5760648582604001516123e3919061586a565b6123ed9190615bae565b856123f89190615bdf565b9450612412565b80606001518561240f9190615bdf565b94505b505b83341461242057600080fd5b60011515600a600460003373ffffffffffffffffffffffffffffffffffffffff1673ffffffffffffffffffffffffffffffffffffffff1681526020019081526020016000206000016040516124759190615824565b9081526020016040518091039020866040516124919190615779565b908152602001604051809103902060009054906101000a900460ff1615151415612613576000600a600460003373ffffffffffffffffffffffffffffffffffffffff1673ffffffffffffffffffffffffffffffffffffffff1681526020019081526020016000206000016040516125089190615824565b9081526020016040518091039020866040516125249190615779565b908152602001604051809103902060006101000a81548160ff021916908315150217905550600760088660405161255b9190615779565b90815260200160405180910390206040516125769190615824565b908152602001604051809103902060000180546125929061570b565b80601f01602080910402602001604051908101604052809291908181526020018280546125be9061570b565b801561260b5780601f106125e05761010080835404028352916020019161260b565b820191906000526020600020905b8154815290600101906020018083116125ee57829003601f168201915b505050505091505b6000600a856126229190615bae565b90508160030160009054906101000a900473ffffffffffffffffffffffffffffffffffffffff1673ffffffffffffffffffffffffffffffffffffffff166108fc823461266e9190615bdf565b9081150290604051600060405180830381858888f19350505050158015612699573d6000803e3d6000fd5b50846005600460003373ffffffffffffffffffffffffffffffffffffffff1673ffffffffffffffffffffffffffffffffffffffff1681526020019081526020016000206000016040516126ec9190615824565b90815260200160405180910390208a6040516127089190615779565b908152602001604051809103902060008282546127259190615b01565b9250508190555060006040518060e001604052806127b2600460003373ffffffffffffffffffffffffffffffffffffffff1673ffffffffffffffffffffffffffffffffffffffff1681526020019081526020016000206000018c4260405160200161279293929190615c13565b6040516020818303038152906040528051906020012060001c60206141ef565b81526020018b81526020018a8152602001600460003373ffffffffffffffffffffffffffffffffffffffff1673ffffffffffffffffffffffffffffffffffffffff16815260200190815260200160002060000180546128109061570b565b80601f016020809104026020016040519081016040528092919081815260200182805461283c9061570b565b80156128895780601f1061285e57610100808354040283529160200191612889565b820191906000526020600020905b81548152906001019060200180831161286c57829003601f168201915b50505050508152602001348152602001868152602001858152509050600460003373ffffffffffffffffffffffffffffffffffffffff1673ffffffffffffffffffffffffffffffffffffffff168152602001908152602001600020600301819080600181540180825580915050600190039060005260206000209060070201600090919091909150600082015181600001908051906020019061292d92919061442b565b50602082015181600101908051906020019061294a92919061442b565b50604082015181600201908051906020019061296792919061442b565b50606082015181600301908051906020019061298492919061442b565b506080820151816004015560a0820151816005015560c08201518160060190805190602001906129b592919061442b565b505050600b60009054906101000a900473ffffffffffffffffffffffffffffffffffffffff1673ffffffffffffffffffffffffffffffffffffffff1663095ea7b333670de0b6b3a764000088612a0b919061586a565b6040518363ffffffff1660e01b8152600401612a289291906158c4565b6020604051808303816000875af1158015612a47573d6000803e3d6000fd5b505050506040513d601f19601f82011682018060405250810190612a6b9190615902565b50600b60009054906101000a900473ffffffffffffffffffffffffffffffffffffffff1673ffffffffffffffffffffffffffffffffffffffff166323b872dd338560030160009054906101000a900473ffffffffffffffffffffffffffffffffffffffff16670de0b6b3a764000089612ae4919061586a565b6040518463ffffffff1660e01b8152600401612b029392919061598e565b6020604051808303816000875af1158015612b21573d6000803e3d6000fd5b505050506040513d601f19601f82011682018060405250810190612b459190615902565b506001600460003373ffffffffffffffffffffffffffffffffffffffff1673ffffffffffffffffffffffffffffffffffffffff168152602001908152602001600020600301805490501415612cd557600b60009054906101000a900473ffffffffffffffffffffffffffffffffffffffff1673ffffffffffffffffffffffffffffffffffffffff1663a0712d6868056bc75e2d631000006040518263ffffffff1660e01b8152600401612bf89190615c83565b600060405180830381600087803b158015612c1257600080fd5b505af1158015612c26573d6000803e3d6000fd5b50505050600b60009054906101000a900473ffffffffffffffffffffffffffffffffffffffff1673ffffffffffffffffffffffffffffffffffffffff1663a9059cbb3368056bc75e2d631000006040518363ffffffff1660e01b8152600401612c90929190615c9e565b6020604051808303816000875af1158015612caf573d6000803e3d6000fd5b505050506040513d601f19601f82011682018060405250810190612cd39190615902565b505b6000600c546014612ce6919061586a565b670de0b6b3a764000088612cfa919061586a565b612d049190615bae565b9050600b60009054906101000a900473ffffffffffffffffffffffffffffffffffffffff1673ffffffffffffffffffffffffffffffffffffffff1663a0712d68826040518263ffffffff1660e01b8152600401612d619190615060565b600060405180830381600087803b158015612d7b57600080fd5b505af1158015612d8f573d6000803e3d6000fd5b50505050600b60009054906101000a900473ffffffffffffffffffffffffffffffffffffffff1673ffffffffffffffffffffffffffffffffffffffff1663a9059cbb33836040518363ffffffff1660e01b8152600401612df09291906158c4565b6020604051808303816000875af1158015612e0f573d6000803e3d6000fd5b505050506040513d601f19601f82011682018060405250810190612e339190615902565b5060006005600460003373ffffffffffffffffffffffffffffffffffffffff1673ffffffffffffffffffffffffffffffffffffffff168152602001908152602001600020600001604051612e879190615824565b90815260200160405180910390208c604051612ea39190615779565b90815260200160405180910390205490508460070160009054906101000a900460ff168015612ed6575060008560080154115b1561329e5760005b85600a018054905081101561329c5785600a018181548110612f0357612f02615cc7565b5b90600052602060002001600081548110612f2057612f1f615cc7565b5b906000526020600020015482118015612fbe5750600086600a018281548110612f4c57612f4b615cc7565b5b90600052602060002001600181548110612f6957612f68615cc7565b5b90600052602060002001541480612fbd575085600a018181548110612f9157612f90615cc7565b5b90600052602060002001600181548110612fae57612fad615cc7565b5b90600052602060002001548211155b5b15613289576000600c546064612fd4919061586a565b670de0b6b3a764000088600a018481548110612ff357612ff2615cc7565b5b906000526020600020016002815481106130105761300f615cc7565b5b906000526020600020015489600901548d61302b919061586a565b613035919061586a565b61303f919061586a565b6130499190615bae565b90508087600801541161318757600b60009054906101000a900473ffffffffffffffffffffffffffffffffffffffff1673ffffffffffffffffffffffffffffffffffffffff166323b872dd8860030160009054906101000a900473ffffffffffffffffffffffffffffffffffffffff16338a600801546040518463ffffffff1660e01b81526004016130dd93929190615cf6565b6020604051808303816000875af11580156130fc573d6000803e3d6000fd5b505050506040513d601f19601f820116820180604052508101906131209190615902565b50600060018f6040516131339190615779565b908152602001604051809103902060080181905550600060018f60405161315a9190615779565b908152602001604051809103902060070160006101000a81548160ff021916908315150217905550613287565b600b60009054906101000a900473ffffffffffffffffffffffffffffffffffffffff1673ffffffffffffffffffffffffffffffffffffffff166323b872dd8860030160009054906101000a900473ffffffffffffffffffffffffffffffffffffffff1633846040518463ffffffff1660e01b815260040161320a93929190615cf6565b6020604051808303816000875af1158015613229573d6000803e3d6000fd5b505050506040513d601f19601f8201168201806040525081019061324d9190615902565b508060018f60405161325f9190615779565b9081526020016040518091039020600801600082825461327f9190615bdf565b925050819055505b505b808061329490615d2d565b915050612ede565b505b505050505050505050505050565b3373ffffffffffffffffffffffffffffffffffffffff166001826040516132d39190615779565b908152602001604051809103902060030160009054906101000a900473ffffffffffffffffffffffffffffffffffffffff1673ffffffffffffffffffffffffffffffffffffffff161461332557600080fd5b6000600c54670de0b6b3a76400003461333e919061586a565b6133489190615bae565b9050600b60009054906101000a900473ffffffffffffffffffffffffffffffffffffffff1673ffffffffffffffffffffffffffffffffffffffff1663a0712d68826040518263ffffffff1660e01b81526004016133a59190615060565b600060405180830381600087803b1580156133bf57600080fd5b505af11580156133d3573d6000803e3d6000fd5b50505050600b60009054906101000a900473ffffffffffffffffffffffffffffffffffffffff1673ffffffffffffffffffffffffffffffffffffffff1663a9059cbb33836040518363ffffffff1660e01b81526004016134349291906158c4565b6020604051808303816000875af1158015613453573d6000803e3d6000fd5b505050506040513d601f19601f820116820180604052508101906134779190615902565b505050565b6000600b60009054906101000a900473ffffffffffffffffffffffffffffffffffffffff1673ffffffffffffffffffffffffffffffffffffffff166370a08231836040518263ffffffff1660e01b81526004016134d99190615d76565b602060405180830381865afa1580156134f6573d6000803e3d6000fd5b505050506040513d601f19601f8201168201806040525081019061351a9190615da6565b9050919050565b600260205280600052604060002060009150905080546135409061570b565b80601f016020809104026020016040519081016040528092919081815260200182805461356c9061570b565b80156135b95780601f1061358e576101008083540402835291602001916135b9565b820191906000526020600020905b81548152906001019060200180831161359c57829003601f168201915b505050505081565b60606001826040516135d39190615779565b9081526020016040518091039020600401805480602002602001604051908101604052809291908181526020016000905b828210156138a357838290600052602060002090600602016040518060c00160405290816000820180546136379061570b565b80601f01602080910402602001604051908101604052809291908181526020018280546136639061570b565b80156136b05780601f10613685576101008083540402835291602001916136b0565b820191906000526020600020905b81548152906001019060200180831161369357829003601f168201915b505050505081526020016001820180546136c99061570b565b80601f01602080910402602001604051908101604052809291908181526020018280546136f59061570b565b80156137425780601f1061371757610100808354040283529160200191613742565b820191906000526020600020905b81548152906001019060200180831161372557829003601f168201915b5050505050815260200160028201805461375b9061570b565b80601f01602080910402602001604051908101604052809291908181526020018280546137879061570b565b80156137d45780601f106137a9576101008083540402835291602001916137d4565b820191906000526020600020905b8154815290600101906020018083116137b757829003601f168201915b505050505081526020016003820180546137ed9061570b565b80601f01602080910402602001604051908101604052809291908181526020018280546138199061570b565b80156138665780601f1061383b57610100808354040283529160200191613866565b820191906000526020600020905b81548152906001019060200180831161384957829003601f168201915b50505050508152602001600482015481526020016005820160009054906101000a900460ff16151515158152505081526020019060010190613604565b505050509050919050565b6060600460008373ffffffffffffffffffffffffffffffffffffffff1673ffffffffffffffffffffffffffffffffffffffff168152602001908152602001600020600301805480602002602001604051908101604052809291908181526020016000905b82821015613c3257838290600052602060002090600702016040518060e00160405290816000820180546139459061570b565b80601f01602080910402602001604051908101604052809291908181526020018280546139719061570b565b80156139be5780601f10613993576101008083540402835291602001916139be565b820191906000526020600020905b8154815290600101906020018083116139a157829003601f168201915b505050505081526020016001820180546139d79061570b565b80601f0160208091040260200160405190810160405280929190818152602001828054613a039061570b565b8015613a505780601f10613a2557610100808354040283529160200191613a50565b820191906000526020600020905b815481529060010190602001808311613a3357829003601f168201915b50505050508152602001600282018054613a699061570b565b80601f0160208091040260200160405190810160405280929190818152602001828054613a959061570b565b8015613ae25780601f10613ab757610100808354040283529160200191613ae2565b820191906000526020600020905b815481529060010190602001808311613ac557829003601f168201915b50505050508152602001600382018054613afb9061570b565b80601f0160208091040260200160405190810160405280929190818152602001828054613b279061570b565b8015613b745780601f10613b4957610100808354040283529160200191613b74565b820191906000526020600020905b815481529060010190602001808311613b5757829003601f168201915b505050505081526020016004820154815260200160058201548152602001600682018054613ba19061570b565b80601f0160208091040260200160405190810160405280929190818152602001828054613bcd9061570b565b8015613c1a5780601f10613bef57610100808354040283529160200191613c1a565b820191906000526020600020905b815481529060010190602001808311613bfd57829003601f168201915b50505050508152505081526020019060010190613912565b505050509050919050565b60606000805480602002602001604051908101604052809291908181526020016000905b82821015613d0d578382906000526020600020018054613c809061570b565b80601f0160208091040260200160405190810160405280929190818152602001828054613cac9061570b565b8015613cf95780601f10613cce57610100808354040283529160200191613cf9565b820191906000526020600020905b815481529060010190602001808311613cdc57829003601f168201915b505050505081526020019060010190613c61565b50505050905090565b6060600460008373ffffffffffffffffffffffffffffffffffffffff1673ffffffffffffffffffffffffffffffffffffffff168152602001908152602001600020600401805480602002602001604051908101604052809291908181526020016000905b82821015613eee57838290600052602060002090600502016040518060a0016040529081600082018054613dad9061570b565b80601f0160208091040260200160405190810160405280929190818152602001828054613dd99061570b565b8015613e265780601f10613dfb57610100808354040283529160200191613e26565b820191906000526020600020905b815481529060010190602001808311613e0957829003601f168201915b50505050508152602001600182015481526020016002820154815260200160038201548152602001600482018054613e5d9061570b565b80601f0160208091040260200160405190810160405280929190818152602001828054613e899061570b565b8015613ed65780601f10613eab57610100808354040283529160200191613ed6565b820191906000526020600020905b815481529060010190602001808311613eb957829003601f168201915b50505050508152505081526020019060010190613d7a565b505050509050919050565b3373ffffffffffffffffffffffffffffffffffffffff16600185604051613f209190615779565b908152602001604051809103902060030160009054906101000a900473ffffffffffffffffffffffffffffffffffffffff1673ffffffffffffffffffffffffffffffffffffffff1614613f7257600080fd5b6000613faa8542604051602001613f8a929190615dd3565b6040516020818303038152906040528051906020012060001c60206141ef565b90506040518060a0016040528082815260200186815260200185815260200184815260200183815250600782604051613fe39190615779565b9081526020016040518091039020600082015181600001908051906020019061400d92919061442b565b50602082015181600101908051906020019061402a92919061442b565b5060408201518160020155606082015181600301556080820151816004015590505060018560405161405c9190615779565b90815260200160405180910390206005018290806001815401808255809150506001900390600052602060002001600090919091909150556001856040516140a49190615779565b90815260200160405180910390206006018490806001815401808255809150506001900390600052602060002001600090919091909150555050505050565b60606000600667ffffffffffffffff811115614102576141016145ef565b5b6040519080825280601f01601f1916602001820160405280156141345781602001600182028036833780820191505090505b50905060005b60068110156141e7576000600a42448460405160200161415c93929190615dfb565b6040516020818303038152906040528051906020012060001c61417f9190615e38565b905080603061418e9190615e76565b60f81b8383815181106141a4576141a3615cc7565b5b60200101907effffffffffffffffffffffffffffffffffffffffffffffffffffffffffffff1916908160001a9053505080806141df90615d2d565b91505061413a565b508091505090565b606060006002836002614202919061586a565b61420c9190615b01565b67ffffffffffffffff811115614225576142246145ef565b5b6040519080825280601f01601f1916602001820160405280156142575781602001600182028036833780820191505090505b5090507f30000000000000000000000000000000000000000000000000000000000000008160008151811061428f5761428e615cc7565b5b60200101907effffffffffffffffffffffffffffffffffffffffffffffffffffffffffffff1916908160001a9053507f7800000000000000000000000000000000000000000000000000000000000000816001815181106142f3576142f2615cc7565b5b60200101907effffffffffffffffffffffffffffffffffffffffffffffffffffffffffffff1916908160001a90535060006001846002614333919061586a565b61433d9190615b01565b90505b60018111156143dd577f3031323334353637383961626364656600000000000000000000000000000000600f86166010811061437f5761437e615cc7565b5b1a60f81b82828151811061439657614395615cc7565b5b60200101907effffffffffffffffffffffffffffffffffffffffffffffffffffffffffffff1916908160001a905350600485901c9450806143d690615ead565b9050614340565b5060008414614421576040517f08c379a000000000000000000000000000000000000000000000000000000000815260040161441890615f23565b60405180910390fd5b8091505092915050565b8280546144379061570b565b90600052602060002090601f01602090048101928261445957600085556144a0565b82601f1061447257805160ff19168380011785556144a0565b828001600101855582156144a0579182015b8281111561449f578251825591602001919060010190614484565b5b5090506144ad9190614511565b5090565b828054828255906000526020600020908101928215614500579160200282015b828111156144ff5782518290805190602001906144ef92919061452e565b50916020019190600101906144d1565b5b50905061450d919061457b565b5090565b5b8082111561452a576000816000905550600101614512565b5090565b82805482825590600052602060002090810192821561456a579160200282015b8281111561456957825182559160200191906001019061454e565b5b5090506145779190614511565b5090565b5b8082111561459b5760008181614592919061459f565b5060010161457c565b5090565b50805460008255906000526020600020908101906145bd9190614511565b50565b6000604051905090565b600080fd5b600080fd5b600080fd5b600080fd5b6000601f19601f8301169050919050565b7f4e487b7100000000000000000000000000000000000000000000000000000000600052604160045260246000fd5b614627826145de565b810181811067ffffffffffffffff82111715614646576146456145ef565b5b80604052505050565b60006146596145c0565b9050614665828261461e565b919050565b600067ffffffffffffffff821115614685576146846145ef565b5b61468e826145de565b9050602081019050919050565b82818337600083830152505050565b60006146bd6146b88461466a565b61464f565b9050828152602081018484840111156146d9576146d86145d9565b5b6146e484828561469b565b509392505050565b600082601f830112614701576147006145d4565b5b81356147118482602086016146aa565b91505092915050565b6000602082840312156147305761472f6145ca565b5b600082013567ffffffffffffffff81111561474e5761474d6145cf565b5b61475a848285016146ec565b91505092915050565b600081519050919050565b600082825260208201905092915050565b60005b8381101561479d578082015181840152602081019050614782565b838111156147ac576000848401525b50505050565b60006147bd82614763565b6147c7818561476e565b93506147d781856020860161477f565b6147e0816145de565b840191505092915050565b6000819050919050565b6147fe816147eb565b82525050565b60008115159050919050565b61481981614804565b82525050565b600060c082019050818103600083015261483981896147b2565b9050818103602083015261484d81886147b2565b9050818103604083015261486181876147b2565b9050818103606083015261487581866147b2565b905061488460808301856147f5565b61489160a0830184614810565b979650505050505050565b600080604083850312156148b3576148b26145ca565b5b600083013567ffffffffffffffff8111156148d1576148d06145cf565b5b6148dd858286016146ec565b925050602083013567ffffffffffffffff8111156148fe576148fd6145cf565b5b61490a858286016146ec565b9150509250929050565b61491d816147eb565b811461492857600080fd5b50565b60008135905061493a81614914565b92915050565b600080600080600060a0868803121561495c5761495b6145ca565b5b600086013567ffffffffffffffff81111561497a576149796145cf565b5b614986888289016146ec565b955050602086013567ffffffffffffffff8111156149a7576149a66145cf565b5b6149b3888289016146ec565b945050604086013567ffffffffffffffff8111156149d4576149d36145cf565b5b6149e0888289016146ec565b935050606086013567ffffffffffffffff811115614a0157614a006145cf565b5b614a0d888289016146ec565b9250506080614a1e8882890161492b565b9150509295509295909350565b600081519050919050565b600082825260208201905092915050565b6000819050602082019050919050565b614a60816147eb565b82525050565b6000614a728383614a57565b60208301905092915050565b6000602082019050919050565b6000614a9682614a2b565b614aa08185614a36565b9350614aab83614a47565b8060005b83811015614adc578151614ac38882614a66565b9750614ace83614a7e565b925050600181019050614aaf565b5085935050505092915050565b60006040820190508181036000830152614b038185614a8b565b90508181036020830152614b178184614a8b565b90509392505050565b60008060408385031215614b3757614b366145ca565b5b600083013567ffffffffffffffff811115614b5557614b546145cf565b5b614b61858286016146ec565b9250506020614b728582860161492b565b9150509250929050565b600073ffffffffffffffffffffffffffffffffffffffff82169050919050565b6000614ba782614b7c565b9050919050565b614bb781614b9c565b82525050565b600060e0820190508181036000830152614bd7818a6147b2565b90508181036020830152614beb81896147b2565b90508181036040830152614bff81886147b2565b9050614c0e6060830187614bae565b614c1b6080830186614810565b614c2860a08301856147f5565b614c3560c08301846147f5565b98975050505050505050565b600067ffffffffffffffff821115614c5c57614c5b6145ef565b5b602082029050602081019050919050565b600080fd5b600067ffffffffffffffff821115614c8d57614c8c6145ef565b5b602082029050602081019050919050565b6000614cb1614cac84614c72565b61464f565b90508083825260208201905060208402830185811115614cd457614cd3614c6d565b5b835b81811015614cfd5780614ce9888261492b565b845260208401935050602081019050614cd6565b5050509392505050565b600082601f830112614d1c57614d1b6145d4565b5b8135614d2c848260208601614c9e565b91505092915050565b6000614d48614d4384614c41565b61464f565b90508083825260208201905060208402830185811115614d6b57614d6a614c6d565b5b835b81811015614db257803567ffffffffffffffff811115614d9057614d8f6145d4565b5b808601614d9d8982614d07565b85526020850194505050602081019050614d6d565b5050509392505050565b600082601f830112614dd157614dd06145d4565b5b8135614de1848260208601614d35565b91505092915050565b60008060008060808587031215614e0457614e036145ca565b5b600085013567ffffffffffffffff811115614e2257614e216145cf565b5b614e2e878288016146ec565b945050602085013567ffffffffffffffff811115614e4f57614e4e6145cf565b5b614e5b878288016146ec565b9350506040614e6c8782880161492b565b925050606085013567ffffffffffffffff811115614e8d57614e8c6145cf565b5b614e9987828801614dbc565b91505092959194509250565b6000614eb082614b7c565b9050919050565b614ec081614ea5565b8114614ecb57600080fd5b50565b600081359050614edd81614eb7565b92915050565b600060208284031215614ef957614ef86145ca565b5b6000614f0784828501614ece565b91505092915050565b614f1981614ea5565b82525050565b60006080820190508181036000830152614f3981876147b2565b90508181036020830152614f4d81866147b2565b9050614f5c6040830185614f10565b8181036060830152614f6e81846147b2565b905095945050505050565b614f8281614804565b8114614f8d57600080fd5b50565b600081359050614f9f81614f79565b92915050565b60008060008060808587031215614fbf57614fbe6145ca565b5b600085013567ffffffffffffffff811115614fdd57614fdc6145cf565b5b614fe9878288016146ec565b945050602085013567ffffffffffffffff81111561500a576150096145cf565b5b615016878288016146ec565b935050604061502787828801614f90565b925050606085013567ffffffffffffffff811115615048576150476145cf565b5b615054878288016146ec565b91505092959194509250565b600060208201905061507560008301846147f5565b92915050565b6000602082019050818103600083015261509581846147b2565b905092915050565b600081519050919050565b600082825260208201905092915050565b6000819050602082019050919050565b600082825260208201905092915050565b60006150e582614763565b6150ef81856150c9565b93506150ff81856020860161477f565b615108816145de565b840191505092915050565b61511c81614804565b82525050565b600060c083016000830151848203600086015261513f82826150da565b9150506020830151848203602086015261515982826150da565b9150506040830151848203604086015261517382826150da565b9150506060830151848203606086015261518d82826150da565b91505060808301516151a26080860182614a57565b5060a08301516151b560a0860182615113565b508091505092915050565b60006151cc8383615122565b905092915050565b6000602082019050919050565b60006151ec8261509d565b6151f681856150a8565b935083602082028501615208856150b9565b8060005b85811015615244578484038952815161522585826151c0565b9450615230836151d4565b925060208a0199505060018101905061520c565b50829750879550505050505092915050565b6000602082019050818103600083015261527081846151e1565b905092915050565b600081519050919050565b600082825260208201905092915050565b6000819050602082019050919050565b600060e08301600083015184820360008601526152c182826150da565b915050602083015184820360208601526152db82826150da565b915050604083015184820360408601526152f582826150da565b9150506060830151848203606086015261530f82826150da565b91505060808301516153246080860182614a57565b5060a083015161533760a0860182614a57565b5060c083015184820360c086015261534f82826150da565b9150508091505092915050565b600061536883836152a4565b905092915050565b6000602082019050919050565b600061538882615278565b6153928185615283565b9350836020820285016153a485615294565b8060005b858110156153e057848403895281516153c1858261535c565b94506153cc83615370565b925060208a019950506001810190506153a8565b50829750879550505050505092915050565b6000602082019050818103600083015261540c818461537d565b905092915050565b600081519050919050565b600082825260208201905092915050565b6000819050602082019050919050565b600061544c83836150da565b905092915050565b6000602082019050919050565b600061546c82615414565b615476818561541f565b93508360208202850161548885615430565b8060005b858110156154c457848403895281516154a58582615440565b94506154b083615454565b925060208a0199505060018101905061548c565b50829750879550505050505092915050565b600060208201905081810360008301526154f08184615461565b905092915050565b600081519050919050565b600082825260208201905092915050565b6000819050602082019050919050565b600060a083016000830151848203600086015261554182826150da565b91505060208301516155566020860182614a57565b5060408301516155696040860182614a57565b50606083015161557c6060860182614a57565b506080830151848203608086015261559482826150da565b9150508091505092915050565b60006155ad8383615524565b905092915050565b6000602082019050919050565b60006155cd826154f8565b6155d78185615503565b9350836020820285016155e985615514565b8060005b85811015615625578484038952815161560685826155a1565b9450615611836155b5565b925060208a019950506001810190506155ed565b50829750879550505050505092915050565b6000602082019050818103600083015261565181846155c2565b905092915050565b60008060008060808587031215615673576156726145ca565b5b600085013567ffffffffffffffff811115615691576156906145cf565b5b61569d878288016146ec565b94505060206156ae8782880161492b565b93505060406156bf8782880161492b565b92505060606156d08782880161492b565b91505092959194509250565b7f4e487b7100000000000000000000000000000000000000000000000000000000600052602260045260246000fd5b6000600282049050600182168061572357607f821691505b60208210811415615737576157366156dc565b5b50919050565b600081905092915050565b600061575382614763565b61575d818561573d565b935061576d81856020860161477f565b80840191505092915050565b60006157858284615748565b915081905092915050565b60008190508160005260206000209050919050565b600081546157b28161570b565b6157bc818661573d565b945060018216600081146157d757600181146157e85761581b565b60ff1983168652818601935061581b565b6157f185615790565b60005b83811015615813578154818901526001820191506020810190506157f4565b838801955050505b50505092915050565b600061583082846157a5565b915081905092915050565b7f4e487b7100000000000000000000000000000000000000000000000000000000600052601160045260246000fd5b6000615875826147eb565b9150615880836147eb565b9250817fffffffffffffffffffffffffffffffffffffffffffffffffffffffffffffffff04831182151516156158b9576158b861583b565b5b828202905092915050565b60006040820190506158d96000830185614f10565b6158e660208301846147f5565b9392505050565b6000815190506158fc81614f79565b92915050565b600060208284031215615918576159176145ca565b5b6000615926848285016158ed565b91505092915050565b6000819050919050565b600061595461594f61594a84614b7c565b61592f565b614b7c565b9050919050565b600061596682615939565b9050919050565b60006159788261595b565b9050919050565b6159888161596d565b82525050565b60006060820190506159a36000830186614f10565b6159b0602083018561597f565b6159bd60408301846147f5565b949350505050565b60008160601b9050919050565b60006159dd826159c5565b9050919050565b60006159ef826159d2565b9050919050565b615a07615a0282614ea5565b6159e4565b82525050565b6000615a1982846159f6565b60148201915081905092915050565b6000819050919050565b6000615a4d615a48615a4384615a28565b61592f565b6147eb565b9050919050565b615a5d81615a32565b82525050565b6000602082019050615a786000830184615a54565b92915050565b6000604082019050615a936000830185614f10565b615aa06020830184615a54565b9392505050565b6000819050919050565b615ac2615abd826147eb565b615aa7565b82525050565b6000615ad48286615748565b9150615ae082856159f6565b601482019150615af08284615ab1565b602082019150819050949350505050565b6000615b0c826147eb565b9150615b17836147eb565b9250827fffffffffffffffffffffffffffffffffffffffffffffffffffffffffffffffff03821115615b4c57615b4b61583b565b5b828201905092915050565b6000615b638285615748565b9150615b6f82846159f6565b6014820191508190509392505050565b7f4e487b7100000000000000000000000000000000000000000000000000000000600052601260045260246000fd5b6000615bb9826147eb565b9150615bc4836147eb565b925082615bd457615bd3615b7f565b5b828204905092915050565b6000615bea826147eb565b9150615bf5836147eb565b925082821015615c0857615c0761583b565b5b828203905092915050565b6000615c1f82866157a5565b9150615c2b8285615748565b9150615c378284615ab1565b602082019150819050949350505050565b6000819050919050565b6000615c6d615c68615c6384615c48565b61592f565b6147eb565b9050919050565b615c7d81615c52565b82525050565b6000602082019050615c986000830184615c74565b92915050565b6000604082019050615cb36000830185614f10565b615cc06020830184615c74565b9392505050565b7f4e487b7100000000000000000000000000000000000000000000000000000000600052603260045260246000fd5b6000606082019050615d0b600083018661597f565b615d186020830185614f10565b615d2560408301846147f5565b949350505050565b6000615d38826147eb565b91507fffffffffffffffffffffffffffffffffffffffffffffffffffffffffffffffff821415615d6b57615d6a61583b565b5b600182019050919050565b6000602082019050615d8b6000830184614f10565b92915050565b600081519050615da081614914565b92915050565b600060208284031215615dbc57615dbb6145ca565b5b6000615dca84828501615d91565b91505092915050565b6000615ddf8285615748565b9150615deb8284615ab1565b6020820191508190509392505050565b6000615e078286615ab1565b602082019150615e178285615ab1565b602082019150615e278284615ab1565b602082019150819050949350505050565b6000615e43826147eb565b9150615e4e836147eb565b925082615e5e57615e5d615b7f565b5b828206905092915050565b600060ff82169050919050565b6000615e8182615e69565b9150615e8c83615e69565b92508260ff03821115615ea257615ea161583b565b5b828201905092915050565b6000615eb8826147eb565b91506000821415615ecc57615ecb61583b565b5b600182039050919050565b7f537472696e67733a20686578206c656e67746820696e73756666696369656e74600082015250565b6000615f0d60208361476e565b9150615f1882615ed7565b602082019050919050565b60006020820190508181036000830152615f3c81615f00565b905091905056fea264697066735822122080c21a7ef546bf0907362306cb3ec39430599f32f2916141cf55e565de68913564736f6c634300080c003360806040523480156200001157600080fd5b506040518060400160405280600881526020017f666c6970436f696e0000000000000000000000000000000000000000000000008152506040518060400160405280600281526020017f4650000000000000000000000000000000000000000000000000000000000000815250816003908051906020019062000096929190620000f9565b508060049080519060200190620000af929190620000f9565b50505033600560006101000a81548173ffffffffffffffffffffffffffffffffffffffff021916908373ffffffffffffffffffffffffffffffffffffffff1602179055506200020e565b8280546200010790620001d8565b90600052602060002090601f0160209004810192826200012b576000855562000177565b82601f106200014657805160ff191683800117855562000177565b8280016001018555821562000177579182015b828111156200017657825182559160200191906001019062000159565b5b5090506200018691906200018a565b5090565b5b80821115620001a55760008160009055506001016200018b565b5090565b7f4e487b7100000000000000000000000000000000000000000000000000000000600052602260045260246000fd5b60006002820490506001821680620001f157607f821691505b60208210811415620002085762000207620001a9565b5b50919050565b6116f6806200021e6000396000f3fe608060405234801561001057600080fd5b50600436106100cf5760003560e01c806370a082311161008c578063a0712d6811610066578063a0712d681461022a578063a457c2d714610246578063a9059cbb14610276578063dd62ed3e146102a6576100cf565b806370a08231146101be5780638da5cb5b146101ee57806395d89b411461020c576100cf565b806306fdde03146100d4578063095ea7b3146100f257806318160ddd1461012257806323b872dd14610140578063313ce56714610170578063395093511461018e575b600080fd5b6100dc6102d6565b6040516100e99190610e81565b60405180910390f35b61010c60048036038101906101079190610f3c565b610368565b6040516101199190610f97565b60405180910390f35b61012a6103e6565b6040516101379190610fc1565b60405180910390f35b61015a60048036038101906101559190610fdc565b6103f0565b6040516101679190610f97565b60405180910390f35b61017861047a565b604051610185919061104b565b60405180910390f35b6101a860048036038101906101a39190610f3c565b610483565b6040516101b59190610f97565b60405180910390f35b6101d860048036038101906101d39190611066565b6104ba565b6040516101e59190610fc1565b60405180910390f35b6101f6610502565b60405161020391906110b4565b60405180910390f35b610214610528565b6040516102219190610e81565b60405180910390f35b610244600480360381019061023f91906110cf565b6105ba565b005b610260600480360381019061025b9190610f3c565b610634565b60405161026d9190610f97565b60405180910390f35b610290600480360381019061028b9190610f3c565b6106ab565b60405161029d9190610f97565b60405180910390f35b6102c060048036038101906102bb91906110fc565b610729565b6040516102cd9190610fc1565b60405180910390f35b6060600380546102e59061116b565b80601f01602080910402602001604051908101604052809291908181526020018280546103119061116b565b801561035e5780601f106103335761010080835404028352916020019161035e565b820191906000526020600020905b81548152906001019060200180831161034157829003601f168201915b5050505050905090565b6000600560009054906101000a900473ffffffffffffffffffffffffffffffffffffffff1673ffffffffffffffffffffffffffffffffffffffff163373ffffffffffffffffffffffffffffffffffffffff16146103c457600080fd5b60006103ce6107b0565b90506103db8482856107b8565b600191505092915050565b6000600254905090565b6000600560009054906101000a900473ffffffffffffffffffffffffffffffffffffffff1673ffffffffffffffffffffffffffffffffffffffff163373ffffffffffffffffffffffffffffffffffffffff161461044c57600080fd5b60006104566107b0565b9050610463858285610983565b61046e858585610a0f565b60019150509392505050565b60006012905090565b60008061048e6107b0565b90506104af8185856104a08589610729565b6104aa91906111cc565b6107b8565b600191505092915050565b60008060008373ffffffffffffffffffffffffffffffffffffffff1673ffffffffffffffffffffffffffffffffffffffff168152602001908152602001600020549050919050565b600560009054906101000a900473ffffffffffffffffffffffffffffffffffffffff1681565b6060600480546105379061116b565b80601f01602080910402602001604051908101604052809291908181526020018280546105639061116b565b80156105b05780601f10610585576101008083540402835291602001916105b0565b820191906000526020600020905b81548152906001019060200180831161059357829003601f168201915b5050505050905090565b600560009054906101000a900473ffffffffffffffffffffffffffffffffffffffff1673ffffffffffffffffffffffffffffffffffffffff163373ffffffffffffffffffffffffffffffffffffffff161461061457600080fd5b61063133670de0b6b3a76400008361062c9190611222565b610c87565b50565b60008061063f6107b0565b9050600061064d8286610729565b905083811015610692576040517f08c379a0000000000000000000000000000000000000000000000000000000008152600401610689906112ee565b60405180910390fd5b61069f82868684036107b8565b60019250505092915050565b6000600560009054906101000a900473ffffffffffffffffffffffffffffffffffffffff1673ffffffffffffffffffffffffffffffffffffffff163373ffffffffffffffffffffffffffffffffffffffff161461070757600080fd5b60006107116107b0565b905061071e818585610a0f565b600191505092915050565b6000600160008473ffffffffffffffffffffffffffffffffffffffff1673ffffffffffffffffffffffffffffffffffffffff16815260200190815260200160002060008373ffffffffffffffffffffffffffffffffffffffff1673ffffffffffffffffffffffffffffffffffffffff16815260200190815260200160002054905092915050565b600033905090565b600073ffffffffffffffffffffffffffffffffffffffff168373ffffffffffffffffffffffffffffffffffffffff161415610828576040517f08c379a000000000000000000000000000000000000000000000000000000000815260040161081f90611380565b60405180910390fd5b600073ffffffffffffffffffffffffffffffffffffffff168273ffffffffffffffffffffffffffffffffffffffff161415610898576040517f08c379a000000000000000000000000000000000000000000000000000000000815260040161088f90611412565b60405180910390fd5b80600160008573ffffffffffffffffffffffffffffffffffffffff1673ffffffffffffffffffffffffffffffffffffffff16815260200190815260200160002060008473ffffffffffffffffffffffffffffffffffffffff1673ffffffffffffffffffffffffffffffffffffffff168152602001908152602001600020819055508173ffffffffffffffffffffffffffffffffffffffff168373ffffffffffffffffffffffffffffffffffffffff167f8c5be1e5ebec7d5bd14f71427d1e84f3dd0314c0f7b2291e5b200ac8c7c3b925836040516109769190610fc1565b60405180910390a3505050565b600061098f8484610729565b90507fffffffffffffffffffffffffffffffffffffffffffffffffffffffffffffffff8114610a0957818110156109fb576040517f08c379a00000000000000000000000000000000000000000000000000000000081526004016109f29061147e565b60405180910390fd5b610a0884848484036107b8565b5b50505050565b600073ffffffffffffffffffffffffffffffffffffffff168373ffffffffffffffffffffffffffffffffffffffff161415610a7f576040517f08c379a0000000000000000000000000000000000000000000000000000000008152600401610a7690611510565b60405180910390fd5b600073ffffffffffffffffffffffffffffffffffffffff168273ffffffffffffffffffffffffffffffffffffffff161415610aef576040517f08c379a0000000000000000000000000000000000000000000000000000000008152600401610ae6906115a2565b60405180910390fd5b610afa838383610dde565b60008060008573ffffffffffffffffffffffffffffffffffffffff1673ffffffffffffffffffffffffffffffffffffffff16815260200190815260200160002054905081811015610b80576040517f08c379a0000000000000000000000000000000000000000000000000000000008152600401610b7790611634565b60405180910390fd5b8181036000808673ffffffffffffffffffffffffffffffffffffffff1673ffffffffffffffffffffffffffffffffffffffff16815260200190815260200160002081905550816000808573ffffffffffffffffffffffffffffffffffffffff1673ffffffffffffffffffffffffffffffffffffffff168152602001908152602001600020600082825401925050819055508273ffffffffffffffffffffffffffffffffffffffff168473ffffffffffffffffffffffffffffffffffffffff167fddf252ad1be2c89b69c2b068fc378daa952ba7f163c4a11628f55a4df523b3ef84604051610c6e9190610fc1565b60405180910390a3610c81848484610de3565b50505050565b600073ffffffffffffffffffffffffffffffffffffffff168273ffffffffffffffffffffffffffffffffffffffff161415610cf7576040517f08c379a0000000000000000000000000000000000000000000000000000000008152600401610cee906116a0565b60405180910390fd5b610d0360008383610dde565b8060026000828254610d1591906111cc565b92505081905550806000808473ffffffffffffffffffffffffffffffffffffffff1673ffffffffffffffffffffffffffffffffffffffff168152602001908152602001600020600082825401925050819055508173ffffffffffffffffffffffffffffffffffffffff16600073ffffffffffffffffffffffffffffffffffffffff167fddf252ad1be2c89b69c2b068fc378daa952ba7f163c4a11628f55a4df523b3ef83604051610dc69190610fc1565b60405180910390a3610dda60008383610de3565b5050565b505050565b505050565b600081519050919050565b600082825260208201905092915050565b60005b83811015610e22578082015181840152602081019050610e07565b83811115610e31576000848401525b50505050565b6000601f19601f8301169050919050565b6000610e5382610de8565b610e5d8185610df3565b9350610e6d818560208601610e04565b610e7681610e37565b840191505092915050565b60006020820190508181036000830152610e9b8184610e48565b905092915050565b600080fd5b600073ffffffffffffffffffffffffffffffffffffffff82169050919050565b6000610ed382610ea8565b9050919050565b610ee381610ec8565b8114610eee57600080fd5b50565b600081359050610f0081610eda565b92915050565b6000819050919050565b610f1981610f06565b8114610f2457600080fd5b50565b600081359050610f3681610f10565b92915050565b60008060408385031215610f5357610f52610ea3565b5b6000610f6185828601610ef1565b9250506020610f7285828601610f27565b9150509250929050565b60008115159050919050565b610f9181610f7c565b82525050565b6000602082019050610fac6000830184610f88565b92915050565b610fbb81610f06565b82525050565b6000602082019050610fd66000830184610fb2565b92915050565b600080600060608486031215610ff557610ff4610ea3565b5b600061100386828701610ef1565b935050602061101486828701610ef1565b925050604061102586828701610f27565b9150509250925092565b600060ff82169050919050565b6110458161102f565b82525050565b6000602082019050611060600083018461103c565b92915050565b60006020828403121561107c5761107b610ea3565b5b600061108a84828501610ef1565b91505092915050565b600061109e82610ea8565b9050919050565b6110ae81611093565b82525050565b60006020820190506110c960008301846110a5565b92915050565b6000602082840312156110e5576110e4610ea3565b5b60006110f384828501610f27565b91505092915050565b6000806040838503121561111357611112610ea3565b5b600061112185828601610ef1565b925050602061113285828601610ef1565b9150509250929050565b7f4e487b7100000000000000000000000000000000000000000000000000000000600052602260045260246000fd5b6000600282049050600182168061118357607f821691505b602082108114156111975761119661113c565b5b50919050565b7f4e487b7100000000000000000000000000000000000000000000000000000000600052601160045260246000fd5b60006111d782610f06565b91506111e283610f06565b9250827fffffffffffffffffffffffffffffffffffffffffffffffffffffffffffffffff038211156112175761121661119d565b5b828201905092915050565b600061122d82610f06565b915061123883610f06565b9250817fffffffffffffffffffffffffffffffffffffffffffffffffffffffffffffffff04831182151516156112715761127061119d565b5b828202905092915050565b7f45524332303a2064656372656173656420616c6c6f77616e63652062656c6f7760008201527f207a65726f000000000000000000000000000000000000000000000000000000602082015250565b60006112d8602583610df3565b91506112e38261127c565b604082019050919050565b60006020820190508181036000830152611307816112cb565b9050919050565b7f45524332303a20617070726f76652066726f6d20746865207a65726f2061646460008201527f7265737300000000000000000000000000000000000000000000000000000000602082015250565b600061136a602483610df3565b91506113758261130e565b604082019050919050565b600060208201905081810360008301526113998161135d565b9050919050565b7f45524332303a20617070726f766520746f20746865207a65726f20616464726560008201527f7373000000000000000000000000000000000000000000000000000000000000602082015250565b60006113fc602283610df3565b9150611407826113a0565b604082019050919050565b6000602082019050818103600083015261142b816113ef565b9050919050565b7f45524332303a20696e73756666696369656e7420616c6c6f77616e6365000000600082015250565b6000611468601d83610df3565b915061147382611432565b602082019050919050565b600060208201905081810360008301526114978161145b565b9050919050565b7f45524332303a207472616e736665722066726f6d20746865207a65726f20616460008201527f6472657373000000000000000000000000000000000000000000000000000000602082015250565b60006114fa602583610df3565b91506115058261149e565b604082019050919050565b60006020820190508181036000830152611529816114ed565b9050919050565b7f45524332303a207472616e7366657220746f20746865207a65726f206164647260008201527f6573730000000000000000000000000000000000000000000000000000000000602082015250565b600061158c602383610df3565b915061159782611530565b604082019050919050565b600060208201905081810360008301526115bb8161157f565b9050919050565b7f45524332303a207472616e7366657220616d6f756e742065786365656473206260008201527f616c616e63650000000000000000000000000000000000000000000000000000602082015250565b600061161e602683610df3565b9150611629826115c2565b604082019050919050565b6000602082019050818103600083015261164d81611611565b9050919050565b7f45524332303a206d696e7420746f20746865207a65726f206164647265737300600082015250565b600061168a601f83610df3565b915061169582611654565b602082019050919050565b600060208201905081810360008301526116b98161167d565b905091905056fea26469706673582212200284d2481c05510f3319e68da7fbc7acc13a940629b459c35c908faa446c224764736f6c634300080c0033",
  "linkReferences": {},
  "deployedLinkReferences": {}
}