{
  "_format": "hh-sol-artifact-1",
  "contractName": "FlipKart",
  "sourceName": "contracts/FlipKart.sol",
  "abi": [
    {
      "inputs": [
        {
          "internalType": "uint256",
          "name": "value",
          "type": "uint256"
        }
      ],
      "stateMutability": "nonpayable",
      "type": "constructor"
    },
    {
      "inputs": [
        {
          "internalType": "string",
          "name": "brandId",
          "type": "string"
        },
        {
          "internalType": "string",
          "name": "name",
          "type": "string"
        },
        {
          "internalType": "string",
          "name": "category",
          "type": "string"
        },
        {
          "internalType": "uint256",
          "name": "price",
          "type": "uint256"
        }
      ],
      "name": "addProduct",
      "outputs": [],
      "stateMutability": "nonpayable",
      "type": "function"
    },
    {
      "inputs": [
        {
          "internalType": "string",
          "name": "",
          "type": "string"
        }
      ],
      "name": "brandDetails",
      "outputs": [
        {
          "internalType": "string",
          "name": "id",
          "type": "string"
        },
        {
          "internalType": "string",
          "name": "name",
          "type": "string"
        },
        {
          "internalType": "string",
          "name": "category",
          "type": "string"
        },
        {
          "internalType": "address payable",
          "name": "owner",
          "type": "address"
        },
        {
          "internalType": "bool",
          "name": "isIssuingTokens",
          "type": "bool"
        },
        {
          "internalType": "uint256",
          "name": "rewardTokensLeft",
          "type": "uint256"
        },
        {
          "internalType": "uint256",
          "name": "rewardPricePercentage",
          "type": "uint256"
        }
      ],
      "stateMutability": "view",
      "type": "function"
    },
    {
      "inputs": [
        {
          "internalType": "uint256",
          "name": "",
          "type": "uint256"
        }
      ],
      "name": "brands",
      "outputs": [
        {
          "internalType": "string",
          "name": "",
          "type": "string"
        }
      ],
      "stateMutability": "view",
      "type": "function"
    },
    {
      "inputs": [
        {
          "internalType": "string",
          "name": "brandId",
          "type": "string"
        },
        {
          "internalType": "string",
          "name": "productId",
          "type": "string"
        },
        {
          "internalType": "bool",
          "name": "isRedeemingTokens",
          "type": "bool"
        },
        {
          "internalType": "string",
          "name": "rewardRedeemCode",
          "type": "string"
        }
      ],
      "name": "buyProduct",
      "outputs": [],
      "stateMutability": "payable",
      "type": "function"
    },
    {
      "inputs": [
        {
          "internalType": "string",
          "name": "brandId",
          "type": "string"
        }
      ],
      "name": "buyTokens",
      "outputs": [],
      "stateMutability": "payable",
      "type": "function"
    },
    {
      "inputs": [
        {
          "internalType": "string",
          "name": "brandId",
          "type": "string"
        },
        {
          "internalType": "uint256",
          "name": "discount",
          "type": "uint256"
        },
        {
          "internalType": "uint256",
          "name": "maxDiscountValue",
          "type": "uint256"
        },
        {
          "internalType": "uint256",
          "name": "tokens",
          "type": "uint256"
        }
      ],
      "name": "createReward",
      "outputs": [],
      "stateMutability": "nonpayable",
      "type": "function"
    },
    {
      "inputs": [
        {
          "internalType": "string",
          "name": "rewardId",
          "type": "string"
        }
      ],
      "name": "issueReward",
      "outputs": [],
      "stateMutability": "nonpayable",
      "type": "function"
    },
    {
      "inputs": [
        {
          "internalType": "string",
          "name": "brandId",
          "type": "string"
        },
        {
          "internalType": "uint256",
          "name": "tokens",
          "type": "uint256"
        }
      ],
      "name": "issueTokens",
      "outputs": [],
      "stateMutability": "nonpayable",
      "type": "function"
    },
    {
      "inputs": [
        {
          "internalType": "string",
          "name": "",
          "type": "string"
        },
        {
          "internalType": "string",
          "name": "",
          "type": "string"
        }
      ],
      "name": "productDetails",
      "outputs": [
        {
          "internalType": "string",
          "name": "id",
          "type": "string"
        },
        {
          "internalType": "string",
          "name": "name",
          "type": "string"
        },
        {
          "internalType": "string",
          "name": "category",
          "type": "string"
        },
        {
          "internalType": "uint256",
          "name": "price",
          "type": "uint256"
        },
        {
          "internalType": "bool",
          "name": "available",
          "type": "bool"
        }
      ],
      "stateMutability": "view",
      "type": "function"
    },
    {
      "inputs": [
        {
          "internalType": "string",
          "name": "name",
          "type": "string"
        },
        {
          "internalType": "string",
          "name": "category",
          "type": "string"
        },
        {
          "internalType": "uint256",
          "name": "rewardPricePercentage",
          "type": "uint256"
        },
        {
          "internalType": "uint256[][]",
          "name": "rewardMilestones",
          "type": "uint256[][]"
        }
      ],
      "name": "registerBrand",
      "outputs": [],
      "stateMutability": "payable",
      "type": "function"
    },
    {
      "inputs": [
        {
          "internalType": "string",
          "name": "name",
          "type": "string"
        },
        {
          "internalType": "string",
          "name": "_referral",
          "type": "string"
        }
      ],
      "name": "registerUser",
      "outputs": [],
      "stateMutability": "nonpayable",
      "type": "function"
    },
    {
      "inputs": [
        {
          "internalType": "address",
          "name": "account",
          "type": "address"
        }
      ],
      "name": "showBalance",
      "outputs": [
        {
          "internalType": "uint256",
          "name": "",
          "type": "uint256"
        }
      ],
      "stateMutability": "view",
      "type": "function"
    },
    {
      "inputs": [
        {
          "internalType": "string",
          "name": "brandId",
          "type": "string"
        },
        {
          "internalType": "string",
          "name": "productId",
          "type": "string"
        }
      ],
      "name": "showBrandProductDetails",
      "outputs": [
        {
          "components": [
            {
              "internalType": "string",
              "name": "id",
              "type": "string"
            },
            {
              "internalType": "string",
              "name": "name",
              "type": "string"
            },
            {
              "internalType": "string",
              "name": "category",
              "type": "string"
            },
            {
              "internalType": "uint256",
              "name": "price",
              "type": "uint256"
            },
            {
              "internalType": "bool",
              "name": "available",
              "type": "bool"
            }
          ],
          "internalType": "struct FlipKart.Product",
          "name": "",
          "type": "tuple"
        }
      ],
      "stateMutability": "view",
      "type": "function"
    },
    {
      "inputs": [
        {
          "internalType": "string",
          "name": "brandId",
          "type": "string"
        }
      ],
      "name": "showBrandProducts",
      "outputs": [
        {
          "components": [
            {
              "internalType": "string",
              "name": "id",
              "type": "string"
            },
            {
              "internalType": "string",
              "name": "name",
              "type": "string"
            },
            {
              "internalType": "string",
              "name": "category",
              "type": "string"
            },
            {
              "internalType": "uint256",
              "name": "price",
              "type": "uint256"
            },
            {
              "internalType": "bool",
              "name": "available",
              "type": "bool"
            }
          ],
          "internalType": "struct FlipKart.Product[]",
          "name": "",
          "type": "tuple[]"
        }
      ],
      "stateMutability": "view",
      "type": "function"
    },
    {
      "inputs": [
        {
          "internalType": "address",
          "name": "account",
          "type": "address"
        }
      ],
      "name": "showUserPurchaseHistory",
      "outputs": [
        {
          "components": [
            {
              "internalType": "string",
              "name": "id",
              "type": "string"
            },
            {
              "internalType": "string",
              "name": "brandId",
              "type": "string"
            },
            {
              "internalType": "string",
              "name": "productId",
              "type": "string"
            },
            {
              "internalType": "string",
              "name": "userId",
              "type": "string"
            },
            {
              "internalType": "uint256",
              "name": "expenditure",
              "type": "uint256"
            },
            {
              "internalType": "uint256",
              "name": "tokensRedeemed",
              "type": "uint256"
            },
            {
              "internalType": "string",
              "name": "rewardRedeemed",
              "type": "string"
            }
          ],
          "internalType": "struct FlipKart.UserTransaction[]",
          "name": "",
          "type": "tuple[]"
        }
      ],
      "stateMutability": "view",
      "type": "function"
    },
    {
      "inputs": [
        {
          "internalType": "address",
          "name": "",
          "type": "address"
        }
      ],
      "name": "userDetails",
      "outputs": [
        {
          "internalType": "string",
          "name": "id",
          "type": "string"
        },
        {
          "internalType": "string",
          "name": "name",
          "type": "string"
        },
        {
          "internalType": "address",
          "name": "account",
          "type": "address"
        },
        {
          "internalType": "string",
          "name": "referralCode",
          "type": "string"
        }
      ],
      "stateMutability": "view",
      "type": "function"
    }
  ],
  "bytecode": "0x60806040523480156200001157600080fd5b5060405162007798380380620077988339818101604052810190620000379190620000d6565b6040516200004590620000b1565b604051809103906000f08015801562000062573d6000803e3d6000fd5b50600b60006101000a81548173ffffffffffffffffffffffffffffffffffffffff021916908373ffffffffffffffffffffffffffffffffffffffff16021790555080600c819055505062000126565b611b008062005c9883390190565b600081519050620000d0816200010c565b92915050565b600060208284031215620000e957600080fd5b6000620000f984828501620000bf565b91505092915050565b6000819050919050565b620001178162000102565b81146200012357600080fd5b50565b615b6280620001366000396000f3fe6080604052600436106100f35760003560e01c80636f85e62c1161008a578063d7fe9ef111610059578063d7fe9ef11461032e578063dac119631461036b578063e7d4b3fd146103a8578063fdcb5732146103d1576100f3565b80636f85e62c1461026b5780638165fed5146102875780639623cfb2146102b05780639c080f5d146102f1576100f3565b80632da39105116100c65780632da39105146101b057806335ac9baa146101f357806348dec2a71461020f57806355008c181461024f576100f3565b8063188d030c146100f85780631d2e4afd14610121578063296b74541461014a5780632ce2281014610187575b600080fd5b34801561010457600080fd5b5061011f600480360381019061011a9190614803565b61040e565b005b34801561012d57600080fd5b5061014860048036038101906101439190614844565b610901565b005b34801561015657600080fd5b50610171600480360381019061016c9190614844565b610ebc565b60405161017e9190615505565b60405180910390f35b34801561019357600080fd5b506101ae60048036038101906101a99190614ab1565b6110ec565b005b3480156101bc57600080fd5b506101d760048036038101906101d29190614803565b6112f9565b6040516101ea97969594939291906153f9565b60405180910390f35b61020d60048036038101906102089190614a06565b611516565b005b34801561021b57600080fd5b50610236600480360381019061023191906147b1565b61186e565b604051610246949392919061539f565b60405180910390f35b610269600480360381019061026491906148b0565b611a56565b005b61028560048036038101906102809190614803565b612ff1565b005b34801561029357600080fd5b506102ae60048036038101906102a9919061495b565b6131d0565b005b3480156102bc57600080fd5b506102d760048036038101906102d29190614844565b613448565b6040516102e895949392919061547d565b60405180910390f35b3480156102fd57600080fd5b50610318600480360381019061031391906147b1565b61365c565b6040516103259190615527565b60405180910390f35b34801561033a57600080fd5b5061035560048036038101906103509190614803565b613710565b6040516103629190615303565b60405180910390f35b34801561037757600080fd5b50610392600480360381019061038d91906147b1565b61396b565b60405161039f9190615325565b60405180910390f35b3480156103b457600080fd5b506103cf60048036038101906103ca9190614b05565b613cfa565b005b3480156103dd57600080fd5b506103f860048036038101906103f39190614b80565b613eff565b604051610405919061537d565b60405180910390f35b6000151560098260405161042291906150d6565b9081526020016040518091039020600460003373ffffffffffffffffffffffffffffffffffffffff1673ffffffffffffffffffffffffffffffffffffffff16815260200190815260200160002060000160405161047f9190615176565b908152602001604051809103902060009054906101000a900460ff161515146104a757600080fd5b600060405180604001604052808381526020016104c2613fab565b81525090506001600a600460003373ffffffffffffffffffffffffffffffffffffffff1673ffffffffffffffffffffffffffffffffffffffff16815260200190815260200160002060000160405161051a9190615176565b9081526020016040518091039020826020015160405161053a91906150d6565b908152602001604051809103902060006101000a81548160ff021916908315150217905550816008826020015160405161057491906150d6565b908152602001604051809103902090805190602001906105959291906143fd565b50600460003373ffffffffffffffffffffffffffffffffffffffff1673ffffffffffffffffffffffffffffffffffffffff168152602001908152602001600020600401819080600181540180825580915050600190039060005260206000209060020201600090919091909150600082015181600001908051906020019061061e9291906143fd565b50602082015181600101908051906020019061063b9291906143fd565b505050600160098360405161065091906150d6565b9081526020016040518091039020600460003373ffffffffffffffffffffffffffffffffffffffff1673ffffffffffffffffffffffffffffffffffffffff1681526020019081526020016000206000016040516106ad9190615176565b908152602001604051809103902060006101000a81548160ff021916908315150217905550600b60009054906101000a900473ffffffffffffffffffffffffffffffffffffffff1673ffffffffffffffffffffffffffffffffffffffff1663095ea7b333670de0b6b3a764000060078660405161072a91906150d6565b9081526020016040518091039020600401546107469190615778565b6040518363ffffffff1660e01b81526004016107639291906152da565b602060405180830381600087803b15801561077d57600080fd5b505af1158015610791573d6000803e3d6000fd5b505050506040513d601f19601f820116820180604052508101906107b591906147da565b50600b60009054906101000a900473ffffffffffffffffffffffffffffffffffffffff1673ffffffffffffffffffffffffffffffffffffffff166323b872dd33600160078660405161080791906150d6565b90815260200160405180910390206001016040516108259190615176565b908152602001604051809103902060030160009054906101000a900473ffffffffffffffffffffffffffffffffffffffff16670de0b6b3a764000060078760405161087091906150d6565b90815260200160405180910390206004015461088c9190615778565b6040518463ffffffff1660e01b81526004016108aa93929190615251565b602060405180830381600087803b1580156108c457600080fd5b505af11580156108d8573d6000803e3d6000fd5b505050506040513d601f19601f820116820180604052508101906108fc91906147da565b505050565b600073ffffffffffffffffffffffffffffffffffffffff16600460003373ffffffffffffffffffffffffffffffffffffffff1673ffffffffffffffffffffffffffffffffffffffff16815260200190815260200160002060020160009054906101000a900473ffffffffffffffffffffffffffffffffffffffff1673ffffffffffffffffffffffffffffffffffffffff161461099c57600080fd5b600073ffffffffffffffffffffffffffffffffffffffff166001600260003373ffffffffffffffffffffffffffffffffffffffff1673ffffffffffffffffffffffffffffffffffffffff168152602001908152602001600020604051610a029190615176565b908152602001604051809103902060030160009054906101000a900473ffffffffffffffffffffffffffffffffffffffff1673ffffffffffffffffffffffffffffffffffffffff1614610a5457600080fd5b6000610a8a33604051602001610a6a91906150bb565b6040516020818303038152906040528051906020012060001c6020614103565b905080600460003373ffffffffffffffffffffffffffffffffffffffff1673ffffffffffffffffffffffffffffffffffffffff1681526020019081526020016000206000019080519060200190610ae29291906143fd565b5082600460003373ffffffffffffffffffffffffffffffffffffffff1673ffffffffffffffffffffffffffffffffffffffff1681526020019081526020016000206001019080519060200190610b399291906143fd565b5033600460003373ffffffffffffffffffffffffffffffffffffffff1673ffffffffffffffffffffffffffffffffffffffff16815260200190815260200160002060020160006101000a81548173ffffffffffffffffffffffffffffffffffffffff021916908373ffffffffffffffffffffffffffffffffffffffff160217905550610bc3613fab565b600460003373ffffffffffffffffffffffffffffffffffffffff1673ffffffffffffffffffffffffffffffffffffffff1681526020019081526020016000206005019080519060200190610c189291906143fd565b50336006600460003373ffffffffffffffffffffffffffffffffffffffff1673ffffffffffffffffffffffffffffffffffffffff168152602001908152602001600020600501604051610c6b9190615176565b908152602001604051809103902060006101000a81548173ffffffffffffffffffffffffffffffffffffffff021916908373ffffffffffffffffffffffffffffffffffffffff160217905550600073ffffffffffffffffffffffffffffffffffffffff16600683604051610cdf91906150d6565b908152602001604051809103902060009054906101000a900473ffffffffffffffffffffffffffffffffffffffff1673ffffffffffffffffffffffffffffffffffffffff1614610eb757600b60009054906101000a900473ffffffffffffffffffffffffffffffffffffffff1673ffffffffffffffffffffffffffffffffffffffff1663a0712d686802b5e3af16b18800006040518263ffffffff1660e01b8152600401610d8d9190615362565b600060405180830381600087803b158015610da757600080fd5b505af1158015610dbb573d6000803e3d6000fd5b50505050600b60009054906101000a900473ffffffffffffffffffffffffffffffffffffffff1673ffffffffffffffffffffffffffffffffffffffff1663a9059cbb600684604051610e0d91906150d6565b908152602001604051809103902060009054906101000a900473ffffffffffffffffffffffffffffffffffffffff166802b5e3af16b18800006040518363ffffffff1660e01b8152600401610e639291906152b1565b602060405180830381600087803b158015610e7d57600080fd5b505af1158015610e91573d6000803e3d6000fd5b505050506040513d601f19601f82011682018060405250810190610eb591906147da565b505b505050565b610ec4614483565b600383604051610ed491906150d6565b908152602001604051809103902082604051610ef091906150d6565b90815260200160405180910390206040518060a0016040529081600082018054610f1990615933565b80601f0160208091040260200160405190810160405280929190818152602001828054610f4590615933565b8015610f925780601f10610f6757610100808354040283529160200191610f92565b820191906000526020600020905b815481529060010190602001808311610f7557829003601f168201915b50505050508152602001600182018054610fab90615933565b80601f0160208091040260200160405190810160405280929190818152602001828054610fd790615933565b80156110245780601f10610ff957610100808354040283529160200191611024565b820191906000526020600020905b81548152906001019060200180831161100757829003601f168201915b5050505050815260200160028201805461103d90615933565b80601f016020809104026020016040519081016040528092919081815260200182805461106990615933565b80156110b65780601f1061108b576101008083540402835291602001916110b6565b820191906000526020600020905b81548152906001019060200180831161109957829003601f168201915b50505050508152602001600382015481526020016004820160009054906101000a900460ff161515151581525050905092915050565b3373ffffffffffffffffffffffffffffffffffffffff1660018360405161111391906150d6565b908152602001604051809103902060030160009054906101000a900473ffffffffffffffffffffffffffffffffffffffff1673ffffffffffffffffffffffffffffffffffffffff161461116557600080fd5b6000670de0b6b3a76400008261117b9190615778565b90506111c760018460405161119091906150d6565b908152602001604051809103902060030160009054906101000a900473ffffffffffffffffffffffffffffffffffffffff1661365c565b8111156111d357600080fd5b600b60009054906101000a900473ffffffffffffffffffffffffffffffffffffffff1673ffffffffffffffffffffffffffffffffffffffff1663095ea7b333836040518363ffffffff1660e01b81526004016112309291906152da565b602060405180830381600087803b15801561124a57600080fd5b505af115801561125e573d6000803e3d6000fd5b505050506040513d601f19601f8201168201806040525081019061128291906147da565b506001808460405161129491906150d6565b908152602001604051809103902060060160006101000a81548160ff021916908315150217905550806001846040516112cd91906150d6565b908152602001604051809103902060070160008282546112ed91906156ba565b92505081905550505050565b60018180516020810182018051848252602083016020850120818352809550505050505060009150905080600001805461133290615933565b80601f016020809104026020016040519081016040528092919081815260200182805461135e90615933565b80156113ab5780601f10611380576101008083540402835291602001916113ab565b820191906000526020600020905b81548152906001019060200180831161138e57829003601f168201915b5050505050908060010180546113c090615933565b80601f01602080910402602001604051908101604052809291908181526020018280546113ec90615933565b80156114395780601f1061140e57610100808354040283529160200191611439565b820191906000526020600020905b81548152906001019060200180831161141c57829003601f168201915b50505050509080600201805461144e90615933565b80601f016020809104026020016040519081016040528092919081815260200182805461147a90615933565b80156114c75780601f1061149c576101008083540402835291602001916114c7565b820191906000526020600020905b8154815290600101906020018083116114aa57829003601f168201915b5050505050908060030160009054906101000a900473ffffffffffffffffffffffffffffffffffffffff16908060060160009054906101000a900460ff16908060070154908060080154905087565b67015c2a7b13fd0000341461152a57600080fd5b600061156285336040516020016115429291906150ed565b6040516020818303038152906040528051906020012060001c6020614103565b90503373ffffffffffffffffffffffffffffffffffffffff1660018260405161158b91906150d6565b908152602001604051809103902060030160009054906101000a900473ffffffffffffffffffffffffffffffffffffffff1673ffffffffffffffffffffffffffffffffffffffff1614156115de57600080fd5b600073ffffffffffffffffffffffffffffffffffffffff16600460003373ffffffffffffffffffffffffffffffffffffffff1673ffffffffffffffffffffffffffffffffffffffff16815260200190815260200160002060020160009054906101000a900473ffffffffffffffffffffffffffffffffffffffff1673ffffffffffffffffffffffffffffffffffffffff161461167957600080fd5b6000819080600181540180825580915050600190039060005260206000200160009091909190915090805190602001906116b49291906143fd565b50806001826040516116c691906150d6565b908152602001604051809103902060000190805190602001906116ea9291906143fd565b50846001826040516116fc91906150d6565b908152602001604051809103902060010190805190602001906117209291906143fd565b508360018260405161173291906150d6565b908152602001604051809103902060020190805190602001906117569291906143fd565b503360018260405161176891906150d6565b908152602001604051809103902060030160006101000a81548173ffffffffffffffffffffffffffffffffffffffff021916908373ffffffffffffffffffffffffffffffffffffffff160217905550826001826040516117c891906150d6565b908152602001604051809103902060080181905550816001826040516117ee91906150d6565b908152602001604051809103902060090190805190602001906118129291906144b4565b5080600260003373ffffffffffffffffffffffffffffffffffffffff1673ffffffffffffffffffffffffffffffffffffffff16815260200190815260200160002090805190602001906118669291906143fd565b505050505050565b600460205280600052604060002060009150905080600001805461189190615933565b80601f01602080910402602001604051908101604052809291908181526020018280546118bd90615933565b801561190a5780601f106118df5761010080835404028352916020019161190a565b820191906000526020600020905b8154815290600101906020018083116118ed57829003601f168201915b50505050509080600101805461191f90615933565b80601f016020809104026020016040519081016040528092919081815260200182805461194b90615933565b80156119985780601f1061196d57610100808354040283529160200191611998565b820191906000526020600020905b81548152906001019060200180831161197b57829003601f168201915b5050505050908060020160009054906101000a900473ffffffffffffffffffffffffffffffffffffffff16908060050180546119d390615933565b80601f01602080910402602001604051908101604052809291908181526020018280546119ff90615933565b8015611a4c5780601f10611a2157610100808354040283529160200191611a4c565b820191906000526020600020905b815481529060010190602001808311611a2f57829003601f168201915b5050505050905084565b3373ffffffffffffffffffffffffffffffffffffffff16600460003373ffffffffffffffffffffffffffffffffffffffff1673ffffffffffffffffffffffffffffffffffffffff16815260200190815260200160002060020160009054906101000a900473ffffffffffffffffffffffffffffffffffffffff1673ffffffffffffffffffffffffffffffffffffffff1614611af057600080fd5b600073ffffffffffffffffffffffffffffffffffffffff16600185604051611b1891906150d6565b908152602001604051809103902060030160009054906101000a900473ffffffffffffffffffffffffffffffffffffffff1673ffffffffffffffffffffffffffffffffffffffff161415611b6b57600080fd5b600384604051611b7b91906150d6565b908152602001604051809103902083604051611b9791906150d6565b908152602001604051809103902060040160009054906101000a900460ff16611bbf57600080fd5b60008060606000600188604051611bd691906150d6565b908152602001604051809103902090508515611d00576000611bf73361365c565b90506000600c546002611c0a9190615778565b670de0b6b3a764000060038c604051611c2391906150d6565b90815260200160405180910390208b604051611c3f91906150d6565b908152602001604051809103902060030154611c5b9190615778565b611c659190615747565b905080821015611c8a57670de0b6b3a764000082611c839190615747565b9450611ca1565b670de0b6b3a764000081611c9e9190615747565b94505b600c5485611caf9190615778565b60038b604051611cbf91906150d6565b90815260200160405180910390208a604051611cdb91906150d6565b908152602001604051809103902060030154611cf791906157d2565b95505050611d45565b600388604051611d1091906150d6565b908152602001604051809103902087604051611d2c91906150d6565b9081526020016040518091039020600301549350600092505b60011515600a600460003373ffffffffffffffffffffffffffffffffffffffff1673ffffffffffffffffffffffffffffffffffffffff168152602001908152602001600020600001604051611d9a9190615176565b908152602001604051809103902086604051611db691906150d6565b908152602001604051809103902060009054906101000a900460ff1615151415611fcf5760006007600887604051611dee91906150d6565b9081526020016040518091039020604051611e099190615176565b90815260200160405180910390206040518060a0016040529081600082018054611e3290615933565b80601f0160208091040260200160405190810160405280929190818152602001828054611e5e90615933565b8015611eab5780601f10611e8057610100808354040283529160200191611eab565b820191906000526020600020905b815481529060010190602001808311611e8e57829003601f168201915b50505050508152602001600182018054611ec490615933565b80601f0160208091040260200160405190810160405280929190818152602001828054611ef090615933565b8015611f3d5780601f10611f1257610100808354040283529160200191611f3d565b820191906000526020600020905b815481529060010190602001808311611f2057829003601f168201915b505050505081526020016002820154815260200160038201548152602001600482015481525050905080606001516064868360400151611f7d9190615778565b611f879190615747565b11611fba576064858260400151611f9e9190615778565b611fa89190615747565b85611fb391906157d2565b9450611fcd565b806060015185611fca91906157d2565b94505b505b833414611fdb57600080fd5b60011515600a600460003373ffffffffffffffffffffffffffffffffffffffff1673ffffffffffffffffffffffffffffffffffffffff1681526020019081526020016000206000016040516120309190615176565b90815260200160405180910390208660405161204c91906150d6565b908152602001604051809103902060009054906101000a900460ff16151514156121ce576000600a600460003373ffffffffffffffffffffffffffffffffffffffff1673ffffffffffffffffffffffffffffffffffffffff1681526020019081526020016000206000016040516120c39190615176565b9081526020016040518091039020866040516120df91906150d6565b908152602001604051809103902060006101000a81548160ff021916908315150217905550600760088660405161211691906150d6565b90815260200160405180910390206040516121319190615176565b9081526020016040518091039020600001805461214d90615933565b80601f016020809104026020016040519081016040528092919081815260200182805461217990615933565b80156121c65780601f1061219b576101008083540402835291602001916121c6565b820191906000526020600020905b8154815290600101906020018083116121a957829003601f168201915b505050505091505b6000600a856121dd9190615747565b90508160030160009054906101000a900473ffffffffffffffffffffffffffffffffffffffff1673ffffffffffffffffffffffffffffffffffffffff166108fc823461222991906157d2565b9081150290604051600060405180830381858888f19350505050158015612254573d6000803e3d6000fd5b50846005600460003373ffffffffffffffffffffffffffffffffffffffff1673ffffffffffffffffffffffffffffffffffffffff1681526020019081526020016000206000016040516122a79190615176565b90815260200160405180910390208a6040516122c391906150d6565b908152602001604051809103902060008282546122e091906156ba565b9250508190555060006040518060e0016040528061236d600460003373ffffffffffffffffffffffffffffffffffffffff1673ffffffffffffffffffffffffffffffffffffffff1681526020019081526020016000206000018c4260405160200161234d9392919061518d565b6040516020818303038152906040528051906020012060001c6020614103565b81526020018b81526020018a8152602001600460003373ffffffffffffffffffffffffffffffffffffffff1673ffffffffffffffffffffffffffffffffffffffff16815260200190815260200160002060000180546123cb90615933565b80601f01602080910402602001604051908101604052809291908181526020018280546123f790615933565b80156124445780601f1061241957610100808354040283529160200191612444565b820191906000526020600020905b81548152906001019060200180831161242757829003601f168201915b50505050508152602001348152602001868152602001858152509050600460003373ffffffffffffffffffffffffffffffffffffffff1673ffffffffffffffffffffffffffffffffffffffff16815260200190815260200160002060030181908060018154018082558091505060019003906000526020600020906007020160009091909190915060008201518160000190805190602001906124e89291906143fd565b5060208201518160010190805190602001906125059291906143fd565b5060408201518160020190805190602001906125229291906143fd565b50606082015181600301908051906020019061253f9291906143fd565b506080820151816004015560a0820151816005015560c08201518160060190805190602001906125709291906143fd565b505050600b60009054906101000a900473ffffffffffffffffffffffffffffffffffffffff1673ffffffffffffffffffffffffffffffffffffffff1663095ea7b333670de0b6b3a7640000886125c69190615778565b6040518363ffffffff1660e01b81526004016125e39291906152da565b602060405180830381600087803b1580156125fd57600080fd5b505af1158015612611573d6000803e3d6000fd5b505050506040513d601f19601f8201168201806040525081019061263591906147da565b50600b60009054906101000a900473ffffffffffffffffffffffffffffffffffffffff1673ffffffffffffffffffffffffffffffffffffffff166323b872dd338560030160009054906101000a900473ffffffffffffffffffffffffffffffffffffffff16670de0b6b3a7640000896126ae9190615778565b6040518463ffffffff1660e01b81526004016126cc93929190615251565b602060405180830381600087803b1580156126e657600080fd5b505af11580156126fa573d6000803e3d6000fd5b505050506040513d601f19601f8201168201806040525081019061271e91906147da565b506001600460003373ffffffffffffffffffffffffffffffffffffffff1673ffffffffffffffffffffffffffffffffffffffff1681526020019081526020016000206003018054905014156128bd57600b60009054906101000a900473ffffffffffffffffffffffffffffffffffffffff1673ffffffffffffffffffffffffffffffffffffffff1663a0712d6868056bc75e2d631000006040518263ffffffff1660e01b81526004016127d19190615347565b600060405180830381600087803b1580156127eb57600080fd5b505af11580156127ff573d6000803e3d6000fd5b50505050600b60009054906101000a900473ffffffffffffffffffffffffffffffffffffffff1673ffffffffffffffffffffffffffffffffffffffff1663a9059cbb3368056bc75e2d631000006040518363ffffffff1660e01b8152600401612869929190615288565b602060405180830381600087803b15801561288357600080fd5b505af1158015612897573d6000803e3d6000fd5b505050506040513d601f19601f820116820180604052508101906128bb91906147da565b505b6000600c5460056128ce9190615778565b670de0b6b3a7640000886128e29190615778565b6128ec9190615747565b9050600b60009054906101000a900473ffffffffffffffffffffffffffffffffffffffff1673ffffffffffffffffffffffffffffffffffffffff1663a0712d68826040518263ffffffff1660e01b81526004016129499190615527565b600060405180830381600087803b15801561296357600080fd5b505af1158015612977573d6000803e3d6000fd5b50505050600b60009054906101000a900473ffffffffffffffffffffffffffffffffffffffff1673ffffffffffffffffffffffffffffffffffffffff1663a9059cbb33836040518363ffffffff1660e01b81526004016129d89291906152da565b602060405180830381600087803b1580156129f257600080fd5b505af1158015612a06573d6000803e3d6000fd5b505050506040513d601f19601f82011682018060405250810190612a2a91906147da565b5060006005600460003373ffffffffffffffffffffffffffffffffffffffff1673ffffffffffffffffffffffffffffffffffffffff168152602001908152602001600020600001604051612a7e9190615176565b90815260200160405180910390208c604051612a9a91906150d6565b90815260200160405180910390205490508460060160009054906101000a900460ff168015612acd575060008560070154115b15612fe35760005b8560090180549050811015612fe157856009018181548110612b20577f4e487b7100000000000000000000000000000000000000000000000000000000600052603260045260246000fd5b90600052602060002001600081548110612b63577f4e487b7100000000000000000000000000000000000000000000000000000000600052603260045260246000fd5b906000526020600020015482118015612c9957506000866009018281548110612bb5577f4e487b7100000000000000000000000000000000000000000000000000000000600052603260045260246000fd5b90600052602060002001600181548110612bf8577f4e487b7100000000000000000000000000000000000000000000000000000000600052603260045260246000fd5b90600052602060002001541480612c985750856009018181548110612c46577f4e487b7100000000000000000000000000000000000000000000000000000000600052603260045260246000fd5b90600052602060002001600181548110612c89577f4e487b7100000000000000000000000000000000000000000000000000000000600052603260045260246000fd5b90600052602060002001548211155b5b15612fce576000600c546064612caf9190615778565b670de0b6b3a7640000886009018481548110612cf4577f4e487b7100000000000000000000000000000000000000000000000000000000600052603260045260246000fd5b90600052602060002001600281548110612d37577f4e487b7100000000000000000000000000000000000000000000000000000000600052603260045260246000fd5b906000526020600020015489600801548d612d529190615778565b612d5c9190615778565b612d669190615778565b612d709190615747565b905080876007015411612ebd57600b60009054906101000a900473ffffffffffffffffffffffffffffffffffffffff1673ffffffffffffffffffffffffffffffffffffffff166323b872dd8860030160009054906101000a900473ffffffffffffffffffffffffffffffffffffffff16338a600701546040518463ffffffff1660e01b8152600401612e049392919061521a565b602060405180830381600087803b158015612e1e57600080fd5b505af1158015612e32573d6000803e3d6000fd5b505050506040513d601f19601f82011682018060405250810190612e5691906147da565b50600060018f604051612e6991906150d6565b908152602001604051809103902060070181905550600060018f604051612e9091906150d6565b908152602001604051809103902060060160006101000a81548160ff021916908315150217905550612fcc565b600b60009054906101000a900473ffffffffffffffffffffffffffffffffffffffff1673ffffffffffffffffffffffffffffffffffffffff166323b872dd8860030160009054906101000a900473ffffffffffffffffffffffffffffffffffffffff1633846040518463ffffffff1660e01b8152600401612f409392919061521a565b602060405180830381600087803b158015612f5a57600080fd5b505af1158015612f6e573d6000803e3d6000fd5b505050506040513d601f19601f82011682018060405250810190612f9291906147da565b508060018f604051612fa491906150d6565b90815260200160405180910390206007016000828254612fc491906157d2565b925050819055505b505b8080612fd990615965565b915050612ad5565b505b505050505050505050505050565b3373ffffffffffffffffffffffffffffffffffffffff1660018260405161301891906150d6565b908152602001604051809103902060030160009054906101000a900473ffffffffffffffffffffffffffffffffffffffff1673ffffffffffffffffffffffffffffffffffffffff161461306a57600080fd5b6000600c54670de0b6b3a7640000346130839190615778565b61308d9190615747565b9050600b60009054906101000a900473ffffffffffffffffffffffffffffffffffffffff1673ffffffffffffffffffffffffffffffffffffffff1663a0712d68826040518263ffffffff1660e01b81526004016130ea9190615527565b600060405180830381600087803b15801561310457600080fd5b505af1158015613118573d6000803e3d6000fd5b50505050600b60009054906101000a900473ffffffffffffffffffffffffffffffffffffffff1673ffffffffffffffffffffffffffffffffffffffff1663a9059cbb33836040518363ffffffff1660e01b81526004016131799291906152da565b602060405180830381600087803b15801561319357600080fd5b505af11580156131a7573d6000803e3d6000fd5b505050506040513d601f19601f820116820180604052508101906131cb91906147da565b505050565b3373ffffffffffffffffffffffffffffffffffffffff166001856040516131f791906150d6565b908152602001604051809103902060030160009054906101000a900473ffffffffffffffffffffffffffffffffffffffff1673ffffffffffffffffffffffffffffffffffffffff161461324957600080fd5b600061328384334260405160200161326393929190615115565b6040516020818303038152906040528051906020012060001c6020614103565b905060006040518060a001604052808381526020018681526020018581526020018481526020016001151581525090506001866040516132c391906150d6565b9081526020016040518091039020600401819080600181540180825580915050600190039060005260206000209060050201600090919091909150600082015181600001908051906020019061331a9291906143fd565b5060208201518160010190805190602001906133379291906143fd565b5060408201518160020190805190602001906133549291906143fd565b506060820151816003015560808201518160040160006101000a81548160ff02191690831515021790555050508060038760405161339291906150d6565b9081526020016040518091039020836040516133ae91906150d6565b908152602001604051809103902060008201518160000190805190602001906133d89291906143fd565b5060208201518160010190805190602001906133f59291906143fd565b5060408201518160020190805190602001906134129291906143fd565b506060820151816003015560808201518160040160006101000a81548160ff021916908315150217905550905050505050505050565b60038280516020810182018051848252602083016020850120818352809550505050505081805160208101820180518482526020830160208501208183528095505050505050600091509150508060000180546134a490615933565b80601f01602080910402602001604051908101604052809291908181526020018280546134d090615933565b801561351d5780601f106134f25761010080835404028352916020019161351d565b820191906000526020600020905b81548152906001019060200180831161350057829003601f168201915b50505050509080600101805461353290615933565b80601f016020809104026020016040519081016040528092919081815260200182805461355e90615933565b80156135ab5780601f10613580576101008083540402835291602001916135ab565b820191906000526020600020905b81548152906001019060200180831161358e57829003601f168201915b5050505050908060020180546135c090615933565b80601f01602080910402602001604051908101604052809291908181526020018280546135ec90615933565b80156136395780601f1061360e57610100808354040283529160200191613639565b820191906000526020600020905b81548152906001019060200180831161361c57829003601f168201915b5050505050908060030154908060040160009054906101000a900460ff16905085565b6000600b60009054906101000a900473ffffffffffffffffffffffffffffffffffffffff1673ffffffffffffffffffffffffffffffffffffffff166370a08231836040518263ffffffff1660e01b81526004016136b991906151ff565b60206040518083038186803b1580156136d157600080fd5b505afa1580156136e5573d6000803e3d6000fd5b505050506040513d601f19601f820116820180604052508101906137099190614ba9565b9050919050565b606060018260405161372291906150d6565b9081526020016040518091039020600401805480602002602001604051908101604052809291908181526020016000905b8282101561396057838290600052602060002090600502016040518060a001604052908160008201805461378690615933565b80601f01602080910402602001604051908101604052809291908181526020018280546137b290615933565b80156137ff5780601f106137d4576101008083540402835291602001916137ff565b820191906000526020600020905b8154815290600101906020018083116137e257829003601f168201915b5050505050815260200160018201805461381890615933565b80601f016020809104026020016040519081016040528092919081815260200182805461384490615933565b80156138915780601f1061386657610100808354040283529160200191613891565b820191906000526020600020905b81548152906001019060200180831161387457829003601f168201915b505050505081526020016002820180546138aa90615933565b80601f01602080910402602001604051908101604052809291908181526020018280546138d690615933565b80156139235780601f106138f857610100808354040283529160200191613923565b820191906000526020600020905b81548152906001019060200180831161390657829003601f168201915b50505050508152602001600382015481526020016004820160009054906101000a900460ff16151515158152505081526020019060010190613753565b505050509050919050565b6060600460008373ffffffffffffffffffffffffffffffffffffffff1673ffffffffffffffffffffffffffffffffffffffff168152602001908152602001600020600301805480602002602001604051908101604052809291908181526020016000905b82821015613cef57838290600052602060002090600702016040518060e0016040529081600082018054613a0290615933565b80601f0160208091040260200160405190810160405280929190818152602001828054613a2e90615933565b8015613a7b5780601f10613a5057610100808354040283529160200191613a7b565b820191906000526020600020905b815481529060010190602001808311613a5e57829003601f168201915b50505050508152602001600182018054613a9490615933565b80601f0160208091040260200160405190810160405280929190818152602001828054613ac090615933565b8015613b0d5780601f10613ae257610100808354040283529160200191613b0d565b820191906000526020600020905b815481529060010190602001808311613af057829003601f168201915b50505050508152602001600282018054613b2690615933565b80601f0160208091040260200160405190810160405280929190818152602001828054613b5290615933565b8015613b9f5780601f10613b7457610100808354040283529160200191613b9f565b820191906000526020600020905b815481529060010190602001808311613b8257829003601f168201915b50505050508152602001600382018054613bb890615933565b80601f0160208091040260200160405190810160405280929190818152602001828054613be490615933565b8015613c315780601f10613c0657610100808354040283529160200191613c31565b820191906000526020600020905b815481529060010190602001808311613c1457829003601f168201915b505050505081526020016004820154815260200160058201548152602001600682018054613c5e90615933565b80601f0160208091040260200160405190810160405280929190818152602001828054613c8a90615933565b8015613cd75780601f10613cac57610100808354040283529160200191613cd7565b820191906000526020600020905b815481529060010190602001808311613cba57829003601f168201915b505050505081525050815260200190600101906139cf565b505050509050919050565b3373ffffffffffffffffffffffffffffffffffffffff16600185604051613d2191906150d6565b908152602001604051809103902060030160009054906101000a900473ffffffffffffffffffffffffffffffffffffffff1673ffffffffffffffffffffffffffffffffffffffff1614613d7357600080fd5b6000613dab8542604051602001613d8b92919061514e565b6040516020818303038152906040528051906020012060001c6020614103565b905060006040518060a0016040528083815260200187815260200186815260200185815260200184815250905080600783604051613de991906150d6565b90815260200160405180910390206000820151816000019080519060200190613e139291906143fd565b506020820151816001019080519060200190613e309291906143fd565b50604082015181600201556060820151816003015560808201518160040155905050600186604051613e6291906150d6565b90815260200160405180910390206005018190806001815401808255809150506001900390600052602060002090600502016000909190919091506000820151816000019080519060200190613eb99291906143fd565b506020820151816001019080519060200190613ed69291906143fd565b506040820151816002015560608201518160030155608082015181600401555050505050505050565b60008181548110613f0f57600080fd5b906000526020600020016000915090508054613f2a90615933565b80601f0160208091040260200160405190810160405280929190818152602001828054613f5690615933565b8015613fa35780601f10613f7857610100808354040283529160200191613fa3565b820191906000526020600020905b815481529060010190602001808311613f8657829003601f168201915b505050505081565b60606000600667ffffffffffffffff811115613ff0577f4e487b7100000000000000000000000000000000000000000000000000000000600052604160045260246000fd5b6040519080825280601f01601f1916602001820160405280156140225781602001600182028036833780820191505090505b50905060005b60068110156140fb576000600a42448460405160200161404a939291906151c2565b6040516020818303038152906040528051906020012060001c61406d91906159dc565b905080603061407c9190615710565b60f81b8383815181106140b8577f4e487b7100000000000000000000000000000000000000000000000000000000600052603260045260246000fd5b60200101907effffffffffffffffffffffffffffffffffffffffffffffffffffffffffffff1916908160001a9053505080806140f390615965565b915050614028565b508091505090565b6060600060028360026141169190615778565b61412091906156ba565b67ffffffffffffffff81111561415f577f4e487b7100000000000000000000000000000000000000000000000000000000600052604160045260246000fd5b6040519080825280601f01601f1916602001820160405280156141915781602001600182028036833780820191505090505b5090507f3000000000000000000000000000000000000000000000000000000000000000816000815181106141ef577f4e487b7100000000000000000000000000000000000000000000000000000000600052603260045260246000fd5b60200101907effffffffffffffffffffffffffffffffffffffffffffffffffffffffffffff1916908160001a9053507f780000000000000000000000000000000000000000000000000000000000000081600181518110614279577f4e487b7100000000000000000000000000000000000000000000000000000000600052603260045260246000fd5b60200101907effffffffffffffffffffffffffffffffffffffffffffffffffffffffffffff1916908160001a905350600060018460026142b99190615778565b6142c391906156ba565b90505b60018111156143af577f3031323334353637383961626364656600000000000000000000000000000000600f86166010811061432b577f4e487b7100000000000000000000000000000000000000000000000000000000600052603260045260246000fd5b1a60f81b828281518110614368577f4e487b7100000000000000000000000000000000000000000000000000000000600052603260045260246000fd5b60200101907effffffffffffffffffffffffffffffffffffffffffffffffffffffffffffff1916908160001a905350600485901c9450806143a890615909565b90506142c6565b50600084146143f3576040517f08c379a00000000000000000000000000000000000000000000000000000000081526004016143ea906154e5565b60405180910390fd5b8091505092915050565b82805461440990615933565b90600052602060002090601f01602090048101928261442b5760008555614472565b82601f1061444457805160ff1916838001178555614472565b82800160010185558215614472579182015b82811115614471578251825591602001919060010190614456565b5b50905061447f9190614514565b5090565b6040518060a00160405280606081526020016060815260200160608152602001600081526020016000151581525090565b828054828255906000526020600020908101928215614503579160200282015b828111156145025782518290805190602001906144f2929190614531565b50916020019190600101906144d4565b5b509050614510919061457e565b5090565b5b8082111561452d576000816000905550600101614515565b5090565b82805482825590600052602060002090810192821561456d579160200282015b8281111561456c578251825591602001919060010190614551565b5b50905061457a9190614514565b5090565b5b8082111561459e576000818161459591906145a2565b5060010161457f565b5090565b50805460008255906000526020600020908101906145c09190614514565b50565b60006145d66145d184615573565b615542565b9050808382526020820190508260005b8581101561461657813585016145fc8882614709565b8452602084019350602083019250506001810190506145e6565b5050509392505050565b600061463361462e8461559f565b615542565b9050808382526020820190508285602086028201111561465257600080fd5b60005b8581101561468257816146688882614787565b845260208401935060208301925050600181019050614655565b5050509392505050565b600061469f61469a846155cb565b615542565b9050828152602081018484840111156146b757600080fd5b6146c28482856158c7565b509392505050565b6000813590506146d981615ae7565b92915050565b600082601f8301126146f057600080fd5b81356147008482602086016145c3565b91505092915050565b600082601f83011261471a57600080fd5b813561472a848260208601614620565b91505092915050565b60008135905061474281615afe565b92915050565b60008151905061475781615afe565b92915050565b600082601f83011261476e57600080fd5b813561477e84826020860161468c565b91505092915050565b60008135905061479681615b15565b92915050565b6000815190506147ab81615b15565b92915050565b6000602082840312156147c357600080fd5b60006147d1848285016146ca565b91505092915050565b6000602082840312156147ec57600080fd5b60006147fa84828501614748565b91505092915050565b60006020828403121561481557600080fd5b600082013567ffffffffffffffff81111561482f57600080fd5b61483b8482850161475d565b91505092915050565b6000806040838503121561485757600080fd5b600083013567ffffffffffffffff81111561487157600080fd5b61487d8582860161475d565b925050602083013567ffffffffffffffff81111561489a57600080fd5b6148a68582860161475d565b9150509250929050565b600080600080608085870312156148c657600080fd5b600085013567ffffffffffffffff8111156148e057600080fd5b6148ec8782880161475d565b945050602085013567ffffffffffffffff81111561490957600080fd5b6149158782880161475d565b935050604061492687828801614733565b925050606085013567ffffffffffffffff81111561494357600080fd5b61494f8782880161475d565b91505092959194509250565b6000806000806080858703121561497157600080fd5b600085013567ffffffffffffffff81111561498b57600080fd5b6149978782880161475d565b945050602085013567ffffffffffffffff8111156149b457600080fd5b6149c08782880161475d565b935050604085013567ffffffffffffffff8111156149dd57600080fd5b6149e98782880161475d565b92505060606149fa87828801614787565b91505092959194509250565b60008060008060808587031215614a1c57600080fd5b600085013567ffffffffffffffff811115614a3657600080fd5b614a428782880161475d565b945050602085013567ffffffffffffffff811115614a5f57600080fd5b614a6b8782880161475d565b9350506040614a7c87828801614787565b925050606085013567ffffffffffffffff811115614a9957600080fd5b614aa5878288016146df565b91505092959194509250565b60008060408385031215614ac457600080fd5b600083013567ffffffffffffffff811115614ade57600080fd5b614aea8582860161475d565b9250506020614afb85828601614787565b9150509250929050565b60008060008060808587031215614b1b57600080fd5b600085013567ffffffffffffffff811115614b3557600080fd5b614b418782880161475d565b9450506020614b5287828801614787565b9350506040614b6387828801614787565b9250506060614b7487828801614787565b91505092959194509250565b600060208284031215614b9257600080fd5b6000614ba084828501614787565b91505092915050565b600060208284031215614bbb57600080fd5b6000614bc98482850161479c565b91505092915050565b6000614bde8383614ec6565b905092915050565b6000614bf28383614fce565b905092915050565b614c038161586d565b82525050565b614c1281615818565b82525050565b614c2181615806565b82525050565b614c38614c3382615806565b6159ae565b82525050565b6000614c4982615630565b614c53818561566b565b935083602082028501614c65856155fb565b8060005b85811015614ca15784840389528151614c828582614bd2565b9450614c8d83615651565b925060208a01995050600181019050614c69565b50829750879550505050505092915050565b6000614cbe8261563b565b614cc8818561567c565b935083602082028501614cda8561560b565b8060005b85811015614d165784840389528151614cf78582614be6565b9450614d028361565e565b925060208a01995050600181019050614cde565b50829750879550505050505092915050565b614d318161582a565b82525050565b614d408161582a565b82525050565b614d4f8161587f565b82525050565b614d5e81615891565b82525050565b6000614d6f82615646565b614d79818561568d565b9350614d898185602086016158d6565b614d9281615ac9565b840191505092915050565b6000614da882615646565b614db2818561569e565b9350614dc28185602086016158d6565b614dcb81615ac9565b840191505092915050565b6000614de182615646565b614deb81856156af565b9350614dfb8185602086016158d6565b80840191505092915050565b60008154614e1481615933565b614e1e81866156af565b94506001821660008114614e395760018114614e4a57614e7d565b60ff19831686528186019350614e7d565b614e538561561b565b60005b83811015614e7557815481890152600182019150602081019050614e56565b838801955050505b50505092915050565b6000614e9360208361569e565b91507f537472696e67733a20686578206c656e67746820696e73756666696369656e746000830152602082019050919050565b600060a0830160008301518482036000860152614ee38282614d64565b91505060208301518482036020860152614efd8282614d64565b91505060408301518482036040860152614f178282614d64565b9150506060830151614f2c6060860182615086565b506080830151614f3f6080860182614d28565b508091505092915050565b600060a0830160008301518482036000860152614f678282614d64565b91505060208301518482036020860152614f818282614d64565b91505060408301518482036040860152614f9b8282614d64565b9150506060830151614fb06060860182615086565b506080830151614fc36080860182614d28565b508091505092915050565b600060e0830160008301518482036000860152614feb8282614d64565b915050602083015184820360208601526150058282614d64565b9150506040830151848203604086015261501f8282614d64565b915050606083015184820360608601526150398282614d64565b915050608083015161504e6080860182615086565b5060a083015161506160a0860182615086565b5060c083015184820360c08601526150798282614d64565b9150508091505092915050565b61508f81615856565b82525050565b61509e81615856565b82525050565b6150b56150b082615856565b6159d2565b82525050565b60006150c78284614c27565b60148201915081905092915050565b60006150e28284614dd6565b915081905092915050565b60006150f98285614dd6565b91506151058284614c27565b6014820191508190509392505050565b60006151218286614dd6565b915061512d8285614c27565b60148201915061513d82846150a4565b602082019150819050949350505050565b600061515a8285614dd6565b915061516682846150a4565b6020820191508190509392505050565b60006151828284614e07565b915081905092915050565b60006151998286614e07565b91506151a58285614dd6565b91506151b182846150a4565b602082019150819050949350505050565b60006151ce82866150a4565b6020820191506151de82856150a4565b6020820191506151ee82846150a4565b602082019150819050949350505050565b60006020820190506152146000830184614c18565b92915050565b600060608201905061522f6000830186614bfa565b61523c6020830185614c18565b6152496040830184615095565b949350505050565b60006060820190506152666000830186614c18565b6152736020830185614bfa565b6152806040830184615095565b949350505050565b600060408201905061529d6000830185614c18565b6152aa6020830184614d46565b9392505050565b60006040820190506152c66000830185614c18565b6152d36020830184614d55565b9392505050565b60006040820190506152ef6000830185614c18565b6152fc6020830184615095565b9392505050565b6000602082019050818103600083015261531d8184614c3e565b905092915050565b6000602082019050818103600083015261533f8184614cb3565b905092915050565b600060208201905061535c6000830184614d46565b92915050565b60006020820190506153776000830184614d55565b92915050565b600060208201905081810360008301526153978184614d9d565b905092915050565b600060808201905081810360008301526153b98187614d9d565b905081810360208301526153cd8186614d9d565b90506153dc6040830185614c18565b81810360608301526153ee8184614d9d565b905095945050505050565b600060e0820190508181036000830152615413818a614d9d565b905081810360208301526154278189614d9d565b9050818103604083015261543b8188614d9d565b905061544a6060830187614c09565b6154576080830186614d37565b61546460a0830185615095565b61547160c0830184615095565b98975050505050505050565b600060a08201905081810360008301526154978188614d9d565b905081810360208301526154ab8187614d9d565b905081810360408301526154bf8186614d9d565b90506154ce6060830185615095565b6154db6080830184614d37565b9695505050505050565b600060208201905081810360008301526154fe81614e86565b9050919050565b6000602082019050818103600083015261551f8184614f4a565b905092915050565b600060208201905061553c6000830184615095565b92915050565b6000604051905081810181811067ffffffffffffffff8211171561556957615568615a9a565b5b8060405250919050565b600067ffffffffffffffff82111561558e5761558d615a9a565b5b602082029050602081019050919050565b600067ffffffffffffffff8211156155ba576155b9615a9a565b5b602082029050602081019050919050565b600067ffffffffffffffff8211156155e6576155e5615a9a565b5b601f19601f8301169050602081019050919050565b6000819050602082019050919050565b6000819050602082019050919050565b60008190508160005260206000209050919050565b600081519050919050565b600081519050919050565b600081519050919050565b6000602082019050919050565b6000602082019050919050565b600082825260208201905092915050565b600082825260208201905092915050565b600082825260208201905092915050565b600082825260208201905092915050565b600081905092915050565b60006156c582615856565b91506156d083615856565b9250827fffffffffffffffffffffffffffffffffffffffffffffffffffffffffffffffff0382111561570557615704615a0d565b5b828201905092915050565b600061571b82615860565b915061572683615860565b92508260ff0382111561573c5761573b615a0d565b5b828201905092915050565b600061575282615856565b915061575d83615856565b92508261576d5761576c615a3c565b5b828204905092915050565b600061578382615856565b915061578e83615856565b9250817fffffffffffffffffffffffffffffffffffffffffffffffffffffffffffffffff04831182151516156157c7576157c6615a0d565b5b828202905092915050565b60006157dd82615856565b91506157e883615856565b9250828210156157fb576157fa615a0d565b5b828203905092915050565b600061581182615836565b9050919050565b600061582382615836565b9050919050565b60008115159050919050565b600073ffffffffffffffffffffffffffffffffffffffff82169050919050565b6000819050919050565b600060ff82169050919050565b6000615878826158a3565b9050919050565b600061588a82615856565b9050919050565b600061589c82615856565b9050919050565b60006158ae826158b5565b9050919050565b60006158c082615836565b9050919050565b82818337600083830152505050565b60005b838110156158f45780820151818401526020810190506158d9565b83811115615903576000848401525b50505050565b600061591482615856565b9150600082141561592857615927615a0d565b5b600182039050919050565b6000600282049050600182168061594b57607f821691505b6020821081141561595f5761595e615a6b565b5b50919050565b600061597082615856565b91507fffffffffffffffffffffffffffffffffffffffffffffffffffffffffffffffff8214156159a3576159a2615a0d565b5b600182019050919050565b60006159b9826159c0565b9050919050565b60006159cb82615ada565b9050919050565b6000819050919050565b60006159e782615856565b91506159f283615856565b925082615a0257615a01615a3c565b5b828206905092915050565b7f4e487b7100000000000000000000000000000000000000000000000000000000600052601160045260246000fd5b7f4e487b7100000000000000000000000000000000000000000000000000000000600052601260045260246000fd5b7f4e487b7100000000000000000000000000000000000000000000000000000000600052602260045260246000fd5b7f4e487b7100000000000000000000000000000000000000000000000000000000600052604160045260246000fd5b6000601f19601f8301169050919050565b60008160601b9050919050565b615af081615806565b8114615afb57600080fd5b50565b615b078161582a565b8114615b1257600080fd5b50565b615b1e81615856565b8114615b2957600080fd5b5056fea2646970667358221220300d6ed601e7da28d3afdba2e2c57d0a0062b003287f72072b83b9195d79a48d64736f6c6343000800003360806040523480156200001157600080fd5b506040518060400160405280600881526020017f666c6970436f696e0000000000000000000000000000000000000000000000008152506040518060400160405280600281526020017f4650000000000000000000000000000000000000000000000000000000000000815250816003908051906020019062000096929190620001a6565b508060049080519060200190620000af929190620001a6565b505050620000d2620000c6620000d860201b60201c565b620000e060201b60201c565b620002bb565b600033905090565b6000600560009054906101000a900473ffffffffffffffffffffffffffffffffffffffff16905081600560006101000a81548173ffffffffffffffffffffffffffffffffffffffff021916908373ffffffffffffffffffffffffffffffffffffffff1602179055508173ffffffffffffffffffffffffffffffffffffffff168173ffffffffffffffffffffffffffffffffffffffff167f8be0079c531659141344cd1fd0a4f28419497f9722a3daafe3b4186f6b6457e060405160405180910390a35050565b828054620001b49062000256565b90600052602060002090601f016020900481019282620001d8576000855562000224565b82601f10620001f357805160ff191683800117855562000224565b8280016001018555821562000224579182015b828111156200022357825182559160200191906001019062000206565b5b50905062000233919062000237565b5090565b5b808211156200025257600081600090555060010162000238565b5090565b600060028204905060018216806200026f57607f821691505b602082108114156200028657620002856200028c565b5b50919050565b7f4e487b7100000000000000000000000000000000000000000000000000000000600052602260045260246000fd5b61183580620002cb6000396000f3fe608060405234801561001057600080fd5b50600436106100f55760003560e01c8063715018a611610097578063a457c2d711610066578063a457c2d714610276578063a9059cbb146102a6578063dd62ed3e146102d6578063f2fde38b14610306576100f5565b8063715018a6146102145780638da5cb5b1461021e57806395d89b411461023c578063a0712d681461025a576100f5565b806323b872dd116100d357806323b872dd14610166578063313ce5671461019657806339509351146101b457806370a08231146101e4576100f5565b806306fdde03146100fa578063095ea7b31461011857806318160ddd14610148575b600080fd5b610102610322565b60405161010f9190611444565b60405180910390f35b610132600480360381019061012d9190610faa565b6103b4565b60405161013f9190611429565b60405180910390f35b6101506103e0565b60405161015d91906115a6565b60405180910390f35b610180600480360381019061017b9190610f5b565b6103ea565b60405161018d9190611429565b60405180910390f35b61019e610422565b6040516101ab91906115c1565b60405180910390f35b6101ce60048036038101906101c99190610faa565b61042b565b6040516101db9190611429565b60405180910390f35b6101fe60048036038101906101f99190610ef6565b610462565b60405161020b91906115a6565b60405180910390f35b61021c6104aa565b005b6102266104be565b604051610233919061140e565b60405180910390f35b6102446104e8565b6040516102519190611444565b60405180910390f35b610274600480360381019061026f9190610fe6565b61057a565b005b610290600480360381019061028b9190610faa565b6105a2565b60405161029d9190611429565b60405180910390f35b6102c060048036038101906102bb9190610faa565b610619565b6040516102cd9190611429565b60405180910390f35b6102f060048036038101906102eb9190610f1f565b610645565b6040516102fd91906115a6565b60405180910390f35b610320600480360381019061031b9190610ef6565b6106cc565b005b60606003805461033190611730565b80601f016020809104026020016040519081016040528092919081815260200182805461035d90611730565b80156103aa5780601f1061037f576101008083540402835291602001916103aa565b820191906000526020600020905b81548152906001019060200180831161038d57829003601f168201915b5050505050905090565b60006103be610750565b60006103c86107ce565b90506103d58482856107d6565b600191505092915050565b6000600254905090565b60006103f4610750565b60006103fe6107ce565b905061040b8582856109a1565b610416858585610a2d565b60019150509392505050565b60006012905090565b6000806104366107ce565b90506104578185856104488589610645565b61045291906115f8565b6107d6565b600191505092915050565b60008060008373ffffffffffffffffffffffffffffffffffffffff1673ffffffffffffffffffffffffffffffffffffffff168152602001908152602001600020549050919050565b6104b2610750565b6104bc6000610ca5565b565b6000600560009054906101000a900473ffffffffffffffffffffffffffffffffffffffff16905090565b6060600480546104f790611730565b80601f016020809104026020016040519081016040528092919081815260200182805461052390611730565b80156105705780601f1061054557610100808354040283529160200191610570565b820191906000526020600020905b81548152906001019060200180831161055357829003601f168201915b5050505050905090565b610582610750565b61059f33670de0b6b3a76400008361059a919061164e565b610d6b565b50565b6000806105ad6107ce565b905060006105bb8286610645565b905083811015610600576040517f08c379a00000000000000000000000000000000000000000000000000000000081526004016105f790611566565b60405180910390fd5b61060d82868684036107d6565b60019250505092915050565b6000610623610750565b600061062d6107ce565b905061063a818585610a2d565b600191505092915050565b6000600160008473ffffffffffffffffffffffffffffffffffffffff1673ffffffffffffffffffffffffffffffffffffffff16815260200190815260200160002060008373ffffffffffffffffffffffffffffffffffffffff1673ffffffffffffffffffffffffffffffffffffffff16815260200190815260200160002054905092915050565b6106d4610750565b600073ffffffffffffffffffffffffffffffffffffffff168173ffffffffffffffffffffffffffffffffffffffff161415610744576040517f08c379a000000000000000000000000000000000000000000000000000000000815260040161073b90611486565b60405180910390fd5b61074d81610ca5565b50565b6107586107ce565b73ffffffffffffffffffffffffffffffffffffffff166107766104be565b73ffffffffffffffffffffffffffffffffffffffff16146107cc576040517f08c379a00000000000000000000000000000000000000000000000000000000081526004016107c390611506565b60405180910390fd5b565b600033905090565b600073ffffffffffffffffffffffffffffffffffffffff168373ffffffffffffffffffffffffffffffffffffffff161415610846576040517f08c379a000000000000000000000000000000000000000000000000000000000815260040161083d90611546565b60405180910390fd5b600073ffffffffffffffffffffffffffffffffffffffff168273ffffffffffffffffffffffffffffffffffffffff1614156108b6576040517f08c379a00000000000000000000000000000000000000000000000000000000081526004016108ad906114a6565b60405180910390fd5b80600160008573ffffffffffffffffffffffffffffffffffffffff1673ffffffffffffffffffffffffffffffffffffffff16815260200190815260200160002060008473ffffffffffffffffffffffffffffffffffffffff1673ffffffffffffffffffffffffffffffffffffffff168152602001908152602001600020819055508173ffffffffffffffffffffffffffffffffffffffff168373ffffffffffffffffffffffffffffffffffffffff167f8c5be1e5ebec7d5bd14f71427d1e84f3dd0314c0f7b2291e5b200ac8c7c3b9258360405161099491906115a6565b60405180910390a3505050565b60006109ad8484610645565b90507fffffffffffffffffffffffffffffffffffffffffffffffffffffffffffffffff8114610a275781811015610a19576040517f08c379a0000000000000000000000000000000000000000000000000000000008152600401610a10906114c6565b60405180910390fd5b610a2684848484036107d6565b5b50505050565b600073ffffffffffffffffffffffffffffffffffffffff168373ffffffffffffffffffffffffffffffffffffffff161415610a9d576040517f08c379a0000000000000000000000000000000000000000000000000000000008152600401610a9490611526565b60405180910390fd5b600073ffffffffffffffffffffffffffffffffffffffff168273ffffffffffffffffffffffffffffffffffffffff161415610b0d576040517f08c379a0000000000000000000000000000000000000000000000000000000008152600401610b0490611466565b60405180910390fd5b610b18838383610ec2565b60008060008573ffffffffffffffffffffffffffffffffffffffff1673ffffffffffffffffffffffffffffffffffffffff16815260200190815260200160002054905081811015610b9e576040517f08c379a0000000000000000000000000000000000000000000000000000000008152600401610b95906114e6565b60405180910390fd5b8181036000808673ffffffffffffffffffffffffffffffffffffffff1673ffffffffffffffffffffffffffffffffffffffff16815260200190815260200160002081905550816000808573ffffffffffffffffffffffffffffffffffffffff1673ffffffffffffffffffffffffffffffffffffffff168152602001908152602001600020600082825401925050819055508273ffffffffffffffffffffffffffffffffffffffff168473ffffffffffffffffffffffffffffffffffffffff167fddf252ad1be2c89b69c2b068fc378daa952ba7f163c4a11628f55a4df523b3ef84604051610c8c91906115a6565b60405180910390a3610c9f848484610ec7565b50505050565b6000600560009054906101000a900473ffffffffffffffffffffffffffffffffffffffff16905081600560006101000a81548173ffffffffffffffffffffffffffffffffffffffff021916908373ffffffffffffffffffffffffffffffffffffffff1602179055508173ffffffffffffffffffffffffffffffffffffffff168173ffffffffffffffffffffffffffffffffffffffff167f8be0079c531659141344cd1fd0a4f28419497f9722a3daafe3b4186f6b6457e060405160405180910390a35050565b600073ffffffffffffffffffffffffffffffffffffffff168273ffffffffffffffffffffffffffffffffffffffff161415610ddb576040517f08c379a0000000000000000000000000000000000000000000000000000000008152600401610dd290611586565b60405180910390fd5b610de760008383610ec2565b8060026000828254610df991906115f8565b92505081905550806000808473ffffffffffffffffffffffffffffffffffffffff1673ffffffffffffffffffffffffffffffffffffffff168152602001908152602001600020600082825401925050819055508173ffffffffffffffffffffffffffffffffffffffff16600073ffffffffffffffffffffffffffffffffffffffff167fddf252ad1be2c89b69c2b068fc378daa952ba7f163c4a11628f55a4df523b3ef83604051610eaa91906115a6565b60405180910390a3610ebe60008383610ec7565b5050565b505050565b505050565b600081359050610edb816117d1565b92915050565b600081359050610ef0816117e8565b92915050565b600060208284031215610f0857600080fd5b6000610f1684828501610ecc565b91505092915050565b60008060408385031215610f3257600080fd5b6000610f4085828601610ecc565b9250506020610f5185828601610ecc565b9150509250929050565b600080600060608486031215610f7057600080fd5b6000610f7e86828701610ecc565b9350506020610f8f86828701610ecc565b9250506040610fa086828701610ee1565b9150509250925092565b60008060408385031215610fbd57600080fd5b6000610fcb85828601610ecc565b9250506020610fdc85828601610ee1565b9150509250929050565b600060208284031215610ff857600080fd5b600061100684828501610ee1565b91505092915050565b611018816116a8565b82525050565b611027816116ba565b82525050565b6000611038826115dc565b61104281856115e7565b93506110528185602086016116fd565b61105b816117c0565b840191505092915050565b60006110736023836115e7565b91507f45524332303a207472616e7366657220746f20746865207a65726f206164647260008301527f65737300000000000000000000000000000000000000000000000000000000006020830152604082019050919050565b60006110d96026836115e7565b91507f4f776e61626c653a206e6577206f776e657220697320746865207a65726f206160008301527f64647265737300000000000000000000000000000000000000000000000000006020830152604082019050919050565b600061113f6022836115e7565b91507f45524332303a20617070726f766520746f20746865207a65726f20616464726560008301527f73730000000000000000000000000000000000000000000000000000000000006020830152604082019050919050565b60006111a5601d836115e7565b91507f45524332303a20696e73756666696369656e7420616c6c6f77616e63650000006000830152602082019050919050565b60006111e56026836115e7565b91507f45524332303a207472616e7366657220616d6f756e742065786365656473206260008301527f616c616e636500000000000000000000000000000000000000000000000000006020830152604082019050919050565b600061124b6020836115e7565b91507f4f776e61626c653a2063616c6c6572206973206e6f7420746865206f776e65726000830152602082019050919050565b600061128b6025836115e7565b91507f45524332303a207472616e736665722066726f6d20746865207a65726f20616460008301527f64726573730000000000000000000000000000000000000000000000000000006020830152604082019050919050565b60006112f16024836115e7565b91507f45524332303a20617070726f76652066726f6d20746865207a65726f2061646460008301527f72657373000000000000000000000000000000000000000000000000000000006020830152604082019050919050565b60006113576025836115e7565b91507f45524332303a2064656372656173656420616c6c6f77616e63652062656c6f7760008301527f207a65726f0000000000000000000000000000000000000000000000000000006020830152604082019050919050565b60006113bd601f836115e7565b91507f45524332303a206d696e7420746f20746865207a65726f2061646472657373006000830152602082019050919050565b6113f9816116e6565b82525050565b611408816116f0565b82525050565b6000602082019050611423600083018461100f565b92915050565b600060208201905061143e600083018461101e565b92915050565b6000602082019050818103600083015261145e818461102d565b905092915050565b6000602082019050818103600083015261147f81611066565b9050919050565b6000602082019050818103600083015261149f816110cc565b9050919050565b600060208201905081810360008301526114bf81611132565b9050919050565b600060208201905081810360008301526114df81611198565b9050919050565b600060208201905081810360008301526114ff816111d8565b9050919050565b6000602082019050818103600083015261151f8161123e565b9050919050565b6000602082019050818103600083015261153f8161127e565b9050919050565b6000602082019050818103600083015261155f816112e4565b9050919050565b6000602082019050818103600083015261157f8161134a565b9050919050565b6000602082019050818103600083015261159f816113b0565b9050919050565b60006020820190506115bb60008301846113f0565b92915050565b60006020820190506115d660008301846113ff565b92915050565b600081519050919050565b600082825260208201905092915050565b6000611603826116e6565b915061160e836116e6565b9250827fffffffffffffffffffffffffffffffffffffffffffffffffffffffffffffffff0382111561164357611642611762565b5b828201905092915050565b6000611659826116e6565b9150611664836116e6565b9250817fffffffffffffffffffffffffffffffffffffffffffffffffffffffffffffffff048311821515161561169d5761169c611762565b5b828202905092915050565b60006116b3826116c6565b9050919050565b60008115159050919050565b600073ffffffffffffffffffffffffffffffffffffffff82169050919050565b6000819050919050565b600060ff82169050919050565b60005b8381101561171b578082015181840152602081019050611700565b8381111561172a576000848401525b50505050565b6000600282049050600182168061174857607f821691505b6020821081141561175c5761175b611791565b5b50919050565b7f4e487b7100000000000000000000000000000000000000000000000000000000600052601160045260246000fd5b7f4e487b7100000000000000000000000000000000000000000000000000000000600052602260045260246000fd5b6000601f19601f8301169050919050565b6117da816116a8565b81146117e557600080fd5b50565b6117f1816116e6565b81146117fc57600080fd5b5056fea2646970667358221220f6edbdfc98e125e0b3b6a072830a8df73624621b91fae2b24e743635f6b318ec64736f6c63430008000033",
  "linkReferences": {},
  "deployedLinkReferences": {}
}