{"abi":[{"inputs":[{"internalType":"uint256","name":"value","type":"uint256"}],"stateMutability":"nonpayable","type":"constructor"},{"inputs":[{"internalType":"string","name":"brandId","type":"string"},{"internalType":"string","name":"name","type":"string"},{"internalType":"string","name":"category","type":"string"},{"internalType":"uint256","name":"price","type":"uint256"}],"name":"addProduct","outputs":[],"stateMutability":"nonpayable","type":"function"},{"inputs":[{"internalType":"string","name":"","type":"string"}],"name":"brandDetails","outputs":[{"internalType":"string","name":"id","type":"string"},{"internalType":"string","name":"name","type":"string"},{"internalType":"string","name":"category","type":"string"},{"internalType":"address payable","name":"owner","type":"address"},{"internalType":"bool","name":"isIssuingTokens","type":"bool"},{"internalType":"uint256","name":"rewardTokensLeft","type":"uint256"},{"internalType":"uint256","name":"rewardPricePercentage","type":"uint256"}],"stateMutability":"view","type":"function"},{"inputs":[{"internalType":"uint256","name":"","type":"uint256"}],"name":"brands","outputs":[{"internalType":"string","name":"","type":"string"}],"stateMutability":"view","type":"function"},{"inputs":[{"internalType":"string","name":"brandId","type":"string"},{"internalType":"string","name":"productId","type":"string"},{"internalType":"bool","name":"isRedeemingTokens","type":"bool"},{"internalType":"string","name":"rewardRedeemCode","type":"string"}],"name":"buyProduct","outputs":[],"stateMutability":"payable","type":"function"},{"inputs":[{"internalType":"string","name":"brandId","type":"string"}],"name":"buyTokens","outputs":[],"stateMutability":"payable","type":"function"},{"inputs":[{"internalType":"string","name":"brandId","type":"string"},{"internalType":"uint256","name":"discount","type":"uint256"},{"internalType":"uint256","name":"maxDiscountValue","type":"uint256"},{"internalType":"uint256","name":"tokens","type":"uint256"}],"name":"createReward","outputs":[],"stateMutability":"nonpayable","type":"function"},{"inputs":[{"internalType":"string","name":"rewardId","type":"string"}],"name":"issueReward","outputs":[],"stateMutability":"nonpayable","type":"function"},{"inputs":[{"internalType":"string","name":"brandId","type":"string"},{"internalType":"uint256","name":"tokens","type":"uint256"}],"name":"issueTokens","outputs":[],"stateMutability":"nonpayable","type":"function"},{"inputs":[{"internalType":"string","name":"","type":"string"},{"internalType":"string","name":"","type":"string"}],"name":"productDetails","outputs":[{"internalType":"string","name":"id","type":"string"},{"internalType":"string","name":"name","type":"string"},{"internalType":"string","name":"category","type":"string"},{"internalType":"uint256","name":"price","type":"uint256"},{"internalType":"bool","name":"available","type":"bool"}],"stateMutability":"view","type":"function"},{"inputs":[{"internalType":"string","name":"name","type":"string"},{"internalType":"string","name":"category","type":"string"},{"internalType":"uint256","name":"rewardPricePercentage","type":"uint256"},{"internalType":"uint256[][]","name":"rewardMilestones","type":"uint256[][]"}],"name":"registerBrand","outputs":[],"stateMutability":"payable","type":"function"},{"inputs":[{"internalType":"string","name":"name","type":"string"},{"internalType":"string","name":"_referral","type":"string"}],"name":"registerUser","outputs":[],"stateMutability":"nonpayable","type":"function"},{"inputs":[{"internalType":"address","name":"account","type":"address"}],"name":"showBalance","outputs":[{"internalType":"uint256","name":"","type":"uint256"}],"stateMutability":"view","type":"function"},{"inputs":[{"internalType":"string","name":"brandId","type":"string"},{"internalType":"string","name":"productId","type":"string"}],"name":"showBrandProductDetails","outputs":[{"components":[{"internalType":"string","name":"id","type":"string"},{"internalType":"string","name":"name","type":"string"},{"internalType":"string","name":"category","type":"string"},{"internalType":"uint256","name":"price","type":"uint256"},{"internalType":"bool","name":"available","type":"bool"}],"internalType":"struct FlipKart.Product","name":"","type":"tuple"}],"stateMutability":"view","type":"function"},{"inputs":[{"internalType":"string","name":"brandId","type":"string"}],"name":"showBrandProducts","outputs":[{"components":[{"internalType":"string","name":"id","type":"string"},{"internalType":"string","name":"name","type":"string"},{"internalType":"string","name":"category","type":"string"},{"internalType":"uint256","name":"price","type":"uint256"},{"internalType":"bool","name":"available","type":"bool"}],"internalType":"struct FlipKart.Product[]","name":"","type":"tuple[]"}],"stateMutability":"view","type":"function"},{"inputs":[{"internalType":"address","name":"account","type":"address"}],"name":"showUserPurchaseHistory","outputs":[{"components":[{"internalType":"string","name":"id","type":"string"},{"internalType":"string","name":"brandId","type":"string"},{"internalType":"string","name":"productId","type":"string"},{"internalType":"string","name":"userId","type":"string"},{"internalType":"uint256","name":"expenditure","type":"uint256"},{"internalType":"uint256","name":"tokensRedeemed","type":"uint256"},{"internalType":"string","name":"rewardRedeemed","type":"string"}],"internalType":"struct FlipKart.UserTransaction[]","name":"","type":"tuple[]"}],"stateMutability":"view","type":"function"},{"inputs":[{"internalType":"address","name":"","type":"address"}],"name":"userDetails","outputs":[{"internalType":"string","name":"id","type":"string"},{"internalType":"string","name":"name","type":"string"},{"internalType":"address","name":"account","type":"address"},{"internalType":"string","name":"referralCode","type":"string"}],"stateMutability":"view","type":"function"}],"devdoc":{"kind":"dev","methods":{},"version":1},"evm":{"assembly":"    /* \"FlipKart.sol\":188:13630  contract FlipKart {... */\n  mstore(0x40, 0x80)\n    /* \"FlipKart.sol\":1998:2102  constructor(uint value) {... */\n  callvalue\n  dup1\n  iszero\n  tag_1\n  jumpi\n  0x00\n  dup1\n  revert\ntag_1:\n  pop\n  mload(0x40)\n  sub(codesize, bytecodeSize)\n  dup1\n  bytecodeSize\n  dup4\n  codecopy\n  dup2\n  dup2\n  add\n  0x40\n  mstore\n  dup2\n  add\n  swap1\n  tag_2\n  swap2\n  swap1\n  tag_3\n  jump\t// in\ntag_2:\n    /* \"FlipKart.sol\":2049:2064  new FlipToken() */\n  mload(0x40)\n  tag_6\n  swap1\n  tag_7\n  jump\t// in\ntag_6:\n  mload(0x40)\n  dup1\n  swap2\n  sub\n  swap1\n  0x00\n  create\n  dup1\n  iszero\n  dup1\n  iszero\n  tag_8\n  jumpi\n  returndatasize\n  0x00\n  dup1\n  returndatacopy\n  revert(0x00, returndatasize)\ntag_8:\n  pop\n    /* \"FlipKart.sol\":2033:2038  token */\n  0x0a\n  0x00\n    /* \"FlipKart.sol\":2033:2065  token = address(new FlipToken()) */\n  0x0100\n  exp\n  dup2\n  sload\n  dup2\n  0xffffffffffffffffffffffffffffffffffffffff\n  mul\n  not\n  and\n  swap1\n  dup4\n  0xffffffffffffffffffffffffffffffffffffffff\n  and\n  mul\n  or\n  swap1\n  sstore\n  pop\n    /* \"FlipKart.sol\":2089:2094  value */\n  dup1\n    /* \"FlipKart.sol\":2076:2086  tokenValue */\n  0x0b\n    /* \"FlipKart.sol\":2076:2094  tokenValue = value */\n  dup2\n  swap1\n  sstore\n  pop\n    /* \"FlipKart.sol\":1998:2102  constructor(uint value) {... */\n  pop\n    /* \"FlipKart.sol\":188:13630  contract FlipKart {... */\n  jump(tag_9)\ntag_7:\n  dataSize(sub_1)\n  dup1\n  dataOffset(sub_1)\n  dup4\n  codecopy\n  add\n  swap1\n  jump\t// out\n    /* \"#utility.yul\":88:205   */\ntag_11:\n    /* \"#utility.yul\":197:198   */\n  0x00\n    /* \"#utility.yul\":194:195   */\n  dup1\n    /* \"#utility.yul\":187:199   */\n  revert\n    /* \"#utility.yul\":334:411   */\ntag_13:\n    /* \"#utility.yul\":371:378   */\n  0x00\n    /* \"#utility.yul\":400:405   */\n  dup2\n    /* \"#utility.yul\":389:405   */\n  swap1\n  pop\n    /* \"#utility.yul\":334:411   */\n  swap2\n  swap1\n  pop\n  jump\t// out\n    /* \"#utility.yul\":417:539   */\ntag_14:\n    /* \"#utility.yul\":490:514   */\n  tag_22\n    /* \"#utility.yul\":508:513   */\n  dup2\n    /* \"#utility.yul\":490:514   */\n  tag_13\n  jump\t// in\ntag_22:\n    /* \"#utility.yul\":483:488   */\n  dup2\n    /* \"#utility.yul\":480:515   */\n  eq\n    /* \"#utility.yul\":470:533   */\n  tag_23\n  jumpi\n    /* \"#utility.yul\":529:530   */\n  0x00\n    /* \"#utility.yul\":526:527   */\n  dup1\n    /* \"#utility.yul\":519:531   */\n  revert\n    /* \"#utility.yul\":470:533   */\ntag_23:\n    /* \"#utility.yul\":417:539   */\n  pop\n  jump\t// out\n    /* \"#utility.yul\":545:688   */\ntag_15:\n    /* \"#utility.yul\":602:607   */\n  0x00\n    /* \"#utility.yul\":633:639   */\n  dup2\n    /* \"#utility.yul\":627:640   */\n  mload\n    /* \"#utility.yul\":618:640   */\n  swap1\n  pop\n    /* \"#utility.yul\":649:682   */\n  tag_25\n    /* \"#utility.yul\":676:681   */\n  dup2\n    /* \"#utility.yul\":649:682   */\n  tag_14\n  jump\t// in\ntag_25:\n    /* \"#utility.yul\":545:688   */\n  swap3\n  swap2\n  pop\n  pop\n  jump\t// out\n    /* \"#utility.yul\":694:1045   */\ntag_3:\n    /* \"#utility.yul\":764:770   */\n  0x00\n    /* \"#utility.yul\":813:815   */\n  0x20\n    /* \"#utility.yul\":801:810   */\n  dup3\n    /* \"#utility.yul\":792:799   */\n  dup5\n    /* \"#utility.yul\":788:811   */\n  sub\n    /* \"#utility.yul\":784:816   */\n  slt\n    /* \"#utility.yul\":781:900   */\n  iszero\n  tag_27\n  jumpi\n    /* \"#utility.yul\":819:898   */\n  tag_28\n  tag_11\n  jump\t// in\ntag_28:\n    /* \"#utility.yul\":781:900   */\ntag_27:\n    /* \"#utility.yul\":939:940   */\n  0x00\n    /* \"#utility.yul\":964:1028   */\n  tag_29\n    /* \"#utility.yul\":1020:1027   */\n  dup5\n    /* \"#utility.yul\":1011:1017   */\n  dup3\n    /* \"#utility.yul\":1000:1009   */\n  dup6\n    /* \"#utility.yul\":996:1018   */\n  add\n    /* \"#utility.yul\":964:1028   */\n  tag_15\n  jump\t// in\ntag_29:\n    /* \"#utility.yul\":954:1028   */\n  swap2\n  pop\n    /* \"#utility.yul\":910:1038   */\n  pop\n    /* \"#utility.yul\":694:1045   */\n  swap3\n  swap2\n  pop\n  pop\n  jump\t// out\n    /* \"FlipKart.sol\":188:13630  contract FlipKart {... */\ntag_9:\n  dataSize(sub_0)\n  dup1\n  dataOffset(sub_0)\n  0x00\n  codecopy\n  0x00\n  return\nstop\n\nsub_0: assembly {\n        /* \"FlipKart.sol\":188:13630  contract FlipKart {... */\n      mstore(0x40, 0x80)\n      jumpi(tag_1, lt(calldatasize, 0x04))\n      shr(0xe0, calldataload(0x00))\n      dup1\n      0x6f85e62c\n      gt\n      tag_18\n      jumpi\n      dup1\n      0xd7fe9ef1\n      gt\n      tag_19\n      jumpi\n      dup1\n      0xd7fe9ef1\n      eq\n      tag_14\n      jumpi\n      dup1\n      0xdac11963\n      eq\n      tag_15\n      jumpi\n      dup1\n      0xe7d4b3fd\n      eq\n      tag_16\n      jumpi\n      dup1\n      0xfdcb5732\n      eq\n      tag_17\n      jumpi\n      jump(tag_1)\n    tag_19:\n      dup1\n      0x6f85e62c\n      eq\n      tag_10\n      jumpi\n      dup1\n      0x8165fed5\n      eq\n      tag_11\n      jumpi\n      dup1\n      0x9623cfb2\n      eq\n      tag_12\n      jumpi\n      dup1\n      0x9c080f5d\n      eq\n      tag_13\n      jumpi\n      jump(tag_1)\n    tag_18:\n      dup1\n      0x2da39105\n      gt\n      tag_20\n      jumpi\n      dup1\n      0x2da39105\n      eq\n      tag_6\n      jumpi\n      dup1\n      0x35ac9baa\n      eq\n      tag_7\n      jumpi\n      dup1\n      0x48dec2a7\n      eq\n      tag_8\n      jumpi\n      dup1\n      0x55008c18\n      eq\n      tag_9\n      jumpi\n      jump(tag_1)\n    tag_20:\n      dup1\n      0x188d030c\n      eq\n      tag_2\n      jumpi\n      dup1\n      0x1d2e4afd\n      eq\n      tag_3\n      jumpi\n      dup1\n      0x296b7454\n      eq\n      tag_4\n      jumpi\n      dup1\n      0x2ce22810\n      eq\n      tag_5\n      jumpi\n    tag_1:\n      0x00\n      dup1\n      revert\n        /* \"FlipKart.sol\":11968:12930  function issueReward(string memory rewardId) public {... */\n    tag_2:\n      callvalue\n      dup1\n      iszero\n      tag_21\n      jumpi\n      0x00\n      dup1\n      revert\n    tag_21:\n      pop\n      tag_22\n      0x04\n      dup1\n      calldatasize\n      sub\n      dup2\n      add\n      swap1\n      tag_23\n      swap2\n      swap1\n      tag_24\n      jump\t// in\n    tag_23:\n      tag_25\n      jump\t// in\n    tag_22:\n      stop\n        /* \"FlipKart.sol\":4629:5473  function registerUser(string memory name, string memory _referral) public {... */\n    tag_3:\n      callvalue\n      dup1\n      iszero\n      tag_26\n      jumpi\n      0x00\n      dup1\n      revert\n    tag_26:\n      pop\n      tag_27\n      0x04\n      dup1\n      calldatasize\n      sub\n      dup2\n      add\n      swap1\n      tag_28\n      swap2\n      swap1\n      tag_29\n      jump\t// in\n    tag_28:\n      tag_30\n      jump\t// in\n    tag_27:\n      stop\n        /* \"FlipKart.sol\":13107:13310  function showBrandProductDetails(... */\n    tag_4:\n      callvalue\n      dup1\n      iszero\n      tag_31\n      jumpi\n      0x00\n      dup1\n      revert\n    tag_31:\n      pop\n      tag_32\n      0x04\n      dup1\n      calldatasize\n      sub\n      dup2\n      add\n      swap1\n      tag_33\n      swap2\n      swap1\n      tag_29\n      jump\t// in\n    tag_33:\n      tag_34\n      jump\t// in\n    tag_32:\n      mload(0x40)\n      tag_35\n      swap2\n      swap1\n      tag_36\n      jump\t// in\n    tag_35:\n      mload(0x40)\n      dup1\n      swap2\n      sub\n      swap1\n      return\n        /* \"FlipKart.sol\":3428:3884  function issueTokens(string memory brandId, uint tokens) public {... */\n    tag_5:\n      callvalue\n      dup1\n      iszero\n      tag_37\n      jumpi\n      0x00\n      dup1\n      revert\n    tag_37:\n      pop\n      tag_38\n      0x04\n      dup1\n      calldatasize\n      sub\n      dup2\n      add\n      swap1\n      tag_39\n      swap2\n      swap1\n      tag_40\n      jump\t// in\n    tag_39:\n      tag_41\n      jump\t// in\n    tag_38:\n      stop\n        /* \"FlipKart.sol\":1400:1444  mapping(string => Brand) public brandDetails */\n    tag_6:\n      callvalue\n      dup1\n      iszero\n      tag_42\n      jumpi\n      0x00\n      dup1\n      revert\n    tag_42:\n      pop\n      tag_43\n      0x04\n      dup1\n      calldatasize\n      sub\n      dup2\n      add\n      swap1\n      tag_44\n      swap2\n      swap1\n      tag_24\n      jump\t// in\n    tag_44:\n      tag_45\n      jump\t// in\n    tag_43:\n      mload(0x40)\n      tag_46\n      swap8\n      swap7\n      swap6\n      swap5\n      swap4\n      swap3\n      swap2\n      swap1\n      tag_47\n      jump\t// in\n    tag_46:\n      mload(0x40)\n      dup1\n      swap2\n      sub\n      swap1\n      return\n        /* \"FlipKart.sol\":2635:3420  function registerBrand(... */\n    tag_7:\n      tag_48\n      0x04\n      dup1\n      calldatasize\n      sub\n      dup2\n      add\n      swap1\n      tag_49\n      swap2\n      swap1\n      tag_50\n      jump\t// in\n    tag_49:\n      tag_51\n      jump\t// in\n    tag_48:\n      stop\n        /* \"FlipKart.sol\":1525:1568  mapping(address => User) public userDetails */\n    tag_8:\n      callvalue\n      dup1\n      iszero\n      tag_52\n      jumpi\n      0x00\n      dup1\n      revert\n    tag_52:\n      pop\n      tag_53\n      0x04\n      dup1\n      calldatasize\n      sub\n      dup2\n      add\n      swap1\n      tag_54\n      swap2\n      swap1\n      tag_55\n      jump\t// in\n    tag_54:\n      tag_56\n      jump\t// in\n    tag_53:\n      mload(0x40)\n      tag_57\n      swap5\n      swap4\n      swap3\n      swap2\n      swap1\n      tag_58\n      jump\t// in\n    tag_57:\n      mload(0x40)\n      dup1\n      swap2\n      sub\n      swap1\n      return\n        /* \"FlipKart.sol\":5800:11275  function buyProduct(... */\n    tag_9:\n      tag_59\n      0x04\n      dup1\n      calldatasize\n      sub\n      dup2\n      add\n      swap1\n      tag_60\n      swap2\n      swap1\n      tag_61\n      jump\t// in\n    tag_60:\n      tag_62\n      jump\t// in\n    tag_59:\n      stop\n        /* \"FlipKart.sol\":5481:5792  function buyTokens(string memory brandId) public payable {... */\n    tag_10:\n      tag_63\n      0x04\n      dup1\n      calldatasize\n      sub\n      dup2\n      add\n      swap1\n      tag_64\n      swap2\n      swap1\n      tag_24\n      jump\t// in\n    tag_64:\n      tag_65\n      jump\t// in\n    tag_63:\n      stop\n        /* \"FlipKart.sol\":3892:4621  function addProduct(... */\n    tag_11:\n      callvalue\n      dup1\n      iszero\n      tag_66\n      jumpi\n      0x00\n      dup1\n      revert\n    tag_66:\n      pop\n      tag_67\n      0x04\n      dup1\n      calldatasize\n      sub\n      dup2\n      add\n      swap1\n      tag_68\n      swap2\n      swap1\n      tag_69\n      jump\t// in\n    tag_68:\n      tag_70\n      jump\t// in\n    tag_67:\n      stop\n        /* \"FlipKart.sol\":1451:1518  mapping(string => mapping(string => Product)) public productDetails */\n    tag_12:\n      callvalue\n      dup1\n      iszero\n      tag_71\n      jumpi\n      0x00\n      dup1\n      revert\n    tag_71:\n      pop\n      tag_72\n      0x04\n      dup1\n      calldatasize\n      sub\n      dup2\n      add\n      swap1\n      tag_73\n      swap2\n      swap1\n      tag_29\n      jump\t// in\n    tag_73:\n      tag_74\n      jump\t// in\n    tag_72:\n      mload(0x40)\n      tag_75\n      swap6\n      swap5\n      swap4\n      swap3\n      swap2\n      swap1\n      tag_76\n      jump\t// in\n    tag_75:\n      mload(0x40)\n      dup1\n      swap2\n      sub\n      swap1\n      return\n        /* \"FlipKart.sol\":13501:13627  function showBalance(address account) public view returns (uint) {... */\n    tag_13:\n      callvalue\n      dup1\n      iszero\n      tag_77\n      jumpi\n      0x00\n      dup1\n      revert\n    tag_77:\n      pop\n      tag_78\n      0x04\n      dup1\n      calldatasize\n      sub\n      dup2\n      add\n      swap1\n      tag_79\n      swap2\n      swap1\n      tag_55\n      jump\t// in\n    tag_79:\n      tag_80\n      jump\t// in\n    tag_78:\n      mload(0x40)\n      tag_81\n      swap2\n      swap1\n      tag_82\n      jump\t// in\n    tag_81:\n      mload(0x40)\n      dup1\n      swap2\n      sub\n      swap1\n      return\n        /* \"FlipKart.sol\":12938:13099  function showBrandProducts(... */\n    tag_14:\n      callvalue\n      dup1\n      iszero\n      tag_83\n      jumpi\n      0x00\n      dup1\n      revert\n    tag_83:\n      pop\n      tag_84\n      0x04\n      dup1\n      calldatasize\n      sub\n      dup2\n      add\n      swap1\n      tag_85\n      swap2\n      swap1\n      tag_24\n      jump\t// in\n    tag_85:\n      tag_86\n      jump\t// in\n    tag_84:\n      mload(0x40)\n      tag_87\n      swap2\n      swap1\n      tag_88\n      jump\t// in\n    tag_87:\n      mload(0x40)\n      dup1\n      swap2\n      sub\n      swap1\n      return\n        /* \"FlipKart.sol\":13318:13493  function showUserPurchaseHistory(... */\n    tag_15:\n      callvalue\n      dup1\n      iszero\n      tag_89\n      jumpi\n      0x00\n      dup1\n      revert\n    tag_89:\n      pop\n      tag_90\n      0x04\n      dup1\n      calldatasize\n      sub\n      dup2\n      add\n      swap1\n      tag_91\n      swap2\n      swap1\n      tag_55\n      jump\t// in\n    tag_91:\n      tag_92\n      jump\t// in\n    tag_90:\n      mload(0x40)\n      tag_93\n      swap2\n      swap1\n      tag_94\n      jump\t// in\n    tag_93:\n      mload(0x40)\n      dup1\n      swap2\n      sub\n      swap1\n      return\n        /* \"FlipKart.sol\":11283:11960  function createReward(... */\n    tag_16:\n      callvalue\n      dup1\n      iszero\n      tag_95\n      jumpi\n      0x00\n      dup1\n      revert\n    tag_95:\n      pop\n      tag_96\n      0x04\n      dup1\n      calldatasize\n      sub\n      dup2\n      add\n      swap1\n      tag_97\n      swap2\n      swap1\n      tag_98\n      jump\t// in\n    tag_97:\n      tag_99\n      jump\t// in\n    tag_96:\n      stop\n        /* \"FlipKart.sol\":1371:1393  string[] public brands */\n    tag_17:\n      callvalue\n      dup1\n      iszero\n      tag_100\n      jumpi\n      0x00\n      dup1\n      revert\n    tag_100:\n      pop\n      tag_101\n      0x04\n      dup1\n      calldatasize\n      sub\n      dup2\n      add\n      swap1\n      tag_102\n      swap2\n      swap1\n      tag_103\n      jump\t// in\n    tag_102:\n      tag_104\n      jump\t// in\n    tag_101:\n      mload(0x40)\n      tag_105\n      swap2\n      swap1\n      tag_106\n      jump\t// in\n    tag_105:\n      mload(0x40)\n      dup1\n      swap2\n      sub\n      swap1\n      return\n        /* \"FlipKart.sol\":11968:12930  function issueReward(string memory rewardId) public {... */\n    tag_25:\n        /* \"FlipKart.sol\":12115:12120  false */\n      0x00\n        /* \"FlipKart.sol\":12053:12120  userRewardInvalidity[rewardId][userDetails[msg.sender].id] == false */\n      iszero\n      iszero\n        /* \"FlipKart.sol\":12053:12073  userRewardInvalidity */\n      0x08\n        /* \"FlipKart.sol\":12074:12082  rewardId */\n      dup3\n        /* \"FlipKart.sol\":12053:12083  userRewardInvalidity[rewardId] */\n      mload(0x40)\n      tag_108\n      swap2\n      swap1\n      tag_109\n      jump\t// in\n    tag_108:\n      swap1\n      dup2\n      mstore\n      0x20\n      add\n      mload(0x40)\n      dup1\n      swap2\n      sub\n      swap1\n      keccak256\n        /* \"FlipKart.sol\":12084:12095  userDetails */\n      0x03\n        /* \"FlipKart.sol\":12084:12107  userDetails[msg.sender] */\n      0x00\n        /* \"FlipKart.sol\":12096:12106  msg.sender */\n      caller\n        /* \"FlipKart.sol\":12084:12107  userDetails[msg.sender] */\n      0xffffffffffffffffffffffffffffffffffffffff\n      and\n      0xffffffffffffffffffffffffffffffffffffffff\n      and\n      dup2\n      mstore\n      0x20\n      add\n      swap1\n      dup2\n      mstore\n      0x20\n      add\n      0x00\n      keccak256\n        /* \"FlipKart.sol\":12084:12110  userDetails[msg.sender].id */\n      0x00\n      add\n        /* \"FlipKart.sol\":12053:12111  userRewardInvalidity[rewardId][userDetails[msg.sender].id] */\n      mload(0x40)\n      tag_110\n      swap2\n      swap1\n      tag_111\n      jump\t// in\n    tag_110:\n      swap1\n      dup2\n      mstore\n      0x20\n      add\n      mload(0x40)\n      dup1\n      swap2\n      sub\n      swap1\n      keccak256\n      0x00\n      swap1\n      sload\n      swap1\n      0x0100\n      exp\n      swap1\n      div\n      0xff\n      and\n        /* \"FlipKart.sol\":12053:12120  userRewardInvalidity[rewardId][userDetails[msg.sender].id] == false */\n      iszero\n      iszero\n      eq\n        /* \"FlipKart.sol\":12031:12131  require(... */\n      tag_112\n      jumpi\n      0x00\n      dup1\n      revert\n    tag_112:\n        /* \"FlipKart.sol\":12142:12172  RedeemableReward memory reward */\n      0x00\n        /* \"FlipKart.sol\":12175:12284  RedeemableReward({... */\n      mload(0x40)\n      dup1\n      0x40\n      add\n      0x40\n      mstore\n      dup1\n        /* \"FlipKart.sol\":12217:12225  rewardId */\n      dup4\n        /* \"FlipKart.sol\":12175:12284  RedeemableReward({... */\n      dup2\n      mstore\n      0x20\n      add\n        /* \"FlipKart.sol\":12252:12272  generateRandomCode() */\n      tag_113\n        /* \"FlipKart.sol\":12252:12270  generateRandomCode */\n      tag_114\n        /* \"FlipKart.sol\":12252:12272  generateRandomCode() */\n      jump\t// in\n    tag_113:\n        /* \"FlipKart.sol\":12175:12284  RedeemableReward({... */\n      dup2\n      mstore\n      pop\n        /* \"FlipKart.sol\":12142:12284  RedeemableReward memory reward = RedeemableReward({... */\n      swap1\n      pop\n        /* \"FlipKart.sol\":12393:12397  true */\n      0x01\n        /* \"FlipKart.sol\":12295:12319  redeemableRewardValidity */\n      0x09\n        /* \"FlipKart.sol\":12320:12331  userDetails */\n      0x03\n        /* \"FlipKart.sol\":12320:12343  userDetails[msg.sender] */\n      0x00\n        /* \"FlipKart.sol\":12332:12342  msg.sender */\n      caller\n        /* \"FlipKart.sol\":12320:12343  userDetails[msg.sender] */\n      0xffffffffffffffffffffffffffffffffffffffff\n      and\n      0xffffffffffffffffffffffffffffffffffffffff\n      and\n      dup2\n      mstore\n      0x20\n      add\n      swap1\n      dup2\n      mstore\n      0x20\n      add\n      0x00\n      keccak256\n        /* \"FlipKart.sol\":12320:12346  userDetails[msg.sender].id */\n      0x00\n      add\n        /* \"FlipKart.sol\":12295:12347  redeemableRewardValidity[userDetails[msg.sender].id] */\n      mload(0x40)\n      tag_115\n      swap2\n      swap1\n      tag_111\n      jump\t// in\n    tag_115:\n      swap1\n      dup2\n      mstore\n      0x20\n      add\n      mload(0x40)\n      dup1\n      swap2\n      sub\n      swap1\n      keccak256\n        /* \"FlipKart.sol\":12362:12368  reward */\n      dup3\n        /* \"FlipKart.sol\":12362:12379  reward.redeemCode */\n      0x20\n      add\n      mload\n        /* \"FlipKart.sol\":12295:12390  redeemableRewardValidity[userDetails[msg.sender].id][... */\n      mload(0x40)\n      tag_116\n      swap2\n      swap1\n      tag_109\n      jump\t// in\n    tag_116:\n      swap1\n      dup2\n      mstore\n      0x20\n      add\n      mload(0x40)\n      dup1\n      swap2\n      sub\n      swap1\n      keccak256\n      0x00\n        /* \"FlipKart.sol\":12295:12397  redeemableRewardValidity[userDetails[msg.sender].id][... */\n      0x0100\n      exp\n      dup2\n      sload\n      dup2\n      0xff\n      mul\n      not\n      and\n      swap1\n      dup4\n      iszero\n      iszero\n      mul\n      or\n      swap1\n      sstore\n      pop\n        /* \"FlipKart.sol\":12448:12456  rewardId */\n      dup2\n        /* \"FlipKart.sol\":12408:12426  redeemableRewardId */\n      0x07\n        /* \"FlipKart.sol\":12427:12433  reward */\n      dup3\n        /* \"FlipKart.sol\":12427:12444  reward.redeemCode */\n      0x20\n      add\n      mload\n        /* \"FlipKart.sol\":12408:12445  redeemableRewardId[reward.redeemCode] */\n      mload(0x40)\n      tag_117\n      swap2\n      swap1\n      tag_109\n      jump\t// in\n    tag_117:\n      swap1\n      dup2\n      mstore\n      0x20\n      add\n      mload(0x40)\n      dup1\n      swap2\n      sub\n      swap1\n      keccak256\n        /* \"FlipKart.sol\":12408:12456  redeemableRewardId[reward.redeemCode] = rewardId */\n      swap1\n      dup2\n      tag_118\n      swap2\n      swap1\n      tag_119\n      jump\t// in\n    tag_118:\n      pop\n        /* \"FlipKart.sol\":12467:12478  userDetails */\n      0x03\n        /* \"FlipKart.sol\":12467:12490  userDetails[msg.sender] */\n      0x00\n        /* \"FlipKart.sol\":12479:12489  msg.sender */\n      caller\n        /* \"FlipKart.sol\":12467:12490  userDetails[msg.sender] */\n      0xffffffffffffffffffffffffffffffffffffffff\n      and\n      0xffffffffffffffffffffffffffffffffffffffff\n      and\n      dup2\n      mstore\n      0x20\n      add\n      swap1\n      dup2\n      mstore\n      0x20\n      add\n      0x00\n      keccak256\n        /* \"FlipKart.sol\":12467:12506  userDetails[msg.sender].rewardsObtained */\n      0x04\n      add\n        /* \"FlipKart.sol\":12512:12518  reward */\n      dup2\n        /* \"FlipKart.sol\":12467:12519  userDetails[msg.sender].rewardsObtained.push(reward) */\n      swap1\n      dup1\n      0x01\n      dup2\n      sload\n      add\n      dup1\n      dup3\n      sstore\n      dup1\n      swap2\n      pop\n      pop\n      0x01\n      swap1\n      sub\n      swap1\n      0x00\n      mstore\n      keccak256(0x00, 0x20)\n      swap1\n      0x02\n      mul\n      add\n      0x00\n      swap1\n      swap2\n      swap1\n      swap2\n      swap1\n      swap2\n      pop\n      0x00\n      dup3\n      add\n      mload\n      dup2\n      0x00\n      add\n      swap1\n      dup2\n      tag_121\n      swap2\n      swap1\n      tag_119\n      jump\t// in\n    tag_121:\n      pop\n      0x20\n      dup3\n      add\n      mload\n      dup2\n      0x01\n      add\n      swap1\n      dup2\n      tag_122\n      swap2\n      swap1\n      tag_119\n      jump\t// in\n    tag_122:\n      pop\n      pop\n      pop\n        /* \"FlipKart.sol\":12591:12595  true */\n      0x01\n        /* \"FlipKart.sol\":12530:12550  userRewardInvalidity */\n      0x08\n        /* \"FlipKart.sol\":12551:12559  rewardId */\n      dup4\n        /* \"FlipKart.sol\":12530:12560  userRewardInvalidity[rewardId] */\n      mload(0x40)\n      tag_123\n      swap2\n      swap1\n      tag_109\n      jump\t// in\n    tag_123:\n      swap1\n      dup2\n      mstore\n      0x20\n      add\n      mload(0x40)\n      dup1\n      swap2\n      sub\n      swap1\n      keccak256\n        /* \"FlipKart.sol\":12561:12572  userDetails */\n      0x03\n        /* \"FlipKart.sol\":12561:12584  userDetails[msg.sender] */\n      0x00\n        /* \"FlipKart.sol\":12573:12583  msg.sender */\n      caller\n        /* \"FlipKart.sol\":12561:12584  userDetails[msg.sender] */\n      0xffffffffffffffffffffffffffffffffffffffff\n      and\n      0xffffffffffffffffffffffffffffffffffffffff\n      and\n      dup2\n      mstore\n      0x20\n      add\n      swap1\n      dup2\n      mstore\n      0x20\n      add\n      0x00\n      keccak256\n        /* \"FlipKart.sol\":12561:12587  userDetails[msg.sender].id */\n      0x00\n      add\n        /* \"FlipKart.sol\":12530:12588  userRewardInvalidity[rewardId][userDetails[msg.sender].id] */\n      mload(0x40)\n      tag_124\n      swap2\n      swap1\n      tag_111\n      jump\t// in\n    tag_124:\n      swap1\n      dup2\n      mstore\n      0x20\n      add\n      mload(0x40)\n      dup1\n      swap2\n      sub\n      swap1\n      keccak256\n      0x00\n        /* \"FlipKart.sol\":12530:12595  userRewardInvalidity[rewardId][userDetails[msg.sender].id] = true */\n      0x0100\n      exp\n      dup2\n      sload\n      dup2\n      0xff\n      mul\n      not\n      and\n      swap1\n      dup4\n      iszero\n      iszero\n      mul\n      or\n      swap1\n      sstore\n      pop\n        /* \"FlipKart.sol\":12616:12621  token */\n      0x0a\n      0x00\n      swap1\n      sload\n      swap1\n      0x0100\n      exp\n      swap1\n      div\n      0xffffffffffffffffffffffffffffffffffffffff\n      and\n        /* \"FlipKart.sol\":12606:12630  FlipToken(token).approve */\n      0xffffffffffffffffffffffffffffffffffffffff\n      and\n      0x095ea7b3\n        /* \"FlipKart.sol\":12645:12655  msg.sender */\n      caller\n        /* \"FlipKart.sol\":12706:12714  10 ** 18 */\n      0x0de0b6b3a7640000\n        /* \"FlipKart.sol\":12670:12677  rewards */\n      0x06\n        /* \"FlipKart.sol\":12678:12686  rewardId */\n      dup7\n        /* \"FlipKart.sol\":12670:12687  rewards[rewardId] */\n      mload(0x40)\n      tag_125\n      swap2\n      swap1\n      tag_109\n      jump\t// in\n    tag_125:\n      swap1\n      dup2\n      mstore\n      0x20\n      add\n      mload(0x40)\n      dup1\n      swap2\n      sub\n      swap1\n      keccak256\n        /* \"FlipKart.sol\":12670:12702  rewards[rewardId].tokensRequired */\n      0x04\n      add\n      sload\n        /* \"FlipKart.sol\":12670:12715  rewards[rewardId].tokensRequired * (10 ** 18) */\n      tag_126\n      swap2\n      swap1\n      tag_127\n      jump\t// in\n    tag_126:\n        /* \"FlipKart.sol\":12606:12726  FlipToken(token).approve(... */\n      mload(0x40)\n      dup4\n      0xffffffff\n      and\n      0xe0\n      shl\n      dup2\n      mstore\n      0x04\n      add\n      tag_128\n      swap3\n      swap2\n      swap1\n      tag_129\n      jump\t// in\n    tag_128:\n      0x20\n      mload(0x40)\n      dup1\n      dup4\n      sub\n      dup2\n      0x00\n      dup8\n      gas\n      call\n      iszero\n      dup1\n      iszero\n      tag_131\n      jumpi\n      returndatasize\n      0x00\n      dup1\n      returndatacopy\n      revert(0x00, returndatasize)\n    tag_131:\n      pop\n      pop\n      pop\n      pop\n      mload(0x40)\n      returndatasize\n      not(0x1f)\n      0x1f\n      dup3\n      add\n      and\n      dup3\n      add\n      dup1\n      0x40\n      mstore\n      pop\n      dup2\n      add\n      swap1\n      tag_132\n      swap2\n      swap1\n      tag_133\n      jump\t// in\n    tag_132:\n      pop\n        /* \"FlipKart.sol\":12747:12752  token */\n      0x0a\n      0x00\n      swap1\n      sload\n      swap1\n      0x0100\n      exp\n      swap1\n      div\n      0xffffffffffffffffffffffffffffffffffffffff\n      and\n        /* \"FlipKart.sol\":12737:12766  FlipToken(token).transferFrom */\n      0xffffffffffffffffffffffffffffffffffffffff\n      and\n      0x23b872dd\n        /* \"FlipKart.sol\":12781:12791  msg.sender */\n      caller\n        /* \"FlipKart.sol\":12806:12818  brandDetails */\n      0x01\n        /* \"FlipKart.sol\":12819:12826  rewards */\n      0x06\n        /* \"FlipKart.sol\":12827:12835  rewardId */\n      dup7\n        /* \"FlipKart.sol\":12819:12836  rewards[rewardId] */\n      mload(0x40)\n      tag_134\n      swap2\n      swap1\n      tag_109\n      jump\t// in\n    tag_134:\n      swap1\n      dup2\n      mstore\n      0x20\n      add\n      mload(0x40)\n      dup1\n      swap2\n      sub\n      swap1\n      keccak256\n        /* \"FlipKart.sol\":12819:12844  rewards[rewardId].brandId */\n      0x01\n      add\n        /* \"FlipKart.sol\":12806:12845  brandDetails[rewards[rewardId].brandId] */\n      mload(0x40)\n      tag_135\n      swap2\n      swap1\n      tag_111\n      jump\t// in\n    tag_135:\n      swap1\n      dup2\n      mstore\n      0x20\n      add\n      mload(0x40)\n      dup1\n      swap2\n      sub\n      swap1\n      keccak256\n        /* \"FlipKart.sol\":12806:12851  brandDetails[rewards[rewardId].brandId].owner */\n      0x03\n      add\n      0x00\n      swap1\n      sload\n      swap1\n      0x0100\n      exp\n      swap1\n      div\n      0xffffffffffffffffffffffffffffffffffffffff\n      and\n        /* \"FlipKart.sol\":12902:12910  10 ** 18 */\n      0x0de0b6b3a7640000\n        /* \"FlipKart.sol\":12866:12873  rewards */\n      0x06\n        /* \"FlipKart.sol\":12874:12882  rewardId */\n      dup8\n        /* \"FlipKart.sol\":12866:12883  rewards[rewardId] */\n      mload(0x40)\n      tag_136\n      swap2\n      swap1\n      tag_109\n      jump\t// in\n    tag_136:\n      swap1\n      dup2\n      mstore\n      0x20\n      add\n      mload(0x40)\n      dup1\n      swap2\n      sub\n      swap1\n      keccak256\n        /* \"FlipKart.sol\":12866:12898  rewards[rewardId].tokensRequired */\n      0x04\n      add\n      sload\n        /* \"FlipKart.sol\":12866:12911  rewards[rewardId].tokensRequired * (10 ** 18) */\n      tag_137\n      swap2\n      swap1\n      tag_127\n      jump\t// in\n    tag_137:\n        /* \"FlipKart.sol\":12737:12922  FlipToken(token).transferFrom(... */\n      mload(0x40)\n      dup5\n      0xffffffff\n      and\n      0xe0\n      shl\n      dup2\n      mstore\n      0x04\n      add\n      tag_138\n      swap4\n      swap3\n      swap2\n      swap1\n      tag_139\n      jump\t// in\n    tag_138:\n      0x20\n      mload(0x40)\n      dup1\n      dup4\n      sub\n      dup2\n      0x00\n      dup8\n      gas\n      call\n      iszero\n      dup1\n      iszero\n      tag_141\n      jumpi\n      returndatasize\n      0x00\n      dup1\n      returndatacopy\n      revert(0x00, returndatasize)\n    tag_141:\n      pop\n      pop\n      pop\n      pop\n      mload(0x40)\n      returndatasize\n      not(0x1f)\n      0x1f\n      dup3\n      add\n      and\n      dup3\n      add\n      dup1\n      0x40\n      mstore\n      pop\n      dup2\n      add\n      swap1\n      tag_142\n      swap2\n      swap1\n      tag_133\n      jump\t// in\n    tag_142:\n      pop\n        /* \"FlipKart.sol\":12020:12930  {... */\n      pop\n        /* \"FlipKart.sol\":11968:12930  function issueReward(string memory rewardId) public {... */\n      pop\n      jump\t// out\n        /* \"FlipKart.sol\":4629:5473  function registerUser(string memory name, string memory _referral) public {... */\n    tag_30:\n        /* \"FlipKart.sol\":4765:4766  0 */\n      0x00\n        /* \"FlipKart.sol\":4722:4767  userDetails[msg.sender].account == address(0) */\n      0xffffffffffffffffffffffffffffffffffffffff\n      and\n        /* \"FlipKart.sol\":4722:4733  userDetails */\n      0x03\n        /* \"FlipKart.sol\":4722:4745  userDetails[msg.sender] */\n      0x00\n        /* \"FlipKart.sol\":4734:4744  msg.sender */\n      caller\n        /* \"FlipKart.sol\":4722:4745  userDetails[msg.sender] */\n      0xffffffffffffffffffffffffffffffffffffffff\n      and\n      0xffffffffffffffffffffffffffffffffffffffff\n      and\n      dup2\n      mstore\n      0x20\n      add\n      swap1\n      dup2\n      mstore\n      0x20\n      add\n      0x00\n      keccak256\n        /* \"FlipKart.sol\":4722:4753  userDetails[msg.sender].account */\n      0x02\n      add\n      0x00\n      swap1\n      sload\n      swap1\n      0x0100\n      exp\n      swap1\n      div\n      0xffffffffffffffffffffffffffffffffffffffff\n      and\n        /* \"FlipKart.sol\":4722:4767  userDetails[msg.sender].account == address(0) */\n      0xffffffffffffffffffffffffffffffffffffffff\n      and\n      eq\n        /* \"FlipKart.sol\":4714:4768  require(userDetails[msg.sender].account == address(0)) */\n      tag_144\n      jumpi\n      0x00\n      dup1\n      revert\n    tag_144:\n        /* \"FlipKart.sol\":4779:4795  string memory id */\n      0x00\n        /* \"FlipKart.sol\":4798:4908  Strings.toHexString(... */\n      tag_145\n        /* \"FlipKart.sol\":4867:4877  msg.sender */\n      caller\n        /* \"FlipKart.sol\":4850:4878  abi.encodePacked(msg.sender) */\n      add(0x20, mload(0x40))\n      tag_146\n      swap2\n      swap1\n      tag_147\n      jump\t// in\n    tag_146:\n      mload(0x40)\n      0x20\n      dup2\n      dup4\n      sub\n      sub\n      dup2\n      mstore\n      swap1\n      0x40\n      mstore\n        /* \"FlipKart.sol\":4840:4879  keccak256(abi.encodePacked(msg.sender)) */\n      dup1\n      mload\n      swap1\n      0x20\n      add\n      keccak256\n        /* \"FlipKart.sol\":4832:4880  uint256(keccak256(abi.encodePacked(msg.sender))) */\n      0x00\n      shr\n        /* \"FlipKart.sol\":4895:4897  32 */\n      0x20\n        /* \"FlipKart.sol\":4798:4817  Strings.toHexString */\n      tag_148\n        /* \"FlipKart.sol\":4798:4908  Strings.toHexString(... */\n      jump\t// in\n    tag_145:\n        /* \"FlipKart.sol\":4779:4908  string memory id = Strings.toHexString(... */\n      swap1\n      pop\n        /* \"FlipKart.sol\":4948:4950  id */\n      dup1\n        /* \"FlipKart.sol\":4919:4930  userDetails */\n      0x03\n        /* \"FlipKart.sol\":4919:4942  userDetails[msg.sender] */\n      0x00\n        /* \"FlipKart.sol\":4931:4941  msg.sender */\n      caller\n        /* \"FlipKart.sol\":4919:4942  userDetails[msg.sender] */\n      0xffffffffffffffffffffffffffffffffffffffff\n      and\n      0xffffffffffffffffffffffffffffffffffffffff\n      and\n      dup2\n      mstore\n      0x20\n      add\n      swap1\n      dup2\n      mstore\n      0x20\n      add\n      0x00\n      keccak256\n        /* \"FlipKart.sol\":4919:4945  userDetails[msg.sender].id */\n      0x00\n      add\n        /* \"FlipKart.sol\":4919:4950  userDetails[msg.sender].id = id */\n      swap1\n      dup2\n      tag_149\n      swap2\n      swap1\n      tag_119\n      jump\t// in\n    tag_149:\n      pop\n        /* \"FlipKart.sol\":4992:4996  name */\n      dup3\n        /* \"FlipKart.sol\":4961:4972  userDetails */\n      0x03\n        /* \"FlipKart.sol\":4961:4984  userDetails[msg.sender] */\n      0x00\n        /* \"FlipKart.sol\":4973:4983  msg.sender */\n      caller\n        /* \"FlipKart.sol\":4961:4984  userDetails[msg.sender] */\n      0xffffffffffffffffffffffffffffffffffffffff\n      and\n      0xffffffffffffffffffffffffffffffffffffffff\n      and\n      dup2\n      mstore\n      0x20\n      add\n      swap1\n      dup2\n      mstore\n      0x20\n      add\n      0x00\n      keccak256\n        /* \"FlipKart.sol\":4961:4989  userDetails[msg.sender].name */\n      0x01\n      add\n        /* \"FlipKart.sol\":4961:4996  userDetails[msg.sender].name = name */\n      swap1\n      dup2\n      tag_150\n      swap2\n      swap1\n      tag_119\n      jump\t// in\n    tag_150:\n      pop\n        /* \"FlipKart.sol\":5041:5051  msg.sender */\n      caller\n        /* \"FlipKart.sol\":5007:5018  userDetails */\n      0x03\n        /* \"FlipKart.sol\":5007:5030  userDetails[msg.sender] */\n      0x00\n        /* \"FlipKart.sol\":5019:5029  msg.sender */\n      caller\n        /* \"FlipKart.sol\":5007:5030  userDetails[msg.sender] */\n      0xffffffffffffffffffffffffffffffffffffffff\n      and\n      0xffffffffffffffffffffffffffffffffffffffff\n      and\n      dup2\n      mstore\n      0x20\n      add\n      swap1\n      dup2\n      mstore\n      0x20\n      add\n      0x00\n      keccak256\n        /* \"FlipKart.sol\":5007:5038  userDetails[msg.sender].account */\n      0x02\n      add\n      0x00\n        /* \"FlipKart.sol\":5007:5051  userDetails[msg.sender].account = msg.sender */\n      0x0100\n      exp\n      dup2\n      sload\n      dup2\n      0xffffffffffffffffffffffffffffffffffffffff\n      mul\n      not\n      and\n      swap1\n      dup4\n      0xffffffffffffffffffffffffffffffffffffffff\n      and\n      mul\n      or\n      swap1\n      sstore\n      pop\n        /* \"FlipKart.sol\":5101:5121  generateRandomCode() */\n      tag_151\n        /* \"FlipKart.sol\":5101:5119  generateRandomCode */\n      tag_114\n        /* \"FlipKart.sol\":5101:5121  generateRandomCode() */\n      jump\t// in\n    tag_151:\n        /* \"FlipKart.sol\":5062:5073  userDetails */\n      0x03\n        /* \"FlipKart.sol\":5062:5085  userDetails[msg.sender] */\n      0x00\n        /* \"FlipKart.sol\":5074:5084  msg.sender */\n      caller\n        /* \"FlipKart.sol\":5062:5085  userDetails[msg.sender] */\n      0xffffffffffffffffffffffffffffffffffffffff\n      and\n      0xffffffffffffffffffffffffffffffffffffffff\n      and\n      dup2\n      mstore\n      0x20\n      add\n      swap1\n      dup2\n      mstore\n      0x20\n      add\n      0x00\n      keccak256\n        /* \"FlipKart.sol\":5062:5098  userDetails[msg.sender].referralCode */\n      0x05\n      add\n        /* \"FlipKart.sol\":5062:5121  userDetails[msg.sender].referralCode = generateRandomCode() */\n      swap1\n      dup2\n      tag_152\n      swap2\n      swap1\n      tag_119\n      jump\t// in\n    tag_152:\n      pop\n        /* \"FlipKart.sol\":5192:5202  msg.sender */\n      caller\n        /* \"FlipKart.sol\":5132:5151  referrerUserAddress */\n      0x05\n        /* \"FlipKart.sol\":5152:5163  userDetails */\n      0x03\n        /* \"FlipKart.sol\":5152:5175  userDetails[msg.sender] */\n      0x00\n        /* \"FlipKart.sol\":5164:5174  msg.sender */\n      caller\n        /* \"FlipKart.sol\":5152:5175  userDetails[msg.sender] */\n      0xffffffffffffffffffffffffffffffffffffffff\n      and\n      0xffffffffffffffffffffffffffffffffffffffff\n      and\n      dup2\n      mstore\n      0x20\n      add\n      swap1\n      dup2\n      mstore\n      0x20\n      add\n      0x00\n      keccak256\n        /* \"FlipKart.sol\":5152:5188  userDetails[msg.sender].referralCode */\n      0x05\n      add\n        /* \"FlipKart.sol\":5132:5189  referrerUserAddress[userDetails[msg.sender].referralCode] */\n      mload(0x40)\n      tag_153\n      swap2\n      swap1\n      tag_111\n      jump\t// in\n    tag_153:\n      swap1\n      dup2\n      mstore\n      0x20\n      add\n      mload(0x40)\n      dup1\n      swap2\n      sub\n      swap1\n      keccak256\n      0x00\n        /* \"FlipKart.sol\":5132:5202  referrerUserAddress[userDetails[msg.sender].referralCode] = msg.sender */\n      0x0100\n      exp\n      dup2\n      sload\n      dup2\n      0xffffffffffffffffffffffffffffffffffffffff\n      mul\n      not\n      and\n      swap1\n      dup4\n      0xffffffffffffffffffffffffffffffffffffffff\n      and\n      mul\n      or\n      swap1\n      sstore\n      pop\n        /* \"FlipKart.sol\":5259:5260  0 */\n      0x00\n        /* \"FlipKart.sol\":5217:5261  referrerUserAddress[_referral] != address(0) */\n      0xffffffffffffffffffffffffffffffffffffffff\n      and\n        /* \"FlipKart.sol\":5217:5236  referrerUserAddress */\n      0x05\n        /* \"FlipKart.sol\":5237:5246  _referral */\n      dup4\n        /* \"FlipKart.sol\":5217:5247  referrerUserAddress[_referral] */\n      mload(0x40)\n      tag_154\n      swap2\n      swap1\n      tag_109\n      jump\t// in\n    tag_154:\n      swap1\n      dup2\n      mstore\n      0x20\n      add\n      mload(0x40)\n      dup1\n      swap2\n      sub\n      swap1\n      keccak256\n      0x00\n      swap1\n      sload\n      swap1\n      0x0100\n      exp\n      swap1\n      div\n      0xffffffffffffffffffffffffffffffffffffffff\n      and\n        /* \"FlipKart.sol\":5217:5261  referrerUserAddress[_referral] != address(0) */\n      0xffffffffffffffffffffffffffffffffffffffff\n      and\n      eq\n        /* \"FlipKart.sol\":5213:5466  if (referrerUserAddress[_referral] != address(0)) {... */\n      tag_155\n      jumpi\n        /* \"FlipKart.sol\":5288:5293  token */\n      0x0a\n      0x00\n      swap1\n      sload\n      swap1\n      0x0100\n      exp\n      swap1\n      div\n      0xffffffffffffffffffffffffffffffffffffffff\n      and\n        /* \"FlipKart.sol\":5278:5299  FlipToken(token).mint */\n      0xffffffffffffffffffffffffffffffffffffffff\n      and\n      0xa0712d68\n        /* \"FlipKart.sol\":5300:5315  50 * (10 ** 18) */\n      0x02b5e3af16b1880000\n        /* \"FlipKart.sol\":5278:5316  FlipToken(token).mint(50 * (10 ** 18)) */\n      mload(0x40)\n      dup3\n      0xffffffff\n      and\n      0xe0\n      shl\n      dup2\n      mstore\n      0x04\n      add\n      tag_156\n      swap2\n      swap1\n      tag_157\n      jump\t// in\n    tag_156:\n      0x00\n      mload(0x40)\n      dup1\n      dup4\n      sub\n      dup2\n      0x00\n      dup8\n      dup1\n      extcodesize\n      iszero\n      dup1\n      iszero\n      tag_158\n      jumpi\n      0x00\n      dup1\n      revert\n    tag_158:\n      pop\n      gas\n      call\n      iszero\n      dup1\n      iszero\n      tag_160\n      jumpi\n      returndatasize\n      0x00\n      dup1\n      returndatacopy\n      revert(0x00, returndatasize)\n    tag_160:\n      pop\n      pop\n      pop\n      pop\n        /* \"FlipKart.sol\":5341:5346  token */\n      0x0a\n      0x00\n      swap1\n      sload\n      swap1\n      0x0100\n      exp\n      swap1\n      div\n      0xffffffffffffffffffffffffffffffffffffffff\n      and\n        /* \"FlipKart.sol\":5331:5356  FlipToken(token).transfer */\n      0xffffffffffffffffffffffffffffffffffffffff\n      and\n      0xa9059cbb\n        /* \"FlipKart.sol\":5375:5394  referrerUserAddress */\n      0x05\n        /* \"FlipKart.sol\":5395:5404  _referral */\n      dup5\n        /* \"FlipKart.sol\":5375:5405  referrerUserAddress[_referral] */\n      mload(0x40)\n      tag_161\n      swap2\n      swap1\n      tag_109\n      jump\t// in\n    tag_161:\n      swap1\n      dup2\n      mstore\n      0x20\n      add\n      mload(0x40)\n      dup1\n      swap2\n      sub\n      swap1\n      keccak256\n      0x00\n      swap1\n      sload\n      swap1\n      0x0100\n      exp\n      swap1\n      div\n      0xffffffffffffffffffffffffffffffffffffffff\n      and\n        /* \"FlipKart.sol\":5424:5439  50 * (10 ** 18) */\n      0x02b5e3af16b1880000\n        /* \"FlipKart.sol\":5331:5454  FlipToken(token).transfer(... */\n      mload(0x40)\n      dup4\n      0xffffffff\n      and\n      0xe0\n      shl\n      dup2\n      mstore\n      0x04\n      add\n      tag_162\n      swap3\n      swap2\n      swap1\n      tag_163\n      jump\t// in\n    tag_162:\n      0x20\n      mload(0x40)\n      dup1\n      dup4\n      sub\n      dup2\n      0x00\n      dup8\n      gas\n      call\n      iszero\n      dup1\n      iszero\n      tag_165\n      jumpi\n      returndatasize\n      0x00\n      dup1\n      returndatacopy\n      revert(0x00, returndatasize)\n    tag_165:\n      pop\n      pop\n      pop\n      pop\n      mload(0x40)\n      returndatasize\n      not(0x1f)\n      0x1f\n      dup3\n      add\n      and\n      dup3\n      add\n      dup1\n      0x40\n      mstore\n      pop\n      dup2\n      add\n      swap1\n      tag_166\n      swap2\n      swap1\n      tag_133\n      jump\t// in\n    tag_166:\n      pop\n        /* \"FlipKart.sol\":5213:5466  if (referrerUserAddress[_referral] != address(0)) {... */\n    tag_155:\n        /* \"FlipKart.sol\":4703:5473  {... */\n      pop\n        /* \"FlipKart.sol\":4629:5473  function registerUser(string memory name, string memory _referral) public {... */\n      pop\n      pop\n      jump\t// out\n        /* \"FlipKart.sol\":13107:13310  function showBrandProductDetails(... */\n    tag_34:\n        /* \"FlipKart.sol\":13234:13248  Product memory */\n      tag_167\n      tag_168\n      jump\t// in\n    tag_167:\n        /* \"FlipKart.sol\":13268:13282  productDetails */\n      0x02\n        /* \"FlipKart.sol\":13283:13290  brandId */\n      dup4\n        /* \"FlipKart.sol\":13268:13291  productDetails[brandId] */\n      mload(0x40)\n      tag_170\n      swap2\n      swap1\n      tag_109\n      jump\t// in\n    tag_170:\n      swap1\n      dup2\n      mstore\n      0x20\n      add\n      mload(0x40)\n      dup1\n      swap2\n      sub\n      swap1\n      keccak256\n        /* \"FlipKart.sol\":13292:13301  productId */\n      dup3\n        /* \"FlipKart.sol\":13268:13302  productDetails[brandId][productId] */\n      mload(0x40)\n      tag_171\n      swap2\n      swap1\n      tag_109\n      jump\t// in\n    tag_171:\n      swap1\n      dup2\n      mstore\n      0x20\n      add\n      mload(0x40)\n      dup1\n      swap2\n      sub\n      swap1\n      keccak256\n        /* \"FlipKart.sol\":13261:13302  return productDetails[brandId][productId] */\n      mload(0x40)\n      dup1\n      0xa0\n      add\n      0x40\n      mstore\n      swap1\n      dup2\n      0x00\n      dup3\n      add\n      dup1\n      sload\n      tag_172\n      swap1\n      tag_173\n      jump\t// in\n    tag_172:\n      dup1\n      0x1f\n      add\n      0x20\n      dup1\n      swap2\n      div\n      mul\n      0x20\n      add\n      mload(0x40)\n      swap1\n      dup2\n      add\n      0x40\n      mstore\n      dup1\n      swap3\n      swap2\n      swap1\n      dup2\n      dup2\n      mstore\n      0x20\n      add\n      dup3\n      dup1\n      sload\n      tag_174\n      swap1\n      tag_173\n      jump\t// in\n    tag_174:\n      dup1\n      iszero\n      tag_175\n      jumpi\n      dup1\n      0x1f\n      lt\n      tag_176\n      jumpi\n      0x0100\n      dup1\n      dup4\n      sload\n      div\n      mul\n      dup4\n      mstore\n      swap2\n      0x20\n      add\n      swap2\n      jump(tag_175)\n    tag_176:\n      dup3\n      add\n      swap2\n      swap1\n      0x00\n      mstore\n      keccak256(0x00, 0x20)\n      swap1\n    tag_177:\n      dup2\n      sload\n      dup2\n      mstore\n      swap1\n      0x01\n      add\n      swap1\n      0x20\n      add\n      dup1\n      dup4\n      gt\n      tag_177\n      jumpi\n      dup3\n      swap1\n      sub\n      0x1f\n      and\n      dup3\n      add\n      swap2\n    tag_175:\n      pop\n      pop\n      pop\n      pop\n      pop\n      dup2\n      mstore\n      0x20\n      add\n      0x01\n      dup3\n      add\n      dup1\n      sload\n      tag_178\n      swap1\n      tag_173\n      jump\t// in\n    tag_178:\n      dup1\n      0x1f\n      add\n      0x20\n      dup1\n      swap2\n      div\n      mul\n      0x20\n      add\n      mload(0x40)\n      swap1\n      dup2\n      add\n      0x40\n      mstore\n      dup1\n      swap3\n      swap2\n      swap1\n      dup2\n      dup2\n      mstore\n      0x20\n      add\n      dup3\n      dup1\n      sload\n      tag_179\n      swap1\n      tag_173\n      jump\t// in\n    tag_179:\n      dup1\n      iszero\n      tag_180\n      jumpi\n      dup1\n      0x1f\n      lt\n      tag_181\n      jumpi\n      0x0100\n      dup1\n      dup4\n      sload\n      div\n      mul\n      dup4\n      mstore\n      swap2\n      0x20\n      add\n      swap2\n      jump(tag_180)\n    tag_181:\n      dup3\n      add\n      swap2\n      swap1\n      0x00\n      mstore\n      keccak256(0x00, 0x20)\n      swap1\n    tag_182:\n      dup2\n      sload\n      dup2\n      mstore\n      swap1\n      0x01\n      add\n      swap1\n      0x20\n      add\n      dup1\n      dup4\n      gt\n      tag_182\n      jumpi\n      dup3\n      swap1\n      sub\n      0x1f\n      and\n      dup3\n      add\n      swap2\n    tag_180:\n      pop\n      pop\n      pop\n      pop\n      pop\n      dup2\n      mstore\n      0x20\n      add\n      0x02\n      dup3\n      add\n      dup1\n      sload\n      tag_183\n      swap1\n      tag_173\n      jump\t// in\n    tag_183:\n      dup1\n      0x1f\n      add\n      0x20\n      dup1\n      swap2\n      div\n      mul\n      0x20\n      add\n      mload(0x40)\n      swap1\n      dup2\n      add\n      0x40\n      mstore\n      dup1\n      swap3\n      swap2\n      swap1\n      dup2\n      dup2\n      mstore\n      0x20\n      add\n      dup3\n      dup1\n      sload\n      tag_184\n      swap1\n      tag_173\n      jump\t// in\n    tag_184:\n      dup1\n      iszero\n      tag_185\n      jumpi\n      dup1\n      0x1f\n      lt\n      tag_186\n      jumpi\n      0x0100\n      dup1\n      dup4\n      sload\n      div\n      mul\n      dup4\n      mstore\n      swap2\n      0x20\n      add\n      swap2\n      jump(tag_185)\n    tag_186:\n      dup3\n      add\n      swap2\n      swap1\n      0x00\n      mstore\n      keccak256(0x00, 0x20)\n      swap1\n    tag_187:\n      dup2\n      sload\n      dup2\n      mstore\n      swap1\n      0x01\n      add\n      swap1\n      0x20\n      add\n      dup1\n      dup4\n      gt\n      tag_187\n      jumpi\n      dup3\n      swap1\n      sub\n      0x1f\n      and\n      dup3\n      add\n      swap2\n    tag_185:\n      pop\n      pop\n      pop\n      pop\n      pop\n      dup2\n      mstore\n      0x20\n      add\n      0x03\n      dup3\n      add\n      sload\n      dup2\n      mstore\n      0x20\n      add\n      0x04\n      dup3\n      add\n      0x00\n      swap1\n      sload\n      swap1\n      0x0100\n      exp\n      swap1\n      div\n      0xff\n      and\n      iszero\n      iszero\n      iszero\n      iszero\n      dup2\n      mstore\n      pop\n      pop\n      swap1\n      pop\n        /* \"FlipKart.sol\":13107:13310  function showBrandProductDetails(... */\n      swap3\n      swap2\n      pop\n      pop\n      jump\t// out\n        /* \"FlipKart.sol\":3428:3884  function issueTokens(string memory brandId, uint tokens) public {... */\n    tag_41:\n        /* \"FlipKart.sol\":3542:3552  msg.sender */\n      caller\n        /* \"FlipKart.sol\":3511:3552  brandDetails[brandId].owner == msg.sender */\n      0xffffffffffffffffffffffffffffffffffffffff\n      and\n        /* \"FlipKart.sol\":3511:3523  brandDetails */\n      0x01\n        /* \"FlipKart.sol\":3524:3531  brandId */\n      dup4\n        /* \"FlipKart.sol\":3511:3532  brandDetails[brandId] */\n      mload(0x40)\n      tag_189\n      swap2\n      swap1\n      tag_109\n      jump\t// in\n    tag_189:\n      swap1\n      dup2\n      mstore\n      0x20\n      add\n      mload(0x40)\n      dup1\n      swap2\n      sub\n      swap1\n      keccak256\n        /* \"FlipKart.sol\":3511:3538  brandDetails[brandId].owner */\n      0x03\n      add\n      0x00\n      swap1\n      sload\n      swap1\n      0x0100\n      exp\n      swap1\n      div\n      0xffffffffffffffffffffffffffffffffffffffff\n      and\n        /* \"FlipKart.sol\":3511:3552  brandDetails[brandId].owner == msg.sender */\n      0xffffffffffffffffffffffffffffffffffffffff\n      and\n      eq\n        /* \"FlipKart.sol\":3503:3553  require(brandDetails[brandId].owner == msg.sender) */\n      tag_190\n      jumpi\n      0x00\n      dup1\n      revert\n    tag_190:\n        /* \"FlipKart.sol\":3564:3585  uint tokensToBeIssued */\n      0x00\n        /* \"FlipKart.sol\":3598:3606  10 ** 18 */\n      0x0de0b6b3a7640000\n        /* \"FlipKart.sol\":3588:3594  tokens */\n      dup3\n        /* \"FlipKart.sol\":3588:3607  tokens * (10 ** 18) */\n      tag_191\n      swap2\n      swap1\n      tag_127\n      jump\t// in\n    tag_191:\n        /* \"FlipKart.sol\":3564:3607  uint tokensToBeIssued = tokens * (10 ** 18) */\n      swap1\n      pop\n        /* \"FlipKart.sol\":3646:3686  showBalance(brandDetails[brandId].owner) */\n      tag_192\n        /* \"FlipKart.sol\":3658:3670  brandDetails */\n      0x01\n        /* \"FlipKart.sol\":3671:3678  brandId */\n      dup5\n        /* \"FlipKart.sol\":3658:3679  brandDetails[brandId] */\n      mload(0x40)\n      tag_193\n      swap2\n      swap1\n      tag_109\n      jump\t// in\n    tag_193:\n      swap1\n      dup2\n      mstore\n      0x20\n      add\n      mload(0x40)\n      dup1\n      swap2\n      sub\n      swap1\n      keccak256\n        /* \"FlipKart.sol\":3658:3685  brandDetails[brandId].owner */\n      0x03\n      add\n      0x00\n      swap1\n      sload\n      swap1\n      0x0100\n      exp\n      swap1\n      div\n      0xffffffffffffffffffffffffffffffffffffffff\n      and\n        /* \"FlipKart.sol\":3646:3657  showBalance */\n      tag_80\n        /* \"FlipKart.sol\":3646:3686  showBalance(brandDetails[brandId].owner) */\n      jump\t// in\n    tag_192:\n        /* \"FlipKart.sol\":3626:3642  tokensToBeIssued */\n      dup2\n        /* \"FlipKart.sol\":3626:3686  tokensToBeIssued <= showBalance(brandDetails[brandId].owner) */\n      gt\n      iszero\n        /* \"FlipKart.sol\":3618:3687  require(tokensToBeIssued <= showBalance(brandDetails[brandId].owner)) */\n      tag_194\n      jumpi\n      0x00\n      dup1\n      revert\n    tag_194:\n        /* \"FlipKart.sol\":3708:3713  token */\n      0x0a\n      0x00\n      swap1\n      sload\n      swap1\n      0x0100\n      exp\n      swap1\n      div\n      0xffffffffffffffffffffffffffffffffffffffff\n      and\n        /* \"FlipKart.sol\":3698:3722  FlipToken(token).approve */\n      0xffffffffffffffffffffffffffffffffffffffff\n      and\n      0x095ea7b3\n        /* \"FlipKart.sol\":3723:3733  msg.sender */\n      caller\n        /* \"FlipKart.sol\":3735:3751  tokensToBeIssued */\n      dup4\n        /* \"FlipKart.sol\":3698:3752  FlipToken(token).approve(msg.sender, tokensToBeIssued) */\n      mload(0x40)\n      dup4\n      0xffffffff\n      and\n      0xe0\n      shl\n      dup2\n      mstore\n      0x04\n      add\n      tag_195\n      swap3\n      swap2\n      swap1\n      tag_129\n      jump\t// in\n    tag_195:\n      0x20\n      mload(0x40)\n      dup1\n      dup4\n      sub\n      dup2\n      0x00\n      dup8\n      gas\n      call\n      iszero\n      dup1\n      iszero\n      tag_197\n      jumpi\n      returndatasize\n      0x00\n      dup1\n      returndatacopy\n      revert(0x00, returndatasize)\n    tag_197:\n      pop\n      pop\n      pop\n      pop\n      mload(0x40)\n      returndatasize\n      not(0x1f)\n      0x1f\n      dup3\n      add\n      and\n      dup3\n      add\n      dup1\n      0x40\n      mstore\n      pop\n      dup2\n      add\n      swap1\n      tag_198\n      swap2\n      swap1\n      tag_133\n      jump\t// in\n    tag_198:\n      pop\n        /* \"FlipKart.sol\":3803:3807  true */\n      0x01\n        /* \"FlipKart.sol\":3763:3775  brandDetails */\n      dup1\n        /* \"FlipKart.sol\":3776:3783  brandId */\n      dup5\n        /* \"FlipKart.sol\":3763:3784  brandDetails[brandId] */\n      mload(0x40)\n      tag_199\n      swap2\n      swap1\n      tag_109\n      jump\t// in\n    tag_199:\n      swap1\n      dup2\n      mstore\n      0x20\n      add\n      mload(0x40)\n      dup1\n      swap2\n      sub\n      swap1\n      keccak256\n        /* \"FlipKart.sol\":3763:3800  brandDetails[brandId].isIssuingTokens */\n      0x06\n      add\n      0x00\n        /* \"FlipKart.sol\":3763:3807  brandDetails[brandId].isIssuingTokens = true */\n      0x0100\n      exp\n      dup2\n      sload\n      dup2\n      0xff\n      mul\n      not\n      and\n      swap1\n      dup4\n      iszero\n      iszero\n      mul\n      or\n      swap1\n      sstore\n      pop\n        /* \"FlipKart.sol\":3860:3876  tokensToBeIssued */\n      dup1\n        /* \"FlipKart.sol\":3818:3830  brandDetails */\n      0x01\n        /* \"FlipKart.sol\":3831:3838  brandId */\n      dup5\n        /* \"FlipKart.sol\":3818:3839  brandDetails[brandId] */\n      mload(0x40)\n      tag_200\n      swap2\n      swap1\n      tag_109\n      jump\t// in\n    tag_200:\n      swap1\n      dup2\n      mstore\n      0x20\n      add\n      mload(0x40)\n      dup1\n      swap2\n      sub\n      swap1\n      keccak256\n        /* \"FlipKart.sol\":3818:3856  brandDetails[brandId].rewardTokensLeft */\n      0x07\n      add\n      0x00\n        /* \"FlipKart.sol\":3818:3876  brandDetails[brandId].rewardTokensLeft += tokensToBeIssued */\n      dup3\n      dup3\n      sload\n      tag_201\n      swap2\n      swap1\n      tag_202\n      jump\t// in\n    tag_201:\n      swap3\n      pop\n      pop\n      dup2\n      swap1\n      sstore\n      pop\n        /* \"FlipKart.sol\":3492:3884  {... */\n      pop\n        /* \"FlipKart.sol\":3428:3884  function issueTokens(string memory brandId, uint tokens) public {... */\n      pop\n      pop\n      jump\t// out\n        /* \"FlipKart.sol\":1400:1444  mapping(string => Brand) public brandDetails */\n    tag_45:\n      0x01\n      dup2\n      dup1\n      mload\n      0x20\n      dup2\n      add\n      dup3\n      add\n      dup1\n      mload\n      dup5\n      dup3\n      mstore\n      0x20\n      dup4\n      add\n      0x20\n      dup6\n      add\n      keccak256\n      dup2\n      dup4\n      mstore\n      dup1\n      swap6\n      pop\n      pop\n      pop\n      pop\n      pop\n      pop\n      0x00\n      swap2\n      pop\n      swap1\n      pop\n      dup1\n      0x00\n      add\n      dup1\n      sload\n      tag_203\n      swap1\n      tag_173\n      jump\t// in\n    tag_203:\n      dup1\n      0x1f\n      add\n      0x20\n      dup1\n      swap2\n      div\n      mul\n      0x20\n      add\n      mload(0x40)\n      swap1\n      dup2\n      add\n      0x40\n      mstore\n      dup1\n      swap3\n      swap2\n      swap1\n      dup2\n      dup2\n      mstore\n      0x20\n      add\n      dup3\n      dup1\n      sload\n      tag_204\n      swap1\n      tag_173\n      jump\t// in\n    tag_204:\n      dup1\n      iszero\n      tag_205\n      jumpi\n      dup1\n      0x1f\n      lt\n      tag_206\n      jumpi\n      0x0100\n      dup1\n      dup4\n      sload\n      div\n      mul\n      dup4\n      mstore\n      swap2\n      0x20\n      add\n      swap2\n      jump(tag_205)\n    tag_206:\n      dup3\n      add\n      swap2\n      swap1\n      0x00\n      mstore\n      keccak256(0x00, 0x20)\n      swap1\n    tag_207:\n      dup2\n      sload\n      dup2\n      mstore\n      swap1\n      0x01\n      add\n      swap1\n      0x20\n      add\n      dup1\n      dup4\n      gt\n      tag_207\n      jumpi\n      dup3\n      swap1\n      sub\n      0x1f\n      and\n      dup3\n      add\n      swap2\n    tag_205:\n      pop\n      pop\n      pop\n      pop\n      pop\n      swap1\n      dup1\n      0x01\n      add\n      dup1\n      sload\n      tag_208\n      swap1\n      tag_173\n      jump\t// in\n    tag_208:\n      dup1\n      0x1f\n      add\n      0x20\n      dup1\n      swap2\n      div\n      mul\n      0x20\n      add\n      mload(0x40)\n      swap1\n      dup2\n      add\n      0x40\n      mstore\n      dup1\n      swap3\n      swap2\n      swap1\n      dup2\n      dup2\n      mstore\n      0x20\n      add\n      dup3\n      dup1\n      sload\n      tag_209\n      swap1\n      tag_173\n      jump\t// in\n    tag_209:\n      dup1\n      iszero\n      tag_210\n      jumpi\n      dup1\n      0x1f\n      lt\n      tag_211\n      jumpi\n      0x0100\n      dup1\n      dup4\n      sload\n      div\n      mul\n      dup4\n      mstore\n      swap2\n      0x20\n      add\n      swap2\n      jump(tag_210)\n    tag_211:\n      dup3\n      add\n      swap2\n      swap1\n      0x00\n      mstore\n      keccak256(0x00, 0x20)\n      swap1\n    tag_212:\n      dup2\n      sload\n      dup2\n      mstore\n      swap1\n      0x01\n      add\n      swap1\n      0x20\n      add\n      dup1\n      dup4\n      gt\n      tag_212\n      jumpi\n      dup3\n      swap1\n      sub\n      0x1f\n      and\n      dup3\n      add\n      swap2\n    tag_210:\n      pop\n      pop\n      pop\n      pop\n      pop\n      swap1\n      dup1\n      0x02\n      add\n      dup1\n      sload\n      tag_213\n      swap1\n      tag_173\n      jump\t// in\n    tag_213:\n      dup1\n      0x1f\n      add\n      0x20\n      dup1\n      swap2\n      div\n      mul\n      0x20\n      add\n      mload(0x40)\n      swap1\n      dup2\n      add\n      0x40\n      mstore\n      dup1\n      swap3\n      swap2\n      swap1\n      dup2\n      dup2\n      mstore\n      0x20\n      add\n      dup3\n      dup1\n      sload\n      tag_214\n      swap1\n      tag_173\n      jump\t// in\n    tag_214:\n      dup1\n      iszero\n      tag_215\n      jumpi\n      dup1\n      0x1f\n      lt\n      tag_216\n      jumpi\n      0x0100\n      dup1\n      dup4\n      sload\n      div\n      mul\n      dup4\n      mstore\n      swap2\n      0x20\n      add\n      swap2\n      jump(tag_215)\n    tag_216:\n      dup3\n      add\n      swap2\n      swap1\n      0x00\n      mstore\n      keccak256(0x00, 0x20)\n      swap1\n    tag_217:\n      dup2\n      sload\n      dup2\n      mstore\n      swap1\n      0x01\n      add\n      swap1\n      0x20\n      add\n      dup1\n      dup4\n      gt\n      tag_217\n      jumpi\n      dup3\n      swap1\n      sub\n      0x1f\n      and\n      dup3\n      add\n      swap2\n    tag_215:\n      pop\n      pop\n      pop\n      pop\n      pop\n      swap1\n      dup1\n      0x03\n      add\n      0x00\n      swap1\n      sload\n      swap1\n      0x0100\n      exp\n      swap1\n      div\n      0xffffffffffffffffffffffffffffffffffffffff\n      and\n      swap1\n      dup1\n      0x06\n      add\n      0x00\n      swap1\n      sload\n      swap1\n      0x0100\n      exp\n      swap1\n      div\n      0xff\n      and\n      swap1\n      dup1\n      0x07\n      add\n      sload\n      swap1\n      dup1\n      0x08\n      add\n      sload\n      swap1\n      pop\n      dup8\n      jump\t// out\n        /* \"FlipKart.sol\":2635:3420  function registerBrand(... */\n    tag_51:\n        /* \"FlipKart.sol\":2854:2871  98000000000000000 */\n      0x015c2a7b13fd0000\n        /* \"FlipKart.sol\":2841:2850  msg.value */\n      callvalue\n        /* \"FlipKart.sol\":2841:2871  msg.value == 98000000000000000 */\n      eq\n        /* \"FlipKart.sol\":2833:2872  require(msg.value == 98000000000000000) */\n      tag_219\n      jumpi\n      0x00\n      dup1\n      revert\n    tag_219:\n        /* \"FlipKart.sol\":2883:2899  string memory id */\n      0x00\n        /* \"FlipKart.sol\":2902:3018  Strings.toHexString(... */\n      tag_220\n        /* \"FlipKart.sol\":2971:2975  name */\n      dup6\n        /* \"FlipKart.sol\":2977:2987  msg.sender */\n      caller\n        /* \"FlipKart.sol\":2954:2988  abi.encodePacked(name, msg.sender) */\n      add(0x20, mload(0x40))\n      tag_221\n      swap3\n      swap2\n      swap1\n      tag_222\n      jump\t// in\n    tag_221:\n      mload(0x40)\n      0x20\n      dup2\n      dup4\n      sub\n      sub\n      dup2\n      mstore\n      swap1\n      0x40\n      mstore\n        /* \"FlipKart.sol\":2944:2989  keccak256(abi.encodePacked(name, msg.sender)) */\n      dup1\n      mload\n      swap1\n      0x20\n      add\n      keccak256\n        /* \"FlipKart.sol\":2936:2990  uint256(keccak256(abi.encodePacked(name, msg.sender))) */\n      0x00\n      shr\n        /* \"FlipKart.sol\":3005:3007  32 */\n      0x20\n        /* \"FlipKart.sol\":2902:2921  Strings.toHexString */\n      tag_148\n        /* \"FlipKart.sol\":2902:3018  Strings.toHexString(... */\n      jump\t// in\n    tag_220:\n        /* \"FlipKart.sol\":2883:3018  string memory id = Strings.toHexString(... */\n      swap1\n      pop\n        /* \"FlipKart.sol\":3063:3073  msg.sender */\n      caller\n        /* \"FlipKart.sol\":3037:3073  brandDetails[id].owner != msg.sender */\n      0xffffffffffffffffffffffffffffffffffffffff\n      and\n        /* \"FlipKart.sol\":3037:3049  brandDetails */\n      0x01\n        /* \"FlipKart.sol\":3050:3052  id */\n      dup3\n        /* \"FlipKart.sol\":3037:3053  brandDetails[id] */\n      mload(0x40)\n      tag_223\n      swap2\n      swap1\n      tag_109\n      jump\t// in\n    tag_223:\n      swap1\n      dup2\n      mstore\n      0x20\n      add\n      mload(0x40)\n      dup1\n      swap2\n      sub\n      swap1\n      keccak256\n        /* \"FlipKart.sol\":3037:3059  brandDetails[id].owner */\n      0x03\n      add\n      0x00\n      swap1\n      sload\n      swap1\n      0x0100\n      exp\n      swap1\n      div\n      0xffffffffffffffffffffffffffffffffffffffff\n      and\n        /* \"FlipKart.sol\":3037:3073  brandDetails[id].owner != msg.sender */\n      0xffffffffffffffffffffffffffffffffffffffff\n      and\n      sub\n        /* \"FlipKart.sol\":3029:3074  require(brandDetails[id].owner != msg.sender) */\n      tag_224\n      jumpi\n      0x00\n      dup1\n      revert\n    tag_224:\n        /* \"FlipKart.sol\":3085:3091  brands */\n      0x00\n        /* \"FlipKart.sol\":3097:3099  id */\n      dup2\n        /* \"FlipKart.sol\":3085:3100  brands.push(id) */\n      swap1\n      dup1\n      0x01\n      dup2\n      sload\n      add\n      dup1\n      dup3\n      sstore\n      dup1\n      swap2\n      pop\n      pop\n      0x01\n      swap1\n      sub\n      swap1\n      0x00\n      mstore\n      keccak256(0x00, 0x20)\n      add\n      0x00\n      swap1\n      swap2\n      swap1\n      swap2\n      swap1\n      swap2\n      pop\n      swap1\n      dup2\n      tag_226\n      swap2\n      swap1\n      tag_119\n      jump\t// in\n    tag_226:\n      pop\n        /* \"FlipKart.sol\":3133:3135  id */\n      dup1\n        /* \"FlipKart.sol\":3111:3123  brandDetails */\n      0x01\n        /* \"FlipKart.sol\":3124:3126  id */\n      dup3\n        /* \"FlipKart.sol\":3111:3127  brandDetails[id] */\n      mload(0x40)\n      tag_227\n      swap2\n      swap1\n      tag_109\n      jump\t// in\n    tag_227:\n      swap1\n      dup2\n      mstore\n      0x20\n      add\n      mload(0x40)\n      dup1\n      swap2\n      sub\n      swap1\n      keccak256\n        /* \"FlipKart.sol\":3111:3130  brandDetails[id].id */\n      0x00\n      add\n        /* \"FlipKart.sol\":3111:3135  brandDetails[id].id = id */\n      swap1\n      dup2\n      tag_228\n      swap2\n      swap1\n      tag_119\n      jump\t// in\n    tag_228:\n      pop\n        /* \"FlipKart.sol\":3170:3174  name */\n      dup5\n        /* \"FlipKart.sol\":3146:3158  brandDetails */\n      0x01\n        /* \"FlipKart.sol\":3159:3161  id */\n      dup3\n        /* \"FlipKart.sol\":3146:3162  brandDetails[id] */\n      mload(0x40)\n      tag_229\n      swap2\n      swap1\n      tag_109\n      jump\t// in\n    tag_229:\n      swap1\n      dup2\n      mstore\n      0x20\n      add\n      mload(0x40)\n      dup1\n      swap2\n      sub\n      swap1\n      keccak256\n        /* \"FlipKart.sol\":3146:3167  brandDetails[id].name */\n      0x01\n      add\n        /* \"FlipKart.sol\":3146:3174  brandDetails[id].name = name */\n      swap1\n      dup2\n      tag_230\n      swap2\n      swap1\n      tag_119\n      jump\t// in\n    tag_230:\n      pop\n        /* \"FlipKart.sol\":3213:3221  category */\n      dup4\n        /* \"FlipKart.sol\":3185:3197  brandDetails */\n      0x01\n        /* \"FlipKart.sol\":3198:3200  id */\n      dup3\n        /* \"FlipKart.sol\":3185:3201  brandDetails[id] */\n      mload(0x40)\n      tag_231\n      swap2\n      swap1\n      tag_109\n      jump\t// in\n    tag_231:\n      swap1\n      dup2\n      mstore\n      0x20\n      add\n      mload(0x40)\n      dup1\n      swap2\n      sub\n      swap1\n      keccak256\n        /* \"FlipKart.sol\":3185:3210  brandDetails[id].category */\n      0x02\n      add\n        /* \"FlipKart.sol\":3185:3221  brandDetails[id].category = category */\n      swap1\n      dup2\n      tag_232\n      swap2\n      swap1\n      tag_119\n      jump\t// in\n    tag_232:\n      pop\n        /* \"FlipKart.sol\":3265:3275  msg.sender */\n      caller\n        /* \"FlipKart.sol\":3232:3244  brandDetails */\n      0x01\n        /* \"FlipKart.sol\":3245:3247  id */\n      dup3\n        /* \"FlipKart.sol\":3232:3248  brandDetails[id] */\n      mload(0x40)\n      tag_233\n      swap2\n      swap1\n      tag_109\n      jump\t// in\n    tag_233:\n      swap1\n      dup2\n      mstore\n      0x20\n      add\n      mload(0x40)\n      dup1\n      swap2\n      sub\n      swap1\n      keccak256\n        /* \"FlipKart.sol\":3232:3254  brandDetails[id].owner */\n      0x03\n      add\n      0x00\n        /* \"FlipKart.sol\":3232:3276  brandDetails[id].owner = payable(msg.sender) */\n      0x0100\n      exp\n      dup2\n      sload\n      dup2\n      0xffffffffffffffffffffffffffffffffffffffff\n      mul\n      not\n      and\n      swap1\n      dup4\n      0xffffffffffffffffffffffffffffffffffffffff\n      and\n      mul\n      or\n      swap1\n      sstore\n      pop\n        /* \"FlipKart.sol\":3328:3349  rewardPricePercentage */\n      dup3\n        /* \"FlipKart.sol\":3287:3299  brandDetails */\n      0x01\n        /* \"FlipKart.sol\":3300:3302  id */\n      dup3\n        /* \"FlipKart.sol\":3287:3303  brandDetails[id] */\n      mload(0x40)\n      tag_234\n      swap2\n      swap1\n      tag_109\n      jump\t// in\n    tag_234:\n      swap1\n      dup2\n      mstore\n      0x20\n      add\n      mload(0x40)\n      dup1\n      swap2\n      sub\n      swap1\n      keccak256\n        /* \"FlipKart.sol\":3287:3325  brandDetails[id].rewardPricePercentage */\n      0x08\n      add\n        /* \"FlipKart.sol\":3287:3349  brandDetails[id].rewardPricePercentage = rewardPricePercentage */\n      dup2\n      swap1\n      sstore\n      pop\n        /* \"FlipKart.sol\":3396:3412  rewardMilestones */\n      dup2\n        /* \"FlipKart.sol\":3360:3372  brandDetails */\n      0x01\n        /* \"FlipKart.sol\":3373:3375  id */\n      dup3\n        /* \"FlipKart.sol\":3360:3376  brandDetails[id] */\n      mload(0x40)\n      tag_235\n      swap2\n      swap1\n      tag_109\n      jump\t// in\n    tag_235:\n      swap1\n      dup2\n      mstore\n      0x20\n      add\n      mload(0x40)\n      dup1\n      swap2\n      sub\n      swap1\n      keccak256\n        /* \"FlipKart.sol\":3360:3393  brandDetails[id].rewardMilestones */\n      0x09\n      add\n        /* \"FlipKart.sol\":3360:3412  brandDetails[id].rewardMilestones = rewardMilestones */\n      swap1\n      dup1\n      mload\n      swap1\n      0x20\n      add\n      swap1\n      tag_236\n      swap3\n      swap2\n      swap1\n      tag_237\n      jump\t// in\n    tag_236:\n      pop\n        /* \"FlipKart.sol\":2822:3420  {... */\n      pop\n        /* \"FlipKart.sol\":2635:3420  function registerBrand(... */\n      pop\n      pop\n      pop\n      pop\n      jump\t// out\n        /* \"FlipKart.sol\":1525:1568  mapping(address => User) public userDetails */\n    tag_56:\n      mstore(0x20, 0x03)\n      dup1\n      0x00\n      mstore\n      keccak256(0x00, 0x40)\n      0x00\n      swap2\n      pop\n      swap1\n      pop\n      dup1\n      0x00\n      add\n      dup1\n      sload\n      tag_238\n      swap1\n      tag_173\n      jump\t// in\n    tag_238:\n      dup1\n      0x1f\n      add\n      0x20\n      dup1\n      swap2\n      div\n      mul\n      0x20\n      add\n      mload(0x40)\n      swap1\n      dup2\n      add\n      0x40\n      mstore\n      dup1\n      swap3\n      swap2\n      swap1\n      dup2\n      dup2\n      mstore\n      0x20\n      add\n      dup3\n      dup1\n      sload\n      tag_239\n      swap1\n      tag_173\n      jump\t// in\n    tag_239:\n      dup1\n      iszero\n      tag_240\n      jumpi\n      dup1\n      0x1f\n      lt\n      tag_241\n      jumpi\n      0x0100\n      dup1\n      dup4\n      sload\n      div\n      mul\n      dup4\n      mstore\n      swap2\n      0x20\n      add\n      swap2\n      jump(tag_240)\n    tag_241:\n      dup3\n      add\n      swap2\n      swap1\n      0x00\n      mstore\n      keccak256(0x00, 0x20)\n      swap1\n    tag_242:\n      dup2\n      sload\n      dup2\n      mstore\n      swap1\n      0x01\n      add\n      swap1\n      0x20\n      add\n      dup1\n      dup4\n      gt\n      tag_242\n      jumpi\n      dup3\n      swap1\n      sub\n      0x1f\n      and\n      dup3\n      add\n      swap2\n    tag_240:\n      pop\n      pop\n      pop\n      pop\n      pop\n      swap1\n      dup1\n      0x01\n      add\n      dup1\n      sload\n      tag_243\n      swap1\n      tag_173\n      jump\t// in\n    tag_243:\n      dup1\n      0x1f\n      add\n      0x20\n      dup1\n      swap2\n      div\n      mul\n      0x20\n      add\n      mload(0x40)\n      swap1\n      dup2\n      add\n      0x40\n      mstore\n      dup1\n      swap3\n      swap2\n      swap1\n      dup2\n      dup2\n      mstore\n      0x20\n      add\n      dup3\n      dup1\n      sload\n      tag_244\n      swap1\n      tag_173\n      jump\t// in\n    tag_244:\n      dup1\n      iszero\n      tag_245\n      jumpi\n      dup1\n      0x1f\n      lt\n      tag_246\n      jumpi\n      0x0100\n      dup1\n      dup4\n      sload\n      div\n      mul\n      dup4\n      mstore\n      swap2\n      0x20\n      add\n      swap2\n      jump(tag_245)\n    tag_246:\n      dup3\n      add\n      swap2\n      swap1\n      0x00\n      mstore\n      keccak256(0x00, 0x20)\n      swap1\n    tag_247:\n      dup2\n      sload\n      dup2\n      mstore\n      swap1\n      0x01\n      add\n      swap1\n      0x20\n      add\n      dup1\n      dup4\n      gt\n      tag_247\n      jumpi\n      dup3\n      swap1\n      sub\n      0x1f\n      and\n      dup3\n      add\n      swap2\n    tag_245:\n      pop\n      pop\n      pop\n      pop\n      pop\n      swap1\n      dup1\n      0x02\n      add\n      0x00\n      swap1\n      sload\n      swap1\n      0x0100\n      exp\n      swap1\n      div\n      0xffffffffffffffffffffffffffffffffffffffff\n      and\n      swap1\n      dup1\n      0x05\n      add\n      dup1\n      sload\n      tag_248\n      swap1\n      tag_173\n      jump\t// in\n    tag_248:\n      dup1\n      0x1f\n      add\n      0x20\n      dup1\n      swap2\n      div\n      mul\n      0x20\n      add\n      mload(0x40)\n      swap1\n      dup2\n      add\n      0x40\n      mstore\n      dup1\n      swap3\n      swap2\n      swap1\n      dup2\n      dup2\n      mstore\n      0x20\n      add\n      dup3\n      dup1\n      sload\n      tag_249\n      swap1\n      tag_173\n      jump\t// in\n    tag_249:\n      dup1\n      iszero\n      tag_250\n      jumpi\n      dup1\n      0x1f\n      lt\n      tag_251\n      jumpi\n      0x0100\n      dup1\n      dup4\n      sload\n      div\n      mul\n      dup4\n      mstore\n      swap2\n      0x20\n      add\n      swap2\n      jump(tag_250)\n    tag_251:\n      dup3\n      add\n      swap2\n      swap1\n      0x00\n      mstore\n      keccak256(0x00, 0x20)\n      swap1\n    tag_252:\n      dup2\n      sload\n      dup2\n      mstore\n      swap1\n      0x01\n      add\n      swap1\n      0x20\n      add\n      dup1\n      dup4\n      gt\n      tag_252\n      jumpi\n      dup3\n      swap1\n      sub\n      0x1f\n      and\n      dup3\n      add\n      swap2\n    tag_250:\n      pop\n      pop\n      pop\n      pop\n      pop\n      swap1\n      pop\n      dup5\n      jump\t// out\n        /* \"FlipKart.sol\":5800:11275  function buyProduct(... */\n    tag_62:\n        /* \"FlipKart.sol\":6036:6046  msg.sender */\n      caller\n        /* \"FlipKart.sol\":6001:6046  userDetails[msg.sender].account == msg.sender */\n      0xffffffffffffffffffffffffffffffffffffffff\n      and\n        /* \"FlipKart.sol\":6001:6012  userDetails */\n      0x03\n        /* \"FlipKart.sol\":6001:6024  userDetails[msg.sender] */\n      0x00\n        /* \"FlipKart.sol\":6013:6023  msg.sender */\n      caller\n        /* \"FlipKart.sol\":6001:6024  userDetails[msg.sender] */\n      0xffffffffffffffffffffffffffffffffffffffff\n      and\n      0xffffffffffffffffffffffffffffffffffffffff\n      and\n      dup2\n      mstore\n      0x20\n      add\n      swap1\n      dup2\n      mstore\n      0x20\n      add\n      0x00\n      keccak256\n        /* \"FlipKart.sol\":6001:6032  userDetails[msg.sender].account */\n      0x02\n      add\n      0x00\n      swap1\n      sload\n      swap1\n      0x0100\n      exp\n      swap1\n      div\n      0xffffffffffffffffffffffffffffffffffffffff\n      and\n        /* \"FlipKart.sol\":6001:6046  userDetails[msg.sender].account == msg.sender */\n      0xffffffffffffffffffffffffffffffffffffffff\n      and\n      eq\n        /* \"FlipKart.sol\":5993:6047  require(userDetails[msg.sender].account == msg.sender) */\n      tag_254\n      jumpi\n      0x00\n      dup1\n      revert\n    tag_254:\n        /* \"FlipKart.sol\":6105:6106  0 */\n      0x00\n        /* \"FlipKart.sol\":6066:6107  brandDetails[brandId].owner != address(0) */\n      0xffffffffffffffffffffffffffffffffffffffff\n      and\n        /* \"FlipKart.sol\":6066:6078  brandDetails */\n      0x01\n        /* \"FlipKart.sol\":6079:6086  brandId */\n      dup6\n        /* \"FlipKart.sol\":6066:6087  brandDetails[brandId] */\n      mload(0x40)\n      tag_255\n      swap2\n      swap1\n      tag_109\n      jump\t// in\n    tag_255:\n      swap1\n      dup2\n      mstore\n      0x20\n      add\n      mload(0x40)\n      dup1\n      swap2\n      sub\n      swap1\n      keccak256\n        /* \"FlipKart.sol\":6066:6093  brandDetails[brandId].owner */\n      0x03\n      add\n      0x00\n      swap1\n      sload\n      swap1\n      0x0100\n      exp\n      swap1\n      div\n      0xffffffffffffffffffffffffffffffffffffffff\n      and\n        /* \"FlipKart.sol\":6066:6107  brandDetails[brandId].owner != address(0) */\n      0xffffffffffffffffffffffffffffffffffffffff\n      and\n      sub\n        /* \"FlipKart.sol\":6058:6108  require(brandDetails[brandId].owner != address(0)) */\n      tag_256\n      jumpi\n      0x00\n      dup1\n      revert\n    tag_256:\n        /* \"FlipKart.sol\":6127:6141  productDetails */\n      0x02\n        /* \"FlipKart.sol\":6142:6149  brandId */\n      dup5\n        /* \"FlipKart.sol\":6127:6150  productDetails[brandId] */\n      mload(0x40)\n      tag_257\n      swap2\n      swap1\n      tag_109\n      jump\t// in\n    tag_257:\n      swap1\n      dup2\n      mstore\n      0x20\n      add\n      mload(0x40)\n      dup1\n      swap2\n      sub\n      swap1\n      keccak256\n        /* \"FlipKart.sol\":6151:6160  productId */\n      dup4\n        /* \"FlipKart.sol\":6127:6161  productDetails[brandId][productId] */\n      mload(0x40)\n      tag_258\n      swap2\n      swap1\n      tag_109\n      jump\t// in\n    tag_258:\n      swap1\n      dup2\n      mstore\n      0x20\n      add\n      mload(0x40)\n      dup1\n      swap2\n      sub\n      swap1\n      keccak256\n        /* \"FlipKart.sol\":6127:6171  productDetails[brandId][productId].available */\n      0x04\n      add\n      0x00\n      swap1\n      sload\n      swap1\n      0x0100\n      exp\n      swap1\n      div\n      0xff\n      and\n        /* \"FlipKart.sol\":6119:6172  require(productDetails[brandId][productId].available) */\n      tag_259\n      jumpi\n      0x00\n      dup1\n      revert\n    tag_259:\n        /* \"FlipKart.sol\":6183:6198  uint priceToPay */\n      0x00\n        /* \"FlipKart.sol\":6209:6232  uint tokensToBeRedeemed */\n      dup1\n        /* \"FlipKart.sol\":6243:6271  string memory rewardRedeemed */\n      0x60\n        /* \"FlipKart.sol\":6282:6301  Brand storage brand */\n      0x00\n        /* \"FlipKart.sol\":6304:6316  brandDetails */\n      0x01\n        /* \"FlipKart.sol\":6317:6324  brandId */\n      dup9\n        /* \"FlipKart.sol\":6304:6325  brandDetails[brandId] */\n      mload(0x40)\n      tag_260\n      swap2\n      swap1\n      tag_109\n      jump\t// in\n    tag_260:\n      swap1\n      dup2\n      mstore\n      0x20\n      add\n      mload(0x40)\n      dup1\n      swap2\n      sub\n      swap1\n      keccak256\n        /* \"FlipKart.sol\":6282:6325  Brand storage brand = brandDetails[brandId] */\n      swap1\n      pop\n        /* \"FlipKart.sol\":6340:6357  isRedeemingTokens */\n      dup6\n        /* \"FlipKart.sol\":6336:7052  if (isRedeemingTokens) {... */\n      iszero\n      tag_261\n      jumpi\n        /* \"FlipKart.sol\":6374:6390  uint userBalance */\n      0x00\n        /* \"FlipKart.sol\":6393:6416  showBalance(msg.sender) */\n      tag_262\n        /* \"FlipKart.sol\":6405:6415  msg.sender */\n      caller\n        /* \"FlipKart.sol\":6393:6404  showBalance */\n      tag_80\n        /* \"FlipKart.sol\":6393:6416  showBalance(msg.sender) */\n      jump\t// in\n    tag_262:\n        /* \"FlipKart.sol\":6374:6416  uint userBalance = showBalance(msg.sender) */\n      swap1\n      pop\n        /* \"FlipKart.sol\":6431:6455  uint maxRedeemableTokens */\n      0x00\n        /* \"FlipKart.sol\":6539:6549  tokenValue */\n      sload(0x0b)\n        /* \"FlipKart.sol\":6535:6536  2 */\n      0x02\n        /* \"FlipKart.sol\":6535:6549  2 * tokenValue */\n      tag_263\n      swap2\n      swap1\n      tag_127\n      jump\t// in\n    tag_263:\n        /* \"FlipKart.sol\":6521:6529  10 ** 18 */\n      0x0de0b6b3a7640000\n        /* \"FlipKart.sol\":6459:6473  productDetails */\n      0x02\n        /* \"FlipKart.sol\":6474:6481  brandId */\n      dup13\n        /* \"FlipKart.sol\":6459:6482  productDetails[brandId] */\n      mload(0x40)\n      tag_264\n      swap2\n      swap1\n      tag_109\n      jump\t// in\n    tag_264:\n      swap1\n      dup2\n      mstore\n      0x20\n      add\n      mload(0x40)\n      dup1\n      swap2\n      sub\n      swap1\n      keccak256\n        /* \"FlipKart.sol\":6483:6492  productId */\n      dup12\n        /* \"FlipKart.sol\":6459:6493  productDetails[brandId][productId] */\n      mload(0x40)\n      tag_265\n      swap2\n      swap1\n      tag_109\n      jump\t// in\n    tag_265:\n      swap1\n      dup2\n      mstore\n      0x20\n      add\n      mload(0x40)\n      dup1\n      swap2\n      sub\n      swap1\n      keccak256\n        /* \"FlipKart.sol\":6459:6517  productDetails[brandId][productId]... */\n      0x03\n      add\n      sload\n        /* \"FlipKart.sol\":6459:6530  productDetails[brandId][productId]... */\n      tag_266\n      swap2\n      swap1\n      tag_127\n      jump\t// in\n    tag_266:\n        /* \"FlipKart.sol\":6458:6550  (productDetails[brandId][productId]... */\n      tag_267\n      swap2\n      swap1\n      tag_268\n      jump\t// in\n    tag_267:\n        /* \"FlipKart.sol\":6431:6550  uint maxRedeemableTokens = (productDetails[brandId][productId]... */\n      swap1\n      pop\n        /* \"FlipKart.sol\":6585:6604  maxRedeemableTokens */\n      dup1\n        /* \"FlipKart.sol\":6571:6582  userBalance */\n      dup3\n        /* \"FlipKart.sol\":6571:6604  userBalance < maxRedeemableTokens */\n      lt\n        /* \"FlipKart.sol\":6567:6780  if (userBalance < maxRedeemableTokens) {... */\n      iszero\n      tag_269\n      jumpi\n        /* \"FlipKart.sol\":6661:6669  10 ** 18 */\n      0x0de0b6b3a7640000\n        /* \"FlipKart.sol\":6646:6657  userBalance */\n      dup3\n        /* \"FlipKart.sol\":6646:6670  userBalance / (10 ** 18) */\n      tag_270\n      swap2\n      swap1\n      tag_268\n      jump\t// in\n    tag_270:\n        /* \"FlipKart.sol\":6625:6670  tokensToBeRedeemed = userBalance / (10 ** 18) */\n      swap5\n      pop\n        /* \"FlipKart.sol\":6567:6780  if (userBalance < maxRedeemableTokens) {... */\n      jump(tag_271)\n    tag_269:\n        /* \"FlipKart.sol\":6755:6763  10 ** 18 */\n      0x0de0b6b3a7640000\n        /* \"FlipKart.sol\":6732:6751  maxRedeemableTokens */\n      dup2\n        /* \"FlipKart.sol\":6732:6764  maxRedeemableTokens / (10 ** 18) */\n      tag_272\n      swap2\n      swap1\n      tag_268\n      jump\t// in\n    tag_272:\n        /* \"FlipKart.sol\":6711:6764  tokensToBeRedeemed = maxRedeemableTokens / (10 ** 18) */\n      swap5\n      pop\n        /* \"FlipKart.sol\":6567:6780  if (userBalance < maxRedeemableTokens) {... */\n    tag_271:\n        /* \"FlipKart.sol\":6906:6916  tokenValue */\n      sload(0x0b)\n        /* \"FlipKart.sol\":6885:6903  tokensToBeRedeemed */\n      dup6\n        /* \"FlipKart.sol\":6885:6916  tokensToBeRedeemed * tokenValue */\n      tag_273\n      swap2\n      swap1\n      tag_127\n      jump\t// in\n    tag_273:\n        /* \"FlipKart.sol\":6824:6838  productDetails */\n      0x02\n        /* \"FlipKart.sol\":6839:6846  brandId */\n      dup12\n        /* \"FlipKart.sol\":6824:6847  productDetails[brandId] */\n      mload(0x40)\n      tag_274\n      swap2\n      swap1\n      tag_109\n      jump\t// in\n    tag_274:\n      swap1\n      dup2\n      mstore\n      0x20\n      add\n      mload(0x40)\n      dup1\n      swap2\n      sub\n      swap1\n      keccak256\n        /* \"FlipKart.sol\":6848:6857  productId */\n      dup11\n        /* \"FlipKart.sol\":6824:6858  productDetails[brandId][productId] */\n      mload(0x40)\n      tag_275\n      swap2\n      swap1\n      tag_109\n      jump\t// in\n    tag_275:\n      swap1\n      dup2\n      mstore\n      0x20\n      add\n      mload(0x40)\n      dup1\n      swap2\n      sub\n      swap1\n      keccak256\n        /* \"FlipKart.sol\":6824:6864  productDetails[brandId][productId].price */\n      0x03\n      add\n      sload\n        /* \"FlipKart.sol\":6824:6917  productDetails[brandId][productId].price -... */\n      tag_276\n      swap2\n      swap1\n      tag_277\n      jump\t// in\n    tag_276:\n        /* \"FlipKart.sol\":6794:6917  priceToPay =... */\n      swap6\n      pop\n        /* \"FlipKart.sol\":6359:6929  {... */\n      pop\n      pop\n        /* \"FlipKart.sol\":6336:7052  if (isRedeemingTokens) {... */\n      jump(tag_278)\n    tag_261:\n        /* \"FlipKart.sol\":6963:6977  productDetails */\n      0x02\n        /* \"FlipKart.sol\":6978:6985  brandId */\n      dup9\n        /* \"FlipKart.sol\":6963:6986  productDetails[brandId] */\n      mload(0x40)\n      tag_279\n      swap2\n      swap1\n      tag_109\n      jump\t// in\n    tag_279:\n      swap1\n      dup2\n      mstore\n      0x20\n      add\n      mload(0x40)\n      dup1\n      swap2\n      sub\n      swap1\n      keccak256\n        /* \"FlipKart.sol\":6987:6996  productId */\n      dup8\n        /* \"FlipKart.sol\":6963:6997  productDetails[brandId][productId] */\n      mload(0x40)\n      tag_280\n      swap2\n      swap1\n      tag_109\n      jump\t// in\n    tag_280:\n      swap1\n      dup2\n      mstore\n      0x20\n      add\n      mload(0x40)\n      dup1\n      swap2\n      sub\n      swap1\n      keccak256\n        /* \"FlipKart.sol\":6963:7003  productDetails[brandId][productId].price */\n      0x03\n      add\n      sload\n        /* \"FlipKart.sol\":6950:7003  priceToPay = productDetails[brandId][productId].price */\n      swap4\n      pop\n        /* \"FlipKart.sol\":7039:7040  0 */\n      0x00\n        /* \"FlipKart.sol\":7018:7040  tokensToBeRedeemed = 0 */\n      swap3\n      pop\n        /* \"FlipKart.sol\":6336:7052  if (isRedeemingTokens) {... */\n    tag_278:\n        /* \"FlipKart.sol\":7188:7192  true */\n      0x01\n        /* \"FlipKart.sol\":7082:7192  redeemableRewardValidity[userDetails[msg.sender].id][... */\n      iszero\n      iszero\n        /* \"FlipKart.sol\":7082:7106  redeemableRewardValidity */\n      0x09\n        /* \"FlipKart.sol\":7107:7118  userDetails */\n      0x03\n        /* \"FlipKart.sol\":7107:7130  userDetails[msg.sender] */\n      0x00\n        /* \"FlipKart.sol\":7119:7129  msg.sender */\n      caller\n        /* \"FlipKart.sol\":7107:7130  userDetails[msg.sender] */\n      0xffffffffffffffffffffffffffffffffffffffff\n      and\n      0xffffffffffffffffffffffffffffffffffffffff\n      and\n      dup2\n      mstore\n      0x20\n      add\n      swap1\n      dup2\n      mstore\n      0x20\n      add\n      0x00\n      keccak256\n        /* \"FlipKart.sol\":7107:7133  userDetails[msg.sender].id */\n      0x00\n      add\n        /* \"FlipKart.sol\":7082:7134  redeemableRewardValidity[userDetails[msg.sender].id] */\n      mload(0x40)\n      tag_281\n      swap2\n      swap1\n      tag_111\n      jump\t// in\n    tag_281:\n      swap1\n      dup2\n      mstore\n      0x20\n      add\n      mload(0x40)\n      dup1\n      swap2\n      sub\n      swap1\n      keccak256\n        /* \"FlipKart.sol\":7153:7169  rewardRedeemCode */\n      dup7\n        /* \"FlipKart.sol\":7082:7184  redeemableRewardValidity[userDetails[msg.sender].id][... */\n      mload(0x40)\n      tag_282\n      swap2\n      swap1\n      tag_109\n      jump\t// in\n    tag_282:\n      swap1\n      dup2\n      mstore\n      0x20\n      add\n      mload(0x40)\n      dup1\n      swap2\n      sub\n      swap1\n      keccak256\n      0x00\n      swap1\n      sload\n      swap1\n      0x0100\n      exp\n      swap1\n      div\n      0xff\n      and\n        /* \"FlipKart.sol\":7082:7192  redeemableRewardValidity[userDetails[msg.sender].id][... */\n      iszero\n      iszero\n      sub\n        /* \"FlipKart.sol\":7064:7609  if (... */\n      tag_283\n      jumpi\n        /* \"FlipKart.sol\":7219:7239  Reward memory reward */\n      0x00\n        /* \"FlipKart.sol\":7242:7249  rewards */\n      0x06\n        /* \"FlipKart.sol\":7268:7286  redeemableRewardId */\n      0x07\n        /* \"FlipKart.sol\":7287:7303  rewardRedeemCode */\n      dup8\n        /* \"FlipKart.sol\":7268:7304  redeemableRewardId[rewardRedeemCode] */\n      mload(0x40)\n      tag_284\n      swap2\n      swap1\n      tag_109\n      jump\t// in\n    tag_284:\n      swap1\n      dup2\n      mstore\n      0x20\n      add\n      mload(0x40)\n      dup1\n      swap2\n      sub\n      swap1\n      keccak256\n        /* \"FlipKart.sol\":7242:7319  rewards[... */\n      mload(0x40)\n      tag_285\n      swap2\n      swap1\n      tag_111\n      jump\t// in\n    tag_285:\n      swap1\n      dup2\n      mstore\n      0x20\n      add\n      mload(0x40)\n      dup1\n      swap2\n      sub\n      swap1\n      keccak256\n        /* \"FlipKart.sol\":7219:7319  Reward memory reward = rewards[... */\n      mload(0x40)\n      dup1\n      0xa0\n      add\n      0x40\n      mstore\n      swap1\n      dup2\n      0x00\n      dup3\n      add\n      dup1\n      sload\n      tag_286\n      swap1\n      tag_173\n      jump\t// in\n    tag_286:\n      dup1\n      0x1f\n      add\n      0x20\n      dup1\n      swap2\n      div\n      mul\n      0x20\n      add\n      mload(0x40)\n      swap1\n      dup2\n      add\n      0x40\n      mstore\n      dup1\n      swap3\n      swap2\n      swap1\n      dup2\n      dup2\n      mstore\n      0x20\n      add\n      dup3\n      dup1\n      sload\n      tag_287\n      swap1\n      tag_173\n      jump\t// in\n    tag_287:\n      dup1\n      iszero\n      tag_288\n      jumpi\n      dup1\n      0x1f\n      lt\n      tag_289\n      jumpi\n      0x0100\n      dup1\n      dup4\n      sload\n      div\n      mul\n      dup4\n      mstore\n      swap2\n      0x20\n      add\n      swap2\n      jump(tag_288)\n    tag_289:\n      dup3\n      add\n      swap2\n      swap1\n      0x00\n      mstore\n      keccak256(0x00, 0x20)\n      swap1\n    tag_290:\n      dup2\n      sload\n      dup2\n      mstore\n      swap1\n      0x01\n      add\n      swap1\n      0x20\n      add\n      dup1\n      dup4\n      gt\n      tag_290\n      jumpi\n      dup3\n      swap1\n      sub\n      0x1f\n      and\n      dup3\n      add\n      swap2\n    tag_288:\n      pop\n      pop\n      pop\n      pop\n      pop\n      dup2\n      mstore\n      0x20\n      add\n      0x01\n      dup3\n      add\n      dup1\n      sload\n      tag_291\n      swap1\n      tag_173\n      jump\t// in\n    tag_291:\n      dup1\n      0x1f\n      add\n      0x20\n      dup1\n      swap2\n      div\n      mul\n      0x20\n      add\n      mload(0x40)\n      swap1\n      dup2\n      add\n      0x40\n      mstore\n      dup1\n      swap3\n      swap2\n      swap1\n      dup2\n      dup2\n      mstore\n      0x20\n      add\n      dup3\n      dup1\n      sload\n      tag_292\n      swap1\n      tag_173\n      jump\t// in\n    tag_292:\n      dup1\n      iszero\n      tag_293\n      jumpi\n      dup1\n      0x1f\n      lt\n      tag_294\n      jumpi\n      0x0100\n      dup1\n      dup4\n      sload\n      div\n      mul\n      dup4\n      mstore\n      swap2\n      0x20\n      add\n      swap2\n      jump(tag_293)\n    tag_294:\n      dup3\n      add\n      swap2\n      swap1\n      0x00\n      mstore\n      keccak256(0x00, 0x20)\n      swap1\n    tag_295:\n      dup2\n      sload\n      dup2\n      mstore\n      swap1\n      0x01\n      add\n      swap1\n      0x20\n      add\n      dup1\n      dup4\n      gt\n      tag_295\n      jumpi\n      dup3\n      swap1\n      sub\n      0x1f\n      and\n      dup3\n      add\n      swap2\n    tag_293:\n      pop\n      pop\n      pop\n      pop\n      pop\n      dup2\n      mstore\n      0x20\n      add\n      0x02\n      dup3\n      add\n      sload\n      dup2\n      mstore\n      0x20\n      add\n      0x03\n      dup3\n      add\n      sload\n      dup2\n      mstore\n      0x20\n      add\n      0x04\n      dup3\n      add\n      sload\n      dup2\n      mstore\n      pop\n      pop\n      swap1\n      pop\n        /* \"FlipKart.sol\":7396:7402  reward */\n      dup1\n        /* \"FlipKart.sol\":7396:7419  reward.maxDiscountPrice */\n      0x60\n      add\n      mload\n        /* \"FlipKart.sol\":7389:7392  100 */\n      0x64\n        /* \"FlipKart.sol\":7375:7385  priceToPay */\n      dup7\n        /* \"FlipKart.sol\":7357:7363  reward */\n      dup4\n        /* \"FlipKart.sol\":7357:7372  reward.discount */\n      0x40\n      add\n      mload\n        /* \"FlipKart.sol\":7357:7385  reward.discount * priceToPay */\n      tag_296\n      swap2\n      swap1\n      tag_127\n      jump\t// in\n    tag_296:\n        /* \"FlipKart.sol\":7356:7392  (reward.discount * priceToPay) / 100 */\n      tag_297\n      swap2\n      swap1\n      tag_268\n      jump\t// in\n    tag_297:\n        /* \"FlipKart.sol\":7356:7419  (reward.discount * priceToPay) / 100 <= reward.maxDiscountPrice */\n      gt\n        /* \"FlipKart.sol\":7334:7598  if (... */\n      tag_298\n      jumpi\n        /* \"FlipKart.sol\":7501:7504  100 */\n      0x64\n        /* \"FlipKart.sol\":7487:7497  priceToPay */\n      dup6\n        /* \"FlipKart.sol\":7469:7475  reward */\n      dup3\n        /* \"FlipKart.sol\":7469:7484  reward.discount */\n      0x40\n      add\n      mload\n        /* \"FlipKart.sol\":7469:7497  reward.discount * priceToPay */\n      tag_299\n      swap2\n      swap1\n      tag_127\n      jump\t// in\n    tag_299:\n        /* \"FlipKart.sol\":7468:7504  (reward.discount * priceToPay) / 100 */\n      tag_300\n      swap2\n      swap1\n      tag_268\n      jump\t// in\n    tag_300:\n        /* \"FlipKart.sol\":7454:7504  priceToPay -= (reward.discount * priceToPay) / 100 */\n      dup6\n      tag_301\n      swap2\n      swap1\n      tag_277\n      jump\t// in\n    tag_301:\n      swap5\n      pop\n        /* \"FlipKart.sol\":7334:7598  if (... */\n      jump(tag_302)\n    tag_298:\n        /* \"FlipKart.sol\":7559:7565  reward */\n      dup1\n        /* \"FlipKart.sol\":7559:7582  reward.maxDiscountPrice */\n      0x60\n      add\n      mload\n        /* \"FlipKart.sol\":7545:7582  priceToPay -= reward.maxDiscountPrice */\n      dup6\n      tag_303\n      swap2\n      swap1\n      tag_277\n      jump\t// in\n    tag_303:\n      swap5\n      pop\n        /* \"FlipKart.sol\":7334:7598  if (... */\n    tag_302:\n        /* \"FlipKart.sol\":7204:7609  {... */\n      pop\n        /* \"FlipKart.sol\":7064:7609  if (... */\n    tag_283:\n        /* \"FlipKart.sol\":7642:7652  priceToPay */\n      dup4\n        /* \"FlipKart.sol\":7629:7638  msg.value */\n      callvalue\n        /* \"FlipKart.sol\":7629:7652  msg.value == priceToPay */\n      eq\n        /* \"FlipKart.sol\":7621:7653  require(msg.value == priceToPay) */\n      tag_304\n      jumpi\n      0x00\n      dup1\n      revert\n    tag_304:\n        /* \"FlipKart.sol\":7790:7794  true */\n      0x01\n        /* \"FlipKart.sol\":7684:7794  redeemableRewardValidity[userDetails[msg.sender].id][... */\n      iszero\n      iszero\n        /* \"FlipKart.sol\":7684:7708  redeemableRewardValidity */\n      0x09\n        /* \"FlipKart.sol\":7709:7720  userDetails */\n      0x03\n        /* \"FlipKart.sol\":7709:7732  userDetails[msg.sender] */\n      0x00\n        /* \"FlipKart.sol\":7721:7731  msg.sender */\n      caller\n        /* \"FlipKart.sol\":7709:7732  userDetails[msg.sender] */\n      0xffffffffffffffffffffffffffffffffffffffff\n      and\n      0xffffffffffffffffffffffffffffffffffffffff\n      and\n      dup2\n      mstore\n      0x20\n      add\n      swap1\n      dup2\n      mstore\n      0x20\n      add\n      0x00\n      keccak256\n        /* \"FlipKart.sol\":7709:7735  userDetails[msg.sender].id */\n      0x00\n      add\n        /* \"FlipKart.sol\":7684:7736  redeemableRewardValidity[userDetails[msg.sender].id] */\n      mload(0x40)\n      tag_305\n      swap2\n      swap1\n      tag_111\n      jump\t// in\n    tag_305:\n      swap1\n      dup2\n      mstore\n      0x20\n      add\n      mload(0x40)\n      dup1\n      swap2\n      sub\n      swap1\n      keccak256\n        /* \"FlipKart.sol\":7755:7771  rewardRedeemCode */\n      dup7\n        /* \"FlipKart.sol\":7684:7786  redeemableRewardValidity[userDetails[msg.sender].id][... */\n      mload(0x40)\n      tag_306\n      swap2\n      swap1\n      tag_109\n      jump\t// in\n    tag_306:\n      swap1\n      dup2\n      mstore\n      0x20\n      add\n      mload(0x40)\n      dup1\n      swap2\n      sub\n      swap1\n      keccak256\n      0x00\n      swap1\n      sload\n      swap1\n      0x0100\n      exp\n      swap1\n      div\n      0xff\n      and\n        /* \"FlipKart.sol\":7684:7794  redeemableRewardValidity[userDetails[msg.sender].id][... */\n      iszero\n      iszero\n      sub\n        /* \"FlipKart.sol\":7666:8023  if (... */\n      tag_307\n      jumpi\n        /* \"FlipKart.sol\":7926:7931  false */\n      0x00\n        /* \"FlipKart.sol\":7821:7845  redeemableRewardValidity */\n      0x09\n        /* \"FlipKart.sol\":7846:7857  userDetails */\n      0x03\n        /* \"FlipKart.sol\":7846:7869  userDetails[msg.sender] */\n      0x00\n        /* \"FlipKart.sol\":7858:7868  msg.sender */\n      caller\n        /* \"FlipKart.sol\":7846:7869  userDetails[msg.sender] */\n      0xffffffffffffffffffffffffffffffffffffffff\n      and\n      0xffffffffffffffffffffffffffffffffffffffff\n      and\n      dup2\n      mstore\n      0x20\n      add\n      swap1\n      dup2\n      mstore\n      0x20\n      add\n      0x00\n      keccak256\n        /* \"FlipKart.sol\":7846:7872  userDetails[msg.sender].id */\n      0x00\n      add\n        /* \"FlipKart.sol\":7821:7873  redeemableRewardValidity[userDetails[msg.sender].id] */\n      mload(0x40)\n      tag_308\n      swap2\n      swap1\n      tag_111\n      jump\t// in\n    tag_308:\n      swap1\n      dup2\n      mstore\n      0x20\n      add\n      mload(0x40)\n      dup1\n      swap2\n      sub\n      swap1\n      keccak256\n        /* \"FlipKart.sol\":7892:7908  rewardRedeemCode */\n      dup7\n        /* \"FlipKart.sol\":7821:7923  redeemableRewardValidity[userDetails[msg.sender].id][... */\n      mload(0x40)\n      tag_309\n      swap2\n      swap1\n      tag_109\n      jump\t// in\n    tag_309:\n      swap1\n      dup2\n      mstore\n      0x20\n      add\n      mload(0x40)\n      dup1\n      swap2\n      sub\n      swap1\n      keccak256\n      0x00\n        /* \"FlipKart.sol\":7821:7931  redeemableRewardValidity[userDetails[msg.sender].id][... */\n      0x0100\n      exp\n      dup2\n      sload\n      dup2\n      0xff\n      mul\n      not\n      and\n      swap1\n      dup4\n      iszero\n      iszero\n      mul\n      or\n      swap1\n      sstore\n      pop\n        /* \"FlipKart.sol\":7963:7970  rewards */\n      0x06\n        /* \"FlipKart.sol\":7971:7989  redeemableRewardId */\n      0x07\n        /* \"FlipKart.sol\":7990:8006  rewardRedeemCode */\n      dup7\n        /* \"FlipKart.sol\":7971:8007  redeemableRewardId[rewardRedeemCode] */\n      mload(0x40)\n      tag_310\n      swap2\n      swap1\n      tag_109\n      jump\t// in\n    tag_310:\n      swap1\n      dup2\n      mstore\n      0x20\n      add\n      mload(0x40)\n      dup1\n      swap2\n      sub\n      swap1\n      keccak256\n        /* \"FlipKart.sol\":7963:8008  rewards[redeemableRewardId[rewardRedeemCode]] */\n      mload(0x40)\n      tag_311\n      swap2\n      swap1\n      tag_111\n      jump\t// in\n    tag_311:\n      swap1\n      dup2\n      mstore\n      0x20\n      add\n      mload(0x40)\n      dup1\n      swap2\n      sub\n      swap1\n      keccak256\n        /* \"FlipKart.sol\":7963:8011  rewards[redeemableRewardId[rewardRedeemCode]].id */\n      0x00\n      add\n        /* \"FlipKart.sol\":7946:8011  rewardRedeemed = rewards[redeemableRewardId[rewardRedeemCode]].id */\n      dup1\n      sload\n      tag_312\n      swap1\n      tag_173\n      jump\t// in\n    tag_312:\n      dup1\n      0x1f\n      add\n      0x20\n      dup1\n      swap2\n      div\n      mul\n      0x20\n      add\n      mload(0x40)\n      swap1\n      dup2\n      add\n      0x40\n      mstore\n      dup1\n      swap3\n      swap2\n      swap1\n      dup2\n      dup2\n      mstore\n      0x20\n      add\n      dup3\n      dup1\n      sload\n      tag_313\n      swap1\n      tag_173\n      jump\t// in\n    tag_313:\n      dup1\n      iszero\n      tag_314\n      jumpi\n      dup1\n      0x1f\n      lt\n      tag_315\n      jumpi\n      0x0100\n      dup1\n      dup4\n      sload\n      div\n      mul\n      dup4\n      mstore\n      swap2\n      0x20\n      add\n      swap2\n      jump(tag_314)\n    tag_315:\n      dup3\n      add\n      swap2\n      swap1\n      0x00\n      mstore\n      keccak256(0x00, 0x20)\n      swap1\n    tag_316:\n      dup2\n      sload\n      dup2\n      mstore\n      swap1\n      0x01\n      add\n      swap1\n      0x20\n      add\n      dup1\n      dup4\n      gt\n      tag_316\n      jumpi\n      dup3\n      swap1\n      sub\n      0x1f\n      and\n      dup3\n      add\n      swap2\n    tag_314:\n      pop\n      pop\n      pop\n      pop\n      pop\n      swap2\n      pop\n        /* \"FlipKart.sol\":7666:8023  if (... */\n    tag_307:\n        /* \"FlipKart.sol\":8035:8054  uint costToPlatform */\n      0x00\n        /* \"FlipKart.sol\":8070:8072  10 */\n      0x0a\n        /* \"FlipKart.sol\":8057:8067  priceToPay */\n      dup6\n        /* \"FlipKart.sol\":8057:8072  priceToPay / 10 */\n      tag_317\n      swap2\n      swap1\n      tag_268\n      jump\t// in\n    tag_317:\n        /* \"FlipKart.sol\":8035:8072  uint costToPlatform = priceToPay / 10 */\n      swap1\n      pop\n        /* \"FlipKart.sol\":8083:8088  brand */\n      dup2\n        /* \"FlipKart.sol\":8083:8094  brand.owner */\n      0x03\n      add\n      0x00\n      swap1\n      sload\n      swap1\n      0x0100\n      exp\n      swap1\n      div\n      0xffffffffffffffffffffffffffffffffffffffff\n      and\n        /* \"FlipKart.sol\":8083:8103  brand.owner.transfer */\n      0xffffffffffffffffffffffffffffffffffffffff\n      and\n        /* \"FlipKart.sol\":8083:8131  brand.owner.transfer(msg.value - costToPlatform) */\n      0x08fc\n        /* \"FlipKart.sol\":8116:8130  costToPlatform */\n      dup3\n        /* \"FlipKart.sol\":8104:8113  msg.value */\n      callvalue\n        /* \"FlipKart.sol\":8104:8130  msg.value - costToPlatform */\n      tag_318\n      swap2\n      swap1\n      tag_277\n      jump\t// in\n    tag_318:\n        /* \"FlipKart.sol\":8083:8131  brand.owner.transfer(msg.value - costToPlatform) */\n      swap1\n      dup2\n      iszero\n      mul\n      swap1\n      mload(0x40)\n      0x00\n      mload(0x40)\n      dup1\n      dup4\n      sub\n      dup2\n      dup6\n      dup9\n      dup9\n      call\n      swap4\n      pop\n      pop\n      pop\n      pop\n      iszero\n      dup1\n      iszero\n      tag_320\n      jumpi\n      returndatasize\n      0x00\n      dup1\n      returndatacopy\n      revert(0x00, returndatasize)\n    tag_320:\n      pop\n        /* \"FlipKart.sol\":8230:8240  priceToPay */\n      dup5\n        /* \"FlipKart.sol\":8142:8165  userBrandPurchaseAmount */\n      0x04\n        /* \"FlipKart.sol\":8166:8177  userDetails */\n      0x03\n        /* \"FlipKart.sol\":8166:8189  userDetails[msg.sender] */\n      0x00\n        /* \"FlipKart.sol\":8178:8188  msg.sender */\n      caller\n        /* \"FlipKart.sol\":8166:8189  userDetails[msg.sender] */\n      0xffffffffffffffffffffffffffffffffffffffff\n      and\n      0xffffffffffffffffffffffffffffffffffffffff\n      and\n      dup2\n      mstore\n      0x20\n      add\n      swap1\n      dup2\n      mstore\n      0x20\n      add\n      0x00\n      keccak256\n        /* \"FlipKart.sol\":8166:8192  userDetails[msg.sender].id */\n      0x00\n      add\n        /* \"FlipKart.sol\":8142:8193  userBrandPurchaseAmount[userDetails[msg.sender].id] */\n      mload(0x40)\n      tag_321\n      swap2\n      swap1\n      tag_111\n      jump\t// in\n    tag_321:\n      swap1\n      dup2\n      mstore\n      0x20\n      add\n      mload(0x40)\n      dup1\n      swap2\n      sub\n      swap1\n      keccak256\n        /* \"FlipKart.sol\":8208:8215  brandId */\n      dup11\n        /* \"FlipKart.sol\":8142:8226  userBrandPurchaseAmount[userDetails[msg.sender].id][... */\n      mload(0x40)\n      tag_322\n      swap2\n      swap1\n      tag_109\n      jump\t// in\n    tag_322:\n      swap1\n      dup2\n      mstore\n      0x20\n      add\n      mload(0x40)\n      dup1\n      swap2\n      sub\n      swap1\n      keccak256\n      0x00\n        /* \"FlipKart.sol\":8142:8240  userBrandPurchaseAmount[userDetails[msg.sender].id][... */\n      dup3\n      dup3\n      sload\n      tag_323\n      swap2\n      swap1\n      tag_202\n      jump\t// in\n    tag_323:\n      swap3\n      pop\n      pop\n      dup2\n      swap1\n      sstore\n      pop\n        /* \"FlipKart.sol\":8251:8285  UserTransaction memory transaction */\n      0x00\n        /* \"FlipKart.sol\":8288:8949  UserTransaction({... */\n      mload(0x40)\n      dup1\n      0xe0\n      add\n      0x40\n      mstore\n      dup1\n        /* \"FlipKart.sol\":8323:8691  Strings.toHexString(... */\n      tag_324\n        /* \"FlipKart.sol\":8474:8485  userDetails */\n      0x03\n        /* \"FlipKart.sol\":8474:8497  userDetails[msg.sender] */\n      0x00\n        /* \"FlipKart.sol\":8486:8496  msg.sender */\n      caller\n        /* \"FlipKart.sol\":8474:8497  userDetails[msg.sender] */\n      0xffffffffffffffffffffffffffffffffffffffff\n      and\n      0xffffffffffffffffffffffffffffffffffffffff\n      and\n      dup2\n      mstore\n      0x20\n      add\n      swap1\n      dup2\n      mstore\n      0x20\n      add\n      0x00\n      keccak256\n        /* \"FlipKart.sol\":8474:8500  userDetails[msg.sender].id */\n      0x00\n      add\n        /* \"FlipKart.sol\":8531:8540  productId */\n      dup13\n        /* \"FlipKart.sol\":8571:8586  block.timestamp */\n      timestamp\n        /* \"FlipKart.sol\":8427:8613  abi.encodePacked(... */\n      add(0x20, mload(0x40))\n      tag_325\n      swap4\n      swap3\n      swap2\n      swap1\n      tag_326\n      jump\t// in\n    tag_325:\n      mload(0x40)\n      0x20\n      dup2\n      dup4\n      sub\n      sub\n      dup2\n      mstore\n      swap1\n      0x40\n      mstore\n        /* \"FlipKart.sol\":8391:8636  keccak256(... */\n      dup1\n      mload\n      swap1\n      0x20\n      add\n      keccak256\n        /* \"FlipKart.sol\":8361:8655  uint256(... */\n      0x00\n      shr\n        /* \"FlipKart.sol\":8674:8676  32 */\n      0x20\n        /* \"FlipKart.sol\":8323:8342  Strings.toHexString */\n      tag_148\n        /* \"FlipKart.sol\":8323:8691  Strings.toHexString(... */\n      jump\t// in\n    tag_324:\n        /* \"FlipKart.sol\":8288:8949  UserTransaction({... */\n      dup2\n      mstore\n      0x20\n      add\n        /* \"FlipKart.sol\":8715:8722  brandId */\n      dup12\n        /* \"FlipKart.sol\":8288:8949  UserTransaction({... */\n      dup2\n      mstore\n      0x20\n      add\n        /* \"FlipKart.sol\":8748:8757  productId */\n      dup11\n        /* \"FlipKart.sol\":8288:8949  UserTransaction({... */\n      dup2\n      mstore\n      0x20\n      add\n        /* \"FlipKart.sol\":8780:8791  userDetails */\n      0x03\n        /* \"FlipKart.sol\":8780:8803  userDetails[msg.sender] */\n      0x00\n        /* \"FlipKart.sol\":8792:8802  msg.sender */\n      caller\n        /* \"FlipKart.sol\":8780:8803  userDetails[msg.sender] */\n      0xffffffffffffffffffffffffffffffffffffffff\n      and\n      0xffffffffffffffffffffffffffffffffffffffff\n      and\n      dup2\n      mstore\n      0x20\n      add\n      swap1\n      dup2\n      mstore\n      0x20\n      add\n      0x00\n      keccak256\n        /* \"FlipKart.sol\":8780:8806  userDetails[msg.sender].id */\n      0x00\n      add\n        /* \"FlipKart.sol\":8288:8949  UserTransaction({... */\n      dup1\n      sload\n      tag_327\n      swap1\n      tag_173\n      jump\t// in\n    tag_327:\n      dup1\n      0x1f\n      add\n      0x20\n      dup1\n      swap2\n      div\n      mul\n      0x20\n      add\n      mload(0x40)\n      swap1\n      dup2\n      add\n      0x40\n      mstore\n      dup1\n      swap3\n      swap2\n      swap1\n      dup2\n      dup2\n      mstore\n      0x20\n      add\n      dup3\n      dup1\n      sload\n      tag_328\n      swap1\n      tag_173\n      jump\t// in\n    tag_328:\n      dup1\n      iszero\n      tag_329\n      jumpi\n      dup1\n      0x1f\n      lt\n      tag_330\n      jumpi\n      0x0100\n      dup1\n      dup4\n      sload\n      div\n      mul\n      dup4\n      mstore\n      swap2\n      0x20\n      add\n      swap2\n      jump(tag_329)\n    tag_330:\n      dup3\n      add\n      swap2\n      swap1\n      0x00\n      mstore\n      keccak256(0x00, 0x20)\n      swap1\n    tag_331:\n      dup2\n      sload\n      dup2\n      mstore\n      swap1\n      0x01\n      add\n      swap1\n      0x20\n      add\n      dup1\n      dup4\n      gt\n      tag_331\n      jumpi\n      dup3\n      swap1\n      sub\n      0x1f\n      and\n      dup3\n      add\n      swap2\n    tag_329:\n      pop\n      pop\n      pop\n      pop\n      pop\n      dup2\n      mstore\n      0x20\n      add\n        /* \"FlipKart.sol\":8834:8843  msg.value */\n      callvalue\n        /* \"FlipKart.sol\":8288:8949  UserTransaction({... */\n      dup2\n      mstore\n      0x20\n      add\n        /* \"FlipKart.sol\":8874:8892  tokensToBeRedeemed */\n      dup7\n        /* \"FlipKart.sol\":8288:8949  UserTransaction({... */\n      dup2\n      mstore\n      0x20\n      add\n        /* \"FlipKart.sol\":8923:8937  rewardRedeemed */\n      dup6\n        /* \"FlipKart.sol\":8288:8949  UserTransaction({... */\n      dup2\n      mstore\n      pop\n        /* \"FlipKart.sol\":8251:8949  UserTransaction memory transaction = UserTransaction({... */\n      swap1\n      pop\n        /* \"FlipKart.sol\":8960:8971  userDetails */\n      0x03\n        /* \"FlipKart.sol\":8960:8983  userDetails[msg.sender] */\n      0x00\n        /* \"FlipKart.sol\":8972:8982  msg.sender */\n      caller\n        /* \"FlipKart.sol\":8960:8983  userDetails[msg.sender] */\n      0xffffffffffffffffffffffffffffffffffffffff\n      and\n      0xffffffffffffffffffffffffffffffffffffffff\n      and\n      dup2\n      mstore\n      0x20\n      add\n      swap1\n      dup2\n      mstore\n      0x20\n      add\n      0x00\n      keccak256\n        /* \"FlipKart.sol\":8960:8999  userDetails[msg.sender].purchaseHistory */\n      0x03\n      add\n        /* \"FlipKart.sol\":9005:9016  transaction */\n      dup2\n        /* \"FlipKart.sol\":8960:9017  userDetails[msg.sender].purchaseHistory.push(transaction) */\n      swap1\n      dup1\n      0x01\n      dup2\n      sload\n      add\n      dup1\n      dup3\n      sstore\n      dup1\n      swap2\n      pop\n      pop\n      0x01\n      swap1\n      sub\n      swap1\n      0x00\n      mstore\n      keccak256(0x00, 0x20)\n      swap1\n      0x07\n      mul\n      add\n      0x00\n      swap1\n      swap2\n      swap1\n      swap2\n      swap1\n      swap2\n      pop\n      0x00\n      dup3\n      add\n      mload\n      dup2\n      0x00\n      add\n      swap1\n      dup2\n      tag_333\n      swap2\n      swap1\n      tag_119\n      jump\t// in\n    tag_333:\n      pop\n      0x20\n      dup3\n      add\n      mload\n      dup2\n      0x01\n      add\n      swap1\n      dup2\n      tag_334\n      swap2\n      swap1\n      tag_119\n      jump\t// in\n    tag_334:\n      pop\n      0x40\n      dup3\n      add\n      mload\n      dup2\n      0x02\n      add\n      swap1\n      dup2\n      tag_335\n      swap2\n      swap1\n      tag_119\n      jump\t// in\n    tag_335:\n      pop\n      0x60\n      dup3\n      add\n      mload\n      dup2\n      0x03\n      add\n      swap1\n      dup2\n      tag_336\n      swap2\n      swap1\n      tag_119\n      jump\t// in\n    tag_336:\n      pop\n      0x80\n      dup3\n      add\n      mload\n      dup2\n      0x04\n      add\n      sstore\n      0xa0\n      dup3\n      add\n      mload\n      dup2\n      0x05\n      add\n      sstore\n      0xc0\n      dup3\n      add\n      mload\n      dup2\n      0x06\n      add\n      swap1\n      dup2\n      tag_337\n      swap2\n      swap1\n      tag_119\n      jump\t// in\n    tag_337:\n      pop\n      pop\n      pop\n        /* \"FlipKart.sol\":9038:9043  token */\n      0x0a\n      0x00\n      swap1\n      sload\n      swap1\n      0x0100\n      exp\n      swap1\n      div\n      0xffffffffffffffffffffffffffffffffffffffff\n      and\n        /* \"FlipKart.sol\":9028:9052  FlipToken(token).approve */\n      0xffffffffffffffffffffffffffffffffffffffff\n      and\n      0x095ea7b3\n        /* \"FlipKart.sol\":9053:9063  msg.sender */\n      caller\n        /* \"FlipKart.sol\":9087:9095  10 ** 18 */\n      0x0de0b6b3a7640000\n        /* \"FlipKart.sol\":9065:9083  tokensToBeRedeemed */\n      dup9\n        /* \"FlipKart.sol\":9065:9096  tokensToBeRedeemed * (10 ** 18) */\n      tag_338\n      swap2\n      swap1\n      tag_127\n      jump\t// in\n    tag_338:\n        /* \"FlipKart.sol\":9028:9097  FlipToken(token).approve(msg.sender, tokensToBeRedeemed * (10 ** 18)) */\n      mload(0x40)\n      dup4\n      0xffffffff\n      and\n      0xe0\n      shl\n      dup2\n      mstore\n      0x04\n      add\n      tag_339\n      swap3\n      swap2\n      swap1\n      tag_129\n      jump\t// in\n    tag_339:\n      0x20\n      mload(0x40)\n      dup1\n      dup4\n      sub\n      dup2\n      0x00\n      dup8\n      gas\n      call\n      iszero\n      dup1\n      iszero\n      tag_341\n      jumpi\n      returndatasize\n      0x00\n      dup1\n      returndatacopy\n      revert(0x00, returndatasize)\n    tag_341:\n      pop\n      pop\n      pop\n      pop\n      mload(0x40)\n      returndatasize\n      not(0x1f)\n      0x1f\n      dup3\n      add\n      and\n      dup3\n      add\n      dup1\n      0x40\n      mstore\n      pop\n      dup2\n      add\n      swap1\n      tag_342\n      swap2\n      swap1\n      tag_133\n      jump\t// in\n    tag_342:\n      pop\n        /* \"FlipKart.sol\":9118:9123  token */\n      0x0a\n      0x00\n      swap1\n      sload\n      swap1\n      0x0100\n      exp\n      swap1\n      div\n      0xffffffffffffffffffffffffffffffffffffffff\n      and\n        /* \"FlipKart.sol\":9108:9137  FlipToken(token).transferFrom */\n      0xffffffffffffffffffffffffffffffffffffffff\n      and\n      0x23b872dd\n        /* \"FlipKart.sol\":9152:9162  msg.sender */\n      caller\n        /* \"FlipKart.sol\":9177:9182  brand */\n      dup6\n        /* \"FlipKart.sol\":9177:9188  brand.owner */\n      0x03\n      add\n      0x00\n      swap1\n      sload\n      swap1\n      0x0100\n      exp\n      swap1\n      div\n      0xffffffffffffffffffffffffffffffffffffffff\n      and\n        /* \"FlipKart.sol\":9225:9233  10 ** 18 */\n      0x0de0b6b3a7640000\n        /* \"FlipKart.sol\":9203:9221  tokensToBeRedeemed */\n      dup10\n        /* \"FlipKart.sol\":9203:9234  tokensToBeRedeemed * (10 ** 18) */\n      tag_343\n      swap2\n      swap1\n      tag_127\n      jump\t// in\n    tag_343:\n        /* \"FlipKart.sol\":9108:9245  FlipToken(token).transferFrom(... */\n      mload(0x40)\n      dup5\n      0xffffffff\n      and\n      0xe0\n      shl\n      dup2\n      mstore\n      0x04\n      add\n      tag_344\n      swap4\n      swap3\n      swap2\n      swap1\n      tag_139\n      jump\t// in\n    tag_344:\n      0x20\n      mload(0x40)\n      dup1\n      dup4\n      sub\n      dup2\n      0x00\n      dup8\n      gas\n      call\n      iszero\n      dup1\n      iszero\n      tag_346\n      jumpi\n      returndatasize\n      0x00\n      dup1\n      returndatacopy\n      revert(0x00, returndatasize)\n    tag_346:\n      pop\n      pop\n      pop\n      pop\n      mload(0x40)\n      returndatasize\n      not(0x1f)\n      0x1f\n      dup3\n      add\n      and\n      dup3\n      add\n      dup1\n      0x40\n      mstore\n      pop\n      dup2\n      add\n      swap1\n      tag_347\n      swap2\n      swap1\n      tag_133\n      jump\t// in\n    tag_347:\n      pop\n        /* \"FlipKart.sol\":9310:9311  1 */\n      0x01\n        /* \"FlipKart.sol\":9260:9271  userDetails */\n      0x03\n        /* \"FlipKart.sol\":9260:9283  userDetails[msg.sender] */\n      0x00\n        /* \"FlipKart.sol\":9272:9282  msg.sender */\n      caller\n        /* \"FlipKart.sol\":9260:9283  userDetails[msg.sender] */\n      0xffffffffffffffffffffffffffffffffffffffff\n      and\n      0xffffffffffffffffffffffffffffffffffffffff\n      and\n      dup2\n      mstore\n      0x20\n      add\n      swap1\n      dup2\n      mstore\n      0x20\n      add\n      0x00\n      keccak256\n        /* \"FlipKart.sol\":9260:9299  userDetails[msg.sender].purchaseHistory */\n      0x03\n      add\n        /* \"FlipKart.sol\":9260:9306  userDetails[msg.sender].purchaseHistory.length */\n      dup1\n      sload\n      swap1\n      pop\n        /* \"FlipKart.sol\":9260:9311  userDetails[msg.sender].purchaseHistory.length == 1 */\n      sub\n        /* \"FlipKart.sol\":9256:9449  if (userDetails[msg.sender].purchaseHistory.length == 1) {... */\n      tag_348\n      jumpi\n        /* \"FlipKart.sol\":9338:9343  token */\n      0x0a\n      0x00\n      swap1\n      sload\n      swap1\n      0x0100\n      exp\n      swap1\n      div\n      0xffffffffffffffffffffffffffffffffffffffff\n      and\n        /* \"FlipKart.sol\":9328:9349  FlipToken(token).mint */\n      0xffffffffffffffffffffffffffffffffffffffff\n      and\n      0xa0712d68\n        /* \"FlipKart.sol\":9350:9366  100 * (10 ** 18) */\n      0x056bc75e2d63100000\n        /* \"FlipKart.sol\":9328:9367  FlipToken(token).mint(100 * (10 ** 18)) */\n      mload(0x40)\n      dup3\n      0xffffffff\n      and\n      0xe0\n      shl\n      dup2\n      mstore\n      0x04\n      add\n      tag_349\n      swap2\n      swap1\n      tag_350\n      jump\t// in\n    tag_349:\n      0x00\n      mload(0x40)\n      dup1\n      dup4\n      sub\n      dup2\n      0x00\n      dup8\n      dup1\n      extcodesize\n      iszero\n      dup1\n      iszero\n      tag_351\n      jumpi\n      0x00\n      dup1\n      revert\n    tag_351:\n      pop\n      gas\n      call\n      iszero\n      dup1\n      iszero\n      tag_353\n      jumpi\n      returndatasize\n      0x00\n      dup1\n      returndatacopy\n      revert(0x00, returndatasize)\n    tag_353:\n      pop\n      pop\n      pop\n      pop\n        /* \"FlipKart.sol\":9392:9397  token */\n      0x0a\n      0x00\n      swap1\n      sload\n      swap1\n      0x0100\n      exp\n      swap1\n      div\n      0xffffffffffffffffffffffffffffffffffffffff\n      and\n        /* \"FlipKart.sol\":9382:9407  FlipToken(token).transfer */\n      0xffffffffffffffffffffffffffffffffffffffff\n      and\n      0xa9059cbb\n        /* \"FlipKart.sol\":9408:9418  msg.sender */\n      caller\n        /* \"FlipKart.sol\":9420:9436  100 * (10 ** 18) */\n      0x056bc75e2d63100000\n        /* \"FlipKart.sol\":9382:9437  FlipToken(token).transfer(msg.sender, 100 * (10 ** 18)) */\n      mload(0x40)\n      dup4\n      0xffffffff\n      and\n      0xe0\n      shl\n      dup2\n      mstore\n      0x04\n      add\n      tag_354\n      swap3\n      swap2\n      swap1\n      tag_355\n      jump\t// in\n    tag_354:\n      0x20\n      mload(0x40)\n      dup1\n      dup4\n      sub\n      dup2\n      0x00\n      dup8\n      gas\n      call\n      iszero\n      dup1\n      iszero\n      tag_357\n      jumpi\n      returndatasize\n      0x00\n      dup1\n      returndatacopy\n      revert(0x00, returndatasize)\n    tag_357:\n      pop\n      pop\n      pop\n      pop\n      mload(0x40)\n      returndatasize\n      not(0x1f)\n      0x1f\n      dup3\n      add\n      and\n      dup3\n      add\n      dup1\n      0x40\n      mstore\n      pop\n      dup2\n      add\n      swap1\n      tag_358\n      swap2\n      swap1\n      tag_133\n      jump\t// in\n    tag_358:\n      pop\n        /* \"FlipKart.sol\":9256:9449  if (userDetails[msg.sender].purchaseHistory.length == 1) {... */\n    tag_348:\n        /* \"FlipKart.sol\":9459:9476  uint rewardTokens */\n      0x00\n        /* \"FlipKart.sol\":9512:9522  tokenValue */\n      sload(0x0b)\n        /* \"FlipKart.sol\":9508:9509  5 */\n      0x05\n        /* \"FlipKart.sol\":9508:9522  5 * tokenValue */\n      tag_359\n      swap2\n      swap1\n      tag_127\n      jump\t// in\n    tag_359:\n        /* \"FlipKart.sol\":9494:9502  10 ** 18 */\n      0x0de0b6b3a7640000\n        /* \"FlipKart.sol\":9480:9490  priceToPay */\n      dup9\n        /* \"FlipKart.sol\":9480:9503  priceToPay * (10 ** 18) */\n      tag_360\n      swap2\n      swap1\n      tag_127\n      jump\t// in\n    tag_360:\n        /* \"FlipKart.sol\":9479:9523  (priceToPay * (10 ** 18)) / (5 * tokenValue) */\n      tag_361\n      swap2\n      swap1\n      tag_268\n      jump\t// in\n    tag_361:\n        /* \"FlipKart.sol\":9459:9523  uint rewardTokens = (priceToPay * (10 ** 18)) / (5 * tokenValue) */\n      swap1\n      pop\n        /* \"FlipKart.sol\":9544:9549  token */\n      0x0a\n      0x00\n      swap1\n      sload\n      swap1\n      0x0100\n      exp\n      swap1\n      div\n      0xffffffffffffffffffffffffffffffffffffffff\n      and\n        /* \"FlipKart.sol\":9534:9555  FlipToken(token).mint */\n      0xffffffffffffffffffffffffffffffffffffffff\n      and\n      0xa0712d68\n        /* \"FlipKart.sol\":9556:9568  rewardTokens */\n      dup3\n        /* \"FlipKart.sol\":9534:9569  FlipToken(token).mint(rewardTokens) */\n      mload(0x40)\n      dup3\n      0xffffffff\n      and\n      0xe0\n      shl\n      dup2\n      mstore\n      0x04\n      add\n      tag_362\n      swap2\n      swap1\n      tag_82\n      jump\t// in\n    tag_362:\n      0x00\n      mload(0x40)\n      dup1\n      dup4\n      sub\n      dup2\n      0x00\n      dup8\n      dup1\n      extcodesize\n      iszero\n      dup1\n      iszero\n      tag_363\n      jumpi\n      0x00\n      dup1\n      revert\n    tag_363:\n      pop\n      gas\n      call\n      iszero\n      dup1\n      iszero\n      tag_365\n      jumpi\n      returndatasize\n      0x00\n      dup1\n      returndatacopy\n      revert(0x00, returndatasize)\n    tag_365:\n      pop\n      pop\n      pop\n      pop\n        /* \"FlipKart.sol\":9590:9595  token */\n      0x0a\n      0x00\n      swap1\n      sload\n      swap1\n      0x0100\n      exp\n      swap1\n      div\n      0xffffffffffffffffffffffffffffffffffffffff\n      and\n        /* \"FlipKart.sol\":9580:9605  FlipToken(token).transfer */\n      0xffffffffffffffffffffffffffffffffffffffff\n      and\n      0xa9059cbb\n        /* \"FlipKart.sol\":9606:9616  msg.sender */\n      caller\n        /* \"FlipKart.sol\":9618:9630  rewardTokens */\n      dup4\n        /* \"FlipKart.sol\":9580:9631  FlipToken(token).transfer(msg.sender, rewardTokens) */\n      mload(0x40)\n      dup4\n      0xffffffff\n      and\n      0xe0\n      shl\n      dup2\n      mstore\n      0x04\n      add\n      tag_366\n      swap3\n      swap2\n      swap1\n      tag_129\n      jump\t// in\n    tag_366:\n      0x20\n      mload(0x40)\n      dup1\n      dup4\n      sub\n      dup2\n      0x00\n      dup8\n      gas\n      call\n      iszero\n      dup1\n      iszero\n      tag_368\n      jumpi\n      returndatasize\n      0x00\n      dup1\n      returndatacopy\n      revert(0x00, returndatasize)\n    tag_368:\n      pop\n      pop\n      pop\n      pop\n      mload(0x40)\n      returndatasize\n      not(0x1f)\n      0x1f\n      dup3\n      add\n      and\n      dup3\n      add\n      dup1\n      0x40\n      mstore\n      pop\n      dup2\n      add\n      swap1\n      tag_369\n      swap2\n      swap1\n      tag_133\n      jump\t// in\n    tag_369:\n      pop\n        /* \"FlipKart.sol\":9642:9665  uint userPurchaseAmount */\n      0x00\n        /* \"FlipKart.sol\":9668:9691  userBrandPurchaseAmount */\n      0x04\n        /* \"FlipKart.sol\":9706:9717  userDetails */\n      0x03\n        /* \"FlipKart.sol\":9706:9729  userDetails[msg.sender] */\n      0x00\n        /* \"FlipKart.sol\":9718:9728  msg.sender */\n      caller\n        /* \"FlipKart.sol\":9706:9729  userDetails[msg.sender] */\n      0xffffffffffffffffffffffffffffffffffffffff\n      and\n      0xffffffffffffffffffffffffffffffffffffffff\n      and\n      dup2\n      mstore\n      0x20\n      add\n      swap1\n      dup2\n      mstore\n      0x20\n      add\n      0x00\n      keccak256\n        /* \"FlipKart.sol\":9706:9732  userDetails[msg.sender].id */\n      0x00\n      add\n        /* \"FlipKart.sol\":9668:9743  userBrandPurchaseAmount[... */\n      mload(0x40)\n      tag_370\n      swap2\n      swap1\n      tag_111\n      jump\t// in\n    tag_370:\n      swap1\n      dup2\n      mstore\n      0x20\n      add\n      mload(0x40)\n      dup1\n      swap2\n      sub\n      swap1\n      keccak256\n        /* \"FlipKart.sol\":9744:9751  brandId */\n      dup13\n        /* \"FlipKart.sol\":9668:9752  userBrandPurchaseAmount[... */\n      mload(0x40)\n      tag_371\n      swap2\n      swap1\n      tag_109\n      jump\t// in\n    tag_371:\n      swap1\n      dup2\n      mstore\n      0x20\n      add\n      mload(0x40)\n      dup1\n      swap2\n      sub\n      swap1\n      keccak256\n      sload\n        /* \"FlipKart.sol\":9642:9752  uint userPurchaseAmount = userBrandPurchaseAmount[... */\n      swap1\n      pop\n        /* \"FlipKart.sol\":9767:9772  brand */\n      dup5\n        /* \"FlipKart.sol\":9767:9788  brand.isIssuingTokens */\n      0x06\n      add\n      0x00\n      swap1\n      sload\n      swap1\n      0x0100\n      exp\n      swap1\n      div\n      0xff\n      and\n        /* \"FlipKart.sol\":9767:9818  brand.isIssuingTokens && brand.rewardTokensLeft > 0 */\n      dup1\n      iszero\n      tag_372\n      jumpi\n      pop\n        /* \"FlipKart.sol\":9817:9818  0 */\n      0x00\n        /* \"FlipKart.sol\":9792:9797  brand */\n      dup6\n        /* \"FlipKart.sol\":9792:9814  brand.rewardTokensLeft */\n      0x07\n      add\n      sload\n        /* \"FlipKart.sol\":9792:9818  brand.rewardTokensLeft > 0 */\n      gt\n        /* \"FlipKart.sol\":9767:9818  brand.isIssuingTokens && brand.rewardTokensLeft > 0 */\n    tag_372:\n        /* \"FlipKart.sol\":9763:11268  if (brand.isIssuingTokens && brand.rewardTokensLeft > 0) {... */\n      iszero\n      tag_373\n      jumpi\n        /* \"FlipKart.sol\":9840:9846  uint i */\n      0x00\n        /* \"FlipKart.sol\":9835:11257  for (uint i = 0; i < brand.rewardMilestones.length; i++) {... */\n    tag_374:\n        /* \"FlipKart.sol\":9856:9861  brand */\n      dup6\n        /* \"FlipKart.sol\":9856:9878  brand.rewardMilestones */\n      0x09\n      add\n        /* \"FlipKart.sol\":9856:9885  brand.rewardMilestones.length */\n      dup1\n      sload\n      swap1\n      pop\n        /* \"FlipKart.sol\":9852:9853  i */\n      dup2\n        /* \"FlipKart.sol\":9852:9885  i < brand.rewardMilestones.length */\n      lt\n        /* \"FlipKart.sol\":9835:11257  for (uint i = 0; i < brand.rewardMilestones.length; i++) {... */\n      iszero\n      tag_375\n      jumpi\n        /* \"FlipKart.sol\":9958:9963  brand */\n      dup6\n        /* \"FlipKart.sol\":9958:9980  brand.rewardMilestones */\n      0x09\n      add\n        /* \"FlipKart.sol\":9981:9982  i */\n      dup2\n        /* \"FlipKart.sol\":9958:9983  brand.rewardMilestones[i] */\n      dup2\n      sload\n      dup2\n      lt\n      tag_377\n      jumpi\n      tag_378\n      tag_379\n      jump\t// in\n    tag_378:\n    tag_377:\n      swap1\n      0x00\n      mstore\n      keccak256(0x00, 0x20)\n      add\n        /* \"FlipKart.sol\":9984:9985  0 */\n      0x00\n        /* \"FlipKart.sol\":9958:9986  brand.rewardMilestones[i][0] */\n      dup2\n      sload\n      dup2\n      lt\n      tag_381\n      jumpi\n      tag_382\n      tag_379\n      jump\t// in\n    tag_382:\n    tag_381:\n      swap1\n      0x00\n      mstore\n      keccak256(0x00, 0x20)\n      add\n      sload\n        /* \"FlipKart.sol\":9937:9955  userPurchaseAmount */\n      dup3\n        /* \"FlipKart.sol\":9937:9986  userPurchaseAmount > brand.rewardMilestones[i][0] */\n      gt\n        /* \"FlipKart.sol\":9937:10125  userPurchaseAmount > brand.rewardMilestones[i][0] &&... */\n      dup1\n      iszero\n      tag_384\n      jumpi\n      pop\n        /* \"FlipKart.sol\":10044:10045  0 */\n      0x00\n        /* \"FlipKart.sol\":10012:10017  brand */\n      dup7\n        /* \"FlipKart.sol\":10012:10034  brand.rewardMilestones */\n      0x09\n      add\n        /* \"FlipKart.sol\":10035:10036  i */\n      dup3\n        /* \"FlipKart.sol\":10012:10037  brand.rewardMilestones[i] */\n      dup2\n      sload\n      dup2\n      lt\n      tag_385\n      jumpi\n      tag_386\n      tag_379\n      jump\t// in\n    tag_386:\n    tag_385:\n      swap1\n      0x00\n      mstore\n      keccak256(0x00, 0x20)\n      add\n        /* \"FlipKart.sol\":10038:10039  1 */\n      0x01\n        /* \"FlipKart.sol\":10012:10040  brand.rewardMilestones[i][1] */\n      dup2\n      sload\n      dup2\n      lt\n      tag_388\n      jumpi\n      tag_389\n      tag_379\n      jump\t// in\n    tag_389:\n    tag_388:\n      swap1\n      0x00\n      mstore\n      keccak256(0x00, 0x20)\n      add\n      sload\n        /* \"FlipKart.sol\":10012:10045  brand.rewardMilestones[i][1] == 0 */\n      eq\n        /* \"FlipKart.sol\":10012:10124  brand.rewardMilestones[i][1] == 0 ||... */\n      dup1\n      tag_391\n      jumpi\n      pop\n        /* \"FlipKart.sol\":10096:10101  brand */\n      dup6\n        /* \"FlipKart.sol\":10096:10118  brand.rewardMilestones */\n      0x09\n      add\n        /* \"FlipKart.sol\":10119:10120  i */\n      dup2\n        /* \"FlipKart.sol\":10096:10121  brand.rewardMilestones[i] */\n      dup2\n      sload\n      dup2\n      lt\n      tag_392\n      jumpi\n      tag_393\n      tag_379\n      jump\t// in\n    tag_393:\n    tag_392:\n      swap1\n      0x00\n      mstore\n      keccak256(0x00, 0x20)\n      add\n        /* \"FlipKart.sol\":10122:10123  1 */\n      0x01\n        /* \"FlipKart.sol\":10096:10124  brand.rewardMilestones[i][1] */\n      dup2\n      sload\n      dup2\n      lt\n      tag_395\n      jumpi\n      tag_396\n      tag_379\n      jump\t// in\n    tag_396:\n    tag_395:\n      swap1\n      0x00\n      mstore\n      keccak256(0x00, 0x20)\n      add\n      sload\n        /* \"FlipKart.sol\":10074:10092  userPurchaseAmount */\n      dup3\n        /* \"FlipKart.sol\":10074:10124  userPurchaseAmount <= brand.rewardMilestones[i][1] */\n      gt\n      iszero\n        /* \"FlipKart.sol\":10012:10124  brand.rewardMilestones[i][1] == 0 ||... */\n    tag_391:\n        /* \"FlipKart.sol\":9937:10125  userPurchaseAmount > brand.rewardMilestones[i][0] &&... */\n    tag_384:\n        /* \"FlipKart.sol\":9911:11242  if (... */\n      iszero\n      tag_398\n      jumpi\n        /* \"FlipKart.sol\":10168:10198  uint issuableBrandRewardTokens */\n      0x00\n        /* \"FlipKart.sol\":10372:10382  tokenValue */\n      sload(0x0b)\n        /* \"FlipKart.sol\":10366:10369  100 */\n      0x64\n        /* \"FlipKart.sol\":10366:10382  100 * tokenValue */\n      tag_399\n      swap2\n      swap1\n      tag_127\n      jump\t// in\n    tag_399:\n        /* \"FlipKart.sol\":10352:10360  10 ** 18 */\n      0x0de0b6b3a7640000\n        /* \"FlipKart.sol\":10295:10300  brand */\n      dup9\n        /* \"FlipKart.sol\":10295:10317  brand.rewardMilestones */\n      0x09\n      add\n        /* \"FlipKart.sol\":10318:10319  i */\n      dup5\n        /* \"FlipKart.sol\":10295:10320  brand.rewardMilestones[i] */\n      dup2\n      sload\n      dup2\n      lt\n      tag_400\n      jumpi\n      tag_401\n      tag_379\n      jump\t// in\n    tag_401:\n    tag_400:\n      swap1\n      0x00\n      mstore\n      keccak256(0x00, 0x20)\n      add\n        /* \"FlipKart.sol\":10321:10322  2 */\n      0x02\n        /* \"FlipKart.sol\":10295:10323  brand.rewardMilestones[i][2] */\n      dup2\n      sload\n      dup2\n      lt\n      tag_403\n      jumpi\n      tag_404\n      tag_379\n      jump\t// in\n    tag_404:\n    tag_403:\n      swap1\n      0x00\n      mstore\n      keccak256(0x00, 0x20)\n      add\n      sload\n        /* \"FlipKart.sol\":10240:10245  brand */\n      dup10\n        /* \"FlipKart.sol\":10240:10267  brand.rewardPricePercentage */\n      0x08\n      add\n      sload\n        /* \"FlipKart.sol\":10202:10212  priceToPay */\n      dup14\n        /* \"FlipKart.sol\":10202:10267  priceToPay *... */\n      tag_406\n      swap2\n      swap1\n      tag_127\n      jump\t// in\n    tag_406:\n        /* \"FlipKart.sol\":10202:10323  priceToPay *... */\n      tag_407\n      swap2\n      swap1\n      tag_127\n      jump\t// in\n    tag_407:\n        /* \"FlipKart.sol\":10202:10361  priceToPay *... */\n      tag_408\n      swap2\n      swap1\n      tag_127\n      jump\t// in\n    tag_408:\n        /* \"FlipKart.sol\":10201:10383  (priceToPay *... */\n      tag_409\n      swap2\n      swap1\n      tag_268\n      jump\t// in\n    tag_409:\n        /* \"FlipKart.sol\":10168:10383  uint issuableBrandRewardTokens = (priceToPay *... */\n      swap1\n      pop\n        /* \"FlipKart.sol\":10436:10461  issuableBrandRewardTokens */\n      dup1\n        /* \"FlipKart.sol\":10410:10415  brand */\n      dup8\n        /* \"FlipKart.sol\":10410:10432  brand.rewardTokensLeft */\n      0x07\n      add\n      sload\n        /* \"FlipKart.sol\":10410:10461  brand.rewardTokensLeft <= issuableBrandRewardTokens */\n      gt\n        /* \"FlipKart.sol\":10406:11223  if (brand.rewardTokensLeft <= issuableBrandRewardTokens) {... */\n      tag_410\n      jumpi\n        /* \"FlipKart.sol\":10500:10505  token */\n      0x0a\n      0x00\n      swap1\n      sload\n      swap1\n      0x0100\n      exp\n      swap1\n      div\n      0xffffffffffffffffffffffffffffffffffffffff\n      and\n        /* \"FlipKart.sol\":10490:10519  FlipToken(token).transferFrom */\n      0xffffffffffffffffffffffffffffffffffffffff\n      and\n      0x23b872dd\n        /* \"FlipKart.sol\":10550:10555  brand */\n      dup9\n        /* \"FlipKart.sol\":10550:10561  brand.owner */\n      0x03\n      add\n      0x00\n      swap1\n      sload\n      swap1\n      0x0100\n      exp\n      swap1\n      div\n      0xffffffffffffffffffffffffffffffffffffffff\n      and\n        /* \"FlipKart.sol\":10592:10602  msg.sender */\n      caller\n        /* \"FlipKart.sol\":10633:10638  brand */\n      dup11\n        /* \"FlipKart.sol\":10633:10655  brand.rewardTokensLeft */\n      0x07\n      add\n      sload\n        /* \"FlipKart.sol\":10490:10682  FlipToken(token).transferFrom(... */\n      mload(0x40)\n      dup5\n      0xffffffff\n      and\n      0xe0\n      shl\n      dup2\n      mstore\n      0x04\n      add\n      tag_411\n      swap4\n      swap3\n      swap2\n      swap1\n      tag_412\n      jump\t// in\n    tag_411:\n      0x20\n      mload(0x40)\n      dup1\n      dup4\n      sub\n      dup2\n      0x00\n      dup8\n      gas\n      call\n      iszero\n      dup1\n      iszero\n      tag_414\n      jumpi\n      returndatasize\n      0x00\n      dup1\n      returndatacopy\n      revert(0x00, returndatasize)\n    tag_414:\n      pop\n      pop\n      pop\n      pop\n      mload(0x40)\n      returndatasize\n      not(0x1f)\n      0x1f\n      dup3\n      add\n      and\n      dup3\n      add\n      dup1\n      0x40\n      mstore\n      pop\n      dup2\n      add\n      swap1\n      tag_415\n      swap2\n      swap1\n      tag_133\n      jump\t// in\n    tag_415:\n      pop\n        /* \"FlipKart.sol\":10750:10751  0 */\n      0x00\n        /* \"FlipKart.sol\":10709:10721  brandDetails */\n      0x01\n        /* \"FlipKart.sol\":10722:10729  brandId */\n      dup16\n        /* \"FlipKart.sol\":10709:10730  brandDetails[brandId] */\n      mload(0x40)\n      tag_416\n      swap2\n      swap1\n      tag_109\n      jump\t// in\n    tag_416:\n      swap1\n      dup2\n      mstore\n      0x20\n      add\n      mload(0x40)\n      dup1\n      swap2\n      sub\n      swap1\n      keccak256\n        /* \"FlipKart.sol\":10709:10747  brandDetails[brandId].rewardTokensLeft */\n      0x07\n      add\n        /* \"FlipKart.sol\":10709:10751  brandDetails[brandId].rewardTokensLeft = 0 */\n      dup2\n      swap1\n      sstore\n      pop\n        /* \"FlipKart.sol\":10818:10823  false */\n      0x00\n        /* \"FlipKart.sol\":10778:10790  brandDetails */\n      0x01\n        /* \"FlipKart.sol\":10791:10798  brandId */\n      dup16\n        /* \"FlipKart.sol\":10778:10799  brandDetails[brandId] */\n      mload(0x40)\n      tag_417\n      swap2\n      swap1\n      tag_109\n      jump\t// in\n    tag_417:\n      swap1\n      dup2\n      mstore\n      0x20\n      add\n      mload(0x40)\n      dup1\n      swap2\n      sub\n      swap1\n      keccak256\n        /* \"FlipKart.sol\":10778:10815  brandDetails[brandId].isIssuingTokens */\n      0x06\n      add\n      0x00\n        /* \"FlipKart.sol\":10778:10823  brandDetails[brandId].isIssuingTokens = false */\n      0x0100\n      exp\n      dup2\n      sload\n      dup2\n      0xff\n      mul\n      not\n      and\n      swap1\n      dup4\n      iszero\n      iszero\n      mul\n      or\n      swap1\n      sstore\n      pop\n        /* \"FlipKart.sol\":10406:11223  if (brand.rewardTokensLeft <= issuableBrandRewardTokens) {... */\n      jump(tag_418)\n    tag_410:\n        /* \"FlipKart.sol\":10890:10895  token */\n      0x0a\n      0x00\n      swap1\n      sload\n      swap1\n      0x0100\n      exp\n      swap1\n      div\n      0xffffffffffffffffffffffffffffffffffffffff\n      and\n        /* \"FlipKart.sol\":10880:10909  FlipToken(token).transferFrom */\n      0xffffffffffffffffffffffffffffffffffffffff\n      and\n      0x23b872dd\n        /* \"FlipKart.sol\":10940:10945  brand */\n      dup9\n        /* \"FlipKart.sol\":10940:10951  brand.owner */\n      0x03\n      add\n      0x00\n      swap1\n      sload\n      swap1\n      0x0100\n      exp\n      swap1\n      div\n      0xffffffffffffffffffffffffffffffffffffffff\n      and\n        /* \"FlipKart.sol\":10982:10992  msg.sender */\n      caller\n        /* \"FlipKart.sol\":11023:11048  issuableBrandRewardTokens */\n      dup5\n        /* \"FlipKart.sol\":10880:11075  FlipToken(token).transferFrom(... */\n      mload(0x40)\n      dup5\n      0xffffffff\n      and\n      0xe0\n      shl\n      dup2\n      mstore\n      0x04\n      add\n      tag_419\n      swap4\n      swap3\n      swap2\n      swap1\n      tag_412\n      jump\t// in\n    tag_419:\n      0x20\n      mload(0x40)\n      dup1\n      dup4\n      sub\n      dup2\n      0x00\n      dup8\n      gas\n      call\n      iszero\n      dup1\n      iszero\n      tag_421\n      jumpi\n      returndatasize\n      0x00\n      dup1\n      returndatacopy\n      revert(0x00, returndatasize)\n    tag_421:\n      pop\n      pop\n      pop\n      pop\n      mload(0x40)\n      returndatasize\n      not(0x1f)\n      0x1f\n      dup3\n      add\n      and\n      dup3\n      add\n      dup1\n      0x40\n      mstore\n      pop\n      dup2\n      add\n      swap1\n      tag_422\n      swap2\n      swap1\n      tag_133\n      jump\t// in\n    tag_422:\n      pop\n        /* \"FlipKart.sol\":11174:11199  issuableBrandRewardTokens */\n      dup1\n        /* \"FlipKart.sol\":11102:11114  brandDetails */\n      0x01\n        /* \"FlipKart.sol\":11115:11122  brandId */\n      dup16\n        /* \"FlipKart.sol\":11102:11123  brandDetails[brandId] */\n      mload(0x40)\n      tag_423\n      swap2\n      swap1\n      tag_109\n      jump\t// in\n    tag_423:\n      swap1\n      dup2\n      mstore\n      0x20\n      add\n      mload(0x40)\n      dup1\n      swap2\n      sub\n      swap1\n      keccak256\n        /* \"FlipKart.sol\":11102:11170  brandDetails[brandId]... */\n      0x07\n      add\n      0x00\n        /* \"FlipKart.sol\":11102:11199  brandDetails[brandId]... */\n      dup3\n      dup3\n      sload\n      tag_424\n      swap2\n      swap1\n      tag_277\n      jump\t// in\n    tag_424:\n      swap3\n      pop\n      pop\n      dup2\n      swap1\n      sstore\n      pop\n        /* \"FlipKart.sol\":10406:11223  if (brand.rewardTokensLeft <= issuableBrandRewardTokens) {... */\n    tag_418:\n        /* \"FlipKart.sol\":10145:11242  {... */\n      pop\n        /* \"FlipKart.sol\":9911:11242  if (... */\n    tag_398:\n        /* \"FlipKart.sol\":9887:9890  i++ */\n      dup1\n      dup1\n      tag_425\n      swap1\n      tag_426\n      jump\t// in\n    tag_425:\n      swap2\n      pop\n      pop\n        /* \"FlipKart.sol\":9835:11257  for (uint i = 0; i < brand.rewardMilestones.length; i++) {... */\n      jump(tag_374)\n    tag_375:\n      pop\n        /* \"FlipKart.sol\":9763:11268  if (brand.isIssuingTokens && brand.rewardTokensLeft > 0) {... */\n    tag_373:\n        /* \"FlipKart.sol\":5982:11275  {... */\n      pop\n      pop\n      pop\n      pop\n      pop\n      pop\n      pop\n      pop\n        /* \"FlipKart.sol\":5800:11275  function buyProduct(... */\n      pop\n      pop\n      pop\n      pop\n      jump\t// out\n        /* \"FlipKart.sol\":5481:5792  function buyTokens(string memory brandId) public payable {... */\n    tag_65:\n        /* \"FlipKart.sol\":5588:5598  msg.sender */\n      caller\n        /* \"FlipKart.sol\":5557:5598  brandDetails[brandId].owner == msg.sender */\n      0xffffffffffffffffffffffffffffffffffffffff\n      and\n        /* \"FlipKart.sol\":5557:5569  brandDetails */\n      0x01\n        /* \"FlipKart.sol\":5570:5577  brandId */\n      dup3\n        /* \"FlipKart.sol\":5557:5578  brandDetails[brandId] */\n      mload(0x40)\n      tag_428\n      swap2\n      swap1\n      tag_109\n      jump\t// in\n    tag_428:\n      swap1\n      dup2\n      mstore\n      0x20\n      add\n      mload(0x40)\n      dup1\n      swap2\n      sub\n      swap1\n      keccak256\n        /* \"FlipKart.sol\":5557:5584  brandDetails[brandId].owner */\n      0x03\n      add\n      0x00\n      swap1\n      sload\n      swap1\n      0x0100\n      exp\n      swap1\n      div\n      0xffffffffffffffffffffffffffffffffffffffff\n      and\n        /* \"FlipKart.sol\":5557:5598  brandDetails[brandId].owner == msg.sender */\n      0xffffffffffffffffffffffffffffffffffffffff\n      and\n      eq\n        /* \"FlipKart.sol\":5549:5599  require(brandDetails[brandId].owner == msg.sender) */\n      tag_429\n      jumpi\n      0x00\n      dup1\n      revert\n    tag_429:\n        /* \"FlipKart.sol\":5610:5630  uint tokensPurchased */\n      0x00\n        /* \"FlipKart.sol\":5660:5670  tokenValue */\n      sload(0x0b)\n        /* \"FlipKart.sol\":5647:5655  10 ** 18 */\n      0x0de0b6b3a7640000\n        /* \"FlipKart.sol\":5634:5643  msg.value */\n      callvalue\n        /* \"FlipKart.sol\":5634:5656  msg.value * (10 ** 18) */\n      tag_430\n      swap2\n      swap1\n      tag_127\n      jump\t// in\n    tag_430:\n        /* \"FlipKart.sol\":5633:5670  (msg.value * (10 ** 18)) / tokenValue */\n      tag_431\n      swap2\n      swap1\n      tag_268\n      jump\t// in\n    tag_431:\n        /* \"FlipKart.sol\":5610:5670  uint tokensPurchased = (msg.value * (10 ** 18)) / tokenValue */\n      swap1\n      pop\n        /* \"FlipKart.sol\":5691:5696  token */\n      0x0a\n      0x00\n      swap1\n      sload\n      swap1\n      0x0100\n      exp\n      swap1\n      div\n      0xffffffffffffffffffffffffffffffffffffffff\n      and\n        /* \"FlipKart.sol\":5681:5702  FlipToken(token).mint */\n      0xffffffffffffffffffffffffffffffffffffffff\n      and\n      0xa0712d68\n        /* \"FlipKart.sol\":5703:5718  tokensPurchased */\n      dup3\n        /* \"FlipKart.sol\":5681:5719  FlipToken(token).mint(tokensPurchased) */\n      mload(0x40)\n      dup3\n      0xffffffff\n      and\n      0xe0\n      shl\n      dup2\n      mstore\n      0x04\n      add\n      tag_432\n      swap2\n      swap1\n      tag_82\n      jump\t// in\n    tag_432:\n      0x00\n      mload(0x40)\n      dup1\n      dup4\n      sub\n      dup2\n      0x00\n      dup8\n      dup1\n      extcodesize\n      iszero\n      dup1\n      iszero\n      tag_433\n      jumpi\n      0x00\n      dup1\n      revert\n    tag_433:\n      pop\n      gas\n      call\n      iszero\n      dup1\n      iszero\n      tag_435\n      jumpi\n      returndatasize\n      0x00\n      dup1\n      returndatacopy\n      revert(0x00, returndatasize)\n    tag_435:\n      pop\n      pop\n      pop\n      pop\n        /* \"FlipKart.sol\":5740:5745  token */\n      0x0a\n      0x00\n      swap1\n      sload\n      swap1\n      0x0100\n      exp\n      swap1\n      div\n      0xffffffffffffffffffffffffffffffffffffffff\n      and\n        /* \"FlipKart.sol\":5730:5755  FlipToken(token).transfer */\n      0xffffffffffffffffffffffffffffffffffffffff\n      and\n      0xa9059cbb\n        /* \"FlipKart.sol\":5756:5766  msg.sender */\n      caller\n        /* \"FlipKart.sol\":5768:5783  tokensPurchased */\n      dup4\n        /* \"FlipKart.sol\":5730:5784  FlipToken(token).transfer(msg.sender, tokensPurchased) */\n      mload(0x40)\n      dup4\n      0xffffffff\n      and\n      0xe0\n      shl\n      dup2\n      mstore\n      0x04\n      add\n      tag_436\n      swap3\n      swap2\n      swap1\n      tag_129\n      jump\t// in\n    tag_436:\n      0x20\n      mload(0x40)\n      dup1\n      dup4\n      sub\n      dup2\n      0x00\n      dup8\n      gas\n      call\n      iszero\n      dup1\n      iszero\n      tag_438\n      jumpi\n      returndatasize\n      0x00\n      dup1\n      returndatacopy\n      revert(0x00, returndatasize)\n    tag_438:\n      pop\n      pop\n      pop\n      pop\n      mload(0x40)\n      returndatasize\n      not(0x1f)\n      0x1f\n      dup3\n      add\n      and\n      dup3\n      add\n      dup1\n      0x40\n      mstore\n      pop\n      dup2\n      add\n      swap1\n      tag_439\n      swap2\n      swap1\n      tag_133\n      jump\t// in\n    tag_439:\n      pop\n        /* \"FlipKart.sol\":5538:5792  {... */\n      pop\n        /* \"FlipKart.sol\":5481:5792  function buyTokens(string memory brandId) public payable {... */\n      pop\n      jump\t// out\n        /* \"FlipKart.sol\":3892:4621  function addProduct(... */\n    tag_70:\n        /* \"FlipKart.sol\":4091:4101  msg.sender */\n      caller\n        /* \"FlipKart.sol\":4060:4101  brandDetails[brandId].owner == msg.sender */\n      0xffffffffffffffffffffffffffffffffffffffff\n      and\n        /* \"FlipKart.sol\":4060:4072  brandDetails */\n      0x01\n        /* \"FlipKart.sol\":4073:4080  brandId */\n      dup6\n        /* \"FlipKart.sol\":4060:4081  brandDetails[brandId] */\n      mload(0x40)\n      tag_441\n      swap2\n      swap1\n      tag_109\n      jump\t// in\n    tag_441:\n      swap1\n      dup2\n      mstore\n      0x20\n      add\n      mload(0x40)\n      dup1\n      swap2\n      sub\n      swap1\n      keccak256\n        /* \"FlipKart.sol\":4060:4087  brandDetails[brandId].owner */\n      0x03\n      add\n      0x00\n      swap1\n      sload\n      swap1\n      0x0100\n      exp\n      swap1\n      div\n      0xffffffffffffffffffffffffffffffffffffffff\n      and\n        /* \"FlipKart.sol\":4060:4101  brandDetails[brandId].owner == msg.sender */\n      0xffffffffffffffffffffffffffffffffffffffff\n      and\n      eq\n        /* \"FlipKart.sol\":4052:4102  require(brandDetails[brandId].owner == msg.sender) */\n      tag_442\n      jumpi\n      0x00\n      dup1\n      revert\n    tag_442:\n        /* \"FlipKart.sol\":4113:4136  string memory productId */\n      0x00\n        /* \"FlipKart.sol\":4139:4304  Strings.toHexString(... */\n      tag_443\n        /* \"FlipKart.sol\":4226:4230  name */\n      dup5\n        /* \"FlipKart.sol\":4232:4242  msg.sender */\n      caller\n        /* \"FlipKart.sol\":4244:4259  block.timestamp */\n      timestamp\n        /* \"FlipKart.sol\":4209:4260  abi.encodePacked(name, msg.sender, block.timestamp) */\n      add(0x20, mload(0x40))\n      tag_444\n      swap4\n      swap3\n      swap2\n      swap1\n      tag_445\n      jump\t// in\n    tag_444:\n      mload(0x40)\n      0x20\n      dup2\n      dup4\n      sub\n      sub\n      dup2\n      mstore\n      swap1\n      0x40\n      mstore\n        /* \"FlipKart.sol\":4199:4261  keccak256(abi.encodePacked(name, msg.sender, block.timestamp)) */\n      dup1\n      mload\n      swap1\n      0x20\n      add\n      keccak256\n        /* \"FlipKart.sol\":4173:4276  uint256(... */\n      0x00\n      shr\n        /* \"FlipKart.sol\":4291:4293  32 */\n      0x20\n        /* \"FlipKart.sol\":4139:4158  Strings.toHexString */\n      tag_148\n        /* \"FlipKart.sol\":4139:4304  Strings.toHexString(... */\n      jump\t// in\n    tag_443:\n        /* \"FlipKart.sol\":4113:4304  string memory productId = Strings.toHexString(... */\n      swap1\n      pop\n        /* \"FlipKart.sol\":4315:4337  Product memory product */\n      0x00\n        /* \"FlipKart.sol\":4340:4503  Product({... */\n      mload(0x40)\n      dup1\n      0xa0\n      add\n      0x40\n      mstore\n      dup1\n        /* \"FlipKart.sol\":4367:4376  productId */\n      dup4\n        /* \"FlipKart.sol\":4340:4503  Product({... */\n      dup2\n      mstore\n      0x20\n      add\n        /* \"FlipKart.sol\":4397:4401  name */\n      dup7\n        /* \"FlipKart.sol\":4340:4503  Product({... */\n      dup2\n      mstore\n      0x20\n      add\n        /* \"FlipKart.sol\":4426:4434  category */\n      dup6\n        /* \"FlipKart.sol\":4340:4503  Product({... */\n      dup2\n      mstore\n      0x20\n      add\n        /* \"FlipKart.sol\":4456:4461  price */\n      dup5\n        /* \"FlipKart.sol\":4340:4503  Product({... */\n      dup2\n      mstore\n      0x20\n      add\n        /* \"FlipKart.sol\":4487:4491  true */\n      0x01\n        /* \"FlipKart.sol\":4340:4503  Product({... */\n      iszero\n      iszero\n      dup2\n      mstore\n      pop\n        /* \"FlipKart.sol\":4315:4503  Product memory product = Product({... */\n      swap1\n      pop\n        /* \"FlipKart.sol\":4514:4526  brandDetails */\n      0x01\n        /* \"FlipKart.sol\":4527:4534  brandId */\n      dup7\n        /* \"FlipKart.sol\":4514:4535  brandDetails[brandId] */\n      mload(0x40)\n      tag_446\n      swap2\n      swap1\n      tag_109\n      jump\t// in\n    tag_446:\n      swap1\n      dup2\n      mstore\n      0x20\n      add\n      mload(0x40)\n      dup1\n      swap2\n      sub\n      swap1\n      keccak256\n        /* \"FlipKart.sol\":4514:4544  brandDetails[brandId].products */\n      0x04\n      add\n        /* \"FlipKart.sol\":4550:4557  product */\n      dup2\n        /* \"FlipKart.sol\":4514:4558  brandDetails[brandId].products.push(product) */\n      swap1\n      dup1\n      0x01\n      dup2\n      sload\n      add\n      dup1\n      dup3\n      sstore\n      dup1\n      swap2\n      pop\n      pop\n      0x01\n      swap1\n      sub\n      swap1\n      0x00\n      mstore\n      keccak256(0x00, 0x20)\n      swap1\n      0x05\n      mul\n      add\n      0x00\n      swap1\n      swap2\n      swap1\n      swap2\n      swap1\n      swap2\n      pop\n      0x00\n      dup3\n      add\n      mload\n      dup2\n      0x00\n      add\n      swap1\n      dup2\n      tag_448\n      swap2\n      swap1\n      tag_119\n      jump\t// in\n    tag_448:\n      pop\n      0x20\n      dup3\n      add\n      mload\n      dup2\n      0x01\n      add\n      swap1\n      dup2\n      tag_449\n      swap2\n      swap1\n      tag_119\n      jump\t// in\n    tag_449:\n      pop\n      0x40\n      dup3\n      add\n      mload\n      dup2\n      0x02\n      add\n      swap1\n      dup2\n      tag_450\n      swap2\n      swap1\n      tag_119\n      jump\t// in\n    tag_450:\n      pop\n      0x60\n      dup3\n      add\n      mload\n      dup2\n      0x03\n      add\n      sstore\n      0x80\n      dup3\n      add\n      mload\n      dup2\n      0x04\n      add\n      exp(0x0100, 0x00)\n      dup2\n      sload\n      dup2\n      0xff\n      mul\n      not\n      and\n      swap1\n      dup4\n      iszero\n      iszero\n      mul\n      or\n      swap1\n      sstore\n      pop\n      pop\n      pop\n        /* \"FlipKart.sol\":4606:4613  product */\n      dup1\n        /* \"FlipKart.sol\":4569:4583  productDetails */\n      0x02\n        /* \"FlipKart.sol\":4584:4591  brandId */\n      dup8\n        /* \"FlipKart.sol\":4569:4592  productDetails[brandId] */\n      mload(0x40)\n      tag_451\n      swap2\n      swap1\n      tag_109\n      jump\t// in\n    tag_451:\n      swap1\n      dup2\n      mstore\n      0x20\n      add\n      mload(0x40)\n      dup1\n      swap2\n      sub\n      swap1\n      keccak256\n        /* \"FlipKart.sol\":4593:4602  productId */\n      dup4\n        /* \"FlipKart.sol\":4569:4603  productDetails[brandId][productId] */\n      mload(0x40)\n      tag_452\n      swap2\n      swap1\n      tag_109\n      jump\t// in\n    tag_452:\n      swap1\n      dup2\n      mstore\n      0x20\n      add\n      mload(0x40)\n      dup1\n      swap2\n      sub\n      swap1\n      keccak256\n        /* \"FlipKart.sol\":4569:4613  productDetails[brandId][productId] = product */\n      0x00\n      dup3\n      add\n      mload\n      dup2\n      0x00\n      add\n      swap1\n      dup2\n      tag_453\n      swap2\n      swap1\n      tag_119\n      jump\t// in\n    tag_453:\n      pop\n      0x20\n      dup3\n      add\n      mload\n      dup2\n      0x01\n      add\n      swap1\n      dup2\n      tag_454\n      swap2\n      swap1\n      tag_119\n      jump\t// in\n    tag_454:\n      pop\n      0x40\n      dup3\n      add\n      mload\n      dup2\n      0x02\n      add\n      swap1\n      dup2\n      tag_455\n      swap2\n      swap1\n      tag_119\n      jump\t// in\n    tag_455:\n      pop\n      0x60\n      dup3\n      add\n      mload\n      dup2\n      0x03\n      add\n      sstore\n      0x80\n      dup3\n      add\n      mload\n      dup2\n      0x04\n      add\n      exp(0x0100, 0x00)\n      dup2\n      sload\n      dup2\n      0xff\n      mul\n      not\n      and\n      swap1\n      dup4\n      iszero\n      iszero\n      mul\n      or\n      swap1\n      sstore\n      pop\n      swap1\n      pop\n      pop\n        /* \"FlipKart.sol\":4041:4621  {... */\n      pop\n      pop\n        /* \"FlipKart.sol\":3892:4621  function addProduct(... */\n      pop\n      pop\n      pop\n      pop\n      jump\t// out\n        /* \"FlipKart.sol\":1451:1518  mapping(string => mapping(string => Product)) public productDetails */\n    tag_74:\n      0x02\n      dup3\n      dup1\n      mload\n      0x20\n      dup2\n      add\n      dup3\n      add\n      dup1\n      mload\n      dup5\n      dup3\n      mstore\n      0x20\n      dup4\n      add\n      0x20\n      dup6\n      add\n      keccak256\n      dup2\n      dup4\n      mstore\n      dup1\n      swap6\n      pop\n      pop\n      pop\n      pop\n      pop\n      pop\n      dup2\n      dup1\n      mload\n      0x20\n      dup2\n      add\n      dup3\n      add\n      dup1\n      mload\n      dup5\n      dup3\n      mstore\n      0x20\n      dup4\n      add\n      0x20\n      dup6\n      add\n      keccak256\n      dup2\n      dup4\n      mstore\n      dup1\n      swap6\n      pop\n      pop\n      pop\n      pop\n      pop\n      pop\n      0x00\n      swap2\n      pop\n      swap2\n      pop\n      pop\n      dup1\n      0x00\n      add\n      dup1\n      sload\n      tag_456\n      swap1\n      tag_173\n      jump\t// in\n    tag_456:\n      dup1\n      0x1f\n      add\n      0x20\n      dup1\n      swap2\n      div\n      mul\n      0x20\n      add\n      mload(0x40)\n      swap1\n      dup2\n      add\n      0x40\n      mstore\n      dup1\n      swap3\n      swap2\n      swap1\n      dup2\n      dup2\n      mstore\n      0x20\n      add\n      dup3\n      dup1\n      sload\n      tag_457\n      swap1\n      tag_173\n      jump\t// in\n    tag_457:\n      dup1\n      iszero\n      tag_458\n      jumpi\n      dup1\n      0x1f\n      lt\n      tag_459\n      jumpi\n      0x0100\n      dup1\n      dup4\n      sload\n      div\n      mul\n      dup4\n      mstore\n      swap2\n      0x20\n      add\n      swap2\n      jump(tag_458)\n    tag_459:\n      dup3\n      add\n      swap2\n      swap1\n      0x00\n      mstore\n      keccak256(0x00, 0x20)\n      swap1\n    tag_460:\n      dup2\n      sload\n      dup2\n      mstore\n      swap1\n      0x01\n      add\n      swap1\n      0x20\n      add\n      dup1\n      dup4\n      gt\n      tag_460\n      jumpi\n      dup3\n      swap1\n      sub\n      0x1f\n      and\n      dup3\n      add\n      swap2\n    tag_458:\n      pop\n      pop\n      pop\n      pop\n      pop\n      swap1\n      dup1\n      0x01\n      add\n      dup1\n      sload\n      tag_461\n      swap1\n      tag_173\n      jump\t// in\n    tag_461:\n      dup1\n      0x1f\n      add\n      0x20\n      dup1\n      swap2\n      div\n      mul\n      0x20\n      add\n      mload(0x40)\n      swap1\n      dup2\n      add\n      0x40\n      mstore\n      dup1\n      swap3\n      swap2\n      swap1\n      dup2\n      dup2\n      mstore\n      0x20\n      add\n      dup3\n      dup1\n      sload\n      tag_462\n      swap1\n      tag_173\n      jump\t// in\n    tag_462:\n      dup1\n      iszero\n      tag_463\n      jumpi\n      dup1\n      0x1f\n      lt\n      tag_464\n      jumpi\n      0x0100\n      dup1\n      dup4\n      sload\n      div\n      mul\n      dup4\n      mstore\n      swap2\n      0x20\n      add\n      swap2\n      jump(tag_463)\n    tag_464:\n      dup3\n      add\n      swap2\n      swap1\n      0x00\n      mstore\n      keccak256(0x00, 0x20)\n      swap1\n    tag_465:\n      dup2\n      sload\n      dup2\n      mstore\n      swap1\n      0x01\n      add\n      swap1\n      0x20\n      add\n      dup1\n      dup4\n      gt\n      tag_465\n      jumpi\n      dup3\n      swap1\n      sub\n      0x1f\n      and\n      dup3\n      add\n      swap2\n    tag_463:\n      pop\n      pop\n      pop\n      pop\n      pop\n      swap1\n      dup1\n      0x02\n      add\n      dup1\n      sload\n      tag_466\n      swap1\n      tag_173\n      jump\t// in\n    tag_466:\n      dup1\n      0x1f\n      add\n      0x20\n      dup1\n      swap2\n      div\n      mul\n      0x20\n      add\n      mload(0x40)\n      swap1\n      dup2\n      add\n      0x40\n      mstore\n      dup1\n      swap3\n      swap2\n      swap1\n      dup2\n      dup2\n      mstore\n      0x20\n      add\n      dup3\n      dup1\n      sload\n      tag_467\n      swap1\n      tag_173\n      jump\t// in\n    tag_467:\n      dup1\n      iszero\n      tag_468\n      jumpi\n      dup1\n      0x1f\n      lt\n      tag_469\n      jumpi\n      0x0100\n      dup1\n      dup4\n      sload\n      div\n      mul\n      dup4\n      mstore\n      swap2\n      0x20\n      add\n      swap2\n      jump(tag_468)\n    tag_469:\n      dup3\n      add\n      swap2\n      swap1\n      0x00\n      mstore\n      keccak256(0x00, 0x20)\n      swap1\n    tag_470:\n      dup2\n      sload\n      dup2\n      mstore\n      swap1\n      0x01\n      add\n      swap1\n      0x20\n      add\n      dup1\n      dup4\n      gt\n      tag_470\n      jumpi\n      dup3\n      swap1\n      sub\n      0x1f\n      and\n      dup3\n      add\n      swap2\n    tag_468:\n      pop\n      pop\n      pop\n      pop\n      pop\n      swap1\n      dup1\n      0x03\n      add\n      sload\n      swap1\n      dup1\n      0x04\n      add\n      0x00\n      swap1\n      sload\n      swap1\n      0x0100\n      exp\n      swap1\n      div\n      0xff\n      and\n      swap1\n      pop\n      dup6\n      jump\t// out\n        /* \"FlipKart.sol\":13501:13627  function showBalance(address account) public view returns (uint) {... */\n    tag_80:\n        /* \"FlipKart.sol\":13560:13564  uint */\n      0x00\n        /* \"FlipKart.sol\":13594:13599  token */\n      0x0a\n      0x00\n      swap1\n      sload\n      swap1\n      0x0100\n      exp\n      swap1\n      div\n      0xffffffffffffffffffffffffffffffffffffffff\n      and\n        /* \"FlipKart.sol\":13584:13610  FlipToken(token).balanceOf */\n      0xffffffffffffffffffffffffffffffffffffffff\n      and\n      0x70a08231\n        /* \"FlipKart.sol\":13611:13618  account */\n      dup4\n        /* \"FlipKart.sol\":13584:13619  FlipToken(token).balanceOf(account) */\n      mload(0x40)\n      dup3\n      0xffffffff\n      and\n      0xe0\n      shl\n      dup2\n      mstore\n      0x04\n      add\n      tag_472\n      swap2\n      swap1\n      tag_473\n      jump\t// in\n    tag_472:\n      0x20\n      mload(0x40)\n      dup1\n      dup4\n      sub\n      dup2\n      dup7\n      gas\n      staticcall\n      iszero\n      dup1\n      iszero\n      tag_475\n      jumpi\n      returndatasize\n      0x00\n      dup1\n      returndatacopy\n      revert(0x00, returndatasize)\n    tag_475:\n      pop\n      pop\n      pop\n      pop\n      mload(0x40)\n      returndatasize\n      not(0x1f)\n      0x1f\n      dup3\n      add\n      and\n      dup3\n      add\n      dup1\n      0x40\n      mstore\n      pop\n      dup2\n      add\n      swap1\n      tag_476\n      swap2\n      swap1\n      tag_477\n      jump\t// in\n    tag_476:\n        /* \"FlipKart.sol\":13577:13619  return FlipToken(token).balanceOf(account) */\n      swap1\n      pop\n        /* \"FlipKart.sol\":13501:13627  function showBalance(address account) public view returns (uint) {... */\n      swap2\n      swap1\n      pop\n      jump\t// out\n        /* \"FlipKart.sol\":12938:13099  function showBrandProducts(... */\n    tag_86:\n        /* \"FlipKart.sol\":13025:13041  Product[] memory */\n      0x60\n        /* \"FlipKart.sol\":13061:13073  brandDetails */\n      0x01\n        /* \"FlipKart.sol\":13074:13081  brandId */\n      dup3\n        /* \"FlipKart.sol\":13061:13082  brandDetails[brandId] */\n      mload(0x40)\n      tag_479\n      swap2\n      swap1\n      tag_109\n      jump\t// in\n    tag_479:\n      swap1\n      dup2\n      mstore\n      0x20\n      add\n      mload(0x40)\n      dup1\n      swap2\n      sub\n      swap1\n      keccak256\n        /* \"FlipKart.sol\":13061:13091  brandDetails[brandId].products */\n      0x04\n      add\n        /* \"FlipKart.sol\":13054:13091  return brandDetails[brandId].products */\n      dup1\n      sload\n      dup1\n      0x20\n      mul\n      0x20\n      add\n      mload(0x40)\n      swap1\n      dup2\n      add\n      0x40\n      mstore\n      dup1\n      swap3\n      swap2\n      swap1\n      dup2\n      dup2\n      mstore\n      0x20\n      add\n      0x00\n      swap1\n    tag_480:\n      dup3\n      dup3\n      lt\n      iszero\n      tag_481\n      jumpi\n      dup4\n      dup3\n      swap1\n      0x00\n      mstore\n      keccak256(0x00, 0x20)\n      swap1\n      0x05\n      mul\n      add\n      mload(0x40)\n      dup1\n      0xa0\n      add\n      0x40\n      mstore\n      swap1\n      dup2\n      0x00\n      dup3\n      add\n      dup1\n      sload\n      tag_483\n      swap1\n      tag_173\n      jump\t// in\n    tag_483:\n      dup1\n      0x1f\n      add\n      0x20\n      dup1\n      swap2\n      div\n      mul\n      0x20\n      add\n      mload(0x40)\n      swap1\n      dup2\n      add\n      0x40\n      mstore\n      dup1\n      swap3\n      swap2\n      swap1\n      dup2\n      dup2\n      mstore\n      0x20\n      add\n      dup3\n      dup1\n      sload\n      tag_484\n      swap1\n      tag_173\n      jump\t// in\n    tag_484:\n      dup1\n      iszero\n      tag_485\n      jumpi\n      dup1\n      0x1f\n      lt\n      tag_486\n      jumpi\n      0x0100\n      dup1\n      dup4\n      sload\n      div\n      mul\n      dup4\n      mstore\n      swap2\n      0x20\n      add\n      swap2\n      jump(tag_485)\n    tag_486:\n      dup3\n      add\n      swap2\n      swap1\n      0x00\n      mstore\n      keccak256(0x00, 0x20)\n      swap1\n    tag_487:\n      dup2\n      sload\n      dup2\n      mstore\n      swap1\n      0x01\n      add\n      swap1\n      0x20\n      add\n      dup1\n      dup4\n      gt\n      tag_487\n      jumpi\n      dup3\n      swap1\n      sub\n      0x1f\n      and\n      dup3\n      add\n      swap2\n    tag_485:\n      pop\n      pop\n      pop\n      pop\n      pop\n      dup2\n      mstore\n      0x20\n      add\n      0x01\n      dup3\n      add\n      dup1\n      sload\n      tag_488\n      swap1\n      tag_173\n      jump\t// in\n    tag_488:\n      dup1\n      0x1f\n      add\n      0x20\n      dup1\n      swap2\n      div\n      mul\n      0x20\n      add\n      mload(0x40)\n      swap1\n      dup2\n      add\n      0x40\n      mstore\n      dup1\n      swap3\n      swap2\n      swap1\n      dup2\n      dup2\n      mstore\n      0x20\n      add\n      dup3\n      dup1\n      sload\n      tag_489\n      swap1\n      tag_173\n      jump\t// in\n    tag_489:\n      dup1\n      iszero\n      tag_490\n      jumpi\n      dup1\n      0x1f\n      lt\n      tag_491\n      jumpi\n      0x0100\n      dup1\n      dup4\n      sload\n      div\n      mul\n      dup4\n      mstore\n      swap2\n      0x20\n      add\n      swap2\n      jump(tag_490)\n    tag_491:\n      dup3\n      add\n      swap2\n      swap1\n      0x00\n      mstore\n      keccak256(0x00, 0x20)\n      swap1\n    tag_492:\n      dup2\n      sload\n      dup2\n      mstore\n      swap1\n      0x01\n      add\n      swap1\n      0x20\n      add\n      dup1\n      dup4\n      gt\n      tag_492\n      jumpi\n      dup3\n      swap1\n      sub\n      0x1f\n      and\n      dup3\n      add\n      swap2\n    tag_490:\n      pop\n      pop\n      pop\n      pop\n      pop\n      dup2\n      mstore\n      0x20\n      add\n      0x02\n      dup3\n      add\n      dup1\n      sload\n      tag_493\n      swap1\n      tag_173\n      jump\t// in\n    tag_493:\n      dup1\n      0x1f\n      add\n      0x20\n      dup1\n      swap2\n      div\n      mul\n      0x20\n      add\n      mload(0x40)\n      swap1\n      dup2\n      add\n      0x40\n      mstore\n      dup1\n      swap3\n      swap2\n      swap1\n      dup2\n      dup2\n      mstore\n      0x20\n      add\n      dup3\n      dup1\n      sload\n      tag_494\n      swap1\n      tag_173\n      jump\t// in\n    tag_494:\n      dup1\n      iszero\n      tag_495\n      jumpi\n      dup1\n      0x1f\n      lt\n      tag_496\n      jumpi\n      0x0100\n      dup1\n      dup4\n      sload\n      div\n      mul\n      dup4\n      mstore\n      swap2\n      0x20\n      add\n      swap2\n      jump(tag_495)\n    tag_496:\n      dup3\n      add\n      swap2\n      swap1\n      0x00\n      mstore\n      keccak256(0x00, 0x20)\n      swap1\n    tag_497:\n      dup2\n      sload\n      dup2\n      mstore\n      swap1\n      0x01\n      add\n      swap1\n      0x20\n      add\n      dup1\n      dup4\n      gt\n      tag_497\n      jumpi\n      dup3\n      swap1\n      sub\n      0x1f\n      and\n      dup3\n      add\n      swap2\n    tag_495:\n      pop\n      pop\n      pop\n      pop\n      pop\n      dup2\n      mstore\n      0x20\n      add\n      0x03\n      dup3\n      add\n      sload\n      dup2\n      mstore\n      0x20\n      add\n      0x04\n      dup3\n      add\n      0x00\n      swap1\n      sload\n      swap1\n      0x0100\n      exp\n      swap1\n      div\n      0xff\n      and\n      iszero\n      iszero\n      iszero\n      iszero\n      dup2\n      mstore\n      pop\n      pop\n      dup2\n      mstore\n      0x20\n      add\n      swap1\n      0x01\n      add\n      swap1\n      jump(tag_480)\n    tag_481:\n      pop\n      pop\n      pop\n      pop\n      swap1\n      pop\n        /* \"FlipKart.sol\":12938:13099  function showBrandProducts(... */\n      swap2\n      swap1\n      pop\n      jump\t// out\n        /* \"FlipKart.sol\":13318:13493  function showUserPurchaseHistory(... */\n    tag_92:\n        /* \"FlipKart.sol\":13405:13429  UserTransaction[] memory */\n      0x60\n        /* \"FlipKart.sol\":13449:13460  userDetails */\n      0x03\n        /* \"FlipKart.sol\":13449:13469  userDetails[account] */\n      0x00\n        /* \"FlipKart.sol\":13461:13468  account */\n      dup4\n        /* \"FlipKart.sol\":13449:13469  userDetails[account] */\n      0xffffffffffffffffffffffffffffffffffffffff\n      and\n      0xffffffffffffffffffffffffffffffffffffffff\n      and\n      dup2\n      mstore\n      0x20\n      add\n      swap1\n      dup2\n      mstore\n      0x20\n      add\n      0x00\n      keccak256\n        /* \"FlipKart.sol\":13449:13485  userDetails[account].purchaseHistory */\n      0x03\n      add\n        /* \"FlipKart.sol\":13442:13485  return userDetails[account].purchaseHistory */\n      dup1\n      sload\n      dup1\n      0x20\n      mul\n      0x20\n      add\n      mload(0x40)\n      swap1\n      dup2\n      add\n      0x40\n      mstore\n      dup1\n      swap3\n      swap2\n      swap1\n      dup2\n      dup2\n      mstore\n      0x20\n      add\n      0x00\n      swap1\n    tag_499:\n      dup3\n      dup3\n      lt\n      iszero\n      tag_500\n      jumpi\n      dup4\n      dup3\n      swap1\n      0x00\n      mstore\n      keccak256(0x00, 0x20)\n      swap1\n      0x07\n      mul\n      add\n      mload(0x40)\n      dup1\n      0xe0\n      add\n      0x40\n      mstore\n      swap1\n      dup2\n      0x00\n      dup3\n      add\n      dup1\n      sload\n      tag_502\n      swap1\n      tag_173\n      jump\t// in\n    tag_502:\n      dup1\n      0x1f\n      add\n      0x20\n      dup1\n      swap2\n      div\n      mul\n      0x20\n      add\n      mload(0x40)\n      swap1\n      dup2\n      add\n      0x40\n      mstore\n      dup1\n      swap3\n      swap2\n      swap1\n      dup2\n      dup2\n      mstore\n      0x20\n      add\n      dup3\n      dup1\n      sload\n      tag_503\n      swap1\n      tag_173\n      jump\t// in\n    tag_503:\n      dup1\n      iszero\n      tag_504\n      jumpi\n      dup1\n      0x1f\n      lt\n      tag_505\n      jumpi\n      0x0100\n      dup1\n      dup4\n      sload\n      div\n      mul\n      dup4\n      mstore\n      swap2\n      0x20\n      add\n      swap2\n      jump(tag_504)\n    tag_505:\n      dup3\n      add\n      swap2\n      swap1\n      0x00\n      mstore\n      keccak256(0x00, 0x20)\n      swap1\n    tag_506:\n      dup2\n      sload\n      dup2\n      mstore\n      swap1\n      0x01\n      add\n      swap1\n      0x20\n      add\n      dup1\n      dup4\n      gt\n      tag_506\n      jumpi\n      dup3\n      swap1\n      sub\n      0x1f\n      and\n      dup3\n      add\n      swap2\n    tag_504:\n      pop\n      pop\n      pop\n      pop\n      pop\n      dup2\n      mstore\n      0x20\n      add\n      0x01\n      dup3\n      add\n      dup1\n      sload\n      tag_507\n      swap1\n      tag_173\n      jump\t// in\n    tag_507:\n      dup1\n      0x1f\n      add\n      0x20\n      dup1\n      swap2\n      div\n      mul\n      0x20\n      add\n      mload(0x40)\n      swap1\n      dup2\n      add\n      0x40\n      mstore\n      dup1\n      swap3\n      swap2\n      swap1\n      dup2\n      dup2\n      mstore\n      0x20\n      add\n      dup3\n      dup1\n      sload\n      tag_508\n      swap1\n      tag_173\n      jump\t// in\n    tag_508:\n      dup1\n      iszero\n      tag_509\n      jumpi\n      dup1\n      0x1f\n      lt\n      tag_510\n      jumpi\n      0x0100\n      dup1\n      dup4\n      sload\n      div\n      mul\n      dup4\n      mstore\n      swap2\n      0x20\n      add\n      swap2\n      jump(tag_509)\n    tag_510:\n      dup3\n      add\n      swap2\n      swap1\n      0x00\n      mstore\n      keccak256(0x00, 0x20)\n      swap1\n    tag_511:\n      dup2\n      sload\n      dup2\n      mstore\n      swap1\n      0x01\n      add\n      swap1\n      0x20\n      add\n      dup1\n      dup4\n      gt\n      tag_511\n      jumpi\n      dup3\n      swap1\n      sub\n      0x1f\n      and\n      dup3\n      add\n      swap2\n    tag_509:\n      pop\n      pop\n      pop\n      pop\n      pop\n      dup2\n      mstore\n      0x20\n      add\n      0x02\n      dup3\n      add\n      dup1\n      sload\n      tag_512\n      swap1\n      tag_173\n      jump\t// in\n    tag_512:\n      dup1\n      0x1f\n      add\n      0x20\n      dup1\n      swap2\n      div\n      mul\n      0x20\n      add\n      mload(0x40)\n      swap1\n      dup2\n      add\n      0x40\n      mstore\n      dup1\n      swap3\n      swap2\n      swap1\n      dup2\n      dup2\n      mstore\n      0x20\n      add\n      dup3\n      dup1\n      sload\n      tag_513\n      swap1\n      tag_173\n      jump\t// in\n    tag_513:\n      dup1\n      iszero\n      tag_514\n      jumpi\n      dup1\n      0x1f\n      lt\n      tag_515\n      jumpi\n      0x0100\n      dup1\n      dup4\n      sload\n      div\n      mul\n      dup4\n      mstore\n      swap2\n      0x20\n      add\n      swap2\n      jump(tag_514)\n    tag_515:\n      dup3\n      add\n      swap2\n      swap1\n      0x00\n      mstore\n      keccak256(0x00, 0x20)\n      swap1\n    tag_516:\n      dup2\n      sload\n      dup2\n      mstore\n      swap1\n      0x01\n      add\n      swap1\n      0x20\n      add\n      dup1\n      dup4\n      gt\n      tag_516\n      jumpi\n      dup3\n      swap1\n      sub\n      0x1f\n      and\n      dup3\n      add\n      swap2\n    tag_514:\n      pop\n      pop\n      pop\n      pop\n      pop\n      dup2\n      mstore\n      0x20\n      add\n      0x03\n      dup3\n      add\n      dup1\n      sload\n      tag_517\n      swap1\n      tag_173\n      jump\t// in\n    tag_517:\n      dup1\n      0x1f\n      add\n      0x20\n      dup1\n      swap2\n      div\n      mul\n      0x20\n      add\n      mload(0x40)\n      swap1\n      dup2\n      add\n      0x40\n      mstore\n      dup1\n      swap3\n      swap2\n      swap1\n      dup2\n      dup2\n      mstore\n      0x20\n      add\n      dup3\n      dup1\n      sload\n      tag_518\n      swap1\n      tag_173\n      jump\t// in\n    tag_518:\n      dup1\n      iszero\n      tag_519\n      jumpi\n      dup1\n      0x1f\n      lt\n      tag_520\n      jumpi\n      0x0100\n      dup1\n      dup4\n      sload\n      div\n      mul\n      dup4\n      mstore\n      swap2\n      0x20\n      add\n      swap2\n      jump(tag_519)\n    tag_520:\n      dup3\n      add\n      swap2\n      swap1\n      0x00\n      mstore\n      keccak256(0x00, 0x20)\n      swap1\n    tag_521:\n      dup2\n      sload\n      dup2\n      mstore\n      swap1\n      0x01\n      add\n      swap1\n      0x20\n      add\n      dup1\n      dup4\n      gt\n      tag_521\n      jumpi\n      dup3\n      swap1\n      sub\n      0x1f\n      and\n      dup3\n      add\n      swap2\n    tag_519:\n      pop\n      pop\n      pop\n      pop\n      pop\n      dup2\n      mstore\n      0x20\n      add\n      0x04\n      dup3\n      add\n      sload\n      dup2\n      mstore\n      0x20\n      add\n      0x05\n      dup3\n      add\n      sload\n      dup2\n      mstore\n      0x20\n      add\n      0x06\n      dup3\n      add\n      dup1\n      sload\n      tag_522\n      swap1\n      tag_173\n      jump\t// in\n    tag_522:\n      dup1\n      0x1f\n      add\n      0x20\n      dup1\n      swap2\n      div\n      mul\n      0x20\n      add\n      mload(0x40)\n      swap1\n      dup2\n      add\n      0x40\n      mstore\n      dup1\n      swap3\n      swap2\n      swap1\n      dup2\n      dup2\n      mstore\n      0x20\n      add\n      dup3\n      dup1\n      sload\n      tag_523\n      swap1\n      tag_173\n      jump\t// in\n    tag_523:\n      dup1\n      iszero\n      tag_524\n      jumpi\n      dup1\n      0x1f\n      lt\n      tag_525\n      jumpi\n      0x0100\n      dup1\n      dup4\n      sload\n      div\n      mul\n      dup4\n      mstore\n      swap2\n      0x20\n      add\n      swap2\n      jump(tag_524)\n    tag_525:\n      dup3\n      add\n      swap2\n      swap1\n      0x00\n      mstore\n      keccak256(0x00, 0x20)\n      swap1\n    tag_526:\n      dup2\n      sload\n      dup2\n      mstore\n      swap1\n      0x01\n      add\n      swap1\n      0x20\n      add\n      dup1\n      dup4\n      gt\n      tag_526\n      jumpi\n      dup3\n      swap1\n      sub\n      0x1f\n      and\n      dup3\n      add\n      swap2\n    tag_524:\n      pop\n      pop\n      pop\n      pop\n      pop\n      dup2\n      mstore\n      pop\n      pop\n      dup2\n      mstore\n      0x20\n      add\n      swap1\n      0x01\n      add\n      swap1\n      jump(tag_499)\n    tag_500:\n      pop\n      pop\n      pop\n      pop\n      swap1\n      pop\n        /* \"FlipKart.sol\":13318:13493  function showUserPurchaseHistory(... */\n      swap2\n      swap1\n      pop\n      jump\t// out\n        /* \"FlipKart.sol\":11283:11960  function createReward(... */\n    tag_99:\n        /* \"FlipKart.sol\":11479:11489  msg.sender */\n      caller\n        /* \"FlipKart.sol\":11448:11489  brandDetails[brandId].owner == msg.sender */\n      0xffffffffffffffffffffffffffffffffffffffff\n      and\n        /* \"FlipKart.sol\":11448:11460  brandDetails */\n      0x01\n        /* \"FlipKart.sol\":11461:11468  brandId */\n      dup6\n        /* \"FlipKart.sol\":11448:11469  brandDetails[brandId] */\n      mload(0x40)\n      tag_528\n      swap2\n      swap1\n      tag_109\n      jump\t// in\n    tag_528:\n      swap1\n      dup2\n      mstore\n      0x20\n      add\n      mload(0x40)\n      dup1\n      swap2\n      sub\n      swap1\n      keccak256\n        /* \"FlipKart.sol\":11448:11475  brandDetails[brandId].owner */\n      0x03\n      add\n      0x00\n      swap1\n      sload\n      swap1\n      0x0100\n      exp\n      swap1\n      div\n      0xffffffffffffffffffffffffffffffffffffffff\n      and\n        /* \"FlipKart.sol\":11448:11489  brandDetails[brandId].owner == msg.sender */\n      0xffffffffffffffffffffffffffffffffffffffff\n      and\n      eq\n        /* \"FlipKart.sol\":11440:11490  require(brandDetails[brandId].owner == msg.sender) */\n      tag_529\n      jumpi\n      0x00\n      dup1\n      revert\n    tag_529:\n        /* \"FlipKart.sol\":11501:11517  string memory id */\n      0x00\n        /* \"FlipKart.sol\":11520:11644  Strings.toHexString(... */\n      tag_530\n        /* \"FlipKart.sol\":11589:11596  brandId */\n      dup6\n        /* \"FlipKart.sol\":11598:11613  block.timestamp */\n      timestamp\n        /* \"FlipKart.sol\":11572:11614  abi.encodePacked(brandId, block.timestamp) */\n      add(0x20, mload(0x40))\n      tag_531\n      swap3\n      swap2\n      swap1\n      tag_532\n      jump\t// in\n    tag_531:\n      mload(0x40)\n      0x20\n      dup2\n      dup4\n      sub\n      sub\n      dup2\n      mstore\n      swap1\n      0x40\n      mstore\n        /* \"FlipKart.sol\":11562:11615  keccak256(abi.encodePacked(brandId, block.timestamp)) */\n      dup1\n      mload\n      swap1\n      0x20\n      add\n      keccak256\n        /* \"FlipKart.sol\":11554:11616  uint256(keccak256(abi.encodePacked(brandId, block.timestamp))) */\n      0x00\n      shr\n        /* \"FlipKart.sol\":11631:11633  32 */\n      0x20\n        /* \"FlipKart.sol\":11520:11539  Strings.toHexString */\n      tag_148\n        /* \"FlipKart.sol\":11520:11644  Strings.toHexString(... */\n      jump\t// in\n    tag_530:\n        /* \"FlipKart.sol\":11501:11644  string memory id = Strings.toHexString(... */\n      swap1\n      pop\n        /* \"FlipKart.sol\":11655:11675  Reward memory reward */\n      0x00\n        /* \"FlipKart.sol\":11678:11868  Reward({... */\n      mload(0x40)\n      dup1\n      0xa0\n      add\n      0x40\n      mstore\n      dup1\n        /* \"FlipKart.sol\":11704:11706  id */\n      dup4\n        /* \"FlipKart.sol\":11678:11868  Reward({... */\n      dup2\n      mstore\n      0x20\n      add\n        /* \"FlipKart.sol\":11730:11737  brandId */\n      dup8\n        /* \"FlipKart.sol\":11678:11868  Reward({... */\n      dup2\n      mstore\n      0x20\n      add\n        /* \"FlipKart.sol\":11762:11770  discount */\n      dup7\n        /* \"FlipKart.sol\":11678:11868  Reward({... */\n      dup2\n      mstore\n      0x20\n      add\n        /* \"FlipKart.sol\":11803:11819  maxDiscountValue */\n      dup6\n        /* \"FlipKart.sol\":11678:11868  Reward({... */\n      dup2\n      mstore\n      0x20\n      add\n        /* \"FlipKart.sol\":11850:11856  tokens */\n      dup5\n        /* \"FlipKart.sol\":11678:11868  Reward({... */\n      dup2\n      mstore\n      pop\n        /* \"FlipKart.sol\":11655:11868  Reward memory reward = Reward({... */\n      swap1\n      pop\n        /* \"FlipKart.sol\":11893:11899  reward */\n      dup1\n        /* \"FlipKart.sol\":11879:11886  rewards */\n      0x06\n        /* \"FlipKart.sol\":11887:11889  id */\n      dup4\n        /* \"FlipKart.sol\":11879:11890  rewards[id] */\n      mload(0x40)\n      tag_533\n      swap2\n      swap1\n      tag_109\n      jump\t// in\n    tag_533:\n      swap1\n      dup2\n      mstore\n      0x20\n      add\n      mload(0x40)\n      dup1\n      swap2\n      sub\n      swap1\n      keccak256\n        /* \"FlipKart.sol\":11879:11899  rewards[id] = reward */\n      0x00\n      dup3\n      add\n      mload\n      dup2\n      0x00\n      add\n      swap1\n      dup2\n      tag_534\n      swap2\n      swap1\n      tag_119\n      jump\t// in\n    tag_534:\n      pop\n      0x20\n      dup3\n      add\n      mload\n      dup2\n      0x01\n      add\n      swap1\n      dup2\n      tag_535\n      swap2\n      swap1\n      tag_119\n      jump\t// in\n    tag_535:\n      pop\n      0x40\n      dup3\n      add\n      mload\n      dup2\n      0x02\n      add\n      sstore\n      0x60\n      dup3\n      add\n      mload\n      dup2\n      0x03\n      add\n      sstore\n      0x80\n      dup3\n      add\n      mload\n      dup2\n      0x04\n      add\n      sstore\n      swap1\n      pop\n      pop\n        /* \"FlipKart.sol\":11910:11922  brandDetails */\n      0x01\n        /* \"FlipKart.sol\":11923:11930  brandId */\n      dup7\n        /* \"FlipKart.sol\":11910:11931  brandDetails[brandId] */\n      mload(0x40)\n      tag_536\n      swap2\n      swap1\n      tag_109\n      jump\t// in\n    tag_536:\n      swap1\n      dup2\n      mstore\n      0x20\n      add\n      mload(0x40)\n      dup1\n      swap2\n      sub\n      swap1\n      keccak256\n        /* \"FlipKart.sol\":11910:11939  brandDetails[brandId].rewards */\n      0x05\n      add\n        /* \"FlipKart.sol\":11945:11951  reward */\n      dup2\n        /* \"FlipKart.sol\":11910:11952  brandDetails[brandId].rewards.push(reward) */\n      swap1\n      dup1\n      0x01\n      dup2\n      sload\n      add\n      dup1\n      dup3\n      sstore\n      dup1\n      swap2\n      pop\n      pop\n      0x01\n      swap1\n      sub\n      swap1\n      0x00\n      mstore\n      keccak256(0x00, 0x20)\n      swap1\n      0x05\n      mul\n      add\n      0x00\n      swap1\n      swap2\n      swap1\n      swap2\n      swap1\n      swap2\n      pop\n      0x00\n      dup3\n      add\n      mload\n      dup2\n      0x00\n      add\n      swap1\n      dup2\n      tag_538\n      swap2\n      swap1\n      tag_119\n      jump\t// in\n    tag_538:\n      pop\n      0x20\n      dup3\n      add\n      mload\n      dup2\n      0x01\n      add\n      swap1\n      dup2\n      tag_539\n      swap2\n      swap1\n      tag_119\n      jump\t// in\n    tag_539:\n      pop\n      0x40\n      dup3\n      add\n      mload\n      dup2\n      0x02\n      add\n      sstore\n      0x60\n      dup3\n      add\n      mload\n      dup2\n      0x03\n      add\n      sstore\n      0x80\n      dup3\n      add\n      mload\n      dup2\n      0x04\n      add\n      sstore\n      pop\n      pop\n        /* \"FlipKart.sol\":11429:11960  {... */\n      pop\n      pop\n        /* \"FlipKart.sol\":11283:11960  function createReward(... */\n      pop\n      pop\n      pop\n      pop\n      jump\t// out\n        /* \"FlipKart.sol\":1371:1393  string[] public brands */\n    tag_104:\n      0x00\n      dup2\n      dup2\n      sload\n      dup2\n      lt\n      tag_540\n      jumpi\n      0x00\n      dup1\n      revert\n    tag_540:\n      swap1\n      0x00\n      mstore\n      keccak256(0x00, 0x20)\n      add\n      0x00\n      swap2\n      pop\n      swap1\n      pop\n      dup1\n      sload\n      tag_542\n      swap1\n      tag_173\n      jump\t// in\n    tag_542:\n      dup1\n      0x1f\n      add\n      0x20\n      dup1\n      swap2\n      div\n      mul\n      0x20\n      add\n      mload(0x40)\n      swap1\n      dup2\n      add\n      0x40\n      mstore\n      dup1\n      swap3\n      swap2\n      swap1\n      dup2\n      dup2\n      mstore\n      0x20\n      add\n      dup3\n      dup1\n      sload\n      tag_543\n      swap1\n      tag_173\n      jump\t// in\n    tag_543:\n      dup1\n      iszero\n      tag_544\n      jumpi\n      dup1\n      0x1f\n      lt\n      tag_545\n      jumpi\n      0x0100\n      dup1\n      dup4\n      sload\n      div\n      mul\n      dup4\n      mstore\n      swap2\n      0x20\n      add\n      swap2\n      jump(tag_544)\n    tag_545:\n      dup3\n      add\n      swap2\n      swap1\n      0x00\n      mstore\n      keccak256(0x00, 0x20)\n      swap1\n    tag_546:\n      dup2\n      sload\n      dup2\n      mstore\n      swap1\n      0x01\n      add\n      swap1\n      0x20\n      add\n      dup1\n      dup4\n      gt\n      tag_546\n      jumpi\n      dup3\n      swap1\n      sub\n      0x1f\n      and\n      dup3\n      add\n      swap2\n    tag_544:\n      pop\n      pop\n      pop\n      pop\n      pop\n      dup2\n      jump\t// out\n        /* \"FlipKart.sol\":2110:2627  function generateRandomCode() private view returns (string memory) {... */\n    tag_114:\n        /* \"FlipKart.sol\":2162:2175  string memory */\n      0x60\n        /* \"FlipKart.sol\":2188:2212  bytes memory randomBytes */\n      0x00\n        /* \"FlipKart.sol\":2225:2226  6 */\n      0x06\n        /* \"FlipKart.sol\":2215:2227  new bytes(6) */\n      0xffffffffffffffff\n      dup2\n      gt\n      iszero\n      tag_548\n      jumpi\n      tag_549\n      tag_550\n      jump\t// in\n    tag_549:\n    tag_548:\n      mload(0x40)\n      swap1\n      dup1\n      dup3\n      mstore\n      dup1\n      0x1f\n      add\n      not(0x1f)\n      and\n      0x20\n      add\n      dup3\n      add\n      0x40\n      mstore\n      dup1\n      iszero\n      tag_551\n      jumpi\n      dup2\n      0x20\n      add\n      0x01\n      dup3\n      mul\n      dup1\n      calldatasize\n      dup4\n      calldatacopy\n      dup1\n      dup3\n      add\n      swap2\n      pop\n      pop\n      swap1\n      pop\n    tag_551:\n      pop\n        /* \"FlipKart.sol\":2188:2227  bytes memory randomBytes = new bytes(6) */\n      swap1\n      pop\n        /* \"FlipKart.sol\":2243:2249  uint i */\n      0x00\n        /* \"FlipKart.sol\":2238:2583  for (uint i = 0; i < 6; i++) {... */\n    tag_552:\n        /* \"FlipKart.sol\":2259:2260  6 */\n      0x06\n        /* \"FlipKart.sol\":2255:2256  i */\n      dup2\n        /* \"FlipKart.sol\":2255:2260  i < 6 */\n      lt\n        /* \"FlipKart.sol\":2238:2583  for (uint i = 0; i < 6; i++) {... */\n      iszero\n      tag_553\n      jumpi\n        /* \"FlipKart.sol\":2282:2299  uint8 randomValue */\n      0x00\n        /* \"FlipKart.sol\":2491:2493  10 */\n      0x0a\n        /* \"FlipKart.sol\":2409:2424  block.timestamp */\n      timestamp\n        /* \"FlipKart.sol\":2426:2442  block.prevrandao */\n      prevrandao\n        /* \"FlipKart.sol\":2444:2445  i */\n      dup5\n        /* \"FlipKart.sol\":2392:2446  abi.encodePacked(block.timestamp, block.prevrandao, i) */\n      add(0x20, mload(0x40))\n      tag_555\n      swap4\n      swap3\n      swap2\n      swap1\n      tag_556\n      jump\t// in\n    tag_555:\n      mload(0x40)\n      0x20\n      dup2\n      dup4\n      sub\n      sub\n      dup2\n      mstore\n      swap1\n      0x40\n      mstore\n        /* \"FlipKart.sol\":2356:2469  keccak256(... */\n      dup1\n      mload\n      swap1\n      0x20\n      add\n      keccak256\n        /* \"FlipKart.sol\":2326:2488  uint256(... */\n      0x00\n      shr\n        /* \"FlipKart.sol\":2326:2493  uint256(... */\n      tag_557\n      swap2\n      swap1\n      tag_558\n      jump\t// in\n    tag_557:\n        /* \"FlipKart.sol\":2282:2508  uint8 randomValue = uint8(... */\n      swap1\n      pop\n        /* \"FlipKart.sol\":2558:2569  randomValue */\n      dup1\n        /* \"FlipKart.sol\":2553:2555  48 */\n      0x30\n        /* \"FlipKart.sol\":2553:2569  48 + randomValue */\n      tag_559\n      swap2\n      swap1\n      tag_560\n      jump\t// in\n    tag_559:\n        /* \"FlipKart.sol\":2540:2571  bytes1(uint8(48 + randomValue)) */\n      0xf8\n      shl\n        /* \"FlipKart.sol\":2523:2534  randomBytes */\n      dup4\n        /* \"FlipKart.sol\":2535:2536  i */\n      dup4\n        /* \"FlipKart.sol\":2523:2537  randomBytes[i] */\n      dup2\n      mload\n      dup2\n      lt\n      tag_561\n      jumpi\n      tag_562\n      tag_379\n      jump\t// in\n    tag_562:\n    tag_561:\n      0x20\n      add\n      add\n        /* \"FlipKart.sol\":2523:2571  randomBytes[i] = bytes1(uint8(48 + randomValue)) */\n      swap1\n      not(0xffffffffffffffffffffffffffffffffffffffffffffffffffffffffffffff)\n      and\n      swap1\n      dup2\n      0x00\n      byte\n      swap1\n      mstore8\n      pop\n        /* \"FlipKart.sol\":2267:2583  {... */\n      pop\n        /* \"FlipKart.sol\":2262:2265  i++ */\n      dup1\n      dup1\n      tag_563\n      swap1\n      tag_426\n      jump\t// in\n    tag_563:\n      swap2\n      pop\n      pop\n        /* \"FlipKart.sol\":2238:2583  for (uint i = 0; i < 6; i++) {... */\n      jump(tag_552)\n    tag_553:\n      pop\n        /* \"FlipKart.sol\":2607:2618  randomBytes */\n      dup1\n        /* \"FlipKart.sol\":2593:2619  return string(randomBytes) */\n      swap2\n      pop\n      pop\n        /* \"FlipKart.sol\":2110:2627  function generateRandomCode() private view returns (string memory) {... */\n      swap1\n      jump\t// out\n        /* \"@openzeppelin/contracts/utils/Strings.sol\":1818:2255   */\n    tag_148:\n        /* \"@openzeppelin/contracts/utils/Strings.sol\":1893:1906   */\n      0x60\n        /* \"@openzeppelin/contracts/utils/Strings.sol\":1918:1937   */\n      0x00\n        /* \"@openzeppelin/contracts/utils/Strings.sol\":1963:1964   */\n      0x02\n        /* \"@openzeppelin/contracts/utils/Strings.sol\":1954:1960   */\n      dup4\n        /* \"@openzeppelin/contracts/utils/Strings.sol\":1950:1951   */\n      0x02\n        /* \"@openzeppelin/contracts/utils/Strings.sol\":1950:1960   */\n      tag_565\n      swap2\n      swap1\n      tag_127\n      jump\t// in\n    tag_565:\n        /* \"@openzeppelin/contracts/utils/Strings.sol\":1950:1964   */\n      tag_566\n      swap2\n      swap1\n      tag_202\n      jump\t// in\n    tag_566:\n        /* \"@openzeppelin/contracts/utils/Strings.sol\":1940:1965   */\n      0xffffffffffffffff\n      dup2\n      gt\n      iszero\n      tag_567\n      jumpi\n      tag_568\n      tag_550\n      jump\t// in\n    tag_568:\n    tag_567:\n      mload(0x40)\n      swap1\n      dup1\n      dup3\n      mstore\n      dup1\n      0x1f\n      add\n      not(0x1f)\n      and\n      0x20\n      add\n      dup3\n      add\n      0x40\n      mstore\n      dup1\n      iszero\n      tag_569\n      jumpi\n      dup2\n      0x20\n      add\n      0x01\n      dup3\n      mul\n      dup1\n      calldatasize\n      dup4\n      calldatacopy\n      dup1\n      dup3\n      add\n      swap2\n      pop\n      pop\n      swap1\n      pop\n    tag_569:\n      pop\n        /* \"@openzeppelin/contracts/utils/Strings.sol\":1918:1965   */\n      swap1\n      pop\n        /* \"@openzeppelin/contracts/utils/Strings.sol\":1975:1990   */\n      0x3000000000000000000000000000000000000000000000000000000000000000\n        /* \"@openzeppelin/contracts/utils/Strings.sol\":1975:1981   */\n      dup2\n        /* \"@openzeppelin/contracts/utils/Strings.sol\":1982:1983   */\n      0x00\n        /* \"@openzeppelin/contracts/utils/Strings.sol\":1975:1984   */\n      dup2\n      mload\n      dup2\n      lt\n      tag_570\n      jumpi\n      tag_571\n      tag_379\n      jump\t// in\n    tag_571:\n    tag_570:\n      0x20\n      add\n      add\n        /* \"@openzeppelin/contracts/utils/Strings.sol\":1975:1990   */\n      swap1\n      not(0xffffffffffffffffffffffffffffffffffffffffffffffffffffffffffffff)\n      and\n      swap1\n      dup2\n      0x00\n      byte\n      swap1\n      mstore8\n      pop\n        /* \"@openzeppelin/contracts/utils/Strings.sol\":2000:2015   */\n      0x7800000000000000000000000000000000000000000000000000000000000000\n        /* \"@openzeppelin/contracts/utils/Strings.sol\":2000:2006   */\n      dup2\n        /* \"@openzeppelin/contracts/utils/Strings.sol\":2007:2008   */\n      0x01\n        /* \"@openzeppelin/contracts/utils/Strings.sol\":2000:2009   */\n      dup2\n      mload\n      dup2\n      lt\n      tag_572\n      jumpi\n      tag_573\n      tag_379\n      jump\t// in\n    tag_573:\n    tag_572:\n      0x20\n      add\n      add\n        /* \"@openzeppelin/contracts/utils/Strings.sol\":2000:2015   */\n      swap1\n      not(0xffffffffffffffffffffffffffffffffffffffffffffffffffffffffffffff)\n      and\n      swap1\n      dup2\n      0x00\n      byte\n      swap1\n      mstore8\n      pop\n        /* \"@openzeppelin/contracts/utils/Strings.sol\":2030:2039   */\n      0x00\n        /* \"@openzeppelin/contracts/utils/Strings.sol\":2055:2056   */\n      0x01\n        /* \"@openzeppelin/contracts/utils/Strings.sol\":2046:2052   */\n      dup5\n        /* \"@openzeppelin/contracts/utils/Strings.sol\":2042:2043   */\n      0x02\n        /* \"@openzeppelin/contracts/utils/Strings.sol\":2042:2052   */\n      tag_577\n      swap2\n      swap1\n      tag_127\n      jump\t// in\n    tag_577:\n        /* \"@openzeppelin/contracts/utils/Strings.sol\":2042:2056   */\n      tag_578\n      swap2\n      swap1\n      tag_202\n      jump\t// in\n    tag_578:\n        /* \"@openzeppelin/contracts/utils/Strings.sol\":2030:2056   */\n      swap1\n      pop\n        /* \"@openzeppelin/contracts/utils/Strings.sol\":2025:2153   */\n    tag_574:\n        /* \"@openzeppelin/contracts/utils/Strings.sol\":2062:2063   */\n      0x01\n        /* \"@openzeppelin/contracts/utils/Strings.sol\":2058:2059   */\n      dup2\n        /* \"@openzeppelin/contracts/utils/Strings.sol\":2058:2063   */\n      gt\n        /* \"@openzeppelin/contracts/utils/Strings.sol\":2025:2153   */\n      iszero\n      tag_575\n      jumpi\n        /* \"@openzeppelin/contracts/utils/Strings.sol\":2096:2104   */\n      0x3031323334353637383961626364656600000000000000000000000000000000\n        /* \"@openzeppelin/contracts/utils/Strings.sol\":2113:2116   */\n      0x0f\n        /* \"@openzeppelin/contracts/utils/Strings.sol\":2105:2110   */\n      dup7\n        /* \"@openzeppelin/contracts/utils/Strings.sol\":2105:2116   */\n      and\n        /* \"@openzeppelin/contracts/utils/Strings.sol\":2096:2117   */\n      0x10\n      dup2\n      lt\n      tag_579\n      jumpi\n      tag_580\n      tag_379\n      jump\t// in\n    tag_580:\n    tag_579:\n      byte\n      0xf8\n      shl\n        /* \"@openzeppelin/contracts/utils/Strings.sol\":2084:2090   */\n      dup3\n        /* \"@openzeppelin/contracts/utils/Strings.sol\":2091:2092   */\n      dup3\n        /* \"@openzeppelin/contracts/utils/Strings.sol\":2084:2093   */\n      dup2\n      mload\n      dup2\n      lt\n      tag_581\n      jumpi\n      tag_582\n      tag_379\n      jump\t// in\n    tag_582:\n    tag_581:\n      0x20\n      add\n      add\n        /* \"@openzeppelin/contracts/utils/Strings.sol\":2084:2117   */\n      swap1\n      not(0xffffffffffffffffffffffffffffffffffffffffffffffffffffffffffffff)\n      and\n      swap1\n      dup2\n      0x00\n      byte\n      swap1\n      mstore8\n      pop\n        /* \"@openzeppelin/contracts/utils/Strings.sol\":2141:2142   */\n      0x04\n        /* \"@openzeppelin/contracts/utils/Strings.sol\":2131:2142   */\n      dup6\n      swap1\n      shr\n      swap5\n      pop\n        /* \"@openzeppelin/contracts/utils/Strings.sol\":2065:2068   */\n      dup1\n      tag_583\n      swap1\n      tag_584\n      jump\t// in\n    tag_583:\n      swap1\n      pop\n        /* \"@openzeppelin/contracts/utils/Strings.sol\":2025:2153   */\n      jump(tag_574)\n    tag_575:\n      pop\n        /* \"@openzeppelin/contracts/utils/Strings.sol\":2179:2180   */\n      0x00\n        /* \"@openzeppelin/contracts/utils/Strings.sol\":2170:2175   */\n      dup5\n        /* \"@openzeppelin/contracts/utils/Strings.sol\":2170:2180   */\n      eq\n        /* \"@openzeppelin/contracts/utils/Strings.sol\":2162:2217   */\n      tag_585\n      jumpi\n      mload(0x40)\n      0x08c379a000000000000000000000000000000000000000000000000000000000\n      dup2\n      mstore\n      0x04\n      add\n      tag_586\n      swap1\n      tag_587\n      jump\t// in\n    tag_586:\n      mload(0x40)\n      dup1\n      swap2\n      sub\n      swap1\n      revert\n    tag_585:\n        /* \"@openzeppelin/contracts/utils/Strings.sol\":2241:2247   */\n      dup1\n        /* \"@openzeppelin/contracts/utils/Strings.sol\":2227:2248   */\n      swap2\n      pop\n      pop\n        /* \"@openzeppelin/contracts/utils/Strings.sol\":1818:2255   */\n      swap3\n      swap2\n      pop\n      pop\n      jump\t// out\n    tag_168:\n      mload(0x40)\n      dup1\n      0xa0\n      add\n      0x40\n      mstore\n      dup1\n      0x60\n      dup2\n      mstore\n      0x20\n      add\n      0x60\n      dup2\n      mstore\n      0x20\n      add\n      0x60\n      dup2\n      mstore\n      0x20\n      add\n      0x00\n      dup2\n      mstore\n      0x20\n      add\n      iszero(iszero(0x00))\n      dup2\n      mstore\n      pop\n      swap1\n      jump\t// out\n    tag_237:\n      dup3\n      dup1\n      sload\n      dup3\n      dup3\n      sstore\n      swap1\n      0x00\n      mstore\n      keccak256(0x00, 0x20)\n      swap1\n      dup2\n      add\n      swap3\n      dup3\n      iszero\n      tag_588\n      jumpi\n      swap2\n      0x20\n      mul\n      dup3\n      add\n    tag_589:\n      dup3\n      dup2\n      gt\n      iszero\n      tag_590\n      jumpi\n      dup3\n      mload\n      dup3\n      swap1\n      dup1\n      mload\n      swap1\n      0x20\n      add\n      swap1\n      tag_591\n      swap3\n      swap2\n      swap1\n      tag_592\n      jump\t// in\n    tag_591:\n      pop\n      swap2\n      0x20\n      add\n      swap2\n      swap1\n      0x01\n      add\n      swap1\n      jump(tag_589)\n    tag_590:\n    tag_588:\n      pop\n      swap1\n      pop\n      tag_593\n      swap2\n      swap1\n      tag_594\n      jump\t// in\n    tag_593:\n      pop\n      swap1\n      jump\t// out\n    tag_592:\n      dup3\n      dup1\n      sload\n      dup3\n      dup3\n      sstore\n      swap1\n      0x00\n      mstore\n      keccak256(0x00, 0x20)\n      swap1\n      dup2\n      add\n      swap3\n      dup3\n      iszero\n      tag_595\n      jumpi\n      swap2\n      0x20\n      mul\n      dup3\n      add\n    tag_596:\n      dup3\n      dup2\n      gt\n      iszero\n      tag_597\n      jumpi\n      dup3\n      mload\n      dup3\n      sstore\n      swap2\n      0x20\n      add\n      swap2\n      swap1\n      0x01\n      add\n      swap1\n      jump(tag_596)\n    tag_597:\n    tag_595:\n      pop\n      swap1\n      pop\n      tag_598\n      swap2\n      swap1\n      tag_599\n      jump\t// in\n    tag_598:\n      pop\n      swap1\n      jump\t// out\n    tag_594:\n    tag_600:\n      dup1\n      dup3\n      gt\n      iszero\n      tag_601\n      jumpi\n      0x00\n      dup2\n      dup2\n      tag_602\n      swap2\n      swap1\n      tag_603\n      jump\t// in\n    tag_602:\n      pop\n      0x01\n      add\n      jump(tag_600)\n    tag_601:\n      pop\n      swap1\n      jump\t// out\n    tag_599:\n    tag_604:\n      dup1\n      dup3\n      gt\n      iszero\n      tag_605\n      jumpi\n      0x00\n      dup2\n      0x00\n      swap1\n      sstore\n      pop\n      0x01\n      add\n      jump(tag_604)\n    tag_605:\n      pop\n      swap1\n      jump\t// out\n    tag_603:\n      pop\n      dup1\n      sload\n      0x00\n      dup3\n      sstore\n      swap1\n      0x00\n      mstore\n      keccak256(0x00, 0x20)\n      swap1\n      dup2\n      add\n      swap1\n      tag_607\n      swap2\n      swap1\n      tag_599\n      jump\t// in\n    tag_607:\n      pop\n      jump\t// out\n        /* \"#utility.yul\":7:82   */\n    tag_608:\n        /* \"#utility.yul\":40:46   */\n      0x00\n        /* \"#utility.yul\":73:75   */\n      0x40\n        /* \"#utility.yul\":67:76   */\n      mload\n        /* \"#utility.yul\":57:76   */\n      swap1\n      pop\n        /* \"#utility.yul\":7:82   */\n      swap1\n      jump\t// out\n        /* \"#utility.yul\":88:205   */\n    tag_609:\n        /* \"#utility.yul\":197:198   */\n      0x00\n        /* \"#utility.yul\":194:195   */\n      dup1\n        /* \"#utility.yul\":187:199   */\n      revert\n        /* \"#utility.yul\":211:328   */\n    tag_610:\n        /* \"#utility.yul\":320:321   */\n      0x00\n        /* \"#utility.yul\":317:318   */\n      dup1\n        /* \"#utility.yul\":310:322   */\n      revert\n        /* \"#utility.yul\":334:451   */\n    tag_611:\n        /* \"#utility.yul\":443:444   */\n      0x00\n        /* \"#utility.yul\":440:441   */\n      dup1\n        /* \"#utility.yul\":433:445   */\n      revert\n        /* \"#utility.yul\":457:574   */\n    tag_612:\n        /* \"#utility.yul\":566:567   */\n      0x00\n        /* \"#utility.yul\":563:564   */\n      dup1\n        /* \"#utility.yul\":556:568   */\n      revert\n        /* \"#utility.yul\":580:682   */\n    tag_613:\n        /* \"#utility.yul\":621:627   */\n      0x00\n        /* \"#utility.yul\":672:674   */\n      0x1f\n        /* \"#utility.yul\":668:675   */\n      not\n        /* \"#utility.yul\":663:665   */\n      0x1f\n        /* \"#utility.yul\":656:661   */\n      dup4\n        /* \"#utility.yul\":652:666   */\n      add\n        /* \"#utility.yul\":648:676   */\n      and\n        /* \"#utility.yul\":638:676   */\n      swap1\n      pop\n        /* \"#utility.yul\":580:682   */\n      swap2\n      swap1\n      pop\n      jump\t// out\n        /* \"#utility.yul\":688:868   */\n    tag_550:\n        /* \"#utility.yul\":736:813   */\n      0x4e487b7100000000000000000000000000000000000000000000000000000000\n        /* \"#utility.yul\":733:734   */\n      0x00\n        /* \"#utility.yul\":726:814   */\n      mstore\n        /* \"#utility.yul\":833:837   */\n      0x41\n        /* \"#utility.yul\":830:831   */\n      0x04\n        /* \"#utility.yul\":823:838   */\n      mstore\n        /* \"#utility.yul\":857:861   */\n      0x24\n        /* \"#utility.yul\":854:855   */\n      0x00\n        /* \"#utility.yul\":847:862   */\n      revert\n        /* \"#utility.yul\":874:1155   */\n    tag_614:\n        /* \"#utility.yul\":957:984   */\n      tag_716\n        /* \"#utility.yul\":979:983   */\n      dup3\n        /* \"#utility.yul\":957:984   */\n      tag_613\n      jump\t// in\n    tag_716:\n        /* \"#utility.yul\":949:955   */\n      dup2\n        /* \"#utility.yul\":945:985   */\n      add\n        /* \"#utility.yul\":1087:1093   */\n      dup2\n        /* \"#utility.yul\":1075:1085   */\n      dup2\n        /* \"#utility.yul\":1072:1094   */\n      lt\n        /* \"#utility.yul\":1051:1069   */\n      0xffffffffffffffff\n        /* \"#utility.yul\":1039:1049   */\n      dup3\n        /* \"#utility.yul\":1036:1070   */\n      gt\n        /* \"#utility.yul\":1033:1095   */\n      or\n        /* \"#utility.yul\":1030:1118   */\n      iszero\n      tag_717\n      jumpi\n        /* \"#utility.yul\":1098:1116   */\n      tag_718\n      tag_550\n      jump\t// in\n    tag_718:\n        /* \"#utility.yul\":1030:1118   */\n    tag_717:\n        /* \"#utility.yul\":1138:1148   */\n      dup1\n        /* \"#utility.yul\":1134:1136   */\n      0x40\n        /* \"#utility.yul\":1127:1149   */\n      mstore\n        /* \"#utility.yul\":917:1155   */\n      pop\n        /* \"#utility.yul\":874:1155   */\n      pop\n      pop\n      jump\t// out\n        /* \"#utility.yul\":1161:1290   */\n    tag_615:\n        /* \"#utility.yul\":1195:1201   */\n      0x00\n        /* \"#utility.yul\":1222:1242   */\n      tag_720\n      tag_608\n      jump\t// in\n    tag_720:\n        /* \"#utility.yul\":1212:1242   */\n      swap1\n      pop\n        /* \"#utility.yul\":1251:1284   */\n      tag_721\n        /* \"#utility.yul\":1279:1283   */\n      dup3\n        /* \"#utility.yul\":1271:1277   */\n      dup3\n        /* \"#utility.yul\":1251:1284   */\n      tag_614\n      jump\t// in\n    tag_721:\n        /* \"#utility.yul\":1161:1290   */\n      swap2\n      swap1\n      pop\n      jump\t// out\n        /* \"#utility.yul\":1296:1604   */\n    tag_616:\n        /* \"#utility.yul\":1358:1362   */\n      0x00\n        /* \"#utility.yul\":1448:1466   */\n      0xffffffffffffffff\n        /* \"#utility.yul\":1440:1446   */\n      dup3\n        /* \"#utility.yul\":1437:1467   */\n      gt\n        /* \"#utility.yul\":1434:1490   */\n      iszero\n      tag_723\n      jumpi\n        /* \"#utility.yul\":1470:1488   */\n      tag_724\n      tag_550\n      jump\t// in\n    tag_724:\n        /* \"#utility.yul\":1434:1490   */\n    tag_723:\n        /* \"#utility.yul\":1508:1537   */\n      tag_725\n        /* \"#utility.yul\":1530:1536   */\n      dup3\n        /* \"#utility.yul\":1508:1537   */\n      tag_613\n      jump\t// in\n    tag_725:\n        /* \"#utility.yul\":1500:1537   */\n      swap1\n      pop\n        /* \"#utility.yul\":1592:1596   */\n      0x20\n        /* \"#utility.yul\":1586:1590   */\n      dup2\n        /* \"#utility.yul\":1582:1597   */\n      add\n        /* \"#utility.yul\":1574:1597   */\n      swap1\n      pop\n        /* \"#utility.yul\":1296:1604   */\n      swap2\n      swap1\n      pop\n      jump\t// out\n        /* \"#utility.yul\":1610:1756   */\n    tag_617:\n        /* \"#utility.yul\":1707:1713   */\n      dup3\n        /* \"#utility.yul\":1702:1705   */\n      dup2\n        /* \"#utility.yul\":1697:1700   */\n      dup4\n        /* \"#utility.yul\":1684:1714   */\n      calldatacopy\n        /* \"#utility.yul\":1748:1749   */\n      0x00\n        /* \"#utility.yul\":1739:1745   */\n      dup4\n        /* \"#utility.yul\":1734:1737   */\n      dup4\n        /* \"#utility.yul\":1730:1746   */\n      add\n        /* \"#utility.yul\":1723:1750   */\n      mstore\n        /* \"#utility.yul\":1610:1756   */\n      pop\n      pop\n      pop\n      jump\t// out\n        /* \"#utility.yul\":1762:2187   */\n    tag_618:\n        /* \"#utility.yul\":1840:1845   */\n      0x00\n        /* \"#utility.yul\":1865:1931   */\n      tag_728\n        /* \"#utility.yul\":1881:1930   */\n      tag_729\n        /* \"#utility.yul\":1923:1929   */\n      dup5\n        /* \"#utility.yul\":1881:1930   */\n      tag_616\n      jump\t// in\n    tag_729:\n        /* \"#utility.yul\":1865:1931   */\n      tag_615\n      jump\t// in\n    tag_728:\n        /* \"#utility.yul\":1856:1931   */\n      swap1\n      pop\n        /* \"#utility.yul\":1954:1960   */\n      dup3\n        /* \"#utility.yul\":1947:1952   */\n      dup2\n        /* \"#utility.yul\":1940:1961   */\n      mstore\n        /* \"#utility.yul\":1992:1996   */\n      0x20\n        /* \"#utility.yul\":1985:1990   */\n      dup2\n        /* \"#utility.yul\":1981:1997   */\n      add\n        /* \"#utility.yul\":2030:2033   */\n      dup5\n        /* \"#utility.yul\":2021:2027   */\n      dup5\n        /* \"#utility.yul\":2016:2019   */\n      dup5\n        /* \"#utility.yul\":2012:2028   */\n      add\n        /* \"#utility.yul\":2009:2034   */\n      gt\n        /* \"#utility.yul\":2006:2118   */\n      iszero\n      tag_730\n      jumpi\n        /* \"#utility.yul\":2037:2116   */\n      tag_731\n      tag_612\n      jump\t// in\n    tag_731:\n        /* \"#utility.yul\":2006:2118   */\n    tag_730:\n        /* \"#utility.yul\":2127:2181   */\n      tag_732\n        /* \"#utility.yul\":2174:2180   */\n      dup5\n        /* \"#utility.yul\":2169:2172   */\n      dup3\n        /* \"#utility.yul\":2164:2167   */\n      dup6\n        /* \"#utility.yul\":2127:2181   */\n      tag_617\n      jump\t// in\n    tag_732:\n        /* \"#utility.yul\":1846:2187   */\n      pop\n        /* \"#utility.yul\":1762:2187   */\n      swap4\n      swap3\n      pop\n      pop\n      pop\n      jump\t// out\n        /* \"#utility.yul\":2207:2547   */\n    tag_619:\n        /* \"#utility.yul\":2263:2268   */\n      0x00\n        /* \"#utility.yul\":2312:2315   */\n      dup3\n        /* \"#utility.yul\":2305:2309   */\n      0x1f\n        /* \"#utility.yul\":2297:2303   */\n      dup4\n        /* \"#utility.yul\":2293:2310   */\n      add\n        /* \"#utility.yul\":2289:2316   */\n      slt\n        /* \"#utility.yul\":2279:2401   */\n      tag_734\n      jumpi\n        /* \"#utility.yul\":2320:2399   */\n      tag_735\n      tag_611\n      jump\t// in\n    tag_735:\n        /* \"#utility.yul\":2279:2401   */\n    tag_734:\n        /* \"#utility.yul\":2437:2443   */\n      dup2\n        /* \"#utility.yul\":2424:2444   */\n      calldataload\n        /* \"#utility.yul\":2462:2541   */\n      tag_736\n        /* \"#utility.yul\":2537:2540   */\n      dup5\n        /* \"#utility.yul\":2529:2535   */\n      dup3\n        /* \"#utility.yul\":2522:2526   */\n      0x20\n        /* \"#utility.yul\":2514:2520   */\n      dup7\n        /* \"#utility.yul\":2510:2527   */\n      add\n        /* \"#utility.yul\":2462:2541   */\n      tag_618\n      jump\t// in\n    tag_736:\n        /* \"#utility.yul\":2453:2541   */\n      swap2\n      pop\n        /* \"#utility.yul\":2269:2547   */\n      pop\n        /* \"#utility.yul\":2207:2547   */\n      swap3\n      swap2\n      pop\n      pop\n      jump\t// out\n        /* \"#utility.yul\":2553:3062   */\n    tag_24:\n        /* \"#utility.yul\":2622:2628   */\n      0x00\n        /* \"#utility.yul\":2671:2673   */\n      0x20\n        /* \"#utility.yul\":2659:2668   */\n      dup3\n        /* \"#utility.yul\":2650:2657   */\n      dup5\n        /* \"#utility.yul\":2646:2669   */\n      sub\n        /* \"#utility.yul\":2642:2674   */\n      slt\n        /* \"#utility.yul\":2639:2758   */\n      iszero\n      tag_738\n      jumpi\n        /* \"#utility.yul\":2677:2756   */\n      tag_739\n      tag_609\n      jump\t// in\n    tag_739:\n        /* \"#utility.yul\":2639:2758   */\n    tag_738:\n        /* \"#utility.yul\":2825:2826   */\n      0x00\n        /* \"#utility.yul\":2814:2823   */\n      dup3\n        /* \"#utility.yul\":2810:2827   */\n      add\n        /* \"#utility.yul\":2797:2828   */\n      calldataload\n        /* \"#utility.yul\":2855:2873   */\n      0xffffffffffffffff\n        /* \"#utility.yul\":2847:2853   */\n      dup2\n        /* \"#utility.yul\":2844:2874   */\n      gt\n        /* \"#utility.yul\":2841:2958   */\n      iszero\n      tag_740\n      jumpi\n        /* \"#utility.yul\":2877:2956   */\n      tag_741\n      tag_610\n      jump\t// in\n    tag_741:\n        /* \"#utility.yul\":2841:2958   */\n    tag_740:\n        /* \"#utility.yul\":2982:3045   */\n      tag_742\n        /* \"#utility.yul\":3037:3044   */\n      dup5\n        /* \"#utility.yul\":3028:3034   */\n      dup3\n        /* \"#utility.yul\":3017:3026   */\n      dup6\n        /* \"#utility.yul\":3013:3035   */\n      add\n        /* \"#utility.yul\":2982:3045   */\n      tag_619\n      jump\t// in\n    tag_742:\n        /* \"#utility.yul\":2972:3045   */\n      swap2\n      pop\n        /* \"#utility.yul\":2768:3055   */\n      pop\n        /* \"#utility.yul\":2553:3062   */\n      swap3\n      swap2\n      pop\n      pop\n      jump\t// out\n        /* \"#utility.yul\":3068:3902   */\n    tag_29:\n        /* \"#utility.yul\":3156:3162   */\n      0x00\n        /* \"#utility.yul\":3164:3170   */\n      dup1\n        /* \"#utility.yul\":3213:3215   */\n      0x40\n        /* \"#utility.yul\":3201:3210   */\n      dup4\n        /* \"#utility.yul\":3192:3199   */\n      dup6\n        /* \"#utility.yul\":3188:3211   */\n      sub\n        /* \"#utility.yul\":3184:3216   */\n      slt\n        /* \"#utility.yul\":3181:3300   */\n      iszero\n      tag_744\n      jumpi\n        /* \"#utility.yul\":3219:3298   */\n      tag_745\n      tag_609\n      jump\t// in\n    tag_745:\n        /* \"#utility.yul\":3181:3300   */\n    tag_744:\n        /* \"#utility.yul\":3367:3368   */\n      0x00\n        /* \"#utility.yul\":3356:3365   */\n      dup4\n        /* \"#utility.yul\":3352:3369   */\n      add\n        /* \"#utility.yul\":3339:3370   */\n      calldataload\n        /* \"#utility.yul\":3397:3415   */\n      0xffffffffffffffff\n        /* \"#utility.yul\":3389:3395   */\n      dup2\n        /* \"#utility.yul\":3386:3416   */\n      gt\n        /* \"#utility.yul\":3383:3500   */\n      iszero\n      tag_746\n      jumpi\n        /* \"#utility.yul\":3419:3498   */\n      tag_747\n      tag_610\n      jump\t// in\n    tag_747:\n        /* \"#utility.yul\":3383:3500   */\n    tag_746:\n        /* \"#utility.yul\":3524:3587   */\n      tag_748\n        /* \"#utility.yul\":3579:3586   */\n      dup6\n        /* \"#utility.yul\":3570:3576   */\n      dup3\n        /* \"#utility.yul\":3559:3568   */\n      dup7\n        /* \"#utility.yul\":3555:3577   */\n      add\n        /* \"#utility.yul\":3524:3587   */\n      tag_619\n      jump\t// in\n    tag_748:\n        /* \"#utility.yul\":3514:3587   */\n      swap3\n      pop\n        /* \"#utility.yul\":3310:3597   */\n      pop\n        /* \"#utility.yul\":3664:3666   */\n      0x20\n        /* \"#utility.yul\":3653:3662   */\n      dup4\n        /* \"#utility.yul\":3649:3667   */\n      add\n        /* \"#utility.yul\":3636:3668   */\n      calldataload\n        /* \"#utility.yul\":3695:3713   */\n      0xffffffffffffffff\n        /* \"#utility.yul\":3687:3693   */\n      dup2\n        /* \"#utility.yul\":3684:3714   */\n      gt\n        /* \"#utility.yul\":3681:3798   */\n      iszero\n      tag_749\n      jumpi\n        /* \"#utility.yul\":3717:3796   */\n      tag_750\n      tag_610\n      jump\t// in\n    tag_750:\n        /* \"#utility.yul\":3681:3798   */\n    tag_749:\n        /* \"#utility.yul\":3822:3885   */\n      tag_751\n        /* \"#utility.yul\":3877:3884   */\n      dup6\n        /* \"#utility.yul\":3868:3874   */\n      dup3\n        /* \"#utility.yul\":3857:3866   */\n      dup7\n        /* \"#utility.yul\":3853:3875   */\n      add\n        /* \"#utility.yul\":3822:3885   */\n      tag_619\n      jump\t// in\n    tag_751:\n        /* \"#utility.yul\":3812:3885   */\n      swap2\n      pop\n        /* \"#utility.yul\":3607:3895   */\n      pop\n        /* \"#utility.yul\":3068:3902   */\n      swap3\n      pop\n      swap3\n      swap1\n      pop\n      jump\t// out\n        /* \"#utility.yul\":3908:4007   */\n    tag_620:\n        /* \"#utility.yul\":3960:3966   */\n      0x00\n        /* \"#utility.yul\":3994:3999   */\n      dup2\n        /* \"#utility.yul\":3988:4000   */\n      mload\n        /* \"#utility.yul\":3978:4000   */\n      swap1\n      pop\n        /* \"#utility.yul\":3908:4007   */\n      swap2\n      swap1\n      pop\n      jump\t// out\n        /* \"#utility.yul\":4013:4172   */\n    tag_621:\n        /* \"#utility.yul\":4087:4098   */\n      0x00\n        /* \"#utility.yul\":4121:4127   */\n      dup3\n        /* \"#utility.yul\":4116:4119   */\n      dup3\n        /* \"#utility.yul\":4109:4128   */\n      mstore\n        /* \"#utility.yul\":4161:4165   */\n      0x20\n        /* \"#utility.yul\":4156:4159   */\n      dup3\n        /* \"#utility.yul\":4152:4166   */\n      add\n        /* \"#utility.yul\":4137:4166   */\n      swap1\n      pop\n        /* \"#utility.yul\":4013:4172   */\n      swap3\n      swap2\n      pop\n      pop\n      jump\t// out\n        /* \"#utility.yul\":4178:4424   */\n    tag_622:\n        /* \"#utility.yul\":4259:4260   */\n      0x00\n        /* \"#utility.yul\":4269:4382   */\n    tag_755:\n        /* \"#utility.yul\":4283:4289   */\n      dup4\n        /* \"#utility.yul\":4280:4281   */\n      dup2\n        /* \"#utility.yul\":4277:4290   */\n      lt\n        /* \"#utility.yul\":4269:4382   */\n      iszero\n      tag_757\n      jumpi\n        /* \"#utility.yul\":4368:4369   */\n      dup1\n        /* \"#utility.yul\":4363:4366   */\n      dup3\n        /* \"#utility.yul\":4359:4370   */\n      add\n        /* \"#utility.yul\":4353:4371   */\n      mload\n        /* \"#utility.yul\":4349:4350   */\n      dup2\n        /* \"#utility.yul\":4344:4347   */\n      dup5\n        /* \"#utility.yul\":4340:4351   */\n      add\n        /* \"#utility.yul\":4333:4372   */\n      mstore\n        /* \"#utility.yul\":4305:4307   */\n      0x20\n        /* \"#utility.yul\":4302:4303   */\n      dup2\n        /* \"#utility.yul\":4298:4308   */\n      add\n        /* \"#utility.yul\":4293:4308   */\n      swap1\n      pop\n        /* \"#utility.yul\":4269:4382   */\n      jump(tag_755)\n    tag_757:\n        /* \"#utility.yul\":4416:4417   */\n      0x00\n        /* \"#utility.yul\":4407:4413   */\n      dup5\n        /* \"#utility.yul\":4402:4405   */\n      dup5\n        /* \"#utility.yul\":4398:4414   */\n      add\n        /* \"#utility.yul\":4391:4418   */\n      mstore\n        /* \"#utility.yul\":4240:4424   */\n      pop\n        /* \"#utility.yul\":4178:4424   */\n      pop\n      pop\n      pop\n      jump\t// out\n        /* \"#utility.yul\":4430:4787   */\n    tag_623:\n        /* \"#utility.yul\":4508:4511   */\n      0x00\n        /* \"#utility.yul\":4536:4575   */\n      tag_759\n        /* \"#utility.yul\":4569:4574   */\n      dup3\n        /* \"#utility.yul\":4536:4575   */\n      tag_620\n      jump\t// in\n    tag_759:\n        /* \"#utility.yul\":4591:4652   */\n      tag_760\n        /* \"#utility.yul\":4645:4651   */\n      dup2\n        /* \"#utility.yul\":4640:4643   */\n      dup6\n        /* \"#utility.yul\":4591:4652   */\n      tag_621\n      jump\t// in\n    tag_760:\n        /* \"#utility.yul\":4584:4652   */\n      swap4\n      pop\n        /* \"#utility.yul\":4661:4726   */\n      tag_761\n        /* \"#utility.yul\":4719:4725   */\n      dup2\n        /* \"#utility.yul\":4714:4717   */\n      dup6\n        /* \"#utility.yul\":4707:4711   */\n      0x20\n        /* \"#utility.yul\":4700:4705   */\n      dup7\n        /* \"#utility.yul\":4696:4712   */\n      add\n        /* \"#utility.yul\":4661:4726   */\n      tag_622\n      jump\t// in\n    tag_761:\n        /* \"#utility.yul\":4751:4780   */\n      tag_762\n        /* \"#utility.yul\":4773:4779   */\n      dup2\n        /* \"#utility.yul\":4751:4780   */\n      tag_613\n      jump\t// in\n    tag_762:\n        /* \"#utility.yul\":4746:4749   */\n      dup5\n        /* \"#utility.yul\":4742:4781   */\n      add\n        /* \"#utility.yul\":4735:4781   */\n      swap2\n      pop\n        /* \"#utility.yul\":4512:4787   */\n      pop\n        /* \"#utility.yul\":4430:4787   */\n      swap3\n      swap2\n      pop\n      pop\n      jump\t// out\n        /* \"#utility.yul\":4793:4870   */\n    tag_624:\n        /* \"#utility.yul\":4830:4837   */\n      0x00\n        /* \"#utility.yul\":4859:4864   */\n      dup2\n        /* \"#utility.yul\":4848:4864   */\n      swap1\n      pop\n        /* \"#utility.yul\":4793:4870   */\n      swap2\n      swap1\n      pop\n      jump\t// out\n        /* \"#utility.yul\":4876:4984   */\n    tag_625:\n        /* \"#utility.yul\":4953:4977   */\n      tag_765\n        /* \"#utility.yul\":4971:4976   */\n      dup2\n        /* \"#utility.yul\":4953:4977   */\n      tag_624\n      jump\t// in\n    tag_765:\n        /* \"#utility.yul\":4948:4951   */\n      dup3\n        /* \"#utility.yul\":4941:4978   */\n      mstore\n        /* \"#utility.yul\":4876:4984   */\n      pop\n      pop\n      jump\t// out\n        /* \"#utility.yul\":4990:5080   */\n    tag_626:\n        /* \"#utility.yul\":5024:5031   */\n      0x00\n        /* \"#utility.yul\":5067:5072   */\n      dup2\n        /* \"#utility.yul\":5060:5073   */\n      iszero\n        /* \"#utility.yul\":5053:5074   */\n      iszero\n        /* \"#utility.yul\":5042:5074   */\n      swap1\n      pop\n        /* \"#utility.yul\":4990:5080   */\n      swap2\n      swap1\n      pop\n      jump\t// out\n        /* \"#utility.yul\":5086:5185   */\n    tag_627:\n        /* \"#utility.yul\":5157:5178   */\n      tag_768\n        /* \"#utility.yul\":5172:5177   */\n      dup2\n        /* \"#utility.yul\":5157:5178   */\n      tag_626\n      jump\t// in\n    tag_768:\n        /* \"#utility.yul\":5152:5155   */\n      dup3\n        /* \"#utility.yul\":5145:5179   */\n      mstore\n        /* \"#utility.yul\":5086:5185   */\n      pop\n      pop\n      jump\t// out\n        /* \"#utility.yul\":5249:6517   */\n    tag_628:\n        /* \"#utility.yul\":5364:5367   */\n      0x00\n        /* \"#utility.yul\":5400:5404   */\n      0xa0\n        /* \"#utility.yul\":5395:5398   */\n      dup4\n        /* \"#utility.yul\":5391:5405   */\n      add\n        /* \"#utility.yul\":5485:5489   */\n      0x00\n        /* \"#utility.yul\":5478:5483   */\n      dup4\n        /* \"#utility.yul\":5474:5490   */\n      add\n        /* \"#utility.yul\":5468:5491   */\n      mload\n        /* \"#utility.yul\":5538:5541   */\n      dup5\n        /* \"#utility.yul\":5532:5536   */\n      dup3\n        /* \"#utility.yul\":5528:5542   */\n      sub\n        /* \"#utility.yul\":5521:5525   */\n      0x00\n        /* \"#utility.yul\":5516:5519   */\n      dup7\n        /* \"#utility.yul\":5512:5526   */\n      add\n        /* \"#utility.yul\":5505:5543   */\n      mstore\n        /* \"#utility.yul\":5564:5637   */\n      tag_770\n        /* \"#utility.yul\":5632:5636   */\n      dup3\n        /* \"#utility.yul\":5618:5630   */\n      dup3\n        /* \"#utility.yul\":5564:5637   */\n      tag_623\n      jump\t// in\n    tag_770:\n        /* \"#utility.yul\":5556:5637   */\n      swap2\n      pop\n        /* \"#utility.yul\":5415:5648   */\n      pop\n        /* \"#utility.yul\":5730:5734   */\n      0x20\n        /* \"#utility.yul\":5723:5728   */\n      dup4\n        /* \"#utility.yul\":5719:5735   */\n      add\n        /* \"#utility.yul\":5713:5736   */\n      mload\n        /* \"#utility.yul\":5783:5786   */\n      dup5\n        /* \"#utility.yul\":5777:5781   */\n      dup3\n        /* \"#utility.yul\":5773:5787   */\n      sub\n        /* \"#utility.yul\":5766:5770   */\n      0x20\n        /* \"#utility.yul\":5761:5764   */\n      dup7\n        /* \"#utility.yul\":5757:5771   */\n      add\n        /* \"#utility.yul\":5750:5788   */\n      mstore\n        /* \"#utility.yul\":5809:5882   */\n      tag_771\n        /* \"#utility.yul\":5877:5881   */\n      dup3\n        /* \"#utility.yul\":5863:5875   */\n      dup3\n        /* \"#utility.yul\":5809:5882   */\n      tag_623\n      jump\t// in\n    tag_771:\n        /* \"#utility.yul\":5801:5882   */\n      swap2\n      pop\n        /* \"#utility.yul\":5658:5893   */\n      pop\n        /* \"#utility.yul\":5979:5983   */\n      0x40\n        /* \"#utility.yul\":5972:5977   */\n      dup4\n        /* \"#utility.yul\":5968:5984   */\n      add\n        /* \"#utility.yul\":5962:5985   */\n      mload\n        /* \"#utility.yul\":6032:6035   */\n      dup5\n        /* \"#utility.yul\":6026:6030   */\n      dup3\n        /* \"#utility.yul\":6022:6036   */\n      sub\n        /* \"#utility.yul\":6015:6019   */\n      0x40\n        /* \"#utility.yul\":6010:6013   */\n      dup7\n        /* \"#utility.yul\":6006:6020   */\n      add\n        /* \"#utility.yul\":5999:6037   */\n      mstore\n        /* \"#utility.yul\":6058:6131   */\n      tag_772\n        /* \"#utility.yul\":6126:6130   */\n      dup3\n        /* \"#utility.yul\":6112:6124   */\n      dup3\n        /* \"#utility.yul\":6058:6131   */\n      tag_623\n      jump\t// in\n    tag_772:\n        /* \"#utility.yul\":6050:6131   */\n      swap2\n      pop\n        /* \"#utility.yul\":5903:6142   */\n      pop\n        /* \"#utility.yul\":6225:6229   */\n      0x60\n        /* \"#utility.yul\":6218:6223   */\n      dup4\n        /* \"#utility.yul\":6214:6230   */\n      add\n        /* \"#utility.yul\":6208:6231   */\n      mload\n        /* \"#utility.yul\":6244:6307   */\n      tag_773\n        /* \"#utility.yul\":6301:6305   */\n      0x60\n        /* \"#utility.yul\":6296:6299   */\n      dup7\n        /* \"#utility.yul\":6292:6306   */\n      add\n        /* \"#utility.yul\":6278:6290   */\n      dup3\n        /* \"#utility.yul\":6244:6307   */\n      tag_625\n      jump\t// in\n    tag_773:\n        /* \"#utility.yul\":6152:6317   */\n      pop\n        /* \"#utility.yul\":6404:6408   */\n      0x80\n        /* \"#utility.yul\":6397:6402   */\n      dup4\n        /* \"#utility.yul\":6393:6409   */\n      add\n        /* \"#utility.yul\":6387:6410   */\n      mload\n        /* \"#utility.yul\":6423:6480   */\n      tag_774\n        /* \"#utility.yul\":6474:6478   */\n      0x80\n        /* \"#utility.yul\":6469:6472   */\n      dup7\n        /* \"#utility.yul\":6465:6479   */\n      add\n        /* \"#utility.yul\":6451:6463   */\n      dup3\n        /* \"#utility.yul\":6423:6480   */\n      tag_627\n      jump\t// in\n    tag_774:\n        /* \"#utility.yul\":6327:6490   */\n      pop\n        /* \"#utility.yul\":6507:6511   */\n      dup1\n        /* \"#utility.yul\":6500:6511   */\n      swap2\n      pop\n        /* \"#utility.yul\":5369:6517   */\n      pop\n        /* \"#utility.yul\":5249:6517   */\n      swap3\n      swap2\n      pop\n      pop\n      jump\t// out\n        /* \"#utility.yul\":6523:6888   */\n    tag_36:\n        /* \"#utility.yul\":6662:6666   */\n      0x00\n        /* \"#utility.yul\":6700:6702   */\n      0x20\n        /* \"#utility.yul\":6689:6698   */\n      dup3\n        /* \"#utility.yul\":6685:6703   */\n      add\n        /* \"#utility.yul\":6677:6703   */\n      swap1\n      pop\n        /* \"#utility.yul\":6749:6758   */\n      dup2\n        /* \"#utility.yul\":6743:6747   */\n      dup2\n        /* \"#utility.yul\":6739:6759   */\n      sub\n        /* \"#utility.yul\":6735:6736   */\n      0x00\n        /* \"#utility.yul\":6724:6733   */\n      dup4\n        /* \"#utility.yul\":6720:6737   */\n      add\n        /* \"#utility.yul\":6713:6760   */\n      mstore\n        /* \"#utility.yul\":6777:6881   */\n      tag_776\n        /* \"#utility.yul\":6876:6880   */\n      dup2\n        /* \"#utility.yul\":6867:6873   */\n      dup5\n        /* \"#utility.yul\":6777:6881   */\n      tag_628\n      jump\t// in\n    tag_776:\n        /* \"#utility.yul\":6769:6881   */\n      swap1\n      pop\n        /* \"#utility.yul\":6523:6888   */\n      swap3\n      swap2\n      pop\n      pop\n      jump\t// out\n        /* \"#utility.yul\":6894:7016   */\n    tag_629:\n        /* \"#utility.yul\":6967:6991   */\n      tag_778\n        /* \"#utility.yul\":6985:6990   */\n      dup2\n        /* \"#utility.yul\":6967:6991   */\n      tag_624\n      jump\t// in\n    tag_778:\n        /* \"#utility.yul\":6960:6965   */\n      dup2\n        /* \"#utility.yul\":6957:6992   */\n      eq\n        /* \"#utility.yul\":6947:7010   */\n      tag_779\n      jumpi\n        /* \"#utility.yul\":7006:7007   */\n      0x00\n        /* \"#utility.yul\":7003:7004   */\n      dup1\n        /* \"#utility.yul\":6996:7008   */\n      revert\n        /* \"#utility.yul\":6947:7010   */\n    tag_779:\n        /* \"#utility.yul\":6894:7016   */\n      pop\n      jump\t// out\n        /* \"#utility.yul\":7022:7161   */\n    tag_630:\n        /* \"#utility.yul\":7068:7073   */\n      0x00\n        /* \"#utility.yul\":7106:7112   */\n      dup2\n        /* \"#utility.yul\":7093:7113   */\n      calldataload\n        /* \"#utility.yul\":7084:7113   */\n      swap1\n      pop\n        /* \"#utility.yul\":7122:7155   */\n      tag_781\n        /* \"#utility.yul\":7149:7154   */\n      dup2\n        /* \"#utility.yul\":7122:7155   */\n      tag_629\n      jump\t// in\n    tag_781:\n        /* \"#utility.yul\":7022:7161   */\n      swap3\n      swap2\n      pop\n      pop\n      jump\t// out\n        /* \"#utility.yul\":7167:7821   */\n    tag_40:\n        /* \"#utility.yul\":7245:7251   */\n      0x00\n        /* \"#utility.yul\":7253:7259   */\n      dup1\n        /* \"#utility.yul\":7302:7304   */\n      0x40\n        /* \"#utility.yul\":7290:7299   */\n      dup4\n        /* \"#utility.yul\":7281:7288   */\n      dup6\n        /* \"#utility.yul\":7277:7300   */\n      sub\n        /* \"#utility.yul\":7273:7305   */\n      slt\n        /* \"#utility.yul\":7270:7389   */\n      iszero\n      tag_783\n      jumpi\n        /* \"#utility.yul\":7308:7387   */\n      tag_784\n      tag_609\n      jump\t// in\n    tag_784:\n        /* \"#utility.yul\":7270:7389   */\n    tag_783:\n        /* \"#utility.yul\":7456:7457   */\n      0x00\n        /* \"#utility.yul\":7445:7454   */\n      dup4\n        /* \"#utility.yul\":7441:7458   */\n      add\n        /* \"#utility.yul\":7428:7459   */\n      calldataload\n        /* \"#utility.yul\":7486:7504   */\n      0xffffffffffffffff\n        /* \"#utility.yul\":7478:7484   */\n      dup2\n        /* \"#utility.yul\":7475:7505   */\n      gt\n        /* \"#utility.yul\":7472:7589   */\n      iszero\n      tag_785\n      jumpi\n        /* \"#utility.yul\":7508:7587   */\n      tag_786\n      tag_610\n      jump\t// in\n    tag_786:\n        /* \"#utility.yul\":7472:7589   */\n    tag_785:\n        /* \"#utility.yul\":7613:7676   */\n      tag_787\n        /* \"#utility.yul\":7668:7675   */\n      dup6\n        /* \"#utility.yul\":7659:7665   */\n      dup3\n        /* \"#utility.yul\":7648:7657   */\n      dup7\n        /* \"#utility.yul\":7644:7666   */\n      add\n        /* \"#utility.yul\":7613:7676   */\n      tag_619\n      jump\t// in\n    tag_787:\n        /* \"#utility.yul\":7603:7676   */\n      swap3\n      pop\n        /* \"#utility.yul\":7399:7686   */\n      pop\n        /* \"#utility.yul\":7725:7727   */\n      0x20\n        /* \"#utility.yul\":7751:7804   */\n      tag_788\n        /* \"#utility.yul\":7796:7803   */\n      dup6\n        /* \"#utility.yul\":7787:7793   */\n      dup3\n        /* \"#utility.yul\":7776:7785   */\n      dup7\n        /* \"#utility.yul\":7772:7794   */\n      add\n        /* \"#utility.yul\":7751:7804   */\n      tag_630\n      jump\t// in\n    tag_788:\n        /* \"#utility.yul\":7741:7804   */\n      swap2\n      pop\n        /* \"#utility.yul\":7696:7814   */\n      pop\n        /* \"#utility.yul\":7167:7821   */\n      swap3\n      pop\n      swap3\n      swap1\n      pop\n      jump\t// out\n        /* \"#utility.yul\":7827:7996   */\n    tag_631:\n        /* \"#utility.yul\":7911:7922   */\n      0x00\n        /* \"#utility.yul\":7945:7951   */\n      dup3\n        /* \"#utility.yul\":7940:7943   */\n      dup3\n        /* \"#utility.yul\":7933:7952   */\n      mstore\n        /* \"#utility.yul\":7985:7989   */\n      0x20\n        /* \"#utility.yul\":7980:7983   */\n      dup3\n        /* \"#utility.yul\":7976:7990   */\n      add\n        /* \"#utility.yul\":7961:7990   */\n      swap1\n      pop\n        /* \"#utility.yul\":7827:7996   */\n      swap3\n      swap2\n      pop\n      pop\n      jump\t// out\n        /* \"#utility.yul\":8002:8379   */\n    tag_632:\n        /* \"#utility.yul\":8090:8093   */\n      0x00\n        /* \"#utility.yul\":8118:8157   */\n      tag_791\n        /* \"#utility.yul\":8151:8156   */\n      dup3\n        /* \"#utility.yul\":8118:8157   */\n      tag_620\n      jump\t// in\n    tag_791:\n        /* \"#utility.yul\":8173:8244   */\n      tag_792\n        /* \"#utility.yul\":8237:8243   */\n      dup2\n        /* \"#utility.yul\":8232:8235   */\n      dup6\n        /* \"#utility.yul\":8173:8244   */\n      tag_631\n      jump\t// in\n    tag_792:\n        /* \"#utility.yul\":8166:8244   */\n      swap4\n      pop\n        /* \"#utility.yul\":8253:8318   */\n      tag_793\n        /* \"#utility.yul\":8311:8317   */\n      dup2\n        /* \"#utility.yul\":8306:8309   */\n      dup6\n        /* \"#utility.yul\":8299:8303   */\n      0x20\n        /* \"#utility.yul\":8292:8297   */\n      dup7\n        /* \"#utility.yul\":8288:8304   */\n      add\n        /* \"#utility.yul\":8253:8318   */\n      tag_622\n      jump\t// in\n    tag_793:\n        /* \"#utility.yul\":8343:8372   */\n      tag_794\n        /* \"#utility.yul\":8365:8371   */\n      dup2\n        /* \"#utility.yul\":8343:8372   */\n      tag_613\n      jump\t// in\n    tag_794:\n        /* \"#utility.yul\":8338:8341   */\n      dup5\n        /* \"#utility.yul\":8334:8373   */\n      add\n        /* \"#utility.yul\":8327:8373   */\n      swap2\n      pop\n        /* \"#utility.yul\":8094:8379   */\n      pop\n        /* \"#utility.yul\":8002:8379   */\n      swap3\n      swap2\n      pop\n      pop\n      jump\t// out\n        /* \"#utility.yul\":8385:8511   */\n    tag_633:\n        /* \"#utility.yul\":8422:8429   */\n      0x00\n        /* \"#utility.yul\":8462:8504   */\n      0xffffffffffffffffffffffffffffffffffffffff\n        /* \"#utility.yul\":8455:8460   */\n      dup3\n        /* \"#utility.yul\":8451:8505   */\n      and\n        /* \"#utility.yul\":8440:8505   */\n      swap1\n      pop\n        /* \"#utility.yul\":8385:8511   */\n      swap2\n      swap1\n      pop\n      jump\t// out\n        /* \"#utility.yul\":8517:8621   */\n    tag_634:\n        /* \"#utility.yul\":8562:8569   */\n      0x00\n        /* \"#utility.yul\":8591:8615   */\n      tag_797\n        /* \"#utility.yul\":8609:8614   */\n      dup3\n        /* \"#utility.yul\":8591:8615   */\n      tag_633\n      jump\t// in\n    tag_797:\n        /* \"#utility.yul\":8580:8615   */\n      swap1\n      pop\n        /* \"#utility.yul\":8517:8621   */\n      swap2\n      swap1\n      pop\n      jump\t// out\n        /* \"#utility.yul\":8627:8769   */\n    tag_635:\n        /* \"#utility.yul\":8730:8762   */\n      tag_799\n        /* \"#utility.yul\":8756:8761   */\n      dup2\n        /* \"#utility.yul\":8730:8762   */\n      tag_634\n      jump\t// in\n    tag_799:\n        /* \"#utility.yul\":8725:8728   */\n      dup3\n        /* \"#utility.yul\":8718:8763   */\n      mstore\n        /* \"#utility.yul\":8627:8769   */\n      pop\n      pop\n      jump\t// out\n        /* \"#utility.yul\":8775:8884   */\n    tag_636:\n        /* \"#utility.yul\":8856:8877   */\n      tag_801\n        /* \"#utility.yul\":8871:8876   */\n      dup2\n        /* \"#utility.yul\":8856:8877   */\n      tag_626\n      jump\t// in\n    tag_801:\n        /* \"#utility.yul\":8851:8854   */\n      dup3\n        /* \"#utility.yul\":8844:8878   */\n      mstore\n        /* \"#utility.yul\":8775:8884   */\n      pop\n      pop\n      jump\t// out\n        /* \"#utility.yul\":8890:9008   */\n    tag_637:\n        /* \"#utility.yul\":8977:9001   */\n      tag_803\n        /* \"#utility.yul\":8995:9000   */\n      dup2\n        /* \"#utility.yul\":8977:9001   */\n      tag_624\n      jump\t// in\n    tag_803:\n        /* \"#utility.yul\":8972:8975   */\n      dup3\n        /* \"#utility.yul\":8965:9002   */\n      mstore\n        /* \"#utility.yul\":8890:9008   */\n      pop\n      pop\n      jump\t// out\n        /* \"#utility.yul\":9014:10193   */\n    tag_47:\n        /* \"#utility.yul\":9345:9349   */\n      0x00\n        /* \"#utility.yul\":9383:9386   */\n      0xe0\n        /* \"#utility.yul\":9372:9381   */\n      dup3\n        /* \"#utility.yul\":9368:9387   */\n      add\n        /* \"#utility.yul\":9360:9387   */\n      swap1\n      pop\n        /* \"#utility.yul\":9433:9442   */\n      dup2\n        /* \"#utility.yul\":9427:9431   */\n      dup2\n        /* \"#utility.yul\":9423:9443   */\n      sub\n        /* \"#utility.yul\":9419:9420   */\n      0x00\n        /* \"#utility.yul\":9408:9417   */\n      dup4\n        /* \"#utility.yul\":9404:9421   */\n      add\n        /* \"#utility.yul\":9397:9444   */\n      mstore\n        /* \"#utility.yul\":9461:9539   */\n      tag_805\n        /* \"#utility.yul\":9534:9538   */\n      dup2\n        /* \"#utility.yul\":9525:9531   */\n      dup11\n        /* \"#utility.yul\":9461:9539   */\n      tag_632\n      jump\t// in\n    tag_805:\n        /* \"#utility.yul\":9453:9539   */\n      swap1\n      pop\n        /* \"#utility.yul\":9586:9595   */\n      dup2\n        /* \"#utility.yul\":9580:9584   */\n      dup2\n        /* \"#utility.yul\":9576:9596   */\n      sub\n        /* \"#utility.yul\":9571:9573   */\n      0x20\n        /* \"#utility.yul\":9560:9569   */\n      dup4\n        /* \"#utility.yul\":9556:9574   */\n      add\n        /* \"#utility.yul\":9549:9597   */\n      mstore\n        /* \"#utility.yul\":9614:9692   */\n      tag_806\n        /* \"#utility.yul\":9687:9691   */\n      dup2\n        /* \"#utility.yul\":9678:9684   */\n      dup10\n        /* \"#utility.yul\":9614:9692   */\n      tag_632\n      jump\t// in\n    tag_806:\n        /* \"#utility.yul\":9606:9692   */\n      swap1\n      pop\n        /* \"#utility.yul\":9739:9748   */\n      dup2\n        /* \"#utility.yul\":9733:9737   */\n      dup2\n        /* \"#utility.yul\":9729:9749   */\n      sub\n        /* \"#utility.yul\":9724:9726   */\n      0x40\n        /* \"#utility.yul\":9713:9722   */\n      dup4\n        /* \"#utility.yul\":9709:9727   */\n      add\n        /* \"#utility.yul\":9702:9750   */\n      mstore\n        /* \"#utility.yul\":9767:9845   */\n      tag_807\n        /* \"#utility.yul\":9840:9844   */\n      dup2\n        /* \"#utility.yul\":9831:9837   */\n      dup9\n        /* \"#utility.yul\":9767:9845   */\n      tag_632\n      jump\t// in\n    tag_807:\n        /* \"#utility.yul\":9759:9845   */\n      swap1\n      pop\n        /* \"#utility.yul\":9855:9943   */\n      tag_808\n        /* \"#utility.yul\":9939:9941   */\n      0x60\n        /* \"#utility.yul\":9928:9937   */\n      dup4\n        /* \"#utility.yul\":9924:9942   */\n      add\n        /* \"#utility.yul\":9915:9921   */\n      dup8\n        /* \"#utility.yul\":9855:9943   */\n      tag_635\n      jump\t// in\n    tag_808:\n        /* \"#utility.yul\":9953:10020   */\n      tag_809\n        /* \"#utility.yul\":10015:10018   */\n      0x80\n        /* \"#utility.yul\":10004:10013   */\n      dup4\n        /* \"#utility.yul\":10000:10019   */\n      add\n        /* \"#utility.yul\":9991:9997   */\n      dup7\n        /* \"#utility.yul\":9953:10020   */\n      tag_636\n      jump\t// in\n    tag_809:\n        /* \"#utility.yul\":10030:10103   */\n      tag_810\n        /* \"#utility.yul\":10098:10101   */\n      0xa0\n        /* \"#utility.yul\":10087:10096   */\n      dup4\n        /* \"#utility.yul\":10083:10102   */\n      add\n        /* \"#utility.yul\":10074:10080   */\n      dup6\n        /* \"#utility.yul\":10030:10103   */\n      tag_637\n      jump\t// in\n    tag_810:\n        /* \"#utility.yul\":10113:10186   */\n      tag_811\n        /* \"#utility.yul\":10181:10184   */\n      0xc0\n        /* \"#utility.yul\":10170:10179   */\n      dup4\n        /* \"#utility.yul\":10166:10185   */\n      add\n        /* \"#utility.yul\":10157:10163   */\n      dup5\n        /* \"#utility.yul\":10113:10186   */\n      tag_637\n      jump\t// in\n    tag_811:\n        /* \"#utility.yul\":9014:10193   */\n      swap9\n      swap8\n      pop\n      pop\n      pop\n      pop\n      pop\n      pop\n      pop\n      pop\n      jump\t// out\n        /* \"#utility.yul\":10199:10535   */\n    tag_638:\n        /* \"#utility.yul\":10301:10305   */\n      0x00\n        /* \"#utility.yul\":10391:10409   */\n      0xffffffffffffffff\n        /* \"#utility.yul\":10383:10389   */\n      dup3\n        /* \"#utility.yul\":10380:10410   */\n      gt\n        /* \"#utility.yul\":10377:10433   */\n      iszero\n      tag_813\n      jumpi\n        /* \"#utility.yul\":10413:10431   */\n      tag_814\n      tag_550\n      jump\t// in\n    tag_814:\n        /* \"#utility.yul\":10377:10433   */\n    tag_813:\n        /* \"#utility.yul\":10463:10467   */\n      0x20\n        /* \"#utility.yul\":10455:10461   */\n      dup3\n        /* \"#utility.yul\":10451:10468   */\n      mul\n        /* \"#utility.yul\":10443:10468   */\n      swap1\n      pop\n        /* \"#utility.yul\":10523:10527   */\n      0x20\n        /* \"#utility.yul\":10517:10521   */\n      dup2\n        /* \"#utility.yul\":10513:10528   */\n      add\n        /* \"#utility.yul\":10505:10528   */\n      swap1\n      pop\n        /* \"#utility.yul\":10199:10535   */\n      swap2\n      swap1\n      pop\n      jump\t// out\n        /* \"#utility.yul\":10541:10658   */\n    tag_639:\n        /* \"#utility.yul\":10650:10651   */\n      0x00\n        /* \"#utility.yul\":10647:10648   */\n      dup1\n        /* \"#utility.yul\":10640:10652   */\n      revert\n        /* \"#utility.yul\":10664:10975   */\n    tag_640:\n        /* \"#utility.yul\":10741:10745   */\n      0x00\n        /* \"#utility.yul\":10831:10849   */\n      0xffffffffffffffff\n        /* \"#utility.yul\":10823:10829   */\n      dup3\n        /* \"#utility.yul\":10820:10850   */\n      gt\n        /* \"#utility.yul\":10817:10873   */\n      iszero\n      tag_817\n      jumpi\n        /* \"#utility.yul\":10853:10871   */\n      tag_818\n      tag_550\n      jump\t// in\n    tag_818:\n        /* \"#utility.yul\":10817:10873   */\n    tag_817:\n        /* \"#utility.yul\":10903:10907   */\n      0x20\n        /* \"#utility.yul\":10895:10901   */\n      dup3\n        /* \"#utility.yul\":10891:10908   */\n      mul\n        /* \"#utility.yul\":10883:10908   */\n      swap1\n      pop\n        /* \"#utility.yul\":10963:10967   */\n      0x20\n        /* \"#utility.yul\":10957:10961   */\n      dup2\n        /* \"#utility.yul\":10953:10968   */\n      add\n        /* \"#utility.yul\":10945:10968   */\n      swap1\n      pop\n        /* \"#utility.yul\":10664:10975   */\n      swap2\n      swap1\n      pop\n      jump\t// out\n        /* \"#utility.yul\":10998:11708   */\n    tag_641:\n        /* \"#utility.yul\":11094:11099   */\n      0x00\n        /* \"#utility.yul\":11119:11200   */\n      tag_820\n        /* \"#utility.yul\":11135:11199   */\n      tag_821\n        /* \"#utility.yul\":11192:11198   */\n      dup5\n        /* \"#utility.yul\":11135:11199   */\n      tag_640\n      jump\t// in\n    tag_821:\n        /* \"#utility.yul\":11119:11200   */\n      tag_615\n      jump\t// in\n    tag_820:\n        /* \"#utility.yul\":11110:11200   */\n      swap1\n      pop\n        /* \"#utility.yul\":11220:11225   */\n      dup1\n        /* \"#utility.yul\":11249:11255   */\n      dup4\n        /* \"#utility.yul\":11242:11247   */\n      dup3\n        /* \"#utility.yul\":11235:11256   */\n      mstore\n        /* \"#utility.yul\":11283:11287   */\n      0x20\n        /* \"#utility.yul\":11276:11281   */\n      dup3\n        /* \"#utility.yul\":11272:11288   */\n      add\n        /* \"#utility.yul\":11265:11288   */\n      swap1\n      pop\n        /* \"#utility.yul\":11336:11340   */\n      0x20\n        /* \"#utility.yul\":11328:11334   */\n      dup5\n        /* \"#utility.yul\":11324:11341   */\n      mul\n        /* \"#utility.yul\":11316:11322   */\n      dup4\n        /* \"#utility.yul\":11312:11342   */\n      add\n        /* \"#utility.yul\":11365:11368   */\n      dup6\n        /* \"#utility.yul\":11357:11363   */\n      dup2\n        /* \"#utility.yul\":11354:11369   */\n      gt\n        /* \"#utility.yul\":11351:11473   */\n      iszero\n      tag_822\n      jumpi\n        /* \"#utility.yul\":11384:11463   */\n      tag_823\n      tag_639\n      jump\t// in\n    tag_823:\n        /* \"#utility.yul\":11351:11473   */\n    tag_822:\n        /* \"#utility.yul\":11499:11505   */\n      dup4\n        /* \"#utility.yul\":11482:11702   */\n    tag_824:\n        /* \"#utility.yul\":11516:11522   */\n      dup2\n        /* \"#utility.yul\":11511:11514   */\n      dup2\n        /* \"#utility.yul\":11508:11523   */\n      lt\n        /* \"#utility.yul\":11482:11702   */\n      iszero\n      tag_826\n      jumpi\n        /* \"#utility.yul\":11591:11594   */\n      dup1\n        /* \"#utility.yul\":11620:11657   */\n      tag_827\n        /* \"#utility.yul\":11653:11656   */\n      dup9\n        /* \"#utility.yul\":11641:11651   */\n      dup3\n        /* \"#utility.yul\":11620:11657   */\n      tag_630\n      jump\t// in\n    tag_827:\n        /* \"#utility.yul\":11615:11618   */\n      dup5\n        /* \"#utility.yul\":11608:11658   */\n      mstore\n        /* \"#utility.yul\":11687:11691   */\n      0x20\n        /* \"#utility.yul\":11682:11685   */\n      dup5\n        /* \"#utility.yul\":11678:11692   */\n      add\n        /* \"#utility.yul\":11671:11692   */\n      swap4\n      pop\n        /* \"#utility.yul\":11558:11702   */\n      pop\n        /* \"#utility.yul\":11542:11546   */\n      0x20\n        /* \"#utility.yul\":11537:11540   */\n      dup2\n        /* \"#utility.yul\":11533:11547   */\n      add\n        /* \"#utility.yul\":11526:11547   */\n      swap1\n      pop\n        /* \"#utility.yul\":11482:11702   */\n      jump(tag_824)\n    tag_826:\n        /* \"#utility.yul\":11486:11507   */\n      pop\n        /* \"#utility.yul\":11100:11708   */\n      pop\n      pop\n        /* \"#utility.yul\":10998:11708   */\n      swap4\n      swap3\n      pop\n      pop\n      pop\n      jump\t// out\n        /* \"#utility.yul\":11731:12101   */\n    tag_642:\n        /* \"#utility.yul\":11802:11807   */\n      0x00\n        /* \"#utility.yul\":11851:11854   */\n      dup3\n        /* \"#utility.yul\":11844:11848   */\n      0x1f\n        /* \"#utility.yul\":11836:11842   */\n      dup4\n        /* \"#utility.yul\":11832:11849   */\n      add\n        /* \"#utility.yul\":11828:11855   */\n      slt\n        /* \"#utility.yul\":11818:11940   */\n      tag_829\n      jumpi\n        /* \"#utility.yul\":11859:11938   */\n      tag_830\n      tag_611\n      jump\t// in\n    tag_830:\n        /* \"#utility.yul\":11818:11940   */\n    tag_829:\n        /* \"#utility.yul\":11976:11982   */\n      dup2\n        /* \"#utility.yul\":11963:11983   */\n      calldataload\n        /* \"#utility.yul\":12001:12095   */\n      tag_831\n        /* \"#utility.yul\":12091:12094   */\n      dup5\n        /* \"#utility.yul\":12083:12089   */\n      dup3\n        /* \"#utility.yul\":12076:12080   */\n      0x20\n        /* \"#utility.yul\":12068:12074   */\n      dup7\n        /* \"#utility.yul\":12064:12081   */\n      add\n        /* \"#utility.yul\":12001:12095   */\n      tag_641\n      jump\t// in\n    tag_831:\n        /* \"#utility.yul\":11992:12095   */\n      swap2\n      pop\n        /* \"#utility.yul\":11808:12101   */\n      pop\n        /* \"#utility.yul\":11731:12101   */\n      swap3\n      swap2\n      pop\n      pop\n      jump\t// out\n        /* \"#utility.yul\":12126:13116   */\n    tag_643:\n        /* \"#utility.yul\":12247:12252   */\n      0x00\n        /* \"#utility.yul\":12272:12378   */\n      tag_833\n        /* \"#utility.yul\":12288:12377   */\n      tag_834\n        /* \"#utility.yul\":12370:12376   */\n      dup5\n        /* \"#utility.yul\":12288:12377   */\n      tag_638\n      jump\t// in\n    tag_834:\n        /* \"#utility.yul\":12272:12378   */\n      tag_615\n      jump\t// in\n    tag_833:\n        /* \"#utility.yul\":12263:12378   */\n      swap1\n      pop\n        /* \"#utility.yul\":12398:12403   */\n      dup1\n        /* \"#utility.yul\":12427:12433   */\n      dup4\n        /* \"#utility.yul\":12420:12425   */\n      dup3\n        /* \"#utility.yul\":12413:12434   */\n      mstore\n        /* \"#utility.yul\":12461:12465   */\n      0x20\n        /* \"#utility.yul\":12454:12459   */\n      dup3\n        /* \"#utility.yul\":12450:12466   */\n      add\n        /* \"#utility.yul\":12443:12466   */\n      swap1\n      pop\n        /* \"#utility.yul\":12514:12518   */\n      0x20\n        /* \"#utility.yul\":12506:12512   */\n      dup5\n        /* \"#utility.yul\":12502:12519   */\n      mul\n        /* \"#utility.yul\":12494:12500   */\n      dup4\n        /* \"#utility.yul\":12490:12520   */\n      add\n        /* \"#utility.yul\":12543:12546   */\n      dup6\n        /* \"#utility.yul\":12535:12541   */\n      dup2\n        /* \"#utility.yul\":12532:12547   */\n      gt\n        /* \"#utility.yul\":12529:12651   */\n      iszero\n      tag_835\n      jumpi\n        /* \"#utility.yul\":12562:12641   */\n      tag_836\n      tag_639\n      jump\t// in\n    tag_836:\n        /* \"#utility.yul\":12529:12651   */\n    tag_835:\n        /* \"#utility.yul\":12677:12683   */\n      dup4\n        /* \"#utility.yul\":12660:13110   */\n    tag_837:\n        /* \"#utility.yul\":12694:12700   */\n      dup2\n        /* \"#utility.yul\":12689:12692   */\n      dup2\n        /* \"#utility.yul\":12686:12701   */\n      lt\n        /* \"#utility.yul\":12660:13110   */\n      iszero\n      tag_839\n      jumpi\n        /* \"#utility.yul\":12783:12786   */\n      dup1\n        /* \"#utility.yul\":12770:12787   */\n      calldataload\n        /* \"#utility.yul\":12819:12837   */\n      0xffffffffffffffff\n        /* \"#utility.yul\":12806:12817   */\n      dup2\n        /* \"#utility.yul\":12803:12838   */\n      gt\n        /* \"#utility.yul\":12800:12922   */\n      iszero\n      tag_840\n      jumpi\n        /* \"#utility.yul\":12841:12920   */\n      tag_841\n      tag_611\n      jump\t// in\n    tag_841:\n        /* \"#utility.yul\":12800:12922   */\n    tag_840:\n        /* \"#utility.yul\":12965:12976   */\n      dup1\n        /* \"#utility.yul\":12957:12963   */\n      dup7\n        /* \"#utility.yul\":12953:12977   */\n      add\n        /* \"#utility.yul\":13003:13065   */\n      tag_842\n        /* \"#utility.yul\":13061:13064   */\n      dup10\n        /* \"#utility.yul\":13049:13059   */\n      dup3\n        /* \"#utility.yul\":13003:13065   */\n      tag_642\n      jump\t// in\n    tag_842:\n        /* \"#utility.yul\":12998:13001   */\n      dup6\n        /* \"#utility.yul\":12991:13066   */\n      mstore\n        /* \"#utility.yul\":13095:13099   */\n      0x20\n        /* \"#utility.yul\":13090:13093   */\n      dup6\n        /* \"#utility.yul\":13086:13100   */\n      add\n        /* \"#utility.yul\":13079:13100   */\n      swap5\n      pop\n        /* \"#utility.yul\":12736:13110   */\n      pop\n      pop\n        /* \"#utility.yul\":12720:12724   */\n      0x20\n        /* \"#utility.yul\":12715:12718   */\n      dup2\n        /* \"#utility.yul\":12711:12725   */\n      add\n        /* \"#utility.yul\":12704:12725   */\n      swap1\n      pop\n        /* \"#utility.yul\":12660:13110   */\n      jump(tag_837)\n    tag_839:\n        /* \"#utility.yul\":12664:12685   */\n      pop\n        /* \"#utility.yul\":12253:13116   */\n      pop\n      pop\n        /* \"#utility.yul\":12126:13116   */\n      swap4\n      swap3\n      pop\n      pop\n      pop\n      jump\t// out\n        /* \"#utility.yul\":13141:13561   */\n    tag_644:\n        /* \"#utility.yul\":13237:13242   */\n      0x00\n        /* \"#utility.yul\":13286:13289   */\n      dup3\n        /* \"#utility.yul\":13279:13283   */\n      0x1f\n        /* \"#utility.yul\":13271:13277   */\n      dup4\n        /* \"#utility.yul\":13267:13284   */\n      add\n        /* \"#utility.yul\":13263:13290   */\n      slt\n        /* \"#utility.yul\":13253:13375   */\n      tag_844\n      jumpi\n        /* \"#utility.yul\":13294:13373   */\n      tag_845\n      tag_611\n      jump\t// in\n    tag_845:\n        /* \"#utility.yul\":13253:13375   */\n    tag_844:\n        /* \"#utility.yul\":13411:13417   */\n      dup2\n        /* \"#utility.yul\":13398:13418   */\n      calldataload\n        /* \"#utility.yul\":13436:13555   */\n      tag_846\n        /* \"#utility.yul\":13551:13554   */\n      dup5\n        /* \"#utility.yul\":13543:13549   */\n      dup3\n        /* \"#utility.yul\":13536:13540   */\n      0x20\n        /* \"#utility.yul\":13528:13534   */\n      dup7\n        /* \"#utility.yul\":13524:13541   */\n      add\n        /* \"#utility.yul\":13436:13555   */\n      tag_643\n      jump\t// in\n    tag_846:\n        /* \"#utility.yul\":13427:13555   */\n      swap2\n      pop\n        /* \"#utility.yul\":13243:13561   */\n      pop\n        /* \"#utility.yul\":13141:13561   */\n      swap3\n      swap2\n      pop\n      pop\n      jump\t// out\n        /* \"#utility.yul\":13567:14952   */\n    tag_50:\n        /* \"#utility.yul\":13723:13729   */\n      0x00\n        /* \"#utility.yul\":13731:13737   */\n      dup1\n        /* \"#utility.yul\":13739:13745   */\n      0x00\n        /* \"#utility.yul\":13747:13753   */\n      dup1\n        /* \"#utility.yul\":13796:13799   */\n      0x80\n        /* \"#utility.yul\":13784:13793   */\n      dup6\n        /* \"#utility.yul\":13775:13782   */\n      dup8\n        /* \"#utility.yul\":13771:13794   */\n      sub\n        /* \"#utility.yul\":13767:13800   */\n      slt\n        /* \"#utility.yul\":13764:13884   */\n      iszero\n      tag_848\n      jumpi\n        /* \"#utility.yul\":13803:13882   */\n      tag_849\n      tag_609\n      jump\t// in\n    tag_849:\n        /* \"#utility.yul\":13764:13884   */\n    tag_848:\n        /* \"#utility.yul\":13951:13952   */\n      0x00\n        /* \"#utility.yul\":13940:13949   */\n      dup6\n        /* \"#utility.yul\":13936:13953   */\n      add\n        /* \"#utility.yul\":13923:13954   */\n      calldataload\n        /* \"#utility.yul\":13981:13999   */\n      0xffffffffffffffff\n        /* \"#utility.yul\":13973:13979   */\n      dup2\n        /* \"#utility.yul\":13970:14000   */\n      gt\n        /* \"#utility.yul\":13967:14084   */\n      iszero\n      tag_850\n      jumpi\n        /* \"#utility.yul\":14003:14082   */\n      tag_851\n      tag_610\n      jump\t// in\n    tag_851:\n        /* \"#utility.yul\":13967:14084   */\n    tag_850:\n        /* \"#utility.yul\":14108:14171   */\n      tag_852\n        /* \"#utility.yul\":14163:14170   */\n      dup8\n        /* \"#utility.yul\":14154:14160   */\n      dup3\n        /* \"#utility.yul\":14143:14152   */\n      dup9\n        /* \"#utility.yul\":14139:14161   */\n      add\n        /* \"#utility.yul\":14108:14171   */\n      tag_619\n      jump\t// in\n    tag_852:\n        /* \"#utility.yul\":14098:14171   */\n      swap5\n      pop\n        /* \"#utility.yul\":13894:14181   */\n      pop\n        /* \"#utility.yul\":14248:14250   */\n      0x20\n        /* \"#utility.yul\":14237:14246   */\n      dup6\n        /* \"#utility.yul\":14233:14251   */\n      add\n        /* \"#utility.yul\":14220:14252   */\n      calldataload\n        /* \"#utility.yul\":14279:14297   */\n      0xffffffffffffffff\n        /* \"#utility.yul\":14271:14277   */\n      dup2\n        /* \"#utility.yul\":14268:14298   */\n      gt\n        /* \"#utility.yul\":14265:14382   */\n      iszero\n      tag_853\n      jumpi\n        /* \"#utility.yul\":14301:14380   */\n      tag_854\n      tag_610\n      jump\t// in\n    tag_854:\n        /* \"#utility.yul\":14265:14382   */\n    tag_853:\n        /* \"#utility.yul\":14406:14469   */\n      tag_855\n        /* \"#utility.yul\":14461:14468   */\n      dup8\n        /* \"#utility.yul\":14452:14458   */\n      dup3\n        /* \"#utility.yul\":14441:14450   */\n      dup9\n        /* \"#utility.yul\":14437:14459   */\n      add\n        /* \"#utility.yul\":14406:14469   */\n      tag_619\n      jump\t// in\n    tag_855:\n        /* \"#utility.yul\":14396:14469   */\n      swap4\n      pop\n        /* \"#utility.yul\":14191:14479   */\n      pop\n        /* \"#utility.yul\":14518:14520   */\n      0x40\n        /* \"#utility.yul\":14544:14597   */\n      tag_856\n        /* \"#utility.yul\":14589:14596   */\n      dup8\n        /* \"#utility.yul\":14580:14586   */\n      dup3\n        /* \"#utility.yul\":14569:14578   */\n      dup9\n        /* \"#utility.yul\":14565:14587   */\n      add\n        /* \"#utility.yul\":14544:14597   */\n      tag_630\n      jump\t// in\n    tag_856:\n        /* \"#utility.yul\":14534:14597   */\n      swap3\n      pop\n        /* \"#utility.yul\":14489:14607   */\n      pop\n        /* \"#utility.yul\":14674:14676   */\n      0x60\n        /* \"#utility.yul\":14663:14672   */\n      dup6\n        /* \"#utility.yul\":14659:14677   */\n      add\n        /* \"#utility.yul\":14646:14678   */\n      calldataload\n        /* \"#utility.yul\":14705:14723   */\n      0xffffffffffffffff\n        /* \"#utility.yul\":14697:14703   */\n      dup2\n        /* \"#utility.yul\":14694:14724   */\n      gt\n        /* \"#utility.yul\":14691:14808   */\n      iszero\n      tag_857\n      jumpi\n        /* \"#utility.yul\":14727:14806   */\n      tag_858\n      tag_610\n      jump\t// in\n    tag_858:\n        /* \"#utility.yul\":14691:14808   */\n    tag_857:\n        /* \"#utility.yul\":14832:14935   */\n      tag_859\n        /* \"#utility.yul\":14927:14934   */\n      dup8\n        /* \"#utility.yul\":14918:14924   */\n      dup3\n        /* \"#utility.yul\":14907:14916   */\n      dup9\n        /* \"#utility.yul\":14903:14925   */\n      add\n        /* \"#utility.yul\":14832:14935   */\n      tag_644\n      jump\t// in\n    tag_859:\n        /* \"#utility.yul\":14822:14935   */\n      swap2\n      pop\n        /* \"#utility.yul\":14617:14945   */\n      pop\n        /* \"#utility.yul\":13567:14952   */\n      swap3\n      swap6\n      swap2\n      swap5\n      pop\n      swap3\n      pop\n      jump\t// out\n        /* \"#utility.yul\":14958:15054   */\n    tag_645:\n        /* \"#utility.yul\":14995:15002   */\n      0x00\n        /* \"#utility.yul\":15024:15048   */\n      tag_861\n        /* \"#utility.yul\":15042:15047   */\n      dup3\n        /* \"#utility.yul\":15024:15048   */\n      tag_633\n      jump\t// in\n    tag_861:\n        /* \"#utility.yul\":15013:15048   */\n      swap1\n      pop\n        /* \"#utility.yul\":14958:15054   */\n      swap2\n      swap1\n      pop\n      jump\t// out\n        /* \"#utility.yul\":15060:15182   */\n    tag_646:\n        /* \"#utility.yul\":15133:15157   */\n      tag_863\n        /* \"#utility.yul\":15151:15156   */\n      dup2\n        /* \"#utility.yul\":15133:15157   */\n      tag_645\n      jump\t// in\n    tag_863:\n        /* \"#utility.yul\":15126:15131   */\n      dup2\n        /* \"#utility.yul\":15123:15158   */\n      eq\n        /* \"#utility.yul\":15113:15176   */\n      tag_864\n      jumpi\n        /* \"#utility.yul\":15172:15173   */\n      0x00\n        /* \"#utility.yul\":15169:15170   */\n      dup1\n        /* \"#utility.yul\":15162:15174   */\n      revert\n        /* \"#utility.yul\":15113:15176   */\n    tag_864:\n        /* \"#utility.yul\":15060:15182   */\n      pop\n      jump\t// out\n        /* \"#utility.yul\":15188:15327   */\n    tag_647:\n        /* \"#utility.yul\":15234:15239   */\n      0x00\n        /* \"#utility.yul\":15272:15278   */\n      dup2\n        /* \"#utility.yul\":15259:15279   */\n      calldataload\n        /* \"#utility.yul\":15250:15279   */\n      swap1\n      pop\n        /* \"#utility.yul\":15288:15321   */\n      tag_866\n        /* \"#utility.yul\":15315:15320   */\n      dup2\n        /* \"#utility.yul\":15288:15321   */\n      tag_646\n      jump\t// in\n    tag_866:\n        /* \"#utility.yul\":15188:15327   */\n      swap3\n      swap2\n      pop\n      pop\n      jump\t// out\n        /* \"#utility.yul\":15333:15662   */\n    tag_55:\n        /* \"#utility.yul\":15392:15398   */\n      0x00\n        /* \"#utility.yul\":15441:15443   */\n      0x20\n        /* \"#utility.yul\":15429:15438   */\n      dup3\n        /* \"#utility.yul\":15420:15427   */\n      dup5\n        /* \"#utility.yul\":15416:15439   */\n      sub\n        /* \"#utility.yul\":15412:15444   */\n      slt\n        /* \"#utility.yul\":15409:15528   */\n      iszero\n      tag_868\n      jumpi\n        /* \"#utility.yul\":15447:15526   */\n      tag_869\n      tag_609\n      jump\t// in\n    tag_869:\n        /* \"#utility.yul\":15409:15528   */\n    tag_868:\n        /* \"#utility.yul\":15567:15568   */\n      0x00\n        /* \"#utility.yul\":15592:15645   */\n      tag_870\n        /* \"#utility.yul\":15637:15644   */\n      dup5\n        /* \"#utility.yul\":15628:15634   */\n      dup3\n        /* \"#utility.yul\":15617:15626   */\n      dup6\n        /* \"#utility.yul\":15613:15635   */\n      add\n        /* \"#utility.yul\":15592:15645   */\n      tag_647\n      jump\t// in\n    tag_870:\n        /* \"#utility.yul\":15582:15645   */\n      swap2\n      pop\n        /* \"#utility.yul\":15538:15655   */\n      pop\n        /* \"#utility.yul\":15333:15662   */\n      swap3\n      swap2\n      pop\n      pop\n      jump\t// out\n        /* \"#utility.yul\":15668:15786   */\n    tag_648:\n        /* \"#utility.yul\":15755:15779   */\n      tag_872\n        /* \"#utility.yul\":15773:15778   */\n      dup2\n        /* \"#utility.yul\":15755:15779   */\n      tag_645\n      jump\t// in\n    tag_872:\n        /* \"#utility.yul\":15750:15753   */\n      dup3\n        /* \"#utility.yul\":15743:15780   */\n      mstore\n        /* \"#utility.yul\":15668:15786   */\n      pop\n      pop\n      jump\t// out\n        /* \"#utility.yul\":15792:16618   */\n    tag_58:\n        /* \"#utility.yul\":16029:16033   */\n      0x00\n        /* \"#utility.yul\":16067:16070   */\n      0x80\n        /* \"#utility.yul\":16056:16065   */\n      dup3\n        /* \"#utility.yul\":16052:16071   */\n      add\n        /* \"#utility.yul\":16044:16071   */\n      swap1\n      pop\n        /* \"#utility.yul\":16117:16126   */\n      dup2\n        /* \"#utility.yul\":16111:16115   */\n      dup2\n        /* \"#utility.yul\":16107:16127   */\n      sub\n        /* \"#utility.yul\":16103:16104   */\n      0x00\n        /* \"#utility.yul\":16092:16101   */\n      dup4\n        /* \"#utility.yul\":16088:16105   */\n      add\n        /* \"#utility.yul\":16081:16128   */\n      mstore\n        /* \"#utility.yul\":16145:16223   */\n      tag_874\n        /* \"#utility.yul\":16218:16222   */\n      dup2\n        /* \"#utility.yul\":16209:16215   */\n      dup8\n        /* \"#utility.yul\":16145:16223   */\n      tag_632\n      jump\t// in\n    tag_874:\n        /* \"#utility.yul\":16137:16223   */\n      swap1\n      pop\n        /* \"#utility.yul\":16270:16279   */\n      dup2\n        /* \"#utility.yul\":16264:16268   */\n      dup2\n        /* \"#utility.yul\":16260:16280   */\n      sub\n        /* \"#utility.yul\":16255:16257   */\n      0x20\n        /* \"#utility.yul\":16244:16253   */\n      dup4\n        /* \"#utility.yul\":16240:16258   */\n      add\n        /* \"#utility.yul\":16233:16281   */\n      mstore\n        /* \"#utility.yul\":16298:16376   */\n      tag_875\n        /* \"#utility.yul\":16371:16375   */\n      dup2\n        /* \"#utility.yul\":16362:16368   */\n      dup7\n        /* \"#utility.yul\":16298:16376   */\n      tag_632\n      jump\t// in\n    tag_875:\n        /* \"#utility.yul\":16290:16376   */\n      swap1\n      pop\n        /* \"#utility.yul\":16386:16458   */\n      tag_876\n        /* \"#utility.yul\":16454:16456   */\n      0x40\n        /* \"#utility.yul\":16443:16452   */\n      dup4\n        /* \"#utility.yul\":16439:16457   */\n      add\n        /* \"#utility.yul\":16430:16436   */\n      dup6\n        /* \"#utility.yul\":16386:16458   */\n      tag_648\n      jump\t// in\n    tag_876:\n        /* \"#utility.yul\":16505:16514   */\n      dup2\n        /* \"#utility.yul\":16499:16503   */\n      dup2\n        /* \"#utility.yul\":16495:16515   */\n      sub\n        /* \"#utility.yul\":16490:16492   */\n      0x60\n        /* \"#utility.yul\":16479:16488   */\n      dup4\n        /* \"#utility.yul\":16475:16493   */\n      add\n        /* \"#utility.yul\":16468:16516   */\n      mstore\n        /* \"#utility.yul\":16533:16611   */\n      tag_877\n        /* \"#utility.yul\":16606:16610   */\n      dup2\n        /* \"#utility.yul\":16597:16603   */\n      dup5\n        /* \"#utility.yul\":16533:16611   */\n      tag_632\n      jump\t// in\n    tag_877:\n        /* \"#utility.yul\":16525:16611   */\n      swap1\n      pop\n        /* \"#utility.yul\":15792:16618   */\n      swap6\n      swap5\n      pop\n      pop\n      pop\n      pop\n      pop\n      jump\t// out\n        /* \"#utility.yul\":16624:16740   */\n    tag_649:\n        /* \"#utility.yul\":16694:16715   */\n      tag_879\n        /* \"#utility.yul\":16709:16714   */\n      dup2\n        /* \"#utility.yul\":16694:16715   */\n      tag_626\n      jump\t// in\n    tag_879:\n        /* \"#utility.yul\":16687:16692   */\n      dup2\n        /* \"#utility.yul\":16684:16716   */\n      eq\n        /* \"#utility.yul\":16674:16734   */\n      tag_880\n      jumpi\n        /* \"#utility.yul\":16730:16731   */\n      0x00\n        /* \"#utility.yul\":16727:16728   */\n      dup1\n        /* \"#utility.yul\":16720:16732   */\n      revert\n        /* \"#utility.yul\":16674:16734   */\n    tag_880:\n        /* \"#utility.yul\":16624:16740   */\n      pop\n      jump\t// out\n        /* \"#utility.yul\":16746:16879   */\n    tag_650:\n        /* \"#utility.yul\":16789:16794   */\n      0x00\n        /* \"#utility.yul\":16827:16833   */\n      dup2\n        /* \"#utility.yul\":16814:16834   */\n      calldataload\n        /* \"#utility.yul\":16805:16834   */\n      swap1\n      pop\n        /* \"#utility.yul\":16843:16873   */\n      tag_882\n        /* \"#utility.yul\":16867:16872   */\n      dup2\n        /* \"#utility.yul\":16843:16873   */\n      tag_649\n      jump\t// in\n    tag_882:\n        /* \"#utility.yul\":16746:16879   */\n      swap3\n      swap2\n      pop\n      pop\n      jump\t// out\n        /* \"#utility.yul\":16885:18184   */\n    tag_61:\n        /* \"#utility.yul\":16998:17004   */\n      0x00\n        /* \"#utility.yul\":17006:17012   */\n      dup1\n        /* \"#utility.yul\":17014:17020   */\n      0x00\n        /* \"#utility.yul\":17022:17028   */\n      dup1\n        /* \"#utility.yul\":17071:17074   */\n      0x80\n        /* \"#utility.yul\":17059:17068   */\n      dup6\n        /* \"#utility.yul\":17050:17057   */\n      dup8\n        /* \"#utility.yul\":17046:17069   */\n      sub\n        /* \"#utility.yul\":17042:17075   */\n      slt\n        /* \"#utility.yul\":17039:17159   */\n      iszero\n      tag_884\n      jumpi\n        /* \"#utility.yul\":17078:17157   */\n      tag_885\n      tag_609\n      jump\t// in\n    tag_885:\n        /* \"#utility.yul\":17039:17159   */\n    tag_884:\n        /* \"#utility.yul\":17226:17227   */\n      0x00\n        /* \"#utility.yul\":17215:17224   */\n      dup6\n        /* \"#utility.yul\":17211:17228   */\n      add\n        /* \"#utility.yul\":17198:17229   */\n      calldataload\n        /* \"#utility.yul\":17256:17274   */\n      0xffffffffffffffff\n        /* \"#utility.yul\":17248:17254   */\n      dup2\n        /* \"#utility.yul\":17245:17275   */\n      gt\n        /* \"#utility.yul\":17242:17359   */\n      iszero\n      tag_886\n      jumpi\n        /* \"#utility.yul\":17278:17357   */\n      tag_887\n      tag_610\n      jump\t// in\n    tag_887:\n        /* \"#utility.yul\":17242:17359   */\n    tag_886:\n        /* \"#utility.yul\":17383:17446   */\n      tag_888\n        /* \"#utility.yul\":17438:17445   */\n      dup8\n        /* \"#utility.yul\":17429:17435   */\n      dup3\n        /* \"#utility.yul\":17418:17427   */\n      dup9\n        /* \"#utility.yul\":17414:17436   */\n      add\n        /* \"#utility.yul\":17383:17446   */\n      tag_619\n      jump\t// in\n    tag_888:\n        /* \"#utility.yul\":17373:17446   */\n      swap5\n      pop\n        /* \"#utility.yul\":17169:17456   */\n      pop\n        /* \"#utility.yul\":17523:17525   */\n      0x20\n        /* \"#utility.yul\":17512:17521   */\n      dup6\n        /* \"#utility.yul\":17508:17526   */\n      add\n        /* \"#utility.yul\":17495:17527   */\n      calldataload\n        /* \"#utility.yul\":17554:17572   */\n      0xffffffffffffffff\n        /* \"#utility.yul\":17546:17552   */\n      dup2\n        /* \"#utility.yul\":17543:17573   */\n      gt\n        /* \"#utility.yul\":17540:17657   */\n      iszero\n      tag_889\n      jumpi\n        /* \"#utility.yul\":17576:17655   */\n      tag_890\n      tag_610\n      jump\t// in\n    tag_890:\n        /* \"#utility.yul\":17540:17657   */\n    tag_889:\n        /* \"#utility.yul\":17681:17744   */\n      tag_891\n        /* \"#utility.yul\":17736:17743   */\n      dup8\n        /* \"#utility.yul\":17727:17733   */\n      dup3\n        /* \"#utility.yul\":17716:17725   */\n      dup9\n        /* \"#utility.yul\":17712:17734   */\n      add\n        /* \"#utility.yul\":17681:17744   */\n      tag_619\n      jump\t// in\n    tag_891:\n        /* \"#utility.yul\":17671:17744   */\n      swap4\n      pop\n        /* \"#utility.yul\":17466:17754   */\n      pop\n        /* \"#utility.yul\":17793:17795   */\n      0x40\n        /* \"#utility.yul\":17819:17869   */\n      tag_892\n        /* \"#utility.yul\":17861:17868   */\n      dup8\n        /* \"#utility.yul\":17852:17858   */\n      dup3\n        /* \"#utility.yul\":17841:17850   */\n      dup9\n        /* \"#utility.yul\":17837:17859   */\n      add\n        /* \"#utility.yul\":17819:17869   */\n      tag_650\n      jump\t// in\n    tag_892:\n        /* \"#utility.yul\":17809:17869   */\n      swap3\n      pop\n        /* \"#utility.yul\":17764:17879   */\n      pop\n        /* \"#utility.yul\":17946:17948   */\n      0x60\n        /* \"#utility.yul\":17935:17944   */\n      dup6\n        /* \"#utility.yul\":17931:17949   */\n      add\n        /* \"#utility.yul\":17918:17950   */\n      calldataload\n        /* \"#utility.yul\":17977:17995   */\n      0xffffffffffffffff\n        /* \"#utility.yul\":17969:17975   */\n      dup2\n        /* \"#utility.yul\":17966:17996   */\n      gt\n        /* \"#utility.yul\":17963:18080   */\n      iszero\n      tag_893\n      jumpi\n        /* \"#utility.yul\":17999:18078   */\n      tag_894\n      tag_610\n      jump\t// in\n    tag_894:\n        /* \"#utility.yul\":17963:18080   */\n    tag_893:\n        /* \"#utility.yul\":18104:18167   */\n      tag_895\n        /* \"#utility.yul\":18159:18166   */\n      dup8\n        /* \"#utility.yul\":18150:18156   */\n      dup3\n        /* \"#utility.yul\":18139:18148   */\n      dup9\n        /* \"#utility.yul\":18135:18157   */\n      add\n        /* \"#utility.yul\":18104:18167   */\n      tag_619\n      jump\t// in\n    tag_895:\n        /* \"#utility.yul\":18094:18167   */\n      swap2\n      pop\n        /* \"#utility.yul\":17889:18177   */\n      pop\n        /* \"#utility.yul\":16885:18184   */\n      swap3\n      swap6\n      swap2\n      swap5\n      pop\n      swap3\n      pop\n      jump\t// out\n        /* \"#utility.yul\":18190:19495   */\n    tag_69:\n        /* \"#utility.yul\":18306:18312   */\n      0x00\n        /* \"#utility.yul\":18314:18320   */\n      dup1\n        /* \"#utility.yul\":18322:18328   */\n      0x00\n        /* \"#utility.yul\":18330:18336   */\n      dup1\n        /* \"#utility.yul\":18379:18382   */\n      0x80\n        /* \"#utility.yul\":18367:18376   */\n      dup6\n        /* \"#utility.yul\":18358:18365   */\n      dup8\n        /* \"#utility.yul\":18354:18377   */\n      sub\n        /* \"#utility.yul\":18350:18383   */\n      slt\n        /* \"#utility.yul\":18347:18467   */\n      iszero\n      tag_897\n      jumpi\n        /* \"#utility.yul\":18386:18465   */\n      tag_898\n      tag_609\n      jump\t// in\n    tag_898:\n        /* \"#utility.yul\":18347:18467   */\n    tag_897:\n        /* \"#utility.yul\":18534:18535   */\n      0x00\n        /* \"#utility.yul\":18523:18532   */\n      dup6\n        /* \"#utility.yul\":18519:18536   */\n      add\n        /* \"#utility.yul\":18506:18537   */\n      calldataload\n        /* \"#utility.yul\":18564:18582   */\n      0xffffffffffffffff\n        /* \"#utility.yul\":18556:18562   */\n      dup2\n        /* \"#utility.yul\":18553:18583   */\n      gt\n        /* \"#utility.yul\":18550:18667   */\n      iszero\n      tag_899\n      jumpi\n        /* \"#utility.yul\":18586:18665   */\n      tag_900\n      tag_610\n      jump\t// in\n    tag_900:\n        /* \"#utility.yul\":18550:18667   */\n    tag_899:\n        /* \"#utility.yul\":18691:18754   */\n      tag_901\n        /* \"#utility.yul\":18746:18753   */\n      dup8\n        /* \"#utility.yul\":18737:18743   */\n      dup3\n        /* \"#utility.yul\":18726:18735   */\n      dup9\n        /* \"#utility.yul\":18722:18744   */\n      add\n        /* \"#utility.yul\":18691:18754   */\n      tag_619\n      jump\t// in\n    tag_901:\n        /* \"#utility.yul\":18681:18754   */\n      swap5\n      pop\n        /* \"#utility.yul\":18477:18764   */\n      pop\n        /* \"#utility.yul\":18831:18833   */\n      0x20\n        /* \"#utility.yul\":18820:18829   */\n      dup6\n        /* \"#utility.yul\":18816:18834   */\n      add\n        /* \"#utility.yul\":18803:18835   */\n      calldataload\n        /* \"#utility.yul\":18862:18880   */\n      0xffffffffffffffff\n        /* \"#utility.yul\":18854:18860   */\n      dup2\n        /* \"#utility.yul\":18851:18881   */\n      gt\n        /* \"#utility.yul\":18848:18965   */\n      iszero\n      tag_902\n      jumpi\n        /* \"#utility.yul\":18884:18963   */\n      tag_903\n      tag_610\n      jump\t// in\n    tag_903:\n        /* \"#utility.yul\":18848:18965   */\n    tag_902:\n        /* \"#utility.yul\":18989:19052   */\n      tag_904\n        /* \"#utility.yul\":19044:19051   */\n      dup8\n        /* \"#utility.yul\":19035:19041   */\n      dup3\n        /* \"#utility.yul\":19024:19033   */\n      dup9\n        /* \"#utility.yul\":19020:19042   */\n      add\n        /* \"#utility.yul\":18989:19052   */\n      tag_619\n      jump\t// in\n    tag_904:\n        /* \"#utility.yul\":18979:19052   */\n      swap4\n      pop\n        /* \"#utility.yul\":18774:19062   */\n      pop\n        /* \"#utility.yul\":19129:19131   */\n      0x40\n        /* \"#utility.yul\":19118:19127   */\n      dup6\n        /* \"#utility.yul\":19114:19132   */\n      add\n        /* \"#utility.yul\":19101:19133   */\n      calldataload\n        /* \"#utility.yul\":19160:19178   */\n      0xffffffffffffffff\n        /* \"#utility.yul\":19152:19158   */\n      dup2\n        /* \"#utility.yul\":19149:19179   */\n      gt\n        /* \"#utility.yul\":19146:19263   */\n      iszero\n      tag_905\n      jumpi\n        /* \"#utility.yul\":19182:19261   */\n      tag_906\n      tag_610\n      jump\t// in\n    tag_906:\n        /* \"#utility.yul\":19146:19263   */\n    tag_905:\n        /* \"#utility.yul\":19287:19350   */\n      tag_907\n        /* \"#utility.yul\":19342:19349   */\n      dup8\n        /* \"#utility.yul\":19333:19339   */\n      dup3\n        /* \"#utility.yul\":19322:19331   */\n      dup9\n        /* \"#utility.yul\":19318:19340   */\n      add\n        /* \"#utility.yul\":19287:19350   */\n      tag_619\n      jump\t// in\n    tag_907:\n        /* \"#utility.yul\":19277:19350   */\n      swap3\n      pop\n        /* \"#utility.yul\":19072:19360   */\n      pop\n        /* \"#utility.yul\":19399:19401   */\n      0x60\n        /* \"#utility.yul\":19425:19478   */\n      tag_908\n        /* \"#utility.yul\":19470:19477   */\n      dup8\n        /* \"#utility.yul\":19461:19467   */\n      dup3\n        /* \"#utility.yul\":19450:19459   */\n      dup9\n        /* \"#utility.yul\":19446:19468   */\n      add\n        /* \"#utility.yul\":19425:19478   */\n      tag_630\n      jump\t// in\n    tag_908:\n        /* \"#utility.yul\":19415:19478   */\n      swap2\n      pop\n        /* \"#utility.yul\":19370:19488   */\n      pop\n        /* \"#utility.yul\":18190:19495   */\n      swap3\n      swap6\n      swap2\n      swap5\n      pop\n      swap3\n      pop\n      jump\t// out\n        /* \"#utility.yul\":19501:20426   */\n    tag_76:\n        /* \"#utility.yul\":19760:19764   */\n      0x00\n        /* \"#utility.yul\":19798:19801   */\n      0xa0\n        /* \"#utility.yul\":19787:19796   */\n      dup3\n        /* \"#utility.yul\":19783:19802   */\n      add\n        /* \"#utility.yul\":19775:19802   */\n      swap1\n      pop\n        /* \"#utility.yul\":19848:19857   */\n      dup2\n        /* \"#utility.yul\":19842:19846   */\n      dup2\n        /* \"#utility.yul\":19838:19858   */\n      sub\n        /* \"#utility.yul\":19834:19835   */\n      0x00\n        /* \"#utility.yul\":19823:19832   */\n      dup4\n        /* \"#utility.yul\":19819:19836   */\n      add\n        /* \"#utility.yul\":19812:19859   */\n      mstore\n        /* \"#utility.yul\":19876:19954   */\n      tag_910\n        /* \"#utility.yul\":19949:19953   */\n      dup2\n        /* \"#utility.yul\":19940:19946   */\n      dup9\n        /* \"#utility.yul\":19876:19954   */\n      tag_632\n      jump\t// in\n    tag_910:\n        /* \"#utility.yul\":19868:19954   */\n      swap1\n      pop\n        /* \"#utility.yul\":20001:20010   */\n      dup2\n        /* \"#utility.yul\":19995:19999   */\n      dup2\n        /* \"#utility.yul\":19991:20011   */\n      sub\n        /* \"#utility.yul\":19986:19988   */\n      0x20\n        /* \"#utility.yul\":19975:19984   */\n      dup4\n        /* \"#utility.yul\":19971:19989   */\n      add\n        /* \"#utility.yul\":19964:20012   */\n      mstore\n        /* \"#utility.yul\":20029:20107   */\n      tag_911\n        /* \"#utility.yul\":20102:20106   */\n      dup2\n        /* \"#utility.yul\":20093:20099   */\n      dup8\n        /* \"#utility.yul\":20029:20107   */\n      tag_632\n      jump\t// in\n    tag_911:\n        /* \"#utility.yul\":20021:20107   */\n      swap1\n      pop\n        /* \"#utility.yul\":20154:20163   */\n      dup2\n        /* \"#utility.yul\":20148:20152   */\n      dup2\n        /* \"#utility.yul\":20144:20164   */\n      sub\n        /* \"#utility.yul\":20139:20141   */\n      0x40\n        /* \"#utility.yul\":20128:20137   */\n      dup4\n        /* \"#utility.yul\":20124:20142   */\n      add\n        /* \"#utility.yul\":20117:20165   */\n      mstore\n        /* \"#utility.yul\":20182:20260   */\n      tag_912\n        /* \"#utility.yul\":20255:20259   */\n      dup2\n        /* \"#utility.yul\":20246:20252   */\n      dup7\n        /* \"#utility.yul\":20182:20260   */\n      tag_632\n      jump\t// in\n    tag_912:\n        /* \"#utility.yul\":20174:20260   */\n      swap1\n      pop\n        /* \"#utility.yul\":20270:20342   */\n      tag_913\n        /* \"#utility.yul\":20338:20340   */\n      0x60\n        /* \"#utility.yul\":20327:20336   */\n      dup4\n        /* \"#utility.yul\":20323:20341   */\n      add\n        /* \"#utility.yul\":20314:20320   */\n      dup6\n        /* \"#utility.yul\":20270:20342   */\n      tag_637\n      jump\t// in\n    tag_913:\n        /* \"#utility.yul\":20352:20419   */\n      tag_914\n        /* \"#utility.yul\":20414:20417   */\n      0x80\n        /* \"#utility.yul\":20403:20412   */\n      dup4\n        /* \"#utility.yul\":20399:20418   */\n      add\n        /* \"#utility.yul\":20390:20396   */\n      dup5\n        /* \"#utility.yul\":20352:20419   */\n      tag_636\n      jump\t// in\n    tag_914:\n        /* \"#utility.yul\":19501:20426   */\n      swap7\n      swap6\n      pop\n      pop\n      pop\n      pop\n      pop\n      pop\n      jump\t// out\n        /* \"#utility.yul\":20432:20654   */\n    tag_82:\n        /* \"#utility.yul\":20525:20529   */\n      0x00\n        /* \"#utility.yul\":20563:20565   */\n      0x20\n        /* \"#utility.yul\":20552:20561   */\n      dup3\n        /* \"#utility.yul\":20548:20566   */\n      add\n        /* \"#utility.yul\":20540:20566   */\n      swap1\n      pop\n        /* \"#utility.yul\":20576:20647   */\n      tag_916\n        /* \"#utility.yul\":20644:20645   */\n      0x00\n        /* \"#utility.yul\":20633:20642   */\n      dup4\n        /* \"#utility.yul\":20629:20646   */\n      add\n        /* \"#utility.yul\":20620:20626   */\n      dup5\n        /* \"#utility.yul\":20576:20647   */\n      tag_637\n      jump\t// in\n    tag_916:\n        /* \"#utility.yul\":20432:20654   */\n      swap3\n      swap2\n      pop\n      pop\n      jump\t// out\n        /* \"#utility.yul\":20660:20797   */\n    tag_651:\n        /* \"#utility.yul\":20750:20756   */\n      0x00\n        /* \"#utility.yul\":20784:20789   */\n      dup2\n        /* \"#utility.yul\":20778:20790   */\n      mload\n        /* \"#utility.yul\":20768:20790   */\n      swap1\n      pop\n        /* \"#utility.yul\":20660:20797   */\n      swap2\n      swap1\n      pop\n      jump\t// out\n        /* \"#utility.yul\":20803:21010   */\n    tag_652:\n        /* \"#utility.yul\":20925:20936   */\n      0x00\n        /* \"#utility.yul\":20959:20965   */\n      dup3\n        /* \"#utility.yul\":20954:20957   */\n      dup3\n        /* \"#utility.yul\":20947:20966   */\n      mstore\n        /* \"#utility.yul\":20999:21003   */\n      0x20\n        /* \"#utility.yul\":20994:20997   */\n      dup3\n        /* \"#utility.yul\":20990:21004   */\n      add\n        /* \"#utility.yul\":20975:21004   */\n      swap1\n      pop\n        /* \"#utility.yul\":20803:21010   */\n      swap3\n      swap2\n      pop\n      pop\n      jump\t// out\n        /* \"#utility.yul\":21016:21171   */\n    tag_653:\n        /* \"#utility.yul\":21106:21110   */\n      0x00\n        /* \"#utility.yul\":21129:21132   */\n      dup2\n        /* \"#utility.yul\":21121:21132   */\n      swap1\n      pop\n        /* \"#utility.yul\":21159:21163   */\n      0x20\n        /* \"#utility.yul\":21154:21157   */\n      dup3\n        /* \"#utility.yul\":21150:21164   */\n      add\n        /* \"#utility.yul\":21142:21164   */\n      swap1\n      pop\n        /* \"#utility.yul\":21016:21171   */\n      swap2\n      swap1\n      pop\n      jump\t// out\n        /* \"#utility.yul\":21235:22493   */\n    tag_654:\n        /* \"#utility.yul\":21340:21343   */\n      0x00\n        /* \"#utility.yul\":21376:21380   */\n      0xa0\n        /* \"#utility.yul\":21371:21374   */\n      dup4\n        /* \"#utility.yul\":21367:21381   */\n      add\n        /* \"#utility.yul\":21461:21465   */\n      0x00\n        /* \"#utility.yul\":21454:21459   */\n      dup4\n        /* \"#utility.yul\":21450:21466   */\n      add\n        /* \"#utility.yul\":21444:21467   */\n      mload\n        /* \"#utility.yul\":21514:21517   */\n      dup5\n        /* \"#utility.yul\":21508:21512   */\n      dup3\n        /* \"#utility.yul\":21504:21518   */\n      sub\n        /* \"#utility.yul\":21497:21501   */\n      0x00\n        /* \"#utility.yul\":21492:21495   */\n      dup7\n        /* \"#utility.yul\":21488:21502   */\n      add\n        /* \"#utility.yul\":21481:21519   */\n      mstore\n        /* \"#utility.yul\":21540:21613   */\n      tag_921\n        /* \"#utility.yul\":21608:21612   */\n      dup3\n        /* \"#utility.yul\":21594:21606   */\n      dup3\n        /* \"#utility.yul\":21540:21613   */\n      tag_623\n      jump\t// in\n    tag_921:\n        /* \"#utility.yul\":21532:21613   */\n      swap2\n      pop\n        /* \"#utility.yul\":21391:21624   */\n      pop\n        /* \"#utility.yul\":21706:21710   */\n      0x20\n        /* \"#utility.yul\":21699:21704   */\n      dup4\n        /* \"#utility.yul\":21695:21711   */\n      add\n        /* \"#utility.yul\":21689:21712   */\n      mload\n        /* \"#utility.yul\":21759:21762   */\n      dup5\n        /* \"#utility.yul\":21753:21757   */\n      dup3\n        /* \"#utility.yul\":21749:21763   */\n      sub\n        /* \"#utility.yul\":21742:21746   */\n      0x20\n        /* \"#utility.yul\":21737:21740   */\n      dup7\n        /* \"#utility.yul\":21733:21747   */\n      add\n        /* \"#utility.yul\":21726:21764   */\n      mstore\n        /* \"#utility.yul\":21785:21858   */\n      tag_922\n        /* \"#utility.yul\":21853:21857   */\n      dup3\n        /* \"#utility.yul\":21839:21851   */\n      dup3\n        /* \"#utility.yul\":21785:21858   */\n      tag_623\n      jump\t// in\n    tag_922:\n        /* \"#utility.yul\":21777:21858   */\n      swap2\n      pop\n        /* \"#utility.yul\":21634:21869   */\n      pop\n        /* \"#utility.yul\":21955:21959   */\n      0x40\n        /* \"#utility.yul\":21948:21953   */\n      dup4\n        /* \"#utility.yul\":21944:21960   */\n      add\n        /* \"#utility.yul\":21938:21961   */\n      mload\n        /* \"#utility.yul\":22008:22011   */\n      dup5\n        /* \"#utility.yul\":22002:22006   */\n      dup3\n        /* \"#utility.yul\":21998:22012   */\n      sub\n        /* \"#utility.yul\":21991:21995   */\n      0x40\n        /* \"#utility.yul\":21986:21989   */\n      dup7\n        /* \"#utility.yul\":21982:21996   */\n      add\n        /* \"#utility.yul\":21975:22013   */\n      mstore\n        /* \"#utility.yul\":22034:22107   */\n      tag_923\n        /* \"#utility.yul\":22102:22106   */\n      dup3\n        /* \"#utility.yul\":22088:22100   */\n      dup3\n        /* \"#utility.yul\":22034:22107   */\n      tag_623\n      jump\t// in\n    tag_923:\n        /* \"#utility.yul\":22026:22107   */\n      swap2\n      pop\n        /* \"#utility.yul\":21879:22118   */\n      pop\n        /* \"#utility.yul\":22201:22205   */\n      0x60\n        /* \"#utility.yul\":22194:22199   */\n      dup4\n        /* \"#utility.yul\":22190:22206   */\n      add\n        /* \"#utility.yul\":22184:22207   */\n      mload\n        /* \"#utility.yul\":22220:22283   */\n      tag_924\n        /* \"#utility.yul\":22277:22281   */\n      0x60\n        /* \"#utility.yul\":22272:22275   */\n      dup7\n        /* \"#utility.yul\":22268:22282   */\n      add\n        /* \"#utility.yul\":22254:22266   */\n      dup3\n        /* \"#utility.yul\":22220:22283   */\n      tag_625\n      jump\t// in\n    tag_924:\n        /* \"#utility.yul\":22128:22293   */\n      pop\n        /* \"#utility.yul\":22380:22384   */\n      0x80\n        /* \"#utility.yul\":22373:22378   */\n      dup4\n        /* \"#utility.yul\":22369:22385   */\n      add\n        /* \"#utility.yul\":22363:22386   */\n      mload\n        /* \"#utility.yul\":22399:22456   */\n      tag_925\n        /* \"#utility.yul\":22450:22454   */\n      0x80\n        /* \"#utility.yul\":22445:22448   */\n      dup7\n        /* \"#utility.yul\":22441:22455   */\n      add\n        /* \"#utility.yul\":22427:22439   */\n      dup3\n        /* \"#utility.yul\":22399:22456   */\n      tag_627\n      jump\t// in\n    tag_925:\n        /* \"#utility.yul\":22303:22466   */\n      pop\n        /* \"#utility.yul\":22483:22487   */\n      dup1\n        /* \"#utility.yul\":22476:22487   */\n      swap2\n      pop\n        /* \"#utility.yul\":21345:22493   */\n      pop\n        /* \"#utility.yul\":21235:22493   */\n      swap3\n      swap2\n      pop\n      pop\n      jump\t// out\n        /* \"#utility.yul\":22499:22747   */\n    tag_655:\n        /* \"#utility.yul\":22614:22624   */\n      0x00\n        /* \"#utility.yul\":22649:22741   */\n      tag_927\n        /* \"#utility.yul\":22737:22740   */\n      dup4\n        /* \"#utility.yul\":22729:22735   */\n      dup4\n        /* \"#utility.yul\":22649:22741   */\n      tag_654\n      jump\t// in\n    tag_927:\n        /* \"#utility.yul\":22635:22741   */\n      swap1\n      pop\n        /* \"#utility.yul\":22499:22747   */\n      swap3\n      swap2\n      pop\n      pop\n      jump\t// out\n        /* \"#utility.yul\":22753:22889   */\n    tag_656:\n        /* \"#utility.yul\":22846:22850   */\n      0x00\n        /* \"#utility.yul\":22878:22882   */\n      0x20\n        /* \"#utility.yul\":22873:22876   */\n      dup3\n        /* \"#utility.yul\":22869:22883   */\n      add\n        /* \"#utility.yul\":22861:22883   */\n      swap1\n      pop\n        /* \"#utility.yul\":22753:22889   */\n      swap2\n      swap1\n      pop\n      jump\t// out\n        /* \"#utility.yul\":22957:24052   */\n    tag_657:\n        /* \"#utility.yul\":23122:23125   */\n      0x00\n        /* \"#utility.yul\":23151:23228   */\n      tag_930\n        /* \"#utility.yul\":23222:23227   */\n      dup3\n        /* \"#utility.yul\":23151:23228   */\n      tag_651\n      jump\t// in\n    tag_930:\n        /* \"#utility.yul\":23244:23353   */\n      tag_931\n        /* \"#utility.yul\":23346:23352   */\n      dup2\n        /* \"#utility.yul\":23341:23344   */\n      dup6\n        /* \"#utility.yul\":23244:23353   */\n      tag_652\n      jump\t// in\n    tag_931:\n        /* \"#utility.yul\":23237:23353   */\n      swap4\n      pop\n        /* \"#utility.yul\":23379:23382   */\n      dup4\n        /* \"#utility.yul\":23424:23428   */\n      0x20\n        /* \"#utility.yul\":23416:23422   */\n      dup3\n        /* \"#utility.yul\":23412:23429   */\n      mul\n        /* \"#utility.yul\":23407:23410   */\n      dup6\n        /* \"#utility.yul\":23403:23430   */\n      add\n        /* \"#utility.yul\":23454:23533   */\n      tag_932\n        /* \"#utility.yul\":23527:23532   */\n      dup6\n        /* \"#utility.yul\":23454:23533   */\n      tag_653\n      jump\t// in\n    tag_932:\n        /* \"#utility.yul\":23556:23563   */\n      dup1\n        /* \"#utility.yul\":23587:23588   */\n      0x00\n        /* \"#utility.yul\":23572:24007   */\n    tag_933:\n        /* \"#utility.yul\":23597:23603   */\n      dup6\n        /* \"#utility.yul\":23594:23595   */\n      dup2\n        /* \"#utility.yul\":23591:23604   */\n      lt\n        /* \"#utility.yul\":23572:24007   */\n      iszero\n      tag_935\n      jumpi\n        /* \"#utility.yul\":23668:23677   */\n      dup5\n        /* \"#utility.yul\":23662:23666   */\n      dup5\n        /* \"#utility.yul\":23658:23678   */\n      sub\n        /* \"#utility.yul\":23653:23656   */\n      dup10\n        /* \"#utility.yul\":23646:23679   */\n      mstore\n        /* \"#utility.yul\":23719:23725   */\n      dup2\n        /* \"#utility.yul\":23713:23726   */\n      mload\n        /* \"#utility.yul\":23747:23857   */\n      tag_936\n        /* \"#utility.yul\":23852:23856   */\n      dup6\n        /* \"#utility.yul\":23837:23850   */\n      dup3\n        /* \"#utility.yul\":23747:23857   */\n      tag_655\n      jump\t// in\n    tag_936:\n        /* \"#utility.yul\":23739:23857   */\n      swap5\n      pop\n        /* \"#utility.yul\":23880:23963   */\n      tag_937\n        /* \"#utility.yul\":23956:23962   */\n      dup4\n        /* \"#utility.yul\":23880:23963   */\n      tag_656\n      jump\t// in\n    tag_937:\n        /* \"#utility.yul\":23870:23963   */\n      swap3\n      pop\n        /* \"#utility.yul\":23992:23996   */\n      0x20\n        /* \"#utility.yul\":23987:23990   */\n      dup11\n        /* \"#utility.yul\":23983:23997   */\n      add\n        /* \"#utility.yul\":23976:23997   */\n      swap10\n      pop\n        /* \"#utility.yul\":23632:24007   */\n      pop\n        /* \"#utility.yul\":23619:23620   */\n      0x01\n        /* \"#utility.yul\":23616:23617   */\n      dup2\n        /* \"#utility.yul\":23612:23621   */\n      add\n        /* \"#utility.yul\":23607:23621   */\n      swap1\n      pop\n        /* \"#utility.yul\":23572:24007   */\n      jump(tag_933)\n    tag_935:\n        /* \"#utility.yul\":23576:23590   */\n      pop\n        /* \"#utility.yul\":24023:24027   */\n      dup3\n        /* \"#utility.yul\":24016:24027   */\n      swap8\n      pop\n        /* \"#utility.yul\":24043:24046   */\n      dup8\n        /* \"#utility.yul\":24036:24046   */\n      swap6\n      pop\n        /* \"#utility.yul\":23127:24052   */\n      pop\n      pop\n      pop\n      pop\n      pop\n        /* \"#utility.yul\":22957:24052   */\n      swap3\n      swap2\n      pop\n      pop\n      jump\t// out\n        /* \"#utility.yul\":24058:24523   */\n    tag_88:\n        /* \"#utility.yul\":24247:24251   */\n      0x00\n        /* \"#utility.yul\":24285:24287   */\n      0x20\n        /* \"#utility.yul\":24274:24283   */\n      dup3\n        /* \"#utility.yul\":24270:24288   */\n      add\n        /* \"#utility.yul\":24262:24288   */\n      swap1\n      pop\n        /* \"#utility.yul\":24334:24343   */\n      dup2\n        /* \"#utility.yul\":24328:24332   */\n      dup2\n        /* \"#utility.yul\":24324:24344   */\n      sub\n        /* \"#utility.yul\":24320:24321   */\n      0x00\n        /* \"#utility.yul\":24309:24318   */\n      dup4\n        /* \"#utility.yul\":24305:24322   */\n      add\n        /* \"#utility.yul\":24298:24345   */\n      mstore\n        /* \"#utility.yul\":24362:24516   */\n      tag_939\n        /* \"#utility.yul\":24511:24515   */\n      dup2\n        /* \"#utility.yul\":24502:24508   */\n      dup5\n        /* \"#utility.yul\":24362:24516   */\n      tag_657\n      jump\t// in\n    tag_939:\n        /* \"#utility.yul\":24354:24516   */\n      swap1\n      pop\n        /* \"#utility.yul\":24058:24523   */\n      swap3\n      swap2\n      pop\n      pop\n      jump\t// out\n        /* \"#utility.yul\":24529:24674   */\n    tag_658:\n        /* \"#utility.yul\":24627:24633   */\n      0x00\n        /* \"#utility.yul\":24661:24666   */\n      dup2\n        /* \"#utility.yul\":24655:24667   */\n      mload\n        /* \"#utility.yul\":24645:24667   */\n      swap1\n      pop\n        /* \"#utility.yul\":24529:24674   */\n      swap2\n      swap1\n      pop\n      jump\t// out\n        /* \"#utility.yul\":24680:24895   */\n    tag_659:\n        /* \"#utility.yul\":24810:24821   */\n      0x00\n        /* \"#utility.yul\":24844:24850   */\n      dup3\n        /* \"#utility.yul\":24839:24842   */\n      dup3\n        /* \"#utility.yul\":24832:24851   */\n      mstore\n        /* \"#utility.yul\":24884:24888   */\n      0x20\n        /* \"#utility.yul\":24879:24882   */\n      dup3\n        /* \"#utility.yul\":24875:24889   */\n      add\n        /* \"#utility.yul\":24860:24889   */\n      swap1\n      pop\n        /* \"#utility.yul\":24680:24895   */\n      swap3\n      swap2\n      pop\n      pop\n      jump\t// out\n        /* \"#utility.yul\":24901:25064   */\n    tag_660:\n        /* \"#utility.yul\":24999:25003   */\n      0x00\n        /* \"#utility.yul\":25022:25025   */\n      dup2\n        /* \"#utility.yul\":25014:25025   */\n      swap1\n      pop\n        /* \"#utility.yul\":25052:25056   */\n      0x20\n        /* \"#utility.yul\":25047:25050   */\n      dup3\n        /* \"#utility.yul\":25043:25057   */\n      add\n        /* \"#utility.yul\":25035:25057   */\n      swap1\n      pop\n        /* \"#utility.yul\":24901:25064   */\n      swap2\n      swap1\n      pop\n      jump\t// out\n        /* \"#utility.yul\":25144:26941   */\n    tag_661:\n        /* \"#utility.yul\":25265:25268   */\n      0x00\n        /* \"#utility.yul\":25301:25305   */\n      0xe0\n        /* \"#utility.yul\":25296:25299   */\n      dup4\n        /* \"#utility.yul\":25292:25306   */\n      add\n        /* \"#utility.yul\":25386:25390   */\n      0x00\n        /* \"#utility.yul\":25379:25384   */\n      dup4\n        /* \"#utility.yul\":25375:25391   */\n      add\n        /* \"#utility.yul\":25369:25392   */\n      mload\n        /* \"#utility.yul\":25439:25442   */\n      dup5\n        /* \"#utility.yul\":25433:25437   */\n      dup3\n        /* \"#utility.yul\":25429:25443   */\n      sub\n        /* \"#utility.yul\":25422:25426   */\n      0x00\n        /* \"#utility.yul\":25417:25420   */\n      dup7\n        /* \"#utility.yul\":25413:25427   */\n      add\n        /* \"#utility.yul\":25406:25444   */\n      mstore\n        /* \"#utility.yul\":25465:25538   */\n      tag_944\n        /* \"#utility.yul\":25533:25537   */\n      dup3\n        /* \"#utility.yul\":25519:25531   */\n      dup3\n        /* \"#utility.yul\":25465:25538   */\n      tag_623\n      jump\t// in\n    tag_944:\n        /* \"#utility.yul\":25457:25538   */\n      swap2\n      pop\n        /* \"#utility.yul\":25316:25549   */\n      pop\n        /* \"#utility.yul\":25634:25638   */\n      0x20\n        /* \"#utility.yul\":25627:25632   */\n      dup4\n        /* \"#utility.yul\":25623:25639   */\n      add\n        /* \"#utility.yul\":25617:25640   */\n      mload\n        /* \"#utility.yul\":25687:25690   */\n      dup5\n        /* \"#utility.yul\":25681:25685   */\n      dup3\n        /* \"#utility.yul\":25677:25691   */\n      sub\n        /* \"#utility.yul\":25670:25674   */\n      0x20\n        /* \"#utility.yul\":25665:25668   */\n      dup7\n        /* \"#utility.yul\":25661:25675   */\n      add\n        /* \"#utility.yul\":25654:25692   */\n      mstore\n        /* \"#utility.yul\":25713:25786   */\n      tag_945\n        /* \"#utility.yul\":25781:25785   */\n      dup3\n        /* \"#utility.yul\":25767:25779   */\n      dup3\n        /* \"#utility.yul\":25713:25786   */\n      tag_623\n      jump\t// in\n    tag_945:\n        /* \"#utility.yul\":25705:25786   */\n      swap2\n      pop\n        /* \"#utility.yul\":25559:25797   */\n      pop\n        /* \"#utility.yul\":25884:25888   */\n      0x40\n        /* \"#utility.yul\":25877:25882   */\n      dup4\n        /* \"#utility.yul\":25873:25889   */\n      add\n        /* \"#utility.yul\":25867:25890   */\n      mload\n        /* \"#utility.yul\":25937:25940   */\n      dup5\n        /* \"#utility.yul\":25931:25935   */\n      dup3\n        /* \"#utility.yul\":25927:25941   */\n      sub\n        /* \"#utility.yul\":25920:25924   */\n      0x40\n        /* \"#utility.yul\":25915:25918   */\n      dup7\n        /* \"#utility.yul\":25911:25925   */\n      add\n        /* \"#utility.yul\":25904:25942   */\n      mstore\n        /* \"#utility.yul\":25963:26036   */\n      tag_946\n        /* \"#utility.yul\":26031:26035   */\n      dup3\n        /* \"#utility.yul\":26017:26029   */\n      dup3\n        /* \"#utility.yul\":25963:26036   */\n      tag_623\n      jump\t// in\n    tag_946:\n        /* \"#utility.yul\":25955:26036   */\n      swap2\n      pop\n        /* \"#utility.yul\":25807:26047   */\n      pop\n        /* \"#utility.yul\":26131:26135   */\n      0x60\n        /* \"#utility.yul\":26124:26129   */\n      dup4\n        /* \"#utility.yul\":26120:26136   */\n      add\n        /* \"#utility.yul\":26114:26137   */\n      mload\n        /* \"#utility.yul\":26184:26187   */\n      dup5\n        /* \"#utility.yul\":26178:26182   */\n      dup3\n        /* \"#utility.yul\":26174:26188   */\n      sub\n        /* \"#utility.yul\":26167:26171   */\n      0x60\n        /* \"#utility.yul\":26162:26165   */\n      dup7\n        /* \"#utility.yul\":26158:26172   */\n      add\n        /* \"#utility.yul\":26151:26189   */\n      mstore\n        /* \"#utility.yul\":26210:26283   */\n      tag_947\n        /* \"#utility.yul\":26278:26282   */\n      dup3\n        /* \"#utility.yul\":26264:26276   */\n      dup3\n        /* \"#utility.yul\":26210:26283   */\n      tag_623\n      jump\t// in\n    tag_947:\n        /* \"#utility.yul\":26202:26283   */\n      swap2\n      pop\n        /* \"#utility.yul\":26057:26294   */\n      pop\n        /* \"#utility.yul\":26383:26387   */\n      0x80\n        /* \"#utility.yul\":26376:26381   */\n      dup4\n        /* \"#utility.yul\":26372:26388   */\n      add\n        /* \"#utility.yul\":26366:26389   */\n      mload\n        /* \"#utility.yul\":26402:26465   */\n      tag_948\n        /* \"#utility.yul\":26459:26463   */\n      0x80\n        /* \"#utility.yul\":26454:26457   */\n      dup7\n        /* \"#utility.yul\":26450:26464   */\n      add\n        /* \"#utility.yul\":26436:26448   */\n      dup3\n        /* \"#utility.yul\":26402:26465   */\n      tag_625\n      jump\t// in\n    tag_948:\n        /* \"#utility.yul\":26304:26475   */\n      pop\n        /* \"#utility.yul\":26567:26571   */\n      0xa0\n        /* \"#utility.yul\":26560:26565   */\n      dup4\n        /* \"#utility.yul\":26556:26572   */\n      add\n        /* \"#utility.yul\":26550:26573   */\n      mload\n        /* \"#utility.yul\":26586:26649   */\n      tag_949\n        /* \"#utility.yul\":26643:26647   */\n      0xa0\n        /* \"#utility.yul\":26638:26641   */\n      dup7\n        /* \"#utility.yul\":26634:26648   */\n      add\n        /* \"#utility.yul\":26620:26632   */\n      dup3\n        /* \"#utility.yul\":26586:26649   */\n      tag_625\n      jump\t// in\n    tag_949:\n        /* \"#utility.yul\":26485:26659   */\n      pop\n        /* \"#utility.yul\":26751:26755   */\n      0xc0\n        /* \"#utility.yul\":26744:26749   */\n      dup4\n        /* \"#utility.yul\":26740:26756   */\n      add\n        /* \"#utility.yul\":26734:26757   */\n      mload\n        /* \"#utility.yul\":26804:26807   */\n      dup5\n        /* \"#utility.yul\":26798:26802   */\n      dup3\n        /* \"#utility.yul\":26794:26808   */\n      sub\n        /* \"#utility.yul\":26787:26791   */\n      0xc0\n        /* \"#utility.yul\":26782:26785   */\n      dup7\n        /* \"#utility.yul\":26778:26792   */\n      add\n        /* \"#utility.yul\":26771:26809   */\n      mstore\n        /* \"#utility.yul\":26830:26903   */\n      tag_950\n        /* \"#utility.yul\":26898:26902   */\n      dup3\n        /* \"#utility.yul\":26884:26896   */\n      dup3\n        /* \"#utility.yul\":26830:26903   */\n      tag_623\n      jump\t// in\n    tag_950:\n        /* \"#utility.yul\":26822:26903   */\n      swap2\n      pop\n        /* \"#utility.yul\":26669:26914   */\n      pop\n        /* \"#utility.yul\":26931:26935   */\n      dup1\n        /* \"#utility.yul\":26924:26935   */\n      swap2\n      pop\n        /* \"#utility.yul\":25270:26941   */\n      pop\n        /* \"#utility.yul\":25144:26941   */\n      swap3\n      swap2\n      pop\n      pop\n      jump\t// out\n        /* \"#utility.yul\":26947:27227   */\n    tag_662:\n        /* \"#utility.yul\":27078:27088   */\n      0x00\n        /* \"#utility.yul\":27113:27221   */\n      tag_952\n        /* \"#utility.yul\":27217:27220   */\n      dup4\n        /* \"#utility.yul\":27209:27215   */\n      dup4\n        /* \"#utility.yul\":27113:27221   */\n      tag_661\n      jump\t// in\n    tag_952:\n        /* \"#utility.yul\":27099:27221   */\n      swap1\n      pop\n        /* \"#utility.yul\":26947:27227   */\n      swap3\n      swap2\n      pop\n      pop\n      jump\t// out\n        /* \"#utility.yul\":27233:27377   */\n    tag_663:\n        /* \"#utility.yul\":27334:27338   */\n      0x00\n        /* \"#utility.yul\":27366:27370   */\n      0x20\n        /* \"#utility.yul\":27361:27364   */\n      dup3\n        /* \"#utility.yul\":27357:27371   */\n      add\n        /* \"#utility.yul\":27349:27371   */\n      swap1\n      pop\n        /* \"#utility.yul\":27233:27377   */\n      swap2\n      swap1\n      pop\n      jump\t// out\n        /* \"#utility.yul\":27461:28620   */\n    tag_664:\n        /* \"#utility.yul\":27642:27645   */\n      0x00\n        /* \"#utility.yul\":27671:27756   */\n      tag_955\n        /* \"#utility.yul\":27750:27755   */\n      dup3\n        /* \"#utility.yul\":27671:27756   */\n      tag_658\n      jump\t// in\n    tag_955:\n        /* \"#utility.yul\":27772:27889   */\n      tag_956\n        /* \"#utility.yul\":27882:27888   */\n      dup2\n        /* \"#utility.yul\":27877:27880   */\n      dup6\n        /* \"#utility.yul\":27772:27889   */\n      tag_659\n      jump\t// in\n    tag_956:\n        /* \"#utility.yul\":27765:27889   */\n      swap4\n      pop\n        /* \"#utility.yul\":27915:27918   */\n      dup4\n        /* \"#utility.yul\":27960:27964   */\n      0x20\n        /* \"#utility.yul\":27952:27958   */\n      dup3\n        /* \"#utility.yul\":27948:27965   */\n      mul\n        /* \"#utility.yul\":27943:27946   */\n      dup6\n        /* \"#utility.yul\":27939:27966   */\n      add\n        /* \"#utility.yul\":27990:28077   */\n      tag_957\n        /* \"#utility.yul\":28071:28076   */\n      dup6\n        /* \"#utility.yul\":27990:28077   */\n      tag_660\n      jump\t// in\n    tag_957:\n        /* \"#utility.yul\":28100:28107   */\n      dup1\n        /* \"#utility.yul\":28131:28132   */\n      0x00\n        /* \"#utility.yul\":28116:28575   */\n    tag_958:\n        /* \"#utility.yul\":28141:28147   */\n      dup6\n        /* \"#utility.yul\":28138:28139   */\n      dup2\n        /* \"#utility.yul\":28135:28148   */\n      lt\n        /* \"#utility.yul\":28116:28575   */\n      iszero\n      tag_960\n      jumpi\n        /* \"#utility.yul\":28212:28221   */\n      dup5\n        /* \"#utility.yul\":28206:28210   */\n      dup5\n        /* \"#utility.yul\":28202:28222   */\n      sub\n        /* \"#utility.yul\":28197:28200   */\n      dup10\n        /* \"#utility.yul\":28190:28223   */\n      mstore\n        /* \"#utility.yul\":28263:28269   */\n      dup2\n        /* \"#utility.yul\":28257:28270   */\n      mload\n        /* \"#utility.yul\":28291:28417   */\n      tag_961\n        /* \"#utility.yul\":28412:28416   */\n      dup6\n        /* \"#utility.yul\":28397:28410   */\n      dup3\n        /* \"#utility.yul\":28291:28417   */\n      tag_662\n      jump\t// in\n    tag_961:\n        /* \"#utility.yul\":28283:28417   */\n      swap5\n      pop\n        /* \"#utility.yul\":28440:28531   */\n      tag_962\n        /* \"#utility.yul\":28524:28530   */\n      dup4\n        /* \"#utility.yul\":28440:28531   */\n      tag_663\n      jump\t// in\n    tag_962:\n        /* \"#utility.yul\":28430:28531   */\n      swap3\n      pop\n        /* \"#utility.yul\":28560:28564   */\n      0x20\n        /* \"#utility.yul\":28555:28558   */\n      dup11\n        /* \"#utility.yul\":28551:28565   */\n      add\n        /* \"#utility.yul\":28544:28565   */\n      swap10\n      pop\n        /* \"#utility.yul\":28176:28575   */\n      pop\n        /* \"#utility.yul\":28163:28164   */\n      0x01\n        /* \"#utility.yul\":28160:28161   */\n      dup2\n        /* \"#utility.yul\":28156:28165   */\n      add\n        /* \"#utility.yul\":28151:28165   */\n      swap1\n      pop\n        /* \"#utility.yul\":28116:28575   */\n      jump(tag_958)\n    tag_960:\n        /* \"#utility.yul\":28120:28134   */\n      pop\n        /* \"#utility.yul\":28591:28595   */\n      dup3\n        /* \"#utility.yul\":28584:28595   */\n      swap8\n      pop\n        /* \"#utility.yul\":28611:28614   */\n      dup8\n        /* \"#utility.yul\":28604:28614   */\n      swap6\n      pop\n        /* \"#utility.yul\":27647:28620   */\n      pop\n      pop\n      pop\n      pop\n      pop\n        /* \"#utility.yul\":27461:28620   */\n      swap3\n      swap2\n      pop\n      pop\n      jump\t// out\n        /* \"#utility.yul\":28626:29123   */\n    tag_94:\n        /* \"#utility.yul\":28831:28835   */\n      0x00\n        /* \"#utility.yul\":28869:28871   */\n      0x20\n        /* \"#utility.yul\":28858:28867   */\n      dup3\n        /* \"#utility.yul\":28854:28872   */\n      add\n        /* \"#utility.yul\":28846:28872   */\n      swap1\n      pop\n        /* \"#utility.yul\":28918:28927   */\n      dup2\n        /* \"#utility.yul\":28912:28916   */\n      dup2\n        /* \"#utility.yul\":28908:28928   */\n      sub\n        /* \"#utility.yul\":28904:28905   */\n      0x00\n        /* \"#utility.yul\":28893:28902   */\n      dup4\n        /* \"#utility.yul\":28889:28906   */\n      add\n        /* \"#utility.yul\":28882:28929   */\n      mstore\n        /* \"#utility.yul\":28946:29116   */\n      tag_964\n        /* \"#utility.yul\":29111:29115   */\n      dup2\n        /* \"#utility.yul\":29102:29108   */\n      dup5\n        /* \"#utility.yul\":28946:29116   */\n      tag_664\n      jump\t// in\n    tag_964:\n        /* \"#utility.yul\":28938:29116   */\n      swap1\n      pop\n        /* \"#utility.yul\":28626:29123   */\n      swap3\n      swap2\n      pop\n      pop\n      jump\t// out\n        /* \"#utility.yul\":29129:30074   */\n    tag_98:\n        /* \"#utility.yul\":29225:29231   */\n      0x00\n        /* \"#utility.yul\":29233:29239   */\n      dup1\n        /* \"#utility.yul\":29241:29247   */\n      0x00\n        /* \"#utility.yul\":29249:29255   */\n      dup1\n        /* \"#utility.yul\":29298:29301   */\n      0x80\n        /* \"#utility.yul\":29286:29295   */\n      dup6\n        /* \"#utility.yul\":29277:29284   */\n      dup8\n        /* \"#utility.yul\":29273:29296   */\n      sub\n        /* \"#utility.yul\":29269:29302   */\n      slt\n        /* \"#utility.yul\":29266:29386   */\n      iszero\n      tag_966\n      jumpi\n        /* \"#utility.yul\":29305:29384   */\n      tag_967\n      tag_609\n      jump\t// in\n    tag_967:\n        /* \"#utility.yul\":29266:29386   */\n    tag_966:\n        /* \"#utility.yul\":29453:29454   */\n      0x00\n        /* \"#utility.yul\":29442:29451   */\n      dup6\n        /* \"#utility.yul\":29438:29455   */\n      add\n        /* \"#utility.yul\":29425:29456   */\n      calldataload\n        /* \"#utility.yul\":29483:29501   */\n      0xffffffffffffffff\n        /* \"#utility.yul\":29475:29481   */\n      dup2\n        /* \"#utility.yul\":29472:29502   */\n      gt\n        /* \"#utility.yul\":29469:29586   */\n      iszero\n      tag_968\n      jumpi\n        /* \"#utility.yul\":29505:29584   */\n      tag_969\n      tag_610\n      jump\t// in\n    tag_969:\n        /* \"#utility.yul\":29469:29586   */\n    tag_968:\n        /* \"#utility.yul\":29610:29673   */\n      tag_970\n        /* \"#utility.yul\":29665:29672   */\n      dup8\n        /* \"#utility.yul\":29656:29662   */\n      dup3\n        /* \"#utility.yul\":29645:29654   */\n      dup9\n        /* \"#utility.yul\":29641:29663   */\n      add\n        /* \"#utility.yul\":29610:29673   */\n      tag_619\n      jump\t// in\n    tag_970:\n        /* \"#utility.yul\":29600:29673   */\n      swap5\n      pop\n        /* \"#utility.yul\":29396:29683   */\n      pop\n        /* \"#utility.yul\":29722:29724   */\n      0x20\n        /* \"#utility.yul\":29748:29801   */\n      tag_971\n        /* \"#utility.yul\":29793:29800   */\n      dup8\n        /* \"#utility.yul\":29784:29790   */\n      dup3\n        /* \"#utility.yul\":29773:29782   */\n      dup9\n        /* \"#utility.yul\":29769:29791   */\n      add\n        /* \"#utility.yul\":29748:29801   */\n      tag_630\n      jump\t// in\n    tag_971:\n        /* \"#utility.yul\":29738:29801   */\n      swap4\n      pop\n        /* \"#utility.yul\":29693:29811   */\n      pop\n        /* \"#utility.yul\":29850:29852   */\n      0x40\n        /* \"#utility.yul\":29876:29929   */\n      tag_972\n        /* \"#utility.yul\":29921:29928   */\n      dup8\n        /* \"#utility.yul\":29912:29918   */\n      dup3\n        /* \"#utility.yul\":29901:29910   */\n      dup9\n        /* \"#utility.yul\":29897:29919   */\n      add\n        /* \"#utility.yul\":29876:29929   */\n      tag_630\n      jump\t// in\n    tag_972:\n        /* \"#utility.yul\":29866:29929   */\n      swap3\n      pop\n        /* \"#utility.yul\":29821:29939   */\n      pop\n        /* \"#utility.yul\":29978:29980   */\n      0x60\n        /* \"#utility.yul\":30004:30057   */\n      tag_973\n        /* \"#utility.yul\":30049:30056   */\n      dup8\n        /* \"#utility.yul\":30040:30046   */\n      dup3\n        /* \"#utility.yul\":30029:30038   */\n      dup9\n        /* \"#utility.yul\":30025:30047   */\n      add\n        /* \"#utility.yul\":30004:30057   */\n      tag_630\n      jump\t// in\n    tag_973:\n        /* \"#utility.yul\":29994:30057   */\n      swap2\n      pop\n        /* \"#utility.yul\":29949:30067   */\n      pop\n        /* \"#utility.yul\":29129:30074   */\n      swap3\n      swap6\n      swap2\n      swap5\n      pop\n      swap3\n      pop\n      jump\t// out\n        /* \"#utility.yul\":30080:30409   */\n    tag_103:\n        /* \"#utility.yul\":30139:30145   */\n      0x00\n        /* \"#utility.yul\":30188:30190   */\n      0x20\n        /* \"#utility.yul\":30176:30185   */\n      dup3\n        /* \"#utility.yul\":30167:30174   */\n      dup5\n        /* \"#utility.yul\":30163:30186   */\n      sub\n        /* \"#utility.yul\":30159:30191   */\n      slt\n        /* \"#utility.yul\":30156:30275   */\n      iszero\n      tag_975\n      jumpi\n        /* \"#utility.yul\":30194:30273   */\n      tag_976\n      tag_609\n      jump\t// in\n    tag_976:\n        /* \"#utility.yul\":30156:30275   */\n    tag_975:\n        /* \"#utility.yul\":30314:30315   */\n      0x00\n        /* \"#utility.yul\":30339:30392   */\n      tag_977\n        /* \"#utility.yul\":30384:30391   */\n      dup5\n        /* \"#utility.yul\":30375:30381   */\n      dup3\n        /* \"#utility.yul\":30364:30373   */\n      dup6\n        /* \"#utility.yul\":30360:30382   */\n      add\n        /* \"#utility.yul\":30339:30392   */\n      tag_630\n      jump\t// in\n    tag_977:\n        /* \"#utility.yul\":30329:30392   */\n      swap2\n      pop\n        /* \"#utility.yul\":30285:30402   */\n      pop\n        /* \"#utility.yul\":30080:30409   */\n      swap3\n      swap2\n      pop\n      pop\n      jump\t// out\n        /* \"#utility.yul\":30415:30728   */\n    tag_106:\n        /* \"#utility.yul\":30528:30532   */\n      0x00\n        /* \"#utility.yul\":30566:30568   */\n      0x20\n        /* \"#utility.yul\":30555:30564   */\n      dup3\n        /* \"#utility.yul\":30551:30569   */\n      add\n        /* \"#utility.yul\":30543:30569   */\n      swap1\n      pop\n        /* \"#utility.yul\":30615:30624   */\n      dup2\n        /* \"#utility.yul\":30609:30613   */\n      dup2\n        /* \"#utility.yul\":30605:30625   */\n      sub\n        /* \"#utility.yul\":30601:30602   */\n      0x00\n        /* \"#utility.yul\":30590:30599   */\n      dup4\n        /* \"#utility.yul\":30586:30603   */\n      add\n        /* \"#utility.yul\":30579:30626   */\n      mstore\n        /* \"#utility.yul\":30643:30721   */\n      tag_979\n        /* \"#utility.yul\":30716:30720   */\n      dup2\n        /* \"#utility.yul\":30707:30713   */\n      dup5\n        /* \"#utility.yul\":30643:30721   */\n      tag_632\n      jump\t// in\n    tag_979:\n        /* \"#utility.yul\":30635:30721   */\n      swap1\n      pop\n        /* \"#utility.yul\":30415:30728   */\n      swap3\n      swap2\n      pop\n      pop\n      jump\t// out\n        /* \"#utility.yul\":30734:30882   */\n    tag_665:\n        /* \"#utility.yul\":30836:30847   */\n      0x00\n        /* \"#utility.yul\":30873:30876   */\n      dup2\n        /* \"#utility.yul\":30858:30876   */\n      swap1\n      pop\n        /* \"#utility.yul\":30734:30882   */\n      swap3\n      swap2\n      pop\n      pop\n      jump\t// out\n        /* \"#utility.yul\":30888:31278   */\n    tag_666:\n        /* \"#utility.yul\":30994:30997   */\n      0x00\n        /* \"#utility.yul\":31022:31061   */\n      tag_982\n        /* \"#utility.yul\":31055:31060   */\n      dup3\n        /* \"#utility.yul\":31022:31061   */\n      tag_620\n      jump\t// in\n    tag_982:\n        /* \"#utility.yul\":31077:31166   */\n      tag_983\n        /* \"#utility.yul\":31159:31165   */\n      dup2\n        /* \"#utility.yul\":31154:31157   */\n      dup6\n        /* \"#utility.yul\":31077:31166   */\n      tag_665\n      jump\t// in\n    tag_983:\n        /* \"#utility.yul\":31070:31166   */\n      swap4\n      pop\n        /* \"#utility.yul\":31175:31240   */\n      tag_984\n        /* \"#utility.yul\":31233:31239   */\n      dup2\n        /* \"#utility.yul\":31228:31231   */\n      dup6\n        /* \"#utility.yul\":31221:31225   */\n      0x20\n        /* \"#utility.yul\":31214:31219   */\n      dup7\n        /* \"#utility.yul\":31210:31226   */\n      add\n        /* \"#utility.yul\":31175:31240   */\n      tag_622\n      jump\t// in\n    tag_984:\n        /* \"#utility.yul\":31265:31271   */\n      dup1\n        /* \"#utility.yul\":31260:31263   */\n      dup5\n        /* \"#utility.yul\":31256:31272   */\n      add\n        /* \"#utility.yul\":31249:31272   */\n      swap2\n      pop\n        /* \"#utility.yul\":30998:31278   */\n      pop\n        /* \"#utility.yul\":30888:31278   */\n      swap3\n      swap2\n      pop\n      pop\n      jump\t// out\n        /* \"#utility.yul\":31284:31559   */\n    tag_109:\n        /* \"#utility.yul\":31416:31419   */\n      0x00\n        /* \"#utility.yul\":31438:31533   */\n      tag_986\n        /* \"#utility.yul\":31529:31532   */\n      dup3\n        /* \"#utility.yul\":31520:31526   */\n      dup5\n        /* \"#utility.yul\":31438:31533   */\n      tag_666\n      jump\t// in\n    tag_986:\n        /* \"#utility.yul\":31431:31533   */\n      swap2\n      pop\n        /* \"#utility.yul\":31550:31553   */\n      dup2\n        /* \"#utility.yul\":31543:31553   */\n      swap1\n      pop\n        /* \"#utility.yul\":31284:31559   */\n      swap3\n      swap2\n      pop\n      pop\n      jump\t// out\n        /* \"#utility.yul\":31565:31745   */\n    tag_667:\n        /* \"#utility.yul\":31613:31690   */\n      0x4e487b7100000000000000000000000000000000000000000000000000000000\n        /* \"#utility.yul\":31610:31611   */\n      0x00\n        /* \"#utility.yul\":31603:31691   */\n      mstore\n        /* \"#utility.yul\":31710:31714   */\n      0x22\n        /* \"#utility.yul\":31707:31708   */\n      0x04\n        /* \"#utility.yul\":31700:31715   */\n      mstore\n        /* \"#utility.yul\":31734:31738   */\n      0x24\n        /* \"#utility.yul\":31731:31732   */\n      0x00\n        /* \"#utility.yul\":31724:31739   */\n      revert\n        /* \"#utility.yul\":31751:32071   */\n    tag_173:\n        /* \"#utility.yul\":31795:31801   */\n      0x00\n        /* \"#utility.yul\":31832:31833   */\n      0x02\n        /* \"#utility.yul\":31826:31830   */\n      dup3\n        /* \"#utility.yul\":31822:31834   */\n      div\n        /* \"#utility.yul\":31812:31834   */\n      swap1\n      pop\n        /* \"#utility.yul\":31879:31880   */\n      0x01\n        /* \"#utility.yul\":31873:31877   */\n      dup3\n        /* \"#utility.yul\":31869:31881   */\n      and\n        /* \"#utility.yul\":31900:31918   */\n      dup1\n        /* \"#utility.yul\":31890:31971   */\n      tag_989\n      jumpi\n        /* \"#utility.yul\":31956:31960   */\n      0x7f\n        /* \"#utility.yul\":31948:31954   */\n      dup3\n        /* \"#utility.yul\":31944:31961   */\n      and\n        /* \"#utility.yul\":31934:31961   */\n      swap2\n      pop\n        /* \"#utility.yul\":31890:31971   */\n    tag_989:\n        /* \"#utility.yul\":32018:32020   */\n      0x20\n        /* \"#utility.yul\":32010:32016   */\n      dup3\n        /* \"#utility.yul\":32007:32021   */\n      lt\n        /* \"#utility.yul\":31987:32005   */\n      dup2\n        /* \"#utility.yul\":31984:32022   */\n      sub\n        /* \"#utility.yul\":31981:32065   */\n      tag_990\n      jumpi\n        /* \"#utility.yul\":32037:32055   */\n      tag_991\n      tag_667\n      jump\t// in\n    tag_991:\n        /* \"#utility.yul\":31981:32065   */\n    tag_990:\n        /* \"#utility.yul\":31802:32071   */\n      pop\n        /* \"#utility.yul\":31751:32071   */\n      swap2\n      swap1\n      pop\n      jump\t// out\n        /* \"#utility.yul\":32077:32218   */\n    tag_668:\n        /* \"#utility.yul\":32126:32130   */\n      0x00\n        /* \"#utility.yul\":32149:32152   */\n      dup2\n        /* \"#utility.yul\":32141:32152   */\n      swap1\n      pop\n        /* \"#utility.yul\":32172:32175   */\n      dup2\n        /* \"#utility.yul\":32169:32170   */\n      0x00\n        /* \"#utility.yul\":32162:32176   */\n      mstore\n        /* \"#utility.yul\":32206:32210   */\n      0x20\n        /* \"#utility.yul\":32203:32204   */\n      0x00\n        /* \"#utility.yul\":32193:32211   */\n      keccak256\n        /* \"#utility.yul\":32185:32211   */\n      swap1\n      pop\n        /* \"#utility.yul\":32077:32218   */\n      swap2\n      swap1\n      pop\n      jump\t// out\n        /* \"#utility.yul\":32248:33122   */\n    tag_669:\n        /* \"#utility.yul\":32351:32354   */\n      0x00\n        /* \"#utility.yul\":32388:32393   */\n      dup2\n        /* \"#utility.yul\":32382:32394   */\n      sload\n        /* \"#utility.yul\":32417:32453   */\n      tag_994\n        /* \"#utility.yul\":32443:32452   */\n      dup2\n        /* \"#utility.yul\":32417:32453   */\n      tag_173\n      jump\t// in\n    tag_994:\n        /* \"#utility.yul\":32469:32558   */\n      tag_995\n        /* \"#utility.yul\":32551:32557   */\n      dup2\n        /* \"#utility.yul\":32546:32549   */\n      dup7\n        /* \"#utility.yul\":32469:32558   */\n      tag_665\n      jump\t// in\n    tag_995:\n        /* \"#utility.yul\":32462:32558   */\n      swap5\n      pop\n        /* \"#utility.yul\":32589:32590   */\n      0x01\n        /* \"#utility.yul\":32578:32587   */\n      dup3\n        /* \"#utility.yul\":32574:32591   */\n      and\n        /* \"#utility.yul\":32605:32606   */\n      0x00\n        /* \"#utility.yul\":32600:32766   */\n      dup2\n      eq\n      tag_997\n      jumpi\n        /* \"#utility.yul\":32780:32781   */\n      0x01\n        /* \"#utility.yul\":32775:33116   */\n      dup2\n      eq\n      tag_998\n      jumpi\n        /* \"#utility.yul\":32567:33116   */\n      jump(tag_996)\n        /* \"#utility.yul\":32600:32766   */\n    tag_997:\n        /* \"#utility.yul\":32684:32688   */\n      0xff\n        /* \"#utility.yul\":32680:32689   */\n      not\n        /* \"#utility.yul\":32669:32678   */\n      dup4\n        /* \"#utility.yul\":32665:32690   */\n      and\n        /* \"#utility.yul\":32660:32663   */\n      dup7\n        /* \"#utility.yul\":32653:32691   */\n      mstore\n        /* \"#utility.yul\":32746:32752   */\n      dup2\n        /* \"#utility.yul\":32739:32753   */\n      iszero\n        /* \"#utility.yul\":32732:32754   */\n      iszero\n        /* \"#utility.yul\":32724:32730   */\n      dup3\n        /* \"#utility.yul\":32720:32755   */\n      mul\n        /* \"#utility.yul\":32715:32718   */\n      dup7\n        /* \"#utility.yul\":32711:32756   */\n      add\n        /* \"#utility.yul\":32704:32756   */\n      swap4\n      pop\n        /* \"#utility.yul\":32600:32766   */\n      jump(tag_996)\n        /* \"#utility.yul\":32775:33116   */\n    tag_998:\n        /* \"#utility.yul\":32842:32880   */\n      tag_999\n        /* \"#utility.yul\":32874:32879   */\n      dup6\n        /* \"#utility.yul\":32842:32880   */\n      tag_668\n      jump\t// in\n    tag_999:\n        /* \"#utility.yul\":32902:32903   */\n      0x00\n        /* \"#utility.yul\":32916:33070   */\n    tag_1000:\n        /* \"#utility.yul\":32930:32936   */\n      dup4\n        /* \"#utility.yul\":32927:32928   */\n      dup2\n        /* \"#utility.yul\":32924:32937   */\n      lt\n        /* \"#utility.yul\":32916:33070   */\n      iszero\n      tag_1002\n      jumpi\n        /* \"#utility.yul\":33004:33011   */\n      dup2\n        /* \"#utility.yul\":32998:33012   */\n      sload\n        /* \"#utility.yul\":32994:32995   */\n      dup2\n        /* \"#utility.yul\":32989:32992   */\n      dup10\n        /* \"#utility.yul\":32985:32996   */\n      add\n        /* \"#utility.yul\":32978:33013   */\n      mstore\n        /* \"#utility.yul\":33054:33055   */\n      0x01\n        /* \"#utility.yul\":33045:33052   */\n      dup3\n        /* \"#utility.yul\":33041:33056   */\n      add\n        /* \"#utility.yul\":33030:33056   */\n      swap2\n      pop\n        /* \"#utility.yul\":32952:32956   */\n      0x20\n        /* \"#utility.yul\":32949:32950   */\n      dup2\n        /* \"#utility.yul\":32945:32957   */\n      add\n        /* \"#utility.yul\":32940:32957   */\n      swap1\n      pop\n        /* \"#utility.yul\":32916:33070   */\n      jump(tag_1000)\n    tag_1002:\n        /* \"#utility.yul\":33099:33105   */\n      dup4\n        /* \"#utility.yul\":33094:33097   */\n      dup9\n        /* \"#utility.yul\":33090:33106   */\n      add\n        /* \"#utility.yul\":33083:33106   */\n      swap6\n      pop\n        /* \"#utility.yul\":32782:33116   */\n      pop\n      pop\n        /* \"#utility.yul\":32567:33116   */\n    tag_996:\n      pop\n        /* \"#utility.yul\":32355:33122   */\n      pop\n      pop\n        /* \"#utility.yul\":32248:33122   */\n      swap3\n      swap2\n      pop\n      pop\n      jump\t// out\n        /* \"#utility.yul\":33128:33397   */\n    tag_111:\n        /* \"#utility.yul\":33257:33260   */\n      0x00\n        /* \"#utility.yul\":33279:33371   */\n      tag_1004\n        /* \"#utility.yul\":33367:33370   */\n      dup3\n        /* \"#utility.yul\":33358:33364   */\n      dup5\n        /* \"#utility.yul\":33279:33371   */\n      tag_669\n      jump\t// in\n    tag_1004:\n        /* \"#utility.yul\":33272:33371   */\n      swap2\n      pop\n        /* \"#utility.yul\":33388:33391   */\n      dup2\n        /* \"#utility.yul\":33381:33391   */\n      swap1\n      pop\n        /* \"#utility.yul\":33128:33397   */\n      swap3\n      swap2\n      pop\n      pop\n      jump\t// out\n        /* \"#utility.yul\":33403:33496   */\n    tag_670:\n        /* \"#utility.yul\":33440:33446   */\n      0x00\n        /* \"#utility.yul\":33487:33489   */\n      0x20\n        /* \"#utility.yul\":33482:33484   */\n      0x1f\n        /* \"#utility.yul\":33475:33480   */\n      dup4\n        /* \"#utility.yul\":33471:33485   */\n      add\n        /* \"#utility.yul\":33467:33490   */\n      div\n        /* \"#utility.yul\":33457:33490   */\n      swap1\n      pop\n        /* \"#utility.yul\":33403:33496   */\n      swap2\n      swap1\n      pop\n      jump\t// out\n        /* \"#utility.yul\":33502:33609   */\n    tag_671:\n        /* \"#utility.yul\":33546:33554   */\n      0x00\n        /* \"#utility.yul\":33596:33601   */\n      dup3\n        /* \"#utility.yul\":33590:33594   */\n      dup3\n        /* \"#utility.yul\":33586:33602   */\n      shl\n        /* \"#utility.yul\":33565:33602   */\n      swap1\n      pop\n        /* \"#utility.yul\":33502:33609   */\n      swap3\n      swap2\n      pop\n      pop\n      jump\t// out\n        /* \"#utility.yul\":33615:34008   */\n    tag_672:\n        /* \"#utility.yul\":33684:33690   */\n      0x00\n        /* \"#utility.yul\":33734:33735   */\n      0x08\n        /* \"#utility.yul\":33722:33732   */\n      dup4\n        /* \"#utility.yul\":33718:33736   */\n      mul\n        /* \"#utility.yul\":33757:33854   */\n      tag_1008\n        /* \"#utility.yul\":33787:33853   */\n      0xffffffffffffffffffffffffffffffffffffffffffffffffffffffffffffffff\n        /* \"#utility.yul\":33776:33785   */\n      dup3\n        /* \"#utility.yul\":33757:33854   */\n      tag_671\n      jump\t// in\n    tag_1008:\n        /* \"#utility.yul\":33875:33914   */\n      tag_1009\n        /* \"#utility.yul\":33905:33913   */\n      dup7\n        /* \"#utility.yul\":33894:33903   */\n      dup4\n        /* \"#utility.yul\":33875:33914   */\n      tag_671\n      jump\t// in\n    tag_1009:\n        /* \"#utility.yul\":33863:33914   */\n      swap6\n      pop\n        /* \"#utility.yul\":33947:33951   */\n      dup1\n        /* \"#utility.yul\":33943:33952   */\n      not\n        /* \"#utility.yul\":33936:33941   */\n      dup5\n        /* \"#utility.yul\":33932:33953   */\n      and\n        /* \"#utility.yul\":33923:33953   */\n      swap4\n      pop\n        /* \"#utility.yul\":33996:34000   */\n      dup1\n        /* \"#utility.yul\":33986:33994   */\n      dup7\n        /* \"#utility.yul\":33982:34001   */\n      and\n        /* \"#utility.yul\":33975:33980   */\n      dup5\n        /* \"#utility.yul\":33972:34002   */\n      or\n        /* \"#utility.yul\":33962:34002   */\n      swap3\n      pop\n        /* \"#utility.yul\":33691:34008   */\n      pop\n      pop\n        /* \"#utility.yul\":33615:34008   */\n      swap4\n      swap3\n      pop\n      pop\n      pop\n      jump\t// out\n        /* \"#utility.yul\":34014:34074   */\n    tag_673:\n        /* \"#utility.yul\":34042:34045   */\n      0x00\n        /* \"#utility.yul\":34063:34068   */\n      dup2\n        /* \"#utility.yul\":34056:34068   */\n      swap1\n      pop\n        /* \"#utility.yul\":34014:34074   */\n      swap2\n      swap1\n      pop\n      jump\t// out\n        /* \"#utility.yul\":34080:34222   */\n    tag_674:\n        /* \"#utility.yul\":34130:34139   */\n      0x00\n        /* \"#utility.yul\":34163:34216   */\n      tag_1012\n        /* \"#utility.yul\":34181:34215   */\n      tag_1013\n        /* \"#utility.yul\":34190:34214   */\n      tag_1014\n        /* \"#utility.yul\":34208:34213   */\n      dup5\n        /* \"#utility.yul\":34190:34214   */\n      tag_624\n      jump\t// in\n    tag_1014:\n        /* \"#utility.yul\":34181:34215   */\n      tag_673\n      jump\t// in\n    tag_1013:\n        /* \"#utility.yul\":34163:34216   */\n      tag_624\n      jump\t// in\n    tag_1012:\n        /* \"#utility.yul\":34150:34216   */\n      swap1\n      pop\n        /* \"#utility.yul\":34080:34222   */\n      swap2\n      swap1\n      pop\n      jump\t// out\n        /* \"#utility.yul\":34228:34303   */\n    tag_675:\n        /* \"#utility.yul\":34271:34274   */\n      0x00\n        /* \"#utility.yul\":34292:34297   */\n      dup2\n        /* \"#utility.yul\":34285:34297   */\n      swap1\n      pop\n        /* \"#utility.yul\":34228:34303   */\n      swap2\n      swap1\n      pop\n      jump\t// out\n        /* \"#utility.yul\":34309:34578   */\n    tag_676:\n        /* \"#utility.yul\":34419:34458   */\n      tag_1017\n        /* \"#utility.yul\":34450:34457   */\n      dup4\n        /* \"#utility.yul\":34419:34458   */\n      tag_674\n      jump\t// in\n    tag_1017:\n        /* \"#utility.yul\":34480:34571   */\n      tag_1018\n        /* \"#utility.yul\":34529:34570   */\n      tag_1019\n        /* \"#utility.yul\":34553:34569   */\n      dup3\n        /* \"#utility.yul\":34529:34570   */\n      tag_675\n      jump\t// in\n    tag_1019:\n        /* \"#utility.yul\":34521:34527   */\n      dup5\n        /* \"#utility.yul\":34514:34518   */\n      dup5\n        /* \"#utility.yul\":34508:34519   */\n      sload\n        /* \"#utility.yul\":34480:34571   */\n      tag_672\n      jump\t// in\n    tag_1018:\n        /* \"#utility.yul\":34474:34478   */\n      dup3\n        /* \"#utility.yul\":34467:34572   */\n      sstore\n        /* \"#utility.yul\":34385:34578   */\n      pop\n        /* \"#utility.yul\":34309:34578   */\n      pop\n      pop\n      pop\n      jump\t// out\n        /* \"#utility.yul\":34584:34657   */\n    tag_677:\n        /* \"#utility.yul\":34629:34632   */\n      0x00\n        /* \"#utility.yul\":34584:34657   */\n      swap1\n      jump\t// out\n        /* \"#utility.yul\":34663:34852   */\n    tag_678:\n        /* \"#utility.yul\":34740:34772   */\n      tag_1022\n      tag_677\n      jump\t// in\n    tag_1022:\n        /* \"#utility.yul\":34781:34846   */\n      tag_1023\n        /* \"#utility.yul\":34839:34845   */\n      dup2\n        /* \"#utility.yul\":34831:34837   */\n      dup5\n        /* \"#utility.yul\":34825:34829   */\n      dup5\n        /* \"#utility.yul\":34781:34846   */\n      tag_676\n      jump\t// in\n    tag_1023:\n        /* \"#utility.yul\":34716:34852   */\n      pop\n        /* \"#utility.yul\":34663:34852   */\n      pop\n      pop\n      jump\t// out\n        /* \"#utility.yul\":34858:35044   */\n    tag_679:\n        /* \"#utility.yul\":34918:35038   */\n    tag_1025:\n        /* \"#utility.yul\":34935:34938   */\n      dup2\n        /* \"#utility.yul\":34928:34933   */\n      dup2\n        /* \"#utility.yul\":34925:34939   */\n      lt\n        /* \"#utility.yul\":34918:35038   */\n      iszero\n      tag_1027\n      jumpi\n        /* \"#utility.yul\":34989:35028   */\n      tag_1028\n        /* \"#utility.yul\":35026:35027   */\n      0x00\n        /* \"#utility.yul\":35019:35024   */\n      dup3\n        /* \"#utility.yul\":34989:35028   */\n      tag_678\n      jump\t// in\n    tag_1028:\n        /* \"#utility.yul\":34962:34963   */\n      0x01\n        /* \"#utility.yul\":34955:34960   */\n      dup2\n        /* \"#utility.yul\":34951:34964   */\n      add\n        /* \"#utility.yul\":34942:34964   */\n      swap1\n      pop\n        /* \"#utility.yul\":34918:35038   */\n      jump(tag_1025)\n    tag_1027:\n        /* \"#utility.yul\":34858:35044   */\n      pop\n      pop\n      jump\t// out\n        /* \"#utility.yul\":35050:35593   */\n    tag_680:\n        /* \"#utility.yul\":35151:35153   */\n      0x1f\n        /* \"#utility.yul\":35146:35149   */\n      dup3\n        /* \"#utility.yul\":35143:35154   */\n      gt\n        /* \"#utility.yul\":35140:35586   */\n      iszero\n      tag_1030\n      jumpi\n        /* \"#utility.yul\":35185:35223   */\n      tag_1031\n        /* \"#utility.yul\":35217:35222   */\n      dup2\n        /* \"#utility.yul\":35185:35223   */\n      tag_668\n      jump\t// in\n    tag_1031:\n        /* \"#utility.yul\":35269:35298   */\n      tag_1032\n        /* \"#utility.yul\":35287:35297   */\n      dup5\n        /* \"#utility.yul\":35269:35298   */\n      tag_670\n      jump\t// in\n    tag_1032:\n        /* \"#utility.yul\":35259:35267   */\n      dup2\n        /* \"#utility.yul\":35255:35299   */\n      add\n        /* \"#utility.yul\":35452:35454   */\n      0x20\n        /* \"#utility.yul\":35440:35450   */\n      dup6\n        /* \"#utility.yul\":35437:35455   */\n      lt\n        /* \"#utility.yul\":35434:35483   */\n      iszero\n      tag_1033\n      jumpi\n        /* \"#utility.yul\":35473:35481   */\n      dup2\n        /* \"#utility.yul\":35458:35481   */\n      swap1\n      pop\n        /* \"#utility.yul\":35434:35483   */\n    tag_1033:\n        /* \"#utility.yul\":35496:35576   */\n      tag_1034\n        /* \"#utility.yul\":35552:35574   */\n      tag_1035\n        /* \"#utility.yul\":35570:35573   */\n      dup6\n        /* \"#utility.yul\":35552:35574   */\n      tag_670\n      jump\t// in\n    tag_1035:\n        /* \"#utility.yul\":35542:35550   */\n      dup4\n        /* \"#utility.yul\":35538:35575   */\n      add\n        /* \"#utility.yul\":35525:35536   */\n      dup3\n        /* \"#utility.yul\":35496:35576   */\n      tag_679\n      jump\t// in\n    tag_1034:\n        /* \"#utility.yul\":35155:35586   */\n      pop\n      pop\n        /* \"#utility.yul\":35140:35586   */\n    tag_1030:\n        /* \"#utility.yul\":35050:35593   */\n      pop\n      pop\n      pop\n      jump\t// out\n        /* \"#utility.yul\":35599:35716   */\n    tag_681:\n        /* \"#utility.yul\":35653:35661   */\n      0x00\n        /* \"#utility.yul\":35703:35708   */\n      dup3\n        /* \"#utility.yul\":35697:35701   */\n      dup3\n        /* \"#utility.yul\":35693:35709   */\n      shr\n        /* \"#utility.yul\":35672:35709   */\n      swap1\n      pop\n        /* \"#utility.yul\":35599:35716   */\n      swap3\n      swap2\n      pop\n      pop\n      jump\t// out\n        /* \"#utility.yul\":35722:35891   */\n    tag_682:\n        /* \"#utility.yul\":35766:35772   */\n      0x00\n        /* \"#utility.yul\":35799:35850   */\n      tag_1038\n        /* \"#utility.yul\":35847:35848   */\n      0x00\n        /* \"#utility.yul\":35843:35849   */\n      not\n        /* \"#utility.yul\":35835:35840   */\n      dup5\n        /* \"#utility.yul\":35832:35833   */\n      0x08\n        /* \"#utility.yul\":35828:35841   */\n      mul\n        /* \"#utility.yul\":35799:35850   */\n      tag_681\n      jump\t// in\n    tag_1038:\n        /* \"#utility.yul\":35795:35851   */\n      not\n        /* \"#utility.yul\":35880:35884   */\n      dup1\n        /* \"#utility.yul\":35874:35878   */\n      dup4\n        /* \"#utility.yul\":35870:35885   */\n      and\n        /* \"#utility.yul\":35860:35885   */\n      swap2\n      pop\n        /* \"#utility.yul\":35773:35891   */\n      pop\n        /* \"#utility.yul\":35722:35891   */\n      swap3\n      swap2\n      pop\n      pop\n      jump\t// out\n        /* \"#utility.yul\":35896:36191   */\n    tag_683:\n        /* \"#utility.yul\":35972:35976   */\n      0x00\n        /* \"#utility.yul\":36118:36147   */\n      tag_1040\n        /* \"#utility.yul\":36143:36146   */\n      dup4\n        /* \"#utility.yul\":36137:36141   */\n      dup4\n        /* \"#utility.yul\":36118:36147   */\n      tag_682\n      jump\t// in\n    tag_1040:\n        /* \"#utility.yul\":36110:36147   */\n      swap2\n      pop\n        /* \"#utility.yul\":36180:36183   */\n      dup3\n        /* \"#utility.yul\":36177:36178   */\n      0x02\n        /* \"#utility.yul\":36173:36184   */\n      mul\n        /* \"#utility.yul\":36167:36171   */\n      dup3\n        /* \"#utility.yul\":36164:36185   */\n      or\n        /* \"#utility.yul\":36156:36185   */\n      swap1\n      pop\n        /* \"#utility.yul\":35896:36191   */\n      swap3\n      swap2\n      pop\n      pop\n      jump\t// out\n        /* \"#utility.yul\":36196:37591   */\n    tag_119:\n        /* \"#utility.yul\":36313:36350   */\n      tag_1042\n        /* \"#utility.yul\":36346:36349   */\n      dup3\n        /* \"#utility.yul\":36313:36350   */\n      tag_620\n      jump\t// in\n    tag_1042:\n        /* \"#utility.yul\":36415:36433   */\n      0xffffffffffffffff\n        /* \"#utility.yul\":36407:36413   */\n      dup2\n        /* \"#utility.yul\":36404:36434   */\n      gt\n        /* \"#utility.yul\":36401:36457   */\n      iszero\n      tag_1043\n      jumpi\n        /* \"#utility.yul\":36437:36455   */\n      tag_1044\n      tag_550\n      jump\t// in\n    tag_1044:\n        /* \"#utility.yul\":36401:36457   */\n    tag_1043:\n        /* \"#utility.yul\":36481:36519   */\n      tag_1045\n        /* \"#utility.yul\":36513:36517   */\n      dup3\n        /* \"#utility.yul\":36507:36518   */\n      sload\n        /* \"#utility.yul\":36481:36519   */\n      tag_173\n      jump\t// in\n    tag_1045:\n        /* \"#utility.yul\":36566:36633   */\n      tag_1046\n        /* \"#utility.yul\":36626:36632   */\n      dup3\n        /* \"#utility.yul\":36618:36624   */\n      dup3\n        /* \"#utility.yul\":36612:36616   */\n      dup6\n        /* \"#utility.yul\":36566:36633   */\n      tag_680\n      jump\t// in\n    tag_1046:\n        /* \"#utility.yul\":36660:36661   */\n      0x00\n        /* \"#utility.yul\":36684:36688   */\n      0x20\n        /* \"#utility.yul\":36671:36688   */\n      swap1\n      pop\n        /* \"#utility.yul\":36716:36718   */\n      0x1f\n        /* \"#utility.yul\":36708:36714   */\n      dup4\n        /* \"#utility.yul\":36705:36719   */\n      gt\n        /* \"#utility.yul\":36733:36734   */\n      0x01\n        /* \"#utility.yul\":36728:37346   */\n      dup2\n      eq\n      tag_1048\n      jumpi\n        /* \"#utility.yul\":37390:37391   */\n      0x00\n        /* \"#utility.yul\":37407:37413   */\n      dup5\n        /* \"#utility.yul\":37404:37481   */\n      iszero\n      tag_1049\n      jumpi\n        /* \"#utility.yul\":37456:37465   */\n      dup3\n        /* \"#utility.yul\":37451:37454   */\n      dup8\n        /* \"#utility.yul\":37447:37466   */\n      add\n        /* \"#utility.yul\":37441:37467   */\n      mload\n        /* \"#utility.yul\":37432:37467   */\n      swap1\n      pop\n        /* \"#utility.yul\":37404:37481   */\n    tag_1049:\n        /* \"#utility.yul\":37507:37574   */\n      tag_1050\n        /* \"#utility.yul\":37567:37573   */\n      dup6\n        /* \"#utility.yul\":37560:37565   */\n      dup3\n        /* \"#utility.yul\":37507:37574   */\n      tag_683\n      jump\t// in\n    tag_1050:\n        /* \"#utility.yul\":37501:37505   */\n      dup7\n        /* \"#utility.yul\":37494:37575   */\n      sstore\n        /* \"#utility.yul\":37363:37585   */\n      pop\n        /* \"#utility.yul\":36698:37585   */\n      jump(tag_1047)\n        /* \"#utility.yul\":36728:37346   */\n    tag_1048:\n        /* \"#utility.yul\":36780:36784   */\n      0x1f\n        /* \"#utility.yul\":36776:36785   */\n      not\n        /* \"#utility.yul\":36768:36774   */\n      dup5\n        /* \"#utility.yul\":36764:36786   */\n      and\n        /* \"#utility.yul\":36814:36851   */\n      tag_1051\n        /* \"#utility.yul\":36846:36850   */\n      dup7\n        /* \"#utility.yul\":36814:36851   */\n      tag_668\n      jump\t// in\n    tag_1051:\n        /* \"#utility.yul\":36873:36874   */\n      0x00\n        /* \"#utility.yul\":36887:37095   */\n    tag_1052:\n        /* \"#utility.yul\":36901:36908   */\n      dup3\n        /* \"#utility.yul\":36898:36899   */\n      dup2\n        /* \"#utility.yul\":36895:36909   */\n      lt\n        /* \"#utility.yul\":36887:37095   */\n      iszero\n      tag_1054\n      jumpi\n        /* \"#utility.yul\":36980:36989   */\n      dup5\n        /* \"#utility.yul\":36975:36978   */\n      dup10\n        /* \"#utility.yul\":36971:36990   */\n      add\n        /* \"#utility.yul\":36965:36991   */\n      mload\n        /* \"#utility.yul\":36957:36963   */\n      dup3\n        /* \"#utility.yul\":36950:36992   */\n      sstore\n        /* \"#utility.yul\":37031:37032   */\n      0x01\n        /* \"#utility.yul\":37023:37029   */\n      dup3\n        /* \"#utility.yul\":37019:37033   */\n      add\n        /* \"#utility.yul\":37009:37033   */\n      swap2\n      pop\n        /* \"#utility.yul\":37078:37080   */\n      0x20\n        /* \"#utility.yul\":37067:37076   */\n      dup6\n        /* \"#utility.yul\":37063:37081   */\n      add\n        /* \"#utility.yul\":37050:37081   */\n      swap5\n      pop\n        /* \"#utility.yul\":36924:36928   */\n      0x20\n        /* \"#utility.yul\":36921:36922   */\n      dup2\n        /* \"#utility.yul\":36917:36929   */\n      add\n        /* \"#utility.yul\":36912:36929   */\n      swap1\n      pop\n        /* \"#utility.yul\":36887:37095   */\n      jump(tag_1052)\n    tag_1054:\n        /* \"#utility.yul\":37123:37129   */\n      dup7\n        /* \"#utility.yul\":37114:37121   */\n      dup4\n        /* \"#utility.yul\":37111:37130   */\n      lt\n        /* \"#utility.yul\":37108:37287   */\n      iszero\n      tag_1055\n      jumpi\n        /* \"#utility.yul\":37181:37190   */\n      dup5\n        /* \"#utility.yul\":37176:37179   */\n      dup10\n        /* \"#utility.yul\":37172:37191   */\n      add\n        /* \"#utility.yul\":37166:37192   */\n      mload\n        /* \"#utility.yul\":37224:37272   */\n      tag_1056\n        /* \"#utility.yul\":37266:37270   */\n      0x1f\n        /* \"#utility.yul\":37258:37264   */\n      dup10\n        /* \"#utility.yul\":37254:37271   */\n      and\n        /* \"#utility.yul\":37243:37252   */\n      dup3\n        /* \"#utility.yul\":37224:37272   */\n      tag_682\n      jump\t// in\n    tag_1056:\n        /* \"#utility.yul\":37216:37222   */\n      dup4\n        /* \"#utility.yul\":37209:37273   */\n      sstore\n        /* \"#utility.yul\":37131:37287   */\n      pop\n        /* \"#utility.yul\":37108:37287   */\n    tag_1055:\n        /* \"#utility.yul\":37333:37334   */\n      0x01\n        /* \"#utility.yul\":37329:37330   */\n      0x02\n        /* \"#utility.yul\":37321:37327   */\n      dup9\n        /* \"#utility.yul\":37317:37331   */\n      mul\n        /* \"#utility.yul\":37313:37335   */\n      add\n        /* \"#utility.yul\":37307:37311   */\n      dup9\n        /* \"#utility.yul\":37300:37336   */\n      sstore\n        /* \"#utility.yul\":36735:37346   */\n      pop\n      pop\n      pop\n        /* \"#utility.yul\":36698:37585   */\n    tag_1047:\n      pop\n        /* \"#utility.yul\":36288:37591   */\n      pop\n      pop\n      pop\n        /* \"#utility.yul\":36196:37591   */\n      pop\n      pop\n      jump\t// out\n        /* \"#utility.yul\":37597:37777   */\n    tag_684:\n        /* \"#utility.yul\":37645:37722   */\n      0x4e487b7100000000000000000000000000000000000000000000000000000000\n        /* \"#utility.yul\":37642:37643   */\n      0x00\n        /* \"#utility.yul\":37635:37723   */\n      mstore\n        /* \"#utility.yul\":37742:37746   */\n      0x11\n        /* \"#utility.yul\":37739:37740   */\n      0x04\n        /* \"#utility.yul\":37732:37747   */\n      mstore\n        /* \"#utility.yul\":37766:37770   */\n      0x24\n        /* \"#utility.yul\":37763:37764   */\n      0x00\n        /* \"#utility.yul\":37756:37771   */\n      revert\n        /* \"#utility.yul\":37783:38193   */\n    tag_127:\n        /* \"#utility.yul\":37823:37830   */\n      0x00\n        /* \"#utility.yul\":37846:37866   */\n      tag_1059\n        /* \"#utility.yul\":37864:37865   */\n      dup3\n        /* \"#utility.yul\":37846:37866   */\n      tag_624\n      jump\t// in\n    tag_1059:\n        /* \"#utility.yul\":37841:37866   */\n      swap2\n      pop\n        /* \"#utility.yul\":37880:37900   */\n      tag_1060\n        /* \"#utility.yul\":37898:37899   */\n      dup4\n        /* \"#utility.yul\":37880:37900   */\n      tag_624\n      jump\t// in\n    tag_1060:\n        /* \"#utility.yul\":37875:37900   */\n      swap3\n      pop\n        /* \"#utility.yul\":37935:37936   */\n      dup3\n        /* \"#utility.yul\":37932:37933   */\n      dup3\n        /* \"#utility.yul\":37928:37937   */\n      mul\n        /* \"#utility.yul\":37957:37987   */\n      tag_1061\n        /* \"#utility.yul\":37975:37986   */\n      dup2\n        /* \"#utility.yul\":37957:37987   */\n      tag_624\n      jump\t// in\n    tag_1061:\n        /* \"#utility.yul\":37946:37987   */\n      swap2\n      pop\n        /* \"#utility.yul\":38136:38137   */\n      dup3\n        /* \"#utility.yul\":38127:38134   */\n      dup3\n        /* \"#utility.yul\":38123:38138   */\n      div\n        /* \"#utility.yul\":38120:38121   */\n      dup5\n        /* \"#utility.yul\":38117:38139   */\n      eq\n        /* \"#utility.yul\":38097:38098   */\n      dup4\n        /* \"#utility.yul\":38090:38099   */\n      iszero\n        /* \"#utility.yul\":38070:38153   */\n      or\n        /* \"#utility.yul\":38047:38186   */\n      tag_1062\n      jumpi\n        /* \"#utility.yul\":38166:38184   */\n      tag_1063\n      tag_684\n      jump\t// in\n    tag_1063:\n        /* \"#utility.yul\":38047:38186   */\n    tag_1062:\n        /* \"#utility.yul\":37831:38193   */\n      pop\n        /* \"#utility.yul\":37783:38193   */\n      swap3\n      swap2\n      pop\n      pop\n      jump\t// out\n        /* \"#utility.yul\":38199:38531   */\n    tag_129:\n        /* \"#utility.yul\":38320:38324   */\n      0x00\n        /* \"#utility.yul\":38358:38360   */\n      0x40\n        /* \"#utility.yul\":38347:38356   */\n      dup3\n        /* \"#utility.yul\":38343:38361   */\n      add\n        /* \"#utility.yul\":38335:38361   */\n      swap1\n      pop\n        /* \"#utility.yul\":38371:38442   */\n      tag_1065\n        /* \"#utility.yul\":38439:38440   */\n      0x00\n        /* \"#utility.yul\":38428:38437   */\n      dup4\n        /* \"#utility.yul\":38424:38441   */\n      add\n        /* \"#utility.yul\":38415:38421   */\n      dup6\n        /* \"#utility.yul\":38371:38442   */\n      tag_648\n      jump\t// in\n    tag_1065:\n        /* \"#utility.yul\":38452:38524   */\n      tag_1066\n        /* \"#utility.yul\":38520:38522   */\n      0x20\n        /* \"#utility.yul\":38509:38518   */\n      dup4\n        /* \"#utility.yul\":38505:38523   */\n      add\n        /* \"#utility.yul\":38496:38502   */\n      dup5\n        /* \"#utility.yul\":38452:38524   */\n      tag_637\n      jump\t// in\n    tag_1066:\n        /* \"#utility.yul\":38199:38531   */\n      swap4\n      swap3\n      pop\n      pop\n      pop\n      jump\t// out\n        /* \"#utility.yul\":38537:38674   */\n    tag_685:\n        /* \"#utility.yul\":38591:38596   */\n      0x00\n        /* \"#utility.yul\":38622:38628   */\n      dup2\n        /* \"#utility.yul\":38616:38629   */\n      mload\n        /* \"#utility.yul\":38607:38629   */\n      swap1\n      pop\n        /* \"#utility.yul\":38638:38668   */\n      tag_1068\n        /* \"#utility.yul\":38662:38667   */\n      dup2\n        /* \"#utility.yul\":38638:38668   */\n      tag_649\n      jump\t// in\n    tag_1068:\n        /* \"#utility.yul\":38537:38674   */\n      swap3\n      swap2\n      pop\n      pop\n      jump\t// out\n        /* \"#utility.yul\":38680:39025   */\n    tag_133:\n        /* \"#utility.yul\":38747:38753   */\n      0x00\n        /* \"#utility.yul\":38796:38798   */\n      0x20\n        /* \"#utility.yul\":38784:38793   */\n      dup3\n        /* \"#utility.yul\":38775:38782   */\n      dup5\n        /* \"#utility.yul\":38771:38794   */\n      sub\n        /* \"#utility.yul\":38767:38799   */\n      slt\n        /* \"#utility.yul\":38764:38883   */\n      iszero\n      tag_1070\n      jumpi\n        /* \"#utility.yul\":38802:38881   */\n      tag_1071\n      tag_609\n      jump\t// in\n    tag_1071:\n        /* \"#utility.yul\":38764:38883   */\n    tag_1070:\n        /* \"#utility.yul\":38922:38923   */\n      0x00\n        /* \"#utility.yul\":38947:39008   */\n      tag_1072\n        /* \"#utility.yul\":39000:39007   */\n      dup5\n        /* \"#utility.yul\":38991:38997   */\n      dup3\n        /* \"#utility.yul\":38980:38989   */\n      dup6\n        /* \"#utility.yul\":38976:38998   */\n      add\n        /* \"#utility.yul\":38947:39008   */\n      tag_685\n      jump\t// in\n    tag_1072:\n        /* \"#utility.yul\":38937:39008   */\n      swap2\n      pop\n        /* \"#utility.yul\":38893:39018   */\n      pop\n        /* \"#utility.yul\":38680:39025   */\n      swap3\n      swap2\n      pop\n      pop\n      jump\t// out\n        /* \"#utility.yul\":39031:39173   */\n    tag_686:\n        /* \"#utility.yul\":39081:39090   */\n      0x00\n        /* \"#utility.yul\":39114:39167   */\n      tag_1074\n        /* \"#utility.yul\":39132:39166   */\n      tag_1075\n        /* \"#utility.yul\":39141:39165   */\n      tag_1076\n        /* \"#utility.yul\":39159:39164   */\n      dup5\n        /* \"#utility.yul\":39141:39165   */\n      tag_633\n      jump\t// in\n    tag_1076:\n        /* \"#utility.yul\":39132:39166   */\n      tag_673\n      jump\t// in\n    tag_1075:\n        /* \"#utility.yul\":39114:39167   */\n      tag_633\n      jump\t// in\n    tag_1074:\n        /* \"#utility.yul\":39101:39167   */\n      swap1\n      pop\n        /* \"#utility.yul\":39031:39173   */\n      swap2\n      swap1\n      pop\n      jump\t// out\n        /* \"#utility.yul\":39179:39305   */\n    tag_687:\n        /* \"#utility.yul\":39229:39238   */\n      0x00\n        /* \"#utility.yul\":39262:39299   */\n      tag_1078\n        /* \"#utility.yul\":39293:39298   */\n      dup3\n        /* \"#utility.yul\":39262:39299   */\n      tag_686\n      jump\t// in\n    tag_1078:\n        /* \"#utility.yul\":39249:39299   */\n      swap1\n      pop\n        /* \"#utility.yul\":39179:39305   */\n      swap2\n      swap1\n      pop\n      jump\t// out\n        /* \"#utility.yul\":39311:39445   */\n    tag_688:\n        /* \"#utility.yul\":39369:39378   */\n      0x00\n        /* \"#utility.yul\":39402:39439   */\n      tag_1080\n        /* \"#utility.yul\":39433:39438   */\n      dup3\n        /* \"#utility.yul\":39402:39439   */\n      tag_687\n      jump\t// in\n    tag_1080:\n        /* \"#utility.yul\":39389:39439   */\n      swap1\n      pop\n        /* \"#utility.yul\":39311:39445   */\n      swap2\n      swap1\n      pop\n      jump\t// out\n        /* \"#utility.yul\":39451:39598   */\n    tag_689:\n        /* \"#utility.yul\":39546:39591   */\n      tag_1082\n        /* \"#utility.yul\":39585:39590   */\n      dup2\n        /* \"#utility.yul\":39546:39591   */\n      tag_688\n      jump\t// in\n    tag_1082:\n        /* \"#utility.yul\":39541:39544   */\n      dup3\n        /* \"#utility.yul\":39534:39592   */\n      mstore\n        /* \"#utility.yul\":39451:39598   */\n      pop\n      pop\n      jump\t// out\n        /* \"#utility.yul\":39604:40062   */\n    tag_139:\n        /* \"#utility.yul\":39761:39765   */\n      0x00\n        /* \"#utility.yul\":39799:39801   */\n      0x60\n        /* \"#utility.yul\":39788:39797   */\n      dup3\n        /* \"#utility.yul\":39784:39802   */\n      add\n        /* \"#utility.yul\":39776:39802   */\n      swap1\n      pop\n        /* \"#utility.yul\":39812:39883   */\n      tag_1084\n        /* \"#utility.yul\":39880:39881   */\n      0x00\n        /* \"#utility.yul\":39869:39878   */\n      dup4\n        /* \"#utility.yul\":39865:39882   */\n      add\n        /* \"#utility.yul\":39856:39862   */\n      dup7\n        /* \"#utility.yul\":39812:39883   */\n      tag_648\n      jump\t// in\n    tag_1084:\n        /* \"#utility.yul\":39893:39973   */\n      tag_1085\n        /* \"#utility.yul\":39969:39971   */\n      0x20\n        /* \"#utility.yul\":39958:39967   */\n      dup4\n        /* \"#utility.yul\":39954:39972   */\n      add\n        /* \"#utility.yul\":39945:39951   */\n      dup6\n        /* \"#utility.yul\":39893:39973   */\n      tag_689\n      jump\t// in\n    tag_1085:\n        /* \"#utility.yul\":39983:40055   */\n      tag_1086\n        /* \"#utility.yul\":40051:40053   */\n      0x40\n        /* \"#utility.yul\":40040:40049   */\n      dup4\n        /* \"#utility.yul\":40036:40054   */\n      add\n        /* \"#utility.yul\":40027:40033   */\n      dup5\n        /* \"#utility.yul\":39983:40055   */\n      tag_637\n      jump\t// in\n    tag_1086:\n        /* \"#utility.yul\":39604:40062   */\n      swap5\n      swap4\n      pop\n      pop\n      pop\n      pop\n      jump\t// out\n        /* \"#utility.yul\":40068:40162   */\n    tag_690:\n        /* \"#utility.yul\":40101:40109   */\n      0x00\n        /* \"#utility.yul\":40149:40154   */\n      dup2\n        /* \"#utility.yul\":40145:40147   */\n      0x60\n        /* \"#utility.yul\":40141:40155   */\n      shl\n        /* \"#utility.yul\":40120:40155   */\n      swap1\n      pop\n        /* \"#utility.yul\":40068:40162   */\n      swap2\n      swap1\n      pop\n      jump\t// out\n        /* \"#utility.yul\":40168:40262   */\n    tag_691:\n        /* \"#utility.yul\":40207:40214   */\n      0x00\n        /* \"#utility.yul\":40236:40256   */\n      tag_1089\n        /* \"#utility.yul\":40250:40255   */\n      dup3\n        /* \"#utility.yul\":40236:40256   */\n      tag_690\n      jump\t// in\n    tag_1089:\n        /* \"#utility.yul\":40225:40256   */\n      swap1\n      pop\n        /* \"#utility.yul\":40168:40262   */\n      swap2\n      swap1\n      pop\n      jump\t// out\n        /* \"#utility.yul\":40268:40368   */\n    tag_692:\n        /* \"#utility.yul\":40307:40314   */\n      0x00\n        /* \"#utility.yul\":40336:40362   */\n      tag_1091\n        /* \"#utility.yul\":40356:40361   */\n      dup3\n        /* \"#utility.yul\":40336:40362   */\n      tag_691\n      jump\t// in\n    tag_1091:\n        /* \"#utility.yul\":40325:40362   */\n      swap1\n      pop\n        /* \"#utility.yul\":40268:40368   */\n      swap2\n      swap1\n      pop\n      jump\t// out\n        /* \"#utility.yul\":40374:40531   */\n    tag_693:\n        /* \"#utility.yul\":40479:40524   */\n      tag_1093\n        /* \"#utility.yul\":40499:40523   */\n      tag_1094\n        /* \"#utility.yul\":40517:40522   */\n      dup3\n        /* \"#utility.yul\":40499:40523   */\n      tag_645\n      jump\t// in\n    tag_1094:\n        /* \"#utility.yul\":40479:40524   */\n      tag_692\n      jump\t// in\n    tag_1093:\n        /* \"#utility.yul\":40474:40477   */\n      dup3\n        /* \"#utility.yul\":40467:40525   */\n      mstore\n        /* \"#utility.yul\":40374:40531   */\n      pop\n      pop\n      jump\t// out\n        /* \"#utility.yul\":40537:40793   */\n    tag_147:\n        /* \"#utility.yul\":40649:40652   */\n      0x00\n        /* \"#utility.yul\":40664:40739   */\n      tag_1096\n        /* \"#utility.yul\":40735:40738   */\n      dup3\n        /* \"#utility.yul\":40726:40732   */\n      dup5\n        /* \"#utility.yul\":40664:40739   */\n      tag_693\n      jump\t// in\n    tag_1096:\n        /* \"#utility.yul\":40764:40766   */\n      0x14\n        /* \"#utility.yul\":40759:40762   */\n      dup3\n        /* \"#utility.yul\":40755:40767   */\n      add\n        /* \"#utility.yul\":40748:40767   */\n      swap2\n      pop\n        /* \"#utility.yul\":40784:40787   */\n      dup2\n        /* \"#utility.yul\":40777:40787   */\n      swap1\n      pop\n        /* \"#utility.yul\":40537:40793   */\n      swap3\n      swap2\n      pop\n      pop\n      jump\t// out\n        /* \"#utility.yul\":40799:40903   */\n    tag_694:\n        /* \"#utility.yul\":40863:40870   */\n      0x00\n        /* \"#utility.yul\":40892:40897   */\n      dup2\n        /* \"#utility.yul\":40881:40897   */\n      swap1\n      pop\n        /* \"#utility.yul\":40799:40903   */\n      swap2\n      swap1\n      pop\n      jump\t// out\n        /* \"#utility.yul\":40909:41105   */\n    tag_695:\n        /* \"#utility.yul\":40986:40995   */\n      0x00\n        /* \"#utility.yul\":41019:41099   */\n      tag_1099\n        /* \"#utility.yul\":41037:41098   */\n      tag_1100\n        /* \"#utility.yul\":41046:41097   */\n      tag_1101\n        /* \"#utility.yul\":41091:41096   */\n      dup5\n        /* \"#utility.yul\":41046:41097   */\n      tag_694\n      jump\t// in\n    tag_1101:\n        /* \"#utility.yul\":41037:41098   */\n      tag_673\n      jump\t// in\n    tag_1100:\n        /* \"#utility.yul\":41019:41099   */\n      tag_624\n      jump\t// in\n    tag_1099:\n        /* \"#utility.yul\":41006:41099   */\n      swap1\n      pop\n        /* \"#utility.yul\":40909:41105   */\n      swap2\n      swap1\n      pop\n      jump\t// out\n        /* \"#utility.yul\":41111:41296   */\n    tag_696:\n        /* \"#utility.yul\":41225:41289   */\n      tag_1103\n        /* \"#utility.yul\":41283:41288   */\n      dup2\n        /* \"#utility.yul\":41225:41289   */\n      tag_695\n      jump\t// in\n    tag_1103:\n        /* \"#utility.yul\":41220:41223   */\n      dup3\n        /* \"#utility.yul\":41213:41290   */\n      mstore\n        /* \"#utility.yul\":41111:41296   */\n      pop\n      pop\n      jump\t// out\n        /* \"#utility.yul\":41302:41578   */\n    tag_157:\n        /* \"#utility.yul\":41422:41426   */\n      0x00\n        /* \"#utility.yul\":41460:41462   */\n      0x20\n        /* \"#utility.yul\":41449:41458   */\n      dup3\n        /* \"#utility.yul\":41445:41463   */\n      add\n        /* \"#utility.yul\":41437:41463   */\n      swap1\n      pop\n        /* \"#utility.yul\":41473:41571   */\n      tag_1105\n        /* \"#utility.yul\":41568:41569   */\n      0x00\n        /* \"#utility.yul\":41557:41566   */\n      dup4\n        /* \"#utility.yul\":41553:41570   */\n      add\n        /* \"#utility.yul\":41544:41550   */\n      dup5\n        /* \"#utility.yul\":41473:41571   */\n      tag_696\n      jump\t// in\n    tag_1105:\n        /* \"#utility.yul\":41302:41578   */\n      swap3\n      swap2\n      pop\n      pop\n      jump\t// out\n        /* \"#utility.yul\":41584:41970   */\n    tag_163:\n        /* \"#utility.yul\":41732:41736   */\n      0x00\n        /* \"#utility.yul\":41770:41772   */\n      0x40\n        /* \"#utility.yul\":41759:41768   */\n      dup3\n        /* \"#utility.yul\":41755:41773   */\n      add\n        /* \"#utility.yul\":41747:41773   */\n      swap1\n      pop\n        /* \"#utility.yul\":41783:41854   */\n      tag_1107\n        /* \"#utility.yul\":41851:41852   */\n      0x00\n        /* \"#utility.yul\":41840:41849   */\n      dup4\n        /* \"#utility.yul\":41836:41853   */\n      add\n        /* \"#utility.yul\":41827:41833   */\n      dup6\n        /* \"#utility.yul\":41783:41854   */\n      tag_648\n      jump\t// in\n    tag_1107:\n        /* \"#utility.yul\":41864:41963   */\n      tag_1108\n        /* \"#utility.yul\":41959:41961   */\n      0x20\n        /* \"#utility.yul\":41948:41957   */\n      dup4\n        /* \"#utility.yul\":41944:41962   */\n      add\n        /* \"#utility.yul\":41935:41941   */\n      dup5\n        /* \"#utility.yul\":41864:41963   */\n      tag_696\n      jump\t// in\n    tag_1108:\n        /* \"#utility.yul\":41584:41970   */\n      swap4\n      swap3\n      pop\n      pop\n      pop\n      jump\t// out\n        /* \"#utility.yul\":41976:42167   */\n    tag_202:\n        /* \"#utility.yul\":42016:42019   */\n      0x00\n        /* \"#utility.yul\":42035:42055   */\n      tag_1110\n        /* \"#utility.yul\":42053:42054   */\n      dup3\n        /* \"#utility.yul\":42035:42055   */\n      tag_624\n      jump\t// in\n    tag_1110:\n        /* \"#utility.yul\":42030:42055   */\n      swap2\n      pop\n        /* \"#utility.yul\":42069:42089   */\n      tag_1111\n        /* \"#utility.yul\":42087:42088   */\n      dup4\n        /* \"#utility.yul\":42069:42089   */\n      tag_624\n      jump\t// in\n    tag_1111:\n        /* \"#utility.yul\":42064:42089   */\n      swap3\n      pop\n        /* \"#utility.yul\":42112:42113   */\n      dup3\n        /* \"#utility.yul\":42109:42110   */\n      dup3\n        /* \"#utility.yul\":42105:42114   */\n      add\n        /* \"#utility.yul\":42098:42114   */\n      swap1\n      pop\n        /* \"#utility.yul\":42133:42136   */\n      dup1\n        /* \"#utility.yul\":42130:42131   */\n      dup3\n        /* \"#utility.yul\":42127:42137   */\n      gt\n        /* \"#utility.yul\":42124:42160   */\n      iszero\n      tag_1112\n      jumpi\n        /* \"#utility.yul\":42140:42158   */\n      tag_1113\n      tag_684\n      jump\t// in\n    tag_1113:\n        /* \"#utility.yul\":42124:42160   */\n    tag_1112:\n        /* \"#utility.yul\":41976:42167   */\n      swap3\n      swap2\n      pop\n      pop\n      jump\t// out\n        /* \"#utility.yul\":42173:42589   */\n    tag_222:\n        /* \"#utility.yul\":42333:42336   */\n      0x00\n        /* \"#utility.yul\":42355:42450   */\n      tag_1115\n        /* \"#utility.yul\":42446:42449   */\n      dup3\n        /* \"#utility.yul\":42437:42443   */\n      dup6\n        /* \"#utility.yul\":42355:42450   */\n      tag_666\n      jump\t// in\n    tag_1115:\n        /* \"#utility.yul\":42348:42450   */\n      swap2\n      pop\n        /* \"#utility.yul\":42460:42535   */\n      tag_1116\n        /* \"#utility.yul\":42531:42534   */\n      dup3\n        /* \"#utility.yul\":42522:42528   */\n      dup5\n        /* \"#utility.yul\":42460:42535   */\n      tag_693\n      jump\t// in\n    tag_1116:\n        /* \"#utility.yul\":42560:42562   */\n      0x14\n        /* \"#utility.yul\":42555:42558   */\n      dup3\n        /* \"#utility.yul\":42551:42563   */\n      add\n        /* \"#utility.yul\":42544:42563   */\n      swap2\n      pop\n        /* \"#utility.yul\":42580:42583   */\n      dup2\n        /* \"#utility.yul\":42573:42583   */\n      swap1\n      pop\n        /* \"#utility.yul\":42173:42589   */\n      swap4\n      swap3\n      pop\n      pop\n      pop\n      jump\t// out\n        /* \"#utility.yul\":42595:42775   */\n    tag_697:\n        /* \"#utility.yul\":42643:42720   */\n      0x4e487b7100000000000000000000000000000000000000000000000000000000\n        /* \"#utility.yul\":42640:42641   */\n      0x00\n        /* \"#utility.yul\":42633:42721   */\n      mstore\n        /* \"#utility.yul\":42740:42744   */\n      0x12\n        /* \"#utility.yul\":42737:42738   */\n      0x04\n        /* \"#utility.yul\":42730:42745   */\n      mstore\n        /* \"#utility.yul\":42764:42768   */\n      0x24\n        /* \"#utility.yul\":42761:42762   */\n      0x00\n        /* \"#utility.yul\":42754:42769   */\n      revert\n        /* \"#utility.yul\":42781:42966   */\n    tag_268:\n        /* \"#utility.yul\":42821:42822   */\n      0x00\n        /* \"#utility.yul\":42838:42858   */\n      tag_1119\n        /* \"#utility.yul\":42856:42857   */\n      dup3\n        /* \"#utility.yul\":42838:42858   */\n      tag_624\n      jump\t// in\n    tag_1119:\n        /* \"#utility.yul\":42833:42858   */\n      swap2\n      pop\n        /* \"#utility.yul\":42872:42892   */\n      tag_1120\n        /* \"#utility.yul\":42890:42891   */\n      dup4\n        /* \"#utility.yul\":42872:42892   */\n      tag_624\n      jump\t// in\n    tag_1120:\n        /* \"#utility.yul\":42867:42892   */\n      swap3\n      pop\n        /* \"#utility.yul\":42911:42912   */\n      dup3\n        /* \"#utility.yul\":42901:42936   */\n      tag_1121\n      jumpi\n        /* \"#utility.yul\":42916:42934   */\n      tag_1122\n      tag_697\n      jump\t// in\n    tag_1122:\n        /* \"#utility.yul\":42901:42936   */\n    tag_1121:\n        /* \"#utility.yul\":42958:42959   */\n      dup3\n        /* \"#utility.yul\":42955:42956   */\n      dup3\n        /* \"#utility.yul\":42951:42960   */\n      div\n        /* \"#utility.yul\":42946:42960   */\n      swap1\n      pop\n        /* \"#utility.yul\":42781:42966   */\n      swap3\n      swap2\n      pop\n      pop\n      jump\t// out\n        /* \"#utility.yul\":42972:43166   */\n    tag_277:\n        /* \"#utility.yul\":43012:43016   */\n      0x00\n        /* \"#utility.yul\":43032:43052   */\n      tag_1124\n        /* \"#utility.yul\":43050:43051   */\n      dup3\n        /* \"#utility.yul\":43032:43052   */\n      tag_624\n      jump\t// in\n    tag_1124:\n        /* \"#utility.yul\":43027:43052   */\n      swap2\n      pop\n        /* \"#utility.yul\":43066:43086   */\n      tag_1125\n        /* \"#utility.yul\":43084:43085   */\n      dup4\n        /* \"#utility.yul\":43066:43086   */\n      tag_624\n      jump\t// in\n    tag_1125:\n        /* \"#utility.yul\":43061:43086   */\n      swap3\n      pop\n        /* \"#utility.yul\":43110:43111   */\n      dup3\n        /* \"#utility.yul\":43107:43108   */\n      dup3\n        /* \"#utility.yul\":43103:43112   */\n      sub\n        /* \"#utility.yul\":43095:43112   */\n      swap1\n      pop\n        /* \"#utility.yul\":43134:43135   */\n      dup2\n        /* \"#utility.yul\":43128:43132   */\n      dup2\n        /* \"#utility.yul\":43125:43136   */\n      gt\n        /* \"#utility.yul\":43122:43159   */\n      iszero\n      tag_1126\n      jumpi\n        /* \"#utility.yul\":43139:43157   */\n      tag_1127\n      tag_684\n      jump\t// in\n    tag_1127:\n        /* \"#utility.yul\":43122:43159   */\n    tag_1126:\n        /* \"#utility.yul\":42972:43166   */\n      swap3\n      swap2\n      pop\n      pop\n      jump\t// out\n        /* \"#utility.yul\":43172:43251   */\n    tag_698:\n        /* \"#utility.yul\":43211:43218   */\n      0x00\n        /* \"#utility.yul\":43240:43245   */\n      dup2\n        /* \"#utility.yul\":43229:43245   */\n      swap1\n      pop\n        /* \"#utility.yul\":43172:43251   */\n      swap2\n      swap1\n      pop\n      jump\t// out\n        /* \"#utility.yul\":43257:43414   */\n    tag_699:\n        /* \"#utility.yul\":43362:43407   */\n      tag_1130\n        /* \"#utility.yul\":43382:43406   */\n      tag_1131\n        /* \"#utility.yul\":43400:43405   */\n      dup3\n        /* \"#utility.yul\":43382:43406   */\n      tag_624\n      jump\t// in\n    tag_1131:\n        /* \"#utility.yul\":43362:43407   */\n      tag_698\n      jump\t// in\n    tag_1130:\n        /* \"#utility.yul\":43357:43360   */\n      dup3\n        /* \"#utility.yul\":43350:43408   */\n      mstore\n        /* \"#utility.yul\":43257:43414   */\n      pop\n      pop\n      jump\t// out\n        /* \"#utility.yul\":43420:43990   */\n    tag_326:\n        /* \"#utility.yul\":43625:43628   */\n      0x00\n        /* \"#utility.yul\":43647:43739   */\n      tag_1133\n        /* \"#utility.yul\":43735:43738   */\n      dup3\n        /* \"#utility.yul\":43726:43732   */\n      dup7\n        /* \"#utility.yul\":43647:43739   */\n      tag_669\n      jump\t// in\n    tag_1133:\n        /* \"#utility.yul\":43640:43739   */\n      swap2\n      pop\n        /* \"#utility.yul\":43756:43851   */\n      tag_1134\n        /* \"#utility.yul\":43847:43850   */\n      dup3\n        /* \"#utility.yul\":43838:43844   */\n      dup6\n        /* \"#utility.yul\":43756:43851   */\n      tag_666\n      jump\t// in\n    tag_1134:\n        /* \"#utility.yul\":43749:43851   */\n      swap2\n      pop\n        /* \"#utility.yul\":43861:43936   */\n      tag_1135\n        /* \"#utility.yul\":43932:43935   */\n      dup3\n        /* \"#utility.yul\":43923:43929   */\n      dup5\n        /* \"#utility.yul\":43861:43936   */\n      tag_699\n      jump\t// in\n    tag_1135:\n        /* \"#utility.yul\":43961:43963   */\n      0x20\n        /* \"#utility.yul\":43956:43959   */\n      dup3\n        /* \"#utility.yul\":43952:43964   */\n      add\n        /* \"#utility.yul\":43945:43964   */\n      swap2\n      pop\n        /* \"#utility.yul\":43981:43984   */\n      dup2\n        /* \"#utility.yul\":43974:43984   */\n      swap1\n      pop\n        /* \"#utility.yul\":43420:43990   */\n      swap5\n      swap4\n      pop\n      pop\n      pop\n      pop\n      jump\t// out\n        /* \"#utility.yul\":43996:44101   */\n    tag_700:\n        /* \"#utility.yul\":44061:44068   */\n      0x00\n        /* \"#utility.yul\":44090:44095   */\n      dup2\n        /* \"#utility.yul\":44079:44095   */\n      swap1\n      pop\n        /* \"#utility.yul\":43996:44101   */\n      swap2\n      swap1\n      pop\n      jump\t// out\n        /* \"#utility.yul\":44107:44305   */\n    tag_701:\n        /* \"#utility.yul\":44185:44194   */\n      0x00\n        /* \"#utility.yul\":44218:44299   */\n      tag_1138\n        /* \"#utility.yul\":44236:44298   */\n      tag_1139\n        /* \"#utility.yul\":44245:44297   */\n      tag_1140\n        /* \"#utility.yul\":44291:44296   */\n      dup5\n        /* \"#utility.yul\":44245:44297   */\n      tag_700\n      jump\t// in\n    tag_1140:\n        /* \"#utility.yul\":44236:44298   */\n      tag_673\n      jump\t// in\n    tag_1139:\n        /* \"#utility.yul\":44218:44299   */\n      tag_624\n      jump\t// in\n    tag_1138:\n        /* \"#utility.yul\":44205:44299   */\n      swap1\n      pop\n        /* \"#utility.yul\":44107:44305   */\n      swap2\n      swap1\n      pop\n      jump\t// out\n        /* \"#utility.yul\":44311:44498   */\n    tag_702:\n        /* \"#utility.yul\":44426:44491   */\n      tag_1142\n        /* \"#utility.yul\":44485:44490   */\n      dup2\n        /* \"#utility.yul\":44426:44491   */\n      tag_701\n      jump\t// in\n    tag_1142:\n        /* \"#utility.yul\":44421:44424   */\n      dup3\n        /* \"#utility.yul\":44414:44492   */\n      mstore\n        /* \"#utility.yul\":44311:44498   */\n      pop\n      pop\n      jump\t// out\n        /* \"#utility.yul\":44504:44782   */\n    tag_350:\n        /* \"#utility.yul\":44625:44629   */\n      0x00\n        /* \"#utility.yul\":44663:44665   */\n      0x20\n        /* \"#utility.yul\":44652:44661   */\n      dup3\n        /* \"#utility.yul\":44648:44666   */\n      add\n        /* \"#utility.yul\":44640:44666   */\n      swap1\n      pop\n        /* \"#utility.yul\":44676:44775   */\n      tag_1144\n        /* \"#utility.yul\":44772:44773   */\n      0x00\n        /* \"#utility.yul\":44761:44770   */\n      dup4\n        /* \"#utility.yul\":44757:44774   */\n      add\n        /* \"#utility.yul\":44748:44754   */\n      dup5\n        /* \"#utility.yul\":44676:44775   */\n      tag_702\n      jump\t// in\n    tag_1144:\n        /* \"#utility.yul\":44504:44782   */\n      swap3\n      swap2\n      pop\n      pop\n      jump\t// out\n        /* \"#utility.yul\":44788:45176   */\n    tag_355:\n        /* \"#utility.yul\":44937:44941   */\n      0x00\n        /* \"#utility.yul\":44975:44977   */\n      0x40\n        /* \"#utility.yul\":44964:44973   */\n      dup3\n        /* \"#utility.yul\":44960:44978   */\n      add\n        /* \"#utility.yul\":44952:44978   */\n      swap1\n      pop\n        /* \"#utility.yul\":44988:45059   */\n      tag_1146\n        /* \"#utility.yul\":45056:45057   */\n      0x00\n        /* \"#utility.yul\":45045:45054   */\n      dup4\n        /* \"#utility.yul\":45041:45058   */\n      add\n        /* \"#utility.yul\":45032:45038   */\n      dup6\n        /* \"#utility.yul\":44988:45059   */\n      tag_648\n      jump\t// in\n    tag_1146:\n        /* \"#utility.yul\":45069:45169   */\n      tag_1147\n        /* \"#utility.yul\":45165:45167   */\n      0x20\n        /* \"#utility.yul\":45154:45163   */\n      dup4\n        /* \"#utility.yul\":45150:45168   */\n      add\n        /* \"#utility.yul\":45141:45147   */\n      dup5\n        /* \"#utility.yul\":45069:45169   */\n      tag_702\n      jump\t// in\n    tag_1147:\n        /* \"#utility.yul\":44788:45176   */\n      swap4\n      swap3\n      pop\n      pop\n      pop\n      jump\t// out\n        /* \"#utility.yul\":45182:45362   */\n    tag_379:\n        /* \"#utility.yul\":45230:45307   */\n      0x4e487b7100000000000000000000000000000000000000000000000000000000\n        /* \"#utility.yul\":45227:45228   */\n      0x00\n        /* \"#utility.yul\":45220:45308   */\n      mstore\n        /* \"#utility.yul\":45327:45331   */\n      0x32\n        /* \"#utility.yul\":45324:45325   */\n      0x04\n        /* \"#utility.yul\":45317:45332   */\n      mstore\n        /* \"#utility.yul\":45351:45355   */\n      0x24\n        /* \"#utility.yul\":45348:45349   */\n      0x00\n        /* \"#utility.yul\":45341:45356   */\n      revert\n        /* \"#utility.yul\":45368:45826   */\n    tag_412:\n        /* \"#utility.yul\":45525:45529   */\n      0x00\n        /* \"#utility.yul\":45563:45565   */\n      0x60\n        /* \"#utility.yul\":45552:45561   */\n      dup3\n        /* \"#utility.yul\":45548:45566   */\n      add\n        /* \"#utility.yul\":45540:45566   */\n      swap1\n      pop\n        /* \"#utility.yul\":45576:45655   */\n      tag_1150\n        /* \"#utility.yul\":45652:45653   */\n      0x00\n        /* \"#utility.yul\":45641:45650   */\n      dup4\n        /* \"#utility.yul\":45637:45654   */\n      add\n        /* \"#utility.yul\":45628:45634   */\n      dup7\n        /* \"#utility.yul\":45576:45655   */\n      tag_689\n      jump\t// in\n    tag_1150:\n        /* \"#utility.yul\":45665:45737   */\n      tag_1151\n        /* \"#utility.yul\":45733:45735   */\n      0x20\n        /* \"#utility.yul\":45722:45731   */\n      dup4\n        /* \"#utility.yul\":45718:45736   */\n      add\n        /* \"#utility.yul\":45709:45715   */\n      dup6\n        /* \"#utility.yul\":45665:45737   */\n      tag_648\n      jump\t// in\n    tag_1151:\n        /* \"#utility.yul\":45747:45819   */\n      tag_1152\n        /* \"#utility.yul\":45815:45817   */\n      0x40\n        /* \"#utility.yul\":45804:45813   */\n      dup4\n        /* \"#utility.yul\":45800:45818   */\n      add\n        /* \"#utility.yul\":45791:45797   */\n      dup5\n        /* \"#utility.yul\":45747:45819   */\n      tag_637\n      jump\t// in\n    tag_1152:\n        /* \"#utility.yul\":45368:45826   */\n      swap5\n      swap4\n      pop\n      pop\n      pop\n      pop\n      jump\t// out\n        /* \"#utility.yul\":45832:46065   */\n    tag_426:\n        /* \"#utility.yul\":45871:45874   */\n      0x00\n        /* \"#utility.yul\":45894:45918   */\n      tag_1154\n        /* \"#utility.yul\":45912:45917   */\n      dup3\n        /* \"#utility.yul\":45894:45918   */\n      tag_624\n      jump\t// in\n    tag_1154:\n        /* \"#utility.yul\":45885:45918   */\n      swap2\n      pop\n        /* \"#utility.yul\":45940:46006   */\n      0xffffffffffffffffffffffffffffffffffffffffffffffffffffffffffffffff\n        /* \"#utility.yul\":45933:45938   */\n      dup3\n        /* \"#utility.yul\":45930:46007   */\n      sub\n        /* \"#utility.yul\":45927:46030   */\n      tag_1155\n      jumpi\n        /* \"#utility.yul\":46010:46028   */\n      tag_1156\n      tag_684\n      jump\t// in\n    tag_1156:\n        /* \"#utility.yul\":45927:46030   */\n    tag_1155:\n        /* \"#utility.yul\":46057:46058   */\n      0x01\n        /* \"#utility.yul\":46050:46055   */\n      dup3\n        /* \"#utility.yul\":46046:46059   */\n      add\n        /* \"#utility.yul\":46039:46059   */\n      swap1\n      pop\n        /* \"#utility.yul\":45832:46065   */\n      swap2\n      swap1\n      pop\n      jump\t// out\n        /* \"#utility.yul\":46071:46628   */\n    tag_445:\n        /* \"#utility.yul\":46259:46262   */\n      0x00\n        /* \"#utility.yul\":46281:46376   */\n      tag_1158\n        /* \"#utility.yul\":46372:46375   */\n      dup3\n        /* \"#utility.yul\":46363:46369   */\n      dup7\n        /* \"#utility.yul\":46281:46376   */\n      tag_666\n      jump\t// in\n    tag_1158:\n        /* \"#utility.yul\":46274:46376   */\n      swap2\n      pop\n        /* \"#utility.yul\":46386:46461   */\n      tag_1159\n        /* \"#utility.yul\":46457:46460   */\n      dup3\n        /* \"#utility.yul\":46448:46454   */\n      dup6\n        /* \"#utility.yul\":46386:46461   */\n      tag_693\n      jump\t// in\n    tag_1159:\n        /* \"#utility.yul\":46486:46488   */\n      0x14\n        /* \"#utility.yul\":46481:46484   */\n      dup3\n        /* \"#utility.yul\":46477:46489   */\n      add\n        /* \"#utility.yul\":46470:46489   */\n      swap2\n      pop\n        /* \"#utility.yul\":46499:46574   */\n      tag_1160\n        /* \"#utility.yul\":46570:46573   */\n      dup3\n        /* \"#utility.yul\":46561:46567   */\n      dup5\n        /* \"#utility.yul\":46499:46574   */\n      tag_699\n      jump\t// in\n    tag_1160:\n        /* \"#utility.yul\":46599:46601   */\n      0x20\n        /* \"#utility.yul\":46594:46597   */\n      dup3\n        /* \"#utility.yul\":46590:46602   */\n      add\n        /* \"#utility.yul\":46583:46602   */\n      swap2\n      pop\n        /* \"#utility.yul\":46619:46622   */\n      dup2\n        /* \"#utility.yul\":46612:46622   */\n      swap1\n      pop\n        /* \"#utility.yul\":46071:46628   */\n      swap5\n      swap4\n      pop\n      pop\n      pop\n      pop\n      jump\t// out\n        /* \"#utility.yul\":46634:46856   */\n    tag_473:\n        /* \"#utility.yul\":46727:46731   */\n      0x00\n        /* \"#utility.yul\":46765:46767   */\n      0x20\n        /* \"#utility.yul\":46754:46763   */\n      dup3\n        /* \"#utility.yul\":46750:46768   */\n      add\n        /* \"#utility.yul\":46742:46768   */\n      swap1\n      pop\n        /* \"#utility.yul\":46778:46849   */\n      tag_1162\n        /* \"#utility.yul\":46846:46847   */\n      0x00\n        /* \"#utility.yul\":46835:46844   */\n      dup4\n        /* \"#utility.yul\":46831:46848   */\n      add\n        /* \"#utility.yul\":46822:46828   */\n      dup5\n        /* \"#utility.yul\":46778:46849   */\n      tag_648\n      jump\t// in\n    tag_1162:\n        /* \"#utility.yul\":46634:46856   */\n      swap3\n      swap2\n      pop\n      pop\n      jump\t// out\n        /* \"#utility.yul\":46862:47005   */\n    tag_703:\n        /* \"#utility.yul\":46919:46924   */\n      0x00\n        /* \"#utility.yul\":46950:46956   */\n      dup2\n        /* \"#utility.yul\":46944:46957   */\n      mload\n        /* \"#utility.yul\":46935:46957   */\n      swap1\n      pop\n        /* \"#utility.yul\":46966:46999   */\n      tag_1164\n        /* \"#utility.yul\":46993:46998   */\n      dup2\n        /* \"#utility.yul\":46966:46999   */\n      tag_629\n      jump\t// in\n    tag_1164:\n        /* \"#utility.yul\":46862:47005   */\n      swap3\n      swap2\n      pop\n      pop\n      jump\t// out\n        /* \"#utility.yul\":47011:47362   */\n    tag_477:\n        /* \"#utility.yul\":47081:47087   */\n      0x00\n        /* \"#utility.yul\":47130:47132   */\n      0x20\n        /* \"#utility.yul\":47118:47127   */\n      dup3\n        /* \"#utility.yul\":47109:47116   */\n      dup5\n        /* \"#utility.yul\":47105:47128   */\n      sub\n        /* \"#utility.yul\":47101:47133   */\n      slt\n        /* \"#utility.yul\":47098:47217   */\n      iszero\n      tag_1166\n      jumpi\n        /* \"#utility.yul\":47136:47215   */\n      tag_1167\n      tag_609\n      jump\t// in\n    tag_1167:\n        /* \"#utility.yul\":47098:47217   */\n    tag_1166:\n        /* \"#utility.yul\":47256:47257   */\n      0x00\n        /* \"#utility.yul\":47281:47345   */\n      tag_1168\n        /* \"#utility.yul\":47337:47344   */\n      dup5\n        /* \"#utility.yul\":47328:47334   */\n      dup3\n        /* \"#utility.yul\":47317:47326   */\n      dup6\n        /* \"#utility.yul\":47313:47335   */\n      add\n        /* \"#utility.yul\":47281:47345   */\n      tag_703\n      jump\t// in\n    tag_1168:\n        /* \"#utility.yul\":47271:47345   */\n      swap2\n      pop\n        /* \"#utility.yul\":47227:47355   */\n      pop\n        /* \"#utility.yul\":47011:47362   */\n      swap3\n      swap2\n      pop\n      pop\n      jump\t// out\n        /* \"#utility.yul\":47368:47784   */\n    tag_532:\n        /* \"#utility.yul\":47528:47531   */\n      0x00\n        /* \"#utility.yul\":47550:47645   */\n      tag_1170\n        /* \"#utility.yul\":47641:47644   */\n      dup3\n        /* \"#utility.yul\":47632:47638   */\n      dup6\n        /* \"#utility.yul\":47550:47645   */\n      tag_666\n      jump\t// in\n    tag_1170:\n        /* \"#utility.yul\":47543:47645   */\n      swap2\n      pop\n        /* \"#utility.yul\":47655:47730   */\n      tag_1171\n        /* \"#utility.yul\":47726:47729   */\n      dup3\n        /* \"#utility.yul\":47717:47723   */\n      dup5\n        /* \"#utility.yul\":47655:47730   */\n      tag_699\n      jump\t// in\n    tag_1171:\n        /* \"#utility.yul\":47755:47757   */\n      0x20\n        /* \"#utility.yul\":47750:47753   */\n      dup3\n        /* \"#utility.yul\":47746:47758   */\n      add\n        /* \"#utility.yul\":47739:47758   */\n      swap2\n      pop\n        /* \"#utility.yul\":47775:47778   */\n      dup2\n        /* \"#utility.yul\":47768:47778   */\n      swap1\n      pop\n        /* \"#utility.yul\":47368:47784   */\n      swap4\n      swap3\n      pop\n      pop\n      pop\n      jump\t// out\n        /* \"#utility.yul\":47790:48328   */\n    tag_556:\n        /* \"#utility.yul\":47958:47961   */\n      0x00\n        /* \"#utility.yul\":47973:48048   */\n      tag_1173\n        /* \"#utility.yul\":48044:48047   */\n      dup3\n        /* \"#utility.yul\":48035:48041   */\n      dup7\n        /* \"#utility.yul\":47973:48048   */\n      tag_699\n      jump\t// in\n    tag_1173:\n        /* \"#utility.yul\":48073:48075   */\n      0x20\n        /* \"#utility.yul\":48068:48071   */\n      dup3\n        /* \"#utility.yul\":48064:48076   */\n      add\n        /* \"#utility.yul\":48057:48076   */\n      swap2\n      pop\n        /* \"#utility.yul\":48086:48161   */\n      tag_1174\n        /* \"#utility.yul\":48157:48160   */\n      dup3\n        /* \"#utility.yul\":48148:48154   */\n      dup6\n        /* \"#utility.yul\":48086:48161   */\n      tag_699\n      jump\t// in\n    tag_1174:\n        /* \"#utility.yul\":48186:48188   */\n      0x20\n        /* \"#utility.yul\":48181:48184   */\n      dup3\n        /* \"#utility.yul\":48177:48189   */\n      add\n        /* \"#utility.yul\":48170:48189   */\n      swap2\n      pop\n        /* \"#utility.yul\":48199:48274   */\n      tag_1175\n        /* \"#utility.yul\":48270:48273   */\n      dup3\n        /* \"#utility.yul\":48261:48267   */\n      dup5\n        /* \"#utility.yul\":48199:48274   */\n      tag_699\n      jump\t// in\n    tag_1175:\n        /* \"#utility.yul\":48299:48301   */\n      0x20\n        /* \"#utility.yul\":48294:48297   */\n      dup3\n        /* \"#utility.yul\":48290:48302   */\n      add\n        /* \"#utility.yul\":48283:48302   */\n      swap2\n      pop\n        /* \"#utility.yul\":48319:48322   */\n      dup2\n        /* \"#utility.yul\":48312:48322   */\n      swap1\n      pop\n        /* \"#utility.yul\":47790:48328   */\n      swap5\n      swap4\n      pop\n      pop\n      pop\n      pop\n      jump\t// out\n        /* \"#utility.yul\":48334:48510   */\n    tag_558:\n        /* \"#utility.yul\":48366:48367   */\n      0x00\n        /* \"#utility.yul\":48383:48403   */\n      tag_1177\n        /* \"#utility.yul\":48401:48402   */\n      dup3\n        /* \"#utility.yul\":48383:48403   */\n      tag_624\n      jump\t// in\n    tag_1177:\n        /* \"#utility.yul\":48378:48403   */\n      swap2\n      pop\n        /* \"#utility.yul\":48417:48437   */\n      tag_1178\n        /* \"#utility.yul\":48435:48436   */\n      dup4\n        /* \"#utility.yul\":48417:48437   */\n      tag_624\n      jump\t// in\n    tag_1178:\n        /* \"#utility.yul\":48412:48437   */\n      swap3\n      pop\n        /* \"#utility.yul\":48456:48457   */\n      dup3\n        /* \"#utility.yul\":48446:48481   */\n      tag_1179\n      jumpi\n        /* \"#utility.yul\":48461:48479   */\n      tag_1180\n      tag_697\n      jump\t// in\n    tag_1180:\n        /* \"#utility.yul\":48446:48481   */\n    tag_1179:\n        /* \"#utility.yul\":48502:48503   */\n      dup3\n        /* \"#utility.yul\":48499:48500   */\n      dup3\n        /* \"#utility.yul\":48495:48504   */\n      mod\n        /* \"#utility.yul\":48490:48504   */\n      swap1\n      pop\n        /* \"#utility.yul\":48334:48510   */\n      swap3\n      swap2\n      pop\n      pop\n      jump\t// out\n        /* \"#utility.yul\":48516:48602   */\n    tag_704:\n        /* \"#utility.yul\":48551:48558   */\n      0x00\n        /* \"#utility.yul\":48591:48595   */\n      0xff\n        /* \"#utility.yul\":48584:48589   */\n      dup3\n        /* \"#utility.yul\":48580:48596   */\n      and\n        /* \"#utility.yul\":48569:48596   */\n      swap1\n      pop\n        /* \"#utility.yul\":48516:48602   */\n      swap2\n      swap1\n      pop\n      jump\t// out\n        /* \"#utility.yul\":48608:48796   */\n    tag_560:\n        /* \"#utility.yul\":48646:48649   */\n      0x00\n        /* \"#utility.yul\":48665:48683   */\n      tag_1183\n        /* \"#utility.yul\":48681:48682   */\n      dup3\n        /* \"#utility.yul\":48665:48683   */\n      tag_704\n      jump\t// in\n    tag_1183:\n        /* \"#utility.yul\":48660:48683   */\n      swap2\n      pop\n        /* \"#utility.yul\":48697:48715   */\n      tag_1184\n        /* \"#utility.yul\":48713:48714   */\n      dup4\n        /* \"#utility.yul\":48697:48715   */\n      tag_704\n      jump\t// in\n    tag_1184:\n        /* \"#utility.yul\":48692:48715   */\n      swap3\n      pop\n        /* \"#utility.yul\":48738:48739   */\n      dup3\n        /* \"#utility.yul\":48735:48736   */\n      dup3\n        /* \"#utility.yul\":48731:48740   */\n      add\n        /* \"#utility.yul\":48724:48740   */\n      swap1\n      pop\n        /* \"#utility.yul\":48761:48765   */\n      0xff\n        /* \"#utility.yul\":48756:48759   */\n      dup2\n        /* \"#utility.yul\":48753:48766   */\n      gt\n        /* \"#utility.yul\":48750:48789   */\n      iszero\n      tag_1185\n      jumpi\n        /* \"#utility.yul\":48769:48787   */\n      tag_1186\n      tag_684\n      jump\t// in\n    tag_1186:\n        /* \"#utility.yul\":48750:48789   */\n    tag_1185:\n        /* \"#utility.yul\":48608:48796   */\n      swap3\n      swap2\n      pop\n      pop\n      jump\t// out\n        /* \"#utility.yul\":48802:48973   */\n    tag_584:\n        /* \"#utility.yul\":48841:48844   */\n      0x00\n        /* \"#utility.yul\":48864:48888   */\n      tag_1188\n        /* \"#utility.yul\":48882:48887   */\n      dup3\n        /* \"#utility.yul\":48864:48888   */\n      tag_624\n      jump\t// in\n    tag_1188:\n        /* \"#utility.yul\":48855:48888   */\n      swap2\n      pop\n        /* \"#utility.yul\":48910:48914   */\n      0x00\n        /* \"#utility.yul\":48903:48908   */\n      dup3\n        /* \"#utility.yul\":48900:48915   */\n      sub\n        /* \"#utility.yul\":48897:48938   */\n      tag_1189\n      jumpi\n        /* \"#utility.yul\":48918:48936   */\n      tag_1190\n      tag_684\n      jump\t// in\n    tag_1190:\n        /* \"#utility.yul\":48897:48938   */\n    tag_1189:\n        /* \"#utility.yul\":48965:48966   */\n      0x01\n        /* \"#utility.yul\":48958:48963   */\n      dup3\n        /* \"#utility.yul\":48954:48967   */\n      sub\n        /* \"#utility.yul\":48947:48967   */\n      swap1\n      pop\n        /* \"#utility.yul\":48802:48973   */\n      swap2\n      swap1\n      pop\n      jump\t// out\n        /* \"#utility.yul\":48979:49161   */\n    tag_705:\n        /* \"#utility.yul\":49119:49153   */\n      0x537472696e67733a20686578206c656e67746820696e73756666696369656e74\n        /* \"#utility.yul\":49115:49116   */\n      0x00\n        /* \"#utility.yul\":49107:49113   */\n      dup3\n        /* \"#utility.yul\":49103:49117   */\n      add\n        /* \"#utility.yul\":49096:49154   */\n      mstore\n        /* \"#utility.yul\":48979:49161   */\n      pop\n      jump\t// out\n        /* \"#utility.yul\":49167:49533   */\n    tag_706:\n        /* \"#utility.yul\":49309:49312   */\n      0x00\n        /* \"#utility.yul\":49330:49397   */\n      tag_1193\n        /* \"#utility.yul\":49394:49396   */\n      0x20\n        /* \"#utility.yul\":49389:49392   */\n      dup4\n        /* \"#utility.yul\":49330:49397   */\n      tag_631\n      jump\t// in\n    tag_1193:\n        /* \"#utility.yul\":49323:49397   */\n      swap2\n      pop\n        /* \"#utility.yul\":49406:49499   */\n      tag_1194\n        /* \"#utility.yul\":49495:49498   */\n      dup3\n        /* \"#utility.yul\":49406:49499   */\n      tag_705\n      jump\t// in\n    tag_1194:\n        /* \"#utility.yul\":49524:49526   */\n      0x20\n        /* \"#utility.yul\":49519:49522   */\n      dup3\n        /* \"#utility.yul\":49515:49527   */\n      add\n        /* \"#utility.yul\":49508:49527   */\n      swap1\n      pop\n        /* \"#utility.yul\":49167:49533   */\n      swap2\n      swap1\n      pop\n      jump\t// out\n        /* \"#utility.yul\":49539:49958   */\n    tag_587:\n        /* \"#utility.yul\":49705:49709   */\n      0x00\n        /* \"#utility.yul\":49743:49745   */\n      0x20\n        /* \"#utility.yul\":49732:49741   */\n      dup3\n        /* \"#utility.yul\":49728:49746   */\n      add\n        /* \"#utility.yul\":49720:49746   */\n      swap1\n      pop\n        /* \"#utility.yul\":49792:49801   */\n      dup2\n        /* \"#utility.yul\":49786:49790   */\n      dup2\n        /* \"#utility.yul\":49782:49802   */\n      sub\n        /* \"#utility.yul\":49778:49779   */\n      0x00\n        /* \"#utility.yul\":49767:49776   */\n      dup4\n        /* \"#utility.yul\":49763:49780   */\n      add\n        /* \"#utility.yul\":49756:49803   */\n      mstore\n        /* \"#utility.yul\":49820:49951   */\n      tag_1196\n        /* \"#utility.yul\":49946:49950   */\n      dup2\n        /* \"#utility.yul\":49820:49951   */\n      tag_706\n      jump\t// in\n    tag_1196:\n        /* \"#utility.yul\":49812:49951   */\n      swap1\n      pop\n        /* \"#utility.yul\":49539:49958   */\n      swap2\n      swap1\n      pop\n      jump\t// out\n\n    auxdata: 0xa2646970667358221220d7fa84da27cbc3d8bdd21218867ef3880359701f0da78b0a7c57d54aa2d1f63b64736f6c63430008150033\n}\n\nsub_1: assembly {\n        /* \"Token.sol\":170:1121  contract FlipToken is ERC20(\"flipCoin\", \"FP\"), Ownable {... */\n      mstore(0x40, 0x80)\n      callvalue\n      dup1\n      iszero\n      tag_1\n      jumpi\n      0x00\n      dup1\n      revert\n    tag_1:\n      pop\n        /* \"@openzeppelin/contracts/token/ERC20/ERC20.sol\":1980:2093   */\n      mload(0x40)\n      dup1\n      0x40\n      add\n      0x40\n      mstore\n      dup1\n      0x08\n      dup2\n      mstore\n      0x20\n      add\n      0x666c6970436f696e000000000000000000000000000000000000000000000000\n      dup2\n      mstore\n      pop\n      mload(0x40)\n      dup1\n      0x40\n      add\n      0x40\n      mstore\n      dup1\n      0x02\n      dup2\n      mstore\n      0x20\n      add\n      0x4650000000000000000000000000000000000000000000000000000000000000\n      dup2\n      mstore\n      pop\n        /* \"@openzeppelin/contracts/token/ERC20/ERC20.sol\":2054:2059   */\n      dup2\n        /* \"@openzeppelin/contracts/token/ERC20/ERC20.sol\":2046:2051   */\n      0x03\n        /* \"@openzeppelin/contracts/token/ERC20/ERC20.sol\":2046:2059   */\n      swap1\n      dup2\n      tag_5\n      swap2\n      swap1\n      tag_6\n      jump\t// in\n    tag_5:\n      pop\n        /* \"@openzeppelin/contracts/token/ERC20/ERC20.sol\":2079:2086   */\n      dup1\n        /* \"@openzeppelin/contracts/token/ERC20/ERC20.sol\":2069:2076   */\n      0x04\n        /* \"@openzeppelin/contracts/token/ERC20/ERC20.sol\":2069:2086   */\n      swap1\n      dup2\n      tag_7\n      swap2\n      swap1\n      tag_6\n      jump\t// in\n    tag_7:\n      pop\n        /* \"@openzeppelin/contracts/token/ERC20/ERC20.sol\":1980:2093   */\n      pop\n      pop\n        /* \"@openzeppelin/contracts/access/Ownable.sol\":936:968   */\n      tag_9\n        /* \"@openzeppelin/contracts/access/Ownable.sol\":955:967   */\n      tag_10\n        /* \"@openzeppelin/contracts/access/Ownable.sol\":955:965   */\n      shl(0x20, tag_11)\n        /* \"@openzeppelin/contracts/access/Ownable.sol\":955:967   */\n      0x20\n      shr\n      jump\t// in\n    tag_10:\n        /* \"@openzeppelin/contracts/access/Ownable.sol\":936:954   */\n      shl(0x20, tag_12)\n        /* \"@openzeppelin/contracts/access/Ownable.sol\":936:968   */\n      0x20\n      shr\n      jump\t// in\n    tag_9:\n        /* \"Token.sol\":170:1121  contract FlipToken is ERC20(\"flipCoin\", \"FP\"), Ownable {... */\n      jump(tag_13)\n        /* \"@openzeppelin/contracts/utils/Context.sol\":640:736   */\n    tag_11:\n        /* \"@openzeppelin/contracts/utils/Context.sol\":693:700   */\n      0x00\n        /* \"@openzeppelin/contracts/utils/Context.sol\":719:729   */\n      caller\n        /* \"@openzeppelin/contracts/utils/Context.sol\":712:729   */\n      swap1\n      pop\n        /* \"@openzeppelin/contracts/utils/Context.sol\":640:736   */\n      swap1\n      jump\t// out\n        /* \"@openzeppelin/contracts/access/Ownable.sol\":2426:2613   */\n    tag_12:\n        /* \"@openzeppelin/contracts/access/Ownable.sol\":2499:2515   */\n      0x00\n        /* \"@openzeppelin/contracts/access/Ownable.sol\":2518:2524   */\n      0x05\n      0x00\n      swap1\n      sload\n      swap1\n      0x0100\n      exp\n      swap1\n      div\n      0xffffffffffffffffffffffffffffffffffffffff\n      and\n        /* \"@openzeppelin/contracts/access/Ownable.sol\":2499:2524   */\n      swap1\n      pop\n        /* \"@openzeppelin/contracts/access/Ownable.sol\":2543:2551   */\n      dup2\n        /* \"@openzeppelin/contracts/access/Ownable.sol\":2534:2540   */\n      0x05\n      0x00\n        /* \"@openzeppelin/contracts/access/Ownable.sol\":2534:2551   */\n      0x0100\n      exp\n      dup2\n      sload\n      dup2\n      0xffffffffffffffffffffffffffffffffffffffff\n      mul\n      not\n      and\n      swap1\n      dup4\n      0xffffffffffffffffffffffffffffffffffffffff\n      and\n      mul\n      or\n      swap1\n      sstore\n      pop\n        /* \"@openzeppelin/contracts/access/Ownable.sol\":2597:2605   */\n      dup2\n        /* \"@openzeppelin/contracts/access/Ownable.sol\":2566:2606   */\n      0xffffffffffffffffffffffffffffffffffffffff\n      and\n        /* \"@openzeppelin/contracts/access/Ownable.sol\":2587:2595   */\n      dup2\n        /* \"@openzeppelin/contracts/access/Ownable.sol\":2566:2606   */\n      0xffffffffffffffffffffffffffffffffffffffff\n      and\n      0x8be0079c531659141344cd1fd0a4f28419497f9722a3daafe3b4186f6b6457e0\n      mload(0x40)\n      mload(0x40)\n      dup1\n      swap2\n      sub\n      swap1\n      log3\n        /* \"@openzeppelin/contracts/access/Ownable.sol\":2489:2613   */\n      pop\n        /* \"@openzeppelin/contracts/access/Ownable.sol\":2426:2613   */\n      pop\n      jump\t// out\n        /* \"#utility.yul\":7:106   */\n    tag_16:\n        /* \"#utility.yul\":59:65   */\n      0x00\n        /* \"#utility.yul\":93:98   */\n      dup2\n        /* \"#utility.yul\":87:99   */\n      mload\n        /* \"#utility.yul\":77:99   */\n      swap1\n      pop\n        /* \"#utility.yul\":7:106   */\n      swap2\n      swap1\n      pop\n      jump\t// out\n        /* \"#utility.yul\":112:292   */\n    tag_17:\n        /* \"#utility.yul\":160:237   */\n      0x4e487b7100000000000000000000000000000000000000000000000000000000\n        /* \"#utility.yul\":157:158   */\n      0x00\n        /* \"#utility.yul\":150:238   */\n      mstore\n        /* \"#utility.yul\":257:261   */\n      0x41\n        /* \"#utility.yul\":254:255   */\n      0x04\n        /* \"#utility.yul\":247:262   */\n      mstore\n        /* \"#utility.yul\":281:285   */\n      0x24\n        /* \"#utility.yul\":278:279   */\n      0x00\n        /* \"#utility.yul\":271:286   */\n      revert\n        /* \"#utility.yul\":298:478   */\n    tag_18:\n        /* \"#utility.yul\":346:423   */\n      0x4e487b7100000000000000000000000000000000000000000000000000000000\n        /* \"#utility.yul\":343:344   */\n      0x00\n        /* \"#utility.yul\":336:424   */\n      mstore\n        /* \"#utility.yul\":443:447   */\n      0x22\n        /* \"#utility.yul\":440:441   */\n      0x04\n        /* \"#utility.yul\":433:448   */\n      mstore\n        /* \"#utility.yul\":467:471   */\n      0x24\n        /* \"#utility.yul\":464:465   */\n      0x00\n        /* \"#utility.yul\":457:472   */\n      revert\n        /* \"#utility.yul\":484:804   */\n    tag_19:\n        /* \"#utility.yul\":528:534   */\n      0x00\n        /* \"#utility.yul\":565:566   */\n      0x02\n        /* \"#utility.yul\":559:563   */\n      dup3\n        /* \"#utility.yul\":555:567   */\n      div\n        /* \"#utility.yul\":545:567   */\n      swap1\n      pop\n        /* \"#utility.yul\":612:613   */\n      0x01\n        /* \"#utility.yul\":606:610   */\n      dup3\n        /* \"#utility.yul\":602:614   */\n      and\n        /* \"#utility.yul\":633:651   */\n      dup1\n        /* \"#utility.yul\":623:704   */\n      tag_41\n      jumpi\n        /* \"#utility.yul\":689:693   */\n      0x7f\n        /* \"#utility.yul\":681:687   */\n      dup3\n        /* \"#utility.yul\":677:694   */\n      and\n        /* \"#utility.yul\":667:694   */\n      swap2\n      pop\n        /* \"#utility.yul\":623:704   */\n    tag_41:\n        /* \"#utility.yul\":751:753   */\n      0x20\n        /* \"#utility.yul\":743:749   */\n      dup3\n        /* \"#utility.yul\":740:754   */\n      lt\n        /* \"#utility.yul\":720:738   */\n      dup2\n        /* \"#utility.yul\":717:755   */\n      sub\n        /* \"#utility.yul\":714:798   */\n      tag_42\n      jumpi\n        /* \"#utility.yul\":770:788   */\n      tag_43\n      tag_18\n      jump\t// in\n    tag_43:\n        /* \"#utility.yul\":714:798   */\n    tag_42:\n        /* \"#utility.yul\":535:804   */\n      pop\n        /* \"#utility.yul\":484:804   */\n      swap2\n      swap1\n      pop\n      jump\t// out\n        /* \"#utility.yul\":810:951   */\n    tag_20:\n        /* \"#utility.yul\":859:863   */\n      0x00\n        /* \"#utility.yul\":882:885   */\n      dup2\n        /* \"#utility.yul\":874:885   */\n      swap1\n      pop\n        /* \"#utility.yul\":905:908   */\n      dup2\n        /* \"#utility.yul\":902:903   */\n      0x00\n        /* \"#utility.yul\":895:909   */\n      mstore\n        /* \"#utility.yul\":939:943   */\n      0x20\n        /* \"#utility.yul\":936:937   */\n      0x00\n        /* \"#utility.yul\":926:944   */\n      keccak256\n        /* \"#utility.yul\":918:944   */\n      swap1\n      pop\n        /* \"#utility.yul\":810:951   */\n      swap2\n      swap1\n      pop\n      jump\t// out\n        /* \"#utility.yul\":957:1050   */\n    tag_21:\n        /* \"#utility.yul\":994:1000   */\n      0x00\n        /* \"#utility.yul\":1041:1043   */\n      0x20\n        /* \"#utility.yul\":1036:1038   */\n      0x1f\n        /* \"#utility.yul\":1029:1034   */\n      dup4\n        /* \"#utility.yul\":1025:1039   */\n      add\n        /* \"#utility.yul\":1021:1044   */\n      div\n        /* \"#utility.yul\":1011:1044   */\n      swap1\n      pop\n        /* \"#utility.yul\":957:1050   */\n      swap2\n      swap1\n      pop\n      jump\t// out\n        /* \"#utility.yul\":1056:1163   */\n    tag_22:\n        /* \"#utility.yul\":1100:1108   */\n      0x00\n        /* \"#utility.yul\":1150:1155   */\n      dup3\n        /* \"#utility.yul\":1144:1148   */\n      dup3\n        /* \"#utility.yul\":1140:1156   */\n      shl\n        /* \"#utility.yul\":1119:1156   */\n      swap1\n      pop\n        /* \"#utility.yul\":1056:1163   */\n      swap3\n      swap2\n      pop\n      pop\n      jump\t// out\n        /* \"#utility.yul\":1169:1562   */\n    tag_23:\n        /* \"#utility.yul\":1238:1244   */\n      0x00\n        /* \"#utility.yul\":1288:1289   */\n      0x08\n        /* \"#utility.yul\":1276:1286   */\n      dup4\n        /* \"#utility.yul\":1272:1290   */\n      mul\n        /* \"#utility.yul\":1311:1408   */\n      tag_48\n        /* \"#utility.yul\":1341:1407   */\n      0xffffffffffffffffffffffffffffffffffffffffffffffffffffffffffffffff\n        /* \"#utility.yul\":1330:1339   */\n      dup3\n        /* \"#utility.yul\":1311:1408   */\n      tag_22\n      jump\t// in\n    tag_48:\n        /* \"#utility.yul\":1429:1468   */\n      tag_49\n        /* \"#utility.yul\":1459:1467   */\n      dup7\n        /* \"#utility.yul\":1448:1457   */\n      dup4\n        /* \"#utility.yul\":1429:1468   */\n      tag_22\n      jump\t// in\n    tag_49:\n        /* \"#utility.yul\":1417:1468   */\n      swap6\n      pop\n        /* \"#utility.yul\":1501:1505   */\n      dup1\n        /* \"#utility.yul\":1497:1506   */\n      not\n        /* \"#utility.yul\":1490:1495   */\n      dup5\n        /* \"#utility.yul\":1486:1507   */\n      and\n        /* \"#utility.yul\":1477:1507   */\n      swap4\n      pop\n        /* \"#utility.yul\":1550:1554   */\n      dup1\n        /* \"#utility.yul\":1540:1548   */\n      dup7\n        /* \"#utility.yul\":1536:1555   */\n      and\n        /* \"#utility.yul\":1529:1534   */\n      dup5\n        /* \"#utility.yul\":1526:1556   */\n      or\n        /* \"#utility.yul\":1516:1556   */\n      swap3\n      pop\n        /* \"#utility.yul\":1245:1562   */\n      pop\n      pop\n        /* \"#utility.yul\":1169:1562   */\n      swap4\n      swap3\n      pop\n      pop\n      pop\n      jump\t// out\n        /* \"#utility.yul\":1568:1645   */\n    tag_24:\n        /* \"#utility.yul\":1605:1612   */\n      0x00\n        /* \"#utility.yul\":1634:1639   */\n      dup2\n        /* \"#utility.yul\":1623:1639   */\n      swap1\n      pop\n        /* \"#utility.yul\":1568:1645   */\n      swap2\n      swap1\n      pop\n      jump\t// out\n        /* \"#utility.yul\":1651:1711   */\n    tag_25:\n        /* \"#utility.yul\":1679:1682   */\n      0x00\n        /* \"#utility.yul\":1700:1705   */\n      dup2\n        /* \"#utility.yul\":1693:1705   */\n      swap1\n      pop\n        /* \"#utility.yul\":1651:1711   */\n      swap2\n      swap1\n      pop\n      jump\t// out\n        /* \"#utility.yul\":1717:1859   */\n    tag_26:\n        /* \"#utility.yul\":1767:1776   */\n      0x00\n        /* \"#utility.yul\":1800:1853   */\n      tag_53\n        /* \"#utility.yul\":1818:1852   */\n      tag_54\n        /* \"#utility.yul\":1827:1851   */\n      tag_55\n        /* \"#utility.yul\":1845:1850   */\n      dup5\n        /* \"#utility.yul\":1827:1851   */\n      tag_24\n      jump\t// in\n    tag_55:\n        /* \"#utility.yul\":1818:1852   */\n      tag_25\n      jump\t// in\n    tag_54:\n        /* \"#utility.yul\":1800:1853   */\n      tag_24\n      jump\t// in\n    tag_53:\n        /* \"#utility.yul\":1787:1853   */\n      swap1\n      pop\n        /* \"#utility.yul\":1717:1859   */\n      swap2\n      swap1\n      pop\n      jump\t// out\n        /* \"#utility.yul\":1865:1940   */\n    tag_27:\n        /* \"#utility.yul\":1908:1911   */\n      0x00\n        /* \"#utility.yul\":1929:1934   */\n      dup2\n        /* \"#utility.yul\":1922:1934   */\n      swap1\n      pop\n        /* \"#utility.yul\":1865:1940   */\n      swap2\n      swap1\n      pop\n      jump\t// out\n        /* \"#utility.yul\":1946:2215   */\n    tag_28:\n        /* \"#utility.yul\":2056:2095   */\n      tag_58\n        /* \"#utility.yul\":2087:2094   */\n      dup4\n        /* \"#utility.yul\":2056:2095   */\n      tag_26\n      jump\t// in\n    tag_58:\n        /* \"#utility.yul\":2117:2208   */\n      tag_59\n        /* \"#utility.yul\":2166:2207   */\n      tag_60\n        /* \"#utility.yul\":2190:2206   */\n      dup3\n        /* \"#utility.yul\":2166:2207   */\n      tag_27\n      jump\t// in\n    tag_60:\n        /* \"#utility.yul\":2158:2164   */\n      dup5\n        /* \"#utility.yul\":2151:2155   */\n      dup5\n        /* \"#utility.yul\":2145:2156   */\n      sload\n        /* \"#utility.yul\":2117:2208   */\n      tag_23\n      jump\t// in\n    tag_59:\n        /* \"#utility.yul\":2111:2115   */\n      dup3\n        /* \"#utility.yul\":2104:2209   */\n      sstore\n        /* \"#utility.yul\":2022:2215   */\n      pop\n        /* \"#utility.yul\":1946:2215   */\n      pop\n      pop\n      pop\n      jump\t// out\n        /* \"#utility.yul\":2221:2294   */\n    tag_29:\n        /* \"#utility.yul\":2266:2269   */\n      0x00\n        /* \"#utility.yul\":2221:2294   */\n      swap1\n      jump\t// out\n        /* \"#utility.yul\":2300:2489   */\n    tag_30:\n        /* \"#utility.yul\":2377:2409   */\n      tag_63\n      tag_29\n      jump\t// in\n    tag_63:\n        /* \"#utility.yul\":2418:2483   */\n      tag_64\n        /* \"#utility.yul\":2476:2482   */\n      dup2\n        /* \"#utility.yul\":2468:2474   */\n      dup5\n        /* \"#utility.yul\":2462:2466   */\n      dup5\n        /* \"#utility.yul\":2418:2483   */\n      tag_28\n      jump\t// in\n    tag_64:\n        /* \"#utility.yul\":2353:2489   */\n      pop\n        /* \"#utility.yul\":2300:2489   */\n      pop\n      pop\n      jump\t// out\n        /* \"#utility.yul\":2495:2681   */\n    tag_31:\n        /* \"#utility.yul\":2555:2675   */\n    tag_66:\n        /* \"#utility.yul\":2572:2575   */\n      dup2\n        /* \"#utility.yul\":2565:2570   */\n      dup2\n        /* \"#utility.yul\":2562:2576   */\n      lt\n        /* \"#utility.yul\":2555:2675   */\n      iszero\n      tag_68\n      jumpi\n        /* \"#utility.yul\":2626:2665   */\n      tag_69\n        /* \"#utility.yul\":2663:2664   */\n      0x00\n        /* \"#utility.yul\":2656:2661   */\n      dup3\n        /* \"#utility.yul\":2626:2665   */\n      tag_30\n      jump\t// in\n    tag_69:\n        /* \"#utility.yul\":2599:2600   */\n      0x01\n        /* \"#utility.yul\":2592:2597   */\n      dup2\n        /* \"#utility.yul\":2588:2601   */\n      add\n        /* \"#utility.yul\":2579:2601   */\n      swap1\n      pop\n        /* \"#utility.yul\":2555:2675   */\n      jump(tag_66)\n    tag_68:\n        /* \"#utility.yul\":2495:2681   */\n      pop\n      pop\n      jump\t// out\n        /* \"#utility.yul\":2687:3230   */\n    tag_32:\n        /* \"#utility.yul\":2788:2790   */\n      0x1f\n        /* \"#utility.yul\":2783:2786   */\n      dup3\n        /* \"#utility.yul\":2780:2791   */\n      gt\n        /* \"#utility.yul\":2777:3223   */\n      iszero\n      tag_71\n      jumpi\n        /* \"#utility.yul\":2822:2860   */\n      tag_72\n        /* \"#utility.yul\":2854:2859   */\n      dup2\n        /* \"#utility.yul\":2822:2860   */\n      tag_20\n      jump\t// in\n    tag_72:\n        /* \"#utility.yul\":2906:2935   */\n      tag_73\n        /* \"#utility.yul\":2924:2934   */\n      dup5\n        /* \"#utility.yul\":2906:2935   */\n      tag_21\n      jump\t// in\n    tag_73:\n        /* \"#utility.yul\":2896:2904   */\n      dup2\n        /* \"#utility.yul\":2892:2936   */\n      add\n        /* \"#utility.yul\":3089:3091   */\n      0x20\n        /* \"#utility.yul\":3077:3087   */\n      dup6\n        /* \"#utility.yul\":3074:3092   */\n      lt\n        /* \"#utility.yul\":3071:3120   */\n      iszero\n      tag_74\n      jumpi\n        /* \"#utility.yul\":3110:3118   */\n      dup2\n        /* \"#utility.yul\":3095:3118   */\n      swap1\n      pop\n        /* \"#utility.yul\":3071:3120   */\n    tag_74:\n        /* \"#utility.yul\":3133:3213   */\n      tag_75\n        /* \"#utility.yul\":3189:3211   */\n      tag_76\n        /* \"#utility.yul\":3207:3210   */\n      dup6\n        /* \"#utility.yul\":3189:3211   */\n      tag_21\n      jump\t// in\n    tag_76:\n        /* \"#utility.yul\":3179:3187   */\n      dup4\n        /* \"#utility.yul\":3175:3212   */\n      add\n        /* \"#utility.yul\":3162:3173   */\n      dup3\n        /* \"#utility.yul\":3133:3213   */\n      tag_31\n      jump\t// in\n    tag_75:\n        /* \"#utility.yul\":2792:3223   */\n      pop\n      pop\n        /* \"#utility.yul\":2777:3223   */\n    tag_71:\n        /* \"#utility.yul\":2687:3230   */\n      pop\n      pop\n      pop\n      jump\t// out\n        /* \"#utility.yul\":3236:3353   */\n    tag_33:\n        /* \"#utility.yul\":3290:3298   */\n      0x00\n        /* \"#utility.yul\":3340:3345   */\n      dup3\n        /* \"#utility.yul\":3334:3338   */\n      dup3\n        /* \"#utility.yul\":3330:3346   */\n      shr\n        /* \"#utility.yul\":3309:3346   */\n      swap1\n      pop\n        /* \"#utility.yul\":3236:3353   */\n      swap3\n      swap2\n      pop\n      pop\n      jump\t// out\n        /* \"#utility.yul\":3359:3528   */\n    tag_34:\n        /* \"#utility.yul\":3403:3409   */\n      0x00\n        /* \"#utility.yul\":3436:3487   */\n      tag_79\n        /* \"#utility.yul\":3484:3485   */\n      0x00\n        /* \"#utility.yul\":3480:3486   */\n      not\n        /* \"#utility.yul\":3472:3477   */\n      dup5\n        /* \"#utility.yul\":3469:3470   */\n      0x08\n        /* \"#utility.yul\":3465:3478   */\n      mul\n        /* \"#utility.yul\":3436:3487   */\n      tag_33\n      jump\t// in\n    tag_79:\n        /* \"#utility.yul\":3432:3488   */\n      not\n        /* \"#utility.yul\":3517:3521   */\n      dup1\n        /* \"#utility.yul\":3511:3515   */\n      dup4\n        /* \"#utility.yul\":3507:3522   */\n      and\n        /* \"#utility.yul\":3497:3522   */\n      swap2\n      pop\n        /* \"#utility.yul\":3410:3528   */\n      pop\n        /* \"#utility.yul\":3359:3528   */\n      swap3\n      swap2\n      pop\n      pop\n      jump\t// out\n        /* \"#utility.yul\":3533:3828   */\n    tag_35:\n        /* \"#utility.yul\":3609:3613   */\n      0x00\n        /* \"#utility.yul\":3755:3784   */\n      tag_81\n        /* \"#utility.yul\":3780:3783   */\n      dup4\n        /* \"#utility.yul\":3774:3778   */\n      dup4\n        /* \"#utility.yul\":3755:3784   */\n      tag_34\n      jump\t// in\n    tag_81:\n        /* \"#utility.yul\":3747:3784   */\n      swap2\n      pop\n        /* \"#utility.yul\":3817:3820   */\n      dup3\n        /* \"#utility.yul\":3814:3815   */\n      0x02\n        /* \"#utility.yul\":3810:3821   */\n      mul\n        /* \"#utility.yul\":3804:3808   */\n      dup3\n        /* \"#utility.yul\":3801:3822   */\n      or\n        /* \"#utility.yul\":3793:3822   */\n      swap1\n      pop\n        /* \"#utility.yul\":3533:3828   */\n      swap3\n      swap2\n      pop\n      pop\n      jump\t// out\n        /* \"#utility.yul\":3833:5228   */\n    tag_6:\n        /* \"#utility.yul\":3950:3987   */\n      tag_83\n        /* \"#utility.yul\":3983:3986   */\n      dup3\n        /* \"#utility.yul\":3950:3987   */\n      tag_16\n      jump\t// in\n    tag_83:\n        /* \"#utility.yul\":4052:4070   */\n      0xffffffffffffffff\n        /* \"#utility.yul\":4044:4050   */\n      dup2\n        /* \"#utility.yul\":4041:4071   */\n      gt\n        /* \"#utility.yul\":4038:4094   */\n      iszero\n      tag_84\n      jumpi\n        /* \"#utility.yul\":4074:4092   */\n      tag_85\n      tag_17\n      jump\t// in\n    tag_85:\n        /* \"#utility.yul\":4038:4094   */\n    tag_84:\n        /* \"#utility.yul\":4118:4156   */\n      tag_86\n        /* \"#utility.yul\":4150:4154   */\n      dup3\n        /* \"#utility.yul\":4144:4155   */\n      sload\n        /* \"#utility.yul\":4118:4156   */\n      tag_19\n      jump\t// in\n    tag_86:\n        /* \"#utility.yul\":4203:4270   */\n      tag_87\n        /* \"#utility.yul\":4263:4269   */\n      dup3\n        /* \"#utility.yul\":4255:4261   */\n      dup3\n        /* \"#utility.yul\":4249:4253   */\n      dup6\n        /* \"#utility.yul\":4203:4270   */\n      tag_32\n      jump\t// in\n    tag_87:\n        /* \"#utility.yul\":4297:4298   */\n      0x00\n        /* \"#utility.yul\":4321:4325   */\n      0x20\n        /* \"#utility.yul\":4308:4325   */\n      swap1\n      pop\n        /* \"#utility.yul\":4353:4355   */\n      0x1f\n        /* \"#utility.yul\":4345:4351   */\n      dup4\n        /* \"#utility.yul\":4342:4356   */\n      gt\n        /* \"#utility.yul\":4370:4371   */\n      0x01\n        /* \"#utility.yul\":4365:4983   */\n      dup2\n      eq\n      tag_89\n      jumpi\n        /* \"#utility.yul\":5027:5028   */\n      0x00\n        /* \"#utility.yul\":5044:5050   */\n      dup5\n        /* \"#utility.yul\":5041:5118   */\n      iszero\n      tag_90\n      jumpi\n        /* \"#utility.yul\":5093:5102   */\n      dup3\n        /* \"#utility.yul\":5088:5091   */\n      dup8\n        /* \"#utility.yul\":5084:5103   */\n      add\n        /* \"#utility.yul\":5078:5104   */\n      mload\n        /* \"#utility.yul\":5069:5104   */\n      swap1\n      pop\n        /* \"#utility.yul\":5041:5118   */\n    tag_90:\n        /* \"#utility.yul\":5144:5211   */\n      tag_91\n        /* \"#utility.yul\":5204:5210   */\n      dup6\n        /* \"#utility.yul\":5197:5202   */\n      dup3\n        /* \"#utility.yul\":5144:5211   */\n      tag_35\n      jump\t// in\n    tag_91:\n        /* \"#utility.yul\":5138:5142   */\n      dup7\n        /* \"#utility.yul\":5131:5212   */\n      sstore\n        /* \"#utility.yul\":5000:5222   */\n      pop\n        /* \"#utility.yul\":4335:5222   */\n      jump(tag_88)\n        /* \"#utility.yul\":4365:4983   */\n    tag_89:\n        /* \"#utility.yul\":4417:4421   */\n      0x1f\n        /* \"#utility.yul\":4413:4422   */\n      not\n        /* \"#utility.yul\":4405:4411   */\n      dup5\n        /* \"#utility.yul\":4401:4423   */\n      and\n        /* \"#utility.yul\":4451:4488   */\n      tag_92\n        /* \"#utility.yul\":4483:4487   */\n      dup7\n        /* \"#utility.yul\":4451:4488   */\n      tag_20\n      jump\t// in\n    tag_92:\n        /* \"#utility.yul\":4510:4511   */\n      0x00\n        /* \"#utility.yul\":4524:4732   */\n    tag_93:\n        /* \"#utility.yul\":4538:4545   */\n      dup3\n        /* \"#utility.yul\":4535:4536   */\n      dup2\n        /* \"#utility.yul\":4532:4546   */\n      lt\n        /* \"#utility.yul\":4524:4732   */\n      iszero\n      tag_95\n      jumpi\n        /* \"#utility.yul\":4617:4626   */\n      dup5\n        /* \"#utility.yul\":4612:4615   */\n      dup10\n        /* \"#utility.yul\":4608:4627   */\n      add\n        /* \"#utility.yul\":4602:4628   */\n      mload\n        /* \"#utility.yul\":4594:4600   */\n      dup3\n        /* \"#utility.yul\":4587:4629   */\n      sstore\n        /* \"#utility.yul\":4668:4669   */\n      0x01\n        /* \"#utility.yul\":4660:4666   */\n      dup3\n        /* \"#utility.yul\":4656:4670   */\n      add\n        /* \"#utility.yul\":4646:4670   */\n      swap2\n      pop\n        /* \"#utility.yul\":4715:4717   */\n      0x20\n        /* \"#utility.yul\":4704:4713   */\n      dup6\n        /* \"#utility.yul\":4700:4718   */\n      add\n        /* \"#utility.yul\":4687:4718   */\n      swap5\n      pop\n        /* \"#utility.yul\":4561:4565   */\n      0x20\n        /* \"#utility.yul\":4558:4559   */\n      dup2\n        /* \"#utility.yul\":4554:4566   */\n      add\n        /* \"#utility.yul\":4549:4566   */\n      swap1\n      pop\n        /* \"#utility.yul\":4524:4732   */\n      jump(tag_93)\n    tag_95:\n        /* \"#utility.yul\":4760:4766   */\n      dup7\n        /* \"#utility.yul\":4751:4758   */\n      dup4\n        /* \"#utility.yul\":4748:4767   */\n      lt\n        /* \"#utility.yul\":4745:4924   */\n      iszero\n      tag_96\n      jumpi\n        /* \"#utility.yul\":4818:4827   */\n      dup5\n        /* \"#utility.yul\":4813:4816   */\n      dup10\n        /* \"#utility.yul\":4809:4828   */\n      add\n        /* \"#utility.yul\":4803:4829   */\n      mload\n        /* \"#utility.yul\":4861:4909   */\n      tag_97\n        /* \"#utility.yul\":4903:4907   */\n      0x1f\n        /* \"#utility.yul\":4895:4901   */\n      dup10\n        /* \"#utility.yul\":4891:4908   */\n      and\n        /* \"#utility.yul\":4880:4889   */\n      dup3\n        /* \"#utility.yul\":4861:4909   */\n      tag_34\n      jump\t// in\n    tag_97:\n        /* \"#utility.yul\":4853:4859   */\n      dup4\n        /* \"#utility.yul\":4846:4910   */\n      sstore\n        /* \"#utility.yul\":4768:4924   */\n      pop\n        /* \"#utility.yul\":4745:4924   */\n    tag_96:\n        /* \"#utility.yul\":4970:4971   */\n      0x01\n        /* \"#utility.yul\":4966:4967   */\n      0x02\n        /* \"#utility.yul\":4958:4964   */\n      dup9\n        /* \"#utility.yul\":4954:4968   */\n      mul\n        /* \"#utility.yul\":4950:4972   */\n      add\n        /* \"#utility.yul\":4944:4948   */\n      dup9\n        /* \"#utility.yul\":4937:4973   */\n      sstore\n        /* \"#utility.yul\":4372:4983   */\n      pop\n      pop\n      pop\n        /* \"#utility.yul\":4335:5222   */\n    tag_88:\n      pop\n        /* \"#utility.yul\":3925:5228   */\n      pop\n      pop\n      pop\n        /* \"#utility.yul\":3833:5228   */\n      pop\n      pop\n      jump\t// out\n        /* \"Token.sol\":170:1121  contract FlipToken is ERC20(\"flipCoin\", \"FP\"), Ownable {... */\n    tag_13:\n      dataSize(sub_0)\n      dup1\n      dataOffset(sub_0)\n      0x00\n      codecopy\n      0x00\n      return\n    stop\n\n    sub_0: assembly {\n            /* \"Token.sol\":170:1121  contract FlipToken is ERC20(\"flipCoin\", \"FP\"), Ownable {... */\n          mstore(0x40, 0x80)\n          callvalue\n          dup1\n          iszero\n          tag_1\n          jumpi\n          0x00\n          dup1\n          revert\n        tag_1:\n          pop\n          jumpi(tag_2, lt(calldatasize, 0x04))\n          shr(0xe0, calldataload(0x00))\n          dup1\n          0x715018a6\n          gt\n          tag_18\n          jumpi\n          dup1\n          0xa457c2d7\n          gt\n          tag_19\n          jumpi\n          dup1\n          0xa457c2d7\n          eq\n          tag_14\n          jumpi\n          dup1\n          0xa9059cbb\n          eq\n          tag_15\n          jumpi\n          dup1\n          0xdd62ed3e\n          eq\n          tag_16\n          jumpi\n          dup1\n          0xf2fde38b\n          eq\n          tag_17\n          jumpi\n          jump(tag_2)\n        tag_19:\n          dup1\n          0x715018a6\n          eq\n          tag_10\n          jumpi\n          dup1\n          0x8da5cb5b\n          eq\n          tag_11\n          jumpi\n          dup1\n          0x95d89b41\n          eq\n          tag_12\n          jumpi\n          dup1\n          0xa0712d68\n          eq\n          tag_13\n          jumpi\n          jump(tag_2)\n        tag_18:\n          dup1\n          0x23b872dd\n          gt\n          tag_20\n          jumpi\n          dup1\n          0x23b872dd\n          eq\n          tag_6\n          jumpi\n          dup1\n          0x313ce567\n          eq\n          tag_7\n          jumpi\n          dup1\n          0x39509351\n          eq\n          tag_8\n          jumpi\n          dup1\n          0x70a08231\n          eq\n          tag_9\n          jumpi\n          jump(tag_2)\n        tag_20:\n          dup1\n          0x06fdde03\n          eq\n          tag_3\n          jumpi\n          dup1\n          0x095ea7b3\n          eq\n          tag_4\n          jumpi\n          dup1\n          0x18160ddd\n          eq\n          tag_5\n          jumpi\n        tag_2:\n          0x00\n          dup1\n          revert\n            /* \"@openzeppelin/contracts/token/ERC20/ERC20.sol\":2158:2256   */\n        tag_3:\n          tag_21\n          tag_22\n          jump\t// in\n        tag_21:\n          mload(0x40)\n          tag_23\n          swap2\n          swap1\n          tag_24\n          jump\t// in\n        tag_23:\n          mload(0x40)\n          dup1\n          swap2\n          sub\n          swap1\n          return\n            /* \"Token.sol\":574:808  function approve(... */\n        tag_4:\n          tag_25\n          0x04\n          dup1\n          calldatasize\n          sub\n          dup2\n          add\n          swap1\n          tag_26\n          swap2\n          swap1\n          tag_27\n          jump\t// in\n        tag_26:\n          tag_28\n          jump\t// in\n        tag_25:\n          mload(0x40)\n          tag_29\n          swap2\n          swap1\n          tag_30\n          jump\t// in\n        tag_29:\n          mload(0x40)\n          dup1\n          swap2\n          sub\n          swap1\n          return\n            /* \"@openzeppelin/contracts/token/ERC20/ERC20.sol\":3255:3361   */\n        tag_5:\n          tag_31\n          tag_32\n          jump\t// in\n        tag_31:\n          mload(0x40)\n          tag_33\n          swap2\n          swap1\n          tag_34\n          jump\t// in\n        tag_33:\n          mload(0x40)\n          dup1\n          swap2\n          sub\n          swap1\n          return\n            /* \"Token.sol\":816:1118  function transferFrom(... */\n        tag_6:\n          tag_35\n          0x04\n          dup1\n          calldatasize\n          sub\n          dup2\n          add\n          swap1\n          tag_36\n          swap2\n          swap1\n          tag_37\n          jump\t// in\n        tag_36:\n          tag_38\n          jump\t// in\n        tag_35:\n          mload(0x40)\n          tag_39\n          swap2\n          swap1\n          tag_30\n          jump\t// in\n        tag_39:\n          mload(0x40)\n          dup1\n          swap2\n          sub\n          swap1\n          return\n            /* \"@openzeppelin/contracts/token/ERC20/ERC20.sol\":3104:3195   */\n        tag_7:\n          tag_40\n          tag_41\n          jump\t// in\n        tag_40:\n          mload(0x40)\n          tag_42\n          swap2\n          swap1\n          tag_43\n          jump\t// in\n        tag_42:\n          mload(0x40)\n          dup1\n          swap2\n          sub\n          swap1\n          return\n            /* \"@openzeppelin/contracts/token/ERC20/ERC20.sol\":5854:6088   */\n        tag_8:\n          tag_44\n          0x04\n          dup1\n          calldatasize\n          sub\n          dup2\n          add\n          swap1\n          tag_45\n          swap2\n          swap1\n          tag_27\n          jump\t// in\n        tag_45:\n          tag_46\n          jump\t// in\n        tag_44:\n          mload(0x40)\n          tag_47\n          swap2\n          swap1\n          tag_30\n          jump\t// in\n        tag_47:\n          mload(0x40)\n          dup1\n          swap2\n          sub\n          swap1\n          return\n            /* \"@openzeppelin/contracts/token/ERC20/ERC20.sol\":3419:3544   */\n        tag_9:\n          tag_48\n          0x04\n          dup1\n          calldatasize\n          sub\n          dup2\n          add\n          swap1\n          tag_49\n          swap2\n          swap1\n          tag_50\n          jump\t// in\n        tag_49:\n          tag_51\n          jump\t// in\n        tag_48:\n          mload(0x40)\n          tag_52\n          swap2\n          swap1\n          tag_34\n          jump\t// in\n        tag_52:\n          mload(0x40)\n          dup1\n          swap2\n          sub\n          swap1\n          return\n            /* \"@openzeppelin/contracts/access/Ownable.sol\":1824:1925   */\n        tag_10:\n          tag_53\n          tag_54\n          jump\t// in\n        tag_53:\n          stop\n            /* \"@openzeppelin/contracts/access/Ownable.sol\":1201:1286   */\n        tag_11:\n          tag_55\n          tag_56\n          jump\t// in\n        tag_55:\n          mload(0x40)\n          tag_57\n          swap2\n          swap1\n          tag_58\n          jump\t// in\n        tag_57:\n          mload(0x40)\n          dup1\n          swap2\n          sub\n          swap1\n          return\n            /* \"@openzeppelin/contracts/token/ERC20/ERC20.sol\":2369:2471   */\n        tag_12:\n          tag_59\n          tag_60\n          jump\t// in\n        tag_59:\n          mload(0x40)\n          tag_61\n          swap2\n          swap1\n          tag_24\n          jump\t// in\n        tag_61:\n          mload(0x40)\n          dup1\n          swap2\n          sub\n          swap1\n          return\n            /* \"Token.sol\":232:331  function mint(uint supply) public onlyOwner {... */\n        tag_13:\n          tag_62\n          0x04\n          dup1\n          calldatasize\n          sub\n          dup2\n          add\n          swap1\n          tag_63\n          swap2\n          swap1\n          tag_64\n          jump\t// in\n        tag_63:\n          tag_65\n          jump\t// in\n        tag_62:\n          stop\n            /* \"@openzeppelin/contracts/token/ERC20/ERC20.sol\":6575:7002   */\n        tag_14:\n          tag_66\n          0x04\n          dup1\n          calldatasize\n          sub\n          dup2\n          add\n          swap1\n          tag_67\n          swap2\n          swap1\n          tag_27\n          jump\t// in\n        tag_67:\n          tag_68\n          jump\t// in\n        tag_66:\n          mload(0x40)\n          tag_69\n          swap2\n          swap1\n          tag_30\n          jump\t// in\n        tag_69:\n          mload(0x40)\n          dup1\n          swap2\n          sub\n          swap1\n          return\n            /* \"Token.sol\":339:566  function transfer(... */\n        tag_15:\n          tag_70\n          0x04\n          dup1\n          calldatasize\n          sub\n          dup2\n          add\n          swap1\n          tag_71\n          swap2\n          swap1\n          tag_27\n          jump\t// in\n        tag_71:\n          tag_72\n          jump\t// in\n        tag_70:\n          mload(0x40)\n          tag_73\n          swap2\n          swap1\n          tag_30\n          jump\t// in\n        tag_73:\n          mload(0x40)\n          dup1\n          swap2\n          sub\n          swap1\n          return\n            /* \"@openzeppelin/contracts/token/ERC20/ERC20.sol\":3987:4136   */\n        tag_16:\n          tag_74\n          0x04\n          dup1\n          calldatasize\n          sub\n          dup2\n          add\n          swap1\n          tag_75\n          swap2\n          swap1\n          tag_76\n          jump\t// in\n        tag_75:\n          tag_77\n          jump\t// in\n        tag_74:\n          mload(0x40)\n          tag_78\n          swap2\n          swap1\n          tag_34\n          jump\t// in\n        tag_78:\n          mload(0x40)\n          dup1\n          swap2\n          sub\n          swap1\n          return\n            /* \"@openzeppelin/contracts/access/Ownable.sol\":2074:2272   */\n        tag_17:\n          tag_79\n          0x04\n          dup1\n          calldatasize\n          sub\n          dup2\n          add\n          swap1\n          tag_80\n          swap2\n          swap1\n          tag_50\n          jump\t// in\n        tag_80:\n          tag_81\n          jump\t// in\n        tag_79:\n          stop\n            /* \"@openzeppelin/contracts/token/ERC20/ERC20.sol\":2158:2256   */\n        tag_22:\n            /* \"@openzeppelin/contracts/token/ERC20/ERC20.sol\":2212:2225   */\n          0x60\n            /* \"@openzeppelin/contracts/token/ERC20/ERC20.sol\":2244:2249   */\n          0x03\n            /* \"@openzeppelin/contracts/token/ERC20/ERC20.sol\":2237:2249   */\n          dup1\n          sload\n          tag_83\n          swap1\n          tag_84\n          jump\t// in\n        tag_83:\n          dup1\n          0x1f\n          add\n          0x20\n          dup1\n          swap2\n          div\n          mul\n          0x20\n          add\n          mload(0x40)\n          swap1\n          dup2\n          add\n          0x40\n          mstore\n          dup1\n          swap3\n          swap2\n          swap1\n          dup2\n          dup2\n          mstore\n          0x20\n          add\n          dup3\n          dup1\n          sload\n          tag_85\n          swap1\n          tag_84\n          jump\t// in\n        tag_85:\n          dup1\n          iszero\n          tag_86\n          jumpi\n          dup1\n          0x1f\n          lt\n          tag_87\n          jumpi\n          0x0100\n          dup1\n          dup4\n          sload\n          div\n          mul\n          dup4\n          mstore\n          swap2\n          0x20\n          add\n          swap2\n          jump(tag_86)\n        tag_87:\n          dup3\n          add\n          swap2\n          swap1\n          0x00\n          mstore\n          keccak256(0x00, 0x20)\n          swap1\n        tag_88:\n          dup2\n          sload\n          dup2\n          mstore\n          swap1\n          0x01\n          add\n          swap1\n          0x20\n          add\n          dup1\n          dup4\n          gt\n          tag_88\n          jumpi\n          dup3\n          swap1\n          sub\n          0x1f\n          and\n          dup3\n          add\n          swap2\n        tag_86:\n          pop\n          pop\n          pop\n          pop\n          pop\n          swap1\n          pop\n            /* \"@openzeppelin/contracts/token/ERC20/ERC20.sol\":2158:2256   */\n          swap1\n          jump\t// out\n            /* \"Token.sol\":574:808  function approve(... */\n        tag_28:\n            /* \"Token.sol\":689:693  bool */\n          0x00\n            /* \"@openzeppelin/contracts/access/Ownable.sol\":1094:1107   */\n          tag_90\n            /* \"@openzeppelin/contracts/access/Ownable.sol\":1094:1105   */\n          tag_91\n            /* \"@openzeppelin/contracts/access/Ownable.sol\":1094:1107   */\n          jump\t// in\n        tag_90:\n            /* \"Token.sol\":706:721  address spender */\n          0x00\n            /* \"Token.sol\":724:736  _msgSender() */\n          tag_93\n            /* \"Token.sol\":724:734  _msgSender */\n          tag_94\n            /* \"Token.sol\":724:736  _msgSender() */\n          jump\t// in\n        tag_93:\n            /* \"Token.sol\":706:736  address spender = _msgSender() */\n          swap1\n          pop\n            /* \"Token.sol\":747:778  _approve(owner, spender, value) */\n          tag_95\n            /* \"Token.sol\":756:761  owner */\n          dup5\n            /* \"Token.sol\":763:770  spender */\n          dup3\n            /* \"Token.sol\":772:777  value */\n          dup6\n            /* \"Token.sol\":747:755  _approve */\n          tag_96\n            /* \"Token.sol\":747:778  _approve(owner, spender, value) */\n          jump\t// in\n        tag_95:\n            /* \"Token.sol\":796:800  true */\n          0x01\n            /* \"Token.sol\":789:800  return true */\n          swap2\n          pop\n          pop\n            /* \"Token.sol\":574:808  function approve(... */\n          swap3\n          swap2\n          pop\n          pop\n          jump\t// out\n            /* \"@openzeppelin/contracts/token/ERC20/ERC20.sol\":3255:3361   */\n        tag_32:\n            /* \"@openzeppelin/contracts/token/ERC20/ERC20.sol\":3316:3323   */\n          0x00\n            /* \"@openzeppelin/contracts/token/ERC20/ERC20.sol\":3342:3354   */\n          sload(0x02)\n            /* \"@openzeppelin/contracts/token/ERC20/ERC20.sol\":3335:3354   */\n          swap1\n          pop\n            /* \"@openzeppelin/contracts/token/ERC20/ERC20.sol\":3255:3361   */\n          swap1\n          jump\t// out\n            /* \"Token.sol\":816:1118  function transferFrom(... */\n        tag_38:\n            /* \"Token.sol\":956:960  bool */\n          0x00\n            /* \"@openzeppelin/contracts/access/Ownable.sol\":1094:1107   */\n          tag_99\n            /* \"@openzeppelin/contracts/access/Ownable.sol\":1094:1105   */\n          tag_91\n            /* \"@openzeppelin/contracts/access/Ownable.sol\":1094:1107   */\n          jump\t// in\n        tag_99:\n            /* \"Token.sol\":973:988  address spender */\n          0x00\n            /* \"Token.sol\":991:1003  _msgSender() */\n          tag_101\n            /* \"Token.sol\":991:1001  _msgSender */\n          tag_94\n            /* \"Token.sol\":991:1003  _msgSender() */\n          jump\t// in\n        tag_101:\n            /* \"Token.sol\":973:1003  address spender = _msgSender() */\n          swap1\n          pop\n            /* \"Token.sol\":1014:1051  _spendAllowance(from, spender, value) */\n          tag_102\n            /* \"Token.sol\":1030:1034  from */\n          dup6\n            /* \"Token.sol\":1036:1043  spender */\n          dup3\n            /* \"Token.sol\":1045:1050  value */\n          dup6\n            /* \"Token.sol\":1014:1029  _spendAllowance */\n          tag_103\n            /* \"Token.sol\":1014:1051  _spendAllowance(from, spender, value) */\n          jump\t// in\n        tag_102:\n            /* \"Token.sol\":1062:1088  _transfer(from, to, value) */\n          tag_104\n            /* \"Token.sol\":1072:1076  from */\n          dup6\n            /* \"Token.sol\":1078:1080  to */\n          dup6\n            /* \"Token.sol\":1082:1087  value */\n          dup6\n            /* \"Token.sol\":1062:1071  _transfer */\n          tag_105\n            /* \"Token.sol\":1062:1088  _transfer(from, to, value) */\n          jump\t// in\n        tag_104:\n            /* \"Token.sol\":1106:1110  true */\n          0x01\n            /* \"Token.sol\":1099:1110  return true */\n          swap2\n          pop\n          pop\n            /* \"Token.sol\":816:1118  function transferFrom(... */\n          swap4\n          swap3\n          pop\n          pop\n          pop\n          jump\t// out\n            /* \"@openzeppelin/contracts/token/ERC20/ERC20.sol\":3104:3195   */\n        tag_41:\n            /* \"@openzeppelin/contracts/token/ERC20/ERC20.sol\":3162:3167   */\n          0x00\n            /* \"@openzeppelin/contracts/token/ERC20/ERC20.sol\":3186:3188   */\n          0x12\n            /* \"@openzeppelin/contracts/token/ERC20/ERC20.sol\":3179:3188   */\n          swap1\n          pop\n            /* \"@openzeppelin/contracts/token/ERC20/ERC20.sol\":3104:3195   */\n          swap1\n          jump\t// out\n            /* \"@openzeppelin/contracts/token/ERC20/ERC20.sol\":5854:6088   */\n        tag_46:\n            /* \"@openzeppelin/contracts/token/ERC20/ERC20.sol\":5942:5946   */\n          0x00\n            /* \"@openzeppelin/contracts/token/ERC20/ERC20.sol\":5958:5971   */\n          dup1\n            /* \"@openzeppelin/contracts/token/ERC20/ERC20.sol\":5974:5986   */\n          tag_108\n            /* \"@openzeppelin/contracts/token/ERC20/ERC20.sol\":5974:5984   */\n          tag_94\n            /* \"@openzeppelin/contracts/token/ERC20/ERC20.sol\":5974:5986   */\n          jump\t// in\n        tag_108:\n            /* \"@openzeppelin/contracts/token/ERC20/ERC20.sol\":5958:5986   */\n          swap1\n          pop\n            /* \"@openzeppelin/contracts/token/ERC20/ERC20.sol\":5996:6060   */\n          tag_109\n            /* \"@openzeppelin/contracts/token/ERC20/ERC20.sol\":6005:6010   */\n          dup2\n            /* \"@openzeppelin/contracts/token/ERC20/ERC20.sol\":6012:6019   */\n          dup6\n            /* \"@openzeppelin/contracts/token/ERC20/ERC20.sol\":6049:6059   */\n          dup6\n            /* \"@openzeppelin/contracts/token/ERC20/ERC20.sol\":6021:6046   */\n          tag_110\n            /* \"@openzeppelin/contracts/token/ERC20/ERC20.sol\":6031:6036   */\n          dup6\n            /* \"@openzeppelin/contracts/token/ERC20/ERC20.sol\":6038:6045   */\n          dup10\n            /* \"@openzeppelin/contracts/token/ERC20/ERC20.sol\":6021:6030   */\n          tag_77\n            /* \"@openzeppelin/contracts/token/ERC20/ERC20.sol\":6021:6046   */\n          jump\t// in\n        tag_110:\n            /* \"@openzeppelin/contracts/token/ERC20/ERC20.sol\":6021:6059   */\n          tag_111\n          swap2\n          swap1\n          tag_112\n          jump\t// in\n        tag_111:\n            /* \"@openzeppelin/contracts/token/ERC20/ERC20.sol\":5996:6004   */\n          tag_96\n            /* \"@openzeppelin/contracts/token/ERC20/ERC20.sol\":5996:6060   */\n          jump\t// in\n        tag_109:\n            /* \"@openzeppelin/contracts/token/ERC20/ERC20.sol\":6077:6081   */\n          0x01\n            /* \"@openzeppelin/contracts/token/ERC20/ERC20.sol\":6070:6081   */\n          swap2\n          pop\n          pop\n            /* \"@openzeppelin/contracts/token/ERC20/ERC20.sol\":5854:6088   */\n          swap3\n          swap2\n          pop\n          pop\n          jump\t// out\n            /* \"@openzeppelin/contracts/token/ERC20/ERC20.sol\":3419:3544   */\n        tag_51:\n            /* \"@openzeppelin/contracts/token/ERC20/ERC20.sol\":3493:3500   */\n          0x00\n            /* \"@openzeppelin/contracts/token/ERC20/ERC20.sol\":3519:3528   */\n          dup1\n            /* \"@openzeppelin/contracts/token/ERC20/ERC20.sol\":3519:3537   */\n          0x00\n            /* \"@openzeppelin/contracts/token/ERC20/ERC20.sol\":3529:3536   */\n          dup4\n            /* \"@openzeppelin/contracts/token/ERC20/ERC20.sol\":3519:3537   */\n          0xffffffffffffffffffffffffffffffffffffffff\n          and\n          0xffffffffffffffffffffffffffffffffffffffff\n          and\n          dup2\n          mstore\n          0x20\n          add\n          swap1\n          dup2\n          mstore\n          0x20\n          add\n          0x00\n          keccak256\n          sload\n            /* \"@openzeppelin/contracts/token/ERC20/ERC20.sol\":3512:3537   */\n          swap1\n          pop\n            /* \"@openzeppelin/contracts/token/ERC20/ERC20.sol\":3419:3544   */\n          swap2\n          swap1\n          pop\n          jump\t// out\n            /* \"@openzeppelin/contracts/access/Ownable.sol\":1824:1925   */\n        tag_54:\n            /* \"@openzeppelin/contracts/access/Ownable.sol\":1094:1107   */\n          tag_115\n            /* \"@openzeppelin/contracts/access/Ownable.sol\":1094:1105   */\n          tag_91\n            /* \"@openzeppelin/contracts/access/Ownable.sol\":1094:1107   */\n          jump\t// in\n        tag_115:\n            /* \"@openzeppelin/contracts/access/Ownable.sol\":1888:1918   */\n          tag_117\n            /* \"@openzeppelin/contracts/access/Ownable.sol\":1915:1916   */\n          0x00\n            /* \"@openzeppelin/contracts/access/Ownable.sol\":1888:1906   */\n          tag_118\n            /* \"@openzeppelin/contracts/access/Ownable.sol\":1888:1918   */\n          jump\t// in\n        tag_117:\n            /* \"@openzeppelin/contracts/access/Ownable.sol\":1824:1925   */\n          jump\t// out\n            /* \"@openzeppelin/contracts/access/Ownable.sol\":1201:1286   */\n        tag_56:\n            /* \"@openzeppelin/contracts/access/Ownable.sol\":1247:1254   */\n          0x00\n            /* \"@openzeppelin/contracts/access/Ownable.sol\":1273:1279   */\n          0x05\n          0x00\n          swap1\n          sload\n          swap1\n          0x0100\n          exp\n          swap1\n          div\n          0xffffffffffffffffffffffffffffffffffffffff\n          and\n            /* \"@openzeppelin/contracts/access/Ownable.sol\":1266:1279   */\n          swap1\n          pop\n            /* \"@openzeppelin/contracts/access/Ownable.sol\":1201:1286   */\n          swap1\n          jump\t// out\n            /* \"@openzeppelin/contracts/token/ERC20/ERC20.sol\":2369:2471   */\n        tag_60:\n            /* \"@openzeppelin/contracts/token/ERC20/ERC20.sol\":2425:2438   */\n          0x60\n            /* \"@openzeppelin/contracts/token/ERC20/ERC20.sol\":2457:2464   */\n          0x04\n            /* \"@openzeppelin/contracts/token/ERC20/ERC20.sol\":2450:2464   */\n          dup1\n          sload\n          tag_121\n          swap1\n          tag_84\n          jump\t// in\n        tag_121:\n          dup1\n          0x1f\n          add\n          0x20\n          dup1\n          swap2\n          div\n          mul\n          0x20\n          add\n          mload(0x40)\n          swap1\n          dup2\n          add\n          0x40\n          mstore\n          dup1\n          swap3\n          swap2\n          swap1\n          dup2\n          dup2\n          mstore\n          0x20\n          add\n          dup3\n          dup1\n          sload\n          tag_122\n          swap1\n          tag_84\n          jump\t// in\n        tag_122:\n          dup1\n          iszero\n          tag_123\n          jumpi\n          dup1\n          0x1f\n          lt\n          tag_124\n          jumpi\n          0x0100\n          dup1\n          dup4\n          sload\n          div\n          mul\n          dup4\n          mstore\n          swap2\n          0x20\n          add\n          swap2\n          jump(tag_123)\n        tag_124:\n          dup3\n          add\n          swap2\n          swap1\n          0x00\n          mstore\n          keccak256(0x00, 0x20)\n          swap1\n        tag_125:\n          dup2\n          sload\n          dup2\n          mstore\n          swap1\n          0x01\n          add\n          swap1\n          0x20\n          add\n          dup1\n          dup4\n          gt\n          tag_125\n          jumpi\n          dup3\n          swap1\n          sub\n          0x1f\n          and\n          dup3\n          add\n          swap2\n        tag_123:\n          pop\n          pop\n          pop\n          pop\n          pop\n          swap1\n          pop\n            /* \"@openzeppelin/contracts/token/ERC20/ERC20.sol\":2369:2471   */\n          swap1\n          jump\t// out\n            /* \"Token.sol\":232:331  function mint(uint supply) public onlyOwner {... */\n        tag_65:\n            /* \"@openzeppelin/contracts/access/Ownable.sol\":1094:1107   */\n          tag_127\n            /* \"@openzeppelin/contracts/access/Ownable.sol\":1094:1105   */\n          tag_91\n            /* \"@openzeppelin/contracts/access/Ownable.sol\":1094:1107   */\n          jump\t// in\n        tag_127:\n            /* \"Token.sol\":287:323  _mint(msg.sender, supply * 10 ** 18) */\n          tag_129\n            /* \"Token.sol\":293:303  msg.sender */\n          caller\n            /* \"Token.sol\":314:322  10 ** 18 */\n          0x0de0b6b3a7640000\n            /* \"Token.sol\":305:311  supply */\n          dup4\n            /* \"Token.sol\":305:322  supply * 10 ** 18 */\n          tag_130\n          swap2\n          swap1\n          tag_131\n          jump\t// in\n        tag_130:\n            /* \"Token.sol\":287:292  _mint */\n          tag_132\n            /* \"Token.sol\":287:323  _mint(msg.sender, supply * 10 ** 18) */\n          jump\t// in\n        tag_129:\n            /* \"Token.sol\":232:331  function mint(uint supply) public onlyOwner {... */\n          pop\n          jump\t// out\n            /* \"@openzeppelin/contracts/token/ERC20/ERC20.sol\":6575:7002   */\n        tag_68:\n            /* \"@openzeppelin/contracts/token/ERC20/ERC20.sol\":6668:6672   */\n          0x00\n            /* \"@openzeppelin/contracts/token/ERC20/ERC20.sol\":6684:6697   */\n          dup1\n            /* \"@openzeppelin/contracts/token/ERC20/ERC20.sol\":6700:6712   */\n          tag_134\n            /* \"@openzeppelin/contracts/token/ERC20/ERC20.sol\":6700:6710   */\n          tag_94\n            /* \"@openzeppelin/contracts/token/ERC20/ERC20.sol\":6700:6712   */\n          jump\t// in\n        tag_134:\n            /* \"@openzeppelin/contracts/token/ERC20/ERC20.sol\":6684:6712   */\n          swap1\n          pop\n            /* \"@openzeppelin/contracts/token/ERC20/ERC20.sol\":6722:6746   */\n          0x00\n            /* \"@openzeppelin/contracts/token/ERC20/ERC20.sol\":6749:6774   */\n          tag_135\n            /* \"@openzeppelin/contracts/token/ERC20/ERC20.sol\":6759:6764   */\n          dup3\n            /* \"@openzeppelin/contracts/token/ERC20/ERC20.sol\":6766:6773   */\n          dup7\n            /* \"@openzeppelin/contracts/token/ERC20/ERC20.sol\":6749:6758   */\n          tag_77\n            /* \"@openzeppelin/contracts/token/ERC20/ERC20.sol\":6749:6774   */\n          jump\t// in\n        tag_135:\n            /* \"@openzeppelin/contracts/token/ERC20/ERC20.sol\":6722:6774   */\n          swap1\n          pop\n            /* \"@openzeppelin/contracts/token/ERC20/ERC20.sol\":6812:6827   */\n          dup4\n            /* \"@openzeppelin/contracts/token/ERC20/ERC20.sol\":6792:6808   */\n          dup2\n            /* \"@openzeppelin/contracts/token/ERC20/ERC20.sol\":6792:6827   */\n          lt\n          iszero\n            /* \"@openzeppelin/contracts/token/ERC20/ERC20.sol\":6784:6869   */\n          tag_136\n          jumpi\n          mload(0x40)\n          0x08c379a000000000000000000000000000000000000000000000000000000000\n          dup2\n          mstore\n          0x04\n          add\n          tag_137\n          swap1\n          tag_138\n          jump\t// in\n        tag_137:\n          mload(0x40)\n          dup1\n          swap2\n          sub\n          swap1\n          revert\n        tag_136:\n            /* \"@openzeppelin/contracts/token/ERC20/ERC20.sol\":6903:6963   */\n          tag_139\n            /* \"@openzeppelin/contracts/token/ERC20/ERC20.sol\":6912:6917   */\n          dup3\n            /* \"@openzeppelin/contracts/token/ERC20/ERC20.sol\":6919:6926   */\n          dup7\n            /* \"@openzeppelin/contracts/token/ERC20/ERC20.sol\":6947:6962   */\n          dup7\n            /* \"@openzeppelin/contracts/token/ERC20/ERC20.sol\":6928:6944   */\n          dup5\n            /* \"@openzeppelin/contracts/token/ERC20/ERC20.sol\":6928:6962   */\n          sub\n            /* \"@openzeppelin/contracts/token/ERC20/ERC20.sol\":6903:6911   */\n          tag_96\n            /* \"@openzeppelin/contracts/token/ERC20/ERC20.sol\":6903:6963   */\n          jump\t// in\n        tag_139:\n            /* \"@openzeppelin/contracts/token/ERC20/ERC20.sol\":6991:6995   */\n          0x01\n            /* \"@openzeppelin/contracts/token/ERC20/ERC20.sol\":6984:6995   */\n          swap3\n          pop\n          pop\n          pop\n            /* \"@openzeppelin/contracts/token/ERC20/ERC20.sol\":6575:7002   */\n          swap3\n          swap2\n          pop\n          pop\n          jump\t// out\n            /* \"Token.sol\":339:566  function transfer(... */\n        tag_72:\n            /* \"Token.sol\":452:456  bool */\n          0x00\n            /* \"@openzeppelin/contracts/access/Ownable.sol\":1094:1107   */\n          tag_141\n            /* \"@openzeppelin/contracts/access/Ownable.sol\":1094:1105   */\n          tag_91\n            /* \"@openzeppelin/contracts/access/Ownable.sol\":1094:1107   */\n          jump\t// in\n        tag_141:\n            /* \"Token.sol\":469:482  address owner */\n          0x00\n            /* \"Token.sol\":485:497  _msgSender() */\n          tag_143\n            /* \"Token.sol\":485:495  _msgSender */\n          tag_94\n            /* \"Token.sol\":485:497  _msgSender() */\n          jump\t// in\n        tag_143:\n            /* \"Token.sol\":469:497  address owner = _msgSender() */\n          swap1\n          pop\n            /* \"Token.sol\":508:535  _transfer(owner, to, value) */\n          tag_144\n            /* \"Token.sol\":518:523  owner */\n          dup2\n            /* \"Token.sol\":525:527  to */\n          dup6\n            /* \"Token.sol\":529:534  value */\n          dup6\n            /* \"Token.sol\":508:517  _transfer */\n          tag_105\n            /* \"Token.sol\":508:535  _transfer(owner, to, value) */\n          jump\t// in\n        tag_144:\n            /* \"Token.sol\":554:558  true */\n          0x01\n            /* \"Token.sol\":547:558  return true */\n          swap2\n          pop\n          pop\n            /* \"Token.sol\":339:566  function transfer(... */\n          swap3\n          swap2\n          pop\n          pop\n          jump\t// out\n            /* \"@openzeppelin/contracts/token/ERC20/ERC20.sol\":3987:4136   */\n        tag_77:\n            /* \"@openzeppelin/contracts/token/ERC20/ERC20.sol\":4076:4083   */\n          0x00\n            /* \"@openzeppelin/contracts/token/ERC20/ERC20.sol\":4102:4113   */\n          0x01\n            /* \"@openzeppelin/contracts/token/ERC20/ERC20.sol\":4102:4120   */\n          0x00\n            /* \"@openzeppelin/contracts/token/ERC20/ERC20.sol\":4114:4119   */\n          dup5\n            /* \"@openzeppelin/contracts/token/ERC20/ERC20.sol\":4102:4120   */\n          0xffffffffffffffffffffffffffffffffffffffff\n          and\n          0xffffffffffffffffffffffffffffffffffffffff\n          and\n          dup2\n          mstore\n          0x20\n          add\n          swap1\n          dup2\n          mstore\n          0x20\n          add\n          0x00\n          keccak256\n            /* \"@openzeppelin/contracts/token/ERC20/ERC20.sol\":4102:4129   */\n          0x00\n            /* \"@openzeppelin/contracts/token/ERC20/ERC20.sol\":4121:4128   */\n          dup4\n            /* \"@openzeppelin/contracts/token/ERC20/ERC20.sol\":4102:4129   */\n          0xffffffffffffffffffffffffffffffffffffffff\n          and\n          0xffffffffffffffffffffffffffffffffffffffff\n          and\n          dup2\n          mstore\n          0x20\n          add\n          swap1\n          dup2\n          mstore\n          0x20\n          add\n          0x00\n          keccak256\n          sload\n            /* \"@openzeppelin/contracts/token/ERC20/ERC20.sol\":4095:4129   */\n          swap1\n          pop\n            /* \"@openzeppelin/contracts/token/ERC20/ERC20.sol\":3987:4136   */\n          swap3\n          swap2\n          pop\n          pop\n          jump\t// out\n            /* \"@openzeppelin/contracts/access/Ownable.sol\":2074:2272   */\n        tag_81:\n            /* \"@openzeppelin/contracts/access/Ownable.sol\":1094:1107   */\n          tag_147\n            /* \"@openzeppelin/contracts/access/Ownable.sol\":1094:1105   */\n          tag_91\n            /* \"@openzeppelin/contracts/access/Ownable.sol\":1094:1107   */\n          jump\t// in\n        tag_147:\n            /* \"@openzeppelin/contracts/access/Ownable.sol\":2182:2183   */\n          0x00\n            /* \"@openzeppelin/contracts/access/Ownable.sol\":2162:2184   */\n          0xffffffffffffffffffffffffffffffffffffffff\n          and\n            /* \"@openzeppelin/contracts/access/Ownable.sol\":2162:2170   */\n          dup2\n            /* \"@openzeppelin/contracts/access/Ownable.sol\":2162:2184   */\n          0xffffffffffffffffffffffffffffffffffffffff\n          and\n          sub\n            /* \"@openzeppelin/contracts/access/Ownable.sol\":2154:2227   */\n          tag_149\n          jumpi\n          mload(0x40)\n          0x08c379a000000000000000000000000000000000000000000000000000000000\n          dup2\n          mstore\n          0x04\n          add\n          tag_150\n          swap1\n          tag_151\n          jump\t// in\n        tag_150:\n          mload(0x40)\n          dup1\n          swap2\n          sub\n          swap1\n          revert\n        tag_149:\n            /* \"@openzeppelin/contracts/access/Ownable.sol\":2237:2265   */\n          tag_152\n            /* \"@openzeppelin/contracts/access/Ownable.sol\":2256:2264   */\n          dup2\n            /* \"@openzeppelin/contracts/access/Ownable.sol\":2237:2255   */\n          tag_118\n            /* \"@openzeppelin/contracts/access/Ownable.sol\":2237:2265   */\n          jump\t// in\n        tag_152:\n            /* \"@openzeppelin/contracts/access/Ownable.sol\":2074:2272   */\n          pop\n          jump\t// out\n            /* \"@openzeppelin/contracts/access/Ownable.sol\":1359:1489   */\n        tag_91:\n            /* \"@openzeppelin/contracts/access/Ownable.sol\":1433:1445   */\n          tag_154\n            /* \"@openzeppelin/contracts/access/Ownable.sol\":1433:1443   */\n          tag_94\n            /* \"@openzeppelin/contracts/access/Ownable.sol\":1433:1445   */\n          jump\t// in\n        tag_154:\n            /* \"@openzeppelin/contracts/access/Ownable.sol\":1422:1445   */\n          0xffffffffffffffffffffffffffffffffffffffff\n          and\n            /* \"@openzeppelin/contracts/access/Ownable.sol\":1422:1429   */\n          tag_155\n            /* \"@openzeppelin/contracts/access/Ownable.sol\":1422:1427   */\n          tag_56\n            /* \"@openzeppelin/contracts/access/Ownable.sol\":1422:1429   */\n          jump\t// in\n        tag_155:\n            /* \"@openzeppelin/contracts/access/Ownable.sol\":1422:1445   */\n          0xffffffffffffffffffffffffffffffffffffffff\n          and\n          eq\n            /* \"@openzeppelin/contracts/access/Ownable.sol\":1414:1482   */\n          tag_156\n          jumpi\n          mload(0x40)\n          0x08c379a000000000000000000000000000000000000000000000000000000000\n          dup2\n          mstore\n          0x04\n          add\n          tag_157\n          swap1\n          tag_158\n          jump\t// in\n        tag_157:\n          mload(0x40)\n          dup1\n          swap2\n          sub\n          swap1\n          revert\n        tag_156:\n            /* \"@openzeppelin/contracts/access/Ownable.sol\":1359:1489   */\n          jump\t// out\n            /* \"@openzeppelin/contracts/utils/Context.sol\":640:736   */\n        tag_94:\n            /* \"@openzeppelin/contracts/utils/Context.sol\":693:700   */\n          0x00\n            /* \"@openzeppelin/contracts/utils/Context.sol\":719:729   */\n          caller\n            /* \"@openzeppelin/contracts/utils/Context.sol\":712:729   */\n          swap1\n          pop\n            /* \"@openzeppelin/contracts/utils/Context.sol\":640:736   */\n          swap1\n          jump\t// out\n            /* \"@openzeppelin/contracts/token/ERC20/ERC20.sol\":10457:10797   */\n        tag_96:\n            /* \"@openzeppelin/contracts/token/ERC20/ERC20.sol\":10575:10576   */\n          0x00\n            /* \"@openzeppelin/contracts/token/ERC20/ERC20.sol\":10558:10577   */\n          0xffffffffffffffffffffffffffffffffffffffff\n          and\n            /* \"@openzeppelin/contracts/token/ERC20/ERC20.sol\":10558:10563   */\n          dup4\n            /* \"@openzeppelin/contracts/token/ERC20/ERC20.sol\":10558:10577   */\n          0xffffffffffffffffffffffffffffffffffffffff\n          and\n          sub\n            /* \"@openzeppelin/contracts/token/ERC20/ERC20.sol\":10550:10618   */\n          tag_161\n          jumpi\n          mload(0x40)\n          0x08c379a000000000000000000000000000000000000000000000000000000000\n          dup2\n          mstore\n          0x04\n          add\n          tag_162\n          swap1\n          tag_163\n          jump\t// in\n        tag_162:\n          mload(0x40)\n          dup1\n          swap2\n          sub\n          swap1\n          revert\n        tag_161:\n            /* \"@openzeppelin/contracts/token/ERC20/ERC20.sol\":10655:10656   */\n          0x00\n            /* \"@openzeppelin/contracts/token/ERC20/ERC20.sol\":10636:10657   */\n          0xffffffffffffffffffffffffffffffffffffffff\n          and\n            /* \"@openzeppelin/contracts/token/ERC20/ERC20.sol\":10636:10643   */\n          dup3\n            /* \"@openzeppelin/contracts/token/ERC20/ERC20.sol\":10636:10657   */\n          0xffffffffffffffffffffffffffffffffffffffff\n          and\n          sub\n            /* \"@openzeppelin/contracts/token/ERC20/ERC20.sol\":10628:10696   */\n          tag_164\n          jumpi\n          mload(0x40)\n          0x08c379a000000000000000000000000000000000000000000000000000000000\n          dup2\n          mstore\n          0x04\n          add\n          tag_165\n          swap1\n          tag_166\n          jump\t// in\n        tag_165:\n          mload(0x40)\n          dup1\n          swap2\n          sub\n          swap1\n          revert\n        tag_164:\n            /* \"@openzeppelin/contracts/token/ERC20/ERC20.sol\":10737:10743   */\n          dup1\n            /* \"@openzeppelin/contracts/token/ERC20/ERC20.sol\":10707:10718   */\n          0x01\n            /* \"@openzeppelin/contracts/token/ERC20/ERC20.sol\":10707:10725   */\n          0x00\n            /* \"@openzeppelin/contracts/token/ERC20/ERC20.sol\":10719:10724   */\n          dup6\n            /* \"@openzeppelin/contracts/token/ERC20/ERC20.sol\":10707:10725   */\n          0xffffffffffffffffffffffffffffffffffffffff\n          and\n          0xffffffffffffffffffffffffffffffffffffffff\n          and\n          dup2\n          mstore\n          0x20\n          add\n          swap1\n          dup2\n          mstore\n          0x20\n          add\n          0x00\n          keccak256\n            /* \"@openzeppelin/contracts/token/ERC20/ERC20.sol\":10707:10734   */\n          0x00\n            /* \"@openzeppelin/contracts/token/ERC20/ERC20.sol\":10726:10733   */\n          dup5\n            /* \"@openzeppelin/contracts/token/ERC20/ERC20.sol\":10707:10734   */\n          0xffffffffffffffffffffffffffffffffffffffff\n          and\n          0xffffffffffffffffffffffffffffffffffffffff\n          and\n          dup2\n          mstore\n          0x20\n          add\n          swap1\n          dup2\n          mstore\n          0x20\n          add\n          0x00\n          keccak256\n            /* \"@openzeppelin/contracts/token/ERC20/ERC20.sol\":10707:10743   */\n          dup2\n          swap1\n          sstore\n          pop\n            /* \"@openzeppelin/contracts/token/ERC20/ERC20.sol\":10774:10781   */\n          dup2\n            /* \"@openzeppelin/contracts/token/ERC20/ERC20.sol\":10758:10790   */\n          0xffffffffffffffffffffffffffffffffffffffff\n          and\n            /* \"@openzeppelin/contracts/token/ERC20/ERC20.sol\":10767:10772   */\n          dup4\n            /* \"@openzeppelin/contracts/token/ERC20/ERC20.sol\":10758:10790   */\n          0xffffffffffffffffffffffffffffffffffffffff\n          and\n          0x8c5be1e5ebec7d5bd14f71427d1e84f3dd0314c0f7b2291e5b200ac8c7c3b925\n            /* \"@openzeppelin/contracts/token/ERC20/ERC20.sol\":10783:10789   */\n          dup4\n            /* \"@openzeppelin/contracts/token/ERC20/ERC20.sol\":10758:10790   */\n          mload(0x40)\n          tag_167\n          swap2\n          swap1\n          tag_34\n          jump\t// in\n        tag_167:\n          mload(0x40)\n          dup1\n          swap2\n          sub\n          swap1\n          log3\n            /* \"@openzeppelin/contracts/token/ERC20/ERC20.sol\":10457:10797   */\n          pop\n          pop\n          pop\n          jump\t// out\n            /* \"@openzeppelin/contracts/token/ERC20/ERC20.sol\":11078:11489   */\n        tag_103:\n            /* \"@openzeppelin/contracts/token/ERC20/ERC20.sol\":11178:11202   */\n          0x00\n            /* \"@openzeppelin/contracts/token/ERC20/ERC20.sol\":11205:11230   */\n          tag_169\n            /* \"@openzeppelin/contracts/token/ERC20/ERC20.sol\":11215:11220   */\n          dup5\n            /* \"@openzeppelin/contracts/token/ERC20/ERC20.sol\":11222:11229   */\n          dup5\n            /* \"@openzeppelin/contracts/token/ERC20/ERC20.sol\":11205:11214   */\n          tag_77\n            /* \"@openzeppelin/contracts/token/ERC20/ERC20.sol\":11205:11230   */\n          jump\t// in\n        tag_169:\n            /* \"@openzeppelin/contracts/token/ERC20/ERC20.sol\":11178:11230   */\n          swap1\n          pop\n            /* \"@openzeppelin/contracts/token/ERC20/ERC20.sol\":11264:11281   */\n          0xffffffffffffffffffffffffffffffffffffffffffffffffffffffffffffffff\n            /* \"@openzeppelin/contracts/token/ERC20/ERC20.sol\":11244:11260   */\n          dup2\n            /* \"@openzeppelin/contracts/token/ERC20/ERC20.sol\":11244:11281   */\n          eq\n            /* \"@openzeppelin/contracts/token/ERC20/ERC20.sol\":11240:11483   */\n          tag_170\n          jumpi\n            /* \"@openzeppelin/contracts/token/ERC20/ERC20.sol\":11325:11331   */\n          dup2\n            /* \"@openzeppelin/contracts/token/ERC20/ERC20.sol\":11305:11321   */\n          dup2\n            /* \"@openzeppelin/contracts/token/ERC20/ERC20.sol\":11305:11331   */\n          lt\n          iszero\n            /* \"@openzeppelin/contracts/token/ERC20/ERC20.sol\":11297:11365   */\n          tag_171\n          jumpi\n          mload(0x40)\n          0x08c379a000000000000000000000000000000000000000000000000000000000\n          dup2\n          mstore\n          0x04\n          add\n          tag_172\n          swap1\n          tag_173\n          jump\t// in\n        tag_172:\n          mload(0x40)\n          dup1\n          swap2\n          sub\n          swap1\n          revert\n        tag_171:\n            /* \"@openzeppelin/contracts/token/ERC20/ERC20.sol\":11407:11458   */\n          tag_174\n            /* \"@openzeppelin/contracts/token/ERC20/ERC20.sol\":11416:11421   */\n          dup5\n            /* \"@openzeppelin/contracts/token/ERC20/ERC20.sol\":11423:11430   */\n          dup5\n            /* \"@openzeppelin/contracts/token/ERC20/ERC20.sol\":11451:11457   */\n          dup5\n            /* \"@openzeppelin/contracts/token/ERC20/ERC20.sol\":11432:11448   */\n          dup5\n            /* \"@openzeppelin/contracts/token/ERC20/ERC20.sol\":11432:11457   */\n          sub\n            /* \"@openzeppelin/contracts/token/ERC20/ERC20.sol\":11407:11415   */\n          tag_96\n            /* \"@openzeppelin/contracts/token/ERC20/ERC20.sol\":11407:11458   */\n          jump\t// in\n        tag_174:\n            /* \"@openzeppelin/contracts/token/ERC20/ERC20.sol\":11240:11483   */\n        tag_170:\n            /* \"@openzeppelin/contracts/token/ERC20/ERC20.sol\":11168:11489   */\n          pop\n            /* \"@openzeppelin/contracts/token/ERC20/ERC20.sol\":11078:11489   */\n          pop\n          pop\n          pop\n          jump\t// out\n            /* \"@openzeppelin/contracts/token/ERC20/ERC20.sol\":7456:8244   */\n        tag_105:\n            /* \"@openzeppelin/contracts/token/ERC20/ERC20.sol\":7568:7569   */\n          0x00\n            /* \"@openzeppelin/contracts/token/ERC20/ERC20.sol\":7552:7570   */\n          0xffffffffffffffffffffffffffffffffffffffff\n          and\n            /* \"@openzeppelin/contracts/token/ERC20/ERC20.sol\":7552:7556   */\n          dup4\n            /* \"@openzeppelin/contracts/token/ERC20/ERC20.sol\":7552:7570   */\n          0xffffffffffffffffffffffffffffffffffffffff\n          and\n          sub\n            /* \"@openzeppelin/contracts/token/ERC20/ERC20.sol\":7544:7612   */\n          tag_176\n          jumpi\n          mload(0x40)\n          0x08c379a000000000000000000000000000000000000000000000000000000000\n          dup2\n          mstore\n          0x04\n          add\n          tag_177\n          swap1\n          tag_178\n          jump\t// in\n        tag_177:\n          mload(0x40)\n          dup1\n          swap2\n          sub\n          swap1\n          revert\n        tag_176:\n            /* \"@openzeppelin/contracts/token/ERC20/ERC20.sol\":7644:7645   */\n          0x00\n            /* \"@openzeppelin/contracts/token/ERC20/ERC20.sol\":7630:7646   */\n          0xffffffffffffffffffffffffffffffffffffffff\n          and\n            /* \"@openzeppelin/contracts/token/ERC20/ERC20.sol\":7630:7632   */\n          dup3\n            /* \"@openzeppelin/contracts/token/ERC20/ERC20.sol\":7630:7646   */\n          0xffffffffffffffffffffffffffffffffffffffff\n          and\n          sub\n            /* \"@openzeppelin/contracts/token/ERC20/ERC20.sol\":7622:7686   */\n          tag_179\n          jumpi\n          mload(0x40)\n          0x08c379a000000000000000000000000000000000000000000000000000000000\n          dup2\n          mstore\n          0x04\n          add\n          tag_180\n          swap1\n          tag_181\n          jump\t// in\n        tag_180:\n          mload(0x40)\n          dup1\n          swap2\n          sub\n          swap1\n          revert\n        tag_179:\n            /* \"@openzeppelin/contracts/token/ERC20/ERC20.sol\":7697:7735   */\n          tag_182\n            /* \"@openzeppelin/contracts/token/ERC20/ERC20.sol\":7718:7722   */\n          dup4\n            /* \"@openzeppelin/contracts/token/ERC20/ERC20.sol\":7724:7726   */\n          dup4\n            /* \"@openzeppelin/contracts/token/ERC20/ERC20.sol\":7728:7734   */\n          dup4\n            /* \"@openzeppelin/contracts/token/ERC20/ERC20.sol\":7697:7717   */\n          tag_183\n            /* \"@openzeppelin/contracts/token/ERC20/ERC20.sol\":7697:7735   */\n          jump\t// in\n        tag_182:\n            /* \"@openzeppelin/contracts/token/ERC20/ERC20.sol\":7746:7765   */\n          0x00\n            /* \"@openzeppelin/contracts/token/ERC20/ERC20.sol\":7768:7777   */\n          dup1\n            /* \"@openzeppelin/contracts/token/ERC20/ERC20.sol\":7768:7783   */\n          0x00\n            /* \"@openzeppelin/contracts/token/ERC20/ERC20.sol\":7778:7782   */\n          dup6\n            /* \"@openzeppelin/contracts/token/ERC20/ERC20.sol\":7768:7783   */\n          0xffffffffffffffffffffffffffffffffffffffff\n          and\n          0xffffffffffffffffffffffffffffffffffffffff\n          and\n          dup2\n          mstore\n          0x20\n          add\n          swap1\n          dup2\n          mstore\n          0x20\n          add\n          0x00\n          keccak256\n          sload\n            /* \"@openzeppelin/contracts/token/ERC20/ERC20.sol\":7746:7783   */\n          swap1\n          pop\n            /* \"@openzeppelin/contracts/token/ERC20/ERC20.sol\":7816:7822   */\n          dup2\n            /* \"@openzeppelin/contracts/token/ERC20/ERC20.sol\":7801:7812   */\n          dup2\n            /* \"@openzeppelin/contracts/token/ERC20/ERC20.sol\":7801:7822   */\n          lt\n          iszero\n            /* \"@openzeppelin/contracts/token/ERC20/ERC20.sol\":7793:7865   */\n          tag_184\n          jumpi\n          mload(0x40)\n          0x08c379a000000000000000000000000000000000000000000000000000000000\n          dup2\n          mstore\n          0x04\n          add\n          tag_185\n          swap1\n          tag_186\n          jump\t// in\n        tag_185:\n          mload(0x40)\n          dup1\n          swap2\n          sub\n          swap1\n          revert\n        tag_184:\n            /* \"@openzeppelin/contracts/token/ERC20/ERC20.sol\":7931:7937   */\n          dup2\n            /* \"@openzeppelin/contracts/token/ERC20/ERC20.sol\":7917:7928   */\n          dup2\n            /* \"@openzeppelin/contracts/token/ERC20/ERC20.sol\":7917:7937   */\n          sub\n            /* \"@openzeppelin/contracts/token/ERC20/ERC20.sol\":7899:7908   */\n          0x00\n            /* \"@openzeppelin/contracts/token/ERC20/ERC20.sol\":7899:7914   */\n          dup1\n            /* \"@openzeppelin/contracts/token/ERC20/ERC20.sol\":7909:7913   */\n          dup7\n            /* \"@openzeppelin/contracts/token/ERC20/ERC20.sol\":7899:7914   */\n          0xffffffffffffffffffffffffffffffffffffffff\n          and\n          0xffffffffffffffffffffffffffffffffffffffff\n          and\n          dup2\n          mstore\n          0x20\n          add\n          swap1\n          dup2\n          mstore\n          0x20\n          add\n          0x00\n          keccak256\n            /* \"@openzeppelin/contracts/token/ERC20/ERC20.sol\":7899:7937   */\n          dup2\n          swap1\n          sstore\n          pop\n            /* \"@openzeppelin/contracts/token/ERC20/ERC20.sol\":8131:8137   */\n          dup2\n            /* \"@openzeppelin/contracts/token/ERC20/ERC20.sol\":8114:8123   */\n          0x00\n            /* \"@openzeppelin/contracts/token/ERC20/ERC20.sol\":8114:8127   */\n          dup1\n            /* \"@openzeppelin/contracts/token/ERC20/ERC20.sol\":8124:8126   */\n          dup6\n            /* \"@openzeppelin/contracts/token/ERC20/ERC20.sol\":8114:8127   */\n          0xffffffffffffffffffffffffffffffffffffffff\n          and\n          0xffffffffffffffffffffffffffffffffffffffff\n          and\n          dup2\n          mstore\n          0x20\n          add\n          swap1\n          dup2\n          mstore\n          0x20\n          add\n          0x00\n          keccak256\n          0x00\n            /* \"@openzeppelin/contracts/token/ERC20/ERC20.sol\":8114:8137   */\n          dup3\n          dup3\n          sload\n          add\n          swap3\n          pop\n          pop\n          dup2\n          swap1\n          sstore\n          pop\n            /* \"@openzeppelin/contracts/token/ERC20/ERC20.sol\":8178:8180   */\n          dup3\n            /* \"@openzeppelin/contracts/token/ERC20/ERC20.sol\":8163:8189   */\n          0xffffffffffffffffffffffffffffffffffffffff\n          and\n            /* \"@openzeppelin/contracts/token/ERC20/ERC20.sol\":8172:8176   */\n          dup5\n            /* \"@openzeppelin/contracts/token/ERC20/ERC20.sol\":8163:8189   */\n          0xffffffffffffffffffffffffffffffffffffffff\n          and\n          0xddf252ad1be2c89b69c2b068fc378daa952ba7f163c4a11628f55a4df523b3ef\n            /* \"@openzeppelin/contracts/token/ERC20/ERC20.sol\":8182:8188   */\n          dup5\n            /* \"@openzeppelin/contracts/token/ERC20/ERC20.sol\":8163:8189   */\n          mload(0x40)\n          tag_187\n          swap2\n          swap1\n          tag_34\n          jump\t// in\n        tag_187:\n          mload(0x40)\n          dup1\n          swap2\n          sub\n          swap1\n          log3\n            /* \"@openzeppelin/contracts/token/ERC20/ERC20.sol\":8200:8237   */\n          tag_188\n            /* \"@openzeppelin/contracts/token/ERC20/ERC20.sol\":8220:8224   */\n          dup5\n            /* \"@openzeppelin/contracts/token/ERC20/ERC20.sol\":8226:8228   */\n          dup5\n            /* \"@openzeppelin/contracts/token/ERC20/ERC20.sol\":8230:8236   */\n          dup5\n            /* \"@openzeppelin/contracts/token/ERC20/ERC20.sol\":8200:8219   */\n          tag_189\n            /* \"@openzeppelin/contracts/token/ERC20/ERC20.sol\":8200:8237   */\n          jump\t// in\n        tag_188:\n            /* \"@openzeppelin/contracts/token/ERC20/ERC20.sol\":7534:8244   */\n          pop\n            /* \"@openzeppelin/contracts/token/ERC20/ERC20.sol\":7456:8244   */\n          pop\n          pop\n          pop\n          jump\t// out\n            /* \"@openzeppelin/contracts/access/Ownable.sol\":2426:2613   */\n        tag_118:\n            /* \"@openzeppelin/contracts/access/Ownable.sol\":2499:2515   */\n          0x00\n            /* \"@openzeppelin/contracts/access/Ownable.sol\":2518:2524   */\n          0x05\n          0x00\n          swap1\n          sload\n          swap1\n          0x0100\n          exp\n          swap1\n          div\n          0xffffffffffffffffffffffffffffffffffffffff\n          and\n            /* \"@openzeppelin/contracts/access/Ownable.sol\":2499:2524   */\n          swap1\n          pop\n            /* \"@openzeppelin/contracts/access/Ownable.sol\":2543:2551   */\n          dup2\n            /* \"@openzeppelin/contracts/access/Ownable.sol\":2534:2540   */\n          0x05\n          0x00\n            /* \"@openzeppelin/contracts/access/Ownable.sol\":2534:2551   */\n          0x0100\n          exp\n          dup2\n          sload\n          dup2\n          0xffffffffffffffffffffffffffffffffffffffff\n          mul\n          not\n          and\n          swap1\n          dup4\n          0xffffffffffffffffffffffffffffffffffffffff\n          and\n          mul\n          or\n          swap1\n          sstore\n          pop\n            /* \"@openzeppelin/contracts/access/Ownable.sol\":2597:2605   */\n          dup2\n            /* \"@openzeppelin/contracts/access/Ownable.sol\":2566:2606   */\n          0xffffffffffffffffffffffffffffffffffffffff\n          and\n            /* \"@openzeppelin/contracts/access/Ownable.sol\":2587:2595   */\n          dup2\n            /* \"@openzeppelin/contracts/access/Ownable.sol\":2566:2606   */\n          0xffffffffffffffffffffffffffffffffffffffff\n          and\n          0x8be0079c531659141344cd1fd0a4f28419497f9722a3daafe3b4186f6b6457e0\n          mload(0x40)\n          mload(0x40)\n          dup1\n          swap2\n          sub\n          swap1\n          log3\n            /* \"@openzeppelin/contracts/access/Ownable.sol\":2489:2613   */\n          pop\n            /* \"@openzeppelin/contracts/access/Ownable.sol\":2426:2613   */\n          pop\n          jump\t// out\n            /* \"@openzeppelin/contracts/token/ERC20/ERC20.sol\":8520:9055   */\n        tag_132:\n            /* \"@openzeppelin/contracts/token/ERC20/ERC20.sol\":8622:8623   */\n          0x00\n            /* \"@openzeppelin/contracts/token/ERC20/ERC20.sol\":8603:8624   */\n          0xffffffffffffffffffffffffffffffffffffffff\n          and\n            /* \"@openzeppelin/contracts/token/ERC20/ERC20.sol\":8603:8610   */\n          dup3\n            /* \"@openzeppelin/contracts/token/ERC20/ERC20.sol\":8603:8624   */\n          0xffffffffffffffffffffffffffffffffffffffff\n          and\n          sub\n            /* \"@openzeppelin/contracts/token/ERC20/ERC20.sol\":8595:8660   */\n          tag_192\n          jumpi\n          mload(0x40)\n          0x08c379a000000000000000000000000000000000000000000000000000000000\n          dup2\n          mstore\n          0x04\n          add\n          tag_193\n          swap1\n          tag_194\n          jump\t// in\n        tag_193:\n          mload(0x40)\n          dup1\n          swap2\n          sub\n          swap1\n          revert\n        tag_192:\n            /* \"@openzeppelin/contracts/token/ERC20/ERC20.sol\":8671:8720   */\n          tag_195\n            /* \"@openzeppelin/contracts/token/ERC20/ERC20.sol\":8700:8701   */\n          0x00\n            /* \"@openzeppelin/contracts/token/ERC20/ERC20.sol\":8704:8711   */\n          dup4\n            /* \"@openzeppelin/contracts/token/ERC20/ERC20.sol\":8713:8719   */\n          dup4\n            /* \"@openzeppelin/contracts/token/ERC20/ERC20.sol\":8671:8691   */\n          tag_183\n            /* \"@openzeppelin/contracts/token/ERC20/ERC20.sol\":8671:8720   */\n          jump\t// in\n        tag_195:\n            /* \"@openzeppelin/contracts/token/ERC20/ERC20.sol\":8747:8753   */\n          dup1\n            /* \"@openzeppelin/contracts/token/ERC20/ERC20.sol\":8731:8743   */\n          0x02\n          0x00\n            /* \"@openzeppelin/contracts/token/ERC20/ERC20.sol\":8731:8753   */\n          dup3\n          dup3\n          sload\n          tag_196\n          swap2\n          swap1\n          tag_112\n          jump\t// in\n        tag_196:\n          swap3\n          pop\n          pop\n          dup2\n          swap1\n          sstore\n          pop\n            /* \"@openzeppelin/contracts/token/ERC20/ERC20.sol\":8921:8927   */\n          dup1\n            /* \"@openzeppelin/contracts/token/ERC20/ERC20.sol\":8899:8908   */\n          0x00\n            /* \"@openzeppelin/contracts/token/ERC20/ERC20.sol\":8899:8917   */\n          dup1\n            /* \"@openzeppelin/contracts/token/ERC20/ERC20.sol\":8909:8916   */\n          dup5\n            /* \"@openzeppelin/contracts/token/ERC20/ERC20.sol\":8899:8917   */\n          0xffffffffffffffffffffffffffffffffffffffff\n          and\n          0xffffffffffffffffffffffffffffffffffffffff\n          and\n          dup2\n          mstore\n          0x20\n          add\n          swap1\n          dup2\n          mstore\n          0x20\n          add\n          0x00\n          keccak256\n          0x00\n            /* \"@openzeppelin/contracts/token/ERC20/ERC20.sol\":8899:8927   */\n          dup3\n          dup3\n          sload\n          add\n          swap3\n          pop\n          pop\n          dup2\n          swap1\n          sstore\n          pop\n            /* \"@openzeppelin/contracts/token/ERC20/ERC20.sol\":8973:8980   */\n          dup2\n            /* \"@openzeppelin/contracts/token/ERC20/ERC20.sol\":8952:8989   */\n          0xffffffffffffffffffffffffffffffffffffffff\n          and\n            /* \"@openzeppelin/contracts/token/ERC20/ERC20.sol\":8969:8970   */\n          0x00\n            /* \"@openzeppelin/contracts/token/ERC20/ERC20.sol\":8952:8989   */\n          0xffffffffffffffffffffffffffffffffffffffff\n          and\n          0xddf252ad1be2c89b69c2b068fc378daa952ba7f163c4a11628f55a4df523b3ef\n            /* \"@openzeppelin/contracts/token/ERC20/ERC20.sol\":8982:8988   */\n          dup4\n            /* \"@openzeppelin/contracts/token/ERC20/ERC20.sol\":8952:8989   */\n          mload(0x40)\n          tag_197\n          swap2\n          swap1\n          tag_34\n          jump\t// in\n        tag_197:\n          mload(0x40)\n          dup1\n          swap2\n          sub\n          swap1\n          log3\n            /* \"@openzeppelin/contracts/token/ERC20/ERC20.sol\":9000:9048   */\n          tag_198\n            /* \"@openzeppelin/contracts/token/ERC20/ERC20.sol\":9028:9029   */\n          0x00\n            /* \"@openzeppelin/contracts/token/ERC20/ERC20.sol\":9032:9039   */\n          dup4\n            /* \"@openzeppelin/contracts/token/ERC20/ERC20.sol\":9041:9047   */\n          dup4\n            /* \"@openzeppelin/contracts/token/ERC20/ERC20.sol\":9000:9019   */\n          tag_189\n            /* \"@openzeppelin/contracts/token/ERC20/ERC20.sol\":9000:9048   */\n          jump\t// in\n        tag_198:\n            /* \"@openzeppelin/contracts/token/ERC20/ERC20.sol\":8520:9055   */\n          pop\n          pop\n          jump\t// out\n            /* \"@openzeppelin/contracts/token/ERC20/ERC20.sol\":12073:12164   */\n        tag_183:\n          pop\n          pop\n          pop\n          jump\t// out\n            /* \"@openzeppelin/contracts/token/ERC20/ERC20.sol\":12752:12842   */\n        tag_189:\n          pop\n          pop\n          pop\n          jump\t// out\n            /* \"#utility.yul\":7:106   */\n        tag_201:\n            /* \"#utility.yul\":59:65   */\n          0x00\n            /* \"#utility.yul\":93:98   */\n          dup2\n            /* \"#utility.yul\":87:99   */\n          mload\n            /* \"#utility.yul\":77:99   */\n          swap1\n          pop\n            /* \"#utility.yul\":7:106   */\n          swap2\n          swap1\n          pop\n          jump\t// out\n            /* \"#utility.yul\":112:281   */\n        tag_202:\n            /* \"#utility.yul\":196:207   */\n          0x00\n            /* \"#utility.yul\":230:236   */\n          dup3\n            /* \"#utility.yul\":225:228   */\n          dup3\n            /* \"#utility.yul\":218:237   */\n          mstore\n            /* \"#utility.yul\":270:274   */\n          0x20\n            /* \"#utility.yul\":265:268   */\n          dup3\n            /* \"#utility.yul\":261:275   */\n          add\n            /* \"#utility.yul\":246:275   */\n          swap1\n          pop\n            /* \"#utility.yul\":112:281   */\n          swap3\n          swap2\n          pop\n          pop\n          jump\t// out\n            /* \"#utility.yul\":287:533   */\n        tag_203:\n            /* \"#utility.yul\":368:369   */\n          0x00\n            /* \"#utility.yul\":378:491   */\n        tag_248:\n            /* \"#utility.yul\":392:398   */\n          dup4\n            /* \"#utility.yul\":389:390   */\n          dup2\n            /* \"#utility.yul\":386:399   */\n          lt\n            /* \"#utility.yul\":378:491   */\n          iszero\n          tag_250\n          jumpi\n            /* \"#utility.yul\":477:478   */\n          dup1\n            /* \"#utility.yul\":472:475   */\n          dup3\n            /* \"#utility.yul\":468:479   */\n          add\n            /* \"#utility.yul\":462:480   */\n          mload\n            /* \"#utility.yul\":458:459   */\n          dup2\n            /* \"#utility.yul\":453:456   */\n          dup5\n            /* \"#utility.yul\":449:460   */\n          add\n            /* \"#utility.yul\":442:481   */\n          mstore\n            /* \"#utility.yul\":414:416   */\n          0x20\n            /* \"#utility.yul\":411:412   */\n          dup2\n            /* \"#utility.yul\":407:417   */\n          add\n            /* \"#utility.yul\":402:417   */\n          swap1\n          pop\n            /* \"#utility.yul\":378:491   */\n          jump(tag_248)\n        tag_250:\n            /* \"#utility.yul\":525:526   */\n          0x00\n            /* \"#utility.yul\":516:522   */\n          dup5\n            /* \"#utility.yul\":511:514   */\n          dup5\n            /* \"#utility.yul\":507:523   */\n          add\n            /* \"#utility.yul\":500:527   */\n          mstore\n            /* \"#utility.yul\":349:533   */\n          pop\n            /* \"#utility.yul\":287:533   */\n          pop\n          pop\n          pop\n          jump\t// out\n            /* \"#utility.yul\":539:641   */\n        tag_204:\n            /* \"#utility.yul\":580:586   */\n          0x00\n            /* \"#utility.yul\":631:633   */\n          0x1f\n            /* \"#utility.yul\":627:634   */\n          not\n            /* \"#utility.yul\":622:624   */\n          0x1f\n            /* \"#utility.yul\":615:620   */\n          dup4\n            /* \"#utility.yul\":611:625   */\n          add\n            /* \"#utility.yul\":607:635   */\n          and\n            /* \"#utility.yul\":597:635   */\n          swap1\n          pop\n            /* \"#utility.yul\":539:641   */\n          swap2\n          swap1\n          pop\n          jump\t// out\n            /* \"#utility.yul\":647:1024   */\n        tag_205:\n            /* \"#utility.yul\":735:738   */\n          0x00\n            /* \"#utility.yul\":763:802   */\n          tag_253\n            /* \"#utility.yul\":796:801   */\n          dup3\n            /* \"#utility.yul\":763:802   */\n          tag_201\n          jump\t// in\n        tag_253:\n            /* \"#utility.yul\":818:889   */\n          tag_254\n            /* \"#utility.yul\":882:888   */\n          dup2\n            /* \"#utility.yul\":877:880   */\n          dup6\n            /* \"#utility.yul\":818:889   */\n          tag_202\n          jump\t// in\n        tag_254:\n            /* \"#utility.yul\":811:889   */\n          swap4\n          pop\n            /* \"#utility.yul\":898:963   */\n          tag_255\n            /* \"#utility.yul\":956:962   */\n          dup2\n            /* \"#utility.yul\":951:954   */\n          dup6\n            /* \"#utility.yul\":944:948   */\n          0x20\n            /* \"#utility.yul\":937:942   */\n          dup7\n            /* \"#utility.yul\":933:949   */\n          add\n            /* \"#utility.yul\":898:963   */\n          tag_203\n          jump\t// in\n        tag_255:\n            /* \"#utility.yul\":988:1017   */\n          tag_256\n            /* \"#utility.yul\":1010:1016   */\n          dup2\n            /* \"#utility.yul\":988:1017   */\n          tag_204\n          jump\t// in\n        tag_256:\n            /* \"#utility.yul\":983:986   */\n          dup5\n            /* \"#utility.yul\":979:1018   */\n          add\n            /* \"#utility.yul\":972:1018   */\n          swap2\n          pop\n            /* \"#utility.yul\":739:1024   */\n          pop\n            /* \"#utility.yul\":647:1024   */\n          swap3\n          swap2\n          pop\n          pop\n          jump\t// out\n            /* \"#utility.yul\":1030:1343   */\n        tag_24:\n            /* \"#utility.yul\":1143:1147   */\n          0x00\n            /* \"#utility.yul\":1181:1183   */\n          0x20\n            /* \"#utility.yul\":1170:1179   */\n          dup3\n            /* \"#utility.yul\":1166:1184   */\n          add\n            /* \"#utility.yul\":1158:1184   */\n          swap1\n          pop\n            /* \"#utility.yul\":1230:1239   */\n          dup2\n            /* \"#utility.yul\":1224:1228   */\n          dup2\n            /* \"#utility.yul\":1220:1240   */\n          sub\n            /* \"#utility.yul\":1216:1217   */\n          0x00\n            /* \"#utility.yul\":1205:1214   */\n          dup4\n            /* \"#utility.yul\":1201:1218   */\n          add\n            /* \"#utility.yul\":1194:1241   */\n          mstore\n            /* \"#utility.yul\":1258:1336   */\n          tag_258\n            /* \"#utility.yul\":1331:1335   */\n          dup2\n            /* \"#utility.yul\":1322:1328   */\n          dup5\n            /* \"#utility.yul\":1258:1336   */\n          tag_205\n          jump\t// in\n        tag_258:\n            /* \"#utility.yul\":1250:1336   */\n          swap1\n          pop\n            /* \"#utility.yul\":1030:1343   */\n          swap3\n          swap2\n          pop\n          pop\n          jump\t// out\n            /* \"#utility.yul\":1430:1547   */\n        tag_207:\n            /* \"#utility.yul\":1539:1540   */\n          0x00\n            /* \"#utility.yul\":1536:1537   */\n          dup1\n            /* \"#utility.yul\":1529:1541   */\n          revert\n            /* \"#utility.yul\":1676:1802   */\n        tag_209:\n            /* \"#utility.yul\":1713:1720   */\n          0x00\n            /* \"#utility.yul\":1753:1795   */\n          0xffffffffffffffffffffffffffffffffffffffff\n            /* \"#utility.yul\":1746:1751   */\n          dup3\n            /* \"#utility.yul\":1742:1796   */\n          and\n            /* \"#utility.yul\":1731:1796   */\n          swap1\n          pop\n            /* \"#utility.yul\":1676:1802   */\n          swap2\n          swap1\n          pop\n          jump\t// out\n            /* \"#utility.yul\":1808:1904   */\n        tag_210:\n            /* \"#utility.yul\":1845:1852   */\n          0x00\n            /* \"#utility.yul\":1874:1898   */\n          tag_264\n            /* \"#utility.yul\":1892:1897   */\n          dup3\n            /* \"#utility.yul\":1874:1898   */\n          tag_209\n          jump\t// in\n        tag_264:\n            /* \"#utility.yul\":1863:1898   */\n          swap1\n          pop\n            /* \"#utility.yul\":1808:1904   */\n          swap2\n          swap1\n          pop\n          jump\t// out\n            /* \"#utility.yul\":1910:2032   */\n        tag_211:\n            /* \"#utility.yul\":1983:2007   */\n          tag_266\n            /* \"#utility.yul\":2001:2006   */\n          dup2\n            /* \"#utility.yul\":1983:2007   */\n          tag_210\n          jump\t// in\n        tag_266:\n            /* \"#utility.yul\":1976:1981   */\n          dup2\n            /* \"#utility.yul\":1973:2008   */\n          eq\n            /* \"#utility.yul\":1963:2026   */\n          tag_267\n          jumpi\n            /* \"#utility.yul\":2022:2023   */\n          0x00\n            /* \"#utility.yul\":2019:2020   */\n          dup1\n            /* \"#utility.yul\":2012:2024   */\n          revert\n            /* \"#utility.yul\":1963:2026   */\n        tag_267:\n            /* \"#utility.yul\":1910:2032   */\n          pop\n          jump\t// out\n            /* \"#utility.yul\":2038:2177   */\n        tag_212:\n            /* \"#utility.yul\":2084:2089   */\n          0x00\n            /* \"#utility.yul\":2122:2128   */\n          dup2\n            /* \"#utility.yul\":2109:2129   */\n          calldataload\n            /* \"#utility.yul\":2100:2129   */\n          swap1\n          pop\n            /* \"#utility.yul\":2138:2171   */\n          tag_269\n            /* \"#utility.yul\":2165:2170   */\n          dup2\n            /* \"#utility.yul\":2138:2171   */\n          tag_211\n          jump\t// in\n        tag_269:\n            /* \"#utility.yul\":2038:2177   */\n          swap3\n          swap2\n          pop\n          pop\n          jump\t// out\n            /* \"#utility.yul\":2183:2260   */\n        tag_213:\n            /* \"#utility.yul\":2220:2227   */\n          0x00\n            /* \"#utility.yul\":2249:2254   */\n          dup2\n            /* \"#utility.yul\":2238:2254   */\n          swap1\n          pop\n            /* \"#utility.yul\":2183:2260   */\n          swap2\n          swap1\n          pop\n          jump\t// out\n            /* \"#utility.yul\":2266:2388   */\n        tag_214:\n            /* \"#utility.yul\":2339:2363   */\n          tag_272\n            /* \"#utility.yul\":2357:2362   */\n          dup2\n            /* \"#utility.yul\":2339:2363   */\n          tag_213\n          jump\t// in\n        tag_272:\n            /* \"#utility.yul\":2332:2337   */\n          dup2\n            /* \"#utility.yul\":2329:2364   */\n          eq\n            /* \"#utility.yul\":2319:2382   */\n          tag_273\n          jumpi\n            /* \"#utility.yul\":2378:2379   */\n          0x00\n            /* \"#utility.yul\":2375:2376   */\n          dup1\n            /* \"#utility.yul\":2368:2380   */\n          revert\n            /* \"#utility.yul\":2319:2382   */\n        tag_273:\n            /* \"#utility.yul\":2266:2388   */\n          pop\n          jump\t// out\n            /* \"#utility.yul\":2394:2533   */\n        tag_215:\n            /* \"#utility.yul\":2440:2445   */\n          0x00\n            /* \"#utility.yul\":2478:2484   */\n          dup2\n            /* \"#utility.yul\":2465:2485   */\n          calldataload\n            /* \"#utility.yul\":2456:2485   */\n          swap1\n          pop\n            /* \"#utility.yul\":2494:2527   */\n          tag_275\n            /* \"#utility.yul\":2521:2526   */\n          dup2\n            /* \"#utility.yul\":2494:2527   */\n          tag_214\n          jump\t// in\n        tag_275:\n            /* \"#utility.yul\":2394:2533   */\n          swap3\n          swap2\n          pop\n          pop\n          jump\t// out\n            /* \"#utility.yul\":2539:3013   */\n        tag_27:\n            /* \"#utility.yul\":2607:2613   */\n          0x00\n            /* \"#utility.yul\":2615:2621   */\n          dup1\n            /* \"#utility.yul\":2664:2666   */\n          0x40\n            /* \"#utility.yul\":2652:2661   */\n          dup4\n            /* \"#utility.yul\":2643:2650   */\n          dup6\n            /* \"#utility.yul\":2639:2662   */\n          sub\n            /* \"#utility.yul\":2635:2667   */\n          slt\n            /* \"#utility.yul\":2632:2751   */\n          iszero\n          tag_277\n          jumpi\n            /* \"#utility.yul\":2670:2749   */\n          tag_278\n          tag_207\n          jump\t// in\n        tag_278:\n            /* \"#utility.yul\":2632:2751   */\n        tag_277:\n            /* \"#utility.yul\":2790:2791   */\n          0x00\n            /* \"#utility.yul\":2815:2868   */\n          tag_279\n            /* \"#utility.yul\":2860:2867   */\n          dup6\n            /* \"#utility.yul\":2851:2857   */\n          dup3\n            /* \"#utility.yul\":2840:2849   */\n          dup7\n            /* \"#utility.yul\":2836:2858   */\n          add\n            /* \"#utility.yul\":2815:2868   */\n          tag_212\n          jump\t// in\n        tag_279:\n            /* \"#utility.yul\":2805:2868   */\n          swap3\n          pop\n            /* \"#utility.yul\":2761:2878   */\n          pop\n            /* \"#utility.yul\":2917:2919   */\n          0x20\n            /* \"#utility.yul\":2943:2996   */\n          tag_280\n            /* \"#utility.yul\":2988:2995   */\n          dup6\n            /* \"#utility.yul\":2979:2985   */\n          dup3\n            /* \"#utility.yul\":2968:2977   */\n          dup7\n            /* \"#utility.yul\":2964:2986   */\n          add\n            /* \"#utility.yul\":2943:2996   */\n          tag_215\n          jump\t// in\n        tag_280:\n            /* \"#utility.yul\":2933:2996   */\n          swap2\n          pop\n            /* \"#utility.yul\":2888:3006   */\n          pop\n            /* \"#utility.yul\":2539:3013   */\n          swap3\n          pop\n          swap3\n          swap1\n          pop\n          jump\t// out\n            /* \"#utility.yul\":3019:3109   */\n        tag_216:\n            /* \"#utility.yul\":3053:3060   */\n          0x00\n            /* \"#utility.yul\":3096:3101   */\n          dup2\n            /* \"#utility.yul\":3089:3102   */\n          iszero\n            /* \"#utility.yul\":3082:3103   */\n          iszero\n            /* \"#utility.yul\":3071:3103   */\n          swap1\n          pop\n            /* \"#utility.yul\":3019:3109   */\n          swap2\n          swap1\n          pop\n          jump\t// out\n            /* \"#utility.yul\":3115:3224   */\n        tag_217:\n            /* \"#utility.yul\":3196:3217   */\n          tag_283\n            /* \"#utility.yul\":3211:3216   */\n          dup2\n            /* \"#utility.yul\":3196:3217   */\n          tag_216\n          jump\t// in\n        tag_283:\n            /* \"#utility.yul\":3191:3194   */\n          dup3\n            /* \"#utility.yul\":3184:3218   */\n          mstore\n            /* \"#utility.yul\":3115:3224   */\n          pop\n          pop\n          jump\t// out\n            /* \"#utility.yul\":3230:3440   */\n        tag_30:\n            /* \"#utility.yul\":3317:3321   */\n          0x00\n            /* \"#utility.yul\":3355:3357   */\n          0x20\n            /* \"#utility.yul\":3344:3353   */\n          dup3\n            /* \"#utility.yul\":3340:3358   */\n          add\n            /* \"#utility.yul\":3332:3358   */\n          swap1\n          pop\n            /* \"#utility.yul\":3368:3433   */\n          tag_285\n            /* \"#utility.yul\":3430:3431   */\n          0x00\n            /* \"#utility.yul\":3419:3428   */\n          dup4\n            /* \"#utility.yul\":3415:3432   */\n          add\n            /* \"#utility.yul\":3406:3412   */\n          dup5\n            /* \"#utility.yul\":3368:3433   */\n          tag_217\n          jump\t// in\n        tag_285:\n            /* \"#utility.yul\":3230:3440   */\n          swap3\n          swap2\n          pop\n          pop\n          jump\t// out\n            /* \"#utility.yul\":3446:3564   */\n        tag_218:\n            /* \"#utility.yul\":3533:3557   */\n          tag_287\n            /* \"#utility.yul\":3551:3556   */\n          dup2\n            /* \"#utility.yul\":3533:3557   */\n          tag_213\n          jump\t// in\n        tag_287:\n            /* \"#utility.yul\":3528:3531   */\n          dup3\n            /* \"#utility.yul\":3521:3558   */\n          mstore\n            /* \"#utility.yul\":3446:3564   */\n          pop\n          pop\n          jump\t// out\n            /* \"#utility.yul\":3570:3792   */\n        tag_34:\n            /* \"#utility.yul\":3663:3667   */\n          0x00\n            /* \"#utility.yul\":3701:3703   */\n          0x20\n            /* \"#utility.yul\":3690:3699   */\n          dup3\n            /* \"#utility.yul\":3686:3704   */\n          add\n            /* \"#utility.yul\":3678:3704   */\n          swap1\n          pop\n            /* \"#utility.yul\":3714:3785   */\n          tag_289\n            /* \"#utility.yul\":3782:3783   */\n          0x00\n            /* \"#utility.yul\":3771:3780   */\n          dup4\n            /* \"#utility.yul\":3767:3784   */\n          add\n            /* \"#utility.yul\":3758:3764   */\n          dup5\n            /* \"#utility.yul\":3714:3785   */\n          tag_218\n          jump\t// in\n        tag_289:\n            /* \"#utility.yul\":3570:3792   */\n          swap3\n          swap2\n          pop\n          pop\n          jump\t// out\n            /* \"#utility.yul\":3798:4417   */\n        tag_37:\n            /* \"#utility.yul\":3875:3881   */\n          0x00\n            /* \"#utility.yul\":3883:3889   */\n          dup1\n            /* \"#utility.yul\":3891:3897   */\n          0x00\n            /* \"#utility.yul\":3940:3942   */\n          0x60\n            /* \"#utility.yul\":3928:3937   */\n          dup5\n            /* \"#utility.yul\":3919:3926   */\n          dup7\n            /* \"#utility.yul\":3915:3938   */\n          sub\n            /* \"#utility.yul\":3911:3943   */\n          slt\n            /* \"#utility.yul\":3908:4027   */\n          iszero\n          tag_291\n          jumpi\n            /* \"#utility.yul\":3946:4025   */\n          tag_292\n          tag_207\n          jump\t// in\n        tag_292:\n            /* \"#utility.yul\":3908:4027   */\n        tag_291:\n            /* \"#utility.yul\":4066:4067   */\n          0x00\n            /* \"#utility.yul\":4091:4144   */\n          tag_293\n            /* \"#utility.yul\":4136:4143   */\n          dup7\n            /* \"#utility.yul\":4127:4133   */\n          dup3\n            /* \"#utility.yul\":4116:4125   */\n          dup8\n            /* \"#utility.yul\":4112:4134   */\n          add\n            /* \"#utility.yul\":4091:4144   */\n          tag_212\n          jump\t// in\n        tag_293:\n            /* \"#utility.yul\":4081:4144   */\n          swap4\n          pop\n            /* \"#utility.yul\":4037:4154   */\n          pop\n            /* \"#utility.yul\":4193:4195   */\n          0x20\n            /* \"#utility.yul\":4219:4272   */\n          tag_294\n            /* \"#utility.yul\":4264:4271   */\n          dup7\n            /* \"#utility.yul\":4255:4261   */\n          dup3\n            /* \"#utility.yul\":4244:4253   */\n          dup8\n            /* \"#utility.yul\":4240:4262   */\n          add\n            /* \"#utility.yul\":4219:4272   */\n          tag_212\n          jump\t// in\n        tag_294:\n            /* \"#utility.yul\":4209:4272   */\n          swap3\n          pop\n            /* \"#utility.yul\":4164:4282   */\n          pop\n            /* \"#utility.yul\":4321:4323   */\n          0x40\n            /* \"#utility.yul\":4347:4400   */\n          tag_295\n            /* \"#utility.yul\":4392:4399   */\n          dup7\n            /* \"#utility.yul\":4383:4389   */\n          dup3\n            /* \"#utility.yul\":4372:4381   */\n          dup8\n            /* \"#utility.yul\":4368:4390   */\n          add\n            /* \"#utility.yul\":4347:4400   */\n          tag_215\n          jump\t// in\n        tag_295:\n            /* \"#utility.yul\":4337:4400   */\n          swap2\n          pop\n            /* \"#utility.yul\":4292:4410   */\n          pop\n            /* \"#utility.yul\":3798:4417   */\n          swap3\n          pop\n          swap3\n          pop\n          swap3\n          jump\t// out\n            /* \"#utility.yul\":4423:4509   */\n        tag_219:\n            /* \"#utility.yul\":4458:4465   */\n          0x00\n            /* \"#utility.yul\":4498:4502   */\n          0xff\n            /* \"#utility.yul\":4491:4496   */\n          dup3\n            /* \"#utility.yul\":4487:4503   */\n          and\n            /* \"#utility.yul\":4476:4503   */\n          swap1\n          pop\n            /* \"#utility.yul\":4423:4509   */\n          swap2\n          swap1\n          pop\n          jump\t// out\n            /* \"#utility.yul\":4515:4627   */\n        tag_220:\n            /* \"#utility.yul\":4598:4620   */\n          tag_298\n            /* \"#utility.yul\":4614:4619   */\n          dup2\n            /* \"#utility.yul\":4598:4620   */\n          tag_219\n          jump\t// in\n        tag_298:\n            /* \"#utility.yul\":4593:4596   */\n          dup3\n            /* \"#utility.yul\":4586:4621   */\n          mstore\n            /* \"#utility.yul\":4515:4627   */\n          pop\n          pop\n          jump\t// out\n            /* \"#utility.yul\":4633:4847   */\n        tag_43:\n            /* \"#utility.yul\":4722:4726   */\n          0x00\n            /* \"#utility.yul\":4760:4762   */\n          0x20\n            /* \"#utility.yul\":4749:4758   */\n          dup3\n            /* \"#utility.yul\":4745:4763   */\n          add\n            /* \"#utility.yul\":4737:4763   */\n          swap1\n          pop\n            /* \"#utility.yul\":4773:4840   */\n          tag_300\n            /* \"#utility.yul\":4837:4838   */\n          0x00\n            /* \"#utility.yul\":4826:4835   */\n          dup4\n            /* \"#utility.yul\":4822:4839   */\n          add\n            /* \"#utility.yul\":4813:4819   */\n          dup5\n            /* \"#utility.yul\":4773:4840   */\n          tag_220\n          jump\t// in\n        tag_300:\n            /* \"#utility.yul\":4633:4847   */\n          swap3\n          swap2\n          pop\n          pop\n          jump\t// out\n            /* \"#utility.yul\":4853:5182   */\n        tag_50:\n            /* \"#utility.yul\":4912:4918   */\n          0x00\n            /* \"#utility.yul\":4961:4963   */\n          0x20\n            /* \"#utility.yul\":4949:4958   */\n          dup3\n            /* \"#utility.yul\":4940:4947   */\n          dup5\n            /* \"#utility.yul\":4936:4959   */\n          sub\n            /* \"#utility.yul\":4932:4964   */\n          slt\n            /* \"#utility.yul\":4929:5048   */\n          iszero\n          tag_302\n          jumpi\n            /* \"#utility.yul\":4967:5046   */\n          tag_303\n          tag_207\n          jump\t// in\n        tag_303:\n            /* \"#utility.yul\":4929:5048   */\n        tag_302:\n            /* \"#utility.yul\":5087:5088   */\n          0x00\n            /* \"#utility.yul\":5112:5165   */\n          tag_304\n            /* \"#utility.yul\":5157:5164   */\n          dup5\n            /* \"#utility.yul\":5148:5154   */\n          dup3\n            /* \"#utility.yul\":5137:5146   */\n          dup6\n            /* \"#utility.yul\":5133:5155   */\n          add\n            /* \"#utility.yul\":5112:5165   */\n          tag_212\n          jump\t// in\n        tag_304:\n            /* \"#utility.yul\":5102:5165   */\n          swap2\n          pop\n            /* \"#utility.yul\":5058:5175   */\n          pop\n            /* \"#utility.yul\":4853:5182   */\n          swap3\n          swap2\n          pop\n          pop\n          jump\t// out\n            /* \"#utility.yul\":5188:5306   */\n        tag_221:\n            /* \"#utility.yul\":5275:5299   */\n          tag_306\n            /* \"#utility.yul\":5293:5298   */\n          dup2\n            /* \"#utility.yul\":5275:5299   */\n          tag_210\n          jump\t// in\n        tag_306:\n            /* \"#utility.yul\":5270:5273   */\n          dup3\n            /* \"#utility.yul\":5263:5300   */\n          mstore\n            /* \"#utility.yul\":5188:5306   */\n          pop\n          pop\n          jump\t// out\n            /* \"#utility.yul\":5312:5534   */\n        tag_58:\n            /* \"#utility.yul\":5405:5409   */\n          0x00\n            /* \"#utility.yul\":5443:5445   */\n          0x20\n            /* \"#utility.yul\":5432:5441   */\n          dup3\n            /* \"#utility.yul\":5428:5446   */\n          add\n            /* \"#utility.yul\":5420:5446   */\n          swap1\n          pop\n            /* \"#utility.yul\":5456:5527   */\n          tag_308\n            /* \"#utility.yul\":5524:5525   */\n          0x00\n            /* \"#utility.yul\":5513:5522   */\n          dup4\n            /* \"#utility.yul\":5509:5526   */\n          add\n            /* \"#utility.yul\":5500:5506   */\n          dup5\n            /* \"#utility.yul\":5456:5527   */\n          tag_221\n          jump\t// in\n        tag_308:\n            /* \"#utility.yul\":5312:5534   */\n          swap3\n          swap2\n          pop\n          pop\n          jump\t// out\n            /* \"#utility.yul\":5540:5869   */\n        tag_64:\n            /* \"#utility.yul\":5599:5605   */\n          0x00\n            /* \"#utility.yul\":5648:5650   */\n          0x20\n            /* \"#utility.yul\":5636:5645   */\n          dup3\n            /* \"#utility.yul\":5627:5634   */\n          dup5\n            /* \"#utility.yul\":5623:5646   */\n          sub\n            /* \"#utility.yul\":5619:5651   */\n          slt\n            /* \"#utility.yul\":5616:5735   */\n          iszero\n          tag_310\n          jumpi\n            /* \"#utility.yul\":5654:5733   */\n          tag_311\n          tag_207\n          jump\t// in\n        tag_311:\n            /* \"#utility.yul\":5616:5735   */\n        tag_310:\n            /* \"#utility.yul\":5774:5775   */\n          0x00\n            /* \"#utility.yul\":5799:5852   */\n          tag_312\n            /* \"#utility.yul\":5844:5851   */\n          dup5\n            /* \"#utility.yul\":5835:5841   */\n          dup3\n            /* \"#utility.yul\":5824:5833   */\n          dup6\n            /* \"#utility.yul\":5820:5842   */\n          add\n            /* \"#utility.yul\":5799:5852   */\n          tag_215\n          jump\t// in\n        tag_312:\n            /* \"#utility.yul\":5789:5852   */\n          swap2\n          pop\n            /* \"#utility.yul\":5745:5862   */\n          pop\n            /* \"#utility.yul\":5540:5869   */\n          swap3\n          swap2\n          pop\n          pop\n          jump\t// out\n            /* \"#utility.yul\":5875:6349   */\n        tag_76:\n            /* \"#utility.yul\":5943:5949   */\n          0x00\n            /* \"#utility.yul\":5951:5957   */\n          dup1\n            /* \"#utility.yul\":6000:6002   */\n          0x40\n            /* \"#utility.yul\":5988:5997   */\n          dup4\n            /* \"#utility.yul\":5979:5986   */\n          dup6\n            /* \"#utility.yul\":5975:5998   */\n          sub\n            /* \"#utility.yul\":5971:6003   */\n          slt\n            /* \"#utility.yul\":5968:6087   */\n          iszero\n          tag_314\n          jumpi\n            /* \"#utility.yul\":6006:6085   */\n          tag_315\n          tag_207\n          jump\t// in\n        tag_315:\n            /* \"#utility.yul\":5968:6087   */\n        tag_314:\n            /* \"#utility.yul\":6126:6127   */\n          0x00\n            /* \"#utility.yul\":6151:6204   */\n          tag_316\n            /* \"#utility.yul\":6196:6203   */\n          dup6\n            /* \"#utility.yul\":6187:6193   */\n          dup3\n            /* \"#utility.yul\":6176:6185   */\n          dup7\n            /* \"#utility.yul\":6172:6194   */\n          add\n            /* \"#utility.yul\":6151:6204   */\n          tag_212\n          jump\t// in\n        tag_316:\n            /* \"#utility.yul\":6141:6204   */\n          swap3\n          pop\n            /* \"#utility.yul\":6097:6214   */\n          pop\n            /* \"#utility.yul\":6253:6255   */\n          0x20\n            /* \"#utility.yul\":6279:6332   */\n          tag_317\n            /* \"#utility.yul\":6324:6331   */\n          dup6\n            /* \"#utility.yul\":6315:6321   */\n          dup3\n            /* \"#utility.yul\":6304:6313   */\n          dup7\n            /* \"#utility.yul\":6300:6322   */\n          add\n            /* \"#utility.yul\":6279:6332   */\n          tag_212\n          jump\t// in\n        tag_317:\n            /* \"#utility.yul\":6269:6332   */\n          swap2\n          pop\n            /* \"#utility.yul\":6224:6342   */\n          pop\n            /* \"#utility.yul\":5875:6349   */\n          swap3\n          pop\n          swap3\n          swap1\n          pop\n          jump\t// out\n            /* \"#utility.yul\":6355:6535   */\n        tag_222:\n            /* \"#utility.yul\":6403:6480   */\n          0x4e487b7100000000000000000000000000000000000000000000000000000000\n            /* \"#utility.yul\":6400:6401   */\n          0x00\n            /* \"#utility.yul\":6393:6481   */\n          mstore\n            /* \"#utility.yul\":6500:6504   */\n          0x22\n            /* \"#utility.yul\":6497:6498   */\n          0x04\n            /* \"#utility.yul\":6490:6505   */\n          mstore\n            /* \"#utility.yul\":6524:6528   */\n          0x24\n            /* \"#utility.yul\":6521:6522   */\n          0x00\n            /* \"#utility.yul\":6514:6529   */\n          revert\n            /* \"#utility.yul\":6541:6861   */\n        tag_84:\n            /* \"#utility.yul\":6585:6591   */\n          0x00\n            /* \"#utility.yul\":6622:6623   */\n          0x02\n            /* \"#utility.yul\":6616:6620   */\n          dup3\n            /* \"#utility.yul\":6612:6624   */\n          div\n            /* \"#utility.yul\":6602:6624   */\n          swap1\n          pop\n            /* \"#utility.yul\":6669:6670   */\n          0x01\n            /* \"#utility.yul\":6663:6667   */\n          dup3\n            /* \"#utility.yul\":6659:6671   */\n          and\n            /* \"#utility.yul\":6690:6708   */\n          dup1\n            /* \"#utility.yul\":6680:6761   */\n          tag_320\n          jumpi\n            /* \"#utility.yul\":6746:6750   */\n          0x7f\n            /* \"#utility.yul\":6738:6744   */\n          dup3\n            /* \"#utility.yul\":6734:6751   */\n          and\n            /* \"#utility.yul\":6724:6751   */\n          swap2\n          pop\n            /* \"#utility.yul\":6680:6761   */\n        tag_320:\n            /* \"#utility.yul\":6808:6810   */\n          0x20\n            /* \"#utility.yul\":6800:6806   */\n          dup3\n            /* \"#utility.yul\":6797:6811   */\n          lt\n            /* \"#utility.yul\":6777:6795   */\n          dup2\n            /* \"#utility.yul\":6774:6812   */\n          sub\n            /* \"#utility.yul\":6771:6855   */\n          tag_321\n          jumpi\n            /* \"#utility.yul\":6827:6845   */\n          tag_322\n          tag_222\n          jump\t// in\n        tag_322:\n            /* \"#utility.yul\":6771:6855   */\n        tag_321:\n            /* \"#utility.yul\":6592:6861   */\n          pop\n            /* \"#utility.yul\":6541:6861   */\n          swap2\n          swap1\n          pop\n          jump\t// out\n            /* \"#utility.yul\":6867:7047   */\n        tag_223:\n            /* \"#utility.yul\":6915:6992   */\n          0x4e487b7100000000000000000000000000000000000000000000000000000000\n            /* \"#utility.yul\":6912:6913   */\n          0x00\n            /* \"#utility.yul\":6905:6993   */\n          mstore\n            /* \"#utility.yul\":7012:7016   */\n          0x11\n            /* \"#utility.yul\":7009:7010   */\n          0x04\n            /* \"#utility.yul\":7002:7017   */\n          mstore\n            /* \"#utility.yul\":7036:7040   */\n          0x24\n            /* \"#utility.yul\":7033:7034   */\n          0x00\n            /* \"#utility.yul\":7026:7041   */\n          revert\n            /* \"#utility.yul\":7053:7244   */\n        tag_112:\n            /* \"#utility.yul\":7093:7096   */\n          0x00\n            /* \"#utility.yul\":7112:7132   */\n          tag_325\n            /* \"#utility.yul\":7130:7131   */\n          dup3\n            /* \"#utility.yul\":7112:7132   */\n          tag_213\n          jump\t// in\n        tag_325:\n            /* \"#utility.yul\":7107:7132   */\n          swap2\n          pop\n            /* \"#utility.yul\":7146:7166   */\n          tag_326\n            /* \"#utility.yul\":7164:7165   */\n          dup4\n            /* \"#utility.yul\":7146:7166   */\n          tag_213\n          jump\t// in\n        tag_326:\n            /* \"#utility.yul\":7141:7166   */\n          swap3\n          pop\n            /* \"#utility.yul\":7189:7190   */\n          dup3\n            /* \"#utility.yul\":7186:7187   */\n          dup3\n            /* \"#utility.yul\":7182:7191   */\n          add\n            /* \"#utility.yul\":7175:7191   */\n          swap1\n          pop\n            /* \"#utility.yul\":7210:7213   */\n          dup1\n            /* \"#utility.yul\":7207:7208   */\n          dup3\n            /* \"#utility.yul\":7204:7214   */\n          gt\n            /* \"#utility.yul\":7201:7237   */\n          iszero\n          tag_327\n          jumpi\n            /* \"#utility.yul\":7217:7235   */\n          tag_328\n          tag_223\n          jump\t// in\n        tag_328:\n            /* \"#utility.yul\":7201:7237   */\n        tag_327:\n            /* \"#utility.yul\":7053:7244   */\n          swap3\n          swap2\n          pop\n          pop\n          jump\t// out\n            /* \"#utility.yul\":7250:7660   */\n        tag_131:\n            /* \"#utility.yul\":7290:7297   */\n          0x00\n            /* \"#utility.yul\":7313:7333   */\n          tag_330\n            /* \"#utility.yul\":7331:7332   */\n          dup3\n            /* \"#utility.yul\":7313:7333   */\n          tag_213\n          jump\t// in\n        tag_330:\n            /* \"#utility.yul\":7308:7333   */\n          swap2\n          pop\n            /* \"#utility.yul\":7347:7367   */\n          tag_331\n            /* \"#utility.yul\":7365:7366   */\n          dup4\n            /* \"#utility.yul\":7347:7367   */\n          tag_213\n          jump\t// in\n        tag_331:\n            /* \"#utility.yul\":7342:7367   */\n          swap3\n          pop\n            /* \"#utility.yul\":7402:7403   */\n          dup3\n            /* \"#utility.yul\":7399:7400   */\n          dup3\n            /* \"#utility.yul\":7395:7404   */\n          mul\n            /* \"#utility.yul\":7424:7454   */\n          tag_332\n            /* \"#utility.yul\":7442:7453   */\n          dup2\n            /* \"#utility.yul\":7424:7454   */\n          tag_213\n          jump\t// in\n        tag_332:\n            /* \"#utility.yul\":7413:7454   */\n          swap2\n          pop\n            /* \"#utility.yul\":7603:7604   */\n          dup3\n            /* \"#utility.yul\":7594:7601   */\n          dup3\n            /* \"#utility.yul\":7590:7605   */\n          div\n            /* \"#utility.yul\":7587:7588   */\n          dup5\n            /* \"#utility.yul\":7584:7606   */\n          eq\n            /* \"#utility.yul\":7564:7565   */\n          dup4\n            /* \"#utility.yul\":7557:7566   */\n          iszero\n            /* \"#utility.yul\":7537:7620   */\n          or\n            /* \"#utility.yul\":7514:7653   */\n          tag_333\n          jumpi\n            /* \"#utility.yul\":7633:7651   */\n          tag_334\n          tag_223\n          jump\t// in\n        tag_334:\n            /* \"#utility.yul\":7514:7653   */\n        tag_333:\n            /* \"#utility.yul\":7298:7660   */\n          pop\n            /* \"#utility.yul\":7250:7660   */\n          swap3\n          swap2\n          pop\n          pop\n          jump\t// out\n            /* \"#utility.yul\":7666:7890   */\n        tag_224:\n            /* \"#utility.yul\":7806:7840   */\n          0x45524332303a2064656372656173656420616c6c6f77616e63652062656c6f77\n            /* \"#utility.yul\":7802:7803   */\n          0x00\n            /* \"#utility.yul\":7794:7800   */\n          dup3\n            /* \"#utility.yul\":7790:7804   */\n          add\n            /* \"#utility.yul\":7783:7841   */\n          mstore\n            /* \"#utility.yul\":7875:7882   */\n          0x207a65726f000000000000000000000000000000000000000000000000000000\n            /* \"#utility.yul\":7870:7872   */\n          0x20\n            /* \"#utility.yul\":7862:7868   */\n          dup3\n            /* \"#utility.yul\":7858:7873   */\n          add\n            /* \"#utility.yul\":7851:7883   */\n          mstore\n            /* \"#utility.yul\":7666:7890   */\n          pop\n          jump\t// out\n            /* \"#utility.yul\":7896:8262   */\n        tag_225:\n            /* \"#utility.yul\":8038:8041   */\n          0x00\n            /* \"#utility.yul\":8059:8126   */\n          tag_337\n            /* \"#utility.yul\":8123:8125   */\n          0x25\n            /* \"#utility.yul\":8118:8121   */\n          dup4\n            /* \"#utility.yul\":8059:8126   */\n          tag_202\n          jump\t// in\n        tag_337:\n            /* \"#utility.yul\":8052:8126   */\n          swap2\n          pop\n            /* \"#utility.yul\":8135:8228   */\n          tag_338\n            /* \"#utility.yul\":8224:8227   */\n          dup3\n            /* \"#utility.yul\":8135:8228   */\n          tag_224\n          jump\t// in\n        tag_338:\n            /* \"#utility.yul\":8253:8255   */\n          0x40\n            /* \"#utility.yul\":8248:8251   */\n          dup3\n            /* \"#utility.yul\":8244:8256   */\n          add\n            /* \"#utility.yul\":8237:8256   */\n          swap1\n          pop\n            /* \"#utility.yul\":7896:8262   */\n          swap2\n          swap1\n          pop\n          jump\t// out\n            /* \"#utility.yul\":8268:8687   */\n        tag_138:\n            /* \"#utility.yul\":8434:8438   */\n          0x00\n            /* \"#utility.yul\":8472:8474   */\n          0x20\n            /* \"#utility.yul\":8461:8470   */\n          dup3\n            /* \"#utility.yul\":8457:8475   */\n          add\n            /* \"#utility.yul\":8449:8475   */\n          swap1\n          pop\n            /* \"#utility.yul\":8521:8530   */\n          dup2\n            /* \"#utility.yul\":8515:8519   */\n          dup2\n            /* \"#utility.yul\":8511:8531   */\n          sub\n            /* \"#utility.yul\":8507:8508   */\n          0x00\n            /* \"#utility.yul\":8496:8505   */\n          dup4\n            /* \"#utility.yul\":8492:8509   */\n          add\n            /* \"#utility.yul\":8485:8532   */\n          mstore\n            /* \"#utility.yul\":8549:8680   */\n          tag_340\n            /* \"#utility.yul\":8675:8679   */\n          dup2\n            /* \"#utility.yul\":8549:8680   */\n          tag_225\n          jump\t// in\n        tag_340:\n            /* \"#utility.yul\":8541:8680   */\n          swap1\n          pop\n            /* \"#utility.yul\":8268:8687   */\n          swap2\n          swap1\n          pop\n          jump\t// out\n            /* \"#utility.yul\":8693:8918   */\n        tag_226:\n            /* \"#utility.yul\":8833:8867   */\n          0x4f776e61626c653a206e6577206f776e657220697320746865207a65726f2061\n            /* \"#utility.yul\":8829:8830   */\n          0x00\n            /* \"#utility.yul\":8821:8827   */\n          dup3\n            /* \"#utility.yul\":8817:8831   */\n          add\n            /* \"#utility.yul\":8810:8868   */\n          mstore\n            /* \"#utility.yul\":8902:8910   */\n          0x6464726573730000000000000000000000000000000000000000000000000000\n            /* \"#utility.yul\":8897:8899   */\n          0x20\n            /* \"#utility.yul\":8889:8895   */\n          dup3\n            /* \"#utility.yul\":8885:8900   */\n          add\n            /* \"#utility.yul\":8878:8911   */\n          mstore\n            /* \"#utility.yul\":8693:8918   */\n          pop\n          jump\t// out\n            /* \"#utility.yul\":8924:9290   */\n        tag_227:\n            /* \"#utility.yul\":9066:9069   */\n          0x00\n            /* \"#utility.yul\":9087:9154   */\n          tag_343\n            /* \"#utility.yul\":9151:9153   */\n          0x26\n            /* \"#utility.yul\":9146:9149   */\n          dup4\n            /* \"#utility.yul\":9087:9154   */\n          tag_202\n          jump\t// in\n        tag_343:\n            /* \"#utility.yul\":9080:9154   */\n          swap2\n          pop\n            /* \"#utility.yul\":9163:9256   */\n          tag_344\n            /* \"#utility.yul\":9252:9255   */\n          dup3\n            /* \"#utility.yul\":9163:9256   */\n          tag_226\n          jump\t// in\n        tag_344:\n            /* \"#utility.yul\":9281:9283   */\n          0x40\n            /* \"#utility.yul\":9276:9279   */\n          dup3\n            /* \"#utility.yul\":9272:9284   */\n          add\n            /* \"#utility.yul\":9265:9284   */\n          swap1\n          pop\n            /* \"#utility.yul\":8924:9290   */\n          swap2\n          swap1\n          pop\n          jump\t// out\n            /* \"#utility.yul\":9296:9715   */\n        tag_151:\n            /* \"#utility.yul\":9462:9466   */\n          0x00\n            /* \"#utility.yul\":9500:9502   */\n          0x20\n            /* \"#utility.yul\":9489:9498   */\n          dup3\n            /* \"#utility.yul\":9485:9503   */\n          add\n            /* \"#utility.yul\":9477:9503   */\n          swap1\n          pop\n            /* \"#utility.yul\":9549:9558   */\n          dup2\n            /* \"#utility.yul\":9543:9547   */\n          dup2\n            /* \"#utility.yul\":9539:9559   */\n          sub\n            /* \"#utility.yul\":9535:9536   */\n          0x00\n            /* \"#utility.yul\":9524:9533   */\n          dup4\n            /* \"#utility.yul\":9520:9537   */\n          add\n            /* \"#utility.yul\":9513:9560   */\n          mstore\n            /* \"#utility.yul\":9577:9708   */\n          tag_346\n            /* \"#utility.yul\":9703:9707   */\n          dup2\n            /* \"#utility.yul\":9577:9708   */\n          tag_227\n          jump\t// in\n        tag_346:\n            /* \"#utility.yul\":9569:9708   */\n          swap1\n          pop\n            /* \"#utility.yul\":9296:9715   */\n          swap2\n          swap1\n          pop\n          jump\t// out\n            /* \"#utility.yul\":9721:9903   */\n        tag_228:\n            /* \"#utility.yul\":9861:9895   */\n          0x4f776e61626c653a2063616c6c6572206973206e6f7420746865206f776e6572\n            /* \"#utility.yul\":9857:9858   */\n          0x00\n            /* \"#utility.yul\":9849:9855   */\n          dup3\n            /* \"#utility.yul\":9845:9859   */\n          add\n            /* \"#utility.yul\":9838:9896   */\n          mstore\n            /* \"#utility.yul\":9721:9903   */\n          pop\n          jump\t// out\n            /* \"#utility.yul\":9909:10275   */\n        tag_229:\n            /* \"#utility.yul\":10051:10054   */\n          0x00\n            /* \"#utility.yul\":10072:10139   */\n          tag_349\n            /* \"#utility.yul\":10136:10138   */\n          0x20\n            /* \"#utility.yul\":10131:10134   */\n          dup4\n            /* \"#utility.yul\":10072:10139   */\n          tag_202\n          jump\t// in\n        tag_349:\n            /* \"#utility.yul\":10065:10139   */\n          swap2\n          pop\n            /* \"#utility.yul\":10148:10241   */\n          tag_350\n            /* \"#utility.yul\":10237:10240   */\n          dup3\n            /* \"#utility.yul\":10148:10241   */\n          tag_228\n          jump\t// in\n        tag_350:\n            /* \"#utility.yul\":10266:10268   */\n          0x20\n            /* \"#utility.yul\":10261:10264   */\n          dup3\n            /* \"#utility.yul\":10257:10269   */\n          add\n            /* \"#utility.yul\":10250:10269   */\n          swap1\n          pop\n            /* \"#utility.yul\":9909:10275   */\n          swap2\n          swap1\n          pop\n          jump\t// out\n            /* \"#utility.yul\":10281:10700   */\n        tag_158:\n            /* \"#utility.yul\":10447:10451   */\n          0x00\n            /* \"#utility.yul\":10485:10487   */\n          0x20\n            /* \"#utility.yul\":10474:10483   */\n          dup3\n            /* \"#utility.yul\":10470:10488   */\n          add\n            /* \"#utility.yul\":10462:10488   */\n          swap1\n          pop\n            /* \"#utility.yul\":10534:10543   */\n          dup2\n            /* \"#utility.yul\":10528:10532   */\n          dup2\n            /* \"#utility.yul\":10524:10544   */\n          sub\n            /* \"#utility.yul\":10520:10521   */\n          0x00\n            /* \"#utility.yul\":10509:10518   */\n          dup4\n            /* \"#utility.yul\":10505:10522   */\n          add\n            /* \"#utility.yul\":10498:10545   */\n          mstore\n            /* \"#utility.yul\":10562:10693   */\n          tag_352\n            /* \"#utility.yul\":10688:10692   */\n          dup2\n            /* \"#utility.yul\":10562:10693   */\n          tag_229\n          jump\t// in\n        tag_352:\n            /* \"#utility.yul\":10554:10693   */\n          swap1\n          pop\n            /* \"#utility.yul\":10281:10700   */\n          swap2\n          swap1\n          pop\n          jump\t// out\n            /* \"#utility.yul\":10706:10929   */\n        tag_230:\n            /* \"#utility.yul\":10846:10880   */\n          0x45524332303a20617070726f76652066726f6d20746865207a65726f20616464\n            /* \"#utility.yul\":10842:10843   */\n          0x00\n            /* \"#utility.yul\":10834:10840   */\n          dup3\n            /* \"#utility.yul\":10830:10844   */\n          add\n            /* \"#utility.yul\":10823:10881   */\n          mstore\n            /* \"#utility.yul\":10915:10921   */\n          0x7265737300000000000000000000000000000000000000000000000000000000\n            /* \"#utility.yul\":10910:10912   */\n          0x20\n            /* \"#utility.yul\":10902:10908   */\n          dup3\n            /* \"#utility.yul\":10898:10913   */\n          add\n            /* \"#utility.yul\":10891:10922   */\n          mstore\n            /* \"#utility.yul\":10706:10929   */\n          pop\n          jump\t// out\n            /* \"#utility.yul\":10935:11301   */\n        tag_231:\n            /* \"#utility.yul\":11077:11080   */\n          0x00\n            /* \"#utility.yul\":11098:11165   */\n          tag_355\n            /* \"#utility.yul\":11162:11164   */\n          0x24\n            /* \"#utility.yul\":11157:11160   */\n          dup4\n            /* \"#utility.yul\":11098:11165   */\n          tag_202\n          jump\t// in\n        tag_355:\n            /* \"#utility.yul\":11091:11165   */\n          swap2\n          pop\n            /* \"#utility.yul\":11174:11267   */\n          tag_356\n            /* \"#utility.yul\":11263:11266   */\n          dup3\n            /* \"#utility.yul\":11174:11267   */\n          tag_230\n          jump\t// in\n        tag_356:\n            /* \"#utility.yul\":11292:11294   */\n          0x40\n            /* \"#utility.yul\":11287:11290   */\n          dup3\n            /* \"#utility.yul\":11283:11295   */\n          add\n            /* \"#utility.yul\":11276:11295   */\n          swap1\n          pop\n            /* \"#utility.yul\":10935:11301   */\n          swap2\n          swap1\n          pop\n          jump\t// out\n            /* \"#utility.yul\":11307:11726   */\n        tag_163:\n            /* \"#utility.yul\":11473:11477   */\n          0x00\n            /* \"#utility.yul\":11511:11513   */\n          0x20\n            /* \"#utility.yul\":11500:11509   */\n          dup3\n            /* \"#utility.yul\":11496:11514   */\n          add\n            /* \"#utility.yul\":11488:11514   */\n          swap1\n          pop\n            /* \"#utility.yul\":11560:11569   */\n          dup2\n            /* \"#utility.yul\":11554:11558   */\n          dup2\n            /* \"#utility.yul\":11550:11570   */\n          sub\n            /* \"#utility.yul\":11546:11547   */\n          0x00\n            /* \"#utility.yul\":11535:11544   */\n          dup4\n            /* \"#utility.yul\":11531:11548   */\n          add\n            /* \"#utility.yul\":11524:11571   */\n          mstore\n            /* \"#utility.yul\":11588:11719   */\n          tag_358\n            /* \"#utility.yul\":11714:11718   */\n          dup2\n            /* \"#utility.yul\":11588:11719   */\n          tag_231\n          jump\t// in\n        tag_358:\n            /* \"#utility.yul\":11580:11719   */\n          swap1\n          pop\n            /* \"#utility.yul\":11307:11726   */\n          swap2\n          swap1\n          pop\n          jump\t// out\n            /* \"#utility.yul\":11732:11953   */\n        tag_232:\n            /* \"#utility.yul\":11872:11906   */\n          0x45524332303a20617070726f766520746f20746865207a65726f206164647265\n            /* \"#utility.yul\":11868:11869   */\n          0x00\n            /* \"#utility.yul\":11860:11866   */\n          dup3\n            /* \"#utility.yul\":11856:11870   */\n          add\n            /* \"#utility.yul\":11849:11907   */\n          mstore\n            /* \"#utility.yul\":11941:11945   */\n          0x7373000000000000000000000000000000000000000000000000000000000000\n            /* \"#utility.yul\":11936:11938   */\n          0x20\n            /* \"#utility.yul\":11928:11934   */\n          dup3\n            /* \"#utility.yul\":11924:11939   */\n          add\n            /* \"#utility.yul\":11917:11946   */\n          mstore\n            /* \"#utility.yul\":11732:11953   */\n          pop\n          jump\t// out\n            /* \"#utility.yul\":11959:12325   */\n        tag_233:\n            /* \"#utility.yul\":12101:12104   */\n          0x00\n            /* \"#utility.yul\":12122:12189   */\n          tag_361\n            /* \"#utility.yul\":12186:12188   */\n          0x22\n            /* \"#utility.yul\":12181:12184   */\n          dup4\n            /* \"#utility.yul\":12122:12189   */\n          tag_202\n          jump\t// in\n        tag_361:\n            /* \"#utility.yul\":12115:12189   */\n          swap2\n          pop\n            /* \"#utility.yul\":12198:12291   */\n          tag_362\n            /* \"#utility.yul\":12287:12290   */\n          dup3\n            /* \"#utility.yul\":12198:12291   */\n          tag_232\n          jump\t// in\n        tag_362:\n            /* \"#utility.yul\":12316:12318   */\n          0x40\n            /* \"#utility.yul\":12311:12314   */\n          dup3\n            /* \"#utility.yul\":12307:12319   */\n          add\n            /* \"#utility.yul\":12300:12319   */\n          swap1\n          pop\n            /* \"#utility.yul\":11959:12325   */\n          swap2\n          swap1\n          pop\n          jump\t// out\n            /* \"#utility.yul\":12331:12750   */\n        tag_166:\n            /* \"#utility.yul\":12497:12501   */\n          0x00\n            /* \"#utility.yul\":12535:12537   */\n          0x20\n            /* \"#utility.yul\":12524:12533   */\n          dup3\n            /* \"#utility.yul\":12520:12538   */\n          add\n            /* \"#utility.yul\":12512:12538   */\n          swap1\n          pop\n            /* \"#utility.yul\":12584:12593   */\n          dup2\n            /* \"#utility.yul\":12578:12582   */\n          dup2\n            /* \"#utility.yul\":12574:12594   */\n          sub\n            /* \"#utility.yul\":12570:12571   */\n          0x00\n            /* \"#utility.yul\":12559:12568   */\n          dup4\n            /* \"#utility.yul\":12555:12572   */\n          add\n            /* \"#utility.yul\":12548:12595   */\n          mstore\n            /* \"#utility.yul\":12612:12743   */\n          tag_364\n            /* \"#utility.yul\":12738:12742   */\n          dup2\n            /* \"#utility.yul\":12612:12743   */\n          tag_233\n          jump\t// in\n        tag_364:\n            /* \"#utility.yul\":12604:12743   */\n          swap1\n          pop\n            /* \"#utility.yul\":12331:12750   */\n          swap2\n          swap1\n          pop\n          jump\t// out\n            /* \"#utility.yul\":12756:12935   */\n        tag_234:\n            /* \"#utility.yul\":12896:12927   */\n          0x45524332303a20696e73756666696369656e7420616c6c6f77616e6365000000\n            /* \"#utility.yul\":12892:12893   */\n          0x00\n            /* \"#utility.yul\":12884:12890   */\n          dup3\n            /* \"#utility.yul\":12880:12894   */\n          add\n            /* \"#utility.yul\":12873:12928   */\n          mstore\n            /* \"#utility.yul\":12756:12935   */\n          pop\n          jump\t// out\n            /* \"#utility.yul\":12941:13307   */\n        tag_235:\n            /* \"#utility.yul\":13083:13086   */\n          0x00\n            /* \"#utility.yul\":13104:13171   */\n          tag_367\n            /* \"#utility.yul\":13168:13170   */\n          0x1d\n            /* \"#utility.yul\":13163:13166   */\n          dup4\n            /* \"#utility.yul\":13104:13171   */\n          tag_202\n          jump\t// in\n        tag_367:\n            /* \"#utility.yul\":13097:13171   */\n          swap2\n          pop\n            /* \"#utility.yul\":13180:13273   */\n          tag_368\n            /* \"#utility.yul\":13269:13272   */\n          dup3\n            /* \"#utility.yul\":13180:13273   */\n          tag_234\n          jump\t// in\n        tag_368:\n            /* \"#utility.yul\":13298:13300   */\n          0x20\n            /* \"#utility.yul\":13293:13296   */\n          dup3\n            /* \"#utility.yul\":13289:13301   */\n          add\n            /* \"#utility.yul\":13282:13301   */\n          swap1\n          pop\n            /* \"#utility.yul\":12941:13307   */\n          swap2\n          swap1\n          pop\n          jump\t// out\n            /* \"#utility.yul\":13313:13732   */\n        tag_173:\n            /* \"#utility.yul\":13479:13483   */\n          0x00\n            /* \"#utility.yul\":13517:13519   */\n          0x20\n            /* \"#utility.yul\":13506:13515   */\n          dup3\n            /* \"#utility.yul\":13502:13520   */\n          add\n            /* \"#utility.yul\":13494:13520   */\n          swap1\n          pop\n            /* \"#utility.yul\":13566:13575   */\n          dup2\n            /* \"#utility.yul\":13560:13564   */\n          dup2\n            /* \"#utility.yul\":13556:13576   */\n          sub\n            /* \"#utility.yul\":13552:13553   */\n          0x00\n            /* \"#utility.yul\":13541:13550   */\n          dup4\n            /* \"#utility.yul\":13537:13554   */\n          add\n            /* \"#utility.yul\":13530:13577   */\n          mstore\n            /* \"#utility.yul\":13594:13725   */\n          tag_370\n            /* \"#utility.yul\":13720:13724   */\n          dup2\n            /* \"#utility.yul\":13594:13725   */\n          tag_235\n          jump\t// in\n        tag_370:\n            /* \"#utility.yul\":13586:13725   */\n          swap1\n          pop\n            /* \"#utility.yul\":13313:13732   */\n          swap2\n          swap1\n          pop\n          jump\t// out\n            /* \"#utility.yul\":13738:13962   */\n        tag_236:\n            /* \"#utility.yul\":13878:13912   */\n          0x45524332303a207472616e736665722066726f6d20746865207a65726f206164\n            /* \"#utility.yul\":13874:13875   */\n          0x00\n            /* \"#utility.yul\":13866:13872   */\n          dup3\n            /* \"#utility.yul\":13862:13876   */\n          add\n            /* \"#utility.yul\":13855:13913   */\n          mstore\n            /* \"#utility.yul\":13947:13954   */\n          0x6472657373000000000000000000000000000000000000000000000000000000\n            /* \"#utility.yul\":13942:13944   */\n          0x20\n            /* \"#utility.yul\":13934:13940   */\n          dup3\n            /* \"#utility.yul\":13930:13945   */\n          add\n            /* \"#utility.yul\":13923:13955   */\n          mstore\n            /* \"#utility.yul\":13738:13962   */\n          pop\n          jump\t// out\n            /* \"#utility.yul\":13968:14334   */\n        tag_237:\n            /* \"#utility.yul\":14110:14113   */\n          0x00\n            /* \"#utility.yul\":14131:14198   */\n          tag_373\n            /* \"#utility.yul\":14195:14197   */\n          0x25\n            /* \"#utility.yul\":14190:14193   */\n          dup4\n            /* \"#utility.yul\":14131:14198   */\n          tag_202\n          jump\t// in\n        tag_373:\n            /* \"#utility.yul\":14124:14198   */\n          swap2\n          pop\n            /* \"#utility.yul\":14207:14300   */\n          tag_374\n            /* \"#utility.yul\":14296:14299   */\n          dup3\n            /* \"#utility.yul\":14207:14300   */\n          tag_236\n          jump\t// in\n        tag_374:\n            /* \"#utility.yul\":14325:14327   */\n          0x40\n            /* \"#utility.yul\":14320:14323   */\n          dup3\n            /* \"#utility.yul\":14316:14328   */\n          add\n            /* \"#utility.yul\":14309:14328   */\n          swap1\n          pop\n            /* \"#utility.yul\":13968:14334   */\n          swap2\n          swap1\n          pop\n          jump\t// out\n            /* \"#utility.yul\":14340:14759   */\n        tag_178:\n            /* \"#utility.yul\":14506:14510   */\n          0x00\n            /* \"#utility.yul\":14544:14546   */\n          0x20\n            /* \"#utility.yul\":14533:14542   */\n          dup3\n            /* \"#utility.yul\":14529:14547   */\n          add\n            /* \"#utility.yul\":14521:14547   */\n          swap1\n          pop\n            /* \"#utility.yul\":14593:14602   */\n          dup2\n            /* \"#utility.yul\":14587:14591   */\n          dup2\n            /* \"#utility.yul\":14583:14603   */\n          sub\n            /* \"#utility.yul\":14579:14580   */\n          0x00\n            /* \"#utility.yul\":14568:14577   */\n          dup4\n            /* \"#utility.yul\":14564:14581   */\n          add\n            /* \"#utility.yul\":14557:14604   */\n          mstore\n            /* \"#utility.yul\":14621:14752   */\n          tag_376\n            /* \"#utility.yul\":14747:14751   */\n          dup2\n            /* \"#utility.yul\":14621:14752   */\n          tag_237\n          jump\t// in\n        tag_376:\n            /* \"#utility.yul\":14613:14752   */\n          swap1\n          pop\n            /* \"#utility.yul\":14340:14759   */\n          swap2\n          swap1\n          pop\n          jump\t// out\n            /* \"#utility.yul\":14765:14987   */\n        tag_238:\n            /* \"#utility.yul\":14905:14939   */\n          0x45524332303a207472616e7366657220746f20746865207a65726f2061646472\n            /* \"#utility.yul\":14901:14902   */\n          0x00\n            /* \"#utility.yul\":14893:14899   */\n          dup3\n            /* \"#utility.yul\":14889:14903   */\n          add\n            /* \"#utility.yul\":14882:14940   */\n          mstore\n            /* \"#utility.yul\":14974:14979   */\n          0x6573730000000000000000000000000000000000000000000000000000000000\n            /* \"#utility.yul\":14969:14971   */\n          0x20\n            /* \"#utility.yul\":14961:14967   */\n          dup3\n            /* \"#utility.yul\":14957:14972   */\n          add\n            /* \"#utility.yul\":14950:14980   */\n          mstore\n            /* \"#utility.yul\":14765:14987   */\n          pop\n          jump\t// out\n            /* \"#utility.yul\":14993:15359   */\n        tag_239:\n            /* \"#utility.yul\":15135:15138   */\n          0x00\n            /* \"#utility.yul\":15156:15223   */\n          tag_379\n            /* \"#utility.yul\":15220:15222   */\n          0x23\n            /* \"#utility.yul\":15215:15218   */\n          dup4\n            /* \"#utility.yul\":15156:15223   */\n          tag_202\n          jump\t// in\n        tag_379:\n            /* \"#utility.yul\":15149:15223   */\n          swap2\n          pop\n            /* \"#utility.yul\":15232:15325   */\n          tag_380\n            /* \"#utility.yul\":15321:15324   */\n          dup3\n            /* \"#utility.yul\":15232:15325   */\n          tag_238\n          jump\t// in\n        tag_380:\n            /* \"#utility.yul\":15350:15352   */\n          0x40\n            /* \"#utility.yul\":15345:15348   */\n          dup3\n            /* \"#utility.yul\":15341:15353   */\n          add\n            /* \"#utility.yul\":15334:15353   */\n          swap1\n          pop\n            /* \"#utility.yul\":14993:15359   */\n          swap2\n          swap1\n          pop\n          jump\t// out\n            /* \"#utility.yul\":15365:15784   */\n        tag_181:\n            /* \"#utility.yul\":15531:15535   */\n          0x00\n            /* \"#utility.yul\":15569:15571   */\n          0x20\n            /* \"#utility.yul\":15558:15567   */\n          dup3\n            /* \"#utility.yul\":15554:15572   */\n          add\n            /* \"#utility.yul\":15546:15572   */\n          swap1\n          pop\n            /* \"#utility.yul\":15618:15627   */\n          dup2\n            /* \"#utility.yul\":15612:15616   */\n          dup2\n            /* \"#utility.yul\":15608:15628   */\n          sub\n            /* \"#utility.yul\":15604:15605   */\n          0x00\n            /* \"#utility.yul\":15593:15602   */\n          dup4\n            /* \"#utility.yul\":15589:15606   */\n          add\n            /* \"#utility.yul\":15582:15629   */\n          mstore\n            /* \"#utility.yul\":15646:15777   */\n          tag_382\n            /* \"#utility.yul\":15772:15776   */\n          dup2\n            /* \"#utility.yul\":15646:15777   */\n          tag_239\n          jump\t// in\n        tag_382:\n            /* \"#utility.yul\":15638:15777   */\n          swap1\n          pop\n            /* \"#utility.yul\":15365:15784   */\n          swap2\n          swap1\n          pop\n          jump\t// out\n            /* \"#utility.yul\":15790:16015   */\n        tag_240:\n            /* \"#utility.yul\":15930:15964   */\n          0x45524332303a207472616e7366657220616d6f756e7420657863656564732062\n            /* \"#utility.yul\":15926:15927   */\n          0x00\n            /* \"#utility.yul\":15918:15924   */\n          dup3\n            /* \"#utility.yul\":15914:15928   */\n          add\n            /* \"#utility.yul\":15907:15965   */\n          mstore\n            /* \"#utility.yul\":15999:16007   */\n          0x616c616e63650000000000000000000000000000000000000000000000000000\n            /* \"#utility.yul\":15994:15996   */\n          0x20\n            /* \"#utility.yul\":15986:15992   */\n          dup3\n            /* \"#utility.yul\":15982:15997   */\n          add\n            /* \"#utility.yul\":15975:16008   */\n          mstore\n            /* \"#utility.yul\":15790:16015   */\n          pop\n          jump\t// out\n            /* \"#utility.yul\":16021:16387   */\n        tag_241:\n            /* \"#utility.yul\":16163:16166   */\n          0x00\n            /* \"#utility.yul\":16184:16251   */\n          tag_385\n            /* \"#utility.yul\":16248:16250   */\n          0x26\n            /* \"#utility.yul\":16243:16246   */\n          dup4\n            /* \"#utility.yul\":16184:16251   */\n          tag_202\n          jump\t// in\n        tag_385:\n            /* \"#utility.yul\":16177:16251   */\n          swap2\n          pop\n            /* \"#utility.yul\":16260:16353   */\n          tag_386\n            /* \"#utility.yul\":16349:16352   */\n          dup3\n            /* \"#utility.yul\":16260:16353   */\n          tag_240\n          jump\t// in\n        tag_386:\n            /* \"#utility.yul\":16378:16380   */\n          0x40\n            /* \"#utility.yul\":16373:16376   */\n          dup3\n            /* \"#utility.yul\":16369:16381   */\n          add\n            /* \"#utility.yul\":16362:16381   */\n          swap1\n          pop\n            /* \"#utility.yul\":16021:16387   */\n          swap2\n          swap1\n          pop\n          jump\t// out\n            /* \"#utility.yul\":16393:16812   */\n        tag_186:\n            /* \"#utility.yul\":16559:16563   */\n          0x00\n            /* \"#utility.yul\":16597:16599   */\n          0x20\n            /* \"#utility.yul\":16586:16595   */\n          dup3\n            /* \"#utility.yul\":16582:16600   */\n          add\n            /* \"#utility.yul\":16574:16600   */\n          swap1\n          pop\n            /* \"#utility.yul\":16646:16655   */\n          dup2\n            /* \"#utility.yul\":16640:16644   */\n          dup2\n            /* \"#utility.yul\":16636:16656   */\n          sub\n            /* \"#utility.yul\":16632:16633   */\n          0x00\n            /* \"#utility.yul\":16621:16630   */\n          dup4\n            /* \"#utility.yul\":16617:16634   */\n          add\n            /* \"#utility.yul\":16610:16657   */\n          mstore\n            /* \"#utility.yul\":16674:16805   */\n          tag_388\n            /* \"#utility.yul\":16800:16804   */\n          dup2\n            /* \"#utility.yul\":16674:16805   */\n          tag_241\n          jump\t// in\n        tag_388:\n            /* \"#utility.yul\":16666:16805   */\n          swap1\n          pop\n            /* \"#utility.yul\":16393:16812   */\n          swap2\n          swap1\n          pop\n          jump\t// out\n            /* \"#utility.yul\":16818:16999   */\n        tag_242:\n            /* \"#utility.yul\":16958:16991   */\n          0x45524332303a206d696e7420746f20746865207a65726f206164647265737300\n            /* \"#utility.yul\":16954:16955   */\n          0x00\n            /* \"#utility.yul\":16946:16952   */\n          dup3\n            /* \"#utility.yul\":16942:16956   */\n          add\n            /* \"#utility.yul\":16935:16992   */\n          mstore\n            /* \"#utility.yul\":16818:16999   */\n          pop\n          jump\t// out\n            /* \"#utility.yul\":17005:17371   */\n        tag_243:\n            /* \"#utility.yul\":17147:17150   */\n          0x00\n            /* \"#utility.yul\":17168:17235   */\n          tag_391\n            /* \"#utility.yul\":17232:17234   */\n          0x1f\n            /* \"#utility.yul\":17227:17230   */\n          dup4\n            /* \"#utility.yul\":17168:17235   */\n          tag_202\n          jump\t// in\n        tag_391:\n            /* \"#utility.yul\":17161:17235   */\n          swap2\n          pop\n            /* \"#utility.yul\":17244:17337   */\n          tag_392\n            /* \"#utility.yul\":17333:17336   */\n          dup3\n            /* \"#utility.yul\":17244:17337   */\n          tag_242\n          jump\t// in\n        tag_392:\n            /* \"#utility.yul\":17362:17364   */\n          0x20\n            /* \"#utility.yul\":17357:17360   */\n          dup3\n            /* \"#utility.yul\":17353:17365   */\n          add\n            /* \"#utility.yul\":17346:17365   */\n          swap1\n          pop\n            /* \"#utility.yul\":17005:17371   */\n          swap2\n          swap1\n          pop\n          jump\t// out\n            /* \"#utility.yul\":17377:17796   */\n        tag_194:\n            /* \"#utility.yul\":17543:17547   */\n          0x00\n            /* \"#utility.yul\":17581:17583   */\n          0x20\n            /* \"#utility.yul\":17570:17579   */\n          dup3\n            /* \"#utility.yul\":17566:17584   */\n          add\n            /* \"#utility.yul\":17558:17584   */\n          swap1\n          pop\n            /* \"#utility.yul\":17630:17639   */\n          dup2\n            /* \"#utility.yul\":17624:17628   */\n          dup2\n            /* \"#utility.yul\":17620:17640   */\n          sub\n            /* \"#utility.yul\":17616:17617   */\n          0x00\n            /* \"#utility.yul\":17605:17614   */\n          dup4\n            /* \"#utility.yul\":17601:17618   */\n          add\n            /* \"#utility.yul\":17594:17641   */\n          mstore\n            /* \"#utility.yul\":17658:17789   */\n          tag_394\n            /* \"#utility.yul\":17784:17788   */\n          dup2\n            /* \"#utility.yul\":17658:17789   */\n          tag_243\n          jump\t// in\n        tag_394:\n            /* \"#utility.yul\":17650:17789   */\n          swap1\n          pop\n            /* \"#utility.yul\":17377:17796   */\n          swap2\n          swap1\n          pop\n          jump\t// out\n\n        auxdata: 0xa264697066735822122078b08e0004b43df447813d0bb80a98c5a0e3a3275900b83dc2dd34953c272c3864736f6c63430008150033\n    }\n}\n","bytecode":{"linkReferences":{},"object":"608060405234801562000010575f80fd5b50604051620074ea380380620074ea8339818101604052810190620000369190620000f6565b6040516200004490620000ac565b604051809103905ff0801580156200005e573d5f803e3d5ffd5b50600a5f6101000a81548173ffffffffffffffffffffffffffffffffffffffff021916908373ffffffffffffffffffffffffffffffffffffffff16021790555080600b819055505062000126565b611cd6806200581483390190565b5f80fd5b5f819050919050565b620000d281620000be565b8114620000dd575f80fd5b50565b5f81519050620000f081620000c7565b92915050565b5f602082840312156200010e576200010d620000ba565b5b5f6200011d84828501620000e0565b91505092915050565b6156e080620001345f395ff3fe6080604052600436106100f2575f3560e01c80636f85e62c11610089578063d7fe9ef111610058578063d7fe9ef114610323578063dac119631461035f578063e7d4b3fd1461039b578063fdcb5732146103c3576100f2565b80636f85e62c146102635780638165fed51461027f5780639623cfb2146102a75780639c080f5d146102e7576100f2565b80632da39105116100c55780632da39105146101aa57806335ac9baa146101ec57806348dec2a71461020857806355008c1814610247576100f2565b8063188d030c146100f65780631d2e4afd1461011e578063296b7454146101465780632ce2281014610182575b5f80fd5b348015610101575f80fd5b5061011c60048036038101906101179190613fca565b6103ff565b005b348015610129575f80fd5b50610144600480360381019061013f9190614011565b6108a0565b005b348015610151575f80fd5b5061016c60048036038101906101679190614011565b610d5e565b60405161017991906141b4565b60405180910390f35b34801561018d575f80fd5b506101a860048036038101906101a391906141fe565b610f86565b005b3480156101b5575f80fd5b506101d060048036038101906101cb9190613fca565b611179565b6040516101e397969594939291906142fd565b60405180910390f35b61020660048036038101906102019190614521565b61138c565b005b348015610213575f80fd5b5061022e60048036038101906102299190614614565b6115cd565b60405161023e949392919061464e565b60405180910390f35b610261600480360381019061025c91906146d0565b6117aa565b005b61027d60048036038101906102789190613fca565b612b0d565b005b34801561028a575f80fd5b506102a560048036038101906102a09190614788565b612cd0565b005b3480156102b2575f80fd5b506102cd60048036038101906102c89190614011565b612f10565b6040516102de959493929190614840565b60405180910390f35b3480156102f2575f80fd5b5061030d60048036038101906103089190614614565b61311b565b60405161031a91906148a6565b60405180910390f35b34801561032e575f80fd5b5061034960048036038101906103449190613fca565b6131bc565b60405161035691906149fb565b60405180910390f35b34801561036a575f80fd5b5061038560048036038101906103809190614614565b61340c565b6040516103929190614b8b565b60405180910390f35b3480156103a6575f80fd5b506103c160048036038101906103bc9190614bab565b61378b565b005b3480156103ce575f80fd5b506103e960048036038101906103e49190614c2b565b613968565b6040516103f69190614c56565b60405180910390f35b5f15156008826040516104129190614cb0565b908152602001604051809103902060035f3373ffffffffffffffffffffffffffffffffffffffff1673ffffffffffffffffffffffffffffffffffffffff1681526020019081526020015f205f0160405161046c9190614db5565b90815260200160405180910390205f9054906101000a900460ff16151514610492575f80fd5b5f60405180604001604052808381526020016104ac613a0d565b81525090506001600960035f3373ffffffffffffffffffffffffffffffffffffffff1673ffffffffffffffffffffffffffffffffffffffff1681526020019081526020015f205f016040516105019190614db5565b908152602001604051809103902082602001516040516105219190614cb0565b90815260200160405180910390205f6101000a81548160ff021916908315150217905550816007826020015160405161055a9190614cb0565b908152602001604051809103902090816105749190614f56565b5060035f3373ffffffffffffffffffffffffffffffffffffffff1673ffffffffffffffffffffffffffffffffffffffff1681526020019081526020015f2060040181908060018154018082558091505060019003905f5260205f2090600202015f909190919091505f820151815f0190816105ef9190614f56565b5060208201518160010190816106059190614f56565b505050600160088360405161061a9190614cb0565b908152602001604051809103902060035f3373ffffffffffffffffffffffffffffffffffffffff1673ffffffffffffffffffffffffffffffffffffffff1681526020019081526020015f205f016040516106749190614db5565b90815260200160405180910390205f6101000a81548160ff021916908315150217905550600a5f9054906101000a900473ffffffffffffffffffffffffffffffffffffffff1673ffffffffffffffffffffffffffffffffffffffff1663095ea7b333670de0b6b3a76400006006866040516106ef9190614cb0565b90815260200160405180910390206004015461070b9190615052565b6040518363ffffffff1660e01b8152600401610728929190615093565b6020604051808303815f875af1158015610744573d5f803e3d5ffd5b505050506040513d601f19601f8201168201806040525081019061076891906150ce565b50600a5f9054906101000a900473ffffffffffffffffffffffffffffffffffffffff1673ffffffffffffffffffffffffffffffffffffffff166323b872dd3360016006866040516107b99190614cb0565b90815260200160405180910390206001016040516107d79190614db5565b90815260200160405180910390206003015f9054906101000a900473ffffffffffffffffffffffffffffffffffffffff16670de0b6b3a76400006006876040516108219190614cb0565b90815260200160405180910390206004015461083d9190615052565b6040518463ffffffff1660e01b815260040161085b9392919061514b565b6020604051808303815f875af1158015610877573d5f803e3d5ffd5b505050506040513d601f19601f8201168201806040525081019061089b91906150ce565b505050565b5f73ffffffffffffffffffffffffffffffffffffffff1660035f3373ffffffffffffffffffffffffffffffffffffffff1673ffffffffffffffffffffffffffffffffffffffff1681526020019081526020015f206002015f9054906101000a900473ffffffffffffffffffffffffffffffffffffffff1673ffffffffffffffffffffffffffffffffffffffff1614610936575f80fd5b5f61096a3360405160200161094b91906151c5565b604051602081830303815290604052805190602001205f1c6020613b14565b90508060035f3373ffffffffffffffffffffffffffffffffffffffff1673ffffffffffffffffffffffffffffffffffffffff1681526020019081526020015f205f0190816109b89190614f56565b508260035f3373ffffffffffffffffffffffffffffffffffffffff1673ffffffffffffffffffffffffffffffffffffffff1681526020019081526020015f206001019081610a069190614f56565b503360035f3373ffffffffffffffffffffffffffffffffffffffff1673ffffffffffffffffffffffffffffffffffffffff1681526020019081526020015f206002015f6101000a81548173ffffffffffffffffffffffffffffffffffffffff021916908373ffffffffffffffffffffffffffffffffffffffff160217905550610a8d613a0d565b60035f3373ffffffffffffffffffffffffffffffffffffffff1673ffffffffffffffffffffffffffffffffffffffff1681526020019081526020015f206005019081610ad99190614f56565b5033600560035f3373ffffffffffffffffffffffffffffffffffffffff1673ffffffffffffffffffffffffffffffffffffffff1681526020019081526020015f20600501604051610b2a9190614db5565b90815260200160405180910390205f6101000a81548173ffffffffffffffffffffffffffffffffffffffff021916908373ffffffffffffffffffffffffffffffffffffffff1602179055505f73ffffffffffffffffffffffffffffffffffffffff16600583604051610b9c9190614cb0565b90815260200160405180910390205f9054906101000a900473ffffffffffffffffffffffffffffffffffffffff1673ffffffffffffffffffffffffffffffffffffffff1614610d5957600a5f9054906101000a900473ffffffffffffffffffffffffffffffffffffffff1673ffffffffffffffffffffffffffffffffffffffff1663a0712d686802b5e3af16b18800006040518263ffffffff1660e01b8152600401610c489190615218565b5f604051808303815f87803b158015610c5f575f80fd5b505af1158015610c71573d5f803e3d5ffd5b50505050600a5f9054906101000a900473ffffffffffffffffffffffffffffffffffffffff1673ffffffffffffffffffffffffffffffffffffffff1663a9059cbb600584604051610cc29190614cb0565b90815260200160405180910390205f9054906101000a900473ffffffffffffffffffffffffffffffffffffffff166802b5e3af16b18800006040518363ffffffff1660e01b8152600401610d17929190615231565b6020604051808303815f875af1158015610d33573d5f803e3d5ffd5b505050506040513d601f19601f82011682018060405250810190610d5791906150ce565b505b505050565b610d66613d49565b600283604051610d769190614cb0565b908152602001604051809103902082604051610d929190614cb0565b90815260200160405180910390206040518060a00160405290815f82018054610dba90614cf3565b80601f0160208091040260200160405190810160405280929190818152602001828054610de690614cf3565b8015610e315780601f10610e0857610100808354040283529160200191610e31565b820191905f5260205f20905b815481529060010190602001808311610e1457829003601f168201915b50505050508152602001600182018054610e4a90614cf3565b80601f0160208091040260200160405190810160405280929190818152602001828054610e7690614cf3565b8015610ec15780601f10610e9857610100808354040283529160200191610ec1565b820191905f5260205f20905b815481529060010190602001808311610ea457829003601f168201915b50505050508152602001600282018054610eda90614cf3565b80601f0160208091040260200160405190810160405280929190818152602001828054610f0690614cf3565b8015610f515780601f10610f2857610100808354040283529160200191610f51565b820191905f5260205f20905b815481529060010190602001808311610f3457829003601f168201915b5050505050815260200160038201548152602001600482015f9054906101000a900460ff161515151581525050905092915050565b3373ffffffffffffffffffffffffffffffffffffffff16600183604051610fad9190614cb0565b90815260200160405180910390206003015f9054906101000a900473ffffffffffffffffffffffffffffffffffffffff1673ffffffffffffffffffffffffffffffffffffffff1614610ffd575f80fd5b5f670de0b6b3a7640000826110129190615052565b905061105d6001846040516110279190614cb0565b90815260200160405180910390206003015f9054906101000a900473ffffffffffffffffffffffffffffffffffffffff1661311b565b811115611068575f80fd5b600a5f9054906101000a900473ffffffffffffffffffffffffffffffffffffffff1673ffffffffffffffffffffffffffffffffffffffff1663095ea7b333836040518363ffffffff1660e01b81526004016110c4929190615093565b6020604051808303815f875af11580156110e0573d5f803e3d5ffd5b505050506040513d601f19601f8201168201806040525081019061110491906150ce565b50600180846040516111169190614cb0565b90815260200160405180910390206006015f6101000a81548160ff0219169083151502179055508060018460405161114e9190614cb0565b90815260200160405180910390206007015f82825461116d9190615258565b92505081905550505050565b6001818051602081018201805184825260208301602085012081835280955050505050505f91509050805f0180546111b090614cf3565b80601f01602080910402602001604051908101604052809291908181526020018280546111dc90614cf3565b80156112275780601f106111fe57610100808354040283529160200191611227565b820191905f5260205f20905b81548152906001019060200180831161120a57829003601f168201915b50505050509080600101805461123c90614cf3565b80601f016020809104026020016040519081016040528092919081815260200182805461126890614cf3565b80156112b35780601f1061128a576101008083540402835291602001916112b3565b820191905f5260205f20905b81548152906001019060200180831161129657829003601f168201915b5050505050908060020180546112c890614cf3565b80601f01602080910402602001604051908101604052809291908181526020018280546112f490614cf3565b801561133f5780601f106113165761010080835404028352916020019161133f565b820191905f5260205f20905b81548152906001019060200180831161132257829003601f168201915b505050505090806003015f9054906101000a900473ffffffffffffffffffffffffffffffffffffffff1690806006015f9054906101000a900460ff16908060070154908060080154905087565b67015c2a7b13fd0000341461139f575f80fd5b5f6113d585336040516020016113b692919061528b565b604051602081830303815290604052805190602001205f1c6020613b14565b90503373ffffffffffffffffffffffffffffffffffffffff166001826040516113fe9190614cb0565b90815260200160405180910390206003015f9054906101000a900473ffffffffffffffffffffffffffffffffffffffff1673ffffffffffffffffffffffffffffffffffffffff160361144e575f80fd5b5f81908060018154018082558091505060019003905f5260205f20015f90919091909150908161147e9190614f56565b50806001826040516114909190614cb0565b90815260200160405180910390205f0190816114ac9190614f56565b50846001826040516114be9190614cb0565b908152602001604051809103902060010190816114db9190614f56565b50836001826040516114ed9190614cb0565b9081526020016040518091039020600201908161150a9190614f56565b503360018260405161151c9190614cb0565b90815260200160405180910390206003015f6101000a81548173ffffffffffffffffffffffffffffffffffffffff021916908373ffffffffffffffffffffffffffffffffffffffff1602179055508260018260405161157b9190614cb0565b908152602001604051809103902060080181905550816001826040516115a19190614cb0565b908152602001604051809103902060090190805190602001906115c5929190613d78565b505050505050565b6003602052805f5260405f205f91509050805f0180546115ec90614cf3565b80601f016020809104026020016040519081016040528092919081815260200182805461161890614cf3565b80156116635780601f1061163a57610100808354040283529160200191611663565b820191905f5260205f20905b81548152906001019060200180831161164657829003601f168201915b50505050509080600101805461167890614cf3565b80601f01602080910402602001604051908101604052809291908181526020018280546116a490614cf3565b80156116ef5780601f106116c6576101008083540402835291602001916116ef565b820191905f5260205f20905b8154815290600101906020018083116116d257829003601f168201915b505050505090806002015f9054906101000a900473ffffffffffffffffffffffffffffffffffffffff169080600501805461172990614cf3565b80601f016020809104026020016040519081016040528092919081815260200182805461175590614cf3565b80156117a05780601f10611777576101008083540402835291602001916117a0565b820191905f5260205f20905b81548152906001019060200180831161178357829003601f168201915b5050505050905084565b3373ffffffffffffffffffffffffffffffffffffffff1660035f3373ffffffffffffffffffffffffffffffffffffffff1673ffffffffffffffffffffffffffffffffffffffff1681526020019081526020015f206002015f9054906101000a900473ffffffffffffffffffffffffffffffffffffffff1673ffffffffffffffffffffffffffffffffffffffff1614611840575f80fd5b5f73ffffffffffffffffffffffffffffffffffffffff166001856040516118679190614cb0565b90815260200160405180910390206003015f9054906101000a900473ffffffffffffffffffffffffffffffffffffffff1673ffffffffffffffffffffffffffffffffffffffff16036118b7575f80fd5b6002846040516118c79190614cb0565b9081526020016040518091039020836040516118e39190614cb0565b90815260200160405180910390206004015f9054906101000a900460ff16611909575f80fd5b5f8060605f60018860405161191e9190614cb0565b908152602001604051809103902090508515611a46575f61193e3361311b565b90505f600b5460026119509190615052565b670de0b6b3a764000060028c6040516119699190614cb0565b90815260200160405180910390208b6040516119859190614cb0565b9081526020016040518091039020600301546119a19190615052565b6119ab91906152df565b9050808210156119d057670de0b6b3a7640000826119c991906152df565b94506119e7565b670de0b6b3a7640000816119e491906152df565b94505b600b54856119f59190615052565b60028b604051611a059190614cb0565b90815260200160405180910390208a604051611a219190614cb0565b908152602001604051809103902060030154611a3d919061530f565b95505050611a8a565b600288604051611a569190614cb0565b908152602001604051809103902087604051611a729190614cb0565b90815260200160405180910390206003015493505f92505b60011515600960035f3373ffffffffffffffffffffffffffffffffffffffff1673ffffffffffffffffffffffffffffffffffffffff1681526020019081526020015f205f01604051611adc9190614db5565b908152602001604051809103902086604051611af89190614cb0565b90815260200160405180910390205f9054906101000a900460ff16151503611d09575f6006600787604051611b2d9190614cb0565b9081526020016040518091039020604051611b489190614db5565b90815260200160405180910390206040518060a00160405290815f82018054611b7090614cf3565b80601f0160208091040260200160405190810160405280929190818152602001828054611b9c90614cf3565b8015611be75780601f10611bbe57610100808354040283529160200191611be7565b820191905f5260205f20905b815481529060010190602001808311611bca57829003601f168201915b50505050508152602001600182018054611c0090614cf3565b80601f0160208091040260200160405190810160405280929190818152602001828054611c2c90614cf3565b8015611c775780601f10611c4e57610100808354040283529160200191611c77565b820191905f5260205f20905b815481529060010190602001808311611c5a57829003601f168201915b505050505081526020016002820154815260200160038201548152602001600482015481525050905080606001516064868360400151611cb79190615052565b611cc191906152df565b11611cf4576064858260400151611cd89190615052565b611ce291906152df565b85611ced919061530f565b9450611d07565b806060015185611d04919061530f565b94505b505b833414611d14575f80fd5b60011515600960035f3373ffffffffffffffffffffffffffffffffffffffff1673ffffffffffffffffffffffffffffffffffffffff1681526020019081526020015f205f01604051611d669190614db5565b908152602001604051809103902086604051611d829190614cb0565b90815260200160405180910390205f9054906101000a900460ff16151503611efa575f600960035f3373ffffffffffffffffffffffffffffffffffffffff1673ffffffffffffffffffffffffffffffffffffffff1681526020019081526020015f205f01604051611df39190614db5565b908152602001604051809103902086604051611e0f9190614cb0565b90815260200160405180910390205f6101000a81548160ff0219169083151502179055506006600786604051611e459190614cb0565b9081526020016040518091039020604051611e609190614db5565b90815260200160405180910390205f018054611e7b90614cf3565b80601f0160208091040260200160405190810160405280929190818152602001828054611ea790614cf3565b8015611ef25780601f10611ec957610100808354040283529160200191611ef2565b820191905f5260205f20905b815481529060010190602001808311611ed557829003601f168201915b505050505091505b5f600a85611f0891906152df565b9050816003015f9054906101000a900473ffffffffffffffffffffffffffffffffffffffff1673ffffffffffffffffffffffffffffffffffffffff166108fc8234611f53919061530f565b90811502906040515f60405180830381858888f19350505050158015611f7b573d5f803e3d5ffd5b5084600460035f3373ffffffffffffffffffffffffffffffffffffffff1673ffffffffffffffffffffffffffffffffffffffff1681526020019081526020015f205f01604051611fcb9190614db5565b90815260200160405180910390208a604051611fe79190614cb0565b90815260200160405180910390205f8282546120039190615258565b925050819055505f6040518060e0016040528061208b60035f3373ffffffffffffffffffffffffffffffffffffffff1673ffffffffffffffffffffffffffffffffffffffff1681526020019081526020015f205f018c4260405160200161206c93929190615362565b604051602081830303815290604052805190602001205f1c6020613b14565b81526020018b81526020018a815260200160035f3373ffffffffffffffffffffffffffffffffffffffff1673ffffffffffffffffffffffffffffffffffffffff1681526020019081526020015f205f0180546120e690614cf3565b80601f016020809104026020016040519081016040528092919081815260200182805461211290614cf3565b801561215d5780601f106121345761010080835404028352916020019161215d565b820191905f5260205f20905b81548152906001019060200180831161214057829003601f168201915b5050505050815260200134815260200186815260200185815250905060035f3373ffffffffffffffffffffffffffffffffffffffff1673ffffffffffffffffffffffffffffffffffffffff1681526020019081526020015f2060030181908060018154018082558091505060019003905f5260205f2090600702015f909190919091505f820151815f0190816121f39190614f56565b5060208201518160010190816122099190614f56565b50604082015181600201908161221f9190614f56565b5060608201518160030190816122359190614f56565b506080820151816004015560a0820151816005015560c082015181600601908161225f9190614f56565b505050600a5f9054906101000a900473ffffffffffffffffffffffffffffffffffffffff1673ffffffffffffffffffffffffffffffffffffffff1663095ea7b333670de0b6b3a7640000886122b49190615052565b6040518363ffffffff1660e01b81526004016122d1929190615093565b6020604051808303815f875af11580156122ed573d5f803e3d5ffd5b505050506040513d601f19601f8201168201806040525081019061231191906150ce565b50600a5f9054906101000a900473ffffffffffffffffffffffffffffffffffffffff1673ffffffffffffffffffffffffffffffffffffffff166323b872dd33856003015f9054906101000a900473ffffffffffffffffffffffffffffffffffffffff16670de0b6b3a7640000896123889190615052565b6040518463ffffffff1660e01b81526004016123a69392919061514b565b6020604051808303815f875af11580156123c2573d5f803e3d5ffd5b505050506040513d601f19601f820116820180604052508101906123e691906150ce565b50600160035f3373ffffffffffffffffffffffffffffffffffffffff1673ffffffffffffffffffffffffffffffffffffffff1681526020019081526020015f20600301805490500361256957600a5f9054906101000a900473ffffffffffffffffffffffffffffffffffffffff1673ffffffffffffffffffffffffffffffffffffffff1663a0712d6868056bc75e2d631000006040518263ffffffff1660e01b815260040161249591906153cf565b5f604051808303815f87803b1580156124ac575f80fd5b505af11580156124be573d5f803e3d5ffd5b50505050600a5f9054906101000a900473ffffffffffffffffffffffffffffffffffffffff1673ffffffffffffffffffffffffffffffffffffffff1663a9059cbb3368056bc75e2d631000006040518363ffffffff1660e01b81526004016125279291906153e8565b6020604051808303815f875af1158015612543573d5f803e3d5ffd5b505050506040513d601f19601f8201168201806040525081019061256791906150ce565b505b5f600b5460056125799190615052565b670de0b6b3a76400008861258d9190615052565b61259791906152df565b9050600a5f9054906101000a900473ffffffffffffffffffffffffffffffffffffffff1673ffffffffffffffffffffffffffffffffffffffff1663a0712d68826040518263ffffffff1660e01b81526004016125f391906148a6565b5f604051808303815f87803b15801561260a575f80fd5b505af115801561261c573d5f803e3d5ffd5b50505050600a5f9054906101000a900473ffffffffffffffffffffffffffffffffffffffff1673ffffffffffffffffffffffffffffffffffffffff1663a9059cbb33836040518363ffffffff1660e01b815260040161267c929190615093565b6020604051808303815f875af1158015612698573d5f803e3d5ffd5b505050506040513d601f19601f820116820180604052508101906126bc91906150ce565b505f600460035f3373ffffffffffffffffffffffffffffffffffffffff1673ffffffffffffffffffffffffffffffffffffffff1681526020019081526020015f205f0160405161270c9190614db5565b90815260200160405180910390208c6040516127289190614cb0565b9081526020016040518091039020549050846006015f9054906101000a900460ff16801561275957505f8560070154115b15612aff575f5b8560090180549050811015612afd578560090181815481106127855761278461540f565b5b905f5260205f20015f8154811061279f5761279e61540f565b5b905f5260205f2001548211801561283257505f8660090182815481106127c8576127c761540f565b5b905f5260205f20016001815481106127e3576127e261540f565b5b905f5260205f200154148061283157508560090181815481106128095761280861540f565b5b905f5260205f20016001815481106128245761282361540f565b5b905f5260205f2001548211155b5b15612aea575f600b5460646128479190615052565b670de0b6b3a76400008860090184815481106128665761286561540f565b5b905f5260205f20016002815481106128815761288061540f565b5b905f5260205f20015489600801548d61289a9190615052565b6128a49190615052565b6128ae9190615052565b6128b891906152df565b9050808760070154116129ee57600a5f9054906101000a900473ffffffffffffffffffffffffffffffffffffffff1673ffffffffffffffffffffffffffffffffffffffff166323b872dd886003015f9054906101000a900473ffffffffffffffffffffffffffffffffffffffff16338a600701546040518463ffffffff1660e01b815260040161294a9392919061543c565b6020604051808303815f875af1158015612966573d5f803e3d5ffd5b505050506040513d601f19601f8201168201806040525081019061298a91906150ce565b505f60018f60405161299c9190614cb0565b9081526020016040518091039020600701819055505f60018f6040516129c29190614cb0565b90815260200160405180910390206006015f6101000a81548160ff021916908315150217905550612ae8565b600a5f9054906101000a900473ffffffffffffffffffffffffffffffffffffffff1673ffffffffffffffffffffffffffffffffffffffff166323b872dd886003015f9054906101000a900473ffffffffffffffffffffffffffffffffffffffff1633846040518463ffffffff1660e01b8152600401612a6f9392919061543c565b6020604051808303815f875af1158015612a8b573d5f803e3d5ffd5b505050506040513d601f19601f82011682018060405250810190612aaf91906150ce565b508060018f604051612ac19190614cb0565b90815260200160405180910390206007015f828254612ae0919061530f565b925050819055505b505b8080612af590615471565b915050612760565b505b505050505050505050505050565b3373ffffffffffffffffffffffffffffffffffffffff16600182604051612b349190614cb0565b90815260200160405180910390206003015f9054906101000a900473ffffffffffffffffffffffffffffffffffffffff1673ffffffffffffffffffffffffffffffffffffffff1614612b84575f80fd5b5f600b54670de0b6b3a764000034612b9c9190615052565b612ba691906152df565b9050600a5f9054906101000a900473ffffffffffffffffffffffffffffffffffffffff1673ffffffffffffffffffffffffffffffffffffffff1663a0712d68826040518263ffffffff1660e01b8152600401612c0291906148a6565b5f604051808303815f87803b158015612c19575f80fd5b505af1158015612c2b573d5f803e3d5ffd5b50505050600a5f9054906101000a900473ffffffffffffffffffffffffffffffffffffffff1673ffffffffffffffffffffffffffffffffffffffff1663a9059cbb33836040518363ffffffff1660e01b8152600401612c8b929190615093565b6020604051808303815f875af1158015612ca7573d5f803e3d5ffd5b505050506040513d601f19601f82011682018060405250810190612ccb91906150ce565b505050565b3373ffffffffffffffffffffffffffffffffffffffff16600185604051612cf79190614cb0565b90815260200160405180910390206003015f9054906101000a900473ffffffffffffffffffffffffffffffffffffffff1673ffffffffffffffffffffffffffffffffffffffff1614612d47575f80fd5b5f612d7f843342604051602001612d60939291906154b8565b604051602081830303815290604052805190602001205f1c6020613b14565b90505f6040518060a00160405280838152602001868152602001858152602001848152602001600115158152509050600186604051612dbe9190614cb0565b908152602001604051809103902060040181908060018154018082558091505060019003905f5260205f2090600502015f909190919091505f820151815f019081612e099190614f56565b506020820151816001019081612e1f9190614f56565b506040820151816002019081612e359190614f56565b50606082015181600301556080820151816004015f6101000a81548160ff021916908315150217905550505080600287604051612e729190614cb0565b908152602001604051809103902083604051612e8e9190614cb0565b90815260200160405180910390205f820151815f019081612eaf9190614f56565b506020820151816001019081612ec59190614f56565b506040820151816002019081612edb9190614f56565b50606082015181600301556080820151816004015f6101000a81548160ff021916908315150217905550905050505050505050565b600282805160208101820180518482526020830160208501208183528095505050505050818051602081018201805184825260208301602085012081835280955050505050505f9150915050805f018054612f6a90614cf3565b80601f0160208091040260200160405190810160405280929190818152602001828054612f9690614cf3565b8015612fe15780601f10612fb857610100808354040283529160200191612fe1565b820191905f5260205f20905b815481529060010190602001808311612fc457829003601f168201915b505050505090806001018054612ff690614cf3565b80601f016020809104026020016040519081016040528092919081815260200182805461302290614cf3565b801561306d5780601f106130445761010080835404028352916020019161306d565b820191905f5260205f20905b81548152906001019060200180831161305057829003601f168201915b50505050509080600201805461308290614cf3565b80601f01602080910402602001604051908101604052809291908181526020018280546130ae90614cf3565b80156130f95780601f106130d0576101008083540402835291602001916130f9565b820191905f5260205f20905b8154815290600101906020018083116130dc57829003601f168201915b505050505090806003015490806004015f9054906101000a900460ff16905085565b5f600a5f9054906101000a900473ffffffffffffffffffffffffffffffffffffffff1673ffffffffffffffffffffffffffffffffffffffff166370a08231836040518263ffffffff1660e01b815260040161317691906154f0565b602060405180830381865afa158015613191573d5f803e3d5ffd5b505050506040513d601f19601f820116820180604052508101906131b5919061551d565b9050919050565b60606001826040516131ce9190614cb0565b9081526020016040518091039020600401805480602002602001604051908101604052809291908181526020015f905b82821015613401578382905f5260205f2090600502016040518060a00160405290815f8201805461322e90614cf3565b80601f016020809104026020016040519081016040528092919081815260200182805461325a90614cf3565b80156132a55780601f1061327c576101008083540402835291602001916132a5565b820191905f5260205f20905b81548152906001019060200180831161328857829003601f168201915b505050505081526020016001820180546132be90614cf3565b80601f01602080910402602001604051908101604052809291908181526020018280546132ea90614cf3565b80156133355780601f1061330c57610100808354040283529160200191613335565b820191905f5260205f20905b81548152906001019060200180831161331857829003601f168201915b5050505050815260200160028201805461334e90614cf3565b80601f016020809104026020016040519081016040528092919081815260200182805461337a90614cf3565b80156133c55780601f1061339c576101008083540402835291602001916133c5565b820191905f5260205f20905b8154815290600101906020018083116133a857829003601f168201915b5050505050815260200160038201548152602001600482015f9054906101000a900460ff161515151581525050815260200190600101906131fe565b505050509050919050565b606060035f8373ffffffffffffffffffffffffffffffffffffffff1673ffffffffffffffffffffffffffffffffffffffff1681526020019081526020015f20600301805480602002602001604051908101604052809291908181526020015f905b82821015613780578382905f5260205f2090600702016040518060e00160405290815f8201805461349d90614cf3565b80601f01602080910402602001604051908101604052809291908181526020018280546134c990614cf3565b80156135145780601f106134eb57610100808354040283529160200191613514565b820191905f5260205f20905b8154815290600101906020018083116134f757829003601f168201915b5050505050815260200160018201805461352d90614cf3565b80601f016020809104026020016040519081016040528092919081815260200182805461355990614cf3565b80156135a45780601f1061357b576101008083540402835291602001916135a4565b820191905f5260205f20905b81548152906001019060200180831161358757829003601f168201915b505050505081526020016002820180546135bd90614cf3565b80601f01602080910402602001604051908101604052809291908181526020018280546135e990614cf3565b80156136345780601f1061360b57610100808354040283529160200191613634565b820191905f5260205f20905b81548152906001019060200180831161361757829003601f168201915b5050505050815260200160038201805461364d90614cf3565b80601f016020809104026020016040519081016040528092919081815260200182805461367990614cf3565b80156136c45780601f1061369b576101008083540402835291602001916136c4565b820191905f5260205f20905b8154815290600101906020018083116136a757829003601f168201915b5050505050815260200160048201548152602001600582015481526020016006820180546136f190614cf3565b80601f016020809104026020016040519081016040528092919081815260200182805461371d90614cf3565b80156137685780601f1061373f57610100808354040283529160200191613768565b820191905f5260205f20905b81548152906001019060200180831161374b57829003601f168201915b5050505050815250508152602001906001019061346d565b505050509050919050565b3373ffffffffffffffffffffffffffffffffffffffff166001856040516137b29190614cb0565b90815260200160405180910390206003015f9054906101000a900473ffffffffffffffffffffffffffffffffffffffff1673ffffffffffffffffffffffffffffffffffffffff1614613802575f80fd5b5f6138388542604051602001613819929190615548565b604051602081830303815290604052805190602001205f1c6020613b14565b90505f6040518060a00160405280838152602001878152602001868152602001858152602001848152509050806006836040516138759190614cb0565b90815260200160405180910390205f820151815f0190816138969190614f56565b5060208201518160010190816138ac9190614f56565b506040820151816002015560608201518160030155608082015181600401559050506001866040516138de9190614cb0565b908152602001604051809103902060050181908060018154018082558091505060019003905f5260205f2090600502015f909190919091505f820151815f0190816139299190614f56565b50602082015181600101908161393f9190614f56565b506040820151816002015560608201518160030155608082015181600401555050505050505050565b5f8181548110613976575f80fd5b905f5260205f20015f91509050805461398e90614cf3565b80601f01602080910402602001604051908101604052809291908181526020018280546139ba90614cf3565b8015613a055780601f106139dc57610100808354040283529160200191613a05565b820191905f5260205f20905b8154815290600101906020018083116139e857829003601f168201915b505050505081565b60605f600667ffffffffffffffff811115613a2b57613a2a613ea6565b5b6040519080825280601f01601f191660200182016040528015613a5d5781602001600182028036833780820191505090505b5090505f5b6006811015613b0c575f600a424484604051602001613a839392919061556f565b604051602081830303815290604052805190602001205f1c613aa591906155ab565b9050806030613ab491906155e7565b60f81b838381518110613aca57613ac961540f565b5b60200101907effffffffffffffffffffffffffffffffffffffffffffffffffffffffffffff191690815f1a905350508080613b0490615471565b915050613a62565b508091505090565b60605f6002836002613b269190615052565b613b309190615258565b67ffffffffffffffff811115613b4957613b48613ea6565b5b6040519080825280601f01601f191660200182016040528015613b7b5781602001600182028036833780820191505090505b5090507f3000000000000000000000000000000000000000000000000000000000000000815f81518110613bb257613bb161540f565b5b60200101907effffffffffffffffffffffffffffffffffffffffffffffffffffffffffffff191690815f1a9053507f780000000000000000000000000000000000000000000000000000000000000081600181518110613c1557613c1461540f565b5b60200101907effffffffffffffffffffffffffffffffffffffffffffffffffffffffffffff191690815f1a9053505f6001846002613c539190615052565b613c5d9190615258565b90505b6001811115613cfc577f3031323334353637383961626364656600000000000000000000000000000000600f861660108110613c9f57613c9e61540f565b5b1a60f81b828281518110613cb657613cb561540f565b5b60200101907effffffffffffffffffffffffffffffffffffffffffffffffffffffffffffff191690815f1a905350600485901c945080613cf59061561b565b9050613c60565b505f8414613d3f576040517f08c379a0000000000000000000000000000000000000000000000000000000008152600401613d369061568c565b60405180910390fd5b8091505092915050565b6040518060a001604052806060815260200160608152602001606081526020015f81526020015f151581525090565b828054828255905f5260205f20908101928215613dc5579160200282015b82811115613dc4578251829080519060200190613db4929190613dd6565b5091602001919060010190613d96565b5b509050613dd29190613e21565b5090565b828054828255905f5260205f20908101928215613e10579160200282015b82811115613e0f578251825591602001919060010190613df4565b5b509050613e1d9190613e44565b5090565b5b80821115613e40575f8181613e379190613e5f565b50600101613e22565b5090565b5b80821115613e5b575f815f905550600101613e45565b5090565b5080545f8255905f5260205f2090810190613e7a9190613e44565b50565b5f604051905090565b5f80fd5b5f80fd5b5f80fd5b5f80fd5b5f601f19601f8301169050919050565b7f4e487b71000000000000000000000000000000000000000000000000000000005f52604160045260245ffd5b613edc82613e96565b810181811067ffffffffffffffff82111715613efb57613efa613ea6565b5b80604052505050565b5f613f0d613e7d565b9050613f198282613ed3565b919050565b5f67ffffffffffffffff821115613f3857613f37613ea6565b5b613f4182613e96565b9050602081019050919050565b828183375f83830152505050565b5f613f6e613f6984613f1e565b613f04565b905082815260208101848484011115613f8a57613f89613e92565b5b613f95848285613f4e565b509392505050565b5f82601f830112613fb157613fb0613e8e565b5b8135613fc1848260208601613f5c565b91505092915050565b5f60208284031215613fdf57613fde613e86565b5b5f82013567ffffffffffffffff811115613ffc57613ffb613e8a565b5b61400884828501613f9d565b91505092915050565b5f806040838503121561402757614026613e86565b5b5f83013567ffffffffffffffff81111561404457614043613e8a565b5b61405085828601613f9d565b925050602083013567ffffffffffffffff81111561407157614070613e8a565b5b61407d85828601613f9d565b9150509250929050565b5f81519050919050565b5f82825260208201905092915050565b5f5b838110156140be5780820151818401526020810190506140a3565b5f8484015250505050565b5f6140d382614087565b6140dd8185614091565b93506140ed8185602086016140a1565b6140f681613e96565b840191505092915050565b5f819050919050565b61411381614101565b82525050565b5f8115159050919050565b61412d81614119565b82525050565b5f60a083015f8301518482035f86015261414d82826140c9565b9150506020830151848203602086015261416782826140c9565b9150506040830151848203604086015261418182826140c9565b9150506060830151614196606086018261410a565b5060808301516141a96080860182614124565b508091505092915050565b5f6020820190508181035f8301526141cc8184614133565b905092915050565b6141dd81614101565b81146141e7575f80fd5b50565b5f813590506141f8816141d4565b92915050565b5f806040838503121561421457614213613e86565b5b5f83013567ffffffffffffffff81111561423157614230613e8a565b5b61423d85828601613f9d565b925050602061424e858286016141ea565b9150509250929050565b5f82825260208201905092915050565b5f61427282614087565b61427c8185614258565b935061428c8185602086016140a1565b61429581613e96565b840191505092915050565b5f73ffffffffffffffffffffffffffffffffffffffff82169050919050565b5f6142c9826142a0565b9050919050565b6142d9816142bf565b82525050565b6142e881614119565b82525050565b6142f781614101565b82525050565b5f60e0820190508181035f830152614315818a614268565b905081810360208301526143298189614268565b9050818103604083015261433d8188614268565b905061434c60608301876142d0565b61435960808301866142df565b61436660a08301856142ee565b61437360c08301846142ee565b98975050505050505050565b5f67ffffffffffffffff82111561439957614398613ea6565b5b602082029050602081019050919050565b5f80fd5b5f67ffffffffffffffff8211156143c8576143c7613ea6565b5b602082029050602081019050919050565b5f6143eb6143e6846143ae565b613f04565b9050808382526020820190506020840283018581111561440e5761440d6143aa565b5b835b81811015614437578061442388826141ea565b845260208401935050602081019050614410565b5050509392505050565b5f82601f83011261445557614454613e8e565b5b81356144658482602086016143d9565b91505092915050565b5f61448061447b8461437f565b613f04565b905080838252602082019050602084028301858111156144a3576144a26143aa565b5b835b818110156144ea57803567ffffffffffffffff8111156144c8576144c7613e8e565b5b8086016144d58982614441565b855260208501945050506020810190506144a5565b5050509392505050565b5f82601f83011261450857614507613e8e565b5b813561451884826020860161446e565b91505092915050565b5f805f806080858703121561453957614538613e86565b5b5f85013567ffffffffffffffff81111561455657614555613e8a565b5b61456287828801613f9d565b945050602085013567ffffffffffffffff81111561458357614582613e8a565b5b61458f87828801613f9d565b93505060406145a0878288016141ea565b925050606085013567ffffffffffffffff8111156145c1576145c0613e8a565b5b6145cd878288016144f4565b91505092959194509250565b5f6145e3826142a0565b9050919050565b6145f3816145d9565b81146145fd575f80fd5b50565b5f8135905061460e816145ea565b92915050565b5f6020828403121561462957614628613e86565b5b5f61463684828501614600565b91505092915050565b614648816145d9565b82525050565b5f6080820190508181035f8301526146668187614268565b9050818103602083015261467a8186614268565b9050614689604083018561463f565b818103606083015261469b8184614268565b905095945050505050565b6146af81614119565b81146146b9575f80fd5b50565b5f813590506146ca816146a6565b92915050565b5f805f80608085870312156146e8576146e7613e86565b5b5f85013567ffffffffffffffff81111561470557614704613e8a565b5b61471187828801613f9d565b945050602085013567ffffffffffffffff81111561473257614731613e8a565b5b61473e87828801613f9d565b935050604061474f878288016146bc565b925050606085013567ffffffffffffffff8111156147705761476f613e8a565b5b61477c87828801613f9d565b91505092959194509250565b5f805f80608085870312156147a05761479f613e86565b5b5f85013567ffffffffffffffff8111156147bd576147bc613e8a565b5b6147c987828801613f9d565b945050602085013567ffffffffffffffff8111156147ea576147e9613e8a565b5b6147f687828801613f9d565b935050604085013567ffffffffffffffff81111561481757614816613e8a565b5b61482387828801613f9d565b9250506060614834878288016141ea565b91505092959194509250565b5f60a0820190508181035f8301526148588188614268565b9050818103602083015261486c8187614268565b905081810360408301526148808186614268565b905061488f60608301856142ee565b61489c60808301846142df565b9695505050505050565b5f6020820190506148b95f8301846142ee565b92915050565b5f81519050919050565b5f82825260208201905092915050565b5f819050602082019050919050565b5f60a083015f8301518482035f86015261490282826140c9565b9150506020830151848203602086015261491c82826140c9565b9150506040830151848203604086015261493682826140c9565b915050606083015161494b606086018261410a565b50608083015161495e6080860182614124565b508091505092915050565b5f61497483836148e8565b905092915050565b5f602082019050919050565b5f614992826148bf565b61499c81856148c9565b9350836020820285016149ae856148d9565b805f5b858110156149e957848403895281516149ca8582614969565b94506149d58361497c565b925060208a019950506001810190506149b1565b50829750879550505050505092915050565b5f6020820190508181035f830152614a138184614988565b905092915050565b5f81519050919050565b5f82825260208201905092915050565b5f819050602082019050919050565b5f60e083015f8301518482035f860152614a5e82826140c9565b91505060208301518482036020860152614a7882826140c9565b91505060408301518482036040860152614a9282826140c9565b91505060608301518482036060860152614aac82826140c9565b9150506080830151614ac1608086018261410a565b5060a0830151614ad460a086018261410a565b5060c083015184820360c0860152614aec82826140c9565b9150508091505092915050565b5f614b048383614a44565b905092915050565b5f602082019050919050565b5f614b2282614a1b565b614b2c8185614a25565b935083602082028501614b3e85614a35565b805f5b85811015614b795784840389528151614b5a8582614af9565b9450614b6583614b0c565b925060208a01995050600181019050614b41565b50829750879550505050505092915050565b5f6020820190508181035f830152614ba38184614b18565b905092915050565b5f805f8060808587031215614bc357614bc2613e86565b5b5f85013567ffffffffffffffff811115614be057614bdf613e8a565b5b614bec87828801613f9d565b9450506020614bfd878288016141ea565b9350506040614c0e878288016141ea565b9250506060614c1f878288016141ea565b91505092959194509250565b5f60208284031215614c4057614c3f613e86565b5b5f614c4d848285016141ea565b91505092915050565b5f6020820190508181035f830152614c6e8184614268565b905092915050565b5f81905092915050565b5f614c8a82614087565b614c948185614c76565b9350614ca48185602086016140a1565b80840191505092915050565b5f614cbb8284614c80565b915081905092915050565b7f4e487b71000000000000000000000000000000000000000000000000000000005f52602260045260245ffd5b5f6002820490506001821680614d0a57607f821691505b602082108103614d1d57614d1c614cc6565b5b50919050565b5f819050815f5260205f209050919050565b5f8154614d4181614cf3565b614d4b8186614c76565b9450600182165f8114614d655760018114614d7a57614dac565b60ff1983168652811515820286019350614dac565b614d8385614d23565b5f5b83811015614da457815481890152600182019150602081019050614d85565b838801955050505b50505092915050565b5f614dc08284614d35565b915081905092915050565b5f6020601f8301049050919050565b5f82821b905092915050565b5f60088302614e157fffffffffffffffffffffffffffffffffffffffffffffffffffffffffffffffff82614dda565b614e1f8683614dda565b95508019841693508086168417925050509392505050565b5f819050919050565b5f614e5a614e55614e5084614101565b614e37565b614101565b9050919050565b5f819050919050565b614e7383614e40565b614e87614e7f82614e61565b848454614de6565b825550505050565b5f90565b614e9b614e8f565b614ea6818484614e6a565b505050565b5b81811015614ec957614ebe5f82614e93565b600181019050614eac565b5050565b601f821115614f0e57614edf81614d23565b614ee884614dcb565b81016020851015614ef7578190505b614f0b614f0385614dcb565b830182614eab565b50505b505050565b5f82821c905092915050565b5f614f2e5f1984600802614f13565b1980831691505092915050565b5f614f468383614f1f565b9150826002028217905092915050565b614f5f82614087565b67ffffffffffffffff811115614f7857614f77613ea6565b5b614f828254614cf3565b614f8d828285614ecd565b5f60209050601f831160018114614fbe575f8415614fac578287015190505b614fb68582614f3b565b86555061501d565b601f198416614fcc86614d23565b5f5b82811015614ff357848901518255600182019150602085019450602081019050614fce565b86831015615010578489015161500c601f891682614f1f565b8355505b6001600288020188555050505b505050505050565b7f4e487b71000000000000000000000000000000000000000000000000000000005f52601160045260245ffd5b5f61505c82614101565b915061506783614101565b925082820261507581614101565b9150828204841483151761508c5761508b615025565b5b5092915050565b5f6040820190506150a65f83018561463f565b6150b360208301846142ee565b9392505050565b5f815190506150c8816146a6565b92915050565b5f602082840312156150e3576150e2613e86565b5b5f6150f0848285016150ba565b91505092915050565b5f61511361510e615109846142a0565b614e37565b6142a0565b9050919050565b5f615124826150f9565b9050919050565b5f6151358261511a565b9050919050565b6151458161512b565b82525050565b5f60608201905061515e5f83018661463f565b61516b602083018561513c565b61517860408301846142ee565b949350505050565b5f8160601b9050919050565b5f61519682615180565b9050919050565b5f6151a78261518c565b9050919050565b6151bf6151ba826145d9565b61519d565b82525050565b5f6151d082846151ae565b60148201915081905092915050565b5f819050919050565b5f6152026151fd6151f8846151df565b614e37565b614101565b9050919050565b615212816151e8565b82525050565b5f60208201905061522b5f830184615209565b92915050565b5f6040820190506152445f83018561463f565b6152516020830184615209565b9392505050565b5f61526282614101565b915061526d83614101565b925082820190508082111561528557615284615025565b5b92915050565b5f6152968285614c80565b91506152a282846151ae565b6014820191508190509392505050565b7f4e487b71000000000000000000000000000000000000000000000000000000005f52601260045260245ffd5b5f6152e982614101565b91506152f483614101565b925082615304576153036152b2565b5b828204905092915050565b5f61531982614101565b915061532483614101565b925082820390508181111561533c5761533b615025565b5b92915050565b5f819050919050565b61535c61535782614101565b615342565b82525050565b5f61536d8286614d35565b91506153798285614c80565b9150615385828461534b565b602082019150819050949350505050565b5f819050919050565b5f6153b96153b46153af84615396565b614e37565b614101565b9050919050565b6153c98161539f565b82525050565b5f6020820190506153e25f8301846153c0565b92915050565b5f6040820190506153fb5f83018561463f565b61540860208301846153c0565b9392505050565b7f4e487b71000000000000000000000000000000000000000000000000000000005f52603260045260245ffd5b5f60608201905061544f5f83018661513c565b61545c602083018561463f565b61546960408301846142ee565b949350505050565b5f61547b82614101565b91507fffffffffffffffffffffffffffffffffffffffffffffffffffffffffffffffff82036154ad576154ac615025565b5b600182019050919050565b5f6154c38286614c80565b91506154cf82856151ae565b6014820191506154df828461534b565b602082019150819050949350505050565b5f6020820190506155035f83018461463f565b92915050565b5f81519050615517816141d4565b92915050565b5f6020828403121561553257615531613e86565b5b5f61553f84828501615509565b91505092915050565b5f6155538285614c80565b915061555f828461534b565b6020820191508190509392505050565b5f61557a828661534b565b60208201915061558a828561534b565b60208201915061559a828461534b565b602082019150819050949350505050565b5f6155b582614101565b91506155c083614101565b9250826155d0576155cf6152b2565b5b828206905092915050565b5f60ff82169050919050565b5f6155f1826155db565b91506155fc836155db565b9250828201905060ff81111561561557615614615025565b5b92915050565b5f61562582614101565b91505f820361563757615636615025565b5b600182039050919050565b7f537472696e67733a20686578206c656e67746820696e73756666696369656e745f82015250565b5f615676602083614258565b915061568182615642565b602082019050919050565b5f6020820190508181035f8301526156a38161566a565b905091905056fea2646970667358221220d7fa84da27cbc3d8bdd21218867ef3880359701f0da78b0a7c57d54aa2d1f63b64736f6c63430008150033608060405234801562000010575f80fd5b506040518060400160405280600881526020017f666c6970436f696e0000000000000000000000000000000000000000000000008152506040518060400160405280600281526020017f465000000000000000000000000000000000000000000000000000000000000081525081600390816200008e9190620003f7565b508060049081620000a09190620003f7565b505050620000c3620000b7620000c960201b60201c565b620000d060201b60201c565b620004db565b5f33905090565b5f60055f9054906101000a900473ffffffffffffffffffffffffffffffffffffffff1690508160055f6101000a81548173ffffffffffffffffffffffffffffffffffffffff021916908373ffffffffffffffffffffffffffffffffffffffff1602179055508173ffffffffffffffffffffffffffffffffffffffff168173ffffffffffffffffffffffffffffffffffffffff167f8be0079c531659141344cd1fd0a4f28419497f9722a3daafe3b4186f6b6457e060405160405180910390a35050565b5f81519050919050565b7f4e487b71000000000000000000000000000000000000000000000000000000005f52604160045260245ffd5b7f4e487b71000000000000000000000000000000000000000000000000000000005f52602260045260245ffd5b5f60028204905060018216806200020f57607f821691505b602082108103620002255762000224620001ca565b5b50919050565b5f819050815f5260205f209050919050565b5f6020601f8301049050919050565b5f82821b905092915050565b5f60088302620002897fffffffffffffffffffffffffffffffffffffffffffffffffffffffffffffffff826200024c565b6200029586836200024c565b95508019841693508086168417925050509392505050565b5f819050919050565b5f819050919050565b5f620002df620002d9620002d384620002ad565b620002b6565b620002ad565b9050919050565b5f819050919050565b620002fa83620002bf565b620003126200030982620002e6565b84845462000258565b825550505050565b5f90565b620003286200031a565b62000335818484620002ef565b505050565b5b818110156200035c57620003505f826200031e565b6001810190506200033b565b5050565b601f821115620003ab5762000375816200022b565b62000380846200023d565b8101602085101562000390578190505b620003a86200039f856200023d565b8301826200033a565b50505b505050565b5f82821c905092915050565b5f620003cd5f1984600802620003b0565b1980831691505092915050565b5f620003e78383620003bc565b9150826002028217905092915050565b620004028262000193565b67ffffffffffffffff8111156200041e576200041d6200019d565b5b6200042a8254620001f7565b6200043782828562000360565b5f60209050601f8311600181146200046d575f841562000458578287015190505b620004648582620003da565b865550620004d3565b601f1984166200047d866200022b565b5f5b82811015620004a6578489015182556001820191506020850194506020810190506200047f565b86831015620004c65784890151620004c2601f891682620003bc565b8355505b6001600288020188555050505b505050505050565b6117ed80620004e95f395ff3fe608060405234801561000f575f80fd5b50600436106100f3575f3560e01c8063715018a611610095578063a457c2d711610064578063a457c2d714610273578063a9059cbb146102a3578063dd62ed3e146102d3578063f2fde38b14610303576100f3565b8063715018a6146102115780638da5cb5b1461021b57806395d89b4114610239578063a0712d6814610257576100f3565b806323b872dd116100d157806323b872dd14610163578063313ce5671461019357806339509351146101b157806370a08231146101e1576100f3565b806306fdde03146100f7578063095ea7b31461011557806318160ddd14610145575b5f80fd5b6100ff61031f565b60405161010c9190610f15565b60405180910390f35b61012f600480360381019061012a9190610fc6565b6103af565b60405161013c919061101e565b60405180910390f35b61014d6103d9565b60405161015a9190611046565b60405180910390f35b61017d6004803603810190610178919061105f565b6103e2565b60405161018a919061101e565b60405180910390f35b61019b610418565b6040516101a891906110ca565b60405180910390f35b6101cb60048036038101906101c69190610fc6565b610420565b6040516101d8919061101e565b60405180910390f35b6101fb60048036038101906101f691906110e3565b610456565b6040516102089190611046565b60405180910390f35b61021961049b565b005b6102236104ae565b604051610230919061111d565b60405180910390f35b6102416104d6565b60405161024e9190610f15565b60405180910390f35b610271600480360381019061026c9190611136565b610566565b005b61028d60048036038101906102889190610fc6565b61058e565b60405161029a919061101e565b60405180910390f35b6102bd60048036038101906102b89190610fc6565b610603565b6040516102ca919061101e565b60405180910390f35b6102ed60048036038101906102e89190611161565b61062d565b6040516102fa9190611046565b60405180910390f35b61031d600480360381019061031891906110e3565b6106af565b005b60606003805461032e906111cc565b80601f016020809104026020016040519081016040528092919081815260200182805461035a906111cc565b80156103a55780601f1061037c576101008083540402835291602001916103a5565b820191905f5260205f20905b81548152906001019060200180831161038857829003601f168201915b5050505050905090565b5f6103b8610731565b5f6103c16107af565b90506103ce8482856107b6565b600191505092915050565b5f600254905090565b5f6103eb610731565b5f6103f46107af565b9050610401858285610979565b61040c858585610a04565b60019150509392505050565b5f6012905090565b5f8061042a6107af565b905061044b81858561043c858961062d565b6104469190611229565b6107b6565b600191505092915050565b5f805f8373ffffffffffffffffffffffffffffffffffffffff1673ffffffffffffffffffffffffffffffffffffffff1681526020019081526020015f20549050919050565b6104a3610731565b6104ac5f610c70565b565b5f60055f9054906101000a900473ffffffffffffffffffffffffffffffffffffffff16905090565b6060600480546104e5906111cc565b80601f0160208091040260200160405190810160405280929190818152602001828054610511906111cc565b801561055c5780601f106105335761010080835404028352916020019161055c565b820191905f5260205f20905b81548152906001019060200180831161053f57829003601f168201915b5050505050905090565b61056e610731565b61058b33670de0b6b3a764000083610586919061125c565b610d33565b50565b5f806105986107af565b90505f6105a5828661062d565b9050838110156105ea576040517f08c379a00000000000000000000000000000000000000000000000000000000081526004016105e19061130d565b60405180910390fd5b6105f782868684036107b6565b60019250505092915050565b5f61060c610731565b5f6106156107af565b9050610622818585610a04565b600191505092915050565b5f60015f8473ffffffffffffffffffffffffffffffffffffffff1673ffffffffffffffffffffffffffffffffffffffff1681526020019081526020015f205f8373ffffffffffffffffffffffffffffffffffffffff1673ffffffffffffffffffffffffffffffffffffffff1681526020019081526020015f2054905092915050565b6106b7610731565b5f73ffffffffffffffffffffffffffffffffffffffff168173ffffffffffffffffffffffffffffffffffffffff1603610725576040517f08c379a000000000000000000000000000000000000000000000000000000000815260040161071c9061139b565b60405180910390fd5b61072e81610c70565b50565b6107396107af565b73ffffffffffffffffffffffffffffffffffffffff166107576104ae565b73ffffffffffffffffffffffffffffffffffffffff16146107ad576040517f08c379a00000000000000000000000000000000000000000000000000000000081526004016107a490611403565b60405180910390fd5b565b5f33905090565b5f73ffffffffffffffffffffffffffffffffffffffff168373ffffffffffffffffffffffffffffffffffffffff1603610824576040517f08c379a000000000000000000000000000000000000000000000000000000000815260040161081b90611491565b60405180910390fd5b5f73ffffffffffffffffffffffffffffffffffffffff168273ffffffffffffffffffffffffffffffffffffffff1603610892576040517f08c379a00000000000000000000000000000000000000000000000000000000081526004016108899061151f565b60405180910390fd5b8060015f8573ffffffffffffffffffffffffffffffffffffffff1673ffffffffffffffffffffffffffffffffffffffff1681526020019081526020015f205f8473ffffffffffffffffffffffffffffffffffffffff1673ffffffffffffffffffffffffffffffffffffffff1681526020019081526020015f20819055508173ffffffffffffffffffffffffffffffffffffffff168373ffffffffffffffffffffffffffffffffffffffff167f8c5be1e5ebec7d5bd14f71427d1e84f3dd0314c0f7b2291e5b200ac8c7c3b9258360405161096c9190611046565b60405180910390a3505050565b5f610984848461062d565b90507fffffffffffffffffffffffffffffffffffffffffffffffffffffffffffffffff81146109fe57818110156109f0576040517f08c379a00000000000000000000000000000000000000000000000000000000081526004016109e790611587565b60405180910390fd5b6109fd84848484036107b6565b5b50505050565b5f73ffffffffffffffffffffffffffffffffffffffff168373ffffffffffffffffffffffffffffffffffffffff1603610a72576040517f08c379a0000000000000000000000000000000000000000000000000000000008152600401610a6990611615565b60405180910390fd5b5f73ffffffffffffffffffffffffffffffffffffffff168273ffffffffffffffffffffffffffffffffffffffff1603610ae0576040517f08c379a0000000000000000000000000000000000000000000000000000000008152600401610ad7906116a3565b60405180910390fd5b610aeb838383610e81565b5f805f8573ffffffffffffffffffffffffffffffffffffffff1673ffffffffffffffffffffffffffffffffffffffff1681526020019081526020015f2054905081811015610b6e576040517f08c379a0000000000000000000000000000000000000000000000000000000008152600401610b6590611731565b60405180910390fd5b8181035f808673ffffffffffffffffffffffffffffffffffffffff1673ffffffffffffffffffffffffffffffffffffffff1681526020019081526020015f2081905550815f808573ffffffffffffffffffffffffffffffffffffffff1673ffffffffffffffffffffffffffffffffffffffff1681526020019081526020015f205f82825401925050819055508273ffffffffffffffffffffffffffffffffffffffff168473ffffffffffffffffffffffffffffffffffffffff167fddf252ad1be2c89b69c2b068fc378daa952ba7f163c4a11628f55a4df523b3ef84604051610c579190611046565b60405180910390a3610c6a848484610e86565b50505050565b5f60055f9054906101000a900473ffffffffffffffffffffffffffffffffffffffff1690508160055f6101000a81548173ffffffffffffffffffffffffffffffffffffffff021916908373ffffffffffffffffffffffffffffffffffffffff1602179055508173ffffffffffffffffffffffffffffffffffffffff168173ffffffffffffffffffffffffffffffffffffffff167f8be0079c531659141344cd1fd0a4f28419497f9722a3daafe3b4186f6b6457e060405160405180910390a35050565b5f73ffffffffffffffffffffffffffffffffffffffff168273ffffffffffffffffffffffffffffffffffffffff1603610da1576040517f08c379a0000000000000000000000000000000000000000000000000000000008152600401610d9890611799565b60405180910390fd5b610dac5f8383610e81565b8060025f828254610dbd9190611229565b92505081905550805f808473ffffffffffffffffffffffffffffffffffffffff1673ffffffffffffffffffffffffffffffffffffffff1681526020019081526020015f205f82825401925050819055508173ffffffffffffffffffffffffffffffffffffffff165f73ffffffffffffffffffffffffffffffffffffffff167fddf252ad1be2c89b69c2b068fc378daa952ba7f163c4a11628f55a4df523b3ef83604051610e6a9190611046565b60405180910390a3610e7d5f8383610e86565b5050565b505050565b505050565b5f81519050919050565b5f82825260208201905092915050565b5f5b83811015610ec2578082015181840152602081019050610ea7565b5f8484015250505050565b5f601f19601f8301169050919050565b5f610ee782610e8b565b610ef18185610e95565b9350610f01818560208601610ea5565b610f0a81610ecd565b840191505092915050565b5f6020820190508181035f830152610f2d8184610edd565b905092915050565b5f80fd5b5f73ffffffffffffffffffffffffffffffffffffffff82169050919050565b5f610f6282610f39565b9050919050565b610f7281610f58565b8114610f7c575f80fd5b50565b5f81359050610f8d81610f69565b92915050565b5f819050919050565b610fa581610f93565b8114610faf575f80fd5b50565b5f81359050610fc081610f9c565b92915050565b5f8060408385031215610fdc57610fdb610f35565b5b5f610fe985828601610f7f565b9250506020610ffa85828601610fb2565b9150509250929050565b5f8115159050919050565b61101881611004565b82525050565b5f6020820190506110315f83018461100f565b92915050565b61104081610f93565b82525050565b5f6020820190506110595f830184611037565b92915050565b5f805f6060848603121561107657611075610f35565b5b5f61108386828701610f7f565b935050602061109486828701610f7f565b92505060406110a586828701610fb2565b9150509250925092565b5f60ff82169050919050565b6110c4816110af565b82525050565b5f6020820190506110dd5f8301846110bb565b92915050565b5f602082840312156110f8576110f7610f35565b5b5f61110584828501610f7f565b91505092915050565b61111781610f58565b82525050565b5f6020820190506111305f83018461110e565b92915050565b5f6020828403121561114b5761114a610f35565b5b5f61115884828501610fb2565b91505092915050565b5f806040838503121561117757611176610f35565b5b5f61118485828601610f7f565b925050602061119585828601610f7f565b9150509250929050565b7f4e487b71000000000000000000000000000000000000000000000000000000005f52602260045260245ffd5b5f60028204905060018216806111e357607f821691505b6020821081036111f6576111f561119f565b5b50919050565b7f4e487b71000000000000000000000000000000000000000000000000000000005f52601160045260245ffd5b5f61123382610f93565b915061123e83610f93565b9250828201905080821115611256576112556111fc565b5b92915050565b5f61126682610f93565b915061127183610f93565b925082820261127f81610f93565b91508282048414831517611296576112956111fc565b5b5092915050565b7f45524332303a2064656372656173656420616c6c6f77616e63652062656c6f775f8201527f207a65726f000000000000000000000000000000000000000000000000000000602082015250565b5f6112f7602583610e95565b91506113028261129d565b604082019050919050565b5f6020820190508181035f830152611324816112eb565b9050919050565b7f4f776e61626c653a206e6577206f776e657220697320746865207a65726f20615f8201527f6464726573730000000000000000000000000000000000000000000000000000602082015250565b5f611385602683610e95565b91506113908261132b565b604082019050919050565b5f6020820190508181035f8301526113b281611379565b9050919050565b7f4f776e61626c653a2063616c6c6572206973206e6f7420746865206f776e65725f82015250565b5f6113ed602083610e95565b91506113f8826113b9565b602082019050919050565b5f6020820190508181035f83015261141a816113e1565b9050919050565b7f45524332303a20617070726f76652066726f6d20746865207a65726f206164645f8201527f7265737300000000000000000000000000000000000000000000000000000000602082015250565b5f61147b602483610e95565b915061148682611421565b604082019050919050565b5f6020820190508181035f8301526114a88161146f565b9050919050565b7f45524332303a20617070726f766520746f20746865207a65726f2061646472655f8201527f7373000000000000000000000000000000000000000000000000000000000000602082015250565b5f611509602283610e95565b9150611514826114af565b604082019050919050565b5f6020820190508181035f830152611536816114fd565b9050919050565b7f45524332303a20696e73756666696369656e7420616c6c6f77616e63650000005f82015250565b5f611571601d83610e95565b915061157c8261153d565b602082019050919050565b5f6020820190508181035f83015261159e81611565565b9050919050565b7f45524332303a207472616e736665722066726f6d20746865207a65726f2061645f8201527f6472657373000000000000000000000000000000000000000000000000000000602082015250565b5f6115ff602583610e95565b915061160a826115a5565b604082019050919050565b5f6020820190508181035f83015261162c816115f3565b9050919050565b7f45524332303a207472616e7366657220746f20746865207a65726f20616464725f8201527f6573730000000000000000000000000000000000000000000000000000000000602082015250565b5f61168d602383610e95565b915061169882611633565b604082019050919050565b5f6020820190508181035f8301526116ba81611681565b9050919050565b7f45524332303a207472616e7366657220616d6f756e74206578636565647320625f8201527f616c616e63650000000000000000000000000000000000000000000000000000602082015250565b5f61171b602683610e95565b9150611726826116c1565b604082019050919050565b5f6020820190508181035f8301526117488161170f565b9050919050565b7f45524332303a206d696e7420746f20746865207a65726f2061646472657373005f82015250565b5f611783601f83610e95565b915061178e8261174f565b602082019050919050565b5f6020820190508181035f8301526117b081611777565b905091905056fea264697066735822122078b08e0004b43df447813d0bb80a98c5a0e3a3275900b83dc2dd34953c272c3864736f6c63430008150033","opcodes":"PUSH1 0x80 PUSH1 0x40 MSTORE CALLVALUE DUP1 ISZERO PUSH3 0x10 JUMPI PUSH0 DUP1 REVERT JUMPDEST POP PUSH1 0x40 MLOAD PUSH3 0x74EA CODESIZE SUB DUP1 PUSH3 0x74EA DUP4 CODECOPY DUP2 DUP2 ADD PUSH1 0x40 MSTORE DUP2 ADD SWAP1 PUSH3 0x36 SWAP2 SWAP1 PUSH3 0xF6 JUMP JUMPDEST PUSH1 0x40 MLOAD PUSH3 0x44 SWAP1 PUSH3 0xAC JUMP JUMPDEST PUSH1 0x40 MLOAD DUP1 SWAP2 SUB SWAP1 PUSH0 CREATE DUP1 ISZERO DUP1 ISZERO PUSH3 0x5E JUMPI RETURNDATASIZE PUSH0 DUP1 RETURNDATACOPY RETURNDATASIZE PUSH0 REVERT JUMPDEST POP PUSH1 0xA PUSH0 PUSH2 0x100 EXP DUP2 SLOAD DUP2 PUSH20 0xFFFFFFFFFFFFFFFFFFFFFFFFFFFFFFFFFFFFFFFF MUL NOT AND SWAP1 DUP4 PUSH20 0xFFFFFFFFFFFFFFFFFFFFFFFFFFFFFFFFFFFFFFFF AND MUL OR SWAP1 SSTORE POP DUP1 PUSH1 0xB DUP2 SWAP1 SSTORE POP POP PUSH3 0x126 JUMP JUMPDEST PUSH2 0x1CD6 DUP1 PUSH3 0x5814 DUP4 CODECOPY ADD SWAP1 JUMP JUMPDEST PUSH0 DUP1 REVERT JUMPDEST PUSH0 DUP2 SWAP1 POP SWAP2 SWAP1 POP JUMP JUMPDEST PUSH3 0xD2 DUP2 PUSH3 0xBE JUMP JUMPDEST DUP2 EQ PUSH3 0xDD JUMPI PUSH0 DUP1 REVERT JUMPDEST POP JUMP JUMPDEST PUSH0 DUP2 MLOAD SWAP1 POP PUSH3 0xF0 DUP2 PUSH3 0xC7 JUMP JUMPDEST SWAP3 SWAP2 POP POP JUMP JUMPDEST PUSH0 PUSH1 0x20 DUP3 DUP5 SUB SLT ISZERO PUSH3 0x10E JUMPI PUSH3 0x10D PUSH3 0xBA JUMP JUMPDEST JUMPDEST PUSH0 PUSH3 0x11D DUP5 DUP3 DUP6 ADD PUSH3 0xE0 JUMP JUMPDEST SWAP2 POP POP SWAP3 SWAP2 POP POP JUMP JUMPDEST PUSH2 0x56E0 DUP1 PUSH3 0x134 PUSH0 CODECOPY PUSH0 RETURN INVALID PUSH1 0x80 PUSH1 0x40 MSTORE PUSH1 0x4 CALLDATASIZE LT PUSH2 0xF2 JUMPI PUSH0 CALLDATALOAD PUSH1 0xE0 SHR DUP1 PUSH4 0x6F85E62C GT PUSH2 0x89 JUMPI DUP1 PUSH4 0xD7FE9EF1 GT PUSH2 0x58 JUMPI DUP1 PUSH4 0xD7FE9EF1 EQ PUSH2 0x323 JUMPI DUP1 PUSH4 0xDAC11963 EQ PUSH2 0x35F JUMPI DUP1 PUSH4 0xE7D4B3FD EQ PUSH2 0x39B JUMPI DUP1 PUSH4 0xFDCB5732 EQ PUSH2 0x3C3 JUMPI PUSH2 0xF2 JUMP JUMPDEST DUP1 PUSH4 0x6F85E62C EQ PUSH2 0x263 JUMPI DUP1 PUSH4 0x8165FED5 EQ PUSH2 0x27F JUMPI DUP1 PUSH4 0x9623CFB2 EQ PUSH2 0x2A7 JUMPI DUP1 PUSH4 0x9C080F5D EQ PUSH2 0x2E7 JUMPI PUSH2 0xF2 JUMP JUMPDEST DUP1 PUSH4 0x2DA39105 GT PUSH2 0xC5 JUMPI DUP1 PUSH4 0x2DA39105 EQ PUSH2 0x1AA JUMPI DUP1 PUSH4 0x35AC9BAA EQ PUSH2 0x1EC JUMPI DUP1 PUSH4 0x48DEC2A7 EQ PUSH2 0x208 JUMPI DUP1 PUSH4 0x55008C18 EQ PUSH2 0x247 JUMPI PUSH2 0xF2 JUMP JUMPDEST DUP1 PUSH4 0x188D030C EQ PUSH2 0xF6 JUMPI DUP1 PUSH4 0x1D2E4AFD EQ PUSH2 0x11E JUMPI DUP1 PUSH4 0x296B7454 EQ PUSH2 0x146 JUMPI DUP1 PUSH4 0x2CE22810 EQ PUSH2 0x182 JUMPI JUMPDEST PUSH0 DUP1 REVERT JUMPDEST CALLVALUE DUP1 ISZERO PUSH2 0x101 JUMPI PUSH0 DUP1 REVERT JUMPDEST POP PUSH2 0x11C PUSH1 0x4 DUP1 CALLDATASIZE SUB DUP2 ADD SWAP1 PUSH2 0x117 SWAP2 SWAP1 PUSH2 0x3FCA JUMP JUMPDEST PUSH2 0x3FF JUMP JUMPDEST STOP JUMPDEST CALLVALUE DUP1 ISZERO PUSH2 0x129 JUMPI PUSH0 DUP1 REVERT JUMPDEST POP PUSH2 0x144 PUSH1 0x4 DUP1 CALLDATASIZE SUB DUP2 ADD SWAP1 PUSH2 0x13F SWAP2 SWAP1 PUSH2 0x4011 JUMP JUMPDEST PUSH2 0x8A0 JUMP JUMPDEST STOP JUMPDEST CALLVALUE DUP1 ISZERO PUSH2 0x151 JUMPI PUSH0 DUP1 REVERT JUMPDEST POP PUSH2 0x16C PUSH1 0x4 DUP1 CALLDATASIZE SUB DUP2 ADD SWAP1 PUSH2 0x167 SWAP2 SWAP1 PUSH2 0x4011 JUMP JUMPDEST PUSH2 0xD5E JUMP JUMPDEST PUSH1 0x40 MLOAD PUSH2 0x179 SWAP2 SWAP1 PUSH2 0x41B4 JUMP JUMPDEST PUSH1 0x40 MLOAD DUP1 SWAP2 SUB SWAP1 RETURN JUMPDEST CALLVALUE DUP1 ISZERO PUSH2 0x18D JUMPI PUSH0 DUP1 REVERT JUMPDEST POP PUSH2 0x1A8 PUSH1 0x4 DUP1 CALLDATASIZE SUB DUP2 ADD SWAP1 PUSH2 0x1A3 SWAP2 SWAP1 PUSH2 0x41FE JUMP JUMPDEST PUSH2 0xF86 JUMP JUMPDEST STOP JUMPDEST CALLVALUE DUP1 ISZERO PUSH2 0x1B5 JUMPI PUSH0 DUP1 REVERT JUMPDEST POP PUSH2 0x1D0 PUSH1 0x4 DUP1 CALLDATASIZE SUB DUP2 ADD SWAP1 PUSH2 0x1CB SWAP2 SWAP1 PUSH2 0x3FCA JUMP JUMPDEST PUSH2 0x1179 JUMP JUMPDEST PUSH1 0x40 MLOAD PUSH2 0x1E3 SWAP8 SWAP7 SWAP6 SWAP5 SWAP4 SWAP3 SWAP2 SWAP1 PUSH2 0x42FD JUMP JUMPDEST PUSH1 0x40 MLOAD DUP1 SWAP2 SUB SWAP1 RETURN JUMPDEST PUSH2 0x206 PUSH1 0x4 DUP1 CALLDATASIZE SUB DUP2 ADD SWAP1 PUSH2 0x201 SWAP2 SWAP1 PUSH2 0x4521 JUMP JUMPDEST PUSH2 0x138C JUMP JUMPDEST STOP JUMPDEST CALLVALUE DUP1 ISZERO PUSH2 0x213 JUMPI PUSH0 DUP1 REVERT JUMPDEST POP PUSH2 0x22E PUSH1 0x4 DUP1 CALLDATASIZE SUB DUP2 ADD SWAP1 PUSH2 0x229 SWAP2 SWAP1 PUSH2 0x4614 JUMP JUMPDEST PUSH2 0x15CD JUMP JUMPDEST PUSH1 0x40 MLOAD PUSH2 0x23E SWAP5 SWAP4 SWAP3 SWAP2 SWAP1 PUSH2 0x464E JUMP JUMPDEST PUSH1 0x40 MLOAD DUP1 SWAP2 SUB SWAP1 RETURN JUMPDEST PUSH2 0x261 PUSH1 0x4 DUP1 CALLDATASIZE SUB DUP2 ADD SWAP1 PUSH2 0x25C SWAP2 SWAP1 PUSH2 0x46D0 JUMP JUMPDEST PUSH2 0x17AA JUMP JUMPDEST STOP JUMPDEST PUSH2 0x27D PUSH1 0x4 DUP1 CALLDATASIZE SUB DUP2 ADD SWAP1 PUSH2 0x278 SWAP2 SWAP1 PUSH2 0x3FCA JUMP JUMPDEST PUSH2 0x2B0D JUMP JUMPDEST STOP JUMPDEST CALLVALUE DUP1 ISZERO PUSH2 0x28A JUMPI PUSH0 DUP1 REVERT JUMPDEST POP PUSH2 0x2A5 PUSH1 0x4 DUP1 CALLDATASIZE SUB DUP2 ADD SWAP1 PUSH2 0x2A0 SWAP2 SWAP1 PUSH2 0x4788 JUMP JUMPDEST PUSH2 0x2CD0 JUMP JUMPDEST STOP JUMPDEST CALLVALUE DUP1 ISZERO PUSH2 0x2B2 JUMPI PUSH0 DUP1 REVERT JUMPDEST POP PUSH2 0x2CD PUSH1 0x4 DUP1 CALLDATASIZE SUB DUP2 ADD SWAP1 PUSH2 0x2C8 SWAP2 SWAP1 PUSH2 0x4011 JUMP JUMPDEST PUSH2 0x2F10 JUMP JUMPDEST PUSH1 0x40 MLOAD PUSH2 0x2DE SWAP6 SWAP5 SWAP4 SWAP3 SWAP2 SWAP1 PUSH2 0x4840 JUMP JUMPDEST PUSH1 0x40 MLOAD DUP1 SWAP2 SUB SWAP1 RETURN JUMPDEST CALLVALUE DUP1 ISZERO PUSH2 0x2F2 JUMPI PUSH0 DUP1 REVERT JUMPDEST POP PUSH2 0x30D PUSH1 0x4 DUP1 CALLDATASIZE SUB DUP2 ADD SWAP1 PUSH2 0x308 SWAP2 SWAP1 PUSH2 0x4614 JUMP JUMPDEST PUSH2 0x311B JUMP JUMPDEST PUSH1 0x40 MLOAD PUSH2 0x31A SWAP2 SWAP1 PUSH2 0x48A6 JUMP JUMPDEST PUSH1 0x40 MLOAD DUP1 SWAP2 SUB SWAP1 RETURN JUMPDEST CALLVALUE DUP1 ISZERO PUSH2 0x32E JUMPI PUSH0 DUP1 REVERT JUMPDEST POP PUSH2 0x349 PUSH1 0x4 DUP1 CALLDATASIZE SUB DUP2 ADD SWAP1 PUSH2 0x344 SWAP2 SWAP1 PUSH2 0x3FCA JUMP JUMPDEST PUSH2 0x31BC JUMP JUMPDEST PUSH1 0x40 MLOAD PUSH2 0x356 SWAP2 SWAP1 PUSH2 0x49FB JUMP JUMPDEST PUSH1 0x40 MLOAD DUP1 SWAP2 SUB SWAP1 RETURN JUMPDEST CALLVALUE DUP1 ISZERO PUSH2 0x36A JUMPI PUSH0 DUP1 REVERT JUMPDEST POP PUSH2 0x385 PUSH1 0x4 DUP1 CALLDATASIZE SUB DUP2 ADD SWAP1 PUSH2 0x380 SWAP2 SWAP1 PUSH2 0x4614 JUMP JUMPDEST PUSH2 0x340C JUMP JUMPDEST PUSH1 0x40 MLOAD PUSH2 0x392 SWAP2 SWAP1 PUSH2 0x4B8B JUMP JUMPDEST PUSH1 0x40 MLOAD DUP1 SWAP2 SUB SWAP1 RETURN JUMPDEST CALLVALUE DUP1 ISZERO PUSH2 0x3A6 JUMPI PUSH0 DUP1 REVERT JUMPDEST POP PUSH2 0x3C1 PUSH1 0x4 DUP1 CALLDATASIZE SUB DUP2 ADD SWAP1 PUSH2 0x3BC SWAP2 SWAP1 PUSH2 0x4BAB JUMP JUMPDEST PUSH2 0x378B JUMP JUMPDEST STOP JUMPDEST CALLVALUE DUP1 ISZERO PUSH2 0x3CE JUMPI PUSH0 DUP1 REVERT JUMPDEST POP PUSH2 0x3E9 PUSH1 0x4 DUP1 CALLDATASIZE SUB DUP2 ADD SWAP1 PUSH2 0x3E4 SWAP2 SWAP1 PUSH2 0x4C2B JUMP JUMPDEST PUSH2 0x3968 JUMP JUMPDEST PUSH1 0x40 MLOAD PUSH2 0x3F6 SWAP2 SWAP1 PUSH2 0x4C56 JUMP JUMPDEST PUSH1 0x40 MLOAD DUP1 SWAP2 SUB SWAP1 RETURN JUMPDEST PUSH0 ISZERO ISZERO PUSH1 0x8 DUP3 PUSH1 0x40 MLOAD PUSH2 0x412 SWAP2 SWAP1 PUSH2 0x4CB0 JUMP JUMPDEST SWAP1 DUP2 MSTORE PUSH1 0x20 ADD PUSH1 0x40 MLOAD DUP1 SWAP2 SUB SWAP1 KECCAK256 PUSH1 0x3 PUSH0 CALLER PUSH20 0xFFFFFFFFFFFFFFFFFFFFFFFFFFFFFFFFFFFFFFFF AND PUSH20 0xFFFFFFFFFFFFFFFFFFFFFFFFFFFFFFFFFFFFFFFF AND DUP2 MSTORE PUSH1 0x20 ADD SWAP1 DUP2 MSTORE PUSH1 0x20 ADD PUSH0 KECCAK256 PUSH0 ADD PUSH1 0x40 MLOAD PUSH2 0x46C SWAP2 SWAP1 PUSH2 0x4DB5 JUMP JUMPDEST SWAP1 DUP2 MSTORE PUSH1 0x20 ADD PUSH1 0x40 MLOAD DUP1 SWAP2 SUB SWAP1 KECCAK256 PUSH0 SWAP1 SLOAD SWAP1 PUSH2 0x100 EXP SWAP1 DIV PUSH1 0xFF AND ISZERO ISZERO EQ PUSH2 0x492 JUMPI PUSH0 DUP1 REVERT JUMPDEST PUSH0 PUSH1 0x40 MLOAD DUP1 PUSH1 0x40 ADD PUSH1 0x40 MSTORE DUP1 DUP4 DUP2 MSTORE PUSH1 0x20 ADD PUSH2 0x4AC PUSH2 0x3A0D JUMP JUMPDEST DUP2 MSTORE POP SWAP1 POP PUSH1 0x1 PUSH1 0x9 PUSH1 0x3 PUSH0 CALLER PUSH20 0xFFFFFFFFFFFFFFFFFFFFFFFFFFFFFFFFFFFFFFFF AND PUSH20 0xFFFFFFFFFFFFFFFFFFFFFFFFFFFFFFFFFFFFFFFF AND DUP2 MSTORE PUSH1 0x20 ADD SWAP1 DUP2 MSTORE PUSH1 0x20 ADD PUSH0 KECCAK256 PUSH0 ADD PUSH1 0x40 MLOAD PUSH2 0x501 SWAP2 SWAP1 PUSH2 0x4DB5 JUMP JUMPDEST SWAP1 DUP2 MSTORE PUSH1 0x20 ADD PUSH1 0x40 MLOAD DUP1 SWAP2 SUB SWAP1 KECCAK256 DUP3 PUSH1 0x20 ADD MLOAD PUSH1 0x40 MLOAD PUSH2 0x521 SWAP2 SWAP1 PUSH2 0x4CB0 JUMP JUMPDEST SWAP1 DUP2 MSTORE PUSH1 0x20 ADD PUSH1 0x40 MLOAD DUP1 SWAP2 SUB SWAP1 KECCAK256 PUSH0 PUSH2 0x100 EXP DUP2 SLOAD DUP2 PUSH1 0xFF MUL NOT AND SWAP1 DUP4 ISZERO ISZERO MUL OR SWAP1 SSTORE POP DUP2 PUSH1 0x7 DUP3 PUSH1 0x20 ADD MLOAD PUSH1 0x40 MLOAD PUSH2 0x55A SWAP2 SWAP1 PUSH2 0x4CB0 JUMP JUMPDEST SWAP1 DUP2 MSTORE PUSH1 0x20 ADD PUSH1 0x40 MLOAD DUP1 SWAP2 SUB SWAP1 KECCAK256 SWAP1 DUP2 PUSH2 0x574 SWAP2 SWAP1 PUSH2 0x4F56 JUMP JUMPDEST POP PUSH1 0x3 PUSH0 CALLER PUSH20 0xFFFFFFFFFFFFFFFFFFFFFFFFFFFFFFFFFFFFFFFF AND PUSH20 0xFFFFFFFFFFFFFFFFFFFFFFFFFFFFFFFFFFFFFFFF AND DUP2 MSTORE PUSH1 0x20 ADD SWAP1 DUP2 MSTORE PUSH1 0x20 ADD PUSH0 KECCAK256 PUSH1 0x4 ADD DUP2 SWAP1 DUP1 PUSH1 0x1 DUP2 SLOAD ADD DUP1 DUP3 SSTORE DUP1 SWAP2 POP POP PUSH1 0x1 SWAP1 SUB SWAP1 PUSH0 MSTORE PUSH1 0x20 PUSH0 KECCAK256 SWAP1 PUSH1 0x2 MUL ADD PUSH0 SWAP1 SWAP2 SWAP1 SWAP2 SWAP1 SWAP2 POP PUSH0 DUP3 ADD MLOAD DUP2 PUSH0 ADD SWAP1 DUP2 PUSH2 0x5EF SWAP2 SWAP1 PUSH2 0x4F56 JUMP JUMPDEST POP PUSH1 0x20 DUP3 ADD MLOAD DUP2 PUSH1 0x1 ADD SWAP1 DUP2 PUSH2 0x605 SWAP2 SWAP1 PUSH2 0x4F56 JUMP JUMPDEST POP POP POP PUSH1 0x1 PUSH1 0x8 DUP4 PUSH1 0x40 MLOAD PUSH2 0x61A SWAP2 SWAP1 PUSH2 0x4CB0 JUMP JUMPDEST SWAP1 DUP2 MSTORE PUSH1 0x20 ADD PUSH1 0x40 MLOAD DUP1 SWAP2 SUB SWAP1 KECCAK256 PUSH1 0x3 PUSH0 CALLER PUSH20 0xFFFFFFFFFFFFFFFFFFFFFFFFFFFFFFFFFFFFFFFF AND PUSH20 0xFFFFFFFFFFFFFFFFFFFFFFFFFFFFFFFFFFFFFFFF AND DUP2 MSTORE PUSH1 0x20 ADD SWAP1 DUP2 MSTORE PUSH1 0x20 ADD PUSH0 KECCAK256 PUSH0 ADD PUSH1 0x40 MLOAD PUSH2 0x674 SWAP2 SWAP1 PUSH2 0x4DB5 JUMP JUMPDEST SWAP1 DUP2 MSTORE PUSH1 0x20 ADD PUSH1 0x40 MLOAD DUP1 SWAP2 SUB SWAP1 KECCAK256 PUSH0 PUSH2 0x100 EXP DUP2 SLOAD DUP2 PUSH1 0xFF MUL NOT AND SWAP1 DUP4 ISZERO ISZERO MUL OR SWAP1 SSTORE POP PUSH1 0xA PUSH0 SWAP1 SLOAD SWAP1 PUSH2 0x100 EXP SWAP1 DIV PUSH20 0xFFFFFFFFFFFFFFFFFFFFFFFFFFFFFFFFFFFFFFFF AND PUSH20 0xFFFFFFFFFFFFFFFFFFFFFFFFFFFFFFFFFFFFFFFF AND PUSH4 0x95EA7B3 CALLER PUSH8 0xDE0B6B3A7640000 PUSH1 0x6 DUP7 PUSH1 0x40 MLOAD PUSH2 0x6EF SWAP2 SWAP1 PUSH2 0x4CB0 JUMP JUMPDEST SWAP1 DUP2 MSTORE PUSH1 0x20 ADD PUSH1 0x40 MLOAD DUP1 SWAP2 SUB SWAP1 KECCAK256 PUSH1 0x4 ADD SLOAD PUSH2 0x70B SWAP2 SWAP1 PUSH2 0x5052 JUMP JUMPDEST PUSH1 0x40 MLOAD DUP4 PUSH4 0xFFFFFFFF AND PUSH1 0xE0 SHL DUP2 MSTORE PUSH1 0x4 ADD PUSH2 0x728 SWAP3 SWAP2 SWAP1 PUSH2 0x5093 JUMP JUMPDEST PUSH1 0x20 PUSH1 0x40 MLOAD DUP1 DUP4 SUB DUP2 PUSH0 DUP8 GAS CALL ISZERO DUP1 ISZERO PUSH2 0x744 JUMPI RETURNDATASIZE PUSH0 DUP1 RETURNDATACOPY RETURNDATASIZE PUSH0 REVERT JUMPDEST POP POP POP POP PUSH1 0x40 MLOAD RETURNDATASIZE PUSH1 0x1F NOT PUSH1 0x1F DUP3 ADD AND DUP3 ADD DUP1 PUSH1 0x40 MSTORE POP DUP2 ADD SWAP1 PUSH2 0x768 SWAP2 SWAP1 PUSH2 0x50CE JUMP JUMPDEST POP PUSH1 0xA PUSH0 SWAP1 SLOAD SWAP1 PUSH2 0x100 EXP SWAP1 DIV PUSH20 0xFFFFFFFFFFFFFFFFFFFFFFFFFFFFFFFFFFFFFFFF AND PUSH20 0xFFFFFFFFFFFFFFFFFFFFFFFFFFFFFFFFFFFFFFFF AND PUSH4 0x23B872DD CALLER PUSH1 0x1 PUSH1 0x6 DUP7 PUSH1 0x40 MLOAD PUSH2 0x7B9 SWAP2 SWAP1 PUSH2 0x4CB0 JUMP JUMPDEST SWAP1 DUP2 MSTORE PUSH1 0x20 ADD PUSH1 0x40 MLOAD DUP1 SWAP2 SUB SWAP1 KECCAK256 PUSH1 0x1 ADD PUSH1 0x40 MLOAD PUSH2 0x7D7 SWAP2 SWAP1 PUSH2 0x4DB5 JUMP JUMPDEST SWAP1 DUP2 MSTORE PUSH1 0x20 ADD PUSH1 0x40 MLOAD DUP1 SWAP2 SUB SWAP1 KECCAK256 PUSH1 0x3 ADD PUSH0 SWAP1 SLOAD SWAP1 PUSH2 0x100 EXP SWAP1 DIV PUSH20 0xFFFFFFFFFFFFFFFFFFFFFFFFFFFFFFFFFFFFFFFF AND PUSH8 0xDE0B6B3A7640000 PUSH1 0x6 DUP8 PUSH1 0x40 MLOAD PUSH2 0x821 SWAP2 SWAP1 PUSH2 0x4CB0 JUMP JUMPDEST SWAP1 DUP2 MSTORE PUSH1 0x20 ADD PUSH1 0x40 MLOAD DUP1 SWAP2 SUB SWAP1 KECCAK256 PUSH1 0x4 ADD SLOAD PUSH2 0x83D SWAP2 SWAP1 PUSH2 0x5052 JUMP JUMPDEST PUSH1 0x40 MLOAD DUP5 PUSH4 0xFFFFFFFF AND PUSH1 0xE0 SHL DUP2 MSTORE PUSH1 0x4 ADD PUSH2 0x85B SWAP4 SWAP3 SWAP2 SWAP1 PUSH2 0x514B JUMP JUMPDEST PUSH1 0x20 PUSH1 0x40 MLOAD DUP1 DUP4 SUB DUP2 PUSH0 DUP8 GAS CALL ISZERO DUP1 ISZERO PUSH2 0x877 JUMPI RETURNDATASIZE PUSH0 DUP1 RETURNDATACOPY RETURNDATASIZE PUSH0 REVERT JUMPDEST POP POP POP POP PUSH1 0x40 MLOAD RETURNDATASIZE PUSH1 0x1F NOT PUSH1 0x1F DUP3 ADD AND DUP3 ADD DUP1 PUSH1 0x40 MSTORE POP DUP2 ADD SWAP1 PUSH2 0x89B SWAP2 SWAP1 PUSH2 0x50CE JUMP JUMPDEST POP POP POP JUMP JUMPDEST PUSH0 PUSH20 0xFFFFFFFFFFFFFFFFFFFFFFFFFFFFFFFFFFFFFFFF AND PUSH1 0x3 PUSH0 CALLER PUSH20 0xFFFFFFFFFFFFFFFFFFFFFFFFFFFFFFFFFFFFFFFF AND PUSH20 0xFFFFFFFFFFFFFFFFFFFFFFFFFFFFFFFFFFFFFFFF AND DUP2 MSTORE PUSH1 0x20 ADD SWAP1 DUP2 MSTORE PUSH1 0x20 ADD PUSH0 KECCAK256 PUSH1 0x2 ADD PUSH0 SWAP1 SLOAD SWAP1 PUSH2 0x100 EXP SWAP1 DIV PUSH20 0xFFFFFFFFFFFFFFFFFFFFFFFFFFFFFFFFFFFFFFFF AND PUSH20 0xFFFFFFFFFFFFFFFFFFFFFFFFFFFFFFFFFFFFFFFF AND EQ PUSH2 0x936 JUMPI PUSH0 DUP1 REVERT JUMPDEST PUSH0 PUSH2 0x96A CALLER PUSH1 0x40 MLOAD PUSH1 0x20 ADD PUSH2 0x94B SWAP2 SWAP1 PUSH2 0x51C5 JUMP JUMPDEST PUSH1 0x40 MLOAD PUSH1 0x20 DUP2 DUP4 SUB SUB DUP2 MSTORE SWAP1 PUSH1 0x40 MSTORE DUP1 MLOAD SWAP1 PUSH1 0x20 ADD KECCAK256 PUSH0 SHR PUSH1 0x20 PUSH2 0x3B14 JUMP JUMPDEST SWAP1 POP DUP1 PUSH1 0x3 PUSH0 CALLER PUSH20 0xFFFFFFFFFFFFFFFFFFFFFFFFFFFFFFFFFFFFFFFF AND PUSH20 0xFFFFFFFFFFFFFFFFFFFFFFFFFFFFFFFFFFFFFFFF AND DUP2 MSTORE PUSH1 0x20 ADD SWAP1 DUP2 MSTORE PUSH1 0x20 ADD PUSH0 KECCAK256 PUSH0 ADD SWAP1 DUP2 PUSH2 0x9B8 SWAP2 SWAP1 PUSH2 0x4F56 JUMP JUMPDEST POP DUP3 PUSH1 0x3 PUSH0 CALLER PUSH20 0xFFFFFFFFFFFFFFFFFFFFFFFFFFFFFFFFFFFFFFFF AND PUSH20 0xFFFFFFFFFFFFFFFFFFFFFFFFFFFFFFFFFFFFFFFF AND DUP2 MSTORE PUSH1 0x20 ADD SWAP1 DUP2 MSTORE PUSH1 0x20 ADD PUSH0 KECCAK256 PUSH1 0x1 ADD SWAP1 DUP2 PUSH2 0xA06 SWAP2 SWAP1 PUSH2 0x4F56 JUMP JUMPDEST POP CALLER PUSH1 0x3 PUSH0 CALLER PUSH20 0xFFFFFFFFFFFFFFFFFFFFFFFFFFFFFFFFFFFFFFFF AND PUSH20 0xFFFFFFFFFFFFFFFFFFFFFFFFFFFFFFFFFFFFFFFF AND DUP2 MSTORE PUSH1 0x20 ADD SWAP1 DUP2 MSTORE PUSH1 0x20 ADD PUSH0 KECCAK256 PUSH1 0x2 ADD PUSH0 PUSH2 0x100 EXP DUP2 SLOAD DUP2 PUSH20 0xFFFFFFFFFFFFFFFFFFFFFFFFFFFFFFFFFFFFFFFF MUL NOT AND SWAP1 DUP4 PUSH20 0xFFFFFFFFFFFFFFFFFFFFFFFFFFFFFFFFFFFFFFFF AND MUL OR SWAP1 SSTORE POP PUSH2 0xA8D PUSH2 0x3A0D JUMP JUMPDEST PUSH1 0x3 PUSH0 CALLER PUSH20 0xFFFFFFFFFFFFFFFFFFFFFFFFFFFFFFFFFFFFFFFF AND PUSH20 0xFFFFFFFFFFFFFFFFFFFFFFFFFFFFFFFFFFFFFFFF AND DUP2 MSTORE PUSH1 0x20 ADD SWAP1 DUP2 MSTORE PUSH1 0x20 ADD PUSH0 KECCAK256 PUSH1 0x5 ADD SWAP1 DUP2 PUSH2 0xAD9 SWAP2 SWAP1 PUSH2 0x4F56 JUMP JUMPDEST POP CALLER PUSH1 0x5 PUSH1 0x3 PUSH0 CALLER PUSH20 0xFFFFFFFFFFFFFFFFFFFFFFFFFFFFFFFFFFFFFFFF AND PUSH20 0xFFFFFFFFFFFFFFFFFFFFFFFFFFFFFFFFFFFFFFFF AND DUP2 MSTORE PUSH1 0x20 ADD SWAP1 DUP2 MSTORE PUSH1 0x20 ADD PUSH0 KECCAK256 PUSH1 0x5 ADD PUSH1 0x40 MLOAD PUSH2 0xB2A SWAP2 SWAP1 PUSH2 0x4DB5 JUMP JUMPDEST SWAP1 DUP2 MSTORE PUSH1 0x20 ADD PUSH1 0x40 MLOAD DUP1 SWAP2 SUB SWAP1 KECCAK256 PUSH0 PUSH2 0x100 EXP DUP2 SLOAD DUP2 PUSH20 0xFFFFFFFFFFFFFFFFFFFFFFFFFFFFFFFFFFFFFFFF MUL NOT AND SWAP1 DUP4 PUSH20 0xFFFFFFFFFFFFFFFFFFFFFFFFFFFFFFFFFFFFFFFF AND MUL OR SWAP1 SSTORE POP PUSH0 PUSH20 0xFFFFFFFFFFFFFFFFFFFFFFFFFFFFFFFFFFFFFFFF AND PUSH1 0x5 DUP4 PUSH1 0x40 MLOAD PUSH2 0xB9C SWAP2 SWAP1 PUSH2 0x4CB0 JUMP JUMPDEST SWAP1 DUP2 MSTORE PUSH1 0x20 ADD PUSH1 0x40 MLOAD DUP1 SWAP2 SUB SWAP1 KECCAK256 PUSH0 SWAP1 SLOAD SWAP1 PUSH2 0x100 EXP SWAP1 DIV PUSH20 0xFFFFFFFFFFFFFFFFFFFFFFFFFFFFFFFFFFFFFFFF AND PUSH20 0xFFFFFFFFFFFFFFFFFFFFFFFFFFFFFFFFFFFFFFFF AND EQ PUSH2 0xD59 JUMPI PUSH1 0xA PUSH0 SWAP1 SLOAD SWAP1 PUSH2 0x100 EXP SWAP1 DIV PUSH20 0xFFFFFFFFFFFFFFFFFFFFFFFFFFFFFFFFFFFFFFFF AND PUSH20 0xFFFFFFFFFFFFFFFFFFFFFFFFFFFFFFFFFFFFFFFF AND PUSH4 0xA0712D68 PUSH9 0x2B5E3AF16B1880000 PUSH1 0x40 MLOAD DUP3 PUSH4 0xFFFFFFFF AND PUSH1 0xE0 SHL DUP2 MSTORE PUSH1 0x4 ADD PUSH2 0xC48 SWAP2 SWAP1 PUSH2 0x5218 JUMP JUMPDEST PUSH0 PUSH1 0x40 MLOAD DUP1 DUP4 SUB DUP2 PUSH0 DUP8 DUP1 EXTCODESIZE ISZERO DUP1 ISZERO PUSH2 0xC5F JUMPI PUSH0 DUP1 REVERT JUMPDEST POP GAS CALL ISZERO DUP1 ISZERO PUSH2 0xC71 JUMPI RETURNDATASIZE PUSH0 DUP1 RETURNDATACOPY RETURNDATASIZE PUSH0 REVERT JUMPDEST POP POP POP POP PUSH1 0xA PUSH0 SWAP1 SLOAD SWAP1 PUSH2 0x100 EXP SWAP1 DIV PUSH20 0xFFFFFFFFFFFFFFFFFFFFFFFFFFFFFFFFFFFFFFFF AND PUSH20 0xFFFFFFFFFFFFFFFFFFFFFFFFFFFFFFFFFFFFFFFF AND PUSH4 0xA9059CBB PUSH1 0x5 DUP5 PUSH1 0x40 MLOAD PUSH2 0xCC2 SWAP2 SWAP1 PUSH2 0x4CB0 JUMP JUMPDEST SWAP1 DUP2 MSTORE PUSH1 0x20 ADD PUSH1 0x40 MLOAD DUP1 SWAP2 SUB SWAP1 KECCAK256 PUSH0 SWAP1 SLOAD SWAP1 PUSH2 0x100 EXP SWAP1 DIV PUSH20 0xFFFFFFFFFFFFFFFFFFFFFFFFFFFFFFFFFFFFFFFF AND PUSH9 0x2B5E3AF16B1880000 PUSH1 0x40 MLOAD DUP4 PUSH4 0xFFFFFFFF AND PUSH1 0xE0 SHL DUP2 MSTORE PUSH1 0x4 ADD PUSH2 0xD17 SWAP3 SWAP2 SWAP1 PUSH2 0x5231 JUMP JUMPDEST PUSH1 0x20 PUSH1 0x40 MLOAD DUP1 DUP4 SUB DUP2 PUSH0 DUP8 GAS CALL ISZERO DUP1 ISZERO PUSH2 0xD33 JUMPI RETURNDATASIZE PUSH0 DUP1 RETURNDATACOPY RETURNDATASIZE PUSH0 REVERT JUMPDEST POP POP POP POP PUSH1 0x40 MLOAD RETURNDATASIZE PUSH1 0x1F NOT PUSH1 0x1F DUP3 ADD AND DUP3 ADD DUP1 PUSH1 0x40 MSTORE POP DUP2 ADD SWAP1 PUSH2 0xD57 SWAP2 SWAP1 PUSH2 0x50CE JUMP JUMPDEST POP JUMPDEST POP POP POP JUMP JUMPDEST PUSH2 0xD66 PUSH2 0x3D49 JUMP JUMPDEST PUSH1 0x2 DUP4 PUSH1 0x40 MLOAD PUSH2 0xD76 SWAP2 SWAP1 PUSH2 0x4CB0 JUMP JUMPDEST SWAP1 DUP2 MSTORE PUSH1 0x20 ADD PUSH1 0x40 MLOAD DUP1 SWAP2 SUB SWAP1 KECCAK256 DUP3 PUSH1 0x40 MLOAD PUSH2 0xD92 SWAP2 SWAP1 PUSH2 0x4CB0 JUMP JUMPDEST SWAP1 DUP2 MSTORE PUSH1 0x20 ADD PUSH1 0x40 MLOAD DUP1 SWAP2 SUB SWAP1 KECCAK256 PUSH1 0x40 MLOAD DUP1 PUSH1 0xA0 ADD PUSH1 0x40 MSTORE SWAP1 DUP2 PUSH0 DUP3 ADD DUP1 SLOAD PUSH2 0xDBA SWAP1 PUSH2 0x4CF3 JUMP JUMPDEST DUP1 PUSH1 0x1F ADD PUSH1 0x20 DUP1 SWAP2 DIV MUL PUSH1 0x20 ADD PUSH1 0x40 MLOAD SWAP1 DUP2 ADD PUSH1 0x40 MSTORE DUP1 SWAP3 SWAP2 SWAP1 DUP2 DUP2 MSTORE PUSH1 0x20 ADD DUP3 DUP1 SLOAD PUSH2 0xDE6 SWAP1 PUSH2 0x4CF3 JUMP JUMPDEST DUP1 ISZERO PUSH2 0xE31 JUMPI DUP1 PUSH1 0x1F LT PUSH2 0xE08 JUMPI PUSH2 0x100 DUP1 DUP4 SLOAD DIV MUL DUP4 MSTORE SWAP2 PUSH1 0x20 ADD SWAP2 PUSH2 0xE31 JUMP JUMPDEST DUP3 ADD SWAP2 SWAP1 PUSH0 MSTORE PUSH1 0x20 PUSH0 KECCAK256 SWAP1 JUMPDEST DUP2 SLOAD DUP2 MSTORE SWAP1 PUSH1 0x1 ADD SWAP1 PUSH1 0x20 ADD DUP1 DUP4 GT PUSH2 0xE14 JUMPI DUP3 SWAP1 SUB PUSH1 0x1F AND DUP3 ADD SWAP2 JUMPDEST POP POP POP POP POP DUP2 MSTORE PUSH1 0x20 ADD PUSH1 0x1 DUP3 ADD DUP1 SLOAD PUSH2 0xE4A SWAP1 PUSH2 0x4CF3 JUMP JUMPDEST DUP1 PUSH1 0x1F ADD PUSH1 0x20 DUP1 SWAP2 DIV MUL PUSH1 0x20 ADD PUSH1 0x40 MLOAD SWAP1 DUP2 ADD PUSH1 0x40 MSTORE DUP1 SWAP3 SWAP2 SWAP1 DUP2 DUP2 MSTORE PUSH1 0x20 ADD DUP3 DUP1 SLOAD PUSH2 0xE76 SWAP1 PUSH2 0x4CF3 JUMP JUMPDEST DUP1 ISZERO PUSH2 0xEC1 JUMPI DUP1 PUSH1 0x1F LT PUSH2 0xE98 JUMPI PUSH2 0x100 DUP1 DUP4 SLOAD DIV MUL DUP4 MSTORE SWAP2 PUSH1 0x20 ADD SWAP2 PUSH2 0xEC1 JUMP JUMPDEST DUP3 ADD SWAP2 SWAP1 PUSH0 MSTORE PUSH1 0x20 PUSH0 KECCAK256 SWAP1 JUMPDEST DUP2 SLOAD DUP2 MSTORE SWAP1 PUSH1 0x1 ADD SWAP1 PUSH1 0x20 ADD DUP1 DUP4 GT PUSH2 0xEA4 JUMPI DUP3 SWAP1 SUB PUSH1 0x1F AND DUP3 ADD SWAP2 JUMPDEST POP POP POP POP POP DUP2 MSTORE PUSH1 0x20 ADD PUSH1 0x2 DUP3 ADD DUP1 SLOAD PUSH2 0xEDA SWAP1 PUSH2 0x4CF3 JUMP JUMPDEST DUP1 PUSH1 0x1F ADD PUSH1 0x20 DUP1 SWAP2 DIV MUL PUSH1 0x20 ADD PUSH1 0x40 MLOAD SWAP1 DUP2 ADD PUSH1 0x40 MSTORE DUP1 SWAP3 SWAP2 SWAP1 DUP2 DUP2 MSTORE PUSH1 0x20 ADD DUP3 DUP1 SLOAD PUSH2 0xF06 SWAP1 PUSH2 0x4CF3 JUMP JUMPDEST DUP1 ISZERO PUSH2 0xF51 JUMPI DUP1 PUSH1 0x1F LT PUSH2 0xF28 JUMPI PUSH2 0x100 DUP1 DUP4 SLOAD DIV MUL DUP4 MSTORE SWAP2 PUSH1 0x20 ADD SWAP2 PUSH2 0xF51 JUMP JUMPDEST DUP3 ADD SWAP2 SWAP1 PUSH0 MSTORE PUSH1 0x20 PUSH0 KECCAK256 SWAP1 JUMPDEST DUP2 SLOAD DUP2 MSTORE SWAP1 PUSH1 0x1 ADD SWAP1 PUSH1 0x20 ADD DUP1 DUP4 GT PUSH2 0xF34 JUMPI DUP3 SWAP1 SUB PUSH1 0x1F AND DUP3 ADD SWAP2 JUMPDEST POP POP POP POP POP DUP2 MSTORE PUSH1 0x20 ADD PUSH1 0x3 DUP3 ADD SLOAD DUP2 MSTORE PUSH1 0x20 ADD PUSH1 0x4 DUP3 ADD PUSH0 SWAP1 SLOAD SWAP1 PUSH2 0x100 EXP SWAP1 DIV PUSH1 0xFF AND ISZERO ISZERO ISZERO ISZERO DUP2 MSTORE POP POP SWAP1 POP SWAP3 SWAP2 POP POP JUMP JUMPDEST CALLER PUSH20 0xFFFFFFFFFFFFFFFFFFFFFFFFFFFFFFFFFFFFFFFF AND PUSH1 0x1 DUP4 PUSH1 0x40 MLOAD PUSH2 0xFAD SWAP2 SWAP1 PUSH2 0x4CB0 JUMP JUMPDEST SWAP1 DUP2 MSTORE PUSH1 0x20 ADD PUSH1 0x40 MLOAD DUP1 SWAP2 SUB SWAP1 KECCAK256 PUSH1 0x3 ADD PUSH0 SWAP1 SLOAD SWAP1 PUSH2 0x100 EXP SWAP1 DIV PUSH20 0xFFFFFFFFFFFFFFFFFFFFFFFFFFFFFFFFFFFFFFFF AND PUSH20 0xFFFFFFFFFFFFFFFFFFFFFFFFFFFFFFFFFFFFFFFF AND EQ PUSH2 0xFFD JUMPI PUSH0 DUP1 REVERT JUMPDEST PUSH0 PUSH8 0xDE0B6B3A7640000 DUP3 PUSH2 0x1012 SWAP2 SWAP1 PUSH2 0x5052 JUMP JUMPDEST SWAP1 POP PUSH2 0x105D PUSH1 0x1 DUP5 PUSH1 0x40 MLOAD PUSH2 0x1027 SWAP2 SWAP1 PUSH2 0x4CB0 JUMP JUMPDEST SWAP1 DUP2 MSTORE PUSH1 0x20 ADD PUSH1 0x40 MLOAD DUP1 SWAP2 SUB SWAP1 KECCAK256 PUSH1 0x3 ADD PUSH0 SWAP1 SLOAD SWAP1 PUSH2 0x100 EXP SWAP1 DIV PUSH20 0xFFFFFFFFFFFFFFFFFFFFFFFFFFFFFFFFFFFFFFFF AND PUSH2 0x311B JUMP JUMPDEST DUP2 GT ISZERO PUSH2 0x1068 JUMPI PUSH0 DUP1 REVERT JUMPDEST PUSH1 0xA PUSH0 SWAP1 SLOAD SWAP1 PUSH2 0x100 EXP SWAP1 DIV PUSH20 0xFFFFFFFFFFFFFFFFFFFFFFFFFFFFFFFFFFFFFFFF AND PUSH20 0xFFFFFFFFFFFFFFFFFFFFFFFFFFFFFFFFFFFFFFFF AND PUSH4 0x95EA7B3 CALLER DUP4 PUSH1 0x40 MLOAD DUP4 PUSH4 0xFFFFFFFF AND PUSH1 0xE0 SHL DUP2 MSTORE PUSH1 0x4 ADD PUSH2 0x10C4 SWAP3 SWAP2 SWAP1 PUSH2 0x5093 JUMP JUMPDEST PUSH1 0x20 PUSH1 0x40 MLOAD DUP1 DUP4 SUB DUP2 PUSH0 DUP8 GAS CALL ISZERO DUP1 ISZERO PUSH2 0x10E0 JUMPI RETURNDATASIZE PUSH0 DUP1 RETURNDATACOPY RETURNDATASIZE PUSH0 REVERT JUMPDEST POP POP POP POP PUSH1 0x40 MLOAD RETURNDATASIZE PUSH1 0x1F NOT PUSH1 0x1F DUP3 ADD AND DUP3 ADD DUP1 PUSH1 0x40 MSTORE POP DUP2 ADD SWAP1 PUSH2 0x1104 SWAP2 SWAP1 PUSH2 0x50CE JUMP JUMPDEST POP PUSH1 0x1 DUP1 DUP5 PUSH1 0x40 MLOAD PUSH2 0x1116 SWAP2 SWAP1 PUSH2 0x4CB0 JUMP JUMPDEST SWAP1 DUP2 MSTORE PUSH1 0x20 ADD PUSH1 0x40 MLOAD DUP1 SWAP2 SUB SWAP1 KECCAK256 PUSH1 0x6 ADD PUSH0 PUSH2 0x100 EXP DUP2 SLOAD DUP2 PUSH1 0xFF MUL NOT AND SWAP1 DUP4 ISZERO ISZERO MUL OR SWAP1 SSTORE POP DUP1 PUSH1 0x1 DUP5 PUSH1 0x40 MLOAD PUSH2 0x114E SWAP2 SWAP1 PUSH2 0x4CB0 JUMP JUMPDEST SWAP1 DUP2 MSTORE PUSH1 0x20 ADD PUSH1 0x40 MLOAD DUP1 SWAP2 SUB SWAP1 KECCAK256 PUSH1 0x7 ADD PUSH0 DUP3 DUP3 SLOAD PUSH2 0x116D SWAP2 SWAP1 PUSH2 0x5258 JUMP JUMPDEST SWAP3 POP POP DUP2 SWAP1 SSTORE POP POP POP POP JUMP JUMPDEST PUSH1 0x1 DUP2 DUP1 MLOAD PUSH1 0x20 DUP2 ADD DUP3 ADD DUP1 MLOAD DUP5 DUP3 MSTORE PUSH1 0x20 DUP4 ADD PUSH1 0x20 DUP6 ADD KECCAK256 DUP2 DUP4 MSTORE DUP1 SWAP6 POP POP POP POP POP POP PUSH0 SWAP2 POP SWAP1 POP DUP1 PUSH0 ADD DUP1 SLOAD PUSH2 0x11B0 SWAP1 PUSH2 0x4CF3 JUMP JUMPDEST DUP1 PUSH1 0x1F ADD PUSH1 0x20 DUP1 SWAP2 DIV MUL PUSH1 0x20 ADD PUSH1 0x40 MLOAD SWAP1 DUP2 ADD PUSH1 0x40 MSTORE DUP1 SWAP3 SWAP2 SWAP1 DUP2 DUP2 MSTORE PUSH1 0x20 ADD DUP3 DUP1 SLOAD PUSH2 0x11DC SWAP1 PUSH2 0x4CF3 JUMP JUMPDEST DUP1 ISZERO PUSH2 0x1227 JUMPI DUP1 PUSH1 0x1F LT PUSH2 0x11FE JUMPI PUSH2 0x100 DUP1 DUP4 SLOAD DIV MUL DUP4 MSTORE SWAP2 PUSH1 0x20 ADD SWAP2 PUSH2 0x1227 JUMP JUMPDEST DUP3 ADD SWAP2 SWAP1 PUSH0 MSTORE PUSH1 0x20 PUSH0 KECCAK256 SWAP1 JUMPDEST DUP2 SLOAD DUP2 MSTORE SWAP1 PUSH1 0x1 ADD SWAP1 PUSH1 0x20 ADD DUP1 DUP4 GT PUSH2 0x120A JUMPI DUP3 SWAP1 SUB PUSH1 0x1F AND DUP3 ADD SWAP2 JUMPDEST POP POP POP POP POP SWAP1 DUP1 PUSH1 0x1 ADD DUP1 SLOAD PUSH2 0x123C SWAP1 PUSH2 0x4CF3 JUMP JUMPDEST DUP1 PUSH1 0x1F ADD PUSH1 0x20 DUP1 SWAP2 DIV MUL PUSH1 0x20 ADD PUSH1 0x40 MLOAD SWAP1 DUP2 ADD PUSH1 0x40 MSTORE DUP1 SWAP3 SWAP2 SWAP1 DUP2 DUP2 MSTORE PUSH1 0x20 ADD DUP3 DUP1 SLOAD PUSH2 0x1268 SWAP1 PUSH2 0x4CF3 JUMP JUMPDEST DUP1 ISZERO PUSH2 0x12B3 JUMPI DUP1 PUSH1 0x1F LT PUSH2 0x128A JUMPI PUSH2 0x100 DUP1 DUP4 SLOAD DIV MUL DUP4 MSTORE SWAP2 PUSH1 0x20 ADD SWAP2 PUSH2 0x12B3 JUMP JUMPDEST DUP3 ADD SWAP2 SWAP1 PUSH0 MSTORE PUSH1 0x20 PUSH0 KECCAK256 SWAP1 JUMPDEST DUP2 SLOAD DUP2 MSTORE SWAP1 PUSH1 0x1 ADD SWAP1 PUSH1 0x20 ADD DUP1 DUP4 GT PUSH2 0x1296 JUMPI DUP3 SWAP1 SUB PUSH1 0x1F AND DUP3 ADD SWAP2 JUMPDEST POP POP POP POP POP SWAP1 DUP1 PUSH1 0x2 ADD DUP1 SLOAD PUSH2 0x12C8 SWAP1 PUSH2 0x4CF3 JUMP JUMPDEST DUP1 PUSH1 0x1F ADD PUSH1 0x20 DUP1 SWAP2 DIV MUL PUSH1 0x20 ADD PUSH1 0x40 MLOAD SWAP1 DUP2 ADD PUSH1 0x40 MSTORE DUP1 SWAP3 SWAP2 SWAP1 DUP2 DUP2 MSTORE PUSH1 0x20 ADD DUP3 DUP1 SLOAD PUSH2 0x12F4 SWAP1 PUSH2 0x4CF3 JUMP JUMPDEST DUP1 ISZERO PUSH2 0x133F JUMPI DUP1 PUSH1 0x1F LT PUSH2 0x1316 JUMPI PUSH2 0x100 DUP1 DUP4 SLOAD DIV MUL DUP4 MSTORE SWAP2 PUSH1 0x20 ADD SWAP2 PUSH2 0x133F JUMP JUMPDEST DUP3 ADD SWAP2 SWAP1 PUSH0 MSTORE PUSH1 0x20 PUSH0 KECCAK256 SWAP1 JUMPDEST DUP2 SLOAD DUP2 MSTORE SWAP1 PUSH1 0x1 ADD SWAP1 PUSH1 0x20 ADD DUP1 DUP4 GT PUSH2 0x1322 JUMPI DUP3 SWAP1 SUB PUSH1 0x1F AND DUP3 ADD SWAP2 JUMPDEST POP POP POP POP POP SWAP1 DUP1 PUSH1 0x3 ADD PUSH0 SWAP1 SLOAD SWAP1 PUSH2 0x100 EXP SWAP1 DIV PUSH20 0xFFFFFFFFFFFFFFFFFFFFFFFFFFFFFFFFFFFFFFFF AND SWAP1 DUP1 PUSH1 0x6 ADD PUSH0 SWAP1 SLOAD SWAP1 PUSH2 0x100 EXP SWAP1 DIV PUSH1 0xFF AND SWAP1 DUP1 PUSH1 0x7 ADD SLOAD SWAP1 DUP1 PUSH1 0x8 ADD SLOAD SWAP1 POP DUP8 JUMP JUMPDEST PUSH8 0x15C2A7B13FD0000 CALLVALUE EQ PUSH2 0x139F JUMPI PUSH0 DUP1 REVERT JUMPDEST PUSH0 PUSH2 0x13D5 DUP6 CALLER PUSH1 0x40 MLOAD PUSH1 0x20 ADD PUSH2 0x13B6 SWAP3 SWAP2 SWAP1 PUSH2 0x528B JUMP JUMPDEST PUSH1 0x40 MLOAD PUSH1 0x20 DUP2 DUP4 SUB SUB DUP2 MSTORE SWAP1 PUSH1 0x40 MSTORE DUP1 MLOAD SWAP1 PUSH1 0x20 ADD KECCAK256 PUSH0 SHR PUSH1 0x20 PUSH2 0x3B14 JUMP JUMPDEST SWAP1 POP CALLER PUSH20 0xFFFFFFFFFFFFFFFFFFFFFFFFFFFFFFFFFFFFFFFF AND PUSH1 0x1 DUP3 PUSH1 0x40 MLOAD PUSH2 0x13FE SWAP2 SWAP1 PUSH2 0x4CB0 JUMP JUMPDEST SWAP1 DUP2 MSTORE PUSH1 0x20 ADD PUSH1 0x40 MLOAD DUP1 SWAP2 SUB SWAP1 KECCAK256 PUSH1 0x3 ADD PUSH0 SWAP1 SLOAD SWAP1 PUSH2 0x100 EXP SWAP1 DIV PUSH20 0xFFFFFFFFFFFFFFFFFFFFFFFFFFFFFFFFFFFFFFFF AND PUSH20 0xFFFFFFFFFFFFFFFFFFFFFFFFFFFFFFFFFFFFFFFF AND SUB PUSH2 0x144E JUMPI PUSH0 DUP1 REVERT JUMPDEST PUSH0 DUP2 SWAP1 DUP1 PUSH1 0x1 DUP2 SLOAD ADD DUP1 DUP3 SSTORE DUP1 SWAP2 POP POP PUSH1 0x1 SWAP1 SUB SWAP1 PUSH0 MSTORE PUSH1 0x20 PUSH0 KECCAK256 ADD PUSH0 SWAP1 SWAP2 SWAP1 SWAP2 SWAP1 SWAP2 POP SWAP1 DUP2 PUSH2 0x147E SWAP2 SWAP1 PUSH2 0x4F56 JUMP JUMPDEST POP DUP1 PUSH1 0x1 DUP3 PUSH1 0x40 MLOAD PUSH2 0x1490 SWAP2 SWAP1 PUSH2 0x4CB0 JUMP JUMPDEST SWAP1 DUP2 MSTORE PUSH1 0x20 ADD PUSH1 0x40 MLOAD DUP1 SWAP2 SUB SWAP1 KECCAK256 PUSH0 ADD SWAP1 DUP2 PUSH2 0x14AC SWAP2 SWAP1 PUSH2 0x4F56 JUMP JUMPDEST POP DUP5 PUSH1 0x1 DUP3 PUSH1 0x40 MLOAD PUSH2 0x14BE SWAP2 SWAP1 PUSH2 0x4CB0 JUMP JUMPDEST SWAP1 DUP2 MSTORE PUSH1 0x20 ADD PUSH1 0x40 MLOAD DUP1 SWAP2 SUB SWAP1 KECCAK256 PUSH1 0x1 ADD SWAP1 DUP2 PUSH2 0x14DB SWAP2 SWAP1 PUSH2 0x4F56 JUMP JUMPDEST POP DUP4 PUSH1 0x1 DUP3 PUSH1 0x40 MLOAD PUSH2 0x14ED SWAP2 SWAP1 PUSH2 0x4CB0 JUMP JUMPDEST SWAP1 DUP2 MSTORE PUSH1 0x20 ADD PUSH1 0x40 MLOAD DUP1 SWAP2 SUB SWAP1 KECCAK256 PUSH1 0x2 ADD SWAP1 DUP2 PUSH2 0x150A SWAP2 SWAP1 PUSH2 0x4F56 JUMP JUMPDEST POP CALLER PUSH1 0x1 DUP3 PUSH1 0x40 MLOAD PUSH2 0x151C SWAP2 SWAP1 PUSH2 0x4CB0 JUMP JUMPDEST SWAP1 DUP2 MSTORE PUSH1 0x20 ADD PUSH1 0x40 MLOAD DUP1 SWAP2 SUB SWAP1 KECCAK256 PUSH1 0x3 ADD PUSH0 PUSH2 0x100 EXP DUP2 SLOAD DUP2 PUSH20 0xFFFFFFFFFFFFFFFFFFFFFFFFFFFFFFFFFFFFFFFF MUL NOT AND SWAP1 DUP4 PUSH20 0xFFFFFFFFFFFFFFFFFFFFFFFFFFFFFFFFFFFFFFFF AND MUL OR SWAP1 SSTORE POP DUP3 PUSH1 0x1 DUP3 PUSH1 0x40 MLOAD PUSH2 0x157B SWAP2 SWAP1 PUSH2 0x4CB0 JUMP JUMPDEST SWAP1 DUP2 MSTORE PUSH1 0x20 ADD PUSH1 0x40 MLOAD DUP1 SWAP2 SUB SWAP1 KECCAK256 PUSH1 0x8 ADD DUP2 SWAP1 SSTORE POP DUP2 PUSH1 0x1 DUP3 PUSH1 0x40 MLOAD PUSH2 0x15A1 SWAP2 SWAP1 PUSH2 0x4CB0 JUMP JUMPDEST SWAP1 DUP2 MSTORE PUSH1 0x20 ADD PUSH1 0x40 MLOAD DUP1 SWAP2 SUB SWAP1 KECCAK256 PUSH1 0x9 ADD SWAP1 DUP1 MLOAD SWAP1 PUSH1 0x20 ADD SWAP1 PUSH2 0x15C5 SWAP3 SWAP2 SWAP1 PUSH2 0x3D78 JUMP JUMPDEST POP POP POP POP POP POP JUMP JUMPDEST PUSH1 0x3 PUSH1 0x20 MSTORE DUP1 PUSH0 MSTORE PUSH1 0x40 PUSH0 KECCAK256 PUSH0 SWAP2 POP SWAP1 POP DUP1 PUSH0 ADD DUP1 SLOAD PUSH2 0x15EC SWAP1 PUSH2 0x4CF3 JUMP JUMPDEST DUP1 PUSH1 0x1F ADD PUSH1 0x20 DUP1 SWAP2 DIV MUL PUSH1 0x20 ADD PUSH1 0x40 MLOAD SWAP1 DUP2 ADD PUSH1 0x40 MSTORE DUP1 SWAP3 SWAP2 SWAP1 DUP2 DUP2 MSTORE PUSH1 0x20 ADD DUP3 DUP1 SLOAD PUSH2 0x1618 SWAP1 PUSH2 0x4CF3 JUMP JUMPDEST DUP1 ISZERO PUSH2 0x1663 JUMPI DUP1 PUSH1 0x1F LT PUSH2 0x163A JUMPI PUSH2 0x100 DUP1 DUP4 SLOAD DIV MUL DUP4 MSTORE SWAP2 PUSH1 0x20 ADD SWAP2 PUSH2 0x1663 JUMP JUMPDEST DUP3 ADD SWAP2 SWAP1 PUSH0 MSTORE PUSH1 0x20 PUSH0 KECCAK256 SWAP1 JUMPDEST DUP2 SLOAD DUP2 MSTORE SWAP1 PUSH1 0x1 ADD SWAP1 PUSH1 0x20 ADD DUP1 DUP4 GT PUSH2 0x1646 JUMPI DUP3 SWAP1 SUB PUSH1 0x1F AND DUP3 ADD SWAP2 JUMPDEST POP POP POP POP POP SWAP1 DUP1 PUSH1 0x1 ADD DUP1 SLOAD PUSH2 0x1678 SWAP1 PUSH2 0x4CF3 JUMP JUMPDEST DUP1 PUSH1 0x1F ADD PUSH1 0x20 DUP1 SWAP2 DIV MUL PUSH1 0x20 ADD PUSH1 0x40 MLOAD SWAP1 DUP2 ADD PUSH1 0x40 MSTORE DUP1 SWAP3 SWAP2 SWAP1 DUP2 DUP2 MSTORE PUSH1 0x20 ADD DUP3 DUP1 SLOAD PUSH2 0x16A4 SWAP1 PUSH2 0x4CF3 JUMP JUMPDEST DUP1 ISZERO PUSH2 0x16EF JUMPI DUP1 PUSH1 0x1F LT PUSH2 0x16C6 JUMPI PUSH2 0x100 DUP1 DUP4 SLOAD DIV MUL DUP4 MSTORE SWAP2 PUSH1 0x20 ADD SWAP2 PUSH2 0x16EF JUMP JUMPDEST DUP3 ADD SWAP2 SWAP1 PUSH0 MSTORE PUSH1 0x20 PUSH0 KECCAK256 SWAP1 JUMPDEST DUP2 SLOAD DUP2 MSTORE SWAP1 PUSH1 0x1 ADD SWAP1 PUSH1 0x20 ADD DUP1 DUP4 GT PUSH2 0x16D2 JUMPI DUP3 SWAP1 SUB PUSH1 0x1F AND DUP3 ADD SWAP2 JUMPDEST POP POP POP POP POP SWAP1 DUP1 PUSH1 0x2 ADD PUSH0 SWAP1 SLOAD SWAP1 PUSH2 0x100 EXP SWAP1 DIV PUSH20 0xFFFFFFFFFFFFFFFFFFFFFFFFFFFFFFFFFFFFFFFF AND SWAP1 DUP1 PUSH1 0x5 ADD DUP1 SLOAD PUSH2 0x1729 SWAP1 PUSH2 0x4CF3 JUMP JUMPDEST DUP1 PUSH1 0x1F ADD PUSH1 0x20 DUP1 SWAP2 DIV MUL PUSH1 0x20 ADD PUSH1 0x40 MLOAD SWAP1 DUP2 ADD PUSH1 0x40 MSTORE DUP1 SWAP3 SWAP2 SWAP1 DUP2 DUP2 MSTORE PUSH1 0x20 ADD DUP3 DUP1 SLOAD PUSH2 0x1755 SWAP1 PUSH2 0x4CF3 JUMP JUMPDEST DUP1 ISZERO PUSH2 0x17A0 JUMPI DUP1 PUSH1 0x1F LT PUSH2 0x1777 JUMPI PUSH2 0x100 DUP1 DUP4 SLOAD DIV MUL DUP4 MSTORE SWAP2 PUSH1 0x20 ADD SWAP2 PUSH2 0x17A0 JUMP JUMPDEST DUP3 ADD SWAP2 SWAP1 PUSH0 MSTORE PUSH1 0x20 PUSH0 KECCAK256 SWAP1 JUMPDEST DUP2 SLOAD DUP2 MSTORE SWAP1 PUSH1 0x1 ADD SWAP1 PUSH1 0x20 ADD DUP1 DUP4 GT PUSH2 0x1783 JUMPI DUP3 SWAP1 SUB PUSH1 0x1F AND DUP3 ADD SWAP2 JUMPDEST POP POP POP POP POP SWAP1 POP DUP5 JUMP JUMPDEST CALLER PUSH20 0xFFFFFFFFFFFFFFFFFFFFFFFFFFFFFFFFFFFFFFFF AND PUSH1 0x3 PUSH0 CALLER PUSH20 0xFFFFFFFFFFFFFFFFFFFFFFFFFFFFFFFFFFFFFFFF AND PUSH20 0xFFFFFFFFFFFFFFFFFFFFFFFFFFFFFFFFFFFFFFFF AND DUP2 MSTORE PUSH1 0x20 ADD SWAP1 DUP2 MSTORE PUSH1 0x20 ADD PUSH0 KECCAK256 PUSH1 0x2 ADD PUSH0 SWAP1 SLOAD SWAP1 PUSH2 0x100 EXP SWAP1 DIV PUSH20 0xFFFFFFFFFFFFFFFFFFFFFFFFFFFFFFFFFFFFFFFF AND PUSH20 0xFFFFFFFFFFFFFFFFFFFFFFFFFFFFFFFFFFFFFFFF AND EQ PUSH2 0x1840 JUMPI PUSH0 DUP1 REVERT JUMPDEST PUSH0 PUSH20 0xFFFFFFFFFFFFFFFFFFFFFFFFFFFFFFFFFFFFFFFF AND PUSH1 0x1 DUP6 PUSH1 0x40 MLOAD PUSH2 0x1867 SWAP2 SWAP1 PUSH2 0x4CB0 JUMP JUMPDEST SWAP1 DUP2 MSTORE PUSH1 0x20 ADD PUSH1 0x40 MLOAD DUP1 SWAP2 SUB SWAP1 KECCAK256 PUSH1 0x3 ADD PUSH0 SWAP1 SLOAD SWAP1 PUSH2 0x100 EXP SWAP1 DIV PUSH20 0xFFFFFFFFFFFFFFFFFFFFFFFFFFFFFFFFFFFFFFFF AND PUSH20 0xFFFFFFFFFFFFFFFFFFFFFFFFFFFFFFFFFFFFFFFF AND SUB PUSH2 0x18B7 JUMPI PUSH0 DUP1 REVERT JUMPDEST PUSH1 0x2 DUP5 PUSH1 0x40 MLOAD PUSH2 0x18C7 SWAP2 SWAP1 PUSH2 0x4CB0 JUMP JUMPDEST SWAP1 DUP2 MSTORE PUSH1 0x20 ADD PUSH1 0x40 MLOAD DUP1 SWAP2 SUB SWAP1 KECCAK256 DUP4 PUSH1 0x40 MLOAD PUSH2 0x18E3 SWAP2 SWAP1 PUSH2 0x4CB0 JUMP JUMPDEST SWAP1 DUP2 MSTORE PUSH1 0x20 ADD PUSH1 0x40 MLOAD DUP1 SWAP2 SUB SWAP1 KECCAK256 PUSH1 0x4 ADD PUSH0 SWAP1 SLOAD SWAP1 PUSH2 0x100 EXP SWAP1 DIV PUSH1 0xFF AND PUSH2 0x1909 JUMPI PUSH0 DUP1 REVERT JUMPDEST PUSH0 DUP1 PUSH1 0x60 PUSH0 PUSH1 0x1 DUP9 PUSH1 0x40 MLOAD PUSH2 0x191E SWAP2 SWAP1 PUSH2 0x4CB0 JUMP JUMPDEST SWAP1 DUP2 MSTORE PUSH1 0x20 ADD PUSH1 0x40 MLOAD DUP1 SWAP2 SUB SWAP1 KECCAK256 SWAP1 POP DUP6 ISZERO PUSH2 0x1A46 JUMPI PUSH0 PUSH2 0x193E CALLER PUSH2 0x311B JUMP JUMPDEST SWAP1 POP PUSH0 PUSH1 0xB SLOAD PUSH1 0x2 PUSH2 0x1950 SWAP2 SWAP1 PUSH2 0x5052 JUMP JUMPDEST PUSH8 0xDE0B6B3A7640000 PUSH1 0x2 DUP13 PUSH1 0x40 MLOAD PUSH2 0x1969 SWAP2 SWAP1 PUSH2 0x4CB0 JUMP JUMPDEST SWAP1 DUP2 MSTORE PUSH1 0x20 ADD PUSH1 0x40 MLOAD DUP1 SWAP2 SUB SWAP1 KECCAK256 DUP12 PUSH1 0x40 MLOAD PUSH2 0x1985 SWAP2 SWAP1 PUSH2 0x4CB0 JUMP JUMPDEST SWAP1 DUP2 MSTORE PUSH1 0x20 ADD PUSH1 0x40 MLOAD DUP1 SWAP2 SUB SWAP1 KECCAK256 PUSH1 0x3 ADD SLOAD PUSH2 0x19A1 SWAP2 SWAP1 PUSH2 0x5052 JUMP JUMPDEST PUSH2 0x19AB SWAP2 SWAP1 PUSH2 0x52DF JUMP JUMPDEST SWAP1 POP DUP1 DUP3 LT ISZERO PUSH2 0x19D0 JUMPI PUSH8 0xDE0B6B3A7640000 DUP3 PUSH2 0x19C9 SWAP2 SWAP1 PUSH2 0x52DF JUMP JUMPDEST SWAP5 POP PUSH2 0x19E7 JUMP JUMPDEST PUSH8 0xDE0B6B3A7640000 DUP2 PUSH2 0x19E4 SWAP2 SWAP1 PUSH2 0x52DF JUMP JUMPDEST SWAP5 POP JUMPDEST PUSH1 0xB SLOAD DUP6 PUSH2 0x19F5 SWAP2 SWAP1 PUSH2 0x5052 JUMP JUMPDEST PUSH1 0x2 DUP12 PUSH1 0x40 MLOAD PUSH2 0x1A05 SWAP2 SWAP1 PUSH2 0x4CB0 JUMP JUMPDEST SWAP1 DUP2 MSTORE PUSH1 0x20 ADD PUSH1 0x40 MLOAD DUP1 SWAP2 SUB SWAP1 KECCAK256 DUP11 PUSH1 0x40 MLOAD PUSH2 0x1A21 SWAP2 SWAP1 PUSH2 0x4CB0 JUMP JUMPDEST SWAP1 DUP2 MSTORE PUSH1 0x20 ADD PUSH1 0x40 MLOAD DUP1 SWAP2 SUB SWAP1 KECCAK256 PUSH1 0x3 ADD SLOAD PUSH2 0x1A3D SWAP2 SWAP1 PUSH2 0x530F JUMP JUMPDEST SWAP6 POP POP POP PUSH2 0x1A8A JUMP JUMPDEST PUSH1 0x2 DUP9 PUSH1 0x40 MLOAD PUSH2 0x1A56 SWAP2 SWAP1 PUSH2 0x4CB0 JUMP JUMPDEST SWAP1 DUP2 MSTORE PUSH1 0x20 ADD PUSH1 0x40 MLOAD DUP1 SWAP2 SUB SWAP1 KECCAK256 DUP8 PUSH1 0x40 MLOAD PUSH2 0x1A72 SWAP2 SWAP1 PUSH2 0x4CB0 JUMP JUMPDEST SWAP1 DUP2 MSTORE PUSH1 0x20 ADD PUSH1 0x40 MLOAD DUP1 SWAP2 SUB SWAP1 KECCAK256 PUSH1 0x3 ADD SLOAD SWAP4 POP PUSH0 SWAP3 POP JUMPDEST PUSH1 0x1 ISZERO ISZERO PUSH1 0x9 PUSH1 0x3 PUSH0 CALLER PUSH20 0xFFFFFFFFFFFFFFFFFFFFFFFFFFFFFFFFFFFFFFFF AND PUSH20 0xFFFFFFFFFFFFFFFFFFFFFFFFFFFFFFFFFFFFFFFF AND DUP2 MSTORE PUSH1 0x20 ADD SWAP1 DUP2 MSTORE PUSH1 0x20 ADD PUSH0 KECCAK256 PUSH0 ADD PUSH1 0x40 MLOAD PUSH2 0x1ADC SWAP2 SWAP1 PUSH2 0x4DB5 JUMP JUMPDEST SWAP1 DUP2 MSTORE PUSH1 0x20 ADD PUSH1 0x40 MLOAD DUP1 SWAP2 SUB SWAP1 KECCAK256 DUP7 PUSH1 0x40 MLOAD PUSH2 0x1AF8 SWAP2 SWAP1 PUSH2 0x4CB0 JUMP JUMPDEST SWAP1 DUP2 MSTORE PUSH1 0x20 ADD PUSH1 0x40 MLOAD DUP1 SWAP2 SUB SWAP1 KECCAK256 PUSH0 SWAP1 SLOAD SWAP1 PUSH2 0x100 EXP SWAP1 DIV PUSH1 0xFF AND ISZERO ISZERO SUB PUSH2 0x1D09 JUMPI PUSH0 PUSH1 0x6 PUSH1 0x7 DUP8 PUSH1 0x40 MLOAD PUSH2 0x1B2D SWAP2 SWAP1 PUSH2 0x4CB0 JUMP JUMPDEST SWAP1 DUP2 MSTORE PUSH1 0x20 ADD PUSH1 0x40 MLOAD DUP1 SWAP2 SUB SWAP1 KECCAK256 PUSH1 0x40 MLOAD PUSH2 0x1B48 SWAP2 SWAP1 PUSH2 0x4DB5 JUMP JUMPDEST SWAP1 DUP2 MSTORE PUSH1 0x20 ADD PUSH1 0x40 MLOAD DUP1 SWAP2 SUB SWAP1 KECCAK256 PUSH1 0x40 MLOAD DUP1 PUSH1 0xA0 ADD PUSH1 0x40 MSTORE SWAP1 DUP2 PUSH0 DUP3 ADD DUP1 SLOAD PUSH2 0x1B70 SWAP1 PUSH2 0x4CF3 JUMP JUMPDEST DUP1 PUSH1 0x1F ADD PUSH1 0x20 DUP1 SWAP2 DIV MUL PUSH1 0x20 ADD PUSH1 0x40 MLOAD SWAP1 DUP2 ADD PUSH1 0x40 MSTORE DUP1 SWAP3 SWAP2 SWAP1 DUP2 DUP2 MSTORE PUSH1 0x20 ADD DUP3 DUP1 SLOAD PUSH2 0x1B9C SWAP1 PUSH2 0x4CF3 JUMP JUMPDEST DUP1 ISZERO PUSH2 0x1BE7 JUMPI DUP1 PUSH1 0x1F LT PUSH2 0x1BBE JUMPI PUSH2 0x100 DUP1 DUP4 SLOAD DIV MUL DUP4 MSTORE SWAP2 PUSH1 0x20 ADD SWAP2 PUSH2 0x1BE7 JUMP JUMPDEST DUP3 ADD SWAP2 SWAP1 PUSH0 MSTORE PUSH1 0x20 PUSH0 KECCAK256 SWAP1 JUMPDEST DUP2 SLOAD DUP2 MSTORE SWAP1 PUSH1 0x1 ADD SWAP1 PUSH1 0x20 ADD DUP1 DUP4 GT PUSH2 0x1BCA JUMPI DUP3 SWAP1 SUB PUSH1 0x1F AND DUP3 ADD SWAP2 JUMPDEST POP POP POP POP POP DUP2 MSTORE PUSH1 0x20 ADD PUSH1 0x1 DUP3 ADD DUP1 SLOAD PUSH2 0x1C00 SWAP1 PUSH2 0x4CF3 JUMP JUMPDEST DUP1 PUSH1 0x1F ADD PUSH1 0x20 DUP1 SWAP2 DIV MUL PUSH1 0x20 ADD PUSH1 0x40 MLOAD SWAP1 DUP2 ADD PUSH1 0x40 MSTORE DUP1 SWAP3 SWAP2 SWAP1 DUP2 DUP2 MSTORE PUSH1 0x20 ADD DUP3 DUP1 SLOAD PUSH2 0x1C2C SWAP1 PUSH2 0x4CF3 JUMP JUMPDEST DUP1 ISZERO PUSH2 0x1C77 JUMPI DUP1 PUSH1 0x1F LT PUSH2 0x1C4E JUMPI PUSH2 0x100 DUP1 DUP4 SLOAD DIV MUL DUP4 MSTORE SWAP2 PUSH1 0x20 ADD SWAP2 PUSH2 0x1C77 JUMP JUMPDEST DUP3 ADD SWAP2 SWAP1 PUSH0 MSTORE PUSH1 0x20 PUSH0 KECCAK256 SWAP1 JUMPDEST DUP2 SLOAD DUP2 MSTORE SWAP1 PUSH1 0x1 ADD SWAP1 PUSH1 0x20 ADD DUP1 DUP4 GT PUSH2 0x1C5A JUMPI DUP3 SWAP1 SUB PUSH1 0x1F AND DUP3 ADD SWAP2 JUMPDEST POP POP POP POP POP DUP2 MSTORE PUSH1 0x20 ADD PUSH1 0x2 DUP3 ADD SLOAD DUP2 MSTORE PUSH1 0x20 ADD PUSH1 0x3 DUP3 ADD SLOAD DUP2 MSTORE PUSH1 0x20 ADD PUSH1 0x4 DUP3 ADD SLOAD DUP2 MSTORE POP POP SWAP1 POP DUP1 PUSH1 0x60 ADD MLOAD PUSH1 0x64 DUP7 DUP4 PUSH1 0x40 ADD MLOAD PUSH2 0x1CB7 SWAP2 SWAP1 PUSH2 0x5052 JUMP JUMPDEST PUSH2 0x1CC1 SWAP2 SWAP1 PUSH2 0x52DF JUMP JUMPDEST GT PUSH2 0x1CF4 JUMPI PUSH1 0x64 DUP6 DUP3 PUSH1 0x40 ADD MLOAD PUSH2 0x1CD8 SWAP2 SWAP1 PUSH2 0x5052 JUMP JUMPDEST PUSH2 0x1CE2 SWAP2 SWAP1 PUSH2 0x52DF JUMP JUMPDEST DUP6 PUSH2 0x1CED SWAP2 SWAP1 PUSH2 0x530F JUMP JUMPDEST SWAP5 POP PUSH2 0x1D07 JUMP JUMPDEST DUP1 PUSH1 0x60 ADD MLOAD DUP6 PUSH2 0x1D04 SWAP2 SWAP1 PUSH2 0x530F JUMP JUMPDEST SWAP5 POP JUMPDEST POP JUMPDEST DUP4 CALLVALUE EQ PUSH2 0x1D14 JUMPI PUSH0 DUP1 REVERT JUMPDEST PUSH1 0x1 ISZERO ISZERO PUSH1 0x9 PUSH1 0x3 PUSH0 CALLER PUSH20 0xFFFFFFFFFFFFFFFFFFFFFFFFFFFFFFFFFFFFFFFF AND PUSH20 0xFFFFFFFFFFFFFFFFFFFFFFFFFFFFFFFFFFFFFFFF AND DUP2 MSTORE PUSH1 0x20 ADD SWAP1 DUP2 MSTORE PUSH1 0x20 ADD PUSH0 KECCAK256 PUSH0 ADD PUSH1 0x40 MLOAD PUSH2 0x1D66 SWAP2 SWAP1 PUSH2 0x4DB5 JUMP JUMPDEST SWAP1 DUP2 MSTORE PUSH1 0x20 ADD PUSH1 0x40 MLOAD DUP1 SWAP2 SUB SWAP1 KECCAK256 DUP7 PUSH1 0x40 MLOAD PUSH2 0x1D82 SWAP2 SWAP1 PUSH2 0x4CB0 JUMP JUMPDEST SWAP1 DUP2 MSTORE PUSH1 0x20 ADD PUSH1 0x40 MLOAD DUP1 SWAP2 SUB SWAP1 KECCAK256 PUSH0 SWAP1 SLOAD SWAP1 PUSH2 0x100 EXP SWAP1 DIV PUSH1 0xFF AND ISZERO ISZERO SUB PUSH2 0x1EFA JUMPI PUSH0 PUSH1 0x9 PUSH1 0x3 PUSH0 CALLER PUSH20 0xFFFFFFFFFFFFFFFFFFFFFFFFFFFFFFFFFFFFFFFF AND PUSH20 0xFFFFFFFFFFFFFFFFFFFFFFFFFFFFFFFFFFFFFFFF AND DUP2 MSTORE PUSH1 0x20 ADD SWAP1 DUP2 MSTORE PUSH1 0x20 ADD PUSH0 KECCAK256 PUSH0 ADD PUSH1 0x40 MLOAD PUSH2 0x1DF3 SWAP2 SWAP1 PUSH2 0x4DB5 JUMP JUMPDEST SWAP1 DUP2 MSTORE PUSH1 0x20 ADD PUSH1 0x40 MLOAD DUP1 SWAP2 SUB SWAP1 KECCAK256 DUP7 PUSH1 0x40 MLOAD PUSH2 0x1E0F SWAP2 SWAP1 PUSH2 0x4CB0 JUMP JUMPDEST SWAP1 DUP2 MSTORE PUSH1 0x20 ADD PUSH1 0x40 MLOAD DUP1 SWAP2 SUB SWAP1 KECCAK256 PUSH0 PUSH2 0x100 EXP DUP2 SLOAD DUP2 PUSH1 0xFF MUL NOT AND SWAP1 DUP4 ISZERO ISZERO MUL OR SWAP1 SSTORE POP PUSH1 0x6 PUSH1 0x7 DUP7 PUSH1 0x40 MLOAD PUSH2 0x1E45 SWAP2 SWAP1 PUSH2 0x4CB0 JUMP JUMPDEST SWAP1 DUP2 MSTORE PUSH1 0x20 ADD PUSH1 0x40 MLOAD DUP1 SWAP2 SUB SWAP1 KECCAK256 PUSH1 0x40 MLOAD PUSH2 0x1E60 SWAP2 SWAP1 PUSH2 0x4DB5 JUMP JUMPDEST SWAP1 DUP2 MSTORE PUSH1 0x20 ADD PUSH1 0x40 MLOAD DUP1 SWAP2 SUB SWAP1 KECCAK256 PUSH0 ADD DUP1 SLOAD PUSH2 0x1E7B SWAP1 PUSH2 0x4CF3 JUMP JUMPDEST DUP1 PUSH1 0x1F ADD PUSH1 0x20 DUP1 SWAP2 DIV MUL PUSH1 0x20 ADD PUSH1 0x40 MLOAD SWAP1 DUP2 ADD PUSH1 0x40 MSTORE DUP1 SWAP3 SWAP2 SWAP1 DUP2 DUP2 MSTORE PUSH1 0x20 ADD DUP3 DUP1 SLOAD PUSH2 0x1EA7 SWAP1 PUSH2 0x4CF3 JUMP JUMPDEST DUP1 ISZERO PUSH2 0x1EF2 JUMPI DUP1 PUSH1 0x1F LT PUSH2 0x1EC9 JUMPI PUSH2 0x100 DUP1 DUP4 SLOAD DIV MUL DUP4 MSTORE SWAP2 PUSH1 0x20 ADD SWAP2 PUSH2 0x1EF2 JUMP JUMPDEST DUP3 ADD SWAP2 SWAP1 PUSH0 MSTORE PUSH1 0x20 PUSH0 KECCAK256 SWAP1 JUMPDEST DUP2 SLOAD DUP2 MSTORE SWAP1 PUSH1 0x1 ADD SWAP1 PUSH1 0x20 ADD DUP1 DUP4 GT PUSH2 0x1ED5 JUMPI DUP3 SWAP1 SUB PUSH1 0x1F AND DUP3 ADD SWAP2 JUMPDEST POP POP POP POP POP SWAP2 POP JUMPDEST PUSH0 PUSH1 0xA DUP6 PUSH2 0x1F08 SWAP2 SWAP1 PUSH2 0x52DF JUMP JUMPDEST SWAP1 POP DUP2 PUSH1 0x3 ADD PUSH0 SWAP1 SLOAD SWAP1 PUSH2 0x100 EXP SWAP1 DIV PUSH20 0xFFFFFFFFFFFFFFFFFFFFFFFFFFFFFFFFFFFFFFFF AND PUSH20 0xFFFFFFFFFFFFFFFFFFFFFFFFFFFFFFFFFFFFFFFF AND PUSH2 0x8FC DUP3 CALLVALUE PUSH2 0x1F53 SWAP2 SWAP1 PUSH2 0x530F JUMP JUMPDEST SWAP1 DUP2 ISZERO MUL SWAP1 PUSH1 0x40 MLOAD PUSH0 PUSH1 0x40 MLOAD DUP1 DUP4 SUB DUP2 DUP6 DUP9 DUP9 CALL SWAP4 POP POP POP POP ISZERO DUP1 ISZERO PUSH2 0x1F7B JUMPI RETURNDATASIZE PUSH0 DUP1 RETURNDATACOPY RETURNDATASIZE PUSH0 REVERT JUMPDEST POP DUP5 PUSH1 0x4 PUSH1 0x3 PUSH0 CALLER PUSH20 0xFFFFFFFFFFFFFFFFFFFFFFFFFFFFFFFFFFFFFFFF AND PUSH20 0xFFFFFFFFFFFFFFFFFFFFFFFFFFFFFFFFFFFFFFFF AND DUP2 MSTORE PUSH1 0x20 ADD SWAP1 DUP2 MSTORE PUSH1 0x20 ADD PUSH0 KECCAK256 PUSH0 ADD PUSH1 0x40 MLOAD PUSH2 0x1FCB SWAP2 SWAP1 PUSH2 0x4DB5 JUMP JUMPDEST SWAP1 DUP2 MSTORE PUSH1 0x20 ADD PUSH1 0x40 MLOAD DUP1 SWAP2 SUB SWAP1 KECCAK256 DUP11 PUSH1 0x40 MLOAD PUSH2 0x1FE7 SWAP2 SWAP1 PUSH2 0x4CB0 JUMP JUMPDEST SWAP1 DUP2 MSTORE PUSH1 0x20 ADD PUSH1 0x40 MLOAD DUP1 SWAP2 SUB SWAP1 KECCAK256 PUSH0 DUP3 DUP3 SLOAD PUSH2 0x2003 SWAP2 SWAP1 PUSH2 0x5258 JUMP JUMPDEST SWAP3 POP POP DUP2 SWAP1 SSTORE POP PUSH0 PUSH1 0x40 MLOAD DUP1 PUSH1 0xE0 ADD PUSH1 0x40 MSTORE DUP1 PUSH2 0x208B PUSH1 0x3 PUSH0 CALLER PUSH20 0xFFFFFFFFFFFFFFFFFFFFFFFFFFFFFFFFFFFFFFFF AND PUSH20 0xFFFFFFFFFFFFFFFFFFFFFFFFFFFFFFFFFFFFFFFF AND DUP2 MSTORE PUSH1 0x20 ADD SWAP1 DUP2 MSTORE PUSH1 0x20 ADD PUSH0 KECCAK256 PUSH0 ADD DUP13 TIMESTAMP PUSH1 0x40 MLOAD PUSH1 0x20 ADD PUSH2 0x206C SWAP4 SWAP3 SWAP2 SWAP1 PUSH2 0x5362 JUMP JUMPDEST PUSH1 0x40 MLOAD PUSH1 0x20 DUP2 DUP4 SUB SUB DUP2 MSTORE SWAP1 PUSH1 0x40 MSTORE DUP1 MLOAD SWAP1 PUSH1 0x20 ADD KECCAK256 PUSH0 SHR PUSH1 0x20 PUSH2 0x3B14 JUMP JUMPDEST DUP2 MSTORE PUSH1 0x20 ADD DUP12 DUP2 MSTORE PUSH1 0x20 ADD DUP11 DUP2 MSTORE PUSH1 0x20 ADD PUSH1 0x3 PUSH0 CALLER PUSH20 0xFFFFFFFFFFFFFFFFFFFFFFFFFFFFFFFFFFFFFFFF AND PUSH20 0xFFFFFFFFFFFFFFFFFFFFFFFFFFFFFFFFFFFFFFFF AND DUP2 MSTORE PUSH1 0x20 ADD SWAP1 DUP2 MSTORE PUSH1 0x20 ADD PUSH0 KECCAK256 PUSH0 ADD DUP1 SLOAD PUSH2 0x20E6 SWAP1 PUSH2 0x4CF3 JUMP JUMPDEST DUP1 PUSH1 0x1F ADD PUSH1 0x20 DUP1 SWAP2 DIV MUL PUSH1 0x20 ADD PUSH1 0x40 MLOAD SWAP1 DUP2 ADD PUSH1 0x40 MSTORE DUP1 SWAP3 SWAP2 SWAP1 DUP2 DUP2 MSTORE PUSH1 0x20 ADD DUP3 DUP1 SLOAD PUSH2 0x2112 SWAP1 PUSH2 0x4CF3 JUMP JUMPDEST DUP1 ISZERO PUSH2 0x215D JUMPI DUP1 PUSH1 0x1F LT PUSH2 0x2134 JUMPI PUSH2 0x100 DUP1 DUP4 SLOAD DIV MUL DUP4 MSTORE SWAP2 PUSH1 0x20 ADD SWAP2 PUSH2 0x215D JUMP JUMPDEST DUP3 ADD SWAP2 SWAP1 PUSH0 MSTORE PUSH1 0x20 PUSH0 KECCAK256 SWAP1 JUMPDEST DUP2 SLOAD DUP2 MSTORE SWAP1 PUSH1 0x1 ADD SWAP1 PUSH1 0x20 ADD DUP1 DUP4 GT PUSH2 0x2140 JUMPI DUP3 SWAP1 SUB PUSH1 0x1F AND DUP3 ADD SWAP2 JUMPDEST POP POP POP POP POP DUP2 MSTORE PUSH1 0x20 ADD CALLVALUE DUP2 MSTORE PUSH1 0x20 ADD DUP7 DUP2 MSTORE PUSH1 0x20 ADD DUP6 DUP2 MSTORE POP SWAP1 POP PUSH1 0x3 PUSH0 CALLER PUSH20 0xFFFFFFFFFFFFFFFFFFFFFFFFFFFFFFFFFFFFFFFF AND PUSH20 0xFFFFFFFFFFFFFFFFFFFFFFFFFFFFFFFFFFFFFFFF AND DUP2 MSTORE PUSH1 0x20 ADD SWAP1 DUP2 MSTORE PUSH1 0x20 ADD PUSH0 KECCAK256 PUSH1 0x3 ADD DUP2 SWAP1 DUP1 PUSH1 0x1 DUP2 SLOAD ADD DUP1 DUP3 SSTORE DUP1 SWAP2 POP POP PUSH1 0x1 SWAP1 SUB SWAP1 PUSH0 MSTORE PUSH1 0x20 PUSH0 KECCAK256 SWAP1 PUSH1 0x7 MUL ADD PUSH0 SWAP1 SWAP2 SWAP1 SWAP2 SWAP1 SWAP2 POP PUSH0 DUP3 ADD MLOAD DUP2 PUSH0 ADD SWAP1 DUP2 PUSH2 0x21F3 SWAP2 SWAP1 PUSH2 0x4F56 JUMP JUMPDEST POP PUSH1 0x20 DUP3 ADD MLOAD DUP2 PUSH1 0x1 ADD SWAP1 DUP2 PUSH2 0x2209 SWAP2 SWAP1 PUSH2 0x4F56 JUMP JUMPDEST POP PUSH1 0x40 DUP3 ADD MLOAD DUP2 PUSH1 0x2 ADD SWAP1 DUP2 PUSH2 0x221F SWAP2 SWAP1 PUSH2 0x4F56 JUMP JUMPDEST POP PUSH1 0x60 DUP3 ADD MLOAD DUP2 PUSH1 0x3 ADD SWAP1 DUP2 PUSH2 0x2235 SWAP2 SWAP1 PUSH2 0x4F56 JUMP JUMPDEST POP PUSH1 0x80 DUP3 ADD MLOAD DUP2 PUSH1 0x4 ADD SSTORE PUSH1 0xA0 DUP3 ADD MLOAD DUP2 PUSH1 0x5 ADD SSTORE PUSH1 0xC0 DUP3 ADD MLOAD DUP2 PUSH1 0x6 ADD SWAP1 DUP2 PUSH2 0x225F SWAP2 SWAP1 PUSH2 0x4F56 JUMP JUMPDEST POP POP POP PUSH1 0xA PUSH0 SWAP1 SLOAD SWAP1 PUSH2 0x100 EXP SWAP1 DIV PUSH20 0xFFFFFFFFFFFFFFFFFFFFFFFFFFFFFFFFFFFFFFFF AND PUSH20 0xFFFFFFFFFFFFFFFFFFFFFFFFFFFFFFFFFFFFFFFF AND PUSH4 0x95EA7B3 CALLER PUSH8 0xDE0B6B3A7640000 DUP9 PUSH2 0x22B4 SWAP2 SWAP1 PUSH2 0x5052 JUMP JUMPDEST PUSH1 0x40 MLOAD DUP4 PUSH4 0xFFFFFFFF AND PUSH1 0xE0 SHL DUP2 MSTORE PUSH1 0x4 ADD PUSH2 0x22D1 SWAP3 SWAP2 SWAP1 PUSH2 0x5093 JUMP JUMPDEST PUSH1 0x20 PUSH1 0x40 MLOAD DUP1 DUP4 SUB DUP2 PUSH0 DUP8 GAS CALL ISZERO DUP1 ISZERO PUSH2 0x22ED JUMPI RETURNDATASIZE PUSH0 DUP1 RETURNDATACOPY RETURNDATASIZE PUSH0 REVERT JUMPDEST POP POP POP POP PUSH1 0x40 MLOAD RETURNDATASIZE PUSH1 0x1F NOT PUSH1 0x1F DUP3 ADD AND DUP3 ADD DUP1 PUSH1 0x40 MSTORE POP DUP2 ADD SWAP1 PUSH2 0x2311 SWAP2 SWAP1 PUSH2 0x50CE JUMP JUMPDEST POP PUSH1 0xA PUSH0 SWAP1 SLOAD SWAP1 PUSH2 0x100 EXP SWAP1 DIV PUSH20 0xFFFFFFFFFFFFFFFFFFFFFFFFFFFFFFFFFFFFFFFF AND PUSH20 0xFFFFFFFFFFFFFFFFFFFFFFFFFFFFFFFFFFFFFFFF AND PUSH4 0x23B872DD CALLER DUP6 PUSH1 0x3 ADD PUSH0 SWAP1 SLOAD SWAP1 PUSH2 0x100 EXP SWAP1 DIV PUSH20 0xFFFFFFFFFFFFFFFFFFFFFFFFFFFFFFFFFFFFFFFF AND PUSH8 0xDE0B6B3A7640000 DUP10 PUSH2 0x2388 SWAP2 SWAP1 PUSH2 0x5052 JUMP JUMPDEST PUSH1 0x40 MLOAD DUP5 PUSH4 0xFFFFFFFF AND PUSH1 0xE0 SHL DUP2 MSTORE PUSH1 0x4 ADD PUSH2 0x23A6 SWAP4 SWAP3 SWAP2 SWAP1 PUSH2 0x514B JUMP JUMPDEST PUSH1 0x20 PUSH1 0x40 MLOAD DUP1 DUP4 SUB DUP2 PUSH0 DUP8 GAS CALL ISZERO DUP1 ISZERO PUSH2 0x23C2 JUMPI RETURNDATASIZE PUSH0 DUP1 RETURNDATACOPY RETURNDATASIZE PUSH0 REVERT JUMPDEST POP POP POP POP PUSH1 0x40 MLOAD RETURNDATASIZE PUSH1 0x1F NOT PUSH1 0x1F DUP3 ADD AND DUP3 ADD DUP1 PUSH1 0x40 MSTORE POP DUP2 ADD SWAP1 PUSH2 0x23E6 SWAP2 SWAP1 PUSH2 0x50CE JUMP JUMPDEST POP PUSH1 0x1 PUSH1 0x3 PUSH0 CALLER PUSH20 0xFFFFFFFFFFFFFFFFFFFFFFFFFFFFFFFFFFFFFFFF AND PUSH20 0xFFFFFFFFFFFFFFFFFFFFFFFFFFFFFFFFFFFFFFFF AND DUP2 MSTORE PUSH1 0x20 ADD SWAP1 DUP2 MSTORE PUSH1 0x20 ADD PUSH0 KECCAK256 PUSH1 0x3 ADD DUP1 SLOAD SWAP1 POP SUB PUSH2 0x2569 JUMPI PUSH1 0xA PUSH0 SWAP1 SLOAD SWAP1 PUSH2 0x100 EXP SWAP1 DIV PUSH20 0xFFFFFFFFFFFFFFFFFFFFFFFFFFFFFFFFFFFFFFFF AND PUSH20 0xFFFFFFFFFFFFFFFFFFFFFFFFFFFFFFFFFFFFFFFF AND PUSH4 0xA0712D68 PUSH9 0x56BC75E2D63100000 PUSH1 0x40 MLOAD DUP3 PUSH4 0xFFFFFFFF AND PUSH1 0xE0 SHL DUP2 MSTORE PUSH1 0x4 ADD PUSH2 0x2495 SWAP2 SWAP1 PUSH2 0x53CF JUMP JUMPDEST PUSH0 PUSH1 0x40 MLOAD DUP1 DUP4 SUB DUP2 PUSH0 DUP8 DUP1 EXTCODESIZE ISZERO DUP1 ISZERO PUSH2 0x24AC JUMPI PUSH0 DUP1 REVERT JUMPDEST POP GAS CALL ISZERO DUP1 ISZERO PUSH2 0x24BE JUMPI RETURNDATASIZE PUSH0 DUP1 RETURNDATACOPY RETURNDATASIZE PUSH0 REVERT JUMPDEST POP POP POP POP PUSH1 0xA PUSH0 SWAP1 SLOAD SWAP1 PUSH2 0x100 EXP SWAP1 DIV PUSH20 0xFFFFFFFFFFFFFFFFFFFFFFFFFFFFFFFFFFFFFFFF AND PUSH20 0xFFFFFFFFFFFFFFFFFFFFFFFFFFFFFFFFFFFFFFFF AND PUSH4 0xA9059CBB CALLER PUSH9 0x56BC75E2D63100000 PUSH1 0x40 MLOAD DUP4 PUSH4 0xFFFFFFFF AND PUSH1 0xE0 SHL DUP2 MSTORE PUSH1 0x4 ADD PUSH2 0x2527 SWAP3 SWAP2 SWAP1 PUSH2 0x53E8 JUMP JUMPDEST PUSH1 0x20 PUSH1 0x40 MLOAD DUP1 DUP4 SUB DUP2 PUSH0 DUP8 GAS CALL ISZERO DUP1 ISZERO PUSH2 0x2543 JUMPI RETURNDATASIZE PUSH0 DUP1 RETURNDATACOPY RETURNDATASIZE PUSH0 REVERT JUMPDEST POP POP POP POP PUSH1 0x40 MLOAD RETURNDATASIZE PUSH1 0x1F NOT PUSH1 0x1F DUP3 ADD AND DUP3 ADD DUP1 PUSH1 0x40 MSTORE POP DUP2 ADD SWAP1 PUSH2 0x2567 SWAP2 SWAP1 PUSH2 0x50CE JUMP JUMPDEST POP JUMPDEST PUSH0 PUSH1 0xB SLOAD PUSH1 0x5 PUSH2 0x2579 SWAP2 SWAP1 PUSH2 0x5052 JUMP JUMPDEST PUSH8 0xDE0B6B3A7640000 DUP9 PUSH2 0x258D SWAP2 SWAP1 PUSH2 0x5052 JUMP JUMPDEST PUSH2 0x2597 SWAP2 SWAP1 PUSH2 0x52DF JUMP JUMPDEST SWAP1 POP PUSH1 0xA PUSH0 SWAP1 SLOAD SWAP1 PUSH2 0x100 EXP SWAP1 DIV PUSH20 0xFFFFFFFFFFFFFFFFFFFFFFFFFFFFFFFFFFFFFFFF AND PUSH20 0xFFFFFFFFFFFFFFFFFFFFFFFFFFFFFFFFFFFFFFFF AND PUSH4 0xA0712D68 DUP3 PUSH1 0x40 MLOAD DUP3 PUSH4 0xFFFFFFFF AND PUSH1 0xE0 SHL DUP2 MSTORE PUSH1 0x4 ADD PUSH2 0x25F3 SWAP2 SWAP1 PUSH2 0x48A6 JUMP JUMPDEST PUSH0 PUSH1 0x40 MLOAD DUP1 DUP4 SUB DUP2 PUSH0 DUP8 DUP1 EXTCODESIZE ISZERO DUP1 ISZERO PUSH2 0x260A JUMPI PUSH0 DUP1 REVERT JUMPDEST POP GAS CALL ISZERO DUP1 ISZERO PUSH2 0x261C JUMPI RETURNDATASIZE PUSH0 DUP1 RETURNDATACOPY RETURNDATASIZE PUSH0 REVERT JUMPDEST POP POP POP POP PUSH1 0xA PUSH0 SWAP1 SLOAD SWAP1 PUSH2 0x100 EXP SWAP1 DIV PUSH20 0xFFFFFFFFFFFFFFFFFFFFFFFFFFFFFFFFFFFFFFFF AND PUSH20 0xFFFFFFFFFFFFFFFFFFFFFFFFFFFFFFFFFFFFFFFF AND PUSH4 0xA9059CBB CALLER DUP4 PUSH1 0x40 MLOAD DUP4 PUSH4 0xFFFFFFFF AND PUSH1 0xE0 SHL DUP2 MSTORE PUSH1 0x4 ADD PUSH2 0x267C SWAP3 SWAP2 SWAP1 PUSH2 0x5093 JUMP JUMPDEST PUSH1 0x20 PUSH1 0x40 MLOAD DUP1 DUP4 SUB DUP2 PUSH0 DUP8 GAS CALL ISZERO DUP1 ISZERO PUSH2 0x2698 JUMPI RETURNDATASIZE PUSH0 DUP1 RETURNDATACOPY RETURNDATASIZE PUSH0 REVERT JUMPDEST POP POP POP POP PUSH1 0x40 MLOAD RETURNDATASIZE PUSH1 0x1F NOT PUSH1 0x1F DUP3 ADD AND DUP3 ADD DUP1 PUSH1 0x40 MSTORE POP DUP2 ADD SWAP1 PUSH2 0x26BC SWAP2 SWAP1 PUSH2 0x50CE JUMP JUMPDEST POP PUSH0 PUSH1 0x4 PUSH1 0x3 PUSH0 CALLER PUSH20 0xFFFFFFFFFFFFFFFFFFFFFFFFFFFFFFFFFFFFFFFF AND PUSH20 0xFFFFFFFFFFFFFFFFFFFFFFFFFFFFFFFFFFFFFFFF AND DUP2 MSTORE PUSH1 0x20 ADD SWAP1 DUP2 MSTORE PUSH1 0x20 ADD PUSH0 KECCAK256 PUSH0 ADD PUSH1 0x40 MLOAD PUSH2 0x270C SWAP2 SWAP1 PUSH2 0x4DB5 JUMP JUMPDEST SWAP1 DUP2 MSTORE PUSH1 0x20 ADD PUSH1 0x40 MLOAD DUP1 SWAP2 SUB SWAP1 KECCAK256 DUP13 PUSH1 0x40 MLOAD PUSH2 0x2728 SWAP2 SWAP1 PUSH2 0x4CB0 JUMP JUMPDEST SWAP1 DUP2 MSTORE PUSH1 0x20 ADD PUSH1 0x40 MLOAD DUP1 SWAP2 SUB SWAP1 KECCAK256 SLOAD SWAP1 POP DUP5 PUSH1 0x6 ADD PUSH0 SWAP1 SLOAD SWAP1 PUSH2 0x100 EXP SWAP1 DIV PUSH1 0xFF AND DUP1 ISZERO PUSH2 0x2759 JUMPI POP PUSH0 DUP6 PUSH1 0x7 ADD SLOAD GT JUMPDEST ISZERO PUSH2 0x2AFF JUMPI PUSH0 JUMPDEST DUP6 PUSH1 0x9 ADD DUP1 SLOAD SWAP1 POP DUP2 LT ISZERO PUSH2 0x2AFD JUMPI DUP6 PUSH1 0x9 ADD DUP2 DUP2 SLOAD DUP2 LT PUSH2 0x2785 JUMPI PUSH2 0x2784 PUSH2 0x540F JUMP JUMPDEST JUMPDEST SWAP1 PUSH0 MSTORE PUSH1 0x20 PUSH0 KECCAK256 ADD PUSH0 DUP2 SLOAD DUP2 LT PUSH2 0x279F JUMPI PUSH2 0x279E PUSH2 0x540F JUMP JUMPDEST JUMPDEST SWAP1 PUSH0 MSTORE PUSH1 0x20 PUSH0 KECCAK256 ADD SLOAD DUP3 GT DUP1 ISZERO PUSH2 0x2832 JUMPI POP PUSH0 DUP7 PUSH1 0x9 ADD DUP3 DUP2 SLOAD DUP2 LT PUSH2 0x27C8 JUMPI PUSH2 0x27C7 PUSH2 0x540F JUMP JUMPDEST JUMPDEST SWAP1 PUSH0 MSTORE PUSH1 0x20 PUSH0 KECCAK256 ADD PUSH1 0x1 DUP2 SLOAD DUP2 LT PUSH2 0x27E3 JUMPI PUSH2 0x27E2 PUSH2 0x540F JUMP JUMPDEST JUMPDEST SWAP1 PUSH0 MSTORE PUSH1 0x20 PUSH0 KECCAK256 ADD SLOAD EQ DUP1 PUSH2 0x2831 JUMPI POP DUP6 PUSH1 0x9 ADD DUP2 DUP2 SLOAD DUP2 LT PUSH2 0x2809 JUMPI PUSH2 0x2808 PUSH2 0x540F JUMP JUMPDEST JUMPDEST SWAP1 PUSH0 MSTORE PUSH1 0x20 PUSH0 KECCAK256 ADD PUSH1 0x1 DUP2 SLOAD DUP2 LT PUSH2 0x2824 JUMPI PUSH2 0x2823 PUSH2 0x540F JUMP JUMPDEST JUMPDEST SWAP1 PUSH0 MSTORE PUSH1 0x20 PUSH0 KECCAK256 ADD SLOAD DUP3 GT ISZERO JUMPDEST JUMPDEST ISZERO PUSH2 0x2AEA JUMPI PUSH0 PUSH1 0xB SLOAD PUSH1 0x64 PUSH2 0x2847 SWAP2 SWAP1 PUSH2 0x5052 JUMP JUMPDEST PUSH8 0xDE0B6B3A7640000 DUP9 PUSH1 0x9 ADD DUP5 DUP2 SLOAD DUP2 LT PUSH2 0x2866 JUMPI PUSH2 0x2865 PUSH2 0x540F JUMP JUMPDEST JUMPDEST SWAP1 PUSH0 MSTORE PUSH1 0x20 PUSH0 KECCAK256 ADD PUSH1 0x2 DUP2 SLOAD DUP2 LT PUSH2 0x2881 JUMPI PUSH2 0x2880 PUSH2 0x540F JUMP JUMPDEST JUMPDEST SWAP1 PUSH0 MSTORE PUSH1 0x20 PUSH0 KECCAK256 ADD SLOAD DUP10 PUSH1 0x8 ADD SLOAD DUP14 PUSH2 0x289A SWAP2 SWAP1 PUSH2 0x5052 JUMP JUMPDEST PUSH2 0x28A4 SWAP2 SWAP1 PUSH2 0x5052 JUMP JUMPDEST PUSH2 0x28AE SWAP2 SWAP1 PUSH2 0x5052 JUMP JUMPDEST PUSH2 0x28B8 SWAP2 SWAP1 PUSH2 0x52DF JUMP JUMPDEST SWAP1 POP DUP1 DUP8 PUSH1 0x7 ADD SLOAD GT PUSH2 0x29EE JUMPI PUSH1 0xA PUSH0 SWAP1 SLOAD SWAP1 PUSH2 0x100 EXP SWAP1 DIV PUSH20 0xFFFFFFFFFFFFFFFFFFFFFFFFFFFFFFFFFFFFFFFF AND PUSH20 0xFFFFFFFFFFFFFFFFFFFFFFFFFFFFFFFFFFFFFFFF AND PUSH4 0x23B872DD DUP9 PUSH1 0x3 ADD PUSH0 SWAP1 SLOAD SWAP1 PUSH2 0x100 EXP SWAP1 DIV PUSH20 0xFFFFFFFFFFFFFFFFFFFFFFFFFFFFFFFFFFFFFFFF AND CALLER DUP11 PUSH1 0x7 ADD SLOAD PUSH1 0x40 MLOAD DUP5 PUSH4 0xFFFFFFFF AND PUSH1 0xE0 SHL DUP2 MSTORE PUSH1 0x4 ADD PUSH2 0x294A SWAP4 SWAP3 SWAP2 SWAP1 PUSH2 0x543C JUMP JUMPDEST PUSH1 0x20 PUSH1 0x40 MLOAD DUP1 DUP4 SUB DUP2 PUSH0 DUP8 GAS CALL ISZERO DUP1 ISZERO PUSH2 0x2966 JUMPI RETURNDATASIZE PUSH0 DUP1 RETURNDATACOPY RETURNDATASIZE PUSH0 REVERT JUMPDEST POP POP POP POP PUSH1 0x40 MLOAD RETURNDATASIZE PUSH1 0x1F NOT PUSH1 0x1F DUP3 ADD AND DUP3 ADD DUP1 PUSH1 0x40 MSTORE POP DUP2 ADD SWAP1 PUSH2 0x298A SWAP2 SWAP1 PUSH2 0x50CE JUMP JUMPDEST POP PUSH0 PUSH1 0x1 DUP16 PUSH1 0x40 MLOAD PUSH2 0x299C SWAP2 SWAP1 PUSH2 0x4CB0 JUMP JUMPDEST SWAP1 DUP2 MSTORE PUSH1 0x20 ADD PUSH1 0x40 MLOAD DUP1 SWAP2 SUB SWAP1 KECCAK256 PUSH1 0x7 ADD DUP2 SWAP1 SSTORE POP PUSH0 PUSH1 0x1 DUP16 PUSH1 0x40 MLOAD PUSH2 0x29C2 SWAP2 SWAP1 PUSH2 0x4CB0 JUMP JUMPDEST SWAP1 DUP2 MSTORE PUSH1 0x20 ADD PUSH1 0x40 MLOAD DUP1 SWAP2 SUB SWAP1 KECCAK256 PUSH1 0x6 ADD PUSH0 PUSH2 0x100 EXP DUP2 SLOAD DUP2 PUSH1 0xFF MUL NOT AND SWAP1 DUP4 ISZERO ISZERO MUL OR SWAP1 SSTORE POP PUSH2 0x2AE8 JUMP JUMPDEST PUSH1 0xA PUSH0 SWAP1 SLOAD SWAP1 PUSH2 0x100 EXP SWAP1 DIV PUSH20 0xFFFFFFFFFFFFFFFFFFFFFFFFFFFFFFFFFFFFFFFF AND PUSH20 0xFFFFFFFFFFFFFFFFFFFFFFFFFFFFFFFFFFFFFFFF AND PUSH4 0x23B872DD DUP9 PUSH1 0x3 ADD PUSH0 SWAP1 SLOAD SWAP1 PUSH2 0x100 EXP SWAP1 DIV PUSH20 0xFFFFFFFFFFFFFFFFFFFFFFFFFFFFFFFFFFFFFFFF AND CALLER DUP5 PUSH1 0x40 MLOAD DUP5 PUSH4 0xFFFFFFFF AND PUSH1 0xE0 SHL DUP2 MSTORE PUSH1 0x4 ADD PUSH2 0x2A6F SWAP4 SWAP3 SWAP2 SWAP1 PUSH2 0x543C JUMP JUMPDEST PUSH1 0x20 PUSH1 0x40 MLOAD DUP1 DUP4 SUB DUP2 PUSH0 DUP8 GAS CALL ISZERO DUP1 ISZERO PUSH2 0x2A8B JUMPI RETURNDATASIZE PUSH0 DUP1 RETURNDATACOPY RETURNDATASIZE PUSH0 REVERT JUMPDEST POP POP POP POP PUSH1 0x40 MLOAD RETURNDATASIZE PUSH1 0x1F NOT PUSH1 0x1F DUP3 ADD AND DUP3 ADD DUP1 PUSH1 0x40 MSTORE POP DUP2 ADD SWAP1 PUSH2 0x2AAF SWAP2 SWAP1 PUSH2 0x50CE JUMP JUMPDEST POP DUP1 PUSH1 0x1 DUP16 PUSH1 0x40 MLOAD PUSH2 0x2AC1 SWAP2 SWAP1 PUSH2 0x4CB0 JUMP JUMPDEST SWAP1 DUP2 MSTORE PUSH1 0x20 ADD PUSH1 0x40 MLOAD DUP1 SWAP2 SUB SWAP1 KECCAK256 PUSH1 0x7 ADD PUSH0 DUP3 DUP3 SLOAD PUSH2 0x2AE0 SWAP2 SWAP1 PUSH2 0x530F JUMP JUMPDEST SWAP3 POP POP DUP2 SWAP1 SSTORE POP JUMPDEST POP JUMPDEST DUP1 DUP1 PUSH2 0x2AF5 SWAP1 PUSH2 0x5471 JUMP JUMPDEST SWAP2 POP POP PUSH2 0x2760 JUMP JUMPDEST POP JUMPDEST POP POP POP POP POP POP POP POP POP POP POP POP JUMP JUMPDEST CALLER PUSH20 0xFFFFFFFFFFFFFFFFFFFFFFFFFFFFFFFFFFFFFFFF AND PUSH1 0x1 DUP3 PUSH1 0x40 MLOAD PUSH2 0x2B34 SWAP2 SWAP1 PUSH2 0x4CB0 JUMP JUMPDEST SWAP1 DUP2 MSTORE PUSH1 0x20 ADD PUSH1 0x40 MLOAD DUP1 SWAP2 SUB SWAP1 KECCAK256 PUSH1 0x3 ADD PUSH0 SWAP1 SLOAD SWAP1 PUSH2 0x100 EXP SWAP1 DIV PUSH20 0xFFFFFFFFFFFFFFFFFFFFFFFFFFFFFFFFFFFFFFFF AND PUSH20 0xFFFFFFFFFFFFFFFFFFFFFFFFFFFFFFFFFFFFFFFF AND EQ PUSH2 0x2B84 JUMPI PUSH0 DUP1 REVERT JUMPDEST PUSH0 PUSH1 0xB SLOAD PUSH8 0xDE0B6B3A7640000 CALLVALUE PUSH2 0x2B9C SWAP2 SWAP1 PUSH2 0x5052 JUMP JUMPDEST PUSH2 0x2BA6 SWAP2 SWAP1 PUSH2 0x52DF JUMP JUMPDEST SWAP1 POP PUSH1 0xA PUSH0 SWAP1 SLOAD SWAP1 PUSH2 0x100 EXP SWAP1 DIV PUSH20 0xFFFFFFFFFFFFFFFFFFFFFFFFFFFFFFFFFFFFFFFF AND PUSH20 0xFFFFFFFFFFFFFFFFFFFFFFFFFFFFFFFFFFFFFFFF AND PUSH4 0xA0712D68 DUP3 PUSH1 0x40 MLOAD DUP3 PUSH4 0xFFFFFFFF AND PUSH1 0xE0 SHL DUP2 MSTORE PUSH1 0x4 ADD PUSH2 0x2C02 SWAP2 SWAP1 PUSH2 0x48A6 JUMP JUMPDEST PUSH0 PUSH1 0x40 MLOAD DUP1 DUP4 SUB DUP2 PUSH0 DUP8 DUP1 EXTCODESIZE ISZERO DUP1 ISZERO PUSH2 0x2C19 JUMPI PUSH0 DUP1 REVERT JUMPDEST POP GAS CALL ISZERO DUP1 ISZERO PUSH2 0x2C2B JUMPI RETURNDATASIZE PUSH0 DUP1 RETURNDATACOPY RETURNDATASIZE PUSH0 REVERT JUMPDEST POP POP POP POP PUSH1 0xA PUSH0 SWAP1 SLOAD SWAP1 PUSH2 0x100 EXP SWAP1 DIV PUSH20 0xFFFFFFFFFFFFFFFFFFFFFFFFFFFFFFFFFFFFFFFF AND PUSH20 0xFFFFFFFFFFFFFFFFFFFFFFFFFFFFFFFFFFFFFFFF AND PUSH4 0xA9059CBB CALLER DUP4 PUSH1 0x40 MLOAD DUP4 PUSH4 0xFFFFFFFF AND PUSH1 0xE0 SHL DUP2 MSTORE PUSH1 0x4 ADD PUSH2 0x2C8B SWAP3 SWAP2 SWAP1 PUSH2 0x5093 JUMP JUMPDEST PUSH1 0x20 PUSH1 0x40 MLOAD DUP1 DUP4 SUB DUP2 PUSH0 DUP8 GAS CALL ISZERO DUP1 ISZERO PUSH2 0x2CA7 JUMPI RETURNDATASIZE PUSH0 DUP1 RETURNDATACOPY RETURNDATASIZE PUSH0 REVERT JUMPDEST POP POP POP POP PUSH1 0x40 MLOAD RETURNDATASIZE PUSH1 0x1F NOT PUSH1 0x1F DUP3 ADD AND DUP3 ADD DUP1 PUSH1 0x40 MSTORE POP DUP2 ADD SWAP1 PUSH2 0x2CCB SWAP2 SWAP1 PUSH2 0x50CE JUMP JUMPDEST POP POP POP JUMP JUMPDEST CALLER PUSH20 0xFFFFFFFFFFFFFFFFFFFFFFFFFFFFFFFFFFFFFFFF AND PUSH1 0x1 DUP6 PUSH1 0x40 MLOAD PUSH2 0x2CF7 SWAP2 SWAP1 PUSH2 0x4CB0 JUMP JUMPDEST SWAP1 DUP2 MSTORE PUSH1 0x20 ADD PUSH1 0x40 MLOAD DUP1 SWAP2 SUB SWAP1 KECCAK256 PUSH1 0x3 ADD PUSH0 SWAP1 SLOAD SWAP1 PUSH2 0x100 EXP SWAP1 DIV PUSH20 0xFFFFFFFFFFFFFFFFFFFFFFFFFFFFFFFFFFFFFFFF AND PUSH20 0xFFFFFFFFFFFFFFFFFFFFFFFFFFFFFFFFFFFFFFFF AND EQ PUSH2 0x2D47 JUMPI PUSH0 DUP1 REVERT JUMPDEST PUSH0 PUSH2 0x2D7F DUP5 CALLER TIMESTAMP PUSH1 0x40 MLOAD PUSH1 0x20 ADD PUSH2 0x2D60 SWAP4 SWAP3 SWAP2 SWAP1 PUSH2 0x54B8 JUMP JUMPDEST PUSH1 0x40 MLOAD PUSH1 0x20 DUP2 DUP4 SUB SUB DUP2 MSTORE SWAP1 PUSH1 0x40 MSTORE DUP1 MLOAD SWAP1 PUSH1 0x20 ADD KECCAK256 PUSH0 SHR PUSH1 0x20 PUSH2 0x3B14 JUMP JUMPDEST SWAP1 POP PUSH0 PUSH1 0x40 MLOAD DUP1 PUSH1 0xA0 ADD PUSH1 0x40 MSTORE DUP1 DUP4 DUP2 MSTORE PUSH1 0x20 ADD DUP7 DUP2 MSTORE PUSH1 0x20 ADD DUP6 DUP2 MSTORE PUSH1 0x20 ADD DUP5 DUP2 MSTORE PUSH1 0x20 ADD PUSH1 0x1 ISZERO ISZERO DUP2 MSTORE POP SWAP1 POP PUSH1 0x1 DUP7 PUSH1 0x40 MLOAD PUSH2 0x2DBE SWAP2 SWAP1 PUSH2 0x4CB0 JUMP JUMPDEST SWAP1 DUP2 MSTORE PUSH1 0x20 ADD PUSH1 0x40 MLOAD DUP1 SWAP2 SUB SWAP1 KECCAK256 PUSH1 0x4 ADD DUP2 SWAP1 DUP1 PUSH1 0x1 DUP2 SLOAD ADD DUP1 DUP3 SSTORE DUP1 SWAP2 POP POP PUSH1 0x1 SWAP1 SUB SWAP1 PUSH0 MSTORE PUSH1 0x20 PUSH0 KECCAK256 SWAP1 PUSH1 0x5 MUL ADD PUSH0 SWAP1 SWAP2 SWAP1 SWAP2 SWAP1 SWAP2 POP PUSH0 DUP3 ADD MLOAD DUP2 PUSH0 ADD SWAP1 DUP2 PUSH2 0x2E09 SWAP2 SWAP1 PUSH2 0x4F56 JUMP JUMPDEST POP PUSH1 0x20 DUP3 ADD MLOAD DUP2 PUSH1 0x1 ADD SWAP1 DUP2 PUSH2 0x2E1F SWAP2 SWAP1 PUSH2 0x4F56 JUMP JUMPDEST POP PUSH1 0x40 DUP3 ADD MLOAD DUP2 PUSH1 0x2 ADD SWAP1 DUP2 PUSH2 0x2E35 SWAP2 SWAP1 PUSH2 0x4F56 JUMP JUMPDEST POP PUSH1 0x60 DUP3 ADD MLOAD DUP2 PUSH1 0x3 ADD SSTORE PUSH1 0x80 DUP3 ADD MLOAD DUP2 PUSH1 0x4 ADD PUSH0 PUSH2 0x100 EXP DUP2 SLOAD DUP2 PUSH1 0xFF MUL NOT AND SWAP1 DUP4 ISZERO ISZERO MUL OR SWAP1 SSTORE POP POP POP DUP1 PUSH1 0x2 DUP8 PUSH1 0x40 MLOAD PUSH2 0x2E72 SWAP2 SWAP1 PUSH2 0x4CB0 JUMP JUMPDEST SWAP1 DUP2 MSTORE PUSH1 0x20 ADD PUSH1 0x40 MLOAD DUP1 SWAP2 SUB SWAP1 KECCAK256 DUP4 PUSH1 0x40 MLOAD PUSH2 0x2E8E SWAP2 SWAP1 PUSH2 0x4CB0 JUMP JUMPDEST SWAP1 DUP2 MSTORE PUSH1 0x20 ADD PUSH1 0x40 MLOAD DUP1 SWAP2 SUB SWAP1 KECCAK256 PUSH0 DUP3 ADD MLOAD DUP2 PUSH0 ADD SWAP1 DUP2 PUSH2 0x2EAF SWAP2 SWAP1 PUSH2 0x4F56 JUMP JUMPDEST POP PUSH1 0x20 DUP3 ADD MLOAD DUP2 PUSH1 0x1 ADD SWAP1 DUP2 PUSH2 0x2EC5 SWAP2 SWAP1 PUSH2 0x4F56 JUMP JUMPDEST POP PUSH1 0x40 DUP3 ADD MLOAD DUP2 PUSH1 0x2 ADD SWAP1 DUP2 PUSH2 0x2EDB SWAP2 SWAP1 PUSH2 0x4F56 JUMP JUMPDEST POP PUSH1 0x60 DUP3 ADD MLOAD DUP2 PUSH1 0x3 ADD SSTORE PUSH1 0x80 DUP3 ADD MLOAD DUP2 PUSH1 0x4 ADD PUSH0 PUSH2 0x100 EXP DUP2 SLOAD DUP2 PUSH1 0xFF MUL NOT AND SWAP1 DUP4 ISZERO ISZERO MUL OR SWAP1 SSTORE POP SWAP1 POP POP POP POP POP POP POP POP JUMP JUMPDEST PUSH1 0x2 DUP3 DUP1 MLOAD PUSH1 0x20 DUP2 ADD DUP3 ADD DUP1 MLOAD DUP5 DUP3 MSTORE PUSH1 0x20 DUP4 ADD PUSH1 0x20 DUP6 ADD KECCAK256 DUP2 DUP4 MSTORE DUP1 SWAP6 POP POP POP POP POP POP DUP2 DUP1 MLOAD PUSH1 0x20 DUP2 ADD DUP3 ADD DUP1 MLOAD DUP5 DUP3 MSTORE PUSH1 0x20 DUP4 ADD PUSH1 0x20 DUP6 ADD KECCAK256 DUP2 DUP4 MSTORE DUP1 SWAP6 POP POP POP POP POP POP PUSH0 SWAP2 POP SWAP2 POP POP DUP1 PUSH0 ADD DUP1 SLOAD PUSH2 0x2F6A SWAP1 PUSH2 0x4CF3 JUMP JUMPDEST DUP1 PUSH1 0x1F ADD PUSH1 0x20 DUP1 SWAP2 DIV MUL PUSH1 0x20 ADD PUSH1 0x40 MLOAD SWAP1 DUP2 ADD PUSH1 0x40 MSTORE DUP1 SWAP3 SWAP2 SWAP1 DUP2 DUP2 MSTORE PUSH1 0x20 ADD DUP3 DUP1 SLOAD PUSH2 0x2F96 SWAP1 PUSH2 0x4CF3 JUMP JUMPDEST DUP1 ISZERO PUSH2 0x2FE1 JUMPI DUP1 PUSH1 0x1F LT PUSH2 0x2FB8 JUMPI PUSH2 0x100 DUP1 DUP4 SLOAD DIV MUL DUP4 MSTORE SWAP2 PUSH1 0x20 ADD SWAP2 PUSH2 0x2FE1 JUMP JUMPDEST DUP3 ADD SWAP2 SWAP1 PUSH0 MSTORE PUSH1 0x20 PUSH0 KECCAK256 SWAP1 JUMPDEST DUP2 SLOAD DUP2 MSTORE SWAP1 PUSH1 0x1 ADD SWAP1 PUSH1 0x20 ADD DUP1 DUP4 GT PUSH2 0x2FC4 JUMPI DUP3 SWAP1 SUB PUSH1 0x1F AND DUP3 ADD SWAP2 JUMPDEST POP POP POP POP POP SWAP1 DUP1 PUSH1 0x1 ADD DUP1 SLOAD PUSH2 0x2FF6 SWAP1 PUSH2 0x4CF3 JUMP JUMPDEST DUP1 PUSH1 0x1F ADD PUSH1 0x20 DUP1 SWAP2 DIV MUL PUSH1 0x20 ADD PUSH1 0x40 MLOAD SWAP1 DUP2 ADD PUSH1 0x40 MSTORE DUP1 SWAP3 SWAP2 SWAP1 DUP2 DUP2 MSTORE PUSH1 0x20 ADD DUP3 DUP1 SLOAD PUSH2 0x3022 SWAP1 PUSH2 0x4CF3 JUMP JUMPDEST DUP1 ISZERO PUSH2 0x306D JUMPI DUP1 PUSH1 0x1F LT PUSH2 0x3044 JUMPI PUSH2 0x100 DUP1 DUP4 SLOAD DIV MUL DUP4 MSTORE SWAP2 PUSH1 0x20 ADD SWAP2 PUSH2 0x306D JUMP JUMPDEST DUP3 ADD SWAP2 SWAP1 PUSH0 MSTORE PUSH1 0x20 PUSH0 KECCAK256 SWAP1 JUMPDEST DUP2 SLOAD DUP2 MSTORE SWAP1 PUSH1 0x1 ADD SWAP1 PUSH1 0x20 ADD DUP1 DUP4 GT PUSH2 0x3050 JUMPI DUP3 SWAP1 SUB PUSH1 0x1F AND DUP3 ADD SWAP2 JUMPDEST POP POP POP POP POP SWAP1 DUP1 PUSH1 0x2 ADD DUP1 SLOAD PUSH2 0x3082 SWAP1 PUSH2 0x4CF3 JUMP JUMPDEST DUP1 PUSH1 0x1F ADD PUSH1 0x20 DUP1 SWAP2 DIV MUL PUSH1 0x20 ADD PUSH1 0x40 MLOAD SWAP1 DUP2 ADD PUSH1 0x40 MSTORE DUP1 SWAP3 SWAP2 SWAP1 DUP2 DUP2 MSTORE PUSH1 0x20 ADD DUP3 DUP1 SLOAD PUSH2 0x30AE SWAP1 PUSH2 0x4CF3 JUMP JUMPDEST DUP1 ISZERO PUSH2 0x30F9 JUMPI DUP1 PUSH1 0x1F LT PUSH2 0x30D0 JUMPI PUSH2 0x100 DUP1 DUP4 SLOAD DIV MUL DUP4 MSTORE SWAP2 PUSH1 0x20 ADD SWAP2 PUSH2 0x30F9 JUMP JUMPDEST DUP3 ADD SWAP2 SWAP1 PUSH0 MSTORE PUSH1 0x20 PUSH0 KECCAK256 SWAP1 JUMPDEST DUP2 SLOAD DUP2 MSTORE SWAP1 PUSH1 0x1 ADD SWAP1 PUSH1 0x20 ADD DUP1 DUP4 GT PUSH2 0x30DC JUMPI DUP3 SWAP1 SUB PUSH1 0x1F AND DUP3 ADD SWAP2 JUMPDEST POP POP POP POP POP SWAP1 DUP1 PUSH1 0x3 ADD SLOAD SWAP1 DUP1 PUSH1 0x4 ADD PUSH0 SWAP1 SLOAD SWAP1 PUSH2 0x100 EXP SWAP1 DIV PUSH1 0xFF AND SWAP1 POP DUP6 JUMP JUMPDEST PUSH0 PUSH1 0xA PUSH0 SWAP1 SLOAD SWAP1 PUSH2 0x100 EXP SWAP1 DIV PUSH20 0xFFFFFFFFFFFFFFFFFFFFFFFFFFFFFFFFFFFFFFFF AND PUSH20 0xFFFFFFFFFFFFFFFFFFFFFFFFFFFFFFFFFFFFFFFF AND PUSH4 0x70A08231 DUP4 PUSH1 0x40 MLOAD DUP3 PUSH4 0xFFFFFFFF AND PUSH1 0xE0 SHL DUP2 MSTORE PUSH1 0x4 ADD PUSH2 0x3176 SWAP2 SWAP1 PUSH2 0x54F0 JUMP JUMPDEST PUSH1 0x20 PUSH1 0x40 MLOAD DUP1 DUP4 SUB DUP2 DUP7 GAS STATICCALL ISZERO DUP1 ISZERO PUSH2 0x3191 JUMPI RETURNDATASIZE PUSH0 DUP1 RETURNDATACOPY RETURNDATASIZE PUSH0 REVERT JUMPDEST POP POP POP POP PUSH1 0x40 MLOAD RETURNDATASIZE PUSH1 0x1F NOT PUSH1 0x1F DUP3 ADD AND DUP3 ADD DUP1 PUSH1 0x40 MSTORE POP DUP2 ADD SWAP1 PUSH2 0x31B5 SWAP2 SWAP1 PUSH2 0x551D JUMP JUMPDEST SWAP1 POP SWAP2 SWAP1 POP JUMP JUMPDEST PUSH1 0x60 PUSH1 0x1 DUP3 PUSH1 0x40 MLOAD PUSH2 0x31CE SWAP2 SWAP1 PUSH2 0x4CB0 JUMP JUMPDEST SWAP1 DUP2 MSTORE PUSH1 0x20 ADD PUSH1 0x40 MLOAD DUP1 SWAP2 SUB SWAP1 KECCAK256 PUSH1 0x4 ADD DUP1 SLOAD DUP1 PUSH1 0x20 MUL PUSH1 0x20 ADD PUSH1 0x40 MLOAD SWAP1 DUP2 ADD PUSH1 0x40 MSTORE DUP1 SWAP3 SWAP2 SWAP1 DUP2 DUP2 MSTORE PUSH1 0x20 ADD PUSH0 SWAP1 JUMPDEST DUP3 DUP3 LT ISZERO PUSH2 0x3401 JUMPI DUP4 DUP3 SWAP1 PUSH0 MSTORE PUSH1 0x20 PUSH0 KECCAK256 SWAP1 PUSH1 0x5 MUL ADD PUSH1 0x40 MLOAD DUP1 PUSH1 0xA0 ADD PUSH1 0x40 MSTORE SWAP1 DUP2 PUSH0 DUP3 ADD DUP1 SLOAD PUSH2 0x322E SWAP1 PUSH2 0x4CF3 JUMP JUMPDEST DUP1 PUSH1 0x1F ADD PUSH1 0x20 DUP1 SWAP2 DIV MUL PUSH1 0x20 ADD PUSH1 0x40 MLOAD SWAP1 DUP2 ADD PUSH1 0x40 MSTORE DUP1 SWAP3 SWAP2 SWAP1 DUP2 DUP2 MSTORE PUSH1 0x20 ADD DUP3 DUP1 SLOAD PUSH2 0x325A SWAP1 PUSH2 0x4CF3 JUMP JUMPDEST DUP1 ISZERO PUSH2 0x32A5 JUMPI DUP1 PUSH1 0x1F LT PUSH2 0x327C JUMPI PUSH2 0x100 DUP1 DUP4 SLOAD DIV MUL DUP4 MSTORE SWAP2 PUSH1 0x20 ADD SWAP2 PUSH2 0x32A5 JUMP JUMPDEST DUP3 ADD SWAP2 SWAP1 PUSH0 MSTORE PUSH1 0x20 PUSH0 KECCAK256 SWAP1 JUMPDEST DUP2 SLOAD DUP2 MSTORE SWAP1 PUSH1 0x1 ADD SWAP1 PUSH1 0x20 ADD DUP1 DUP4 GT PUSH2 0x3288 JUMPI DUP3 SWAP1 SUB PUSH1 0x1F AND DUP3 ADD SWAP2 JUMPDEST POP POP POP POP POP DUP2 MSTORE PUSH1 0x20 ADD PUSH1 0x1 DUP3 ADD DUP1 SLOAD PUSH2 0x32BE SWAP1 PUSH2 0x4CF3 JUMP JUMPDEST DUP1 PUSH1 0x1F ADD PUSH1 0x20 DUP1 SWAP2 DIV MUL PUSH1 0x20 ADD PUSH1 0x40 MLOAD SWAP1 DUP2 ADD PUSH1 0x40 MSTORE DUP1 SWAP3 SWAP2 SWAP1 DUP2 DUP2 MSTORE PUSH1 0x20 ADD DUP3 DUP1 SLOAD PUSH2 0x32EA SWAP1 PUSH2 0x4CF3 JUMP JUMPDEST DUP1 ISZERO PUSH2 0x3335 JUMPI DUP1 PUSH1 0x1F LT PUSH2 0x330C JUMPI PUSH2 0x100 DUP1 DUP4 SLOAD DIV MUL DUP4 MSTORE SWAP2 PUSH1 0x20 ADD SWAP2 PUSH2 0x3335 JUMP JUMPDEST DUP3 ADD SWAP2 SWAP1 PUSH0 MSTORE PUSH1 0x20 PUSH0 KECCAK256 SWAP1 JUMPDEST DUP2 SLOAD DUP2 MSTORE SWAP1 PUSH1 0x1 ADD SWAP1 PUSH1 0x20 ADD DUP1 DUP4 GT PUSH2 0x3318 JUMPI DUP3 SWAP1 SUB PUSH1 0x1F AND DUP3 ADD SWAP2 JUMPDEST POP POP POP POP POP DUP2 MSTORE PUSH1 0x20 ADD PUSH1 0x2 DUP3 ADD DUP1 SLOAD PUSH2 0x334E SWAP1 PUSH2 0x4CF3 JUMP JUMPDEST DUP1 PUSH1 0x1F ADD PUSH1 0x20 DUP1 SWAP2 DIV MUL PUSH1 0x20 ADD PUSH1 0x40 MLOAD SWAP1 DUP2 ADD PUSH1 0x40 MSTORE DUP1 SWAP3 SWAP2 SWAP1 DUP2 DUP2 MSTORE PUSH1 0x20 ADD DUP3 DUP1 SLOAD PUSH2 0x337A SWAP1 PUSH2 0x4CF3 JUMP JUMPDEST DUP1 ISZERO PUSH2 0x33C5 JUMPI DUP1 PUSH1 0x1F LT PUSH2 0x339C JUMPI PUSH2 0x100 DUP1 DUP4 SLOAD DIV MUL DUP4 MSTORE SWAP2 PUSH1 0x20 ADD SWAP2 PUSH2 0x33C5 JUMP JUMPDEST DUP3 ADD SWAP2 SWAP1 PUSH0 MSTORE PUSH1 0x20 PUSH0 KECCAK256 SWAP1 JUMPDEST DUP2 SLOAD DUP2 MSTORE SWAP1 PUSH1 0x1 ADD SWAP1 PUSH1 0x20 ADD DUP1 DUP4 GT PUSH2 0x33A8 JUMPI DUP3 SWAP1 SUB PUSH1 0x1F AND DUP3 ADD SWAP2 JUMPDEST POP POP POP POP POP DUP2 MSTORE PUSH1 0x20 ADD PUSH1 0x3 DUP3 ADD SLOAD DUP2 MSTORE PUSH1 0x20 ADD PUSH1 0x4 DUP3 ADD PUSH0 SWAP1 SLOAD SWAP1 PUSH2 0x100 EXP SWAP1 DIV PUSH1 0xFF AND ISZERO ISZERO ISZERO ISZERO DUP2 MSTORE POP POP DUP2 MSTORE PUSH1 0x20 ADD SWAP1 PUSH1 0x1 ADD SWAP1 PUSH2 0x31FE JUMP JUMPDEST POP POP POP POP SWAP1 POP SWAP2 SWAP1 POP JUMP JUMPDEST PUSH1 0x60 PUSH1 0x3 PUSH0 DUP4 PUSH20 0xFFFFFFFFFFFFFFFFFFFFFFFFFFFFFFFFFFFFFFFF AND PUSH20 0xFFFFFFFFFFFFFFFFFFFFFFFFFFFFFFFFFFFFFFFF AND DUP2 MSTORE PUSH1 0x20 ADD SWAP1 DUP2 MSTORE PUSH1 0x20 ADD PUSH0 KECCAK256 PUSH1 0x3 ADD DUP1 SLOAD DUP1 PUSH1 0x20 MUL PUSH1 0x20 ADD PUSH1 0x40 MLOAD SWAP1 DUP2 ADD PUSH1 0x40 MSTORE DUP1 SWAP3 SWAP2 SWAP1 DUP2 DUP2 MSTORE PUSH1 0x20 ADD PUSH0 SWAP1 JUMPDEST DUP3 DUP3 LT ISZERO PUSH2 0x3780 JUMPI DUP4 DUP3 SWAP1 PUSH0 MSTORE PUSH1 0x20 PUSH0 KECCAK256 SWAP1 PUSH1 0x7 MUL ADD PUSH1 0x40 MLOAD DUP1 PUSH1 0xE0 ADD PUSH1 0x40 MSTORE SWAP1 DUP2 PUSH0 DUP3 ADD DUP1 SLOAD PUSH2 0x349D SWAP1 PUSH2 0x4CF3 JUMP JUMPDEST DUP1 PUSH1 0x1F ADD PUSH1 0x20 DUP1 SWAP2 DIV MUL PUSH1 0x20 ADD PUSH1 0x40 MLOAD SWAP1 DUP2 ADD PUSH1 0x40 MSTORE DUP1 SWAP3 SWAP2 SWAP1 DUP2 DUP2 MSTORE PUSH1 0x20 ADD DUP3 DUP1 SLOAD PUSH2 0x34C9 SWAP1 PUSH2 0x4CF3 JUMP JUMPDEST DUP1 ISZERO PUSH2 0x3514 JUMPI DUP1 PUSH1 0x1F LT PUSH2 0x34EB JUMPI PUSH2 0x100 DUP1 DUP4 SLOAD DIV MUL DUP4 MSTORE SWAP2 PUSH1 0x20 ADD SWAP2 PUSH2 0x3514 JUMP JUMPDEST DUP3 ADD SWAP2 SWAP1 PUSH0 MSTORE PUSH1 0x20 PUSH0 KECCAK256 SWAP1 JUMPDEST DUP2 SLOAD DUP2 MSTORE SWAP1 PUSH1 0x1 ADD SWAP1 PUSH1 0x20 ADD DUP1 DUP4 GT PUSH2 0x34F7 JUMPI DUP3 SWAP1 SUB PUSH1 0x1F AND DUP3 ADD SWAP2 JUMPDEST POP POP POP POP POP DUP2 MSTORE PUSH1 0x20 ADD PUSH1 0x1 DUP3 ADD DUP1 SLOAD PUSH2 0x352D SWAP1 PUSH2 0x4CF3 JUMP JUMPDEST DUP1 PUSH1 0x1F ADD PUSH1 0x20 DUP1 SWAP2 DIV MUL PUSH1 0x20 ADD PUSH1 0x40 MLOAD SWAP1 DUP2 ADD PUSH1 0x40 MSTORE DUP1 SWAP3 SWAP2 SWAP1 DUP2 DUP2 MSTORE PUSH1 0x20 ADD DUP3 DUP1 SLOAD PUSH2 0x3559 SWAP1 PUSH2 0x4CF3 JUMP JUMPDEST DUP1 ISZERO PUSH2 0x35A4 JUMPI DUP1 PUSH1 0x1F LT PUSH2 0x357B JUMPI PUSH2 0x100 DUP1 DUP4 SLOAD DIV MUL DUP4 MSTORE SWAP2 PUSH1 0x20 ADD SWAP2 PUSH2 0x35A4 JUMP JUMPDEST DUP3 ADD SWAP2 SWAP1 PUSH0 MSTORE PUSH1 0x20 PUSH0 KECCAK256 SWAP1 JUMPDEST DUP2 SLOAD DUP2 MSTORE SWAP1 PUSH1 0x1 ADD SWAP1 PUSH1 0x20 ADD DUP1 DUP4 GT PUSH2 0x3587 JUMPI DUP3 SWAP1 SUB PUSH1 0x1F AND DUP3 ADD SWAP2 JUMPDEST POP POP POP POP POP DUP2 MSTORE PUSH1 0x20 ADD PUSH1 0x2 DUP3 ADD DUP1 SLOAD PUSH2 0x35BD SWAP1 PUSH2 0x4CF3 JUMP JUMPDEST DUP1 PUSH1 0x1F ADD PUSH1 0x20 DUP1 SWAP2 DIV MUL PUSH1 0x20 ADD PUSH1 0x40 MLOAD SWAP1 DUP2 ADD PUSH1 0x40 MSTORE DUP1 SWAP3 SWAP2 SWAP1 DUP2 DUP2 MSTORE PUSH1 0x20 ADD DUP3 DUP1 SLOAD PUSH2 0x35E9 SWAP1 PUSH2 0x4CF3 JUMP JUMPDEST DUP1 ISZERO PUSH2 0x3634 JUMPI DUP1 PUSH1 0x1F LT PUSH2 0x360B JUMPI PUSH2 0x100 DUP1 DUP4 SLOAD DIV MUL DUP4 MSTORE SWAP2 PUSH1 0x20 ADD SWAP2 PUSH2 0x3634 JUMP JUMPDEST DUP3 ADD SWAP2 SWAP1 PUSH0 MSTORE PUSH1 0x20 PUSH0 KECCAK256 SWAP1 JUMPDEST DUP2 SLOAD DUP2 MSTORE SWAP1 PUSH1 0x1 ADD SWAP1 PUSH1 0x20 ADD DUP1 DUP4 GT PUSH2 0x3617 JUMPI DUP3 SWAP1 SUB PUSH1 0x1F AND DUP3 ADD SWAP2 JUMPDEST POP POP POP POP POP DUP2 MSTORE PUSH1 0x20 ADD PUSH1 0x3 DUP3 ADD DUP1 SLOAD PUSH2 0x364D SWAP1 PUSH2 0x4CF3 JUMP JUMPDEST DUP1 PUSH1 0x1F ADD PUSH1 0x20 DUP1 SWAP2 DIV MUL PUSH1 0x20 ADD PUSH1 0x40 MLOAD SWAP1 DUP2 ADD PUSH1 0x40 MSTORE DUP1 SWAP3 SWAP2 SWAP1 DUP2 DUP2 MSTORE PUSH1 0x20 ADD DUP3 DUP1 SLOAD PUSH2 0x3679 SWAP1 PUSH2 0x4CF3 JUMP JUMPDEST DUP1 ISZERO PUSH2 0x36C4 JUMPI DUP1 PUSH1 0x1F LT PUSH2 0x369B JUMPI PUSH2 0x100 DUP1 DUP4 SLOAD DIV MUL DUP4 MSTORE SWAP2 PUSH1 0x20 ADD SWAP2 PUSH2 0x36C4 JUMP JUMPDEST DUP3 ADD SWAP2 SWAP1 PUSH0 MSTORE PUSH1 0x20 PUSH0 KECCAK256 SWAP1 JUMPDEST DUP2 SLOAD DUP2 MSTORE SWAP1 PUSH1 0x1 ADD SWAP1 PUSH1 0x20 ADD DUP1 DUP4 GT PUSH2 0x36A7 JUMPI DUP3 SWAP1 SUB PUSH1 0x1F AND DUP3 ADD SWAP2 JUMPDEST POP POP POP POP POP DUP2 MSTORE PUSH1 0x20 ADD PUSH1 0x4 DUP3 ADD SLOAD DUP2 MSTORE PUSH1 0x20 ADD PUSH1 0x5 DUP3 ADD SLOAD DUP2 MSTORE PUSH1 0x20 ADD PUSH1 0x6 DUP3 ADD DUP1 SLOAD PUSH2 0x36F1 SWAP1 PUSH2 0x4CF3 JUMP JUMPDEST DUP1 PUSH1 0x1F ADD PUSH1 0x20 DUP1 SWAP2 DIV MUL PUSH1 0x20 ADD PUSH1 0x40 MLOAD SWAP1 DUP2 ADD PUSH1 0x40 MSTORE DUP1 SWAP3 SWAP2 SWAP1 DUP2 DUP2 MSTORE PUSH1 0x20 ADD DUP3 DUP1 SLOAD PUSH2 0x371D SWAP1 PUSH2 0x4CF3 JUMP JUMPDEST DUP1 ISZERO PUSH2 0x3768 JUMPI DUP1 PUSH1 0x1F LT PUSH2 0x373F JUMPI PUSH2 0x100 DUP1 DUP4 SLOAD DIV MUL DUP4 MSTORE SWAP2 PUSH1 0x20 ADD SWAP2 PUSH2 0x3768 JUMP JUMPDEST DUP3 ADD SWAP2 SWAP1 PUSH0 MSTORE PUSH1 0x20 PUSH0 KECCAK256 SWAP1 JUMPDEST DUP2 SLOAD DUP2 MSTORE SWAP1 PUSH1 0x1 ADD SWAP1 PUSH1 0x20 ADD DUP1 DUP4 GT PUSH2 0x374B JUMPI DUP3 SWAP1 SUB PUSH1 0x1F AND DUP3 ADD SWAP2 JUMPDEST POP POP POP POP POP DUP2 MSTORE POP POP DUP2 MSTORE PUSH1 0x20 ADD SWAP1 PUSH1 0x1 ADD SWAP1 PUSH2 0x346D JUMP JUMPDEST POP POP POP POP SWAP1 POP SWAP2 SWAP1 POP JUMP JUMPDEST CALLER PUSH20 0xFFFFFFFFFFFFFFFFFFFFFFFFFFFFFFFFFFFFFFFF AND PUSH1 0x1 DUP6 PUSH1 0x40 MLOAD PUSH2 0x37B2 SWAP2 SWAP1 PUSH2 0x4CB0 JUMP JUMPDEST SWAP1 DUP2 MSTORE PUSH1 0x20 ADD PUSH1 0x40 MLOAD DUP1 SWAP2 SUB SWAP1 KECCAK256 PUSH1 0x3 ADD PUSH0 SWAP1 SLOAD SWAP1 PUSH2 0x100 EXP SWAP1 DIV PUSH20 0xFFFFFFFFFFFFFFFFFFFFFFFFFFFFFFFFFFFFFFFF AND PUSH20 0xFFFFFFFFFFFFFFFFFFFFFFFFFFFFFFFFFFFFFFFF AND EQ PUSH2 0x3802 JUMPI PUSH0 DUP1 REVERT JUMPDEST PUSH0 PUSH2 0x3838 DUP6 TIMESTAMP PUSH1 0x40 MLOAD PUSH1 0x20 ADD PUSH2 0x3819 SWAP3 SWAP2 SWAP1 PUSH2 0x5548 JUMP JUMPDEST PUSH1 0x40 MLOAD PUSH1 0x20 DUP2 DUP4 SUB SUB DUP2 MSTORE SWAP1 PUSH1 0x40 MSTORE DUP1 MLOAD SWAP1 PUSH1 0x20 ADD KECCAK256 PUSH0 SHR PUSH1 0x20 PUSH2 0x3B14 JUMP JUMPDEST SWAP1 POP PUSH0 PUSH1 0x40 MLOAD DUP1 PUSH1 0xA0 ADD PUSH1 0x40 MSTORE DUP1 DUP4 DUP2 MSTORE PUSH1 0x20 ADD DUP8 DUP2 MSTORE PUSH1 0x20 ADD DUP7 DUP2 MSTORE PUSH1 0x20 ADD DUP6 DUP2 MSTORE PUSH1 0x20 ADD DUP5 DUP2 MSTORE POP SWAP1 POP DUP1 PUSH1 0x6 DUP4 PUSH1 0x40 MLOAD PUSH2 0x3875 SWAP2 SWAP1 PUSH2 0x4CB0 JUMP JUMPDEST SWAP1 DUP2 MSTORE PUSH1 0x20 ADD PUSH1 0x40 MLOAD DUP1 SWAP2 SUB SWAP1 KECCAK256 PUSH0 DUP3 ADD MLOAD DUP2 PUSH0 ADD SWAP1 DUP2 PUSH2 0x3896 SWAP2 SWAP1 PUSH2 0x4F56 JUMP JUMPDEST POP PUSH1 0x20 DUP3 ADD MLOAD DUP2 PUSH1 0x1 ADD SWAP1 DUP2 PUSH2 0x38AC SWAP2 SWAP1 PUSH2 0x4F56 JUMP JUMPDEST POP PUSH1 0x40 DUP3 ADD MLOAD DUP2 PUSH1 0x2 ADD SSTORE PUSH1 0x60 DUP3 ADD MLOAD DUP2 PUSH1 0x3 ADD SSTORE PUSH1 0x80 DUP3 ADD MLOAD DUP2 PUSH1 0x4 ADD SSTORE SWAP1 POP POP PUSH1 0x1 DUP7 PUSH1 0x40 MLOAD PUSH2 0x38DE SWAP2 SWAP1 PUSH2 0x4CB0 JUMP JUMPDEST SWAP1 DUP2 MSTORE PUSH1 0x20 ADD PUSH1 0x40 MLOAD DUP1 SWAP2 SUB SWAP1 KECCAK256 PUSH1 0x5 ADD DUP2 SWAP1 DUP1 PUSH1 0x1 DUP2 SLOAD ADD DUP1 DUP3 SSTORE DUP1 SWAP2 POP POP PUSH1 0x1 SWAP1 SUB SWAP1 PUSH0 MSTORE PUSH1 0x20 PUSH0 KECCAK256 SWAP1 PUSH1 0x5 MUL ADD PUSH0 SWAP1 SWAP2 SWAP1 SWAP2 SWAP1 SWAP2 POP PUSH0 DUP3 ADD MLOAD DUP2 PUSH0 ADD SWAP1 DUP2 PUSH2 0x3929 SWAP2 SWAP1 PUSH2 0x4F56 JUMP JUMPDEST POP PUSH1 0x20 DUP3 ADD MLOAD DUP2 PUSH1 0x1 ADD SWAP1 DUP2 PUSH2 0x393F SWAP2 SWAP1 PUSH2 0x4F56 JUMP JUMPDEST POP PUSH1 0x40 DUP3 ADD MLOAD DUP2 PUSH1 0x2 ADD SSTORE PUSH1 0x60 DUP3 ADD MLOAD DUP2 PUSH1 0x3 ADD SSTORE PUSH1 0x80 DUP3 ADD MLOAD DUP2 PUSH1 0x4 ADD SSTORE POP POP POP POP POP POP POP POP JUMP JUMPDEST PUSH0 DUP2 DUP2 SLOAD DUP2 LT PUSH2 0x3976 JUMPI PUSH0 DUP1 REVERT JUMPDEST SWAP1 PUSH0 MSTORE PUSH1 0x20 PUSH0 KECCAK256 ADD PUSH0 SWAP2 POP SWAP1 POP DUP1 SLOAD PUSH2 0x398E SWAP1 PUSH2 0x4CF3 JUMP JUMPDEST DUP1 PUSH1 0x1F ADD PUSH1 0x20 DUP1 SWAP2 DIV MUL PUSH1 0x20 ADD PUSH1 0x40 MLOAD SWAP1 DUP2 ADD PUSH1 0x40 MSTORE DUP1 SWAP3 SWAP2 SWAP1 DUP2 DUP2 MSTORE PUSH1 0x20 ADD DUP3 DUP1 SLOAD PUSH2 0x39BA SWAP1 PUSH2 0x4CF3 JUMP JUMPDEST DUP1 ISZERO PUSH2 0x3A05 JUMPI DUP1 PUSH1 0x1F LT PUSH2 0x39DC JUMPI PUSH2 0x100 DUP1 DUP4 SLOAD DIV MUL DUP4 MSTORE SWAP2 PUSH1 0x20 ADD SWAP2 PUSH2 0x3A05 JUMP JUMPDEST DUP3 ADD SWAP2 SWAP1 PUSH0 MSTORE PUSH1 0x20 PUSH0 KECCAK256 SWAP1 JUMPDEST DUP2 SLOAD DUP2 MSTORE SWAP1 PUSH1 0x1 ADD SWAP1 PUSH1 0x20 ADD DUP1 DUP4 GT PUSH2 0x39E8 JUMPI DUP3 SWAP1 SUB PUSH1 0x1F AND DUP3 ADD SWAP2 JUMPDEST POP POP POP POP POP DUP2 JUMP JUMPDEST PUSH1 0x60 PUSH0 PUSH1 0x6 PUSH8 0xFFFFFFFFFFFFFFFF DUP2 GT ISZERO PUSH2 0x3A2B JUMPI PUSH2 0x3A2A PUSH2 0x3EA6 JUMP JUMPDEST JUMPDEST PUSH1 0x40 MLOAD SWAP1 DUP1 DUP3 MSTORE DUP1 PUSH1 0x1F ADD PUSH1 0x1F NOT AND PUSH1 0x20 ADD DUP3 ADD PUSH1 0x40 MSTORE DUP1 ISZERO PUSH2 0x3A5D JUMPI DUP2 PUSH1 0x20 ADD PUSH1 0x1 DUP3 MUL DUP1 CALLDATASIZE DUP4 CALLDATACOPY DUP1 DUP3 ADD SWAP2 POP POP SWAP1 POP JUMPDEST POP SWAP1 POP PUSH0 JUMPDEST PUSH1 0x6 DUP2 LT ISZERO PUSH2 0x3B0C JUMPI PUSH0 PUSH1 0xA TIMESTAMP PREVRANDAO DUP5 PUSH1 0x40 MLOAD PUSH1 0x20 ADD PUSH2 0x3A83 SWAP4 SWAP3 SWAP2 SWAP1 PUSH2 0x556F JUMP JUMPDEST PUSH1 0x40 MLOAD PUSH1 0x20 DUP2 DUP4 SUB SUB DUP2 MSTORE SWAP1 PUSH1 0x40 MSTORE DUP1 MLOAD SWAP1 PUSH1 0x20 ADD KECCAK256 PUSH0 SHR PUSH2 0x3AA5 SWAP2 SWAP1 PUSH2 0x55AB JUMP JUMPDEST SWAP1 POP DUP1 PUSH1 0x30 PUSH2 0x3AB4 SWAP2 SWAP1 PUSH2 0x55E7 JUMP JUMPDEST PUSH1 0xF8 SHL DUP4 DUP4 DUP2 MLOAD DUP2 LT PUSH2 0x3ACA JUMPI PUSH2 0x3AC9 PUSH2 0x540F JUMP JUMPDEST JUMPDEST PUSH1 0x20 ADD ADD SWAP1 PUSH31 0xFFFFFFFFFFFFFFFFFFFFFFFFFFFFFFFFFFFFFFFFFFFFFFFFFFFFFFFFFFFFFF NOT AND SWAP1 DUP2 PUSH0 BYTE SWAP1 MSTORE8 POP POP DUP1 DUP1 PUSH2 0x3B04 SWAP1 PUSH2 0x5471 JUMP JUMPDEST SWAP2 POP POP PUSH2 0x3A62 JUMP JUMPDEST POP DUP1 SWAP2 POP POP SWAP1 JUMP JUMPDEST PUSH1 0x60 PUSH0 PUSH1 0x2 DUP4 PUSH1 0x2 PUSH2 0x3B26 SWAP2 SWAP1 PUSH2 0x5052 JUMP JUMPDEST PUSH2 0x3B30 SWAP2 SWAP1 PUSH2 0x5258 JUMP JUMPDEST PUSH8 0xFFFFFFFFFFFFFFFF DUP2 GT ISZERO PUSH2 0x3B49 JUMPI PUSH2 0x3B48 PUSH2 0x3EA6 JUMP JUMPDEST JUMPDEST PUSH1 0x40 MLOAD SWAP1 DUP1 DUP3 MSTORE DUP1 PUSH1 0x1F ADD PUSH1 0x1F NOT AND PUSH1 0x20 ADD DUP3 ADD PUSH1 0x40 MSTORE DUP1 ISZERO PUSH2 0x3B7B JUMPI DUP2 PUSH1 0x20 ADD PUSH1 0x1 DUP3 MUL DUP1 CALLDATASIZE DUP4 CALLDATACOPY DUP1 DUP3 ADD SWAP2 POP POP SWAP1 POP JUMPDEST POP SWAP1 POP PUSH32 0x3000000000000000000000000000000000000000000000000000000000000000 DUP2 PUSH0 DUP2 MLOAD DUP2 LT PUSH2 0x3BB2 JUMPI PUSH2 0x3BB1 PUSH2 0x540F JUMP JUMPDEST JUMPDEST PUSH1 0x20 ADD ADD SWAP1 PUSH31 0xFFFFFFFFFFFFFFFFFFFFFFFFFFFFFFFFFFFFFFFFFFFFFFFFFFFFFFFFFFFFFF NOT AND SWAP1 DUP2 PUSH0 BYTE SWAP1 MSTORE8 POP PUSH32 0x7800000000000000000000000000000000000000000000000000000000000000 DUP2 PUSH1 0x1 DUP2 MLOAD DUP2 LT PUSH2 0x3C15 JUMPI PUSH2 0x3C14 PUSH2 0x540F JUMP JUMPDEST JUMPDEST PUSH1 0x20 ADD ADD SWAP1 PUSH31 0xFFFFFFFFFFFFFFFFFFFFFFFFFFFFFFFFFFFFFFFFFFFFFFFFFFFFFFFFFFFFFF NOT AND SWAP1 DUP2 PUSH0 BYTE SWAP1 MSTORE8 POP PUSH0 PUSH1 0x1 DUP5 PUSH1 0x2 PUSH2 0x3C53 SWAP2 SWAP1 PUSH2 0x5052 JUMP JUMPDEST PUSH2 0x3C5D SWAP2 SWAP1 PUSH2 0x5258 JUMP JUMPDEST SWAP1 POP JUMPDEST PUSH1 0x1 DUP2 GT ISZERO PUSH2 0x3CFC JUMPI PUSH32 0x3031323334353637383961626364656600000000000000000000000000000000 PUSH1 0xF DUP7 AND PUSH1 0x10 DUP2 LT PUSH2 0x3C9F JUMPI PUSH2 0x3C9E PUSH2 0x540F JUMP JUMPDEST JUMPDEST BYTE PUSH1 0xF8 SHL DUP3 DUP3 DUP2 MLOAD DUP2 LT PUSH2 0x3CB6 JUMPI PUSH2 0x3CB5 PUSH2 0x540F JUMP JUMPDEST JUMPDEST PUSH1 0x20 ADD ADD SWAP1 PUSH31 0xFFFFFFFFFFFFFFFFFFFFFFFFFFFFFFFFFFFFFFFFFFFFFFFFFFFFFFFFFFFFFF NOT AND SWAP1 DUP2 PUSH0 BYTE SWAP1 MSTORE8 POP PUSH1 0x4 DUP6 SWAP1 SHR SWAP5 POP DUP1 PUSH2 0x3CF5 SWAP1 PUSH2 0x561B JUMP JUMPDEST SWAP1 POP PUSH2 0x3C60 JUMP JUMPDEST POP PUSH0 DUP5 EQ PUSH2 0x3D3F JUMPI PUSH1 0x40 MLOAD PUSH32 0x8C379A000000000000000000000000000000000000000000000000000000000 DUP2 MSTORE PUSH1 0x4 ADD PUSH2 0x3D36 SWAP1 PUSH2 0x568C JUMP JUMPDEST PUSH1 0x40 MLOAD DUP1 SWAP2 SUB SWAP1 REVERT JUMPDEST DUP1 SWAP2 POP POP SWAP3 SWAP2 POP POP JUMP JUMPDEST PUSH1 0x40 MLOAD DUP1 PUSH1 0xA0 ADD PUSH1 0x40 MSTORE DUP1 PUSH1 0x60 DUP2 MSTORE PUSH1 0x20 ADD PUSH1 0x60 DUP2 MSTORE PUSH1 0x20 ADD PUSH1 0x60 DUP2 MSTORE PUSH1 0x20 ADD PUSH0 DUP2 MSTORE PUSH1 0x20 ADD PUSH0 ISZERO ISZERO DUP2 MSTORE POP SWAP1 JUMP JUMPDEST DUP3 DUP1 SLOAD DUP3 DUP3 SSTORE SWAP1 PUSH0 MSTORE PUSH1 0x20 PUSH0 KECCAK256 SWAP1 DUP2 ADD SWAP3 DUP3 ISZERO PUSH2 0x3DC5 JUMPI SWAP2 PUSH1 0x20 MUL DUP3 ADD JUMPDEST DUP3 DUP2 GT ISZERO PUSH2 0x3DC4 JUMPI DUP3 MLOAD DUP3 SWAP1 DUP1 MLOAD SWAP1 PUSH1 0x20 ADD SWAP1 PUSH2 0x3DB4 SWAP3 SWAP2 SWAP1 PUSH2 0x3DD6 JUMP JUMPDEST POP SWAP2 PUSH1 0x20 ADD SWAP2 SWAP1 PUSH1 0x1 ADD SWAP1 PUSH2 0x3D96 JUMP JUMPDEST JUMPDEST POP SWAP1 POP PUSH2 0x3DD2 SWAP2 SWAP1 PUSH2 0x3E21 JUMP JUMPDEST POP SWAP1 JUMP JUMPDEST DUP3 DUP1 SLOAD DUP3 DUP3 SSTORE SWAP1 PUSH0 MSTORE PUSH1 0x20 PUSH0 KECCAK256 SWAP1 DUP2 ADD SWAP3 DUP3 ISZERO PUSH2 0x3E10 JUMPI SWAP2 PUSH1 0x20 MUL DUP3 ADD JUMPDEST DUP3 DUP2 GT ISZERO PUSH2 0x3E0F JUMPI DUP3 MLOAD DUP3 SSTORE SWAP2 PUSH1 0x20 ADD SWAP2 SWAP1 PUSH1 0x1 ADD SWAP1 PUSH2 0x3DF4 JUMP JUMPDEST JUMPDEST POP SWAP1 POP PUSH2 0x3E1D SWAP2 SWAP1 PUSH2 0x3E44 JUMP JUMPDEST POP SWAP1 JUMP JUMPDEST JUMPDEST DUP1 DUP3 GT ISZERO PUSH2 0x3E40 JUMPI PUSH0 DUP2 DUP2 PUSH2 0x3E37 SWAP2 SWAP1 PUSH2 0x3E5F JUMP JUMPDEST POP PUSH1 0x1 ADD PUSH2 0x3E22 JUMP JUMPDEST POP SWAP1 JUMP JUMPDEST JUMPDEST DUP1 DUP3 GT ISZERO PUSH2 0x3E5B JUMPI PUSH0 DUP2 PUSH0 SWAP1 SSTORE POP PUSH1 0x1 ADD PUSH2 0x3E45 JUMP JUMPDEST POP SWAP1 JUMP JUMPDEST POP DUP1 SLOAD PUSH0 DUP3 SSTORE SWAP1 PUSH0 MSTORE PUSH1 0x20 PUSH0 KECCAK256 SWAP1 DUP2 ADD SWAP1 PUSH2 0x3E7A SWAP2 SWAP1 PUSH2 0x3E44 JUMP JUMPDEST POP JUMP JUMPDEST PUSH0 PUSH1 0x40 MLOAD SWAP1 POP SWAP1 JUMP JUMPDEST PUSH0 DUP1 REVERT JUMPDEST PUSH0 DUP1 REVERT JUMPDEST PUSH0 DUP1 REVERT JUMPDEST PUSH0 DUP1 REVERT JUMPDEST PUSH0 PUSH1 0x1F NOT PUSH1 0x1F DUP4 ADD AND SWAP1 POP SWAP2 SWAP1 POP JUMP JUMPDEST PUSH32 0x4E487B7100000000000000000000000000000000000000000000000000000000 PUSH0 MSTORE PUSH1 0x41 PUSH1 0x4 MSTORE PUSH1 0x24 PUSH0 REVERT JUMPDEST PUSH2 0x3EDC DUP3 PUSH2 0x3E96 JUMP JUMPDEST DUP2 ADD DUP2 DUP2 LT PUSH8 0xFFFFFFFFFFFFFFFF DUP3 GT OR ISZERO PUSH2 0x3EFB JUMPI PUSH2 0x3EFA PUSH2 0x3EA6 JUMP JUMPDEST JUMPDEST DUP1 PUSH1 0x40 MSTORE POP POP POP JUMP JUMPDEST PUSH0 PUSH2 0x3F0D PUSH2 0x3E7D JUMP JUMPDEST SWAP1 POP PUSH2 0x3F19 DUP3 DUP3 PUSH2 0x3ED3 JUMP JUMPDEST SWAP2 SWAP1 POP JUMP JUMPDEST PUSH0 PUSH8 0xFFFFFFFFFFFFFFFF DUP3 GT ISZERO PUSH2 0x3F38 JUMPI PUSH2 0x3F37 PUSH2 0x3EA6 JUMP JUMPDEST JUMPDEST PUSH2 0x3F41 DUP3 PUSH2 0x3E96 JUMP JUMPDEST SWAP1 POP PUSH1 0x20 DUP2 ADD SWAP1 POP SWAP2 SWAP1 POP JUMP JUMPDEST DUP3 DUP2 DUP4 CALLDATACOPY PUSH0 DUP4 DUP4 ADD MSTORE POP POP POP JUMP JUMPDEST PUSH0 PUSH2 0x3F6E PUSH2 0x3F69 DUP5 PUSH2 0x3F1E JUMP JUMPDEST PUSH2 0x3F04 JUMP JUMPDEST SWAP1 POP DUP3 DUP2 MSTORE PUSH1 0x20 DUP2 ADD DUP5 DUP5 DUP5 ADD GT ISZERO PUSH2 0x3F8A JUMPI PUSH2 0x3F89 PUSH2 0x3E92 JUMP JUMPDEST JUMPDEST PUSH2 0x3F95 DUP5 DUP3 DUP6 PUSH2 0x3F4E JUMP JUMPDEST POP SWAP4 SWAP3 POP POP POP JUMP JUMPDEST PUSH0 DUP3 PUSH1 0x1F DUP4 ADD SLT PUSH2 0x3FB1 JUMPI PUSH2 0x3FB0 PUSH2 0x3E8E JUMP JUMPDEST JUMPDEST DUP2 CALLDATALOAD PUSH2 0x3FC1 DUP5 DUP3 PUSH1 0x20 DUP7 ADD PUSH2 0x3F5C JUMP JUMPDEST SWAP2 POP POP SWAP3 SWAP2 POP POP JUMP JUMPDEST PUSH0 PUSH1 0x20 DUP3 DUP5 SUB SLT ISZERO PUSH2 0x3FDF JUMPI PUSH2 0x3FDE PUSH2 0x3E86 JUMP JUMPDEST JUMPDEST PUSH0 DUP3 ADD CALLDATALOAD PUSH8 0xFFFFFFFFFFFFFFFF DUP2 GT ISZERO PUSH2 0x3FFC JUMPI PUSH2 0x3FFB PUSH2 0x3E8A JUMP JUMPDEST JUMPDEST PUSH2 0x4008 DUP5 DUP3 DUP6 ADD PUSH2 0x3F9D JUMP JUMPDEST SWAP2 POP POP SWAP3 SWAP2 POP POP JUMP JUMPDEST PUSH0 DUP1 PUSH1 0x40 DUP4 DUP6 SUB SLT ISZERO PUSH2 0x4027 JUMPI PUSH2 0x4026 PUSH2 0x3E86 JUMP JUMPDEST JUMPDEST PUSH0 DUP4 ADD CALLDATALOAD PUSH8 0xFFFFFFFFFFFFFFFF DUP2 GT ISZERO PUSH2 0x4044 JUMPI PUSH2 0x4043 PUSH2 0x3E8A JUMP JUMPDEST JUMPDEST PUSH2 0x4050 DUP6 DUP3 DUP7 ADD PUSH2 0x3F9D JUMP JUMPDEST SWAP3 POP POP PUSH1 0x20 DUP4 ADD CALLDATALOAD PUSH8 0xFFFFFFFFFFFFFFFF DUP2 GT ISZERO PUSH2 0x4071 JUMPI PUSH2 0x4070 PUSH2 0x3E8A JUMP JUMPDEST JUMPDEST PUSH2 0x407D DUP6 DUP3 DUP7 ADD PUSH2 0x3F9D JUMP JUMPDEST SWAP2 POP POP SWAP3 POP SWAP3 SWAP1 POP JUMP JUMPDEST PUSH0 DUP2 MLOAD SWAP1 POP SWAP2 SWAP1 POP JUMP JUMPDEST PUSH0 DUP3 DUP3 MSTORE PUSH1 0x20 DUP3 ADD SWAP1 POP SWAP3 SWAP2 POP POP JUMP JUMPDEST PUSH0 JUMPDEST DUP4 DUP2 LT ISZERO PUSH2 0x40BE JUMPI DUP1 DUP3 ADD MLOAD DUP2 DUP5 ADD MSTORE PUSH1 0x20 DUP2 ADD SWAP1 POP PUSH2 0x40A3 JUMP JUMPDEST PUSH0 DUP5 DUP5 ADD MSTORE POP POP POP POP JUMP JUMPDEST PUSH0 PUSH2 0x40D3 DUP3 PUSH2 0x4087 JUMP JUMPDEST PUSH2 0x40DD DUP2 DUP6 PUSH2 0x4091 JUMP JUMPDEST SWAP4 POP PUSH2 0x40ED DUP2 DUP6 PUSH1 0x20 DUP7 ADD PUSH2 0x40A1 JUMP JUMPDEST PUSH2 0x40F6 DUP2 PUSH2 0x3E96 JUMP JUMPDEST DUP5 ADD SWAP2 POP POP SWAP3 SWAP2 POP POP JUMP JUMPDEST PUSH0 DUP2 SWAP1 POP SWAP2 SWAP1 POP JUMP JUMPDEST PUSH2 0x4113 DUP2 PUSH2 0x4101 JUMP JUMPDEST DUP3 MSTORE POP POP JUMP JUMPDEST PUSH0 DUP2 ISZERO ISZERO SWAP1 POP SWAP2 SWAP1 POP JUMP JUMPDEST PUSH2 0x412D DUP2 PUSH2 0x4119 JUMP JUMPDEST DUP3 MSTORE POP POP JUMP JUMPDEST PUSH0 PUSH1 0xA0 DUP4 ADD PUSH0 DUP4 ADD MLOAD DUP5 DUP3 SUB PUSH0 DUP7 ADD MSTORE PUSH2 0x414D DUP3 DUP3 PUSH2 0x40C9 JUMP JUMPDEST SWAP2 POP POP PUSH1 0x20 DUP4 ADD MLOAD DUP5 DUP3 SUB PUSH1 0x20 DUP7 ADD MSTORE PUSH2 0x4167 DUP3 DUP3 PUSH2 0x40C9 JUMP JUMPDEST SWAP2 POP POP PUSH1 0x40 DUP4 ADD MLOAD DUP5 DUP3 SUB PUSH1 0x40 DUP7 ADD MSTORE PUSH2 0x4181 DUP3 DUP3 PUSH2 0x40C9 JUMP JUMPDEST SWAP2 POP POP PUSH1 0x60 DUP4 ADD MLOAD PUSH2 0x4196 PUSH1 0x60 DUP7 ADD DUP3 PUSH2 0x410A JUMP JUMPDEST POP PUSH1 0x80 DUP4 ADD MLOAD PUSH2 0x41A9 PUSH1 0x80 DUP7 ADD DUP3 PUSH2 0x4124 JUMP JUMPDEST POP DUP1 SWAP2 POP POP SWAP3 SWAP2 POP POP JUMP JUMPDEST PUSH0 PUSH1 0x20 DUP3 ADD SWAP1 POP DUP2 DUP2 SUB PUSH0 DUP4 ADD MSTORE PUSH2 0x41CC DUP2 DUP5 PUSH2 0x4133 JUMP JUMPDEST SWAP1 POP SWAP3 SWAP2 POP POP JUMP JUMPDEST PUSH2 0x41DD DUP2 PUSH2 0x4101 JUMP JUMPDEST DUP2 EQ PUSH2 0x41E7 JUMPI PUSH0 DUP1 REVERT JUMPDEST POP JUMP JUMPDEST PUSH0 DUP2 CALLDATALOAD SWAP1 POP PUSH2 0x41F8 DUP2 PUSH2 0x41D4 JUMP JUMPDEST SWAP3 SWAP2 POP POP JUMP JUMPDEST PUSH0 DUP1 PUSH1 0x40 DUP4 DUP6 SUB SLT ISZERO PUSH2 0x4214 JUMPI PUSH2 0x4213 PUSH2 0x3E86 JUMP JUMPDEST JUMPDEST PUSH0 DUP4 ADD CALLDATALOAD PUSH8 0xFFFFFFFFFFFFFFFF DUP2 GT ISZERO PUSH2 0x4231 JUMPI PUSH2 0x4230 PUSH2 0x3E8A JUMP JUMPDEST JUMPDEST PUSH2 0x423D DUP6 DUP3 DUP7 ADD PUSH2 0x3F9D JUMP JUMPDEST SWAP3 POP POP PUSH1 0x20 PUSH2 0x424E DUP6 DUP3 DUP7 ADD PUSH2 0x41EA JUMP JUMPDEST SWAP2 POP POP SWAP3 POP SWAP3 SWAP1 POP JUMP JUMPDEST PUSH0 DUP3 DUP3 MSTORE PUSH1 0x20 DUP3 ADD SWAP1 POP SWAP3 SWAP2 POP POP JUMP JUMPDEST PUSH0 PUSH2 0x4272 DUP3 PUSH2 0x4087 JUMP JUMPDEST PUSH2 0x427C DUP2 DUP6 PUSH2 0x4258 JUMP JUMPDEST SWAP4 POP PUSH2 0x428C DUP2 DUP6 PUSH1 0x20 DUP7 ADD PUSH2 0x40A1 JUMP JUMPDEST PUSH2 0x4295 DUP2 PUSH2 0x3E96 JUMP JUMPDEST DUP5 ADD SWAP2 POP POP SWAP3 SWAP2 POP POP JUMP JUMPDEST PUSH0 PUSH20 0xFFFFFFFFFFFFFFFFFFFFFFFFFFFFFFFFFFFFFFFF DUP3 AND SWAP1 POP SWAP2 SWAP1 POP JUMP JUMPDEST PUSH0 PUSH2 0x42C9 DUP3 PUSH2 0x42A0 JUMP JUMPDEST SWAP1 POP SWAP2 SWAP1 POP JUMP JUMPDEST PUSH2 0x42D9 DUP2 PUSH2 0x42BF JUMP JUMPDEST DUP3 MSTORE POP POP JUMP JUMPDEST PUSH2 0x42E8 DUP2 PUSH2 0x4119 JUMP JUMPDEST DUP3 MSTORE POP POP JUMP JUMPDEST PUSH2 0x42F7 DUP2 PUSH2 0x4101 JUMP JUMPDEST DUP3 MSTORE POP POP JUMP JUMPDEST PUSH0 PUSH1 0xE0 DUP3 ADD SWAP1 POP DUP2 DUP2 SUB PUSH0 DUP4 ADD MSTORE PUSH2 0x4315 DUP2 DUP11 PUSH2 0x4268 JUMP JUMPDEST SWAP1 POP DUP2 DUP2 SUB PUSH1 0x20 DUP4 ADD MSTORE PUSH2 0x4329 DUP2 DUP10 PUSH2 0x4268 JUMP JUMPDEST SWAP1 POP DUP2 DUP2 SUB PUSH1 0x40 DUP4 ADD MSTORE PUSH2 0x433D DUP2 DUP9 PUSH2 0x4268 JUMP JUMPDEST SWAP1 POP PUSH2 0x434C PUSH1 0x60 DUP4 ADD DUP8 PUSH2 0x42D0 JUMP JUMPDEST PUSH2 0x4359 PUSH1 0x80 DUP4 ADD DUP7 PUSH2 0x42DF JUMP JUMPDEST PUSH2 0x4366 PUSH1 0xA0 DUP4 ADD DUP6 PUSH2 0x42EE JUMP JUMPDEST PUSH2 0x4373 PUSH1 0xC0 DUP4 ADD DUP5 PUSH2 0x42EE JUMP JUMPDEST SWAP9 SWAP8 POP POP POP POP POP POP POP POP JUMP JUMPDEST PUSH0 PUSH8 0xFFFFFFFFFFFFFFFF DUP3 GT ISZERO PUSH2 0x4399 JUMPI PUSH2 0x4398 PUSH2 0x3EA6 JUMP JUMPDEST JUMPDEST PUSH1 0x20 DUP3 MUL SWAP1 POP PUSH1 0x20 DUP2 ADD SWAP1 POP SWAP2 SWAP1 POP JUMP JUMPDEST PUSH0 DUP1 REVERT JUMPDEST PUSH0 PUSH8 0xFFFFFFFFFFFFFFFF DUP3 GT ISZERO PUSH2 0x43C8 JUMPI PUSH2 0x43C7 PUSH2 0x3EA6 JUMP JUMPDEST JUMPDEST PUSH1 0x20 DUP3 MUL SWAP1 POP PUSH1 0x20 DUP2 ADD SWAP1 POP SWAP2 SWAP1 POP JUMP JUMPDEST PUSH0 PUSH2 0x43EB PUSH2 0x43E6 DUP5 PUSH2 0x43AE JUMP JUMPDEST PUSH2 0x3F04 JUMP JUMPDEST SWAP1 POP DUP1 DUP4 DUP3 MSTORE PUSH1 0x20 DUP3 ADD SWAP1 POP PUSH1 0x20 DUP5 MUL DUP4 ADD DUP6 DUP2 GT ISZERO PUSH2 0x440E JUMPI PUSH2 0x440D PUSH2 0x43AA JUMP JUMPDEST JUMPDEST DUP4 JUMPDEST DUP2 DUP2 LT ISZERO PUSH2 0x4437 JUMPI DUP1 PUSH2 0x4423 DUP9 DUP3 PUSH2 0x41EA JUMP JUMPDEST DUP5 MSTORE PUSH1 0x20 DUP5 ADD SWAP4 POP POP PUSH1 0x20 DUP2 ADD SWAP1 POP PUSH2 0x4410 JUMP JUMPDEST POP POP POP SWAP4 SWAP3 POP POP POP JUMP JUMPDEST PUSH0 DUP3 PUSH1 0x1F DUP4 ADD SLT PUSH2 0x4455 JUMPI PUSH2 0x4454 PUSH2 0x3E8E JUMP JUMPDEST JUMPDEST DUP2 CALLDATALOAD PUSH2 0x4465 DUP5 DUP3 PUSH1 0x20 DUP7 ADD PUSH2 0x43D9 JUMP JUMPDEST SWAP2 POP POP SWAP3 SWAP2 POP POP JUMP JUMPDEST PUSH0 PUSH2 0x4480 PUSH2 0x447B DUP5 PUSH2 0x437F JUMP JUMPDEST PUSH2 0x3F04 JUMP JUMPDEST SWAP1 POP DUP1 DUP4 DUP3 MSTORE PUSH1 0x20 DUP3 ADD SWAP1 POP PUSH1 0x20 DUP5 MUL DUP4 ADD DUP6 DUP2 GT ISZERO PUSH2 0x44A3 JUMPI PUSH2 0x44A2 PUSH2 0x43AA JUMP JUMPDEST JUMPDEST DUP4 JUMPDEST DUP2 DUP2 LT ISZERO PUSH2 0x44EA JUMPI DUP1 CALLDATALOAD PUSH8 0xFFFFFFFFFFFFFFFF DUP2 GT ISZERO PUSH2 0x44C8 JUMPI PUSH2 0x44C7 PUSH2 0x3E8E JUMP JUMPDEST JUMPDEST DUP1 DUP7 ADD PUSH2 0x44D5 DUP10 DUP3 PUSH2 0x4441 JUMP JUMPDEST DUP6 MSTORE PUSH1 0x20 DUP6 ADD SWAP5 POP POP POP PUSH1 0x20 DUP2 ADD SWAP1 POP PUSH2 0x44A5 JUMP JUMPDEST POP POP POP SWAP4 SWAP3 POP POP POP JUMP JUMPDEST PUSH0 DUP3 PUSH1 0x1F DUP4 ADD SLT PUSH2 0x4508 JUMPI PUSH2 0x4507 PUSH2 0x3E8E JUMP JUMPDEST JUMPDEST DUP2 CALLDATALOAD PUSH2 0x4518 DUP5 DUP3 PUSH1 0x20 DUP7 ADD PUSH2 0x446E JUMP JUMPDEST SWAP2 POP POP SWAP3 SWAP2 POP POP JUMP JUMPDEST PUSH0 DUP1 PUSH0 DUP1 PUSH1 0x80 DUP6 DUP8 SUB SLT ISZERO PUSH2 0x4539 JUMPI PUSH2 0x4538 PUSH2 0x3E86 JUMP JUMPDEST JUMPDEST PUSH0 DUP6 ADD CALLDATALOAD PUSH8 0xFFFFFFFFFFFFFFFF DUP2 GT ISZERO PUSH2 0x4556 JUMPI PUSH2 0x4555 PUSH2 0x3E8A JUMP JUMPDEST JUMPDEST PUSH2 0x4562 DUP8 DUP3 DUP9 ADD PUSH2 0x3F9D JUMP JUMPDEST SWAP5 POP POP PUSH1 0x20 DUP6 ADD CALLDATALOAD PUSH8 0xFFFFFFFFFFFFFFFF DUP2 GT ISZERO PUSH2 0x4583 JUMPI PUSH2 0x4582 PUSH2 0x3E8A JUMP JUMPDEST JUMPDEST PUSH2 0x458F DUP8 DUP3 DUP9 ADD PUSH2 0x3F9D JUMP JUMPDEST SWAP4 POP POP PUSH1 0x40 PUSH2 0x45A0 DUP8 DUP3 DUP9 ADD PUSH2 0x41EA JUMP JUMPDEST SWAP3 POP POP PUSH1 0x60 DUP6 ADD CALLDATALOAD PUSH8 0xFFFFFFFFFFFFFFFF DUP2 GT ISZERO PUSH2 0x45C1 JUMPI PUSH2 0x45C0 PUSH2 0x3E8A JUMP JUMPDEST JUMPDEST PUSH2 0x45CD DUP8 DUP3 DUP9 ADD PUSH2 0x44F4 JUMP JUMPDEST SWAP2 POP POP SWAP3 SWAP6 SWAP2 SWAP5 POP SWAP3 POP JUMP JUMPDEST PUSH0 PUSH2 0x45E3 DUP3 PUSH2 0x42A0 JUMP JUMPDEST SWAP1 POP SWAP2 SWAP1 POP JUMP JUMPDEST PUSH2 0x45F3 DUP2 PUSH2 0x45D9 JUMP JUMPDEST DUP2 EQ PUSH2 0x45FD JUMPI PUSH0 DUP1 REVERT JUMPDEST POP JUMP JUMPDEST PUSH0 DUP2 CALLDATALOAD SWAP1 POP PUSH2 0x460E DUP2 PUSH2 0x45EA JUMP JUMPDEST SWAP3 SWAP2 POP POP JUMP JUMPDEST PUSH0 PUSH1 0x20 DUP3 DUP5 SUB SLT ISZERO PUSH2 0x4629 JUMPI PUSH2 0x4628 PUSH2 0x3E86 JUMP JUMPDEST JUMPDEST PUSH0 PUSH2 0x4636 DUP5 DUP3 DUP6 ADD PUSH2 0x4600 JUMP JUMPDEST SWAP2 POP POP SWAP3 SWAP2 POP POP JUMP JUMPDEST PUSH2 0x4648 DUP2 PUSH2 0x45D9 JUMP JUMPDEST DUP3 MSTORE POP POP JUMP JUMPDEST PUSH0 PUSH1 0x80 DUP3 ADD SWAP1 POP DUP2 DUP2 SUB PUSH0 DUP4 ADD MSTORE PUSH2 0x4666 DUP2 DUP8 PUSH2 0x4268 JUMP JUMPDEST SWAP1 POP DUP2 DUP2 SUB PUSH1 0x20 DUP4 ADD MSTORE PUSH2 0x467A DUP2 DUP7 PUSH2 0x4268 JUMP JUMPDEST SWAP1 POP PUSH2 0x4689 PUSH1 0x40 DUP4 ADD DUP6 PUSH2 0x463F JUMP JUMPDEST DUP2 DUP2 SUB PUSH1 0x60 DUP4 ADD MSTORE PUSH2 0x469B DUP2 DUP5 PUSH2 0x4268 JUMP JUMPDEST SWAP1 POP SWAP6 SWAP5 POP POP POP POP POP JUMP JUMPDEST PUSH2 0x46AF DUP2 PUSH2 0x4119 JUMP JUMPDEST DUP2 EQ PUSH2 0x46B9 JUMPI PUSH0 DUP1 REVERT JUMPDEST POP JUMP JUMPDEST PUSH0 DUP2 CALLDATALOAD SWAP1 POP PUSH2 0x46CA DUP2 PUSH2 0x46A6 JUMP JUMPDEST SWAP3 SWAP2 POP POP JUMP JUMPDEST PUSH0 DUP1 PUSH0 DUP1 PUSH1 0x80 DUP6 DUP8 SUB SLT ISZERO PUSH2 0x46E8 JUMPI PUSH2 0x46E7 PUSH2 0x3E86 JUMP JUMPDEST JUMPDEST PUSH0 DUP6 ADD CALLDATALOAD PUSH8 0xFFFFFFFFFFFFFFFF DUP2 GT ISZERO PUSH2 0x4705 JUMPI PUSH2 0x4704 PUSH2 0x3E8A JUMP JUMPDEST JUMPDEST PUSH2 0x4711 DUP8 DUP3 DUP9 ADD PUSH2 0x3F9D JUMP JUMPDEST SWAP5 POP POP PUSH1 0x20 DUP6 ADD CALLDATALOAD PUSH8 0xFFFFFFFFFFFFFFFF DUP2 GT ISZERO PUSH2 0x4732 JUMPI PUSH2 0x4731 PUSH2 0x3E8A JUMP JUMPDEST JUMPDEST PUSH2 0x473E DUP8 DUP3 DUP9 ADD PUSH2 0x3F9D JUMP JUMPDEST SWAP4 POP POP PUSH1 0x40 PUSH2 0x474F DUP8 DUP3 DUP9 ADD PUSH2 0x46BC JUMP JUMPDEST SWAP3 POP POP PUSH1 0x60 DUP6 ADD CALLDATALOAD PUSH8 0xFFFFFFFFFFFFFFFF DUP2 GT ISZERO PUSH2 0x4770 JUMPI PUSH2 0x476F PUSH2 0x3E8A JUMP JUMPDEST JUMPDEST PUSH2 0x477C DUP8 DUP3 DUP9 ADD PUSH2 0x3F9D JUMP JUMPDEST SWAP2 POP POP SWAP3 SWAP6 SWAP2 SWAP5 POP SWAP3 POP JUMP JUMPDEST PUSH0 DUP1 PUSH0 DUP1 PUSH1 0x80 DUP6 DUP8 SUB SLT ISZERO PUSH2 0x47A0 JUMPI PUSH2 0x479F PUSH2 0x3E86 JUMP JUMPDEST JUMPDEST PUSH0 DUP6 ADD CALLDATALOAD PUSH8 0xFFFFFFFFFFFFFFFF DUP2 GT ISZERO PUSH2 0x47BD JUMPI PUSH2 0x47BC PUSH2 0x3E8A JUMP JUMPDEST JUMPDEST PUSH2 0x47C9 DUP8 DUP3 DUP9 ADD PUSH2 0x3F9D JUMP JUMPDEST SWAP5 POP POP PUSH1 0x20 DUP6 ADD CALLDATALOAD PUSH8 0xFFFFFFFFFFFFFFFF DUP2 GT ISZERO PUSH2 0x47EA JUMPI PUSH2 0x47E9 PUSH2 0x3E8A JUMP JUMPDEST JUMPDEST PUSH2 0x47F6 DUP8 DUP3 DUP9 ADD PUSH2 0x3F9D JUMP JUMPDEST SWAP4 POP POP PUSH1 0x40 DUP6 ADD CALLDATALOAD PUSH8 0xFFFFFFFFFFFFFFFF DUP2 GT ISZERO PUSH2 0x4817 JUMPI PUSH2 0x4816 PUSH2 0x3E8A JUMP JUMPDEST JUMPDEST PUSH2 0x4823 DUP8 DUP3 DUP9 ADD PUSH2 0x3F9D JUMP JUMPDEST SWAP3 POP POP PUSH1 0x60 PUSH2 0x4834 DUP8 DUP3 DUP9 ADD PUSH2 0x41EA JUMP JUMPDEST SWAP2 POP POP SWAP3 SWAP6 SWAP2 SWAP5 POP SWAP3 POP JUMP JUMPDEST PUSH0 PUSH1 0xA0 DUP3 ADD SWAP1 POP DUP2 DUP2 SUB PUSH0 DUP4 ADD MSTORE PUSH2 0x4858 DUP2 DUP9 PUSH2 0x4268 JUMP JUMPDEST SWAP1 POP DUP2 DUP2 SUB PUSH1 0x20 DUP4 ADD MSTORE PUSH2 0x486C DUP2 DUP8 PUSH2 0x4268 JUMP JUMPDEST SWAP1 POP DUP2 DUP2 SUB PUSH1 0x40 DUP4 ADD MSTORE PUSH2 0x4880 DUP2 DUP7 PUSH2 0x4268 JUMP JUMPDEST SWAP1 POP PUSH2 0x488F PUSH1 0x60 DUP4 ADD DUP6 PUSH2 0x42EE JUMP JUMPDEST PUSH2 0x489C PUSH1 0x80 DUP4 ADD DUP5 PUSH2 0x42DF JUMP JUMPDEST SWAP7 SWAP6 POP POP POP POP POP POP JUMP JUMPDEST PUSH0 PUSH1 0x20 DUP3 ADD SWAP1 POP PUSH2 0x48B9 PUSH0 DUP4 ADD DUP5 PUSH2 0x42EE JUMP JUMPDEST SWAP3 SWAP2 POP POP JUMP JUMPDEST PUSH0 DUP2 MLOAD SWAP1 POP SWAP2 SWAP1 POP JUMP JUMPDEST PUSH0 DUP3 DUP3 MSTORE PUSH1 0x20 DUP3 ADD SWAP1 POP SWAP3 SWAP2 POP POP JUMP JUMPDEST PUSH0 DUP2 SWAP1 POP PUSH1 0x20 DUP3 ADD SWAP1 POP SWAP2 SWAP1 POP JUMP JUMPDEST PUSH0 PUSH1 0xA0 DUP4 ADD PUSH0 DUP4 ADD MLOAD DUP5 DUP3 SUB PUSH0 DUP7 ADD MSTORE PUSH2 0x4902 DUP3 DUP3 PUSH2 0x40C9 JUMP JUMPDEST SWAP2 POP POP PUSH1 0x20 DUP4 ADD MLOAD DUP5 DUP3 SUB PUSH1 0x20 DUP7 ADD MSTORE PUSH2 0x491C DUP3 DUP3 PUSH2 0x40C9 JUMP JUMPDEST SWAP2 POP POP PUSH1 0x40 DUP4 ADD MLOAD DUP5 DUP3 SUB PUSH1 0x40 DUP7 ADD MSTORE PUSH2 0x4936 DUP3 DUP3 PUSH2 0x40C9 JUMP JUMPDEST SWAP2 POP POP PUSH1 0x60 DUP4 ADD MLOAD PUSH2 0x494B PUSH1 0x60 DUP7 ADD DUP3 PUSH2 0x410A JUMP JUMPDEST POP PUSH1 0x80 DUP4 ADD MLOAD PUSH2 0x495E PUSH1 0x80 DUP7 ADD DUP3 PUSH2 0x4124 JUMP JUMPDEST POP DUP1 SWAP2 POP POP SWAP3 SWAP2 POP POP JUMP JUMPDEST PUSH0 PUSH2 0x4974 DUP4 DUP4 PUSH2 0x48E8 JUMP JUMPDEST SWAP1 POP SWAP3 SWAP2 POP POP JUMP JUMPDEST PUSH0 PUSH1 0x20 DUP3 ADD SWAP1 POP SWAP2 SWAP1 POP JUMP JUMPDEST PUSH0 PUSH2 0x4992 DUP3 PUSH2 0x48BF JUMP JUMPDEST PUSH2 0x499C DUP2 DUP6 PUSH2 0x48C9 JUMP JUMPDEST SWAP4 POP DUP4 PUSH1 0x20 DUP3 MUL DUP6 ADD PUSH2 0x49AE DUP6 PUSH2 0x48D9 JUMP JUMPDEST DUP1 PUSH0 JUMPDEST DUP6 DUP2 LT ISZERO PUSH2 0x49E9 JUMPI DUP5 DUP5 SUB DUP10 MSTORE DUP2 MLOAD PUSH2 0x49CA DUP6 DUP3 PUSH2 0x4969 JUMP JUMPDEST SWAP5 POP PUSH2 0x49D5 DUP4 PUSH2 0x497C JUMP JUMPDEST SWAP3 POP PUSH1 0x20 DUP11 ADD SWAP10 POP POP PUSH1 0x1 DUP2 ADD SWAP1 POP PUSH2 0x49B1 JUMP JUMPDEST POP DUP3 SWAP8 POP DUP8 SWAP6 POP POP POP POP POP POP SWAP3 SWAP2 POP POP JUMP JUMPDEST PUSH0 PUSH1 0x20 DUP3 ADD SWAP1 POP DUP2 DUP2 SUB PUSH0 DUP4 ADD MSTORE PUSH2 0x4A13 DUP2 DUP5 PUSH2 0x4988 JUMP JUMPDEST SWAP1 POP SWAP3 SWAP2 POP POP JUMP JUMPDEST PUSH0 DUP2 MLOAD SWAP1 POP SWAP2 SWAP1 POP JUMP JUMPDEST PUSH0 DUP3 DUP3 MSTORE PUSH1 0x20 DUP3 ADD SWAP1 POP SWAP3 SWAP2 POP POP JUMP JUMPDEST PUSH0 DUP2 SWAP1 POP PUSH1 0x20 DUP3 ADD SWAP1 POP SWAP2 SWAP1 POP JUMP JUMPDEST PUSH0 PUSH1 0xE0 DUP4 ADD PUSH0 DUP4 ADD MLOAD DUP5 DUP3 SUB PUSH0 DUP7 ADD MSTORE PUSH2 0x4A5E DUP3 DUP3 PUSH2 0x40C9 JUMP JUMPDEST SWAP2 POP POP PUSH1 0x20 DUP4 ADD MLOAD DUP5 DUP3 SUB PUSH1 0x20 DUP7 ADD MSTORE PUSH2 0x4A78 DUP3 DUP3 PUSH2 0x40C9 JUMP JUMPDEST SWAP2 POP POP PUSH1 0x40 DUP4 ADD MLOAD DUP5 DUP3 SUB PUSH1 0x40 DUP7 ADD MSTORE PUSH2 0x4A92 DUP3 DUP3 PUSH2 0x40C9 JUMP JUMPDEST SWAP2 POP POP PUSH1 0x60 DUP4 ADD MLOAD DUP5 DUP3 SUB PUSH1 0x60 DUP7 ADD MSTORE PUSH2 0x4AAC DUP3 DUP3 PUSH2 0x40C9 JUMP JUMPDEST SWAP2 POP POP PUSH1 0x80 DUP4 ADD MLOAD PUSH2 0x4AC1 PUSH1 0x80 DUP7 ADD DUP3 PUSH2 0x410A JUMP JUMPDEST POP PUSH1 0xA0 DUP4 ADD MLOAD PUSH2 0x4AD4 PUSH1 0xA0 DUP7 ADD DUP3 PUSH2 0x410A JUMP JUMPDEST POP PUSH1 0xC0 DUP4 ADD MLOAD DUP5 DUP3 SUB PUSH1 0xC0 DUP7 ADD MSTORE PUSH2 0x4AEC DUP3 DUP3 PUSH2 0x40C9 JUMP JUMPDEST SWAP2 POP POP DUP1 SWAP2 POP POP SWAP3 SWAP2 POP POP JUMP JUMPDEST PUSH0 PUSH2 0x4B04 DUP4 DUP4 PUSH2 0x4A44 JUMP JUMPDEST SWAP1 POP SWAP3 SWAP2 POP POP JUMP JUMPDEST PUSH0 PUSH1 0x20 DUP3 ADD SWAP1 POP SWAP2 SWAP1 POP JUMP JUMPDEST PUSH0 PUSH2 0x4B22 DUP3 PUSH2 0x4A1B JUMP JUMPDEST PUSH2 0x4B2C DUP2 DUP6 PUSH2 0x4A25 JUMP JUMPDEST SWAP4 POP DUP4 PUSH1 0x20 DUP3 MUL DUP6 ADD PUSH2 0x4B3E DUP6 PUSH2 0x4A35 JUMP JUMPDEST DUP1 PUSH0 JUMPDEST DUP6 DUP2 LT ISZERO PUSH2 0x4B79 JUMPI DUP5 DUP5 SUB DUP10 MSTORE DUP2 MLOAD PUSH2 0x4B5A DUP6 DUP3 PUSH2 0x4AF9 JUMP JUMPDEST SWAP5 POP PUSH2 0x4B65 DUP4 PUSH2 0x4B0C JUMP JUMPDEST SWAP3 POP PUSH1 0x20 DUP11 ADD SWAP10 POP POP PUSH1 0x1 DUP2 ADD SWAP1 POP PUSH2 0x4B41 JUMP JUMPDEST POP DUP3 SWAP8 POP DUP8 SWAP6 POP POP POP POP POP POP SWAP3 SWAP2 POP POP JUMP JUMPDEST PUSH0 PUSH1 0x20 DUP3 ADD SWAP1 POP DUP2 DUP2 SUB PUSH0 DUP4 ADD MSTORE PUSH2 0x4BA3 DUP2 DUP5 PUSH2 0x4B18 JUMP JUMPDEST SWAP1 POP SWAP3 SWAP2 POP POP JUMP JUMPDEST PUSH0 DUP1 PUSH0 DUP1 PUSH1 0x80 DUP6 DUP8 SUB SLT ISZERO PUSH2 0x4BC3 JUMPI PUSH2 0x4BC2 PUSH2 0x3E86 JUMP JUMPDEST JUMPDEST PUSH0 DUP6 ADD CALLDATALOAD PUSH8 0xFFFFFFFFFFFFFFFF DUP2 GT ISZERO PUSH2 0x4BE0 JUMPI PUSH2 0x4BDF PUSH2 0x3E8A JUMP JUMPDEST JUMPDEST PUSH2 0x4BEC DUP8 DUP3 DUP9 ADD PUSH2 0x3F9D JUMP JUMPDEST SWAP5 POP POP PUSH1 0x20 PUSH2 0x4BFD DUP8 DUP3 DUP9 ADD PUSH2 0x41EA JUMP JUMPDEST SWAP4 POP POP PUSH1 0x40 PUSH2 0x4C0E DUP8 DUP3 DUP9 ADD PUSH2 0x41EA JUMP JUMPDEST SWAP3 POP POP PUSH1 0x60 PUSH2 0x4C1F DUP8 DUP3 DUP9 ADD PUSH2 0x41EA JUMP JUMPDEST SWAP2 POP POP SWAP3 SWAP6 SWAP2 SWAP5 POP SWAP3 POP JUMP JUMPDEST PUSH0 PUSH1 0x20 DUP3 DUP5 SUB SLT ISZERO PUSH2 0x4C40 JUMPI PUSH2 0x4C3F PUSH2 0x3E86 JUMP JUMPDEST JUMPDEST PUSH0 PUSH2 0x4C4D DUP5 DUP3 DUP6 ADD PUSH2 0x41EA JUMP JUMPDEST SWAP2 POP POP SWAP3 SWAP2 POP POP JUMP JUMPDEST PUSH0 PUSH1 0x20 DUP3 ADD SWAP1 POP DUP2 DUP2 SUB PUSH0 DUP4 ADD MSTORE PUSH2 0x4C6E DUP2 DUP5 PUSH2 0x4268 JUMP JUMPDEST SWAP1 POP SWAP3 SWAP2 POP POP JUMP JUMPDEST PUSH0 DUP2 SWAP1 POP SWAP3 SWAP2 POP POP JUMP JUMPDEST PUSH0 PUSH2 0x4C8A DUP3 PUSH2 0x4087 JUMP JUMPDEST PUSH2 0x4C94 DUP2 DUP6 PUSH2 0x4C76 JUMP JUMPDEST SWAP4 POP PUSH2 0x4CA4 DUP2 DUP6 PUSH1 0x20 DUP7 ADD PUSH2 0x40A1 JUMP JUMPDEST DUP1 DUP5 ADD SWAP2 POP POP SWAP3 SWAP2 POP POP JUMP JUMPDEST PUSH0 PUSH2 0x4CBB DUP3 DUP5 PUSH2 0x4C80 JUMP JUMPDEST SWAP2 POP DUP2 SWAP1 POP SWAP3 SWAP2 POP POP JUMP JUMPDEST PUSH32 0x4E487B7100000000000000000000000000000000000000000000000000000000 PUSH0 MSTORE PUSH1 0x22 PUSH1 0x4 MSTORE PUSH1 0x24 PUSH0 REVERT JUMPDEST PUSH0 PUSH1 0x2 DUP3 DIV SWAP1 POP PUSH1 0x1 DUP3 AND DUP1 PUSH2 0x4D0A JUMPI PUSH1 0x7F DUP3 AND SWAP2 POP JUMPDEST PUSH1 0x20 DUP3 LT DUP2 SUB PUSH2 0x4D1D JUMPI PUSH2 0x4D1C PUSH2 0x4CC6 JUMP JUMPDEST JUMPDEST POP SWAP2 SWAP1 POP JUMP JUMPDEST PUSH0 DUP2 SWAP1 POP DUP2 PUSH0 MSTORE PUSH1 0x20 PUSH0 KECCAK256 SWAP1 POP SWAP2 SWAP1 POP JUMP JUMPDEST PUSH0 DUP2 SLOAD PUSH2 0x4D41 DUP2 PUSH2 0x4CF3 JUMP JUMPDEST PUSH2 0x4D4B DUP2 DUP7 PUSH2 0x4C76 JUMP JUMPDEST SWAP5 POP PUSH1 0x1 DUP3 AND PUSH0 DUP2 EQ PUSH2 0x4D65 JUMPI PUSH1 0x1 DUP2 EQ PUSH2 0x4D7A JUMPI PUSH2 0x4DAC JUMP JUMPDEST PUSH1 0xFF NOT DUP4 AND DUP7 MSTORE DUP2 ISZERO ISZERO DUP3 MUL DUP7 ADD SWAP4 POP PUSH2 0x4DAC JUMP JUMPDEST PUSH2 0x4D83 DUP6 PUSH2 0x4D23 JUMP JUMPDEST PUSH0 JUMPDEST DUP4 DUP2 LT ISZERO PUSH2 0x4DA4 JUMPI DUP2 SLOAD DUP2 DUP10 ADD MSTORE PUSH1 0x1 DUP3 ADD SWAP2 POP PUSH1 0x20 DUP2 ADD SWAP1 POP PUSH2 0x4D85 JUMP JUMPDEST DUP4 DUP9 ADD SWAP6 POP POP POP JUMPDEST POP POP POP SWAP3 SWAP2 POP POP JUMP JUMPDEST PUSH0 PUSH2 0x4DC0 DUP3 DUP5 PUSH2 0x4D35 JUMP JUMPDEST SWAP2 POP DUP2 SWAP1 POP SWAP3 SWAP2 POP POP JUMP JUMPDEST PUSH0 PUSH1 0x20 PUSH1 0x1F DUP4 ADD DIV SWAP1 POP SWAP2 SWAP1 POP JUMP JUMPDEST PUSH0 DUP3 DUP3 SHL SWAP1 POP SWAP3 SWAP2 POP POP JUMP JUMPDEST PUSH0 PUSH1 0x8 DUP4 MUL PUSH2 0x4E15 PUSH32 0xFFFFFFFFFFFFFFFFFFFFFFFFFFFFFFFFFFFFFFFFFFFFFFFFFFFFFFFFFFFFFFFF DUP3 PUSH2 0x4DDA JUMP JUMPDEST PUSH2 0x4E1F DUP7 DUP4 PUSH2 0x4DDA JUMP JUMPDEST SWAP6 POP DUP1 NOT DUP5 AND SWAP4 POP DUP1 DUP7 AND DUP5 OR SWAP3 POP POP POP SWAP4 SWAP3 POP POP POP JUMP JUMPDEST PUSH0 DUP2 SWAP1 POP SWAP2 SWAP1 POP JUMP JUMPDEST PUSH0 PUSH2 0x4E5A PUSH2 0x4E55 PUSH2 0x4E50 DUP5 PUSH2 0x4101 JUMP JUMPDEST PUSH2 0x4E37 JUMP JUMPDEST PUSH2 0x4101 JUMP JUMPDEST SWAP1 POP SWAP2 SWAP1 POP JUMP JUMPDEST PUSH0 DUP2 SWAP1 POP SWAP2 SWAP1 POP JUMP JUMPDEST PUSH2 0x4E73 DUP4 PUSH2 0x4E40 JUMP JUMPDEST PUSH2 0x4E87 PUSH2 0x4E7F DUP3 PUSH2 0x4E61 JUMP JUMPDEST DUP5 DUP5 SLOAD PUSH2 0x4DE6 JUMP JUMPDEST DUP3 SSTORE POP POP POP POP JUMP JUMPDEST PUSH0 SWAP1 JUMP JUMPDEST PUSH2 0x4E9B PUSH2 0x4E8F JUMP JUMPDEST PUSH2 0x4EA6 DUP2 DUP5 DUP5 PUSH2 0x4E6A JUMP JUMPDEST POP POP POP JUMP JUMPDEST JUMPDEST DUP2 DUP2 LT ISZERO PUSH2 0x4EC9 JUMPI PUSH2 0x4EBE PUSH0 DUP3 PUSH2 0x4E93 JUMP JUMPDEST PUSH1 0x1 DUP2 ADD SWAP1 POP PUSH2 0x4EAC JUMP JUMPDEST POP POP JUMP JUMPDEST PUSH1 0x1F DUP3 GT ISZERO PUSH2 0x4F0E JUMPI PUSH2 0x4EDF DUP2 PUSH2 0x4D23 JUMP JUMPDEST PUSH2 0x4EE8 DUP5 PUSH2 0x4DCB JUMP JUMPDEST DUP2 ADD PUSH1 0x20 DUP6 LT ISZERO PUSH2 0x4EF7 JUMPI DUP2 SWAP1 POP JUMPDEST PUSH2 0x4F0B PUSH2 0x4F03 DUP6 PUSH2 0x4DCB JUMP JUMPDEST DUP4 ADD DUP3 PUSH2 0x4EAB JUMP JUMPDEST POP POP JUMPDEST POP POP POP JUMP JUMPDEST PUSH0 DUP3 DUP3 SHR SWAP1 POP SWAP3 SWAP2 POP POP JUMP JUMPDEST PUSH0 PUSH2 0x4F2E PUSH0 NOT DUP5 PUSH1 0x8 MUL PUSH2 0x4F13 JUMP JUMPDEST NOT DUP1 DUP4 AND SWAP2 POP POP SWAP3 SWAP2 POP POP JUMP JUMPDEST PUSH0 PUSH2 0x4F46 DUP4 DUP4 PUSH2 0x4F1F JUMP JUMPDEST SWAP2 POP DUP3 PUSH1 0x2 MUL DUP3 OR SWAP1 POP SWAP3 SWAP2 POP POP JUMP JUMPDEST PUSH2 0x4F5F DUP3 PUSH2 0x4087 JUMP JUMPDEST PUSH8 0xFFFFFFFFFFFFFFFF DUP2 GT ISZERO PUSH2 0x4F78 JUMPI PUSH2 0x4F77 PUSH2 0x3EA6 JUMP JUMPDEST JUMPDEST PUSH2 0x4F82 DUP3 SLOAD PUSH2 0x4CF3 JUMP JUMPDEST PUSH2 0x4F8D DUP3 DUP3 DUP6 PUSH2 0x4ECD JUMP JUMPDEST PUSH0 PUSH1 0x20 SWAP1 POP PUSH1 0x1F DUP4 GT PUSH1 0x1 DUP2 EQ PUSH2 0x4FBE JUMPI PUSH0 DUP5 ISZERO PUSH2 0x4FAC JUMPI DUP3 DUP8 ADD MLOAD SWAP1 POP JUMPDEST PUSH2 0x4FB6 DUP6 DUP3 PUSH2 0x4F3B JUMP JUMPDEST DUP7 SSTORE POP PUSH2 0x501D JUMP JUMPDEST PUSH1 0x1F NOT DUP5 AND PUSH2 0x4FCC DUP7 PUSH2 0x4D23 JUMP JUMPDEST PUSH0 JUMPDEST DUP3 DUP2 LT ISZERO PUSH2 0x4FF3 JUMPI DUP5 DUP10 ADD MLOAD DUP3 SSTORE PUSH1 0x1 DUP3 ADD SWAP2 POP PUSH1 0x20 DUP6 ADD SWAP5 POP PUSH1 0x20 DUP2 ADD SWAP1 POP PUSH2 0x4FCE JUMP JUMPDEST DUP7 DUP4 LT ISZERO PUSH2 0x5010 JUMPI DUP5 DUP10 ADD MLOAD PUSH2 0x500C PUSH1 0x1F DUP10 AND DUP3 PUSH2 0x4F1F JUMP JUMPDEST DUP4 SSTORE POP JUMPDEST PUSH1 0x1 PUSH1 0x2 DUP9 MUL ADD DUP9 SSTORE POP POP POP JUMPDEST POP POP POP POP POP POP JUMP JUMPDEST PUSH32 0x4E487B7100000000000000000000000000000000000000000000000000000000 PUSH0 MSTORE PUSH1 0x11 PUSH1 0x4 MSTORE PUSH1 0x24 PUSH0 REVERT JUMPDEST PUSH0 PUSH2 0x505C DUP3 PUSH2 0x4101 JUMP JUMPDEST SWAP2 POP PUSH2 0x5067 DUP4 PUSH2 0x4101 JUMP JUMPDEST SWAP3 POP DUP3 DUP3 MUL PUSH2 0x5075 DUP2 PUSH2 0x4101 JUMP JUMPDEST SWAP2 POP DUP3 DUP3 DIV DUP5 EQ DUP4 ISZERO OR PUSH2 0x508C JUMPI PUSH2 0x508B PUSH2 0x5025 JUMP JUMPDEST JUMPDEST POP SWAP3 SWAP2 POP POP JUMP JUMPDEST PUSH0 PUSH1 0x40 DUP3 ADD SWAP1 POP PUSH2 0x50A6 PUSH0 DUP4 ADD DUP6 PUSH2 0x463F JUMP JUMPDEST PUSH2 0x50B3 PUSH1 0x20 DUP4 ADD DUP5 PUSH2 0x42EE JUMP JUMPDEST SWAP4 SWAP3 POP POP POP JUMP JUMPDEST PUSH0 DUP2 MLOAD SWAP1 POP PUSH2 0x50C8 DUP2 PUSH2 0x46A6 JUMP JUMPDEST SWAP3 SWAP2 POP POP JUMP JUMPDEST PUSH0 PUSH1 0x20 DUP3 DUP5 SUB SLT ISZERO PUSH2 0x50E3 JUMPI PUSH2 0x50E2 PUSH2 0x3E86 JUMP JUMPDEST JUMPDEST PUSH0 PUSH2 0x50F0 DUP5 DUP3 DUP6 ADD PUSH2 0x50BA JUMP JUMPDEST SWAP2 POP POP SWAP3 SWAP2 POP POP JUMP JUMPDEST PUSH0 PUSH2 0x5113 PUSH2 0x510E PUSH2 0x5109 DUP5 PUSH2 0x42A0 JUMP JUMPDEST PUSH2 0x4E37 JUMP JUMPDEST PUSH2 0x42A0 JUMP JUMPDEST SWAP1 POP SWAP2 SWAP1 POP JUMP JUMPDEST PUSH0 PUSH2 0x5124 DUP3 PUSH2 0x50F9 JUMP JUMPDEST SWAP1 POP SWAP2 SWAP1 POP JUMP JUMPDEST PUSH0 PUSH2 0x5135 DUP3 PUSH2 0x511A JUMP JUMPDEST SWAP1 POP SWAP2 SWAP1 POP JUMP JUMPDEST PUSH2 0x5145 DUP2 PUSH2 0x512B JUMP JUMPDEST DUP3 MSTORE POP POP JUMP JUMPDEST PUSH0 PUSH1 0x60 DUP3 ADD SWAP1 POP PUSH2 0x515E PUSH0 DUP4 ADD DUP7 PUSH2 0x463F JUMP JUMPDEST PUSH2 0x516B PUSH1 0x20 DUP4 ADD DUP6 PUSH2 0x513C JUMP JUMPDEST PUSH2 0x5178 PUSH1 0x40 DUP4 ADD DUP5 PUSH2 0x42EE JUMP JUMPDEST SWAP5 SWAP4 POP POP POP POP JUMP JUMPDEST PUSH0 DUP2 PUSH1 0x60 SHL SWAP1 POP SWAP2 SWAP1 POP JUMP JUMPDEST PUSH0 PUSH2 0x5196 DUP3 PUSH2 0x5180 JUMP JUMPDEST SWAP1 POP SWAP2 SWAP1 POP JUMP JUMPDEST PUSH0 PUSH2 0x51A7 DUP3 PUSH2 0x518C JUMP JUMPDEST SWAP1 POP SWAP2 SWAP1 POP JUMP JUMPDEST PUSH2 0x51BF PUSH2 0x51BA DUP3 PUSH2 0x45D9 JUMP JUMPDEST PUSH2 0x519D JUMP JUMPDEST DUP3 MSTORE POP POP JUMP JUMPDEST PUSH0 PUSH2 0x51D0 DUP3 DUP5 PUSH2 0x51AE JUMP JUMPDEST PUSH1 0x14 DUP3 ADD SWAP2 POP DUP2 SWAP1 POP SWAP3 SWAP2 POP POP JUMP JUMPDEST PUSH0 DUP2 SWAP1 POP SWAP2 SWAP1 POP JUMP JUMPDEST PUSH0 PUSH2 0x5202 PUSH2 0x51FD PUSH2 0x51F8 DUP5 PUSH2 0x51DF JUMP JUMPDEST PUSH2 0x4E37 JUMP JUMPDEST PUSH2 0x4101 JUMP JUMPDEST SWAP1 POP SWAP2 SWAP1 POP JUMP JUMPDEST PUSH2 0x5212 DUP2 PUSH2 0x51E8 JUMP JUMPDEST DUP3 MSTORE POP POP JUMP JUMPDEST PUSH0 PUSH1 0x20 DUP3 ADD SWAP1 POP PUSH2 0x522B PUSH0 DUP4 ADD DUP5 PUSH2 0x5209 JUMP JUMPDEST SWAP3 SWAP2 POP POP JUMP JUMPDEST PUSH0 PUSH1 0x40 DUP3 ADD SWAP1 POP PUSH2 0x5244 PUSH0 DUP4 ADD DUP6 PUSH2 0x463F JUMP JUMPDEST PUSH2 0x5251 PUSH1 0x20 DUP4 ADD DUP5 PUSH2 0x5209 JUMP JUMPDEST SWAP4 SWAP3 POP POP POP JUMP JUMPDEST PUSH0 PUSH2 0x5262 DUP3 PUSH2 0x4101 JUMP JUMPDEST SWAP2 POP PUSH2 0x526D DUP4 PUSH2 0x4101 JUMP JUMPDEST SWAP3 POP DUP3 DUP3 ADD SWAP1 POP DUP1 DUP3 GT ISZERO PUSH2 0x5285 JUMPI PUSH2 0x5284 PUSH2 0x5025 JUMP JUMPDEST JUMPDEST SWAP3 SWAP2 POP POP JUMP JUMPDEST PUSH0 PUSH2 0x5296 DUP3 DUP6 PUSH2 0x4C80 JUMP JUMPDEST SWAP2 POP PUSH2 0x52A2 DUP3 DUP5 PUSH2 0x51AE JUMP JUMPDEST PUSH1 0x14 DUP3 ADD SWAP2 POP DUP2 SWAP1 POP SWAP4 SWAP3 POP POP POP JUMP JUMPDEST PUSH32 0x4E487B7100000000000000000000000000000000000000000000000000000000 PUSH0 MSTORE PUSH1 0x12 PUSH1 0x4 MSTORE PUSH1 0x24 PUSH0 REVERT JUMPDEST PUSH0 PUSH2 0x52E9 DUP3 PUSH2 0x4101 JUMP JUMPDEST SWAP2 POP PUSH2 0x52F4 DUP4 PUSH2 0x4101 JUMP JUMPDEST SWAP3 POP DUP3 PUSH2 0x5304 JUMPI PUSH2 0x5303 PUSH2 0x52B2 JUMP JUMPDEST JUMPDEST DUP3 DUP3 DIV SWAP1 POP SWAP3 SWAP2 POP POP JUMP JUMPDEST PUSH0 PUSH2 0x5319 DUP3 PUSH2 0x4101 JUMP JUMPDEST SWAP2 POP PUSH2 0x5324 DUP4 PUSH2 0x4101 JUMP JUMPDEST SWAP3 POP DUP3 DUP3 SUB SWAP1 POP DUP2 DUP2 GT ISZERO PUSH2 0x533C JUMPI PUSH2 0x533B PUSH2 0x5025 JUMP JUMPDEST JUMPDEST SWAP3 SWAP2 POP POP JUMP JUMPDEST PUSH0 DUP2 SWAP1 POP SWAP2 SWAP1 POP JUMP JUMPDEST PUSH2 0x535C PUSH2 0x5357 DUP3 PUSH2 0x4101 JUMP JUMPDEST PUSH2 0x5342 JUMP JUMPDEST DUP3 MSTORE POP POP JUMP JUMPDEST PUSH0 PUSH2 0x536D DUP3 DUP7 PUSH2 0x4D35 JUMP JUMPDEST SWAP2 POP PUSH2 0x5379 DUP3 DUP6 PUSH2 0x4C80 JUMP JUMPDEST SWAP2 POP PUSH2 0x5385 DUP3 DUP5 PUSH2 0x534B JUMP JUMPDEST PUSH1 0x20 DUP3 ADD SWAP2 POP DUP2 SWAP1 POP SWAP5 SWAP4 POP POP POP POP JUMP JUMPDEST PUSH0 DUP2 SWAP1 POP SWAP2 SWAP1 POP JUMP JUMPDEST PUSH0 PUSH2 0x53B9 PUSH2 0x53B4 PUSH2 0x53AF DUP5 PUSH2 0x5396 JUMP JUMPDEST PUSH2 0x4E37 JUMP JUMPDEST PUSH2 0x4101 JUMP JUMPDEST SWAP1 POP SWAP2 SWAP1 POP JUMP JUMPDEST PUSH2 0x53C9 DUP2 PUSH2 0x539F JUMP JUMPDEST DUP3 MSTORE POP POP JUMP JUMPDEST PUSH0 PUSH1 0x20 DUP3 ADD SWAP1 POP PUSH2 0x53E2 PUSH0 DUP4 ADD DUP5 PUSH2 0x53C0 JUMP JUMPDEST SWAP3 SWAP2 POP POP JUMP JUMPDEST PUSH0 PUSH1 0x40 DUP3 ADD SWAP1 POP PUSH2 0x53FB PUSH0 DUP4 ADD DUP6 PUSH2 0x463F JUMP JUMPDEST PUSH2 0x5408 PUSH1 0x20 DUP4 ADD DUP5 PUSH2 0x53C0 JUMP JUMPDEST SWAP4 SWAP3 POP POP POP JUMP JUMPDEST PUSH32 0x4E487B7100000000000000000000000000000000000000000000000000000000 PUSH0 MSTORE PUSH1 0x32 PUSH1 0x4 MSTORE PUSH1 0x24 PUSH0 REVERT JUMPDEST PUSH0 PUSH1 0x60 DUP3 ADD SWAP1 POP PUSH2 0x544F PUSH0 DUP4 ADD DUP7 PUSH2 0x513C JUMP JUMPDEST PUSH2 0x545C PUSH1 0x20 DUP4 ADD DUP6 PUSH2 0x463F JUMP JUMPDEST PUSH2 0x5469 PUSH1 0x40 DUP4 ADD DUP5 PUSH2 0x42EE JUMP JUMPDEST SWAP5 SWAP4 POP POP POP POP JUMP JUMPDEST PUSH0 PUSH2 0x547B DUP3 PUSH2 0x4101 JUMP JUMPDEST SWAP2 POP PUSH32 0xFFFFFFFFFFFFFFFFFFFFFFFFFFFFFFFFFFFFFFFFFFFFFFFFFFFFFFFFFFFFFFFF DUP3 SUB PUSH2 0x54AD JUMPI PUSH2 0x54AC PUSH2 0x5025 JUMP JUMPDEST JUMPDEST PUSH1 0x1 DUP3 ADD SWAP1 POP SWAP2 SWAP1 POP JUMP JUMPDEST PUSH0 PUSH2 0x54C3 DUP3 DUP7 PUSH2 0x4C80 JUMP JUMPDEST SWAP2 POP PUSH2 0x54CF DUP3 DUP6 PUSH2 0x51AE JUMP JUMPDEST PUSH1 0x14 DUP3 ADD SWAP2 POP PUSH2 0x54DF DUP3 DUP5 PUSH2 0x534B JUMP JUMPDEST PUSH1 0x20 DUP3 ADD SWAP2 POP DUP2 SWAP1 POP SWAP5 SWAP4 POP POP POP POP JUMP JUMPDEST PUSH0 PUSH1 0x20 DUP3 ADD SWAP1 POP PUSH2 0x5503 PUSH0 DUP4 ADD DUP5 PUSH2 0x463F JUMP JUMPDEST SWAP3 SWAP2 POP POP JUMP JUMPDEST PUSH0 DUP2 MLOAD SWAP1 POP PUSH2 0x5517 DUP2 PUSH2 0x41D4 JUMP JUMPDEST SWAP3 SWAP2 POP POP JUMP JUMPDEST PUSH0 PUSH1 0x20 DUP3 DUP5 SUB SLT ISZERO PUSH2 0x5532 JUMPI PUSH2 0x5531 PUSH2 0x3E86 JUMP JUMPDEST JUMPDEST PUSH0 PUSH2 0x553F DUP5 DUP3 DUP6 ADD PUSH2 0x5509 JUMP JUMPDEST SWAP2 POP POP SWAP3 SWAP2 POP POP JUMP JUMPDEST PUSH0 PUSH2 0x5553 DUP3 DUP6 PUSH2 0x4C80 JUMP JUMPDEST SWAP2 POP PUSH2 0x555F DUP3 DUP5 PUSH2 0x534B JUMP JUMPDEST PUSH1 0x20 DUP3 ADD SWAP2 POP DUP2 SWAP1 POP SWAP4 SWAP3 POP POP POP JUMP JUMPDEST PUSH0 PUSH2 0x557A DUP3 DUP7 PUSH2 0x534B JUMP JUMPDEST PUSH1 0x20 DUP3 ADD SWAP2 POP PUSH2 0x558A DUP3 DUP6 PUSH2 0x534B JUMP JUMPDEST PUSH1 0x20 DUP3 ADD SWAP2 POP PUSH2 0x559A DUP3 DUP5 PUSH2 0x534B JUMP JUMPDEST PUSH1 0x20 DUP3 ADD SWAP2 POP DUP2 SWAP1 POP SWAP5 SWAP4 POP POP POP POP JUMP JUMPDEST PUSH0 PUSH2 0x55B5 DUP3 PUSH2 0x4101 JUMP JUMPDEST SWAP2 POP PUSH2 0x55C0 DUP4 PUSH2 0x4101 JUMP JUMPDEST SWAP3 POP DUP3 PUSH2 0x55D0 JUMPI PUSH2 0x55CF PUSH2 0x52B2 JUMP JUMPDEST JUMPDEST DUP3 DUP3 MOD SWAP1 POP SWAP3 SWAP2 POP POP JUMP JUMPDEST PUSH0 PUSH1 0xFF DUP3 AND SWAP1 POP SWAP2 SWAP1 POP JUMP JUMPDEST PUSH0 PUSH2 0x55F1 DUP3 PUSH2 0x55DB JUMP JUMPDEST SWAP2 POP PUSH2 0x55FC DUP4 PUSH2 0x55DB JUMP JUMPDEST SWAP3 POP DUP3 DUP3 ADD SWAP1 POP PUSH1 0xFF DUP2 GT ISZERO PUSH2 0x5615 JUMPI PUSH2 0x5614 PUSH2 0x5025 JUMP JUMPDEST JUMPDEST SWAP3 SWAP2 POP POP JUMP JUMPDEST PUSH0 PUSH2 0x5625 DUP3 PUSH2 0x4101 JUMP JUMPDEST SWAP2 POP PUSH0 DUP3 SUB PUSH2 0x5637 JUMPI PUSH2 0x5636 PUSH2 0x5025 JUMP JUMPDEST JUMPDEST PUSH1 0x1 DUP3 SUB SWAP1 POP SWAP2 SWAP1 POP JUMP JUMPDEST PUSH32 0x537472696E67733A20686578206C656E67746820696E73756666696369656E74 PUSH0 DUP3 ADD MSTORE POP JUMP JUMPDEST PUSH0 PUSH2 0x5676 PUSH1 0x20 DUP4 PUSH2 0x4258 JUMP JUMPDEST SWAP2 POP PUSH2 0x5681 DUP3 PUSH2 0x5642 JUMP JUMPDEST PUSH1 0x20 DUP3 ADD SWAP1 POP SWAP2 SWAP1 POP JUMP JUMPDEST PUSH0 PUSH1 0x20 DUP3 ADD SWAP1 POP DUP2 DUP2 SUB PUSH0 DUP4 ADD MSTORE PUSH2 0x56A3 DUP2 PUSH2 0x566A JUMP JUMPDEST SWAP1 POP SWAP2 SWAP1 POP JUMP INVALID LOG2 PUSH5 0x6970667358 0x22 SLT KECCAK256 0xD7 STATICCALL DUP5 0xDA 0x27 0xCB 0xC3 0xD8 0xBD 0xD2 SLT XOR DUP7 PUSH31 0xF3880359701F0DA78B0A7C57D54AA2D1F63B64736F6C634300081500336080 PUSH1 0x40 MSTORE CALLVALUE DUP1 ISZERO PUSH3 0x10 JUMPI PUSH0 DUP1 REVERT JUMPDEST POP PUSH1 0x40 MLOAD DUP1 PUSH1 0x40 ADD PUSH1 0x40 MSTORE DUP1 PUSH1 0x8 DUP2 MSTORE PUSH1 0x20 ADD PUSH32 0x666C6970436F696E000000000000000000000000000000000000000000000000 DUP2 MSTORE POP PUSH1 0x40 MLOAD DUP1 PUSH1 0x40 ADD PUSH1 0x40 MSTORE DUP1 PUSH1 0x2 DUP2 MSTORE PUSH1 0x20 ADD PUSH32 0x4650000000000000000000000000000000000000000000000000000000000000 DUP2 MSTORE POP DUP2 PUSH1 0x3 SWAP1 DUP2 PUSH3 0x8E SWAP2 SWAP1 PUSH3 0x3F7 JUMP JUMPDEST POP DUP1 PUSH1 0x4 SWAP1 DUP2 PUSH3 0xA0 SWAP2 SWAP1 PUSH3 0x3F7 JUMP JUMPDEST POP POP POP PUSH3 0xC3 PUSH3 0xB7 PUSH3 0xC9 PUSH1 0x20 SHL PUSH1 0x20 SHR JUMP JUMPDEST PUSH3 0xD0 PUSH1 0x20 SHL PUSH1 0x20 SHR JUMP JUMPDEST PUSH3 0x4DB JUMP JUMPDEST PUSH0 CALLER SWAP1 POP SWAP1 JUMP JUMPDEST PUSH0 PUSH1 0x5 PUSH0 SWAP1 SLOAD SWAP1 PUSH2 0x100 EXP SWAP1 DIV PUSH20 0xFFFFFFFFFFFFFFFFFFFFFFFFFFFFFFFFFFFFFFFF AND SWAP1 POP DUP2 PUSH1 0x5 PUSH0 PUSH2 0x100 EXP DUP2 SLOAD DUP2 PUSH20 0xFFFFFFFFFFFFFFFFFFFFFFFFFFFFFFFFFFFFFFFF MUL NOT AND SWAP1 DUP4 PUSH20 0xFFFFFFFFFFFFFFFFFFFFFFFFFFFFFFFFFFFFFFFF AND MUL OR SWAP1 SSTORE POP DUP2 PUSH20 0xFFFFFFFFFFFFFFFFFFFFFFFFFFFFFFFFFFFFFFFF AND DUP2 PUSH20 0xFFFFFFFFFFFFFFFFFFFFFFFFFFFFFFFFFFFFFFFF AND PUSH32 0x8BE0079C531659141344CD1FD0A4F28419497F9722A3DAAFE3B4186F6B6457E0 PUSH1 0x40 MLOAD PUSH1 0x40 MLOAD DUP1 SWAP2 SUB SWAP1 LOG3 POP POP JUMP JUMPDEST PUSH0 DUP2 MLOAD SWAP1 POP SWAP2 SWAP1 POP JUMP JUMPDEST PUSH32 0x4E487B7100000000000000000000000000000000000000000000000000000000 PUSH0 MSTORE PUSH1 0x41 PUSH1 0x4 MSTORE PUSH1 0x24 PUSH0 REVERT JUMPDEST PUSH32 0x4E487B7100000000000000000000000000000000000000000000000000000000 PUSH0 MSTORE PUSH1 0x22 PUSH1 0x4 MSTORE PUSH1 0x24 PUSH0 REVERT JUMPDEST PUSH0 PUSH1 0x2 DUP3 DIV SWAP1 POP PUSH1 0x1 DUP3 AND DUP1 PUSH3 0x20F JUMPI PUSH1 0x7F DUP3 AND SWAP2 POP JUMPDEST PUSH1 0x20 DUP3 LT DUP2 SUB PUSH3 0x225 JUMPI PUSH3 0x224 PUSH3 0x1CA JUMP JUMPDEST JUMPDEST POP SWAP2 SWAP1 POP JUMP JUMPDEST PUSH0 DUP2 SWAP1 POP DUP2 PUSH0 MSTORE PUSH1 0x20 PUSH0 KECCAK256 SWAP1 POP SWAP2 SWAP1 POP JUMP JUMPDEST PUSH0 PUSH1 0x20 PUSH1 0x1F DUP4 ADD DIV SWAP1 POP SWAP2 SWAP1 POP JUMP JUMPDEST PUSH0 DUP3 DUP3 SHL SWAP1 POP SWAP3 SWAP2 POP POP JUMP JUMPDEST PUSH0 PUSH1 0x8 DUP4 MUL PUSH3 0x289 PUSH32 0xFFFFFFFFFFFFFFFFFFFFFFFFFFFFFFFFFFFFFFFFFFFFFFFFFFFFFFFFFFFFFFFF DUP3 PUSH3 0x24C JUMP JUMPDEST PUSH3 0x295 DUP7 DUP4 PUSH3 0x24C JUMP JUMPDEST SWAP6 POP DUP1 NOT DUP5 AND SWAP4 POP DUP1 DUP7 AND DUP5 OR SWAP3 POP POP POP SWAP4 SWAP3 POP POP POP JUMP JUMPDEST PUSH0 DUP2 SWAP1 POP SWAP2 SWAP1 POP JUMP JUMPDEST PUSH0 DUP2 SWAP1 POP SWAP2 SWAP1 POP JUMP JUMPDEST PUSH0 PUSH3 0x2DF PUSH3 0x2D9 PUSH3 0x2D3 DUP5 PUSH3 0x2AD JUMP JUMPDEST PUSH3 0x2B6 JUMP JUMPDEST PUSH3 0x2AD JUMP JUMPDEST SWAP1 POP SWAP2 SWAP1 POP JUMP JUMPDEST PUSH0 DUP2 SWAP1 POP SWAP2 SWAP1 POP JUMP JUMPDEST PUSH3 0x2FA DUP4 PUSH3 0x2BF JUMP JUMPDEST PUSH3 0x312 PUSH3 0x309 DUP3 PUSH3 0x2E6 JUMP JUMPDEST DUP5 DUP5 SLOAD PUSH3 0x258 JUMP JUMPDEST DUP3 SSTORE POP POP POP POP JUMP JUMPDEST PUSH0 SWAP1 JUMP JUMPDEST PUSH3 0x328 PUSH3 0x31A JUMP JUMPDEST PUSH3 0x335 DUP2 DUP5 DUP5 PUSH3 0x2EF JUMP JUMPDEST POP POP POP JUMP JUMPDEST JUMPDEST DUP2 DUP2 LT ISZERO PUSH3 0x35C JUMPI PUSH3 0x350 PUSH0 DUP3 PUSH3 0x31E JUMP JUMPDEST PUSH1 0x1 DUP2 ADD SWAP1 POP PUSH3 0x33B JUMP JUMPDEST POP POP JUMP JUMPDEST PUSH1 0x1F DUP3 GT ISZERO PUSH3 0x3AB JUMPI PUSH3 0x375 DUP2 PUSH3 0x22B JUMP JUMPDEST PUSH3 0x380 DUP5 PUSH3 0x23D JUMP JUMPDEST DUP2 ADD PUSH1 0x20 DUP6 LT ISZERO PUSH3 0x390 JUMPI DUP2 SWAP1 POP JUMPDEST PUSH3 0x3A8 PUSH3 0x39F DUP6 PUSH3 0x23D JUMP JUMPDEST DUP4 ADD DUP3 PUSH3 0x33A JUMP JUMPDEST POP POP JUMPDEST POP POP POP JUMP JUMPDEST PUSH0 DUP3 DUP3 SHR SWAP1 POP SWAP3 SWAP2 POP POP JUMP JUMPDEST PUSH0 PUSH3 0x3CD PUSH0 NOT DUP5 PUSH1 0x8 MUL PUSH3 0x3B0 JUMP JUMPDEST NOT DUP1 DUP4 AND SWAP2 POP POP SWAP3 SWAP2 POP POP JUMP JUMPDEST PUSH0 PUSH3 0x3E7 DUP4 DUP4 PUSH3 0x3BC JUMP JUMPDEST SWAP2 POP DUP3 PUSH1 0x2 MUL DUP3 OR SWAP1 POP SWAP3 SWAP2 POP POP JUMP JUMPDEST PUSH3 0x402 DUP3 PUSH3 0x193 JUMP JUMPDEST PUSH8 0xFFFFFFFFFFFFFFFF DUP2 GT ISZERO PUSH3 0x41E JUMPI PUSH3 0x41D PUSH3 0x19D JUMP JUMPDEST JUMPDEST PUSH3 0x42A DUP3 SLOAD PUSH3 0x1F7 JUMP JUMPDEST PUSH3 0x437 DUP3 DUP3 DUP6 PUSH3 0x360 JUMP JUMPDEST PUSH0 PUSH1 0x20 SWAP1 POP PUSH1 0x1F DUP4 GT PUSH1 0x1 DUP2 EQ PUSH3 0x46D JUMPI PUSH0 DUP5 ISZERO PUSH3 0x458 JUMPI DUP3 DUP8 ADD MLOAD SWAP1 POP JUMPDEST PUSH3 0x464 DUP6 DUP3 PUSH3 0x3DA JUMP JUMPDEST DUP7 SSTORE POP PUSH3 0x4D3 JUMP JUMPDEST PUSH1 0x1F NOT DUP5 AND PUSH3 0x47D DUP7 PUSH3 0x22B JUMP JUMPDEST PUSH0 JUMPDEST DUP3 DUP2 LT ISZERO PUSH3 0x4A6 JUMPI DUP5 DUP10 ADD MLOAD DUP3 SSTORE PUSH1 0x1 DUP3 ADD SWAP2 POP PUSH1 0x20 DUP6 ADD SWAP5 POP PUSH1 0x20 DUP2 ADD SWAP1 POP PUSH3 0x47F JUMP JUMPDEST DUP7 DUP4 LT ISZERO PUSH3 0x4C6 JUMPI DUP5 DUP10 ADD MLOAD PUSH3 0x4C2 PUSH1 0x1F DUP10 AND DUP3 PUSH3 0x3BC JUMP JUMPDEST DUP4 SSTORE POP JUMPDEST PUSH1 0x1 PUSH1 0x2 DUP9 MUL ADD DUP9 SSTORE POP POP POP JUMPDEST POP POP POP POP POP POP JUMP JUMPDEST PUSH2 0x17ED DUP1 PUSH3 0x4E9 PUSH0 CODECOPY PUSH0 RETURN INVALID PUSH1 0x80 PUSH1 0x40 MSTORE CALLVALUE DUP1 ISZERO PUSH2 0xF JUMPI PUSH0 DUP1 REVERT JUMPDEST POP PUSH1 0x4 CALLDATASIZE LT PUSH2 0xF3 JUMPI PUSH0 CALLDATALOAD PUSH1 0xE0 SHR DUP1 PUSH4 0x715018A6 GT PUSH2 0x95 JUMPI DUP1 PUSH4 0xA457C2D7 GT PUSH2 0x64 JUMPI DUP1 PUSH4 0xA457C2D7 EQ PUSH2 0x273 JUMPI DUP1 PUSH4 0xA9059CBB EQ PUSH2 0x2A3 JUMPI DUP1 PUSH4 0xDD62ED3E EQ PUSH2 0x2D3 JUMPI DUP1 PUSH4 0xF2FDE38B EQ PUSH2 0x303 JUMPI PUSH2 0xF3 JUMP JUMPDEST DUP1 PUSH4 0x715018A6 EQ PUSH2 0x211 JUMPI DUP1 PUSH4 0x8DA5CB5B EQ PUSH2 0x21B JUMPI DUP1 PUSH4 0x95D89B41 EQ PUSH2 0x239 JUMPI DUP1 PUSH4 0xA0712D68 EQ PUSH2 0x257 JUMPI PUSH2 0xF3 JUMP JUMPDEST DUP1 PUSH4 0x23B872DD GT PUSH2 0xD1 JUMPI DUP1 PUSH4 0x23B872DD EQ PUSH2 0x163 JUMPI DUP1 PUSH4 0x313CE567 EQ PUSH2 0x193 JUMPI DUP1 PUSH4 0x39509351 EQ PUSH2 0x1B1 JUMPI DUP1 PUSH4 0x70A08231 EQ PUSH2 0x1E1 JUMPI PUSH2 0xF3 JUMP JUMPDEST DUP1 PUSH4 0x6FDDE03 EQ PUSH2 0xF7 JUMPI DUP1 PUSH4 0x95EA7B3 EQ PUSH2 0x115 JUMPI DUP1 PUSH4 0x18160DDD EQ PUSH2 0x145 JUMPI JUMPDEST PUSH0 DUP1 REVERT JUMPDEST PUSH2 0xFF PUSH2 0x31F JUMP JUMPDEST PUSH1 0x40 MLOAD PUSH2 0x10C SWAP2 SWAP1 PUSH2 0xF15 JUMP JUMPDEST PUSH1 0x40 MLOAD DUP1 SWAP2 SUB SWAP1 RETURN JUMPDEST PUSH2 0x12F PUSH1 0x4 DUP1 CALLDATASIZE SUB DUP2 ADD SWAP1 PUSH2 0x12A SWAP2 SWAP1 PUSH2 0xFC6 JUMP JUMPDEST PUSH2 0x3AF JUMP JUMPDEST PUSH1 0x40 MLOAD PUSH2 0x13C SWAP2 SWAP1 PUSH2 0x101E JUMP JUMPDEST PUSH1 0x40 MLOAD DUP1 SWAP2 SUB SWAP1 RETURN JUMPDEST PUSH2 0x14D PUSH2 0x3D9 JUMP JUMPDEST PUSH1 0x40 MLOAD PUSH2 0x15A SWAP2 SWAP1 PUSH2 0x1046 JUMP JUMPDEST PUSH1 0x40 MLOAD DUP1 SWAP2 SUB SWAP1 RETURN JUMPDEST PUSH2 0x17D PUSH1 0x4 DUP1 CALLDATASIZE SUB DUP2 ADD SWAP1 PUSH2 0x178 SWAP2 SWAP1 PUSH2 0x105F JUMP JUMPDEST PUSH2 0x3E2 JUMP JUMPDEST PUSH1 0x40 MLOAD PUSH2 0x18A SWAP2 SWAP1 PUSH2 0x101E JUMP JUMPDEST PUSH1 0x40 MLOAD DUP1 SWAP2 SUB SWAP1 RETURN JUMPDEST PUSH2 0x19B PUSH2 0x418 JUMP JUMPDEST PUSH1 0x40 MLOAD PUSH2 0x1A8 SWAP2 SWAP1 PUSH2 0x10CA JUMP JUMPDEST PUSH1 0x40 MLOAD DUP1 SWAP2 SUB SWAP1 RETURN JUMPDEST PUSH2 0x1CB PUSH1 0x4 DUP1 CALLDATASIZE SUB DUP2 ADD SWAP1 PUSH2 0x1C6 SWAP2 SWAP1 PUSH2 0xFC6 JUMP JUMPDEST PUSH2 0x420 JUMP JUMPDEST PUSH1 0x40 MLOAD PUSH2 0x1D8 SWAP2 SWAP1 PUSH2 0x101E JUMP JUMPDEST PUSH1 0x40 MLOAD DUP1 SWAP2 SUB SWAP1 RETURN JUMPDEST PUSH2 0x1FB PUSH1 0x4 DUP1 CALLDATASIZE SUB DUP2 ADD SWAP1 PUSH2 0x1F6 SWAP2 SWAP1 PUSH2 0x10E3 JUMP JUMPDEST PUSH2 0x456 JUMP JUMPDEST PUSH1 0x40 MLOAD PUSH2 0x208 SWAP2 SWAP1 PUSH2 0x1046 JUMP JUMPDEST PUSH1 0x40 MLOAD DUP1 SWAP2 SUB SWAP1 RETURN JUMPDEST PUSH2 0x219 PUSH2 0x49B JUMP JUMPDEST STOP JUMPDEST PUSH2 0x223 PUSH2 0x4AE JUMP JUMPDEST PUSH1 0x40 MLOAD PUSH2 0x230 SWAP2 SWAP1 PUSH2 0x111D JUMP JUMPDEST PUSH1 0x40 MLOAD DUP1 SWAP2 SUB SWAP1 RETURN JUMPDEST PUSH2 0x241 PUSH2 0x4D6 JUMP JUMPDEST PUSH1 0x40 MLOAD PUSH2 0x24E SWAP2 SWAP1 PUSH2 0xF15 JUMP JUMPDEST PUSH1 0x40 MLOAD DUP1 SWAP2 SUB SWAP1 RETURN JUMPDEST PUSH2 0x271 PUSH1 0x4 DUP1 CALLDATASIZE SUB DUP2 ADD SWAP1 PUSH2 0x26C SWAP2 SWAP1 PUSH2 0x1136 JUMP JUMPDEST PUSH2 0x566 JUMP JUMPDEST STOP JUMPDEST PUSH2 0x28D PUSH1 0x4 DUP1 CALLDATASIZE SUB DUP2 ADD SWAP1 PUSH2 0x288 SWAP2 SWAP1 PUSH2 0xFC6 JUMP JUMPDEST PUSH2 0x58E JUMP JUMPDEST PUSH1 0x40 MLOAD PUSH2 0x29A SWAP2 SWAP1 PUSH2 0x101E JUMP JUMPDEST PUSH1 0x40 MLOAD DUP1 SWAP2 SUB SWAP1 RETURN JUMPDEST PUSH2 0x2BD PUSH1 0x4 DUP1 CALLDATASIZE SUB DUP2 ADD SWAP1 PUSH2 0x2B8 SWAP2 SWAP1 PUSH2 0xFC6 JUMP JUMPDEST PUSH2 0x603 JUMP JUMPDEST PUSH1 0x40 MLOAD PUSH2 0x2CA SWAP2 SWAP1 PUSH2 0x101E JUMP JUMPDEST PUSH1 0x40 MLOAD DUP1 SWAP2 SUB SWAP1 RETURN JUMPDEST PUSH2 0x2ED PUSH1 0x4 DUP1 CALLDATASIZE SUB DUP2 ADD SWAP1 PUSH2 0x2E8 SWAP2 SWAP1 PUSH2 0x1161 JUMP JUMPDEST PUSH2 0x62D JUMP JUMPDEST PUSH1 0x40 MLOAD PUSH2 0x2FA SWAP2 SWAP1 PUSH2 0x1046 JUMP JUMPDEST PUSH1 0x40 MLOAD DUP1 SWAP2 SUB SWAP1 RETURN JUMPDEST PUSH2 0x31D PUSH1 0x4 DUP1 CALLDATASIZE SUB DUP2 ADD SWAP1 PUSH2 0x318 SWAP2 SWAP1 PUSH2 0x10E3 JUMP JUMPDEST PUSH2 0x6AF JUMP JUMPDEST STOP JUMPDEST PUSH1 0x60 PUSH1 0x3 DUP1 SLOAD PUSH2 0x32E SWAP1 PUSH2 0x11CC JUMP JUMPDEST DUP1 PUSH1 0x1F ADD PUSH1 0x20 DUP1 SWAP2 DIV MUL PUSH1 0x20 ADD PUSH1 0x40 MLOAD SWAP1 DUP2 ADD PUSH1 0x40 MSTORE DUP1 SWAP3 SWAP2 SWAP1 DUP2 DUP2 MSTORE PUSH1 0x20 ADD DUP3 DUP1 SLOAD PUSH2 0x35A SWAP1 PUSH2 0x11CC JUMP JUMPDEST DUP1 ISZERO PUSH2 0x3A5 JUMPI DUP1 PUSH1 0x1F LT PUSH2 0x37C JUMPI PUSH2 0x100 DUP1 DUP4 SLOAD DIV MUL DUP4 MSTORE SWAP2 PUSH1 0x20 ADD SWAP2 PUSH2 0x3A5 JUMP JUMPDEST DUP3 ADD SWAP2 SWAP1 PUSH0 MSTORE PUSH1 0x20 PUSH0 KECCAK256 SWAP1 JUMPDEST DUP2 SLOAD DUP2 MSTORE SWAP1 PUSH1 0x1 ADD SWAP1 PUSH1 0x20 ADD DUP1 DUP4 GT PUSH2 0x388 JUMPI DUP3 SWAP1 SUB PUSH1 0x1F AND DUP3 ADD SWAP2 JUMPDEST POP POP POP POP POP SWAP1 POP SWAP1 JUMP JUMPDEST PUSH0 PUSH2 0x3B8 PUSH2 0x731 JUMP JUMPDEST PUSH0 PUSH2 0x3C1 PUSH2 0x7AF JUMP JUMPDEST SWAP1 POP PUSH2 0x3CE DUP5 DUP3 DUP6 PUSH2 0x7B6 JUMP JUMPDEST PUSH1 0x1 SWAP2 POP POP SWAP3 SWAP2 POP POP JUMP JUMPDEST PUSH0 PUSH1 0x2 SLOAD SWAP1 POP SWAP1 JUMP JUMPDEST PUSH0 PUSH2 0x3EB PUSH2 0x731 JUMP JUMPDEST PUSH0 PUSH2 0x3F4 PUSH2 0x7AF JUMP JUMPDEST SWAP1 POP PUSH2 0x401 DUP6 DUP3 DUP6 PUSH2 0x979 JUMP JUMPDEST PUSH2 0x40C DUP6 DUP6 DUP6 PUSH2 0xA04 JUMP JUMPDEST PUSH1 0x1 SWAP2 POP POP SWAP4 SWAP3 POP POP POP JUMP JUMPDEST PUSH0 PUSH1 0x12 SWAP1 POP SWAP1 JUMP JUMPDEST PUSH0 DUP1 PUSH2 0x42A PUSH2 0x7AF JUMP JUMPDEST SWAP1 POP PUSH2 0x44B DUP2 DUP6 DUP6 PUSH2 0x43C DUP6 DUP10 PUSH2 0x62D JUMP JUMPDEST PUSH2 0x446 SWAP2 SWAP1 PUSH2 0x1229 JUMP JUMPDEST PUSH2 0x7B6 JUMP JUMPDEST PUSH1 0x1 SWAP2 POP POP SWAP3 SWAP2 POP POP JUMP JUMPDEST PUSH0 DUP1 PUSH0 DUP4 PUSH20 0xFFFFFFFFFFFFFFFFFFFFFFFFFFFFFFFFFFFFFFFF AND PUSH20 0xFFFFFFFFFFFFFFFFFFFFFFFFFFFFFFFFFFFFFFFF AND DUP2 MSTORE PUSH1 0x20 ADD SWAP1 DUP2 MSTORE PUSH1 0x20 ADD PUSH0 KECCAK256 SLOAD SWAP1 POP SWAP2 SWAP1 POP JUMP JUMPDEST PUSH2 0x4A3 PUSH2 0x731 JUMP JUMPDEST PUSH2 0x4AC PUSH0 PUSH2 0xC70 JUMP JUMPDEST JUMP JUMPDEST PUSH0 PUSH1 0x5 PUSH0 SWAP1 SLOAD SWAP1 PUSH2 0x100 EXP SWAP1 DIV PUSH20 0xFFFFFFFFFFFFFFFFFFFFFFFFFFFFFFFFFFFFFFFF AND SWAP1 POP SWAP1 JUMP JUMPDEST PUSH1 0x60 PUSH1 0x4 DUP1 SLOAD PUSH2 0x4E5 SWAP1 PUSH2 0x11CC JUMP JUMPDEST DUP1 PUSH1 0x1F ADD PUSH1 0x20 DUP1 SWAP2 DIV MUL PUSH1 0x20 ADD PUSH1 0x40 MLOAD SWAP1 DUP2 ADD PUSH1 0x40 MSTORE DUP1 SWAP3 SWAP2 SWAP1 DUP2 DUP2 MSTORE PUSH1 0x20 ADD DUP3 DUP1 SLOAD PUSH2 0x511 SWAP1 PUSH2 0x11CC JUMP JUMPDEST DUP1 ISZERO PUSH2 0x55C JUMPI DUP1 PUSH1 0x1F LT PUSH2 0x533 JUMPI PUSH2 0x100 DUP1 DUP4 SLOAD DIV MUL DUP4 MSTORE SWAP2 PUSH1 0x20 ADD SWAP2 PUSH2 0x55C JUMP JUMPDEST DUP3 ADD SWAP2 SWAP1 PUSH0 MSTORE PUSH1 0x20 PUSH0 KECCAK256 SWAP1 JUMPDEST DUP2 SLOAD DUP2 MSTORE SWAP1 PUSH1 0x1 ADD SWAP1 PUSH1 0x20 ADD DUP1 DUP4 GT PUSH2 0x53F JUMPI DUP3 SWAP1 SUB PUSH1 0x1F AND DUP3 ADD SWAP2 JUMPDEST POP POP POP POP POP SWAP1 POP SWAP1 JUMP JUMPDEST PUSH2 0x56E PUSH2 0x731 JUMP JUMPDEST PUSH2 0x58B CALLER PUSH8 0xDE0B6B3A7640000 DUP4 PUSH2 0x586 SWAP2 SWAP1 PUSH2 0x125C JUMP JUMPDEST PUSH2 0xD33 JUMP JUMPDEST POP JUMP JUMPDEST PUSH0 DUP1 PUSH2 0x598 PUSH2 0x7AF JUMP JUMPDEST SWAP1 POP PUSH0 PUSH2 0x5A5 DUP3 DUP7 PUSH2 0x62D JUMP JUMPDEST SWAP1 POP DUP4 DUP2 LT ISZERO PUSH2 0x5EA JUMPI PUSH1 0x40 MLOAD PUSH32 0x8C379A000000000000000000000000000000000000000000000000000000000 DUP2 MSTORE PUSH1 0x4 ADD PUSH2 0x5E1 SWAP1 PUSH2 0x130D JUMP JUMPDEST PUSH1 0x40 MLOAD DUP1 SWAP2 SUB SWAP1 REVERT JUMPDEST PUSH2 0x5F7 DUP3 DUP7 DUP7 DUP5 SUB PUSH2 0x7B6 JUMP JUMPDEST PUSH1 0x1 SWAP3 POP POP POP SWAP3 SWAP2 POP POP JUMP JUMPDEST PUSH0 PUSH2 0x60C PUSH2 0x731 JUMP JUMPDEST PUSH0 PUSH2 0x615 PUSH2 0x7AF JUMP JUMPDEST SWAP1 POP PUSH2 0x622 DUP2 DUP6 DUP6 PUSH2 0xA04 JUMP JUMPDEST PUSH1 0x1 SWAP2 POP POP SWAP3 SWAP2 POP POP JUMP JUMPDEST PUSH0 PUSH1 0x1 PUSH0 DUP5 PUSH20 0xFFFFFFFFFFFFFFFFFFFFFFFFFFFFFFFFFFFFFFFF AND PUSH20 0xFFFFFFFFFFFFFFFFFFFFFFFFFFFFFFFFFFFFFFFF AND DUP2 MSTORE PUSH1 0x20 ADD SWAP1 DUP2 MSTORE PUSH1 0x20 ADD PUSH0 KECCAK256 PUSH0 DUP4 PUSH20 0xFFFFFFFFFFFFFFFFFFFFFFFFFFFFFFFFFFFFFFFF AND PUSH20 0xFFFFFFFFFFFFFFFFFFFFFFFFFFFFFFFFFFFFFFFF AND DUP2 MSTORE PUSH1 0x20 ADD SWAP1 DUP2 MSTORE PUSH1 0x20 ADD PUSH0 KECCAK256 SLOAD SWAP1 POP SWAP3 SWAP2 POP POP JUMP JUMPDEST PUSH2 0x6B7 PUSH2 0x731 JUMP JUMPDEST PUSH0 PUSH20 0xFFFFFFFFFFFFFFFFFFFFFFFFFFFFFFFFFFFFFFFF AND DUP2 PUSH20 0xFFFFFFFFFFFFFFFFFFFFFFFFFFFFFFFFFFFFFFFF AND SUB PUSH2 0x725 JUMPI PUSH1 0x40 MLOAD PUSH32 0x8C379A000000000000000000000000000000000000000000000000000000000 DUP2 MSTORE PUSH1 0x4 ADD PUSH2 0x71C SWAP1 PUSH2 0x139B JUMP JUMPDEST PUSH1 0x40 MLOAD DUP1 SWAP2 SUB SWAP1 REVERT JUMPDEST PUSH2 0x72E DUP2 PUSH2 0xC70 JUMP JUMPDEST POP JUMP JUMPDEST PUSH2 0x739 PUSH2 0x7AF JUMP JUMPDEST PUSH20 0xFFFFFFFFFFFFFFFFFFFFFFFFFFFFFFFFFFFFFFFF AND PUSH2 0x757 PUSH2 0x4AE JUMP JUMPDEST PUSH20 0xFFFFFFFFFFFFFFFFFFFFFFFFFFFFFFFFFFFFFFFF AND EQ PUSH2 0x7AD JUMPI PUSH1 0x40 MLOAD PUSH32 0x8C379A000000000000000000000000000000000000000000000000000000000 DUP2 MSTORE PUSH1 0x4 ADD PUSH2 0x7A4 SWAP1 PUSH2 0x1403 JUMP JUMPDEST PUSH1 0x40 MLOAD DUP1 SWAP2 SUB SWAP1 REVERT JUMPDEST JUMP JUMPDEST PUSH0 CALLER SWAP1 POP SWAP1 JUMP JUMPDEST PUSH0 PUSH20 0xFFFFFFFFFFFFFFFFFFFFFFFFFFFFFFFFFFFFFFFF AND DUP4 PUSH20 0xFFFFFFFFFFFFFFFFFFFFFFFFFFFFFFFFFFFFFFFF AND SUB PUSH2 0x824 JUMPI PUSH1 0x40 MLOAD PUSH32 0x8C379A000000000000000000000000000000000000000000000000000000000 DUP2 MSTORE PUSH1 0x4 ADD PUSH2 0x81B SWAP1 PUSH2 0x1491 JUMP JUMPDEST PUSH1 0x40 MLOAD DUP1 SWAP2 SUB SWAP1 REVERT JUMPDEST PUSH0 PUSH20 0xFFFFFFFFFFFFFFFFFFFFFFFFFFFFFFFFFFFFFFFF AND DUP3 PUSH20 0xFFFFFFFFFFFFFFFFFFFFFFFFFFFFFFFFFFFFFFFF AND SUB PUSH2 0x892 JUMPI PUSH1 0x40 MLOAD PUSH32 0x8C379A000000000000000000000000000000000000000000000000000000000 DUP2 MSTORE PUSH1 0x4 ADD PUSH2 0x889 SWAP1 PUSH2 0x151F JUMP JUMPDEST PUSH1 0x40 MLOAD DUP1 SWAP2 SUB SWAP1 REVERT JUMPDEST DUP1 PUSH1 0x1 PUSH0 DUP6 PUSH20 0xFFFFFFFFFFFFFFFFFFFFFFFFFFFFFFFFFFFFFFFF AND PUSH20 0xFFFFFFFFFFFFFFFFFFFFFFFFFFFFFFFFFFFFFFFF AND DUP2 MSTORE PUSH1 0x20 ADD SWAP1 DUP2 MSTORE PUSH1 0x20 ADD PUSH0 KECCAK256 PUSH0 DUP5 PUSH20 0xFFFFFFFFFFFFFFFFFFFFFFFFFFFFFFFFFFFFFFFF AND PUSH20 0xFFFFFFFFFFFFFFFFFFFFFFFFFFFFFFFFFFFFFFFF AND DUP2 MSTORE PUSH1 0x20 ADD SWAP1 DUP2 MSTORE PUSH1 0x20 ADD PUSH0 KECCAK256 DUP2 SWAP1 SSTORE POP DUP2 PUSH20 0xFFFFFFFFFFFFFFFFFFFFFFFFFFFFFFFFFFFFFFFF AND DUP4 PUSH20 0xFFFFFFFFFFFFFFFFFFFFFFFFFFFFFFFFFFFFFFFF AND PUSH32 0x8C5BE1E5EBEC7D5BD14F71427D1E84F3DD0314C0F7B2291E5B200AC8C7C3B925 DUP4 PUSH1 0x40 MLOAD PUSH2 0x96C SWAP2 SWAP1 PUSH2 0x1046 JUMP JUMPDEST PUSH1 0x40 MLOAD DUP1 SWAP2 SUB SWAP1 LOG3 POP POP POP JUMP JUMPDEST PUSH0 PUSH2 0x984 DUP5 DUP5 PUSH2 0x62D JUMP JUMPDEST SWAP1 POP PUSH32 0xFFFFFFFFFFFFFFFFFFFFFFFFFFFFFFFFFFFFFFFFFFFFFFFFFFFFFFFFFFFFFFFF DUP2 EQ PUSH2 0x9FE JUMPI DUP2 DUP2 LT ISZERO PUSH2 0x9F0 JUMPI PUSH1 0x40 MLOAD PUSH32 0x8C379A000000000000000000000000000000000000000000000000000000000 DUP2 MSTORE PUSH1 0x4 ADD PUSH2 0x9E7 SWAP1 PUSH2 0x1587 JUMP JUMPDEST PUSH1 0x40 MLOAD DUP1 SWAP2 SUB SWAP1 REVERT JUMPDEST PUSH2 0x9FD DUP5 DUP5 DUP5 DUP5 SUB PUSH2 0x7B6 JUMP JUMPDEST JUMPDEST POP POP POP POP JUMP JUMPDEST PUSH0 PUSH20 0xFFFFFFFFFFFFFFFFFFFFFFFFFFFFFFFFFFFFFFFF AND DUP4 PUSH20 0xFFFFFFFFFFFFFFFFFFFFFFFFFFFFFFFFFFFFFFFF AND SUB PUSH2 0xA72 JUMPI PUSH1 0x40 MLOAD PUSH32 0x8C379A000000000000000000000000000000000000000000000000000000000 DUP2 MSTORE PUSH1 0x4 ADD PUSH2 0xA69 SWAP1 PUSH2 0x1615 JUMP JUMPDEST PUSH1 0x40 MLOAD DUP1 SWAP2 SUB SWAP1 REVERT JUMPDEST PUSH0 PUSH20 0xFFFFFFFFFFFFFFFFFFFFFFFFFFFFFFFFFFFFFFFF AND DUP3 PUSH20 0xFFFFFFFFFFFFFFFFFFFFFFFFFFFFFFFFFFFFFFFF AND SUB PUSH2 0xAE0 JUMPI PUSH1 0x40 MLOAD PUSH32 0x8C379A000000000000000000000000000000000000000000000000000000000 DUP2 MSTORE PUSH1 0x4 ADD PUSH2 0xAD7 SWAP1 PUSH2 0x16A3 JUMP JUMPDEST PUSH1 0x40 MLOAD DUP1 SWAP2 SUB SWAP1 REVERT JUMPDEST PUSH2 0xAEB DUP4 DUP4 DUP4 PUSH2 0xE81 JUMP JUMPDEST PUSH0 DUP1 PUSH0 DUP6 PUSH20 0xFFFFFFFFFFFFFFFFFFFFFFFFFFFFFFFFFFFFFFFF AND PUSH20 0xFFFFFFFFFFFFFFFFFFFFFFFFFFFFFFFFFFFFFFFF AND DUP2 MSTORE PUSH1 0x20 ADD SWAP1 DUP2 MSTORE PUSH1 0x20 ADD PUSH0 KECCAK256 SLOAD SWAP1 POP DUP2 DUP2 LT ISZERO PUSH2 0xB6E JUMPI PUSH1 0x40 MLOAD PUSH32 0x8C379A000000000000000000000000000000000000000000000000000000000 DUP2 MSTORE PUSH1 0x4 ADD PUSH2 0xB65 SWAP1 PUSH2 0x1731 JUMP JUMPDEST PUSH1 0x40 MLOAD DUP1 SWAP2 SUB SWAP1 REVERT JUMPDEST DUP2 DUP2 SUB PUSH0 DUP1 DUP7 PUSH20 0xFFFFFFFFFFFFFFFFFFFFFFFFFFFFFFFFFFFFFFFF AND PUSH20 0xFFFFFFFFFFFFFFFFFFFFFFFFFFFFFFFFFFFFFFFF AND DUP2 MSTORE PUSH1 0x20 ADD SWAP1 DUP2 MSTORE PUSH1 0x20 ADD PUSH0 KECCAK256 DUP2 SWAP1 SSTORE POP DUP2 PUSH0 DUP1 DUP6 PUSH20 0xFFFFFFFFFFFFFFFFFFFFFFFFFFFFFFFFFFFFFFFF AND PUSH20 0xFFFFFFFFFFFFFFFFFFFFFFFFFFFFFFFFFFFFFFFF AND DUP2 MSTORE PUSH1 0x20 ADD SWAP1 DUP2 MSTORE PUSH1 0x20 ADD PUSH0 KECCAK256 PUSH0 DUP3 DUP3 SLOAD ADD SWAP3 POP POP DUP2 SWAP1 SSTORE POP DUP3 PUSH20 0xFFFFFFFFFFFFFFFFFFFFFFFFFFFFFFFFFFFFFFFF AND DUP5 PUSH20 0xFFFFFFFFFFFFFFFFFFFFFFFFFFFFFFFFFFFFFFFF AND PUSH32 0xDDF252AD1BE2C89B69C2B068FC378DAA952BA7F163C4A11628F55A4DF523B3EF DUP5 PUSH1 0x40 MLOAD PUSH2 0xC57 SWAP2 SWAP1 PUSH2 0x1046 JUMP JUMPDEST PUSH1 0x40 MLOAD DUP1 SWAP2 SUB SWAP1 LOG3 PUSH2 0xC6A DUP5 DUP5 DUP5 PUSH2 0xE86 JUMP JUMPDEST POP POP POP POP JUMP JUMPDEST PUSH0 PUSH1 0x5 PUSH0 SWAP1 SLOAD SWAP1 PUSH2 0x100 EXP SWAP1 DIV PUSH20 0xFFFFFFFFFFFFFFFFFFFFFFFFFFFFFFFFFFFFFFFF AND SWAP1 POP DUP2 PUSH1 0x5 PUSH0 PUSH2 0x100 EXP DUP2 SLOAD DUP2 PUSH20 0xFFFFFFFFFFFFFFFFFFFFFFFFFFFFFFFFFFFFFFFF MUL NOT AND SWAP1 DUP4 PUSH20 0xFFFFFFFFFFFFFFFFFFFFFFFFFFFFFFFFFFFFFFFF AND MUL OR SWAP1 SSTORE POP DUP2 PUSH20 0xFFFFFFFFFFFFFFFFFFFFFFFFFFFFFFFFFFFFFFFF AND DUP2 PUSH20 0xFFFFFFFFFFFFFFFFFFFFFFFFFFFFFFFFFFFFFFFF AND PUSH32 0x8BE0079C531659141344CD1FD0A4F28419497F9722A3DAAFE3B4186F6B6457E0 PUSH1 0x40 MLOAD PUSH1 0x40 MLOAD DUP1 SWAP2 SUB SWAP1 LOG3 POP POP JUMP JUMPDEST PUSH0 PUSH20 0xFFFFFFFFFFFFFFFFFFFFFFFFFFFFFFFFFFFFFFFF AND DUP3 PUSH20 0xFFFFFFFFFFFFFFFFFFFFFFFFFFFFFFFFFFFFFFFF AND SUB PUSH2 0xDA1 JUMPI PUSH1 0x40 MLOAD PUSH32 0x8C379A000000000000000000000000000000000000000000000000000000000 DUP2 MSTORE PUSH1 0x4 ADD PUSH2 0xD98 SWAP1 PUSH2 0x1799 JUMP JUMPDEST PUSH1 0x40 MLOAD DUP1 SWAP2 SUB SWAP1 REVERT JUMPDEST PUSH2 0xDAC PUSH0 DUP4 DUP4 PUSH2 0xE81 JUMP JUMPDEST DUP1 PUSH1 0x2 PUSH0 DUP3 DUP3 SLOAD PUSH2 0xDBD SWAP2 SWAP1 PUSH2 0x1229 JUMP JUMPDEST SWAP3 POP POP DUP2 SWAP1 SSTORE POP DUP1 PUSH0 DUP1 DUP5 PUSH20 0xFFFFFFFFFFFFFFFFFFFFFFFFFFFFFFFFFFFFFFFF AND PUSH20 0xFFFFFFFFFFFFFFFFFFFFFFFFFFFFFFFFFFFFFFFF AND DUP2 MSTORE PUSH1 0x20 ADD SWAP1 DUP2 MSTORE PUSH1 0x20 ADD PUSH0 KECCAK256 PUSH0 DUP3 DUP3 SLOAD ADD SWAP3 POP POP DUP2 SWAP1 SSTORE POP DUP2 PUSH20 0xFFFFFFFFFFFFFFFFFFFFFFFFFFFFFFFFFFFFFFFF AND PUSH0 PUSH20 0xFFFFFFFFFFFFFFFFFFFFFFFFFFFFFFFFFFFFFFFF AND PUSH32 0xDDF252AD1BE2C89B69C2B068FC378DAA952BA7F163C4A11628F55A4DF523B3EF DUP4 PUSH1 0x40 MLOAD PUSH2 0xE6A SWAP2 SWAP1 PUSH2 0x1046 JUMP JUMPDEST PUSH1 0x40 MLOAD DUP1 SWAP2 SUB SWAP1 LOG3 PUSH2 0xE7D PUSH0 DUP4 DUP4 PUSH2 0xE86 JUMP JUMPDEST POP POP JUMP JUMPDEST POP POP POP JUMP JUMPDEST POP POP POP JUMP JUMPDEST PUSH0 DUP2 MLOAD SWAP1 POP SWAP2 SWAP1 POP JUMP JUMPDEST PUSH0 DUP3 DUP3 MSTORE PUSH1 0x20 DUP3 ADD SWAP1 POP SWAP3 SWAP2 POP POP JUMP JUMPDEST PUSH0 JUMPDEST DUP4 DUP2 LT ISZERO PUSH2 0xEC2 JUMPI DUP1 DUP3 ADD MLOAD DUP2 DUP5 ADD MSTORE PUSH1 0x20 DUP2 ADD SWAP1 POP PUSH2 0xEA7 JUMP JUMPDEST PUSH0 DUP5 DUP5 ADD MSTORE POP POP POP POP JUMP JUMPDEST PUSH0 PUSH1 0x1F NOT PUSH1 0x1F DUP4 ADD AND SWAP1 POP SWAP2 SWAP1 POP JUMP JUMPDEST PUSH0 PUSH2 0xEE7 DUP3 PUSH2 0xE8B JUMP JUMPDEST PUSH2 0xEF1 DUP2 DUP6 PUSH2 0xE95 JUMP JUMPDEST SWAP4 POP PUSH2 0xF01 DUP2 DUP6 PUSH1 0x20 DUP7 ADD PUSH2 0xEA5 JUMP JUMPDEST PUSH2 0xF0A DUP2 PUSH2 0xECD JUMP JUMPDEST DUP5 ADD SWAP2 POP POP SWAP3 SWAP2 POP POP JUMP JUMPDEST PUSH0 PUSH1 0x20 DUP3 ADD SWAP1 POP DUP2 DUP2 SUB PUSH0 DUP4 ADD MSTORE PUSH2 0xF2D DUP2 DUP5 PUSH2 0xEDD JUMP JUMPDEST SWAP1 POP SWAP3 SWAP2 POP POP JUMP JUMPDEST PUSH0 DUP1 REVERT JUMPDEST PUSH0 PUSH20 0xFFFFFFFFFFFFFFFFFFFFFFFFFFFFFFFFFFFFFFFF DUP3 AND SWAP1 POP SWAP2 SWAP1 POP JUMP JUMPDEST PUSH0 PUSH2 0xF62 DUP3 PUSH2 0xF39 JUMP JUMPDEST SWAP1 POP SWAP2 SWAP1 POP JUMP JUMPDEST PUSH2 0xF72 DUP2 PUSH2 0xF58 JUMP JUMPDEST DUP2 EQ PUSH2 0xF7C JUMPI PUSH0 DUP1 REVERT JUMPDEST POP JUMP JUMPDEST PUSH0 DUP2 CALLDATALOAD SWAP1 POP PUSH2 0xF8D DUP2 PUSH2 0xF69 JUMP JUMPDEST SWAP3 SWAP2 POP POP JUMP JUMPDEST PUSH0 DUP2 SWAP1 POP SWAP2 SWAP1 POP JUMP JUMPDEST PUSH2 0xFA5 DUP2 PUSH2 0xF93 JUMP JUMPDEST DUP2 EQ PUSH2 0xFAF JUMPI PUSH0 DUP1 REVERT JUMPDEST POP JUMP JUMPDEST PUSH0 DUP2 CALLDATALOAD SWAP1 POP PUSH2 0xFC0 DUP2 PUSH2 0xF9C JUMP JUMPDEST SWAP3 SWAP2 POP POP JUMP JUMPDEST PUSH0 DUP1 PUSH1 0x40 DUP4 DUP6 SUB SLT ISZERO PUSH2 0xFDC JUMPI PUSH2 0xFDB PUSH2 0xF35 JUMP JUMPDEST JUMPDEST PUSH0 PUSH2 0xFE9 DUP6 DUP3 DUP7 ADD PUSH2 0xF7F JUMP JUMPDEST SWAP3 POP POP PUSH1 0x20 PUSH2 0xFFA DUP6 DUP3 DUP7 ADD PUSH2 0xFB2 JUMP JUMPDEST SWAP2 POP POP SWAP3 POP SWAP3 SWAP1 POP JUMP JUMPDEST PUSH0 DUP2 ISZERO ISZERO SWAP1 POP SWAP2 SWAP1 POP JUMP JUMPDEST PUSH2 0x1018 DUP2 PUSH2 0x1004 JUMP JUMPDEST DUP3 MSTORE POP POP JUMP JUMPDEST PUSH0 PUSH1 0x20 DUP3 ADD SWAP1 POP PUSH2 0x1031 PUSH0 DUP4 ADD DUP5 PUSH2 0x100F JUMP JUMPDEST SWAP3 SWAP2 POP POP JUMP JUMPDEST PUSH2 0x1040 DUP2 PUSH2 0xF93 JUMP JUMPDEST DUP3 MSTORE POP POP JUMP JUMPDEST PUSH0 PUSH1 0x20 DUP3 ADD SWAP1 POP PUSH2 0x1059 PUSH0 DUP4 ADD DUP5 PUSH2 0x1037 JUMP JUMPDEST SWAP3 SWAP2 POP POP JUMP JUMPDEST PUSH0 DUP1 PUSH0 PUSH1 0x60 DUP5 DUP7 SUB SLT ISZERO PUSH2 0x1076 JUMPI PUSH2 0x1075 PUSH2 0xF35 JUMP JUMPDEST JUMPDEST PUSH0 PUSH2 0x1083 DUP7 DUP3 DUP8 ADD PUSH2 0xF7F JUMP JUMPDEST SWAP4 POP POP PUSH1 0x20 PUSH2 0x1094 DUP7 DUP3 DUP8 ADD PUSH2 0xF7F JUMP JUMPDEST SWAP3 POP POP PUSH1 0x40 PUSH2 0x10A5 DUP7 DUP3 DUP8 ADD PUSH2 0xFB2 JUMP JUMPDEST SWAP2 POP POP SWAP3 POP SWAP3 POP SWAP3 JUMP JUMPDEST PUSH0 PUSH1 0xFF DUP3 AND SWAP1 POP SWAP2 SWAP1 POP JUMP JUMPDEST PUSH2 0x10C4 DUP2 PUSH2 0x10AF JUMP JUMPDEST DUP3 MSTORE POP POP JUMP JUMPDEST PUSH0 PUSH1 0x20 DUP3 ADD SWAP1 POP PUSH2 0x10DD PUSH0 DUP4 ADD DUP5 PUSH2 0x10BB JUMP JUMPDEST SWAP3 SWAP2 POP POP JUMP JUMPDEST PUSH0 PUSH1 0x20 DUP3 DUP5 SUB SLT ISZERO PUSH2 0x10F8 JUMPI PUSH2 0x10F7 PUSH2 0xF35 JUMP JUMPDEST JUMPDEST PUSH0 PUSH2 0x1105 DUP5 DUP3 DUP6 ADD PUSH2 0xF7F JUMP JUMPDEST SWAP2 POP POP SWAP3 SWAP2 POP POP JUMP JUMPDEST PUSH2 0x1117 DUP2 PUSH2 0xF58 JUMP JUMPDEST DUP3 MSTORE POP POP JUMP JUMPDEST PUSH0 PUSH1 0x20 DUP3 ADD SWAP1 POP PUSH2 0x1130 PUSH0 DUP4 ADD DUP5 PUSH2 0x110E JUMP JUMPDEST SWAP3 SWAP2 POP POP JUMP JUMPDEST PUSH0 PUSH1 0x20 DUP3 DUP5 SUB SLT ISZERO PUSH2 0x114B JUMPI PUSH2 0x114A PUSH2 0xF35 JUMP JUMPDEST JUMPDEST PUSH0 PUSH2 0x1158 DUP5 DUP3 DUP6 ADD PUSH2 0xFB2 JUMP JUMPDEST SWAP2 POP POP SWAP3 SWAP2 POP POP JUMP JUMPDEST PUSH0 DUP1 PUSH1 0x40 DUP4 DUP6 SUB SLT ISZERO PUSH2 0x1177 JUMPI PUSH2 0x1176 PUSH2 0xF35 JUMP JUMPDEST JUMPDEST PUSH0 PUSH2 0x1184 DUP6 DUP3 DUP7 ADD PUSH2 0xF7F JUMP JUMPDEST SWAP3 POP POP PUSH1 0x20 PUSH2 0x1195 DUP6 DUP3 DUP7 ADD PUSH2 0xF7F JUMP JUMPDEST SWAP2 POP POP SWAP3 POP SWAP3 SWAP1 POP JUMP JUMPDEST PUSH32 0x4E487B7100000000000000000000000000000000000000000000000000000000 PUSH0 MSTORE PUSH1 0x22 PUSH1 0x4 MSTORE PUSH1 0x24 PUSH0 REVERT JUMPDEST PUSH0 PUSH1 0x2 DUP3 DIV SWAP1 POP PUSH1 0x1 DUP3 AND DUP1 PUSH2 0x11E3 JUMPI PUSH1 0x7F DUP3 AND SWAP2 POP JUMPDEST PUSH1 0x20 DUP3 LT DUP2 SUB PUSH2 0x11F6 JUMPI PUSH2 0x11F5 PUSH2 0x119F JUMP JUMPDEST JUMPDEST POP SWAP2 SWAP1 POP JUMP JUMPDEST PUSH32 0x4E487B7100000000000000000000000000000000000000000000000000000000 PUSH0 MSTORE PUSH1 0x11 PUSH1 0x4 MSTORE PUSH1 0x24 PUSH0 REVERT JUMPDEST PUSH0 PUSH2 0x1233 DUP3 PUSH2 0xF93 JUMP JUMPDEST SWAP2 POP PUSH2 0x123E DUP4 PUSH2 0xF93 JUMP JUMPDEST SWAP3 POP DUP3 DUP3 ADD SWAP1 POP DUP1 DUP3 GT ISZERO PUSH2 0x1256 JUMPI PUSH2 0x1255 PUSH2 0x11FC JUMP JUMPDEST JUMPDEST SWAP3 SWAP2 POP POP JUMP JUMPDEST PUSH0 PUSH2 0x1266 DUP3 PUSH2 0xF93 JUMP JUMPDEST SWAP2 POP PUSH2 0x1271 DUP4 PUSH2 0xF93 JUMP JUMPDEST SWAP3 POP DUP3 DUP3 MUL PUSH2 0x127F DUP2 PUSH2 0xF93 JUMP JUMPDEST SWAP2 POP DUP3 DUP3 DIV DUP5 EQ DUP4 ISZERO OR PUSH2 0x1296 JUMPI PUSH2 0x1295 PUSH2 0x11FC JUMP JUMPDEST JUMPDEST POP SWAP3 SWAP2 POP POP JUMP JUMPDEST PUSH32 0x45524332303A2064656372656173656420616C6C6F77616E63652062656C6F77 PUSH0 DUP3 ADD MSTORE PUSH32 0x207A65726F000000000000000000000000000000000000000000000000000000 PUSH1 0x20 DUP3 ADD MSTORE POP JUMP JUMPDEST PUSH0 PUSH2 0x12F7 PUSH1 0x25 DUP4 PUSH2 0xE95 JUMP JUMPDEST SWAP2 POP PUSH2 0x1302 DUP3 PUSH2 0x129D JUMP JUMPDEST PUSH1 0x40 DUP3 ADD SWAP1 POP SWAP2 SWAP1 POP JUMP JUMPDEST PUSH0 PUSH1 0x20 DUP3 ADD SWAP1 POP DUP2 DUP2 SUB PUSH0 DUP4 ADD MSTORE PUSH2 0x1324 DUP2 PUSH2 0x12EB JUMP JUMPDEST SWAP1 POP SWAP2 SWAP1 POP JUMP JUMPDEST PUSH32 0x4F776E61626C653A206E6577206F776E657220697320746865207A65726F2061 PUSH0 DUP3 ADD MSTORE PUSH32 0x6464726573730000000000000000000000000000000000000000000000000000 PUSH1 0x20 DUP3 ADD MSTORE POP JUMP JUMPDEST PUSH0 PUSH2 0x1385 PUSH1 0x26 DUP4 PUSH2 0xE95 JUMP JUMPDEST SWAP2 POP PUSH2 0x1390 DUP3 PUSH2 0x132B JUMP JUMPDEST PUSH1 0x40 DUP3 ADD SWAP1 POP SWAP2 SWAP1 POP JUMP JUMPDEST PUSH0 PUSH1 0x20 DUP3 ADD SWAP1 POP DUP2 DUP2 SUB PUSH0 DUP4 ADD MSTORE PUSH2 0x13B2 DUP2 PUSH2 0x1379 JUMP JUMPDEST SWAP1 POP SWAP2 SWAP1 POP JUMP JUMPDEST PUSH32 0x4F776E61626C653A2063616C6C6572206973206E6F7420746865206F776E6572 PUSH0 DUP3 ADD MSTORE POP JUMP JUMPDEST PUSH0 PUSH2 0x13ED PUSH1 0x20 DUP4 PUSH2 0xE95 JUMP JUMPDEST SWAP2 POP PUSH2 0x13F8 DUP3 PUSH2 0x13B9 JUMP JUMPDEST PUSH1 0x20 DUP3 ADD SWAP1 POP SWAP2 SWAP1 POP JUMP JUMPDEST PUSH0 PUSH1 0x20 DUP3 ADD SWAP1 POP DUP2 DUP2 SUB PUSH0 DUP4 ADD MSTORE PUSH2 0x141A DUP2 PUSH2 0x13E1 JUMP JUMPDEST SWAP1 POP SWAP2 SWAP1 POP JUMP JUMPDEST PUSH32 0x45524332303A20617070726F76652066726F6D20746865207A65726F20616464 PUSH0 DUP3 ADD MSTORE PUSH32 0x7265737300000000000000000000000000000000000000000000000000000000 PUSH1 0x20 DUP3 ADD MSTORE POP JUMP JUMPDEST PUSH0 PUSH2 0x147B PUSH1 0x24 DUP4 PUSH2 0xE95 JUMP JUMPDEST SWAP2 POP PUSH2 0x1486 DUP3 PUSH2 0x1421 JUMP JUMPDEST PUSH1 0x40 DUP3 ADD SWAP1 POP SWAP2 SWAP1 POP JUMP JUMPDEST PUSH0 PUSH1 0x20 DUP3 ADD SWAP1 POP DUP2 DUP2 SUB PUSH0 DUP4 ADD MSTORE PUSH2 0x14A8 DUP2 PUSH2 0x146F JUMP JUMPDEST SWAP1 POP SWAP2 SWAP1 POP JUMP JUMPDEST PUSH32 0x45524332303A20617070726F766520746F20746865207A65726F206164647265 PUSH0 DUP3 ADD MSTORE PUSH32 0x7373000000000000000000000000000000000000000000000000000000000000 PUSH1 0x20 DUP3 ADD MSTORE POP JUMP JUMPDEST PUSH0 PUSH2 0x1509 PUSH1 0x22 DUP4 PUSH2 0xE95 JUMP JUMPDEST SWAP2 POP PUSH2 0x1514 DUP3 PUSH2 0x14AF JUMP JUMPDEST PUSH1 0x40 DUP3 ADD SWAP1 POP SWAP2 SWAP1 POP JUMP JUMPDEST PUSH0 PUSH1 0x20 DUP3 ADD SWAP1 POP DUP2 DUP2 SUB PUSH0 DUP4 ADD MSTORE PUSH2 0x1536 DUP2 PUSH2 0x14FD JUMP JUMPDEST SWAP1 POP SWAP2 SWAP1 POP JUMP JUMPDEST PUSH32 0x45524332303A20696E73756666696369656E7420616C6C6F77616E6365000000 PUSH0 DUP3 ADD MSTORE POP JUMP JUMPDEST PUSH0 PUSH2 0x1571 PUSH1 0x1D DUP4 PUSH2 0xE95 JUMP JUMPDEST SWAP2 POP PUSH2 0x157C DUP3 PUSH2 0x153D JUMP JUMPDEST PUSH1 0x20 DUP3 ADD SWAP1 POP SWAP2 SWAP1 POP JUMP JUMPDEST PUSH0 PUSH1 0x20 DUP3 ADD SWAP1 POP DUP2 DUP2 SUB PUSH0 DUP4 ADD MSTORE PUSH2 0x159E DUP2 PUSH2 0x1565 JUMP JUMPDEST SWAP1 POP SWAP2 SWAP1 POP JUMP JUMPDEST PUSH32 0x45524332303A207472616E736665722066726F6D20746865207A65726F206164 PUSH0 DUP3 ADD MSTORE PUSH32 0x6472657373000000000000000000000000000000000000000000000000000000 PUSH1 0x20 DUP3 ADD MSTORE POP JUMP JUMPDEST PUSH0 PUSH2 0x15FF PUSH1 0x25 DUP4 PUSH2 0xE95 JUMP JUMPDEST SWAP2 POP PUSH2 0x160A DUP3 PUSH2 0x15A5 JUMP JUMPDEST PUSH1 0x40 DUP3 ADD SWAP1 POP SWAP2 SWAP1 POP JUMP JUMPDEST PUSH0 PUSH1 0x20 DUP3 ADD SWAP1 POP DUP2 DUP2 SUB PUSH0 DUP4 ADD MSTORE PUSH2 0x162C DUP2 PUSH2 0x15F3 JUMP JUMPDEST SWAP1 POP SWAP2 SWAP1 POP JUMP JUMPDEST PUSH32 0x45524332303A207472616E7366657220746F20746865207A65726F2061646472 PUSH0 DUP3 ADD MSTORE PUSH32 0x6573730000000000000000000000000000000000000000000000000000000000 PUSH1 0x20 DUP3 ADD MSTORE POP JUMP JUMPDEST PUSH0 PUSH2 0x168D PUSH1 0x23 DUP4 PUSH2 0xE95 JUMP JUMPDEST SWAP2 POP PUSH2 0x1698 DUP3 PUSH2 0x1633 JUMP JUMPDEST PUSH1 0x40 DUP3 ADD SWAP1 POP SWAP2 SWAP1 POP JUMP JUMPDEST PUSH0 PUSH1 0x20 DUP3 ADD SWAP1 POP DUP2 DUP2 SUB PUSH0 DUP4 ADD MSTORE PUSH2 0x16BA DUP2 PUSH2 0x1681 JUMP JUMPDEST SWAP1 POP SWAP2 SWAP1 POP JUMP JUMPDEST PUSH32 0x45524332303A207472616E7366657220616D6F756E7420657863656564732062 PUSH0 DUP3 ADD MSTORE PUSH32 0x616C616E63650000000000000000000000000000000000000000000000000000 PUSH1 0x20 DUP3 ADD MSTORE POP JUMP JUMPDEST PUSH0 PUSH2 0x171B PUSH1 0x26 DUP4 PUSH2 0xE95 JUMP JUMPDEST SWAP2 POP PUSH2 0x1726 DUP3 PUSH2 0x16C1 JUMP JUMPDEST PUSH1 0x40 DUP3 ADD SWAP1 POP SWAP2 SWAP1 POP JUMP JUMPDEST PUSH0 PUSH1 0x20 DUP3 ADD SWAP1 POP DUP2 DUP2 SUB PUSH0 DUP4 ADD MSTORE PUSH2 0x1748 DUP2 PUSH2 0x170F JUMP JUMPDEST SWAP1 POP SWAP2 SWAP1 POP JUMP JUMPDEST PUSH32 0x45524332303A206D696E7420746F20746865207A65726F206164647265737300 PUSH0 DUP3 ADD MSTORE POP JUMP JUMPDEST PUSH0 PUSH2 0x1783 PUSH1 0x1F DUP4 PUSH2 0xE95 JUMP JUMPDEST SWAP2 POP PUSH2 0x178E DUP3 PUSH2 0x174F JUMP JUMPDEST PUSH1 0x20 DUP3 ADD SWAP1 POP SWAP2 SWAP1 POP JUMP JUMPDEST PUSH0 PUSH1 0x20 DUP3 ADD SWAP1 POP DUP2 DUP2 SUB PUSH0 DUP4 ADD MSTORE PUSH2 0x17B0 DUP2 PUSH2 0x1777 JUMP JUMPDEST SWAP1 POP SWAP2 SWAP1 POP JUMP INVALID LOG2 PUSH5 0x6970667358 0x22 SLT KECCAK256 PUSH25 0xB08E0004B43DF447813D0BB80A98C5A0E3A3275900B83DC2DD CALLVALUE SWAP6 EXTCODECOPY 0x27 0x2C CODESIZE PUSH5 0x736F6C6343 STOP ADDMOD ISZERO STOP CALLER "},"gasEstimates":{"creation":{"codeDepositCost":"4448000","executionCost":"infinite","totalCost":"infinite"},"external":{"addProduct(string,string,string,uint256)":"infinite","brandDetails(string)":"infinite","brands(uint256)":"infinite","buyProduct(string,string,bool,string)":"infinite","buyTokens(string)":"infinite","createReward(string,uint256,uint256,uint256)":"infinite","issueReward(string)":"infinite","issueTokens(string,uint256)":"infinite","productDetails(string,string)":"infinite","registerBrand(string,string,uint256,uint256[][])":"infinite","registerUser(string,string)":"infinite","showBalance(address)":"infinite","showBrandProductDetails(string,string)":"infinite","showBrandProducts(string)":"infinite","showUserPurchaseHistory(address)":"infinite","userDetails(address)":"infinite"},"internal":{"generateRandomCode()":"infinite"}},"methodIdentifiers":{"addProduct(string,string,string,uint256)":"8165fed5","brandDetails(string)":"2da39105","brands(uint256)":"fdcb5732","buyProduct(string,string,bool,string)":"55008c18","buyTokens(string)":"6f85e62c","createReward(string,uint256,uint256,uint256)":"e7d4b3fd","issueReward(string)":"188d030c","issueTokens(string,uint256)":"2ce22810","productDetails(string,string)":"9623cfb2","registerBrand(string,string,uint256,uint256[][])":"35ac9baa","registerUser(string,string)":"1d2e4afd","showBalance(address)":"9c080f5d","showBrandProductDetails(string,string)":"296b7454","showBrandProducts(string)":"d7fe9ef1","showUserPurchaseHistory(address)":"dac11963","userDetails(address)":"48dec2a7"}},"storageLayout":{"storage":[{"astId":93,"contract":"FlipKart.sol:FlipKart","label":"brands","offset":0,"slot":"0","type":"t_array(t_string_storage)dyn_storage"},{"astId":98,"contract":"FlipKart.sol:FlipKart","label":"brandDetails","offset":0,"slot":"1","type":"t_mapping(t_string_memory_ptr,t_struct(Brand)31_storage)"},{"astId":105,"contract":"FlipKart.sol:FlipKart","label":"productDetails","offset":0,"slot":"2","type":"t_mapping(t_string_memory_ptr,t_mapping(t_string_memory_ptr,t_struct(Product)42_storage))"},{"astId":110,"contract":"FlipKart.sol:FlipKart","label":"userDetails","offset":0,"slot":"3","type":"t_mapping(t_address,t_struct(User)75_storage)"},{"astId":116,"contract":"FlipKart.sol:FlipKart","label":"userBrandPurchaseAmount","offset":0,"slot":"4","type":"t_mapping(t_string_memory_ptr,t_mapping(t_string_memory_ptr,t_uint256))"},{"astId":120,"contract":"FlipKart.sol:FlipKart","label":"referrerUserAddress","offset":0,"slot":"5","type":"t_mapping(t_string_memory_ptr,t_address)"},{"astId":125,"contract":"FlipKart.sol:FlipKart","label":"rewards","offset":0,"slot":"6","type":"t_mapping(t_string_memory_ptr,t_struct(Reward)53_storage)"},{"astId":129,"contract":"FlipKart.sol:FlipKart","label":"redeemableRewardId","offset":0,"slot":"7","type":"t_mapping(t_string_memory_ptr,t_string_storage)"},{"astId":135,"contract":"FlipKart.sol:FlipKart","label":"userRewardInvalidity","offset":0,"slot":"8","type":"t_mapping(t_string_memory_ptr,t_mapping(t_string_memory_ptr,t_bool))"},{"astId":141,"contract":"FlipKart.sol:FlipKart","label":"redeemableRewardValidity","offset":0,"slot":"9","type":"t_mapping(t_string_memory_ptr,t_mapping(t_string_memory_ptr,t_bool))"},{"astId":143,"contract":"FlipKart.sol:FlipKart","label":"token","offset":0,"slot":"10","type":"t_address"},{"astId":145,"contract":"FlipKart.sol:FlipKart","label":"tokenValue","offset":0,"slot":"11","type":"t_uint256"}],"types":{"t_address":{"encoding":"inplace","label":"address","numberOfBytes":"20"},"t_address_payable":{"encoding":"inplace","label":"address payable","numberOfBytes":"20"},"t_array(t_array(t_uint256)dyn_storage)dyn_storage":{"base":"t_array(t_uint256)dyn_storage","encoding":"dynamic_array","label":"uint256[][]","numberOfBytes":"32"},"t_array(t_string_storage)dyn_storage":{"base":"t_string_storage","encoding":"dynamic_array","label":"string[]","numberOfBytes":"32"},"t_array(t_struct(Product)42_storage)dyn_storage":{"base":"t_struct(Product)42_storage","encoding":"dynamic_array","label":"struct FlipKart.Product[]","numberOfBytes":"32"},"t_array(t_struct(RedeemableReward)58_storage)dyn_storage":{"base":"t_struct(RedeemableReward)58_storage","encoding":"dynamic_array","label":"struct FlipKart.RedeemableReward[]","numberOfBytes":"32"},"t_array(t_struct(Reward)53_storage)dyn_storage":{"base":"t_struct(Reward)53_storage","encoding":"dynamic_array","label":"struct FlipKart.Reward[]","numberOfBytes":"32"},"t_array(t_struct(UserTransaction)90_storage)dyn_storage":{"base":"t_struct(UserTransaction)90_storage","encoding":"dynamic_array","label":"struct FlipKart.UserTransaction[]","numberOfBytes":"32"},"t_array(t_uint256)dyn_storage":{"base":"t_uint256","encoding":"dynamic_array","label":"uint256[]","numberOfBytes":"32"},"t_bool":{"encoding":"inplace","label":"bool","numberOfBytes":"1"},"t_mapping(t_address,t_struct(User)75_storage)":{"encoding":"mapping","key":"t_address","label":"mapping(address => struct FlipKart.User)","numberOfBytes":"32","value":"t_struct(User)75_storage"},"t_mapping(t_string_memory_ptr,t_address)":{"encoding":"mapping","key":"t_string_memory_ptr","label":"mapping(string => address)","numberOfBytes":"32","value":"t_address"},"t_mapping(t_string_memory_ptr,t_bool)":{"encoding":"mapping","key":"t_string_memory_ptr","label":"mapping(string => bool)","numberOfBytes":"32","value":"t_bool"},"t_mapping(t_string_memory_ptr,t_mapping(t_string_memory_ptr,t_bool))":{"encoding":"mapping","key":"t_string_memory_ptr","label":"mapping(string => mapping(string => bool))","numberOfBytes":"32","value":"t_mapping(t_string_memory_ptr,t_bool)"},"t_mapping(t_string_memory_ptr,t_mapping(t_string_memory_ptr,t_struct(Product)42_storage))":{"encoding":"mapping","key":"t_string_memory_ptr","label":"mapping(string => mapping(string => struct FlipKart.Product))","numberOfBytes":"32","value":"t_mapping(t_string_memory_ptr,t_struct(Product)42_storage)"},"t_mapping(t_string_memory_ptr,t_mapping(t_string_memory_ptr,t_uint256))":{"encoding":"mapping","key":"t_string_memory_ptr","label":"mapping(string => mapping(string => uint256))","numberOfBytes":"32","value":"t_mapping(t_string_memory_ptr,t_uint256)"},"t_mapping(t_string_memory_ptr,t_string_storage)":{"encoding":"mapping","key":"t_string_memory_ptr","label":"mapping(string => string)","numberOfBytes":"32","value":"t_string_storage"},"t_mapping(t_string_memory_ptr,t_struct(Brand)31_storage)":{"encoding":"mapping","key":"t_string_memory_ptr","label":"mapping(string => struct FlipKart.Brand)","numberOfBytes":"32","value":"t_struct(Brand)31_storage"},"t_mapping(t_string_memory_ptr,t_struct(Product)42_storage)":{"encoding":"mapping","key":"t_string_memory_ptr","label":"mapping(string => struct FlipKart.Product)","numberOfBytes":"32","value":"t_struct(Product)42_storage"},"t_mapping(t_string_memory_ptr,t_struct(Reward)53_storage)":{"encoding":"mapping","key":"t_string_memory_ptr","label":"mapping(string => struct FlipKart.Reward)","numberOfBytes":"32","value":"t_struct(Reward)53_storage"},"t_mapping(t_string_memory_ptr,t_uint256)":{"encoding":"mapping","key":"t_string_memory_ptr","label":"mapping(string => uint256)","numberOfBytes":"32","value":"t_uint256"},"t_string_memory_ptr":{"encoding":"bytes","label":"string","numberOfBytes":"32"},"t_string_storage":{"encoding":"bytes","label":"string","numberOfBytes":"32"},"t_struct(Brand)31_storage":{"encoding":"inplace","label":"struct FlipKart.Brand","members":[{"astId":6,"contract":"FlipKart.sol:FlipKart","label":"id","offset":0,"slot":"0","type":"t_string_storage"},{"astId":8,"contract":"FlipKart.sol:FlipKart","label":"name","offset":0,"slot":"1","type":"t_string_storage"},{"astId":10,"contract":"FlipKart.sol:FlipKart","label":"category","offset":0,"slot":"2","type":"t_string_storage"},{"astId":12,"contract":"FlipKart.sol:FlipKart","label":"owner","offset":0,"slot":"3","type":"t_address_payable"},{"astId":16,"contract":"FlipKart.sol:FlipKart","label":"products","offset":0,"slot":"4","type":"t_array(t_struct(Product)42_storage)dyn_storage"},{"astId":20,"contract":"FlipKart.sol:FlipKart","label":"rewards","offset":0,"slot":"5","type":"t_array(t_struct(Reward)53_storage)dyn_storage"},{"astId":22,"contract":"FlipKart.sol:FlipKart","label":"isIssuingTokens","offset":0,"slot":"6","type":"t_bool"},{"astId":24,"contract":"FlipKart.sol:FlipKart","label":"rewardTokensLeft","offset":0,"slot":"7","type":"t_uint256"},{"astId":26,"contract":"FlipKart.sol:FlipKart","label":"rewardPricePercentage","offset":0,"slot":"8","type":"t_uint256"},{"astId":30,"contract":"FlipKart.sol:FlipKart","label":"rewardMilestones","offset":0,"slot":"9","type":"t_array(t_array(t_uint256)dyn_storage)dyn_storage"}],"numberOfBytes":"320"},"t_struct(Product)42_storage":{"encoding":"inplace","label":"struct FlipKart.Product","members":[{"astId":33,"contract":"FlipKart.sol:FlipKart","label":"id","offset":0,"slot":"0","type":"t_string_storage"},{"astId":35,"contract":"FlipKart.sol:FlipKart","label":"name","offset":0,"slot":"1","type":"t_string_storage"},{"astId":37,"contract":"FlipKart.sol:FlipKart","label":"category","offset":0,"slot":"2","type":"t_string_storage"},{"astId":39,"contract":"FlipKart.sol:FlipKart","label":"price","offset":0,"slot":"3","type":"t_uint256"},{"astId":41,"contract":"FlipKart.sol:FlipKart","label":"available","offset":0,"slot":"4","type":"t_bool"}],"numberOfBytes":"160"},"t_struct(RedeemableReward)58_storage":{"encoding":"inplace","label":"struct FlipKart.RedeemableReward","members":[{"astId":55,"contract":"FlipKart.sol:FlipKart","label":"rewardId","offset":0,"slot":"0","type":"t_string_storage"},{"astId":57,"contract":"FlipKart.sol:FlipKart","label":"redeemCode","offset":0,"slot":"1","type":"t_string_storage"}],"numberOfBytes":"64"},"t_struct(Reward)53_storage":{"encoding":"inplace","label":"struct FlipKart.Reward","members":[{"astId":44,"contract":"FlipKart.sol:FlipKart","label":"id","offset":0,"slot":"0","type":"t_string_storage"},{"astId":46,"contract":"FlipKart.sol:FlipKart","label":"brandId","offset":0,"slot":"1","type":"t_string_storage"},{"astId":48,"contract":"FlipKart.sol:FlipKart","label":"discount","offset":0,"slot":"2","type":"t_uint256"},{"astId":50,"contract":"FlipKart.sol:FlipKart","label":"maxDiscountPrice","offset":0,"slot":"3","type":"t_uint256"},{"astId":52,"contract":"FlipKart.sol:FlipKart","label":"tokensRequired","offset":0,"slot":"4","type":"t_uint256"}],"numberOfBytes":"160"},"t_struct(User)75_storage":{"encoding":"inplace","label":"struct FlipKart.User","members":[{"astId":60,"contract":"FlipKart.sol:FlipKart","label":"id","offset":0,"slot":"0","type":"t_string_storage"},{"astId":62,"contract":"FlipKart.sol:FlipKart","label":"name","offset":0,"slot":"1","type":"t_string_storage"},{"astId":64,"contract":"FlipKart.sol:FlipKart","label":"account","offset":0,"slot":"2","type":"t_address"},{"astId":68,"contract":"FlipKart.sol:FlipKart","label":"purchaseHistory","offset":0,"slot":"3","type":"t_array(t_struct(UserTransaction)90_storage)dyn_storage"},{"astId":72,"contract":"FlipKart.sol:FlipKart","label":"rewardsObtained","offset":0,"slot":"4","type":"t_array(t_struct(RedeemableReward)58_storage)dyn_storage"},{"astId":74,"contract":"FlipKart.sol:FlipKart","label":"referralCode","offset":0,"slot":"5","type":"t_string_storage"}],"numberOfBytes":"192"},"t_struct(UserTransaction)90_storage":{"encoding":"inplace","label":"struct FlipKart.UserTransaction","members":[{"astId":77,"contract":"FlipKart.sol:FlipKart","label":"id","offset":0,"slot":"0","type":"t_string_storage"},{"astId":79,"contract":"FlipKart.sol:FlipKart","label":"brandId","offset":0,"slot":"1","type":"t_string_storage"},{"astId":81,"contract":"FlipKart.sol:FlipKart","label":"productId","offset":0,"slot":"2","type":"t_string_storage"},{"astId":83,"contract":"FlipKart.sol:FlipKart","label":"userId","offset":0,"slot":"3","type":"t_string_storage"},{"astId":85,"contract":"FlipKart.sol:FlipKart","label":"expenditure","offset":0,"slot":"4","type":"t_uint256"},{"astId":87,"contract":"FlipKart.sol:FlipKart","label":"tokensRedeemed","offset":0,"slot":"5","type":"t_uint256"},{"astId":89,"contract":"FlipKart.sol:FlipKart","label":"rewardRedeemed","offset":0,"slot":"6","type":"t_string_storage"}],"numberOfBytes":"224"},"t_uint256":{"encoding":"inplace","label":"uint256","numberOfBytes":"32"}}},"userdoc":{"kind":"user","methods":{},"version":1}}