{
  "_format": "hh-sol-artifact-1",
  "contractName": "FlipToken",
  "sourceName": "contracts/Token.sol",
  "abi": [
    {
      "inputs": [],
      "stateMutability": "nonpayable",
      "type": "constructor"
    },
    {
      "anonymous": false,
      "inputs": [
        {
          "indexed": true,
          "internalType": "address",
          "name": "owner",
          "type": "address"
        },
        {
          "indexed": true,
          "internalType": "address",
          "name": "spender",
          "type": "address"
        },
        {
          "indexed": false,
          "internalType": "uint256",
          "name": "value",
          "type": "uint256"
        }
      ],
      "name": "Approval",
      "type": "event"
    },
    {
      "anonymous": false,
      "inputs": [
        {
          "indexed": true,
          "internalType": "address",
          "name": "from",
          "type": "address"
        },
        {
          "indexed": true,
          "internalType": "address",
          "name": "to",
          "type": "address"
        },
        {
          "indexed": false,
          "internalType": "uint256",
          "name": "value",
          "type": "uint256"
        }
      ],
      "name": "Transfer",
      "type": "event"
    },
    {
      "inputs": [
        {
          "internalType": "address",
          "name": "owner",
          "type": "address"
        },
        {
          "internalType": "address",
          "name": "spender",
          "type": "address"
        }
      ],
      "name": "allowance",
      "outputs": [
        {
          "internalType": "uint256",
          "name": "",
          "type": "uint256"
        }
      ],
      "stateMutability": "view",
      "type": "function"
    },
    {
      "inputs": [
        {
          "internalType": "address",
          "name": "owner",
          "type": "address"
        },
        {
          "internalType": "uint256",
          "name": "value",
          "type": "uint256"
        }
      ],
      "name": "approve",
      "outputs": [
        {
          "internalType": "bool",
          "name": "",
          "type": "bool"
        }
      ],
      "stateMutability": "nonpayable",
      "type": "function"
    },
    {
      "inputs": [
        {
          "internalType": "address",
          "name": "account",
          "type": "address"
        }
      ],
      "name": "balanceOf",
      "outputs": [
        {
          "internalType": "uint256",
          "name": "",
          "type": "uint256"
        }
      ],
      "stateMutability": "view",
      "type": "function"
    },
    {
      "inputs": [],
      "name": "decimals",
      "outputs": [
        {
          "internalType": "uint8",
          "name": "",
          "type": "uint8"
        }
      ],
      "stateMutability": "view",
      "type": "function"
    },
    {
      "inputs": [
        {
          "internalType": "address",
          "name": "spender",
          "type": "address"
        },
        {
          "internalType": "uint256",
          "name": "subtractedValue",
          "type": "uint256"
        }
      ],
      "name": "decreaseAllowance",
      "outputs": [
        {
          "internalType": "bool",
          "name": "",
          "type": "bool"
        }
      ],
      "stateMutability": "nonpayable",
      "type": "function"
    },
    {
      "inputs": [
        {
          "internalType": "address",
          "name": "spender",
          "type": "address"
        },
        {
          "internalType": "uint256",
          "name": "addedValue",
          "type": "uint256"
        }
      ],
      "name": "increaseAllowance",
      "outputs": [
        {
          "internalType": "bool",
          "name": "",
          "type": "bool"
        }
      ],
      "stateMutability": "nonpayable",
      "type": "function"
    },
    {
      "inputs": [
        {
          "internalType": "uint256",
          "name": "supply",
          "type": "uint256"
        }
      ],
      "name": "mint",
      "outputs": [],
      "stateMutability": "nonpayable",
      "type": "function"
    },
    {
      "inputs": [],
      "name": "name",
      "outputs": [
        {
          "internalType": "string",
          "name": "",
          "type": "string"
        }
      ],
      "stateMutability": "view",
      "type": "function"
    },
    {
      "inputs": [],
      "name": "owner",
      "outputs": [
        {
          "internalType": "address payable",
          "name": "",
          "type": "address"
        }
      ],
      "stateMutability": "view",
      "type": "function"
    },
    {
      "inputs": [],
      "name": "symbol",
      "outputs": [
        {
          "internalType": "string",
          "name": "",
          "type": "string"
        }
      ],
      "stateMutability": "view",
      "type": "function"
    },
    {
      "inputs": [],
      "name": "totalSupply",
      "outputs": [
        {
          "internalType": "uint256",
          "name": "",
          "type": "uint256"
        }
      ],
      "stateMutability": "view",
      "type": "function"
    },
    {
      "inputs": [
        {
          "internalType": "address",
          "name": "to",
          "type": "address"
        },
        {
          "internalType": "uint256",
          "name": "value",
          "type": "uint256"
        }
      ],
      "name": "transfer",
      "outputs": [
        {
          "internalType": "bool",
          "name": "",
          "type": "bool"
        }
      ],
      "stateMutability": "nonpayable",
      "type": "function"
    },
    {
      "inputs": [
        {
          "internalType": "address",
          "name": "from",
          "type": "address"
        },
        {
          "internalType": "address",
          "name": "to",
          "type": "address"
        },
        {
          "internalType": "uint256",
          "name": "value",
          "type": "uint256"
        }
      ],
      "name": "transferFrom",
      "outputs": [
        {
          "internalType": "bool",
          "name": "",
          "type": "bool"
        }
      ],
      "stateMutability": "nonpayable",
      "type": "function"
    }
  ],
  "bytecode": "0x60806040523480156200001157600080fd5b506040518060400160405280600881526020017f666c6970436f696e0000000000000000000000000000000000000000000000008152506040518060400160405280600281526020017f4650000000000000000000000000000000000000000000000000000000000000815250816003908051906020019062000096929190620000f9565b508060049080519060200190620000af929190620000f9565b50505033600560006101000a81548173ffffffffffffffffffffffffffffffffffffffff021916908373ffffffffffffffffffffffffffffffffffffffff1602179055506200020e565b8280546200010790620001d8565b90600052602060002090601f0160209004810192826200012b576000855562000177565b82601f106200014657805160ff191683800117855562000177565b8280016001018555821562000177579182015b828111156200017657825182559160200191906001019062000159565b5b5090506200018691906200018a565b5090565b5b80821115620001a55760008160009055506001016200018b565b5090565b7f4e487b7100000000000000000000000000000000000000000000000000000000600052602260045260246000fd5b60006002820490506001821680620001f157607f821691505b60208210811415620002085762000207620001a9565b5b50919050565b6116f6806200021e6000396000f3fe608060405234801561001057600080fd5b50600436106100cf5760003560e01c806370a082311161008c578063a0712d6811610066578063a0712d681461022a578063a457c2d714610246578063a9059cbb14610276578063dd62ed3e146102a6576100cf565b806370a08231146101be5780638da5cb5b146101ee57806395d89b411461020c576100cf565b806306fdde03146100d4578063095ea7b3146100f257806318160ddd1461012257806323b872dd14610140578063313ce56714610170578063395093511461018e575b600080fd5b6100dc6102d6565b6040516100e99190610e81565b60405180910390f35b61010c60048036038101906101079190610f3c565b610368565b6040516101199190610f97565b60405180910390f35b61012a6103e6565b6040516101379190610fc1565b60405180910390f35b61015a60048036038101906101559190610fdc565b6103f0565b6040516101679190610f97565b60405180910390f35b61017861047a565b604051610185919061104b565b60405180910390f35b6101a860048036038101906101a39190610f3c565b610483565b6040516101b59190610f97565b60405180910390f35b6101d860048036038101906101d39190611066565b6104ba565b6040516101e59190610fc1565b60405180910390f35b6101f6610502565b60405161020391906110b4565b60405180910390f35b610214610528565b6040516102219190610e81565b60405180910390f35b610244600480360381019061023f91906110cf565b6105ba565b005b610260600480360381019061025b9190610f3c565b610634565b60405161026d9190610f97565b60405180910390f35b610290600480360381019061028b9190610f3c565b6106ab565b60405161029d9190610f97565b60405180910390f35b6102c060048036038101906102bb91906110fc565b610729565b6040516102cd9190610fc1565b60405180910390f35b6060600380546102e59061116b565b80601f01602080910402602001604051908101604052809291908181526020018280546103119061116b565b801561035e5780601f106103335761010080835404028352916020019161035e565b820191906000526020600020905b81548152906001019060200180831161034157829003601f168201915b5050505050905090565b6000600560009054906101000a900473ffffffffffffffffffffffffffffffffffffffff1673ffffffffffffffffffffffffffffffffffffffff163373ffffffffffffffffffffffffffffffffffffffff16146103c457600080fd5b60006103ce6107b0565b90506103db8482856107b8565b600191505092915050565b6000600254905090565b6000600560009054906101000a900473ffffffffffffffffffffffffffffffffffffffff1673ffffffffffffffffffffffffffffffffffffffff163373ffffffffffffffffffffffffffffffffffffffff161461044c57600080fd5b60006104566107b0565b9050610463858285610983565b61046e858585610a0f565b60019150509392505050565b60006012905090565b60008061048e6107b0565b90506104af8185856104a08589610729565b6104aa91906111cc565b6107b8565b600191505092915050565b60008060008373ffffffffffffffffffffffffffffffffffffffff1673ffffffffffffffffffffffffffffffffffffffff168152602001908152602001600020549050919050565b600560009054906101000a900473ffffffffffffffffffffffffffffffffffffffff1681565b6060600480546105379061116b565b80601f01602080910402602001604051908101604052809291908181526020018280546105639061116b565b80156105b05780601f10610585576101008083540402835291602001916105b0565b820191906000526020600020905b81548152906001019060200180831161059357829003601f168201915b5050505050905090565b600560009054906101000a900473ffffffffffffffffffffffffffffffffffffffff1673ffffffffffffffffffffffffffffffffffffffff163373ffffffffffffffffffffffffffffffffffffffff161461061457600080fd5b61063133670de0b6b3a76400008361062c9190611222565b610c87565b50565b60008061063f6107b0565b9050600061064d8286610729565b905083811015610692576040517f08c379a0000000000000000000000000000000000000000000000000000000008152600401610689906112ee565b60405180910390fd5b61069f82868684036107b8565b60019250505092915050565b6000600560009054906101000a900473ffffffffffffffffffffffffffffffffffffffff1673ffffffffffffffffffffffffffffffffffffffff163373ffffffffffffffffffffffffffffffffffffffff161461070757600080fd5b60006107116107b0565b905061071e818585610a0f565b600191505092915050565b6000600160008473ffffffffffffffffffffffffffffffffffffffff1673ffffffffffffffffffffffffffffffffffffffff16815260200190815260200160002060008373ffffffffffffffffffffffffffffffffffffffff1673ffffffffffffffffffffffffffffffffffffffff16815260200190815260200160002054905092915050565b600033905090565b600073ffffffffffffffffffffffffffffffffffffffff168373ffffffffffffffffffffffffffffffffffffffff161415610828576040517f08c379a000000000000000000000000000000000000000000000000000000000815260040161081f90611380565b60405180910390fd5b600073ffffffffffffffffffffffffffffffffffffffff168273ffffffffffffffffffffffffffffffffffffffff161415610898576040517f08c379a000000000000000000000000000000000000000000000000000000000815260040161088f90611412565b60405180910390fd5b80600160008573ffffffffffffffffffffffffffffffffffffffff1673ffffffffffffffffffffffffffffffffffffffff16815260200190815260200160002060008473ffffffffffffffffffffffffffffffffffffffff1673ffffffffffffffffffffffffffffffffffffffff168152602001908152602001600020819055508173ffffffffffffffffffffffffffffffffffffffff168373ffffffffffffffffffffffffffffffffffffffff167f8c5be1e5ebec7d5bd14f71427d1e84f3dd0314c0f7b2291e5b200ac8c7c3b925836040516109769190610fc1565b60405180910390a3505050565b600061098f8484610729565b90507fffffffffffffffffffffffffffffffffffffffffffffffffffffffffffffffff8114610a0957818110156109fb576040517f08c379a00000000000000000000000000000000000000000000000000000000081526004016109f29061147e565b60405180910390fd5b610a0884848484036107b8565b5b50505050565b600073ffffffffffffffffffffffffffffffffffffffff168373ffffffffffffffffffffffffffffffffffffffff161415610a7f576040517f08c379a0000000000000000000000000000000000000000000000000000000008152600401610a7690611510565b60405180910390fd5b600073ffffffffffffffffffffffffffffffffffffffff168273ffffffffffffffffffffffffffffffffffffffff161415610aef576040517f08c379a0000000000000000000000000000000000000000000000000000000008152600401610ae6906115a2565b60405180910390fd5b610afa838383610dde565b60008060008573ffffffffffffffffffffffffffffffffffffffff1673ffffffffffffffffffffffffffffffffffffffff16815260200190815260200160002054905081811015610b80576040517f08c379a0000000000000000000000000000000000000000000000000000000008152600401610b7790611634565b60405180910390fd5b8181036000808673ffffffffffffffffffffffffffffffffffffffff1673ffffffffffffffffffffffffffffffffffffffff16815260200190815260200160002081905550816000808573ffffffffffffffffffffffffffffffffffffffff1673ffffffffffffffffffffffffffffffffffffffff168152602001908152602001600020600082825401925050819055508273ffffffffffffffffffffffffffffffffffffffff168473ffffffffffffffffffffffffffffffffffffffff167fddf252ad1be2c89b69c2b068fc378daa952ba7f163c4a11628f55a4df523b3ef84604051610c6e9190610fc1565b60405180910390a3610c81848484610de3565b50505050565b600073ffffffffffffffffffffffffffffffffffffffff168273ffffffffffffffffffffffffffffffffffffffff161415610cf7576040517f08c379a0000000000000000000000000000000000000000000000000000000008152600401610cee906116a0565b60405180910390fd5b610d0360008383610dde565b8060026000828254610d1591906111cc565b92505081905550806000808473ffffffffffffffffffffffffffffffffffffffff1673ffffffffffffffffffffffffffffffffffffffff168152602001908152602001600020600082825401925050819055508173ffffffffffffffffffffffffffffffffffffffff16600073ffffffffffffffffffffffffffffffffffffffff167fddf252ad1be2c89b69c2b068fc378daa952ba7f163c4a11628f55a4df523b3ef83604051610dc69190610fc1565b60405180910390a3610dda60008383610de3565b5050565b505050565b505050565b600081519050919050565b600082825260208201905092915050565b60005b83811015610e22578082015181840152602081019050610e07565b83811115610e31576000848401525b50505050565b6000601f19601f8301169050919050565b6000610e5382610de8565b610e5d8185610df3565b9350610e6d818560208601610e04565b610e7681610e37565b840191505092915050565b60006020820190508181036000830152610e9b8184610e48565b905092915050565b600080fd5b600073ffffffffffffffffffffffffffffffffffffffff82169050919050565b6000610ed382610ea8565b9050919050565b610ee381610ec8565b8114610eee57600080fd5b50565b600081359050610f0081610eda565b92915050565b6000819050919050565b610f1981610f06565b8114610f2457600080fd5b50565b600081359050610f3681610f10565b92915050565b60008060408385031215610f5357610f52610ea3565b5b6000610f6185828601610ef1565b9250506020610f7285828601610f27565b9150509250929050565b60008115159050919050565b610f9181610f7c565b82525050565b6000602082019050610fac6000830184610f88565b92915050565b610fbb81610f06565b82525050565b6000602082019050610fd66000830184610fb2565b92915050565b600080600060608486031215610ff557610ff4610ea3565b5b600061100386828701610ef1565b935050602061101486828701610ef1565b925050604061102586828701610f27565b9150509250925092565b600060ff82169050919050565b6110458161102f565b82525050565b6000602082019050611060600083018461103c565b92915050565b60006020828403121561107c5761107b610ea3565b5b600061108a84828501610ef1565b91505092915050565b600061109e82610ea8565b9050919050565b6110ae81611093565b82525050565b60006020820190506110c960008301846110a5565b92915050565b6000602082840312156110e5576110e4610ea3565b5b60006110f384828501610f27565b91505092915050565b6000806040838503121561111357611112610ea3565b5b600061112185828601610ef1565b925050602061113285828601610ef1565b9150509250929050565b7f4e487b7100000000000000000000000000000000000000000000000000000000600052602260045260246000fd5b6000600282049050600182168061118357607f821691505b602082108114156111975761119661113c565b5b50919050565b7f4e487b7100000000000000000000000000000000000000000000000000000000600052601160045260246000fd5b60006111d782610f06565b91506111e283610f06565b9250827fffffffffffffffffffffffffffffffffffffffffffffffffffffffffffffffff038211156112175761121661119d565b5b828201905092915050565b600061122d82610f06565b915061123883610f06565b9250817fffffffffffffffffffffffffffffffffffffffffffffffffffffffffffffffff04831182151516156112715761127061119d565b5b828202905092915050565b7f45524332303a2064656372656173656420616c6c6f77616e63652062656c6f7760008201527f207a65726f000000000000000000000000000000000000000000000000000000602082015250565b60006112d8602583610df3565b91506112e38261127c565b604082019050919050565b60006020820190508181036000830152611307816112cb565b9050919050565b7f45524332303a20617070726f76652066726f6d20746865207a65726f2061646460008201527f7265737300000000000000000000000000000000000000000000000000000000602082015250565b600061136a602483610df3565b91506113758261130e565b604082019050919050565b600060208201905081810360008301526113998161135d565b9050919050565b7f45524332303a20617070726f766520746f20746865207a65726f20616464726560008201527f7373000000000000000000000000000000000000000000000000000000000000602082015250565b60006113fc602283610df3565b9150611407826113a0565b604082019050919050565b6000602082019050818103600083015261142b816113ef565b9050919050565b7f45524332303a20696e73756666696369656e7420616c6c6f77616e6365000000600082015250565b6000611468601d83610df3565b915061147382611432565b602082019050919050565b600060208201905081810360008301526114978161145b565b9050919050565b7f45524332303a207472616e736665722066726f6d20746865207a65726f20616460008201527f6472657373000000000000000000000000000000000000000000000000000000602082015250565b60006114fa602583610df3565b91506115058261149e565b604082019050919050565b60006020820190508181036000830152611529816114ed565b9050919050565b7f45524332303a207472616e7366657220746f20746865207a65726f206164647260008201527f6573730000000000000000000000000000000000000000000000000000000000602082015250565b600061158c602383610df3565b915061159782611530565b604082019050919050565b600060208201905081810360008301526115bb8161157f565b9050919050565b7f45524332303a207472616e7366657220616d6f756e742065786365656473206260008201527f616c616e63650000000000000000000000000000000000000000000000000000602082015250565b600061161e602683610df3565b9150611629826115c2565b604082019050919050565b6000602082019050818103600083015261164d81611611565b9050919050565b7f45524332303a206d696e7420746f20746865207a65726f206164647265737300600082015250565b600061168a601f83610df3565b915061169582611654565b602082019050919050565b600060208201905081810360008301526116b98161167d565b905091905056fea26469706673582212200284d2481c05510f3319e68da7fbc7acc13a940629b459c35c908faa446c224764736f6c634300080c0033",
  "linkReferences": {},
  "deployedLinkReferences": {}
}