{
  "_format": "hh-sol-artifact-1",
  "contractName": "FlipToken",
  "sourceName": "contracts/Token.sol",
  "abi": [
    {
      "inputs": [],
      "stateMutability": "nonpayable",
      "type": "constructor"
    },
    {
      "anonymous": false,
      "inputs": [
        {
          "indexed": true,
          "internalType": "address",
          "name": "owner",
          "type": "address"
        },
        {
          "indexed": true,
          "internalType": "address",
          "name": "spender",
          "type": "address"
        },
        {
          "indexed": false,
          "internalType": "uint256",
          "name": "value",
          "type": "uint256"
        }
      ],
      "name": "Approval",
      "type": "event"
    },
    {
      "anonymous": false,
      "inputs": [
        {
          "indexed": true,
          "internalType": "address",
          "name": "from",
          "type": "address"
        },
        {
          "indexed": true,
          "internalType": "address",
          "name": "to",
          "type": "address"
        },
        {
          "indexed": false,
          "internalType": "uint256",
          "name": "value",
          "type": "uint256"
        }
      ],
      "name": "Transfer",
      "type": "event"
    },
    {
      "inputs": [
        {
          "internalType": "address",
          "name": "owner",
          "type": "address"
        },
        {
          "internalType": "address",
          "name": "spender",
          "type": "address"
        }
      ],
      "name": "allowance",
      "outputs": [
        {
          "internalType": "uint256",
          "name": "",
          "type": "uint256"
        }
      ],
      "stateMutability": "view",
      "type": "function"
    },
    {
      "inputs": [
        {
          "internalType": "address",
          "name": "owner",
          "type": "address"
        },
        {
          "internalType": "uint256",
          "name": "value",
          "type": "uint256"
        }
      ],
      "name": "approve",
      "outputs": [
        {
          "internalType": "bool",
          "name": "",
          "type": "bool"
        }
      ],
      "stateMutability": "nonpayable",
      "type": "function"
    },
    {
      "inputs": [
        {
          "internalType": "address",
          "name": "account",
          "type": "address"
        }
      ],
      "name": "balanceOf",
      "outputs": [
        {
          "internalType": "uint256",
          "name": "",
          "type": "uint256"
        }
      ],
      "stateMutability": "view",
      "type": "function"
    },
    {
      "inputs": [],
      "name": "decimals",
      "outputs": [
        {
          "internalType": "uint8",
          "name": "",
          "type": "uint8"
        }
      ],
      "stateMutability": "view",
      "type": "function"
    },
    {
      "inputs": [
        {
          "internalType": "address",
          "name": "spender",
          "type": "address"
        },
        {
          "internalType": "uint256",
          "name": "subtractedValue",
          "type": "uint256"
        }
      ],
      "name": "decreaseAllowance",
      "outputs": [
        {
          "internalType": "bool",
          "name": "",
          "type": "bool"
        }
      ],
      "stateMutability": "nonpayable",
      "type": "function"
    },
    {
      "inputs": [
        {
          "internalType": "address",
          "name": "spender",
          "type": "address"
        },
        {
          "internalType": "uint256",
          "name": "addedValue",
          "type": "uint256"
        }
      ],
      "name": "increaseAllowance",
      "outputs": [
        {
          "internalType": "bool",
          "name": "",
          "type": "bool"
        }
      ],
      "stateMutability": "nonpayable",
      "type": "function"
    },
    {
      "inputs": [
        {
          "internalType": "uint256",
          "name": "supply",
          "type": "uint256"
        }
      ],
      "name": "mint",
      "outputs": [],
      "stateMutability": "nonpayable",
      "type": "function"
    },
    {
      "inputs": [],
      "name": "name",
      "outputs": [
        {
          "internalType": "string",
          "name": "",
          "type": "string"
        }
      ],
      "stateMutability": "view",
      "type": "function"
    },
    {
      "inputs": [],
      "name": "owner",
      "outputs": [
        {
          "internalType": "address payable",
          "name": "",
          "type": "address"
        }
      ],
      "stateMutability": "view",
      "type": "function"
    },
    {
      "inputs": [],
      "name": "symbol",
      "outputs": [
        {
          "internalType": "string",
          "name": "",
          "type": "string"
        }
      ],
      "stateMutability": "view",
      "type": "function"
    },
    {
      "inputs": [],
      "name": "totalSupply",
      "outputs": [
        {
          "internalType": "uint256",
          "name": "",
          "type": "uint256"
        }
      ],
      "stateMutability": "view",
      "type": "function"
    },
    {
      "inputs": [
        {
          "internalType": "address",
          "name": "to",
          "type": "address"
        },
        {
          "internalType": "uint256",
          "name": "value",
          "type": "uint256"
        }
      ],
      "name": "transfer",
      "outputs": [
        {
          "internalType": "bool",
          "name": "",
          "type": "bool"
        }
      ],
      "stateMutability": "nonpayable",
      "type": "function"
    },
    {
      "inputs": [
        {
          "internalType": "address",
          "name": "from",
          "type": "address"
        },
        {
          "internalType": "address",
          "name": "to",
          "type": "address"
        },
        {
          "internalType": "uint256",
          "name": "value",
          "type": "uint256"
        }
      ],
      "name": "transferFrom",
      "outputs": [
        {
          "internalType": "bool",
          "name": "",
          "type": "bool"
        }
      ],
      "stateMutability": "nonpayable",
      "type": "function"
    }
  ],
  "bytecode": "0x60806040523480156200001157600080fd5b506040518060400160405280600881526020017f666c6970436f696e0000000000000000000000000000000000000000000000008152506040518060400160405280600281526020017f4650000000000000000000000000000000000000000000000000000000000000815250816003908051906020019062000096929190620000f9565b508060049080519060200190620000af929190620000f9565b50505033600560006101000a81548173ffffffffffffffffffffffffffffffffffffffff021916908373ffffffffffffffffffffffffffffffffffffffff1602179055506200020e565b8280546200010790620001d8565b90600052602060002090601f0160209004810192826200012b576000855562000177565b82601f106200014657805160ff191683800117855562000177565b8280016001018555821562000177579182015b828111156200017657825182559160200191906001019062000159565b5b5090506200018691906200018a565b5090565b5b80821115620001a55760008160009055506001016200018b565b5090565b7f4e487b7100000000000000000000000000000000000000000000000000000000600052602260045260246000fd5b60006002820490506001821680620001f157607f821691505b60208210811415620002085762000207620001a9565b5b50919050565b611689806200021e6000396000f3fe608060405234801561001057600080fd5b50600436106100cf5760003560e01c806370a082311161008c578063a0712d6811610066578063a0712d681461022a578063a457c2d714610246578063a9059cbb14610276578063dd62ed3e146102a6576100cf565b806370a08231146101be5780638da5cb5b146101ee57806395d89b411461020c576100cf565b806306fdde03146100d4578063095ea7b3146100f257806318160ddd1461012257806323b872dd14610140578063313ce56714610170578063395093511461018e575b600080fd5b6100dc6102d6565b6040516100e99190610e6e565b60405180910390f35b61010c60048036038101906101079190610f29565b610368565b6040516101199190610f84565b60405180910390f35b61012a6103e6565b6040516101379190610fae565b60405180910390f35b61015a60048036038101906101559190610fc9565b6103f0565b6040516101679190610f84565b60405180910390f35b61017861047a565b6040516101859190611038565b60405180910390f35b6101a860048036038101906101a39190610f29565b610483565b6040516101b59190610f84565b60405180910390f35b6101d860048036038101906101d39190611053565b6104ba565b6040516101e59190610fae565b60405180910390f35b6101f6610502565b60405161020391906110a1565b60405180910390f35b610214610528565b6040516102219190610e6e565b60405180910390f35b610244600480360381019061023f91906110bc565b6105ba565b005b610260600480360381019061025b9190610f29565b610621565b60405161026d9190610f84565b60405180910390f35b610290600480360381019061028b9190610f29565b610698565b60405161029d9190610f84565b60405180910390f35b6102c060048036038101906102bb91906110e9565b610716565b6040516102cd9190610fae565b60405180910390f35b6060600380546102e590611158565b80601f016020809104026020016040519081016040528092919081815260200182805461031190611158565b801561035e5780601f106103335761010080835404028352916020019161035e565b820191906000526020600020905b81548152906001019060200180831161034157829003601f168201915b5050505050905090565b6000600560009054906101000a900473ffffffffffffffffffffffffffffffffffffffff1673ffffffffffffffffffffffffffffffffffffffff163373ffffffffffffffffffffffffffffffffffffffff16146103c457600080fd5b60006103ce61079d565b90506103db8482856107a5565b600191505092915050565b6000600254905090565b6000600560009054906101000a900473ffffffffffffffffffffffffffffffffffffffff1673ffffffffffffffffffffffffffffffffffffffff163373ffffffffffffffffffffffffffffffffffffffff161461044c57600080fd5b600061045661079d565b9050610463858285610970565b61046e8585856109fc565b60019150509392505050565b60006012905090565b60008061048e61079d565b90506104af8185856104a08589610716565b6104aa91906111b9565b6107a5565b600191505092915050565b60008060008373ffffffffffffffffffffffffffffffffffffffff1673ffffffffffffffffffffffffffffffffffffffff168152602001908152602001600020549050919050565b600560009054906101000a900473ffffffffffffffffffffffffffffffffffffffff1681565b60606004805461053790611158565b80601f016020809104026020016040519081016040528092919081815260200182805461056390611158565b80156105b05780601f10610585576101008083540402835291602001916105b0565b820191906000526020600020905b81548152906001019060200180831161059357829003601f168201915b5050505050905090565b600560009054906101000a900473ffffffffffffffffffffffffffffffffffffffff1673ffffffffffffffffffffffffffffffffffffffff163373ffffffffffffffffffffffffffffffffffffffff161461061457600080fd5b61061e3382610c74565b50565b60008061062c61079d565b9050600061063a8286610716565b90508381101561067f576040517f08c379a000000000000000000000000000000000000000000000000000000000815260040161067690611281565b60405180910390fd5b61068c82868684036107a5565b60019250505092915050565b6000600560009054906101000a900473ffffffffffffffffffffffffffffffffffffffff1673ffffffffffffffffffffffffffffffffffffffff163373ffffffffffffffffffffffffffffffffffffffff16146106f457600080fd5b60006106fe61079d565b905061070b8185856109fc565b600191505092915050565b6000600160008473ffffffffffffffffffffffffffffffffffffffff1673ffffffffffffffffffffffffffffffffffffffff16815260200190815260200160002060008373ffffffffffffffffffffffffffffffffffffffff1673ffffffffffffffffffffffffffffffffffffffff16815260200190815260200160002054905092915050565b600033905090565b600073ffffffffffffffffffffffffffffffffffffffff168373ffffffffffffffffffffffffffffffffffffffff161415610815576040517f08c379a000000000000000000000000000000000000000000000000000000000815260040161080c90611313565b60405180910390fd5b600073ffffffffffffffffffffffffffffffffffffffff168273ffffffffffffffffffffffffffffffffffffffff161415610885576040517f08c379a000000000000000000000000000000000000000000000000000000000815260040161087c906113a5565b60405180910390fd5b80600160008573ffffffffffffffffffffffffffffffffffffffff1673ffffffffffffffffffffffffffffffffffffffff16815260200190815260200160002060008473ffffffffffffffffffffffffffffffffffffffff1673ffffffffffffffffffffffffffffffffffffffff168152602001908152602001600020819055508173ffffffffffffffffffffffffffffffffffffffff168373ffffffffffffffffffffffffffffffffffffffff167f8c5be1e5ebec7d5bd14f71427d1e84f3dd0314c0f7b2291e5b200ac8c7c3b925836040516109639190610fae565b60405180910390a3505050565b600061097c8484610716565b90507fffffffffffffffffffffffffffffffffffffffffffffffffffffffffffffffff81146109f657818110156109e8576040517f08c379a00000000000000000000000000000000000000000000000000000000081526004016109df90611411565b60405180910390fd5b6109f584848484036107a5565b5b50505050565b600073ffffffffffffffffffffffffffffffffffffffff168373ffffffffffffffffffffffffffffffffffffffff161415610a6c576040517f08c379a0000000000000000000000000000000000000000000000000000000008152600401610a63906114a3565b60405180910390fd5b600073ffffffffffffffffffffffffffffffffffffffff168273ffffffffffffffffffffffffffffffffffffffff161415610adc576040517f08c379a0000000000000000000000000000000000000000000000000000000008152600401610ad390611535565b60405180910390fd5b610ae7838383610dcb565b60008060008573ffffffffffffffffffffffffffffffffffffffff1673ffffffffffffffffffffffffffffffffffffffff16815260200190815260200160002054905081811015610b6d576040517f08c379a0000000000000000000000000000000000000000000000000000000008152600401610b64906115c7565b60405180910390fd5b8181036000808673ffffffffffffffffffffffffffffffffffffffff1673ffffffffffffffffffffffffffffffffffffffff16815260200190815260200160002081905550816000808573ffffffffffffffffffffffffffffffffffffffff1673ffffffffffffffffffffffffffffffffffffffff168152602001908152602001600020600082825401925050819055508273ffffffffffffffffffffffffffffffffffffffff168473ffffffffffffffffffffffffffffffffffffffff167fddf252ad1be2c89b69c2b068fc378daa952ba7f163c4a11628f55a4df523b3ef84604051610c5b9190610fae565b60405180910390a3610c6e848484610dd0565b50505050565b600073ffffffffffffffffffffffffffffffffffffffff168273ffffffffffffffffffffffffffffffffffffffff161415610ce4576040517f08c379a0000000000000000000000000000000000000000000000000000000008152600401610cdb90611633565b60405180910390fd5b610cf060008383610dcb565b8060026000828254610d0291906111b9565b92505081905550806000808473ffffffffffffffffffffffffffffffffffffffff1673ffffffffffffffffffffffffffffffffffffffff168152602001908152602001600020600082825401925050819055508173ffffffffffffffffffffffffffffffffffffffff16600073ffffffffffffffffffffffffffffffffffffffff167fddf252ad1be2c89b69c2b068fc378daa952ba7f163c4a11628f55a4df523b3ef83604051610db39190610fae565b60405180910390a3610dc760008383610dd0565b5050565b505050565b505050565b600081519050919050565b600082825260208201905092915050565b60005b83811015610e0f578082015181840152602081019050610df4565b83811115610e1e576000848401525b50505050565b6000601f19601f8301169050919050565b6000610e4082610dd5565b610e4a8185610de0565b9350610e5a818560208601610df1565b610e6381610e24565b840191505092915050565b60006020820190508181036000830152610e888184610e35565b905092915050565b600080fd5b600073ffffffffffffffffffffffffffffffffffffffff82169050919050565b6000610ec082610e95565b9050919050565b610ed081610eb5565b8114610edb57600080fd5b50565b600081359050610eed81610ec7565b92915050565b6000819050919050565b610f0681610ef3565b8114610f1157600080fd5b50565b600081359050610f2381610efd565b92915050565b60008060408385031215610f4057610f3f610e90565b5b6000610f4e85828601610ede565b9250506020610f5f85828601610f14565b9150509250929050565b60008115159050919050565b610f7e81610f69565b82525050565b6000602082019050610f996000830184610f75565b92915050565b610fa881610ef3565b82525050565b6000602082019050610fc36000830184610f9f565b92915050565b600080600060608486031215610fe257610fe1610e90565b5b6000610ff086828701610ede565b935050602061100186828701610ede565b925050604061101286828701610f14565b9150509250925092565b600060ff82169050919050565b6110328161101c565b82525050565b600060208201905061104d6000830184611029565b92915050565b60006020828403121561106957611068610e90565b5b600061107784828501610ede565b91505092915050565b600061108b82610e95565b9050919050565b61109b81611080565b82525050565b60006020820190506110b66000830184611092565b92915050565b6000602082840312156110d2576110d1610e90565b5b60006110e084828501610f14565b91505092915050565b60008060408385031215611100576110ff610e90565b5b600061110e85828601610ede565b925050602061111f85828601610ede565b9150509250929050565b7f4e487b7100000000000000000000000000000000000000000000000000000000600052602260045260246000fd5b6000600282049050600182168061117057607f821691505b6020821081141561118457611183611129565b5b50919050565b7f4e487b7100000000000000000000000000000000000000000000000000000000600052601160045260246000fd5b60006111c482610ef3565b91506111cf83610ef3565b9250827fffffffffffffffffffffffffffffffffffffffffffffffffffffffffffffffff038211156112045761120361118a565b5b828201905092915050565b7f45524332303a2064656372656173656420616c6c6f77616e63652062656c6f7760008201527f207a65726f000000000000000000000000000000000000000000000000000000602082015250565b600061126b602583610de0565b91506112768261120f565b604082019050919050565b6000602082019050818103600083015261129a8161125e565b9050919050565b7f45524332303a20617070726f76652066726f6d20746865207a65726f2061646460008201527f7265737300000000000000000000000000000000000000000000000000000000602082015250565b60006112fd602483610de0565b9150611308826112a1565b604082019050919050565b6000602082019050818103600083015261132c816112f0565b9050919050565b7f45524332303a20617070726f766520746f20746865207a65726f20616464726560008201527f7373000000000000000000000000000000000000000000000000000000000000602082015250565b600061138f602283610de0565b915061139a82611333565b604082019050919050565b600060208201905081810360008301526113be81611382565b9050919050565b7f45524332303a20696e73756666696369656e7420616c6c6f77616e6365000000600082015250565b60006113fb601d83610de0565b9150611406826113c5565b602082019050919050565b6000602082019050818103600083015261142a816113ee565b9050919050565b7f45524332303a207472616e736665722066726f6d20746865207a65726f20616460008201527f6472657373000000000000000000000000000000000000000000000000000000602082015250565b600061148d602583610de0565b915061149882611431565b604082019050919050565b600060208201905081810360008301526114bc81611480565b9050919050565b7f45524332303a207472616e7366657220746f20746865207a65726f206164647260008201527f6573730000000000000000000000000000000000000000000000000000000000602082015250565b600061151f602383610de0565b915061152a826114c3565b604082019050919050565b6000602082019050818103600083015261154e81611512565b9050919050565b7f45524332303a207472616e7366657220616d6f756e742065786365656473206260008201527f616c616e63650000000000000000000000000000000000000000000000000000602082015250565b60006115b1602683610de0565b91506115bc82611555565b604082019050919050565b600060208201905081810360008301526115e0816115a4565b9050919050565b7f45524332303a206d696e7420746f20746865207a65726f206164647265737300600082015250565b600061161d601f83610de0565b9150611628826115e7565b602082019050919050565b6000602082019050818103600083015261164c81611610565b905091905056fea2646970667358221220e66c08cd878f048ff648bfbed4408df08636ef1af56a03c530c4bd81840e7c3964736f6c634300080c0033",
  "linkReferences": {},
  "deployedLinkReferences": {}
}